:100000000C945D000C942C0B0C94050B0C94850047
:100010000C9485000C9485000C9424080C948500A5
:100020000C9485000C9485000C9485000C9485003C
:100030000C9485000C9485000C9485000C9485002C
:100040000C94BB0A0C9485000C94C1090C949B0978
:100050000C9485000C9485000C9485000C9485000C
:100060000C9485000C94850000000008000201003B
:100070000003040700000000000000000000000072
:10008000250028002B0000000000240027002A0083
:10009000040404040404040402020202020203032E
:1000A0000303030301020408102040800102040836
:1000B0001020010204081020B90C11241FBECFEF3C
:1000C000D8E0DEBFCDBF11E0A0E0B1E0ECE4FBE1A1
:1000D00002C005900D92A036B107D9F722E0A0E644
:1000E000B1E001C01D92A538B207E1F710E0CDE5FF
:1000F000D0E004C02197FE010E94020DCC35D1074B
:10010000C9F70E94C50B0C94A40D0C94000008952F
:100110000C94EF05FC018381877088608383848160
:100120008F71806284836783CF0108950F931F933B
:100130000E94790A0091150210911602209117026F
:1001400030911802DC01CB01801B910BA20BB30B89
:1001500089389341A105B10528F10E94790A60937D
:100160001502709316028093170290931802609103
:10017000600181E0860F8093600189E192E00E9436
:100180008A00FC018091750181839481907F916048
:10019000948380916201882329F0CF011F910F91F0
:1001A0000C94EF051F910F9108950C9496000F93F6
:1001B0001F93CF93DF93EC016115710561F0FB0193
:1001C00001900020E9F73197E61BF70BE931F105C3
:1001D00018F0E9E101C0E0E00E2F10E0C80123E0D3
:1001E000880F991F2A95E1F79B819770892B8B8344
:1001F0008C818F718C83EE2329F0A801CE010796A4
:100200000E940D0DFE01E00FF11F1782CE01DF915C
:10021000CF911F910F910895EF92FF921F93CF936B
:10022000DF93CAE3D2E085E7E82E81E0F82EF701FC
:10023000808189831A821FEF1E838BE08D838C81DE
:10024000807E83608C836BE371E0CE010E94D700D7
:100250000E948800F701808189831A821E838CE0C6
:100260008D838C81807E83608C8361E471E0CE011C
:100270000E94D7000E94880045E451E067E181E0D8
:10028000DF91CF911F91FF90EF900C947F09CF9356
:1002900080E090E0892B21F08BE090E00E9400004C
:1002A0008091750180933B0210923C02CFEFC09386
:1002B00040028FE080933F0280913E02807E836007
:1002C00080933E0264E471E08AE392E00E94D700EA
:1002D00080913D028770806180933D0280913E0253
:1002E0008F71806C80933E0281E080934102109276
:1002F00042028AE392E00E94EF0544E451E062E1A9
:100300008FEF0E947F096091760180917501809343
:100310003B0210923C02C093400286E080933F0271
:1003200080913E02807E836080933E028AE392E069
:100330000E948A000E94880086E00E94850ACF9170
:100340000C940C01CF9321E041E060E070E086E086
:100350000E94EF04C82F21E041E060E070E085E0FA
:100360000E94EF0421E08C3409F020E081E0C732E4
:1003700009F080E08223CF910895CF93DF931F92FD
:10038000CDB7DEB7698320E041E0BE016F5F7F4FEC
:100390000E94EF040F90DF91CF9108952F923F922A
:1003A0004F925F926F927F928F929F92AF92BF9285
:1003B000CF92DF92EF92FF920F931F93CF93DF9331
:1003C00000D0CDB7DEB70E94790A00916E0110917E
:1003D0006F012091700130917101DC01CB01801B14
:1003E000910BA20BB30B81369A4EA105B10590F08B
:1003F0000E94790A60936E0170936F01809370017F
:10040000909371010E94A201811104C085E091E0E6
:100410000E949A0686E0E82E90E0C92E90E0D92E40
:10042000FF24FA9420E0A22E20E0B22E30E0832EAA
:1004300030E0932E46E1542E53EA452E69E1362EE4
:1004400021E041E060E070E087E10E94EF0480FD80
:1004500083C2EA94EE2009F47FC221E041E060E02B
:1004600070E080E60E94EF04813220F082EE0E946C
:100470003E0580E021E0482F6BE572E081E60E94B6
:10048000EF0460E487E20E94BD01C114D10421F0B1
:1004900081E090E00E94000000915F0210916002F4
:1004A00020915C022A8320905B0290915D028091F2
:1004B0005E02282F2370223039F0C114D10409F4D0
:1004C000BFCF8BE690E0C5C00770209175019213F5
:1004D0006DC1E82FE770869586958695893120F461
:1004E000880F880F880F01C088EC8E2B80935E02E6
:1004F000869586958695E82FF0E0E55AFD4F1782A0
:1005000080917601281679F02A81622E712C83E081
:10051000680E711CC3010E948E0D281621F0622DF9
:10052000C3010E94960D80915F0283FF1AC081E291
:10053000EBE5F2E0AAE3B2E001900D928A95E1F7D3
:1005400080913E02877F806180933E028091750199
:1005500080933B022A8120933C028AE392E00E942E
:10056000EF0590915F0294FD18C1033009F015C1A9
:10057000143029F40E946C090E94490661CF18309A
:10058000D1F41091720110FF5BCF0E946C098F3F74
:1005900009F456CF8F5F8F3F09F452CF90917701C6
:1005A000891708F04DCF11FD4BCF809377012A8139
:1005B0002093760145CF183199F48091750180938D
:1005C0003B022A8120933C02F092400230923F028B
:1005D00080913E02807E836080933E0261E042C152
:1005E000193161F48091720183FF2ACF877F809354
:1005F00072010E946C098093740122CF8091600285
:1006000020915C022111C6C08D3099F480E090E009
:10061000892B21F08AE090E00E94000098E088E1B8
:100620000FB6F894A895809360000FBE9093600079
:10063000FFCF8B3189F40E946C0991E0811101C0D8
:1006400090E090936201C114D10409F4F9CE89E0DD
:1006500090E00E940000F4CE8630C1F480916202E6
:1006600061E0882319F08D3409F060E06093610146
:1006700083E091E069830E948E0D6981681709F417
:10068000DFCE83E091E00E94960DDACE833119F43B
:100690000E944701D5CE8231F9F40E94870620914D
:1006A000750120933B0210923C02F092400250925E
:1006B0003F0240923E0220913D022770206220932B
:1006C0003D026093410270934202809343029093F3
:1006D00044028AE392E058C0813001F5811491040C
:1006E00009F4AECE892F829586958770853049F4BE
:1006F0006091620270916302809164029091650240
:100700000AC0811105C082E692E00E943A0D03C042
:1007100060E070E0CB010E94000092CE8A30B9F513
:1007200080916202833409F08BCEC114D10421F090
:100730008CE090E00E94000003E010E0C8010E94FD
:100740008E0D8F3F21F06FEFC8010E94960D0F5F55
:100750001F4F023081E0180789F78091750180935F
:100760003B0210923C02F09240029AE090933F02CA
:1007700080913E02807E836080933E0261E571E05D
:100780008AE392E00E94D7000E94880059CE8C3103
:1007900021F456CE8A3109F453CEA114B10409F4E0
:1007A0004FCE8BE592E00E9400004ACE9F3F09F0B9
:1007B00092C0033009F080C090917201809176015F
:1007C00092FF55C0173009F052C02A81281709F44A
:1007D00037CE022F10E00D5F1F4FC8010E948E0D13
:1007E0002A81281721F0622FC8010E94960D0E94CD
:1007F000790A00916A0110916B0120916C0130918E
:100800006D01DC01CB01801B910BA20BB30B80317E
:100810009742A105B10508F089C00E94790A60934A
:100820006A0170936B0180936C0190936D010E943B
:10083000790A7370882799270E943F0A609177018F
:100840008091750180933B022A8120933C02F092B3
:10085000400288E080933F0280913E02807E836068
:1008600080933E028AE392E00E948A005CC01431C9
:1008700019F5281221C00E94790A737088279927D8
:100880000E943F0A609176018091750180933B023E
:100890002A8120933C02F092400285E180933F023E
:1008A00080913E02807E836080933E028AE392E0E4
:1008B0000E948A000E944405809176012812C0CDD2
:1008C000809175012A81281709F442C08091720134
:1008D00082FD32C03DC08091720182FFB1CD809116
:1008E0007601281679F02A81622E712C83E0680E39
:1008F000711CC3010E948E0D281621F0622DC301C8
:100900000E94960D033069F41851123050F40E9481
:100910006C098E3F31F061E0680F8BE592E00E9438
:100920008A008BE592E00E9444058ACD0E94530B19
:10093000882309F485CD71CF8BE592E00E944405B0
:10094000033009F47DCD80917601281279CD25CF31
:10095000033009F022CF74CD0F900F90DF91CF912B
:100960001F910F91FF90EF90DF90CF90BF90AF90CD
:100970009F908F907F906F905F904F903F902F90BF
:1009800008956FE080E20E94BD01609100016F3F19
:1009900019F08AE20E94BD0161E089E00C94F3093C
:1009A000E2E7F1E080818460808381818F708183C0
:1009B0000895809172018B7F8F7E8093720180E019
:1009C00090E0892B21F087E690E00E94000060E033
:1009D00089E00E94F3096CE080E20C94BD01FF9273
:1009E0000F931F93CF93DF9300D0CDB7DEB7F82ED0
:1009F0008B0181E58CBD81E08DBD60E08AE02A83BA
:100A000049830E94F309E3E2F0E03197F1F7FEBC7D
:100A1000000049812A810DB407FEFDCFFEB4F80124
:100A20008FEF4150D0F0222361F08EBD00000DB455
:100A300007FEFDCFFEB40115110599F3F082319642
:100A4000F0CFBF016F5F7F4F90819EBD00000DB45E
:100A500007FEFDCFFEB4FB01E4CF61E08AE00E9417
:100A6000F30983E290E00197F1F78F2D0F900F903B
:100A7000DF91CF911F910F91FF90089520E040E00A
:100A800060E070E00C94EF040F931F93CF93DF931B
:100A90008C01FC01C2818091720180FF04C0CF3FB4
:100AA00009F067C014C0C11103C0C09176010FC026
:100AB000CF3F69F08C2F90E003960E948E0D8F3F00
:100AC00029F480917601F80190819813C82F8091C4
:100AD0007501F8018083D381D2FD08C0D695D695E3
:100AE000D69580E090E0892B31F409C080E090E059
:100AF000892B39F0D0E280E090E00E940000DA31EA
:100B000010F0D0E201C0D95F60E089E00E94F309F3
:100B100083E092E00197F1F76EE080E20E94BD0170
:100B20008BE891E00197F1F76C2F8AE20E94BD01FA
:100B30006C2F80E30E94BD0181EE0E943E05CF3FF5
:100B400011F080EA01C080EB20E04D2FB8010E9437
:100B5000EF0461E089E00E94F30900E010E08FEF0C
:100B60000E943E05D82F807331F401501109B9F766
:100B700002C0D0E02EC060E089E00E94F30960E38B
:100B800087E20E94BD01D4FF03C081EE0E943E05B2
:100B90000E94C104D5FD05C0D1E0CF3F19F0D0E0DF
:100BA00001C0D1E080917601C81313C0D1110CC0EF
:100BB00080E090E0892B21F085E690E00E94000023
:100BC00080917301805F03C0809173018F70809367
:100BD00073018D2FDF91CF911F910F910895209177
:100BE000720122FD0C94440580E008958091750106
:100BF0008F3F11F580E090E0892B21F086E090E0B6
:100C00000E9400008091750180933B0210923C028B
:100C10008FEF8093400283E080933F0280913E02F9
:100C2000807E836080933E0264E471E08AE392E018
:100C30000E94D7000C944405089580E090E0892B31
:100C400021F084E090E00E94000080917201897F91
:100C50008160809372018FEF80937701809376019A
:100C60009091750190933B0280933C0280934002E7
:100C700087E080933F0280913E02807E8360809374
:100C80003E0264E471E08AE392E00E94D7000C9493
:100C90004405CF93C82F8FEF8C0F8E3FD0F4C093B5
:100CA0007501C093000163E082E20E94BD0161E032
:100CB00081E20E94BD010E94C10480E090E00E9498
:100CC0008E0DC81779F06C2F80E090E00E94960D91
:100CD00009C080E090E0892B39F08CE690E00E941A
:100CE000000002C081E001C080E0CF910895E09152
:100CF0006401F09165010280F381E02D309709F0E5
:100D000009958091720184FD0C94CE0108950F9392
:100D10001F930E94790A009166011091670120914A
:100D2000680130916901601B710B820B930B1F915D
:100D30000F9108959C01409164015091650190913B
:100D400073014217530741F0907F909373013093E2
:100D500065012093640107C081E0890F8F70907F47
:100D6000982B90937301E0916401F09165010190DB
:100D7000F081E02D309709F009950E94790A60937F
:100D800066017093670180936801909369010895EB
:100D90000E948706613177428105910520F081E04C
:100DA00091E00C949A0608958091730182958F705A
:100DB00090E00B9724F08DE191E00C949A06089551
:100DC0000E94530B882319F089E191E002C08DE164
:100DD00091E00C949A06809175018F3F59F080E064
:100DE00090E0892B21F087E090E00E94000085E1EF
:100DF00091E01AC00E948706613D77408105910508
:100E0000A8F0809173018F7090E003971CF481E14A
:100E100091E00AC080E090E0892B21F089E690E023
:100E20000E94000085E091E00C949A0608950E94CB
:100E30008706613D77408105910520F4809172011C
:100E400081FF0895809176018F3F81F0809172013A
:100E50008E7F8093720180E090E0892B21F085E005
:100E600090E00E94000081E191E01AC00E94870694
:100E7000613D774081059105A8F0809173018F70E5
:100E800090E003971CF48DE191E00AC080E090E0CF
:100E9000892B21F088E690E00E94000085E091E037
:100EA0000C949A060895CF9380917201877F8F7E6C
:100EB000809372010E94790A60936E0170936F01B2
:100EC000809370019093710110926A0110926B01EE
:100ED00010926C0110926D0143E050E060E070E010
:100EE00085E791E00E947E0D89E00E944D098AE02D
:100EF0000E944D09CFB7F89480916301811124C0FD
:100F0000EAE9F0E08491EEEAF0E09491E82FF0E075
:100F1000EE0FFF1FEA57FF4FA591B491EC91E92323
:100F200021F461E08AE00E94F3098AE00E944D0901
:100F30008CB580618CBD8CB580648CBD8DE00E94C9
:100F40004D098BE00E944D09809163018F5F809372
:100F50006301CFBF60E089E00E94F30961E08AE0AD
:100F60000E94F3096EE080E20E94BD0165E070E03E
:100F700080E090E00E943F0A63E083E20E94BD01AE
:100F80006FE584E20E94BD016CE485E20E94BD0130
:100F900067E286E20E94BD0163E780E50E94BD0131
:100FA00066E08DE30E94BD010E94A2018823F1F159
:100FB00062E082E20E94BD0160E081E20E94BD0128
:100FC00063E08CE30E94BD018FEF80930C0120E071
:100FD00045E06CE071E08BE20E94EF0420E045E028
:100FE0006CE071E08AE20E94EF0420E045E06CE0F2
:100FF00071E080E30E94EF0482EE0E943E0581EEE4
:101000000E943E0560E787E20E94BD018091720167
:10101000806180937201809175018F3F81F00E9401
:10102000490681110CC085E091E00BC080E090E0A2
:10103000892BC9F387E690E00E940000F4CF8DE190
:1010400091E0CF910C949A061F920F920FB60F92D7
:1010500011240F900FBE0F901F901895CF92DF9222
:10106000EF92FF920F931F93CF93DF936C017A015E
:101070008B01C0E0D0E0CE15DF0589F0D8016D917D
:101080008D01D601ED91FC910190F081E02DC6011A
:101090000995892B11F47E0102C02196ECCFC7017E
:1010A000DF91CF911F910F91FF90EF90DF90CF9044
:1010B0000895FC01918D828D981761F0828DDF017A
:1010C000A80FB11D5D968C91928D9F5F9F73928F3B
:1010D00090E008958FEF9FEF0895FC01918D828D30
:1010E000981731F0828DE80FF11D858D90E00895FD
:1010F0008FEF9FEF0895FC01918D228D892F90E055
:10110000805C9F4F821B91098F739927089588E710
:1011100091E00E947B0821E0892B09F420E0822FD6
:101120000895FC01848DDF01A80FB11DA35ABF4FA4
:101130002C91848D90E001968F739927848FA689D6
:10114000B7892C93A089B1898C9180648C93938DFD
:10115000848D981306C00288F389E02D80818F7DED
:1011600080830895EF92FF920F931F93CF93DF93A5
:10117000EC0181E0888F9B8D8C8D981305C0E889E8
:10118000F989808185FD24C0F62E0B8D10E00F5F5C
:101190001F4F0F731127E02E8C8DE8120CC00FB675
:1011A00007FCFACFE889F989808185FFF5CFCE0168
:1011B0000E949108F1CF8B8DFE01E80FF11DE35ADB
:1011C000FF4FF0820B8FEA89FB898081806207C024
:1011D000EE89FF896083E889F98980818064808352
:1011E00081E090E0DF91CF911F910F91FF90EF9000
:1011F0000895CF93DF93EC01888D8823C9F0EA89A5
:10120000FB89808185FD05C0A889B9898C9186FDFF
:101210000FC00FB607FCF5CF808185FFF2CFA889FC
:10122000B9898C9185FFEDCFCE010E949108E7CF5F
:10123000DF91CF91089580E090E0892B29F00E9402
:10124000870881110C94000008953FB7F8948091AD
:10125000810290918202A0918302B091840226B50E
:10126000A89B05C02F3F19F00196A11DB11D3FBFDE
:10127000BA2FA92F982F8827820F911DA11DB11D6C
:10128000BC01CD0142E0660F771F881F991F4A9568
:10129000D1F7089508950E94080D90E0FC01EC55E7
:1012A000FF4F2491FC01E057FF4F8491882399F070
:1012B00090E0880F991FFC01EA57FF4FA591B49168
:1012C000FC01E458FF4F859194918FB7F894EC910D
:1012D000E22BEC938FBF089580915F0282958695F3
:1012E0008770813019F4809162020895811105C0E0
:1012F00082E692E00E941C0D089580E008958F3FE1
:1013000011F09A0102C024E531E0909175019093AB
:101310003B0210923C028093400260933F02809116
:101320003E02807E80933E02B9018AE392E00E94F1
:10133000D7000C9488001F920F920FB60F921124C1
:101340002F933F934F935F936F937F938F939F93CD
:10135000AF93BF93EF93FF9388E791E00E949108CA
:10136000FF91EF91BF91AF919F918F917F916F917D
:101370005F914F913F912F910F900FBE0F901F9053
:1013800018951F920F920FB60F9211242F938F93DF
:101390009F93EF93FF93E0918801F0918901808101
:1013A000E0918E01F0918F0182FD12C090818091B9
:1013B00091018F5F8F7320919201821751F0E0911C
:1013C0009101F0E0E858FE4F958F8093910101C0A4
:1013D0008081FF91EF919F918F912F910F900FBE80
:1013E0000F901F90189590E0FC01E859FF4F349141
:1013F000FC01EC55FF4F2491FC01E057FF4FE491B5
:10140000EE2309F43BC0332339F1333091F038F443
:101410003130A9F0323001F584B58F7D12C03730FC
:1014200091F03830A1F03430B9F4809180008F7D94
:1014300003C0809180008F77809380000DC084B5B9
:101440008F7784BD09C08091B0008F7703C08091F1
:10145000B0008F7D8093B000F0E0EE0FFF1FE458E6
:10146000FF4FA591B4918FB7F894EC91611103C02F
:1014700020952E2301C02E2B2C938FBF08958F9281
:101480009F92AF92BF92CF92DF92EF92FF926B0149
:101490007C010E9425094B015C01C114D104E104C7
:1014A000F104F1F00E942509DC01CB0188199909AA
:1014B000AA09BB09883E9340A105B10570F321E05C
:1014C000C21AD108E108F10888EE880E83E0981E60
:1014D000A11CB11CC114D104E104F10419F7DDCF42
:1014E000FF90EF90DF90CF90BF90AF909F908F9044
:1014F00008952FB7F89460917D0270917E028091DB
:101500007F02909180022FBF0895CF92DF92EF92D9
:10151000FF92CF93DF93D82F0E94790A6B017C0151
:1015200081E0D11180E080936002C0E00E94790ADE
:10153000AB01BC014C195D096E097F09403D574064
:101540006105710580F4C1110EC0A8950E9477064F
:1015500090915F029770933049F7C1E080916002EB
:101560008D13E3CFE3CF8C2FDF91CF91FF90EF90DE
:10157000DF90CF9008951F920F920FB60F92112413
:101580002F933F938F939F93AF93BF9380917D024F
:1015900090917E02A0917F02B091800230917C02F6
:1015A00023E0230F2D3720F40196A11DB11D05C0A6
:1015B00026E8230F0296A11DB11D20937C02809383
:1015C0007D0290937E02A0937F02B093800280916F
:1015D000810290918202A0918302B09184020196CF
:1015E000A11DB11D8093810290938202A09383027A
:1015F000B0938402BF91AF919F918F913F912F91B2
:101600000F900FBE0F901F9018951F920F920FB65C
:101610000F9211242F933F934F935F936F937F9378
:101620008F939F93AF93BF93EF93FF93E091230129
:10163000F09124010995FF91EF91BF91AF919F9196
:101640008F917F916F915F914F913F912F910F906B
:101650000FBE0F901F9018951F920F920FB60F920A
:1016600011242F933F934F935F936F937F938F93A7
:101670009F93AF93BF93EF93FF93E0912101F0917C
:1016800022010995FF91EF91BF91AF919F918F91A9
:101690007F916F915F914F913F912F910F900FBE6E
:1016A0000F901F901895CF92DF92EF92FF92CF93F9
:1016B0008091720183FF02C080E061C0C09175011A
:1016C000CC23E1F18860809372018FEF80937401E5
:1016D000C0933B0210923C028093400288E18093C9
:1016E0003F0280913E02807E836080933E0261E0F3
:1016F0008AE392E00E948A000E9444050E94790ACF
:101700006B017C0110926002C0E00E94790ADC014A
:10171000CB018C199D09AE09BF09803D9740A105F9
:10172000B10510F4CC23D9F080917201877F8093AA
:101730007201C0917401CF3F09F4BECF0E94790AB3
:1017400060936A0170936B0180936C0190936D01BB
:1017500080917701C813C093770181E010C0809118
:10176000720184FD0E94CE0180915F0287708330F8
:1017700061F6C1E080916002893131F6C6CFCF9128
:10178000FF90EF90DF90CF900895789484B58260B9
:1017900084BD84B5816084BD85B5826085BD85B515
:1017A000816085BD80916E00816080936E00109293
:1017B000810080918100826080938100809181000E
:1017C000816080938100809180008160809380009F
:1017D0008091B10084608093B1008091B0008160FD
:1017E0008093B00080917A00846080937A00809129
:1017F0007A00826080937A0080917A008160809381
:101800007A0080917A00806880937A001092C100FB
:1018100080E090E0892B11F00E940000E0918801A7
:10182000F091890182E08083E0918401F09185014B
:101830001082E0918601F091870180E1808310920F
:101840009001E0918C01F0918D0186E08083E09120
:101850008A01F0918B01808180618083E0918A010F
:10186000F0918B01808188608083E0918A01F09102
:101870008B01808180688083E0918A01F0918B01E7
:1018800080818F7D808380E090E0892B11F00E9421
:10189000000041E050E063E071E081E691E00E94E9
:1018A0007E0D81E090E00E948E0D8F3F29F06FEF5A
:1018B00081E090E00E94960D85E091E090936501B3
:1018C0008093640181E091E00E949A068091720108
:1018D00082FD04C0A8950E947706F8CF0E944701B8
:1018E00080E090E0892B21F088E090E00E940000E9
:1018F00081E080936201C4E0DFEF1AE1809175011D
:1019000080933B0210923C02D093400210933F021E
:1019100080913E02807E836080933E0262E08AE393
:1019200092E00E948A000E9488008BE10E94850A52
:10193000811102C0C15011F7A8950E9477060E943C
:1019400096000E941B09F8CFCF93DF93FC01108211
:1019500011821282148215821682DC0117968AE1A6
:10196000ED0119928A95E9F782E08383DF91CF91A7
:101970000895E8E7F1E01382128288EE93E0A0E098
:10198000B0E084839583A683B7838FE291E091834F
:10199000808385EC90E09587848784EC90E097873E
:1019A000868780EC90E0918B808B81EC90E0938B2C
:1019B000828B82EC90E0958B848B86EC90E0978B09
:1019C000868B118E128E138E148E8BE592E00E9400
:1019D000A40C8AE392E00E94A40C89E192E00E94A8
:1019E000A40CE9E1F2E081E0868388E185830E942E
:1019F000790A6093150270931602809317029093F0
:101A000018020895EE0FFF1F0590F491E02D099440
:101A100081E090E0F8940C94A40DFB01DC014150AE
:101A2000504048F001900D920020C9F701C01D926E
:101A300041505040E0F70895FC0188279927E89429
:101A400021912032E9F3293010F02E30C8F32B32E7
:101A500041F02D3239F4689404C00E94760D820F53
:101A6000911D219120532A30C0F31EF49095819549
:101A70009F4F08951F93FC0199278827BC01E89484
:101A800011911032E9F3193010F01E30C8F31B32F7
:101A900051F01D3249F4689406C00E94610D610F37
:101AA000711D811D911D119110531A30B0F33EF438
:101AB00090958095709561957F4F8F4F9F4F1F91A7
:101AC0000895592F482F372F262F660F771F881F0D
:101AD000991F660F771F881F991F620F731F841F3E
:101AE000951F660F771F881F991F08957AE0979FAB
:101AF000902D879F802D910D11240895DC01CB013D
:101B0000FC01F999FECF06C0F2BDE1BDF89A31960D
:101B100000B40D9241505040B8F70895F999FECFA6
:101B200092BD81BDF89A992780B50895262FF9991D
:101B3000FECF1FBA92BD81BD20BD0FB6F894FA9AB0
:0C1B4000F99A0FBE01960895F894FFCFAB
:101B4C00FF53070000D904C806FFFFFF00FCE1A803
:101B5C00A8F605EB06E0060000D004D4061D061717
:101B6C00074A094A0900008502800000000000B203
:101B7C00082E087B0859086D08F90852656C6179C4
:101B8C0000312E3000546573742073656E736F7260
:101B9C00006F6B00322E302E312D626574610000A7
:1078000011E0A0E0B1E0E4EFFFE702C005900D92C7
:10781000A630B107D9F721E0A6E0B1E001C01D9282
:10782000AE34B207E1F7CDB7DEB76197DEBFCDBFAB
:10783000112484B78093270114BE88E180936000EF
:1078400089E280936000259A86E020E295B1922734
:1078500095B93FEF40E792E0315040409040E1F76A
:1078600000C00000815091F78091270181FD11C077
:107870008EE284B981E58CBD812C912C55245394E2
:1078800011E0CC24CA94DC2CAA24A39472E0B72E75
:10789000FDC082E08093C00088E18093C10086E053
:1078A0008093C20080E18093C400E12CF12CC12CB4
:1078B000D12CAA24AA94BA2C01E0A8950BD3813428
:1078C00071F408D3898B12D38989823811F482E04C
:1078D00053C0813811F485E64FC083E04DC0823437
:1078E00011F484E103C0853419F485E00BD363C03F
:1078F000853541F4EFD2E82EEDD2F12CF82AEE0CCA
:10790000FF1C58C0863521F484E0FCD280E034C0EE
:107910008436E1F4DFD2DED2882EDCD2C80CD11C52
:10792000912C981480F4D6D2182FD4D2F701E90DF7
:10793000F11D212F30E0382B090107BFE8951124F4
:1079400093949394EECFC7018CD134C0843761F403
:10795000C1D2C0D2182FBED2C9D2F70185917F0102
:10796000B2D21150D1F728C0853741F4BFD28EE191
:10797000AAD285E9A8D28FE0A6D21DC08135D1F464
:10798000BA82A982BC82AB82C60134E09695879503
:107990003A95E1F79E838D83C60175D198878F83D1
:1079A00048E050E06BE171E0CE01019602D39ED237
:1079B00011E002C09BD210E080E185D2112309F4CE
:1079C0007CCF56CF43E050E060E070E089E291E088
:1079D000E0D248E050E06BE171E0CE010196D9D2EF
:1079E00029982A9A63E083E29AD16CE485E297D1E0
:1079F00067E286E294D163E780E591D164E08DE3AC
:107A00008ED161E082E28BD161E081E288D161E0D8
:107A10008CE385D121E041E060E070E086E058D160
:107A2000873209F008C180912A01809328011092C1
:107A30004D018FEF80932A0180932B0103E22AE00E
:107A400047E06FEF66D260E084E269D160E08EEFDC
:107A500083D180912A018F3F09F4EDC080912901E3
:107A600081508E3F08F46CC003E222E043E06FEFE8
:107A700080E04FD263E084E06FD1882379F383E321
:107A800091E055D2682F80E090E0A2D2F999FECF24
:107A900099CF46E050E063E371E08DE091E064D27D
:107AA000892B79F5C3018150904F082F02950077FB
:107AB00040E050E0602F70E0DA01A45DBE4FFA01B3
:107AC000E60FF71F1E962C911E9730E0322F2227CB
:107AD0001D96AC912A2B090157BEE89511244E5FE3
:107AE0005F4F4031510541F7011106C044E0880F56
:107AF000991F4A95E1F7B5D0E114F10409F482C069
:107B0000370189859A8590930E0180930D018B85AD
:107B10009C859093100180930F01730121E0E21A7C
:107B2000F108F0921201E092110104EC22E342E02C
:107B30006FEF80E0EED168E083E00ED18111A9CF34
:107B40006FE584E2ECD010930D0110920E0103EC6E
:107B500022E14FE06FEF80E0DCD160E08FE0FCD00D
:107B60008D819E8124E0880F991F2A95E1F78BD0A3
:107B700098878F8388E0FE013196ADE0B1E00190F7
:107B80000D928A95E1F7B0921601A092150104ECCE
:107B900022E540E06FEF80E0BCD163E081E0DCD023
:107BA000882309F448C088E0E3E3F1E0DE01199698
:107BB00001900D928A95E1F748E050E0BE01675FC1
:107BC0007F4FCE010196D0D1892BA9F18091370149
:107BD000909138018038974070F588E0FE01399621
:107BE000DE01119601900D928A95E1F7D886CF8239
:107BF00048E050E06BE171E0CE010196DAD16D848E
:107C00007E847FCF8D859E8534E0880F991F3A95BD
:107C1000E1F739D02F8538898217930721F01E8626
:107C20001D86188A1F8648E050E06BE171E0CE01A6
:107C30000996BFD12BCF8D819E8124E0880F991F9B
:107C40002A95E1F720D02F8138858217930709F014
:107C50001DCF1CBCA89580912701282EF401099501
:107C600015CF23E0FC0127BFE89507B600FCFDCF48
:107C700025E0FC0127BFE89507B600FCFDCF81E1B8
:107C800087BFE8950895AC01413088E7580710F0A8
:107C900040E058E7E0E0F0E08FEF9FEF411551053D
:107CA000B1F02591822768E0DC01B695A7959C018B
:107CB000217033273195219531092170307AC9011E
:107CC0008A279B27615081F741505109E7CF0895DA
:107CD0002A988EBD0DB407FEFDCF8EB59FEF4150A3
:107CE000D0F0222369F09EBD0DB407FEFDCF8EB506
:107CF00061157105A1F3DB018C936F5F7F4FEFCFAF
:107D0000FB013196DB018C918EBD0DB407FEFDCFDA
:107D10008EB5BF01E4CF2A9A089520E0D9CFCF9342
:107D2000DF931F92CDB7DEB7698320E041E0BE014B
:107D30006F5F7F4FCDDF0F90DF91CF91089540E0CF
:107D400060E070E082EEE9DF40E060E070E081EE4C
:107D5000E4DF60E787E2E3CFEF92FF920F931F9398
:107D6000CF93DF93F82ED62FEE24EA94A895C091F6
:107D70000901C695C695C695C95F10912A01299833
:107D80006EE080E2CCDFDBDF1093000145E060E0D5
:107D900071E08AE2C2DF45E060E071E080E3BDDFD0
:107DA0004C2F66E071E080EAB8DF299A2A98EEBC91
:107DB0000DB407FEFDCFCEB52A9A8C2F8073B1F398
:107DC000299860E387E2ABDFC4FF05C040E060E0D4
:107DD00070E081EEA2DF6FE080E2A1DF6091290117
:107DE0008AE29DDFACDF299A0FEF1FEFA89521E013
:107DF00041E060E070E087E16BDF80FF02C04FEFA1
:107E000044C021E041E060E070E080E661DF813263
:107E100030F040E060E070E082EE7FDF80E021E063
:107E2000482F6CE271E081E653DF89DF90912E01EB
:107E3000809129019813E3CF409131018091300165
:107E40008770833011F5483001F580912D015091F4
:107E50002801851303C091E090934D019091330167
:107E6000692F70E020912B0130E021503109621719
:107E7000730724F420914D01222311F0851305C0CE
:107E80009F5F90932B0180932A0191E04F1190E026
:107E900085EA8A95F1F700000150110921F4892F34
:107EA000D11105C009C0992309F4A0CF04C0D15055
:107EB000992309F45BCF81E0DF91CF911F910F915E
:107EC000FF90EF9008959091C00095FFFCCF8093B4
:107ED000C60008958091C00087FFFCCF8091C0004C
:107EE00084FD01C0A8958091C6000895F3DF80321B
:107EF00039F088E18093600088E080936000FFCFD4
:107F000084E1E1CFCF93C82FE5DFC150E9F7CF91EE
:107F1000EDCF0F9390912901E6E0F1E091839083FA
:107F2000828366834583048323830F910895FC0134
:107F300088279927E89421912032E9F3293010F01D
:107F40002E30C8F32B3239F02D3231F4689403C04F
:107F500018D0820F911D219120532A30C8F31EF4AE
:107F6000909581959F4F0895FB01DC0104C08D9190
:107F70000190801921F441505040C8F7881B990B9B
:107F800008957AE0979F902D879F802D910D112461
:107F90000895DC01CB01FC01F999FECF06C0F2BDCA
:107FA000E1BDF89A319600B40D9241505040B8F7B7
:107FB0000895DC01A40FB51F4150504040F0CB01A3
:107FC000840F951F2E9105D041505040D8F7089549
:107FD000262FF999FECF92BD81BDF89A019700B482
:107FE000021639F01FBA20BD0FB6F894FA9AF99A22
:047FF0000FBE089523
:067FF40000FCE1A8A8005A
:040000030000780081
:00000001FF
