:100000000C9462000C94D10D0C94AA0D0C948A00EF
:100010000C948A000C948A000C94BE050C948A00FF
:100020000C948A000C948A000C948A000C948A0028
:100030000C948A000C948A000C948A000C948A0018
:100040000C94600D0C948A000C94BE0B0C94980BCD
:100050000C948A000C948A000C948A000C948A00F8
:100060000C94F80D0C948A00000000002300260078
:10007000290000000000240027002A0000000000E2
:10008000250028002B0004040404040404040202D4
:100090000202020203030303030301020408102007
:1000A0004080010204081020010204081020000012
:1000B0000008000201000003040700000000000027
:1000C0000000231011241FBECFEFD8E0DEBFCDBF4C
:1000D00011E0A0E0B1E0E2E8F5E202C005900D9287
:1000E000A63AB107D9F723E0A6EAB1E001C01D9214
:1000F000A83BB207E1F710E0C2E6D0E004C02197C8
:10010000FE010E949210C136D107C9F70E944E0F1E
:100110000C94BF120C9400008091B1018460809314
:10012000B1018091B20180788093B201E091B40175
:10013000F091B501309709F0099408958091B201CA
:10014000982F9077903759F0982F92959F709F5FD6
:1001500097709295907F8F78892B8093B2018091D0
:10016000B1018B7F8F7E8093B10180E090E0892B7D
:1001700021F087E690E00E94000029986CE080E280
:100180000C94E609CF93C82F8FEF8C0F8E3FA8F405
:10019000C0933602C0931C0163E082E20E94E6092C
:1001A00061E081E20E94E6090E94F7096C2F80E07D
:1001B00090E00E945D1281E00CC080E090E0892B0D
:1001C00021F08EE690E00E9400008FEF80933602CF
:1001D00080E0CF9108950F931F930E941E0D009110
:1001E000A9011091AA012091AB013091AC01601BD3
:1001F000710B820B930B1F910F910895E1EBF1E0CE
:100200008081877F8F7E80831092AD011092AE0136
:100210001092AF011092B00143E050E060E070E056
:1002200086E392E00C943D1291E59CBD91E09DBD6A
:100230002A98E3E2F0E03197F1F78EBD00000DB4AB
:1002400007FEFDCF8EB5FB019FEF4150C8F0222382
:1002500061F09EBD00000DB407FEFDCF8EB56115A7
:10026000710599F380833196F0CFDF01119680817B
:100270008EBD00000DB407FEFDCF8EB5FD01E5CFAC
:100280002A9AE3E2F0E03197F1F708950F931F9374
:10029000CF93DF93FC0182819091B10190FF04C064
:1002A0008F3F09F04FC005C08F3F19F0D091370242
:1002B00001C0DFEF809136028083438142FD06C09A
:1002C000469546954695C7E0C40F01C0C0E28F0130
:1002D00080E090E0892B21F080E090E00E94000017
:1002E000299883E092E00197F1F76EE080E20E94A6
:1002F000E6098BE891E00197F1F76D2F8AE20E9401
:10030000E6096D2F80E30E94E60981EE0E94040A4F
:10031000DF3F11F080EA01C080EB4C2FC13208F0C2
:1003200040E220E0B8010E941401299A00E010E0A8
:100330008FEF0E94040AC82F807331F40150110915
:10034000B9F702C0C0E02FC0299860E387E20E949D
:10035000E609C4FF03C081EE0E94040A0E94F70967
:10036000C5FBCC27C0F991E0DF3F09F090E0C92B35
:1003700080913702D81317C0C11110C080E090E0FF
:10038000892B21F085E690E00E9400008091B20167
:1003900091E0980F9F70807F892B03C08091B201FC
:1003A000807F8093B2018C2FDF91CF911F910F91AD
:1003B000089580E090E0892B21F088E090E00E9491
:1003C00000008FEF8093B3018091B101886080932A
:1003D000B10128E143E06FEF80E00E94570B61E03C
:1003E0000E9433080C944601809136028F3FA1F49D
:1003F00080E090E0892B21F086E090E00E940000F0
:1004000023E043E06FEF80E00E94570B65EA71E064
:100410000E943F080C944601089580E090E0892BEB
:1004200021F084E090E00E9400008091B101897F7A
:1004300081608093B1018FEF8093380280933702FF
:1004400027E043E06FEF0E94570B65EA71E00E94DE
:100450003F080C9446012091B10122FD0C94460105
:1004600080E008956F927F928F929F92AF92BF9299
:10047000DF92EF92FF920F931F93CF93DF9300D001
:10048000CDB7DEB7E091A701F091A8010280F3811A
:10049000E02D309709F009958091B10184FBEE249D
:1004A000E0F884FFB9C186E0F82E90E0692E90E074
:1004B000792E00E010E021E2D22E21E041E060E060
:1004C00070E087E10E94140180FDA6C1FA94FF202C
:1004D00009F4A2C16114710421F081E090E00E944E
:1004E000000021E041E060E070E080E60E9414013D
:1004F000A82E80E28A1520F482EE0E94040AA12C24
:1005000021E04A2D67E473E081E60E94140160E473
:1005100087E20E94E60990914A03292F26952695A5
:1005200026952A3108F029E192FD03C047E0420FE9
:1005300001C040E2E0914B0350914C03B09048035E
:100540003091470380914903A41639F06114710476
:1005500009F4B3CF8CE690E00AC0492F43704230D3
:1005600049F06114710409F4A8CF8DE690E00E946F
:100570000000A3CF4E2F47706091B2016068609376
:10058000B20160913602861349C030E0B901F3E050
:10059000660F771FFA95E1F79770962B90934A03B1
:1005A000D901A95BBC4F17961C92E3FF1BC0E7E47F
:1005B000F3E0A6E2B3E09D2D01900D929A95E1F74C
:1005C00090912A03977F906190932A038093270349
:1005D000B092280386E293E049835A830E942B025B
:1005E0005A81498120914B0324FD13C0433089F483
:1005F00090914C0381EF890F833008F03FC05DCFAD
:10060000913009F4E6C09A3009F457CF9C3109F4CF
:1006100054CF87E493E00E9427094FCF8F3F09F022
:100620004CCF433031F58091B10182FF03C0573088
:1006300009F443CF583009F440CF543109F03DCF8D
:1006400080913702381339CF0E941E0D73708827AE
:1006500099270E94E40CA090370225E143E06FEF58
:100660008B2D0E94570B6A2D0E9433080E94460171
:1006700024CF80913702381320CFCBCF543039F4B8
:1006800087E493E00E9416090E94C20016CF5830FA
:10069000E1F4A090B101A0FE10CF87E493E00E94A6
:1006A00016098F3F09F409CF91E0980F9F3F09F495
:1006B00004CF80913802981708F0FFCEA1FCFDCE40
:1006C00090933802B0923702F8CE583141F429E1C4
:1006D00043E06FEF8B2D0E94570B61E0C5CF59317E
:1006E00071F48091B10183FFE8CE877F8093B101DF
:1006F00087E493E00E9416098093B301DECE8091D7
:100700004803811185C09D3099F480E090E0892BE9
:1007100021F08BE090E00E94000098E088E10FB6A5
:10072000F894A895809360000FBE90936000FFCF6F
:100730009B31A9F487E493E00E94160991E08111AE
:1007400001C090E08091350290FB80F980933502E2
:100750006114710409F4B1CE8AE090E008CF9630BC
:10076000A9F490914E03992329F081E09D3419F06A
:1007700080E001C08E2D8093340241E050E063E0C0
:1007800071E084E392E00E944D1297CE933119F408
:100790000E94A40892CE923109F032CF0E94EB0061
:1007A0004B015C0126E143E06FEF80E00E94570BB4
:1007B000FC0184818F71806A848383818770806269
:1007C000838387829086A186B286CF010E942B0206
:1007D00074CE0115110509F470CE22952695277067
:1007E000253049F460914E0370914F03809150037E
:1007F000909151030AC0211105C08EE493E00E943C
:100800006B1103C060E070E0CB010E94000055CE88
:100810009A3109F0FECE51CE0F900F90DF91CF911B
:100820001F910F91FF90EF90DF90BF90AF909F903E
:100830008F907F906F9008959C018091A701909177
:10084000A8018217930751F09091B1019F71909385
:10085000B1013093A8012093A70105C08091B10197
:10086000805E8093B101E091A701F091A801019011
:10087000F081E02D309709F009950E941E0D6093DC
:10088000A9017093AA018093AB019093AC010895E4
:100890000F931F930E94EB002091B2012077203725
:1008A00029F000E117E220E030E004C000E61AEE93
:1008B00020E030E0061717072807390730F48DE1EC
:1008C00091E01F910F910C941C041F910F910895BA
:1008D0008091B2018F70863020F088E191E00C9415
:1008E0001C0408958091B3018F3FA1F00E941E0D5A
:1008F0006093AD017093AE018093AF019093B0010E
:100900008091B3019091380289138093380284E179
:1009100091E01BC00E94EB00613D7740810591058D
:10092000B0F08091B101803618F480E191E00DC003
:10093000877F8093B10180E090E0892B21F08AE6E7
:1009400090E00E94000088E191E00C941C0408955E
:10095000809136028F3F59F080E090E0892B21F0A2
:1009600087E090E00E94000080E191E018C00E94C2
:10097000EB00613D77408105910598F08091B101D0
:10098000803618F48CE091E00AC080E090E0892B7A
:1009900021F089E690E00E94000088E091E00C944C
:1009A0001C0408950E94EB00613D7740810591058C
:1009B00020F48091B10181FF0895809137028F3F2B
:1009C00081F08091B1018E7F8093B10180E090E051
:1009D000892B21F085E090E00E9400008CE091E0FE
:1009E00011C08091B101803618F488E191E00AC00D
:1009F00080E090E0892B21F088E690E00E940000E2
:100A000088E091E00C941C04CF93219A229ACFB7EE
:100A1000F8948091A601811127C0E0E9F0E084916B
:100A2000E4EAF0E09491E82FF0E0EE0FFF1FEE58BB
:100A3000FF4FA591B491EC91E92321F461E08AE0A4
:100A40000E94190C61E08AE00E94490C8CB580611B
:100A50008CBD8CB580648CBD61E08DE00E94490C3A
:100A600061E08BE00E94490C8091A6018F5F80932A
:100A7000A601CFBF29982A9A6EE080E20E94E6097B
:100A800065E070E080E090E00E94E40C63E083E2C7
:100A90000E94E6096FE584E20E94E6096CE485E2C3
:100AA0000E94E60967E286E20E94E60963E780E5C4
:100AB0000E94E60966E08DE30E94E60921E041E03C
:100AC00060E070E086E00E941401C82F21E041E060
:100AD00060E070E085E00E9414018C3409F040C0B1
:100AE000C732F1F562E082E20E94E60960E081E24D
:100AF0000E94E60963E08CE30E94E6098FEF809391
:100B0000030120E045E063E071E08BE20E94140104
:100B100020E045E063E071E08AE20E94140120E0F9
:100B200045E063E071E080E30E94140182EE0E94E0
:100B3000040A81EE0E94040A60E787E20E94E60947
:100B40008091B10180618093B101809136028F3F25
:100B500081F00E94C20081110CC088E091E00BC0BE
:100B600080E090E0892BC9F387E690E00E940000C6
:100B7000F4CF88E191E0CF910C941C041F920F9266
:100B80000FB60F9211240F900FBE0F901F90189563
:100B900080910B0290E020910C02821B9109089534
:100BA000CF92DF92EF92FF920F931F93CF93DF9339
:100BB0007C01262F972F8A018091EA01882391F0EA
:100BC000C62FD72F6E01C40ED51ECC15DD0571F0D2
:100BD0006991D701ED91FC910190F081E02DC70161
:100BE0000995F3CF642F822F0E94260FC801DF9151
:100BF000CF911F910F91FF90EF90DF90CF900895CC
:100C0000CF93DF931F92CDB7DEB769832091EA01BE
:100C10002223D1F02091E901203240F021E030E0A0
:100C2000FC013383228380E090E015C08091E801CD
:100C3000E82FF0E0E853FE4F998190838F5F809317
:100C4000E8018093E90105C061E0CE0101960E94B0
:100C5000260F81E090E00F90DF91CF910895CF9221
:100C6000DF92EF92FF92CF93DF932091E202809187
:100C70000E028111FCCF81E080930E02809310025E
:100C80009FEF90930D021092320280933102809375
:100C9000330290913302822F880F892B8093330285
:100CA00080910F02813061F410920F028091330223
:100CB0008093BB008091BC0083FDF8CF85EC01C020
:100CC00085EE8093BC0080910E028130E1F380912B
:100CD0003202823018F48091320201C082E0A1E138
:100CE000B2E02BEE31E0F9019E2F921B981718F419
:100CF0009D919193F9CF10920C0280930B0286ED97
:100D000092E00E94410BD82F80E0C82F86ED92E040
:100D10000E94410B8C2B9D2BBC0180E090E00E9437
:100D2000AF112AE939E949E95FE30E9498100E946E
:100D30000A116B017C01CB016AE070E00E947E1019
:100D40002091C3013091C401C901861B970BC816BD
:100D5000D90628F0260F371F2C153D05F0F4D09248
:100D6000C401C092C3018091E8028F7180668093B4
:100D7000E8028091E702877080618093E702D09259
:100D8000EC02C092EB0284EE92E0DF91CF91FF90F3
:100D9000EF90DF90CF900C94660BDF91CF91FF9096
:100DA000EF90DF90CF9008950F931F93CF93DF9331
:100DB0000E941E0D0091B7011091B8012091B90158
:100DC0003091BA01DC01CB01801B910BA20BB30B5C
:100DD000893E9340A105B10508F447C00E941E0D4D
:100DE0006093B7017093B8018093B9019093BA01F1
:100DF00080912101882309F438C0E2EBF0E084916E
:100E0000EEE9F0E0D491EAE8F0E0C491CC2379F087
:100E100081110E94F00BEC2FF0E0EE0FFF1FE8595C
:100E2000FF4FA591B491EC91ED23C1E009F4C0E02E
:100E3000C1708091C501C817C1F0C093C5016C2F66
:100E400087E00E94190C8091080387708860809366
:100E50000803809109038F71806280930903C09316
:100E60000C0385E093E00E94660B0E941E0D00912A
:100E7000BB011091BC012091BD013091BE01DC018C
:100E8000CB01801B910BA20BB30B89389341A105B9
:100E9000B10560F00E941E0D6093BB017093BC0110
:100EA0008093BD019093BE010E942F060E941E0DEB
:100EB0000091BF011091C0012091C1013091C20188
:100EC000DC01CB01801B910BA20BB30B81369A4E38
:100ED000A105B105B0F00E941E0D6093BF01709393
:100EE000C0018093C1019093C20187EE93E090937B
:100EF000C4018093C301DF91CF911F910F910C9496
:100F00002F06DF91CF911F910F910895CF93DF931B
:100F100061E083E00E94490C61E085E00E94490C99
:100F200061E087E00E94490C60E084E00E94490C87
:100F300010920C0210920B021092E8011092E9013B
:100F400010920E02D1E0D093100210920F0261E0D5
:100F500082E10E94190C61E083E10E94190C8091EA
:100F6000B9008E7F8093B9008091B9008D7F809306
:100F7000B90088E48093B80085E48093BC00C091F8
:100F8000E202D093EA01C093B6011092E8011092F8
:100F9000E90160E186ED92E00E9400068091E9019E
:100FA000813208F046C090910E029111FCCF92E080
:100FB00090930E0291E0909310029FEF90930D0298
:100FC0001092320280933102A8ECB1E021E132E0CC
:100FD000F9019E2F921B981718F49D919193F9CFC8
:100FE0001092330280913302CC0FC82BC09333028E
:100FF00080910F02813061F410920F0280913302D0
:101000008093BB008091BC0083FDF8CF85EC01C0CC
:1010100085EE8093BC0080910E028230E1F38091D6
:101020000D028F3F31F080910D02803211F08091DE
:101030000D021092E8011092E9011092EA016AE0B3
:1010400070E080E090E00E94E40C62E081E00E94A9
:101050008C0B63E081E00E948C0B62E085E0DF9105
:10106000CF910C948C0BFC01838187708860838303
:1010700084818F71806284836783CF0108950F9389
:101080001F93CF93DF93EC016115710561F0FB01B4
:1010900001900020E9F73197E61BF70BE931F105E4
:1010A00018F0E9E101C0E0E00E2F10E0C80123E0F4
:1010B000880F991F2A95E1F79B819770892B8B8365
:1010C0008C818F718C83EE2329F0A801CE010796C5
:1010D0000E943E11FE01E00FF11F1782CE01DF9149
:1010E000CF911F910F9108952BE043E06FEF80E0C7
:1010F0000E94570B6AE471E00E943F080E942B0295
:101100002CE043E06FEF80E00E94570B69E571E04F
:101110000E943F080E942B024DE551E064E081E00F
:101120000E94770B4DE651E061E082E00E94770B70
:101130004DE751E060E183E00E94770B40E951E028
:1011400063E085E00C94770BCF9380E090E0892BEF
:1011500021F08CE090E00E9400002FE043E06FEF70
:1011600080E00E94570B65EA71E00E943F08809181
:101170002903877080618093290380912A038F71EE
:10118000806C80932A0381E080932D0310922E03BC
:1011900086E293E00E942B028FE00E942A0D45EA2E
:1011A00051E061E18FEF0E94770BC091370226E09A
:1011B00043E06FEF80E00E94570B6C2F0E943308D2
:1011C0000E942B0286E00E942A0DCF910C94740895
:1011D000CF938091350281FD27C00E94A40880E052
:1011E00090E0892B21F089E090E00E94000080913E
:1011F0003502816080933502C4E02AE143E06FEF5D
:1012000080E00E94570B62E00E9433080E942B028C
:101210008BE10E942A0D811102C0C15071F78091AB
:101220003502826080933502CF910895FC012481BC
:10123000229526952770213011F487810895211178
:1012400004C007960E944D11089580E00895FF9212
:101250000F931F93CF93DF9300D000D0CDB7DEB7AD
:101260001091C7010091C601FC012681213021F0B7
:10127000253009F45CC0A0C0FC012581223009F0B2
:1012800086C00E941609FF24F394811101C0F12C3D
:10129000F11609F491C0F11009C060E083E00E94EA
:1012A000190C60E085E00E94190C1AC0202F30E074
:1012B000AFEFB0E00E94B01224E630E040E050E032
:1012C0000E946F12B90183E029833A834B835C83C8
:1012D0000E94850C29813A81B90185E00E94850C24
:1012E000F092C7011F2D8091C601081709F464C050
:1012F0001123D1F0202F30E0AFEFB0E00E94B01208
:1013000024E630E040E050E00E946F12B90183E033
:1013100029833A834B835C830E94850C29813A811F
:10132000B90185E00E94850C0093C60145C0FC010F
:101330002581223009F040C00E94160991E08111F8
:1013400001C090E090932101911136C08091080373
:101350008770886080930803809109038F71806291
:101360008093090310920C0385E093E00E94660BC2
:101370001092C50160E087E00F900F900F900F90E2
:10138000DF91CF911F910F91FF900C94190C233096
:1013900009F0A9CFFC0124812295269527702230DF
:1013A00011F4878107C0211104C007960E944D11D6
:1013B00001C080E0082F97CF0F900F900F900F90F3
:1013C000DF91CF911F910F91FF900895CF93DF93FD
:1013D0001F92CDB7DEB7698320E041E0BE016F5FA9
:1013E0007F4F0E9414010F90DF91CF9108956FE01D
:1013F00080E20E94E60960911C016F3F19F08AE2C9
:101400000E94E609299A089520E040E060E070E03B
:101410000C941401CF92DF92EF92FF920F931F93DF
:10142000CF93DF936C017A018B01C0E0D0E0CE1541
:10143000DF0589F0D8016D918D01D601ED91FC9108
:101440000190F081E02DC6010995892B11F47E01F0
:1014500002C02196ECCFC701DF91CF911F910F9170
:10146000FF90EF90DF90CF900895FC01918D828DD9
:10147000981761F0828DDF01A80FB11D5D968C91E8
:10148000928D9F5F9F73928F90E008958FEF9FEFF3
:101490000895FC01918D828D981731F0828DE80FAF
:1014A000F11D858D90E008958FEF9FEF0895FC0169
:1014B000918D228D892F90E0805C9F4F821B910936
:1014C0008F739927089589E392E00E94570A21E0DB
:1014D000892B09F420E0822F0895FC01848DDF011F
:1014E000A80FB11DA35ABF4F2C91848D90E0019697
:1014F0008F739927848FA689B7892C93A089B18986
:101500008C9180648C93938D848D981306C002888F
:10151000F389E02D80818F7D80830895EF92FF9283
:101520000F931F93CF93DF93EC0181E0888F9B8D06
:101530008C8D981305C0E889F989808185FD24C0C8
:10154000F62E0B8D10E00F5F1F4F0F731127E02E4B
:101550008C8DE8120CC00FB607FCFACFE889F98928
:10156000808185FFF5CFCE010E946D0AF1CF8B8D72
:10157000FE01E80FF11DE35AFF4FF0820B8FEA895D
:10158000FB898081806207C0EE89FF896083E889DA
:10159000F98980818064808381E090E0DF91CF9140
:1015A0001F910F91FF90EF900895CF93DF93EC017F
:1015B000888D8823C9F0EA89FB89808185FD05C073
:1015C000A889B9898C9186FD0FC00FB607FCF5CFAD
:1015D000808185FFF2CFA889B9898C9185FFEDCFF5
:1015E000CE010E946D0AE7CFDF91CF91089580E090
:1015F00090E0892B29F00E94630A81110C9400006D
:1016000008953FB7F8948091B4039091B503A091E9
:10161000B603B091B70326B5A89B05C02F3F19F0BC
:101620000196A11DB11D3FBFBA2FA92F982F882762
:10163000820F911DA11DB11DBC01CD0142E0660FBD
:10164000771F881F991F4A95D1F70895089585ED52
:101650008093BC008091BC0084FDFCCF10920E02F0
:1016600008950895E0910C0280910B02E81730F480
:10167000F0E0E551FE4F808190E008958FEF9FEFFD
:10168000089590910C0280910B02981750F4E92F65
:10169000F0E0E551FE4F208130E09F5F90930C0217
:1016A00002C02FEF3FEFC90108950E943911E6E211
:1016B000F3E090913602918382836683258347709D
:1016C0008481807E482B4483CF010895FC01809162
:1016D000360281839481907F91609483809135025A
:1016E00080FF03C0CF010C942B0280E00895CF93BC
:1016F000DF93262F8F3F11F0EA0102C0C0EAD1E04C
:1017000040E0682F80E00E94570BBE010E943F0816
:10171000DF91CF910C942B02262F42E0682F80E0BE
:101720000E94570B65EA71E00E943F080C942B025F
:101730001F920F920FB60F9211242F933F934F9346
:101740005F936F937F938F939F93AF93BF93EF9329
:10175000FF9389E392E00E946D0AFF91EF91BF91A0
:10176000AF919F918F917F916F915F914F913F9139
:101770002F910F900FBE0F901F9018951F920F92F0
:101780000FB60F9211242F938F939F93EF93FF9394
:10179000E0914902F0914A028081E0914F02F0917C
:1017A000500282FD12C09081809152028F5F8F7330
:1017B00020915302821751F0E0915202F0E0E75C71
:1017C000FD4F958F8093520201C08081FF91EF9170
:1017D0009F918F912F910F900FBE0F901F90189592
:1017E000833081F028F4813099F08230A1F008959F
:1017F0008730A9F08830B9F08430D1F4809180002E
:101800008F7D03C0809180008F7780938000089542
:1018100084B58F7702C084B58F7D84BD0895809193
:10182000B0008F7703C08091B0008F7D8093B000AF
:1018300008951F93CF93DF93282F30E0F901E255ED
:10184000FF4F8491F901E656FF4FD491F901EA5711
:10185000FF4FC491CC23C9F0162F81110E94F00BC9
:10186000EC2FF0E0EE0FFF1FE458FF4FA591B4916D
:101870008FB7F894111105C09C91ED2FE095E923E5
:1018800002C0EC91ED2BEC938FBFDF91CF911F91B4
:101890000895CF93DF9390E0FC01E656FF4F24912B
:1018A000FC01EA57FF4F8491882361F190E0880F93
:1018B000991FFC01EE58FF4FC591D491FC01E458EB
:1018C000FF4FA591B491611109C09FB7F894888129
:1018D000209582238883EC912E230BC0623061F423
:1018E0009FB7F8943881822F809583238883EC9169
:1018F0002E2B2C939FBF06C08FB7F894E8812E2B18
:1019000028838FBFDF91CF9108951F93CF93DF93EB
:10191000182FEB0161E00E94490C209711F460E060
:1019200004C0CF3FD10539F461E0812FDF91CF9121
:101930001F910C94190CE12FF0E0E255FF4FE49158
:10194000E330F9F048F4E130B9F0E230A1F584B5C4
:10195000806284BDC8BD34C0E730E9F0E83019F1D9
:10196000E43049F580918000806280938000D093BC
:101970008B00C0938A0024C084B5806884BDC7BD35
:101980001FC080918000806880938000D093890080
:10199000C093880015C08091B00080688093B0002B
:1019A000C093B3000DC08091B00080628093B000FE
:1019B000C093B40005C0C038D1050CF0B5CFAFCF8F
:1019C000DF91CF911F9108958F929F92AF92BF9216
:1019D000CF92DF92EF92FF926B017C010E94010B8C
:1019E0004B015C01C114D104E104F104F1F00E9447
:1019F000010BDC01CB0188199909AA09BB09883EB2
:101A00009340A105B10570F321E0C21AD108E108A5
:101A1000F10888EE880E83E0981EA11CB11CC11449
:101A2000D104E104F10419F7DDCFFF90EF90DF90CE
:101A3000CF90BF90AF909F908F9008952FB7F8945C
:101A40006091B0037091B1038091B2039091B303A0
:101A50002FBF0895CF92DF92EF92FF92CF93DF9343
:101A6000D82F0E941E0D6B017C0181E0D11180E016
:101A700080934C03C0E00E941E0DAB01BC014C19C9
:101A80005D096E097F09403D57406105710580F48D
:101A9000C1110EC0A8950E94320290914B0397701D
:101AA000933049F7C1E080914C038D13E3CFE3CF2E
:101AB0008C2FDF91CF91FF90EF90DF90CF90089522
:101AC0001F920F920FB60F9211242F933F938F9373
:101AD0009F93AF93BF938091B0039091B103A09176
:101AE000B203B091B3033091AF0323E0230F2D373E
:101AF00020F40196A11DB11D05C026E8230F029612
:101B0000A11DB11D2093AF038093B0039093B10347
:101B1000A093B203B093B3038091B4039091B50343
:101B2000A091B603B091B7030196A11DB11D80939A
:101B3000B4039093B503A093B603B093B703BF91DA
:101B4000AF919F918F913F912F910F900FBE0F906A
:101B50001F9018951F920F920FB60F9211242F937A
:101B60003F934F935F936F937F938F939F93AF9325
:101B7000BF93EF93FF93E0912401F0912501099524
:101B8000FF91EF91BF91AF919F918F917F916F9155
:101B90005F914F913F912F910F900FBE0F901F902B
:101BA00018951F920F920FB60F9211242F933F9307
:101BB0004F935F936F937F938F939F93AF93BF9355
:101BC000EF93FF93E0912201F09123010995FF919A
:101BD000EF91BF91AF919F918F917F916F915F91A5
:101BE0004F913F912F910F900FBE0F901F9018951E
:101BF0001F920F920FB60F9211242F933F934F9382
:101C00005F936F937F938F939F93AF93BF93EF9364
:101C1000FF938091B900887F803609F49CC068F5F5
:101C2000883209F45BC090F4803109F454C038F470
:101C3000882309F4F6C0883009F44DC0F6C0883115
:101C400009F44CC0803209F45DC0EFC0803409F45F
:101C500068C048F4803309F455C0883309F0E5C002
:101C600080930D02D8C0803509F44FC0883509F43F
:101C70005DC0883409F0D9C0D6C0883909F4C7C01E
:101C8000A8F4883709F467C038F4883609F463C0CB
:101C9000803709F460C0C9C0883809F4B8C08039F9
:101CA00009F45FC0803809F0C0C05BC0803B09F414
:101CB00086C038F4803A09F466C0883A09F47FC0D7
:101CC000B4C0803C09F4A7C0883C09F4A4C0883B98
:101CD00009F48AC0AAC08091330210C090913202E8
:101CE00080913102981770F5E091320281E08E0FF9
:101CF00080933202F0E0EF5EFD4F80818093BB0065
:101D000085EC86C080930D028EC0E091320281E0A6
:101D10008E0F809332028091BB00F0E0EF5EFD4FAA
:101D2000808390913202809131026EC0E091320244
:101D300081E08E0F809332028091BB00F0E0EF5E75
:101D4000FD4F80838091100281116DC081E08093EE
:101D50000F0284EA61C083E080930E021092AE030A
:101D6000CFCF8091AE03803208F051C0E091AE0336
:101D700081E08E0F8093AE038091BB00F0E0E257CC
:101D8000FC4F8083BDCF85EC8093BC0010920E0287
:101D90008091AE03803230F4E091AE03F0E0E25780
:101DA000FC4F10826091AE0370E0E0918C03F091E3
:101DB0008D038EE893E009951092AE0336C084E05F
:101DC00080930E0210928B0310928A03E091880395
:101DD000F0918903099580918A03811105C081E002
:101DE00080938A0310926803E0918B0381E08E0F49
:101DF00080938B03F0E0E859FC4F80818093BB0017
:101E000090918B0380918A03981708F479CF85E825
:101E10008093BC000AC085EC8093BC0010920E0237
:101E200004C010920D020E94270BFF91EF91BF9109
:101E3000AF919F918F917F916F915F914F913F9162
:101E40002F910F900FBE0F901F90189540918A030D
:101E5000262F30E0240F311D21323105DCF4209192
:101E60000E022430C9F4FC0180E090E0861758F49B
:101E700030918A032191DC01A859BC4FA30FB11DF9
:101E80002C930196F3CF80918A03680F60938A03A5
:101E900080E0089581E0089582E00895789484B503
:101EA000826084BD84B5816084BD85B5826085BD56
:101EB00085B5816085BD80916E00816080936E00E4
:101EC00010928100809181008260809381008091D6
:101ED0008100816080938100809180008160809387
:101EE00080008091B10084608093B1008091B00047
:101EF00081608093B00080917A00846080937A0042
:101F000080917A00826080937A0080917A0081606B
:101F100080937A0080917A00806880937A00109292
:101F2000C100A89580E090E0892B11F00E9400008C
:101F3000E0914902F0914A0282E08083E0914502FB
:101F4000F09146021082E0914702F091480280E150
:101F5000808310925102E0914D02F0914E0286E092
:101F60008083E0914B02F0914C02808180618083FC
:101F7000E0914B02F0914C02808188608083E09177
:101F80004B02F0914C02808180688083E0914B028B
:101F9000F0914C0280818F7D8083809135028D7F0E
:101FA0008093350280E090E0892B11F00E940000C0
:101FB00041E050E063E071E084E392E00E943D1272
:101FC0006FEF81E090E00E945D128091B2018F7806
:101FD0008093B2011092A8011092A7018DE191E0C7
:101FE0000E941C0488EE98E09093B5018093B401A0
:101FF0000E941E0D0E941E0D0E943202A895809123
:10200000B10182FFF7CF0E948607A895A8950E948C
:1020100032020E94D4060E94F70AF8CFCF93DF93D2
:10202000FC01108211821282148215821682DC0158
:1020300017968AE1ED0119928A95E9F782E0838388
:10204000DF91CF910895E9E3F2E01382128288EEE6
:1020500093E0A0E0B0E084839583A683B7832EE26B
:1020600031E03183208325EC30E03587248724EC70
:1020700030E03787268720EC30E0318B208B21EC55
:1020800030E0338B228B22EC30E0358B248B26EC36
:1020900030E0378B268B118E128E138E148EE6ED68
:1020A000F2E01382128284839583A683B7838EE342
:1020B00091E09183808387E493E00E940E1086E292
:1020C00093E00E940E1085E093E00E940E10E5E080
:1020D000F3E082E0868380E1858384EE92E00E94D3
:1020E0000E10E4EEF2E083E0868385E2858383E2EE
:1020F00090E09093E3028093E2020895AA1BBB1B39
:1021000051E107C0AA1FBB1FA617B70710F0A61BF7
:10211000B70B881F991F5A95A9F780959095BC0118
:10212000CD010895EE0FFF1F0590F491E02D099465
:102130000E94AC100C9403120E94FC1158F00E94F3
:10214000F51140F029F45F3F29F00C94EC11511186
:102150000C9437120C94F2110E94141268F3992314
:10216000B1F3552391F3951B550BBB27AA27621793
:102170007307840738F09F5F5F4F220F331F441FA0
:10218000AA1FA9F335D00E2E3AF0E0E832D09150D4
:102190005040E695001CCAF72BD0FE2F29D0660FC1
:1021A000771F881FBB1F261737074807AB07B0E804
:1021B00009F0BB0B802DBF01FF2793585F4F3AF00A
:1021C0009E3F510578F00C94EC110C9437125F3F50
:1021D000E4F3983ED4F3869577956795B795F79590
:1021E0009F5FC9F7880F911D9695879597F9089578
:1021F000E1E0660F771F881FBB1F62177307840714
:10220000BA0720F0621B730B840BBA0BEE1F88F722
:10221000E09508950E941C1288F09F5798F0B92FFE
:102220009927B751B0F0E1F0660F771F881F991F0B
:102230001AF0BA95C9F714C0B13091F00E94361265
:10224000B1E008950C943612672F782F8827B85F75
:1022500039F0B93FCCF3869577956795B395D9F763
:102260003EF490958095709561957F4F8F4F9F4F6D
:10227000089581E090E0F8940C94BF12FB01DC011A
:102280004150504048F001900D920020C9F701C024
:102290001D9241505040E0F70895FC01882799278E
:1022A000E89421912032E9F3293010F02E30C8F360
:1022B0002B3241F02D3239F4689404C00E94A711EA
:1022C000820F911D219120532A30C0F31EF4909566
:1022D00081959F4F08951F93FC0199278827BC0182
:1022E000E89411911032E9F3193010F01E30C8F360
:1022F0001B3251F01D3249F4689406C00E949211BD
:10230000610F711D811D911D119110531A30B0F391
:102310003EF490958095709561957F4F8F4F9F4FBC
:102320001F910895592F482F372F262F660F771F9B
:10233000881F991F660F771F881F991F620F731FD1
:10234000841F951F660F771F881F991F08957AE0D5
:10235000979F902D879F802D910D11240895E894CB
:1023600009C097FB3EF490958095709561957F4FDD
:102370008F4F9F4F9923A9F0F92F96E9BB2793958B
:10238000F695879577956795B795F111F8CFFAF49B
:10239000BB0F11F460FF1BC06F5F7F4F8F4F9F4FCC
:1023A00016C0882311F096E911C0772321F09EE82A
:1023B000872F762F05C0662371F096E8862F70E090
:1023C00060E02AF09A95660F771F881FDAF7880F6A
:1023D0009695879597F9089597F99F6780E870E03B
:1023E00060E008959FEF80EC089500240A9416168B
:1023F000170618060906089500240A9412161306F3
:10240000140605060895092E0394000C11F4882380
:1024100052F0BB0F40F4BF2B11F460FF04C06F5F9C
:102420007F4F8F4F9F4F089557FD9058440F551F72
:1024300059F05F3F71F04795880F97FB991F61F046
:102440009F3F79F087950895121613061406551FBD
:10245000F2CF4695F1DF08C0161617061806991F29
:10246000F1CF86957105610508940895E894BB271E
:1024700066277727CB0197F90895DC01CB01FC0192
:10248000F999FECF06C0F2BDE1BDF89A319600B4CD
:102490000D9241505040B8F70895DC01A40FB51FCC
:1024A0004150504048F0CB01840F951F2E910E945F
:1024B0005E1241505040D0F70895262FF999FECF73
:1024C00092BD81BDF89A019700B4021639F01FBA87
:1024D00020BD0FB6F894FA9AF99A0FBE0895052E0A
:1024E00097FB1EF400940E94861257FD07D00E94AD
:1024F0008E1207FC03D04EF40C9486125095409532
:10250000309521953F4F4F4F5F4F0895909580959F
:10251000709561957F4F8F4F9F4F0895A1E21A2EBE
:10252000AA1BBB1BFD010DC0AA1FBB1FEE1FFF1F77
:10253000A217B307E407F50720F0A21BB30BE40BC7
:10254000F50B661F771F881F991F1A9469F760950E
:102550007095809590959B01AC01BD01CF010895C8
:10256000A29FB001B39FC001A39F700D811D1124D4
:10257000911DB29F700D811D1124911D0895F89435
:02258000FFCF8B
:10258200FFFFFF00FCE1A8A89E004804F401A80494
:10259200D90172048C0068040D02D204FFFE00040B
:1025A2000501260B260B01000000000000008E0A28
:1025B2000A0A570A350A490AD50A0000000000062D
:1025C200D005C805410B320B310B44696D6D616258
:1025D2006C65204C6967687400302E33004C696763
:1025E200687420696E74656E73697479004D6F74D6
:1025F200696F6E20616374697669747900496C6CE5
:10260200756D696E6174696F6E206C6576656C00BC
:102612004D6F766520646574656374206163740030
:06262200322E312E3100C2
:1078000011E0A0E0B1E0E4EFFFE702C005900D92C7
:10781000A630B107D9F721E0A6E0B1E001C01D9282
:10782000AE34B207E1F7CDB7DEB76197DEBFCDBFAB
:10783000112484B78093270114BE88E180936000EF
:1078400089E280936000259A86E020E295B1922734
:1078500095B93FEF40E792E0315040409040E1F76A
:1078600000C00000815091F78091270181FD11C077
:107870008EE284B981E58CBD812C912C55245394E2
:1078800011E0CC24CA94DC2CAA24A39472E0B72E75
:10789000FDC082E08093C00088E18093C10086E053
:1078A0008093C20080E18093C400E12CF12CC12CB4
:1078B000D12CAA24AA94BA2C01E0A8950BD3813428
:1078C00071F408D3898B12D38989823811F482E04C
:1078D00053C0813811F485E64FC083E04DC0823437
:1078E00011F484E103C0853419F485E00BD363C03F
:1078F000853541F4EFD2E82EEDD2F12CF82AEE0CCA
:10790000FF1C58C0863521F484E0FCD280E034C0EE
:107910008436E1F4DFD2DED2882EDCD2C80CD11C52
:10792000912C981480F4D6D2182FD4D2F701E90DF7
:10793000F11D212F30E0382B090107BFE8951124F4
:1079400093949394EECFC7018CD134C0843761F403
:10795000C1D2C0D2182FBED2C9D2F70185917F0102
:10796000B2D21150D1F728C0853741F4BFD28EE191
:10797000AAD285E9A8D28FE0A6D21DC08135D1F464
:10798000BA82A982BC82AB82C60134E09695879503
:107990003A95E1F79E838D83C60175D198878F83D1
:1079A00048E050E06BE171E0CE01019602D39ED237
:1079B00011E002C09BD210E080E185D2112309F4CE
:1079C0007CCF56CF43E050E060E070E089E291E088
:1079D000E0D248E050E06BE171E0CE010196D9D2EF
:1079E00029982A9A63E083E29AD16CE485E297D1E0
:1079F00067E286E294D163E780E591D164E08DE3AC
:107A00008ED161E082E28BD161E081E288D161E0D8
:107A10008CE385D121E041E060E070E086E058D160
:107A2000873209F008C180912A01809328011092C1
:107A30004D018FEF80932A0180932B0103E22AE00E
:107A400047E06FEF66D260E084E269D160E08EEFDC
:107A500083D180912A018F3F09F4EDC080912901E3
:107A600081508E3F08F46CC003E222E043E06FEFE8
:107A700080E04FD263E084E06FD1882379F383E321
:107A800091E055D2682F80E090E0A2D2F999FECF24
:107A900099CF46E050E063E371E08DE091E064D27D
:107AA000892B79F5C3018150904F082F02950077FB
:107AB00040E050E0602F70E0DA01A45DBE4FFA01B3
:107AC000E60FF71F1E962C911E9730E0322F2227CB
:107AD0001D96AC912A2B090157BEE89511244E5FE3
:107AE0005F4F4031510541F7011106C044E0880F56
:107AF000991F4A95E1F7B5D0E114F10409F482C069
:107B0000370189859A8590930E0180930D018B85AD
:107B10009C859093100180930F01730121E0E21A7C
:107B2000F108F0921201E092110104EC22E342E02C
:107B30006FEF80E0EED168E083E00ED18111A9CF34
:107B40006FE584E2ECD010930D0110920E0103EC6E
:107B500022E14FE06FEF80E0DCD160E08FE0FCD00D
:107B60008D819E8124E0880F991F2A95E1F78BD0A3
:107B700098878F8388E0FE013196ADE0B1E00190F7
:107B80000D928A95E1F7B0921601A092150104ECCE
:107B900022E540E06FEF80E0BCD163E081E0DCD023
:107BA000882309F448C088E0E3E3F1E0DE01199698
:107BB00001900D928A95E1F748E050E0BE01675FC1
:107BC0007F4FCE010196D0D1892BA9F18091370149
:107BD000909138018038974070F588E0FE01399621
:107BE000DE01119601900D928A95E1F7D886CF8239
:107BF00048E050E06BE171E0CE010196DAD16D848E
:107C00007E847FCF8D859E8534E0880F991F3A95BD
:107C1000E1F739D02F8538898217930721F01E8626
:107C20001D86188A1F8648E050E06BE171E0CE01A6
:107C30000996BFD12BCF8D819E8124E0880F991F9B
:107C40002A95E1F720D02F8138858217930709F014
:107C50001DCF1CBCA89580912701282EF401099501
:107C600015CF23E0FC0127BFE89507B600FCFDCF48
:107C700025E0FC0127BFE89507B600FCFDCF81E1B8
:107C800087BFE8950895AC01413088E7580710F0A8
:107C900040E058E7E0E0F0E08FEF9FEF411551053D
:107CA000B1F02591822768E0DC01B695A7959C018B
:107CB000217033273195219531092170307AC9011E
:107CC0008A279B27615081F741505109E7CF0895DA
:107CD0002A988EBD0DB407FEFDCF8EB59FEF4150A3
:107CE000D0F0222369F09EBD0DB407FEFDCF8EB506
:107CF00061157105A1F3DB018C936F5F7F4FEFCFAF
:107D0000FB013196DB018C918EBD0DB407FEFDCFDA
:107D10008EB5BF01E4CF2A9A089520E0D9CFCF9342
:107D2000DF931F92CDB7DEB7698320E041E0BE014B
:107D30006F5F7F4FCDDF0F90DF91CF91089540E0CF
:107D400060E070E082EEE9DF40E060E070E081EE4C
:107D5000E4DF60E787E2E3CFEF92FF920F931F9398
:107D6000CF93DF93F82ED62FEE24EA94A895C091F6
:107D70000901C695C695C695C95F10912A01299833
:107D80006EE080E2CCDFDBDF1093000145E060E0D5
:107D900071E08AE2C2DF45E060E071E080E3BDDFD0
:107DA0004C2F66E071E080EAB8DF299A2A98EEBC91
:107DB0000DB407FEFDCFCEB52A9A8C2F8073B1F398
:107DC000299860E387E2ABDFC4FF05C040E060E0D4
:107DD00070E081EEA2DF6FE080E2A1DF6091290117
:107DE0008AE29DDFACDF299A0FEF1FEFA89521E013
:107DF00041E060E070E087E16BDF80FF02C04FEFA1
:107E000044C021E041E060E070E080E661DF813263
:107E100030F040E060E070E082EE7FDF80E021E063
:107E2000482F6CE271E081E653DF89DF90912E01EB
:107E3000809129019813E3CF409131018091300165
:107E40008770833011F5483001F580912D015091F4
:107E50002801851303C091E090934D019091330167
:107E6000692F70E020912B0130E021503109621719
:107E7000730724F420914D01222311F0851305C0CE
:107E80009F5F90932B0180932A0191E04F1190E026
:107E900085EA8A95F1F700000150110921F4892F34
:107EA000D11105C009C0992309F4A0CF04C0D15055
:107EB000992309F45BCF81E0DF91CF911F910F915E
:107EC000FF90EF9008959091C00095FFFCCF8093B4
:107ED000C60008958091C00087FFFCCF8091C0004C
:107EE00084FD01C0A8958091C6000895F3DF80321B
:107EF00039F088E18093600088E080936000FFCFD4
:107F000084E1E1CFCF93C82FE5DFC150E9F7CF91EE
:107F1000EDCF0F9390912901E6E0F1E091839083FA
:107F2000828366834583048323830F910895FC0134
:107F300088279927E89421912032E9F3293010F01D
:107F40002E30C8F32B3239F02D3231F4689403C04F
:107F500018D0820F911D219120532A30C8F31EF4AE
:107F6000909581959F4F0895FB01DC0104C08D9190
:107F70000190801921F441505040C8F7881B990B9B
:107F800008957AE0979F902D879F802D910D112461
:107F90000895DC01CB01FC01F999FECF06C0F2BDCA
:107FA000E1BDF89A319600B40D9241505040B8F7B7
:107FB0000895DC01A40FB51F4150504040F0CB01A3
:107FC000840F951F2E9105D041505040D8F7089549
:107FD000262FF999FECF92BD81BDF89A019700B482
:107FE000021639F01FBA20BD0FB6F894FA9AF99A22
:047FF0000FBE089523
:067FF40000FCE1A8A8005A
:040000030000780081
:00000001FF
