:100000000C94ED000C9443190C946A190C9415018E
:100010000C9415010C9415010C94EC020C94150130
:100020000C9415010C9415010C9415010C941501F8
:100030000C9415010C9415010C9415010C941501E8
:100040000C9491190C9415010C94EF1C0C94211D27
:100050000C9415010C9415010C9415010C941501C8
:100060000C94BF120C941501CB0A240B240BDE0A4E
:10007000080B100B1A0B1D0B200B005EBCE2613F3E
:10008000DD83C29C7E20A3FD1F419DC3217FFCA276
:10009000401E5F01E3BD3E6082DC237D9FC1421CA8
:1000A000FEA0E1BF5D0380DE3C62BEE0025CDF815A
:1000B000633D7C22C09E1D43A1FF4618FAA4277908
:1000C0009BC584DA3866E5BB5907DB856739BAE436
:1000D00006581947A5FB7826C49A653BD987045A68
:1000E000B8E6A7F91B45C6987A24F8A6441A99C71A
:1000F000257B3A6486D85B05E7B98CD2306EEDB3C8
:10010000510F4E10F2AC2F7193CD114FADF3702EF5
:10011000CC92D38D6F31B2EC0E50AFF1134DCE9027
:10012000722C6D33D18F0C52B0EE326C8ED0530DD9
:10013000EFB1F0AE4C1291CF2D73CA947628ABF587
:1001400017490856B4EA6937D58B5709EBB53668B5
:100150008AD495CB2977F4AA4816E9B7550B88D6E7
:10016000346A2B7597C94A14F6A8742AC896154B99
:10017000A9F7B6E80A54D7896B35000000080002D9
:10018000010000030407000000000000000001025D
:100190000408102040800102040810200102040815
:1001A00010200404040404040404020202020202F3
:1001B00003030303030300000000230026002900BB
:1001C00000000000250028002B0000000000240093
:1001D00027002A00450BD511511D11241FBECFEF5A
:1001E000D8E0DEBFCDBF11E0A0E0B1E0E4E3F2E48F
:1001F00002C005900D92AA3EB107D9F725E0AAEEFC
:10020000B1E001C01D92A934B207E1F711E0CAEDD7
:10021000D1E004C02297FE010E945820C43DD107BE
:10022000C9F70E94310B0C9418210C94000061E076
:1002300083E00E94121B61E085E00E94121B61E0D6
:1002400087E00E94121B60E084E00E94121B60E0C5
:1002500070E08FEF91E00E94F80B60E18EEF91E08B
:100260000E94981089E18093CE0288ED92E00E946E
:10027000941540E060ED72E088ED92E00E940B146E
:10028000811106C067E171E08CEA94E00E94D61DFE
:100290004BE060ED72E088ED92E00E941E156DE388
:1002A00071E08CEA94E00C94D61D8EBD00000DB474
:1002B00007FEFDCF8EB50895BF92CF92DF92EF92E9
:1002C000FF920F931F93CF93DF93C82F8B01C42E00
:1002D000B22E80914703882399F03FB7F89480911C
:1002E0004703813059F48DB3809345038DB39091CA
:1002F0004603909598239DBB3FBF02C030934503B2
:1003000081E58CBD81E08DBD60E08AE00E944B1BE1
:100310008AE090E00E94441A8C2F0E945501D82E4A
:10032000E801CC20B9F0BB2051F08FEF0E945501BD
:10033000D82E0115110561F08883219609C07E0130
:100340008FEFE81AF80A88810E945501D82EE7013C
:10035000CA94E7CF61E08AE00E944B1B809147037B
:10036000882361F09FB7F89420914703809145035B
:10037000213019F48DBB9FBF01C08FBF8AE090E090
:100380000E94441A8D2DDF91CF911F910F91FF9004
:10039000EF90DF90CF90BF90089520E040E060E0C4
:1003A00070E00C945C01CF93DF93EC018FEF0E941F
:1003B000CD01282F30E035952795277019F48091CD
:1003C0000B0103C0213011F48FEF888381E02630C8
:1003D00008F080E0DF91CF910895CF93DF931F92D3
:1003E000CDB7DEB7698320E041E0BE016F5F7F4F8C
:1003F0000E945C010F90DF91CF9108956FE080E241
:100400000E94ED0160910B016F3F19F08AE20E949A
:10041000ED0161E089E00C944B1BEF92FF921F937A
:10042000CF93DF931F92CDB7DEB7182F7B0160E02B
:1004300089E049830E944B1B82E890E00E94441AA5
:100440006EE080E20E94ED0184E690E00E94441A92
:10045000612F8AE20E94ED01612F80E30E94ED018D
:1004600081EE0E94CD0120E04981B70180EA0E941F
:100470005C0161E089E00E944B1B8FEF0E94CD017F
:10048000182F8073D1F360E089E00E944B1B60E37A
:1004900087E20E94ED0114FF03C081EE0E94CD01AE
:1004A0000E94FE0115FB882780F90F90DF91CF9104
:1004B0001F91FF90EF9008951F93CF93DF93EC016E
:1004C00021E041E060E070E080E60E945C01182FCE
:1004D000813220F082EE0E94CD0110E021E0412F18
:1004E000BE0181E60E945C0160E487E20E94ED01AA
:1004F000812FDF91CF911F91089561E089E00E94E3
:10050000121B61E08AE00E94121B0E94880B60E0CF
:1005100089E00E944B1B61E08AE00E944B1B6EE069
:1005200080E20E94ED0165E070E080E090E00E94D2
:100530000A1A63E083E20E94ED016FE584E20E9403
:10054000ED016CE485E20E94ED0167E286E20E9423
:10055000ED0121E041E060E070E086E00E945C0196
:100560008732C1F563E780E30E94ED0166E08DE329
:100570000E94ED0162E082E20E94ED0160E081E212
:100580000E94ED0163E08CE30E94ED018FEF809308
:100590000C0120E045E06CE071E08BE20E945C0120
:1005A00020E045E06CE071E08AE20E945C0120E01E
:1005B00045E06CE071E080E30E945C0182EE0E9405
:1005C000CD0181EE0E94CD0160E787E20E94ED013E
:1005D00081E0089580E008951F920F920FB60F9268
:1005E00011240F900FBE0F901F901895FB014381AF
:1005F0004C7F4260438342FD04C046954695469534
:1006000001C040E290913F03FB019083242F30E032
:100610002A31310514F4495F01C040E20C940D0207
:100620008F3F51F080930B0163E082E20E94ED0165
:1006300061E081E20E94ED010C94FE01FC01248145
:1006400022952695277011F40796089580E090E092
:100650000895FC012481229526952770213011F4FC
:1006600087810895211104C007960E947D20089576
:1006700080E008950E94290391E0811101C090E07B
:10068000892F0895FC012481229526952770253015
:1006900029F467817085818592850895211103C0B1
:1006A00007960C949B2060E070E0CB010895FC015C
:1006B0002481229526952770223019F48781908510
:1006C0000895211103C007960C947D2080E090E0EE
:1006D00008950F931F93CF93DF93EC01611571057C
:1006E00061F0FB0101900020E9F73197E61BF70B61
:1006F000E931F10518F0E9E101C0E0E00E2F10E06A
:10070000C801B3E0880F991FBA95E1F79B819770F4
:10071000982B9B838C818F718C83EE2329F0A80109
:10072000CE0107960E94C220FE01E00FF11F178242
:10073000CE01DF91CF911F910F910895FC0183812C
:1007400087708860838384818F71806284836783EC
:10075000CF010895FC018381877088608383848141
:100760008F71806284836783CF010895FC01838148
:100770008770886283838481806E848347835087F7
:10078000618772872387CF010895FC0184818F716F
:10079000806A8483838187708062838347835087E4
:1007A00061877287CF010895FC0184818F71806613
:1007B0008483838187708061838370876783CF019F
:1007C0000895FC0184818F718064848383818770A4
:1007D0008061838370876783CF010895AF92BF9252
:1007E000CF92DF92EF92FF920F931F93CF93DF93FD
:1007F000D82FC62F8091CF02D81791F1D11109C0FF
:1008000060E083E00E944B1B60E085E00E944B1B90
:1008100025C0862F90E0A0E0B0E01F921F921F92AB
:100820002FEF2F93A12CB12C650114E6E12EF12CB2
:1008300000E010E020E030E0A901BC01CD010E9401
:10084000E81D6B017C0183E00E948A1AB60185E0F5
:100850000E948A1A0F900F900F900F90D093CF02A2
:100860008091CE02C81749F1DD2329F18C2F90E049
:10087000A0E0B0E01F921F921F922FEF2F93A12CA8
:10088000B12C650114E6E12EF12C00E010E020E02F
:1008900030E0A901BC01CD010E94E81D6B017C0183
:1008A00083E00E948A1AB60185E00E948A1A0F909E
:1008B0000F900F900F90C093CE02DF91CF911F91B8
:1008C0000F91FF90EF90DF90CF90BF90AF90089581
:1008D000CF93DF93D82FC0E0CD17B1F061E087E070
:1008E0000E944B1B64E170E080E090E00E940A1AD5
:1008F00060E087E00E944B1B64E670E080E090E0DF
:100900000E940A1ACF5FE8CFDF91CF910895EF924E
:10091000FF921F93CF93DF931F92CDB7DEB77C0179
:100920001091CF026091CE02FC019681913019F0B6
:10093000953019F141C0F7018581823039F4C70142
:1009400069830E943A0369810E94EE03F701858161
:10095000833091F5C7010E945703682F853620F038
:1009600082E00E94680461E0812F0F90DF91CF91B7
:100970001F91FF90EF900C94EE03F70185818F306B
:10098000D9F4C7010E943A0380930A01811114C06F
:100990001092FD0160E087E00E944B1B60E08BE657
:1009A00092E00E949E0360E00F90DF91CF911F9133
:1009B000FF90EF900C9486070F90DF91CF911F91DD
:1009C000FF90EF900895FF920F931F93CF93DF93C3
:1009D00000D0CDB7DEB71982CE0101960E94D301B7
:1009E000882309F425C18EE193E00E945C024091C6
:1009F00022030091230310911F0360911E03F090C6
:100A00002003E09121038E2F8370823009F010C102
:100A1000477080913F03F81294C02E2F269526959B
:100A2000269530E02A31310514F029E130E053E019
:100A3000220F331F5A95E1F7E770E22BE093210371
:100A4000E695E695E695F0E0E25EFC4F1782809130
:100A50004003681741F0212F30E0C90103964A8313
:100A60000E9406214A818091220383FF1BC081E2FC
:100A7000EEE1F3E0ADEFB2E001900D928A95E1F77F
:100A800080910103877F80618093010380913F0300
:100A90008093FE021093FF028DEF92E04A830E9442
:100AA00050074A81433009F042C0083019F580915F
:100AB0004403882309F4BCC08EE193E00E9429031B
:100AC0008F3F09F4B5C08F5F8F3F09F4B1C090919B
:100AD0004103891708F0ACC0809341031093400391
:100AE000612F81E090E00E9406216091410382E045
:100AF00090E098C011111BC00430B1F48EE193E076
:100B00000E94290380933F038F3F09F4FFCF0E9487
:100B10004D0983E299E0892B11F00E94230960912D
:100B20003F0380E090E07EC00E94D40981C087E846
:100B300094E0892B09F47CC08EE193E00E94870445
:100B400077C09FEFF9122BC0433009F061C0043128
:100B500009F06BC09091400369135AC00E94DB19E1
:100B60007370882799270E94230660914003809123
:100B70003F038093FE021093FF02F092030385E18E
:100B80008093020380910103807E83608093010340
:100B90008DEF92E00E94AA030E9450073EC08F3F53
:100BA00009F446C04330B1F50730A1F58091400308
:100BB0001817F1F1809141038F3F11F40E9448060C
:100BC000809141038F3FA1F10E94DB197370882748
:100BD00099270E9423066091410380913F038093EF
:100BE0001F03109320038FEF8093240388E08093EA
:100BF000230380912203807E8360809322038EE111
:100C000093E00E94AA03BC01812F0E94F60210C04B
:100C10008F3F71F0998198130BC08EE193E00E9491
:100C2000500706C00E94062103C08F3F09F0BCCFC9
:100C30000F900F90DF91CF911F910F91FF9008952A
:100C4000A8950C94E3048F929F92AF92BF92CF929B
:100C5000DF92EF92FF926B017C010E94DB194B0146
:100C60005C010E94DB19681979098A099B096C15D6
:100C70007D058E059F0518F40E942006F2CFFF9097
:100C8000EF90DF90CF90BF90AF909F908F9008959E
:100C90008091EA0181112CC081E08093EA011092D9
:100CA00043038FEF8093410390913F0390931F0381
:100CB000809320038093240387E080932303809113
:100CC0002203807E8360809322036CED71E08EE1CD
:100CD00093E00E9469036EE173E08FEF0E94F602D9
:100CE00060ED77E080E090E00E9423061092EA0138
:100CF00008958F929F92AF92BF92CF92DF92EF9220
:100D0000FF921F93CF93DF934B015C01C42F122FEF
:100D10000E94DB196B017C0181E0111180E080935E
:100D20002303D0E00E94DB196C197D098E099F090D
:100D3000681579058A059B0570F4809122038770F8
:100D400090E08C179D0721F480912303811719F0FF
:100D50000E942006E7CFDF91CF911F91FF90EF9087
:100D6000DF90CF90BF90AF909F908F900895CF93DA
:100D7000DF93CFE3D3E088810E94100388818093C2
:100D80001F03109220038FEF8093240383E080934E
:100D90002303E2E2F3E08081807E836080836CED58
:100DA00071E08EE193E00E9469036EE173E080914F
:100DB00040030E94F60224E043E060ED77E080E02B
:100DC00090E0DF91CF910C947906EF92FF920F9310
:100DD0001F93CF93DF93EC01F880E09040038FEFF7
:100DE000E81203C00E94480653C080913F038F3F22
:100DF00019F40E94B7064CC09B819C7F92609B8334
:100E000009811A8111110DC0802F90E06F2D03967A
:100E10000E940621BE01809140030E94F602C82F65
:100E200025C01F3F31F0812F90E003960E94FE20E5
:100E300001C08FEF9FEF980FBE019E3F28F0011178
:100E40000BC01F3F49F48FEFDF91CF911F910F919E
:100E5000FF90EF900C94F6028E2D0E94F602C82FA0
:100E6000802F90E06F2D03960E940621C1110CC0C7
:100E7000809143038F5F80934303909144039923B0
:100E800039F0863028F0AECF1092430381E001C0E4
:100E900080E0DF91CF911F910F91FF90EF90089527
:100EA0004091F9025091FA026091FB027091FC02AC
:100EB0004F5F5F4F6F4F7F4F4093F9025093FA029D
:100EC0006093FB027093FC020C94E506CF93DF93D2
:100ED000EC0180913F0389836A838FEF8E838FE0DB
:100EE0008D838C81807E83608C836CED71E0CE017C
:100EF0000E9469038B81877080618B8381E08F837F
:100F00001886CE01DF91CF910C94500720913F03BA
:100F1000FC0121832481207F2160F8E06F9FB001D4
:100F20001124262BFC0124830C9450070F931F934C
:100F30000E94DB190091F9011091FA012091FB0147
:100F40003091FC01601B710B820B930B693E734067
:100F50008105910548F10E94DB196093F9017093B6
:100F6000FA018093FB019093FC0180910A01882390
:100F7000D9F084E00E94811B11E0019709F010E094
:100F80008091FD01181781F01093FD01612F87E01A
:100F90000E944B1B612F8BE692E00E949E0360E053
:100FA0001F910F910C9486071F910F9108958EEF5A
:100FB00091E00E943D109C016AE070E00E94ED1FEC
:100FC0008091EF019091F001AC01461B570B241763
:100FD000350728F0860F971F8217930760F4309328
:100FE000F0012093EF01B9018AE492E00E94D4035A
:100FF00060E00C94860708950F931F930E94DB19FD
:101000000091F5011091F6012091F7013091F8015E
:10101000601B710B820B930B69387341810591053D
:1010200070F00E94DB196093F5017093F6018093D4
:10103000F7019093F8011F910F910C94D7071F911E
:101040000F910895CF92DF92EF92FF9260ED72E0E0
:1010500088ED92E00E947816882301F160ED72E03D
:1010600088ED92E00E941D176B017C012091EB013D
:101070003091EC014091ED015091EE010E94301E43
:101080008823E1F0C092EB01D092EC01E092ED01F7
:10109000F092EE0121E0B701A60105C021E04DEC80
:1010A0005CEC67EC72E489E292E00E94B60360E0D7
:1010B000FF90EF90DF90CF900C948607FF90EF9019
:1010C000DF90CF9008950F931F930E94DB1900913A
:1010D000F1011091F2012091F3013091F401601BB4
:1010E000710B820B930B61367A4E8105910570F07E
:1010F0000E94DB196093F1017093F2018093F30178
:101100009093F4011F910F910C9422081F910F915D
:1011100008954091F9025091FA026091FB0270919A
:10112000FC0280913F0380931F03109220038FEFF6
:101130008093240386E180932303E2E2F3E080813D
:10114000807E836080838EE193E00E94C5030C94CF
:101150005007962F8F3F19F469E471E001C0BA017E
:1011600030913F0330931F03109220038093240398
:101170009093230388E0289F9001112480912203FB
:10118000807F822B8F7E809322038EE193E00E94EA
:1011900069030C9450070F931F93CF93DF931F9213
:1011A000CDB7DEB78B01009709F120913F03209363
:1011B0001F03109220032FEF209324032BE0209392
:1011C000230350912203507F536068E0469F9001B3
:1011D0001124522B5F7E50932203BC018EE193E0D9
:1011E00049830E9469030E94500749810115110536
:1011F00021F180913F0380931F03109220038FEF12
:10120000809324038CE08093230380912203807FCA
:10121000836098E0499FA0011124842B8F7E8093E6
:101220002203B8018EE193E00E9469030F90DF91E1
:10123000CF911F910F910C9450070F90DF91CF9198
:101240001F910F91089540E064E571E08AE591E017
:101250000E94CB0820E049E651E064E081E00E9472
:10126000A90820E049E751E061E082E00E94A90876
:1012700020E049E851E060E183E00E94A90820E015
:101280004CE951E061E085E00E94A90820E048EACD
:1012900051E066E086E00C94A90880913F030E942B
:1012A000100380913F038F3F71F160E08EE193E086
:1012B0000E94660720E04CED51E062E18FEF0E9452
:1012C000A9086091400380913F0380931F0310920F
:1012D00020038FEF8093240386E080932303809183
:1012E0002203807E8360809322038EE193E00E943C
:1012F000AA030E94500726E043E060ED77E080E01B
:1013000090E00C947906089526E040E052EC61E00C
:1013100070E08CEA94E00E948D1C80E090E0892BC4
:1013200011F00E940000109243030E947D0281117F
:1013300001C0FFCF41E050E063E071E082E493E060
:101340000E94EE20809142038F3F19F481E0809348
:10135000420343E050E060E070E08FE393E00E94DE
:10136000EE2081E080934403809140038F3F11F48D
:101370000E94480680913F038F3F21F480914003F3
:101380008F3F71F487E191E0892B11F00E941701E2
:101390000E944D0983E299E0892B29F00C942309DE
:1013A0000E94B706EFCF0895CF93809123038D302D
:1013B00061F428E088E190E00FB6F894A895809356
:1013C00060000FBE20936000FFCF863099F48EE15D
:1013D00093E00E941E0361E0009729F0FC018081E8
:1013E0008D3409F060E06093420383E091E0CF9197
:1013F0000C940621833171F48091220384FD5BC03B
:101400000E944D0983E299E0892B09F454C0CF91E1
:101410000C942309823119F4CF910C9489088130FE
:1014200061F480E090E0892B09F445C08EE193E0FF
:101430000E944203CF910C9400008A30E1F58EE1C6
:1014400093E00E941E03FC0180818334A1F5CFEF5D
:101450008C2F90E06FEF03960E9406218FEF8C0F88
:10146000CC2311F0C82FF4CF6FEF81E090E00E9401
:1014700006216FEF82E090E00E9406210E9448065C
:1014800080913F0380931F03109220038FEF80937E
:1014900024038AE08093230380912203807E83606B
:1014A000809322036CED71E08EE193E00E9469036A
:1014B000CF910C945007CF910895CF93DF93EC0117
:1014C00060E0CE010E948607811107C068EC70E0E1
:1014D00080E090E00E942306F3CF81E0DF91CF917E
:1014E0000895CF93DF93EC018091CE0290E0C8176E
:1014F000D90781F18091CF02882341F0BE0183E0BA
:101500000E948A1ABE0185E00E948A1A209789F4F7
:1015100060E083E00E944B1B60E085E00E944B1B73
:101520001092CF0260E08DEA92E00E949E030E943A
:101530005D0ABE0188E092E00E94E1030E945D0A1C
:10154000882319F0C093CE0205C083E0DF91CF91CC
:101550000C946804DF91CF9108958FEF91E00E9481
:10156000FD0B882309F474C08FEF91E00E94150CE5
:10157000611571058105910509F466C02091CE02BF
:10158000FB01E150FE47E930F10508F05DC0EC5C7D
:10159000FF4F0C9456208091CF02882359F110926E
:1015A000CF0281E080930A0160E083E00E944B1B40
:1015B00060E085E00E944B1B60E015C08091CF0287
:1015C000811118C081E08093CF0280930A01622FBD
:1015D00070E083E00E948A1A6091CE0270E085E09C
:1015E0000E948A1A61E08DEA92E00E949E030E94A6
:1015F0005D0A05C010920A0182E00E9468046091B1
:101600000A018CE892E00E949E030E945D0A1CC0C1
:1016100081E0820F843610F482E007C084E608C0BF
:101620008FEF820F823018F08EEF820F01C081E0C1
:1016300090E008C084E690E005C082E390E002C03C
:1016400089E190E00E94710A8FEF91E00C940C0CFC
:1016500008950E94AD0A0E9496070E94FC070C9410
:1016600063080E944F1A0E948409C9E2DBE007ED7B
:101670001BE10E942006209711F00E94290B011502
:101680001105B9F30E94D71BF4CF109220031092DA
:10169000FF0268E08BEE92E00E9456186BEE72E05B
:1016A00088ED92E00E94ED131092AF0291E09093CA
:1016B000B30282E08093B20210928E0225E0209362
:1016C00092022FE02093910210926D02809371029A
:1016D00080E18093700210924C0283E0809350026C
:1016E00025E220934F0210922B0226E020932F0236
:1016F00010922E0210920A0290930E0280930D0215
:101700008FEF91E00E94BE0B8EEF91E00C943C10A5
:10171000CF93CFB7F89480914803811127C0ECEAAA
:10172000F1E08491E8E9F1E09491E82FF0E0EE0F28
:10173000FF1FE653FE4FA591B4918C91892321F4AC
:1017400061E08AE00E944B1B61E08AE00E94121B6C
:101750008CB580618CBD8CB580648CBD61E08DE002
:101760000E94121B61E08BE00E94121B80914803D3
:101770008F5F80934803CFBFCF910895FC018FEF17
:101780009FEF938382832EE531E0358324832AE023
:1017900030E03783268321E02087918380838CE3A8
:1017A00090E090931201809311011092DF03109248
:1017B000E0031092E1031092E2030895FC0180819E
:1017C00091818F3FFFEF9F0791F01092DF031092FE
:1017D000E0031092E1031092E2031092DE031092F4
:1017E000DD0341E050E069EB7FE00C94231908959C
:1017F000FC01718360830C94DE0B81E04091DF0378
:101800005091E0036091E1037091E203452B462B78
:10181000472B09F480E008951092DF031092E00353
:101820001092E1031092E20308956091DF0370913A
:10183000E0038091E1039091E20308952F923F929B
:101840004F925F926F927F928F929F92AF92BF92D0
:10185000CF92DF92EF92FF920F931F93CF93DF937C
:10186000CDB7DEB760970FB6F894DEBF0FBECDBF21
:101870001C0180915303909154036FE170E00E942A
:10188000ED1F8B014B01A12CB12CA0911101B09146
:1018900012019B010E946B200E94C81E2AE037EDB6
:1018A00043E25CE30E947A1F0E949C1E6B017C0154
:1018B0009801A3E0B0E00E945C209B01AC012C19D0
:1018C0003D094E095F092D833E834F8358872601CA
:1018D0003701460E571E681E791E21E030E080E079
:1018E00090E0DC01B501A4014C195D096E097F0986
:1018F00049875A876B877C87B701A601480D591D18
:101900006A1D7B1D4D875E876F87788B2215330597
:1019100008F073C0F901EE0FFF1FED5AFC4F019064
:10192000F081E02D4F01A12CB12CC984DA84EB8425
:10193000FC84C814D904EA04FB0428F54D855E85AF
:101940006F85788984169506A606B706E0F4F90136
:10195000EE0FFF1FEB5AFC4FE080F180A70160E023
:1019600070E049835A836B837C83CD80DE80EF8077
:10197000F884C416D506E606F70628F4441555057E
:101980006605770570F14D815E816F817885481518
:1019900059056A057B0550F584149504A604B7041F
:1019A00028F5F901EE0FFF1FEB5AFC4F0190F08173
:1019B000E02D4F01A12CB12CC984DA84EB84FC8486
:1019C000C814D904EA04FB0488F44D855E856F854C
:1019D000788984169506A606B70640F40196A11DDF
:1019E000B11D880F991FAA1FBB1F04C0910180E081
:1019F00090E0DC012E5F3F4F89CFB695A795979574
:101A0000879557E025163104C0F08093DF0390934B
:101A1000E003A093E103B093E2033694279430925D
:101A2000DE032092DD031093DC030093DB0321E04F
:101A300030E03093DA032093D90321E0892B8A2BFD
:101A40008B2B09F420E0822F60960FB6F894DEBF4E
:101A50000FBECDBFDF91CF911F910F91FF90EF90FF
:101A6000DF90CF90BF90AF909F908F907F906F90BE
:101A70005F904F903F902F9008952F923F924F92FA
:101A80005F926F927F928F929F92AF92BF92CF920E
:101A9000DF92EF92FF920F931F93CF93DF93CDB717
:101AA000DEB760970FB6F894DEBF0FBECDBF1C0146
:101AB00080915303909154036AE070E00E94ED1FFF
:101AC0008B016B01E12CF12CA0911101B09112015D
:101AD0009B010E946B200E94C81E2AE037ED43E262
:101AE0005CE30E947A1F0E949C1E46015701880CED
:101AF000991CAA1CBB1CA5019401261B370B480B83
:101B0000590B2D873E874F87588B9B01AC01280DC1
:101B1000391D4A1D5B1D2D833E834F83588721E06D
:101B200030E019821A821B821C8246015701861AF4
:101B3000970AA80AB90A4D815E816F8178854C1990
:101B40005D096E097F096A017B012215330508F0E2
:101B50007CC0F901EE0FFF1FED5AFC4F0190F081A0
:101B6000E02D2F01612C712C84149504A604B70478
:101B700060F54C145D046E047F0438F5F901EE0F36
:101B8000FF1FEB5AFC4F40815181BA0180E090E089
:101B900069877A878B879C87DC01CB014D855E85C1
:101BA0006F857889481759076A077B0770F44D815C
:101BB0005E816F81788584179507A607B70728F49B
:101BC00069817A818B819C812FC08D859E85AF85AF
:101BD000B88984159505A605B70578F54D815E8110
:101BE0006F817885441655066606770630F5F9014B
:101BF000EE0FFF1FEB5AFC4F0190F081E02D2F01FB
:101C0000612C712C84149504A604B704B0F44C1410
:101C10005D046E047F0488F469817A818B819C81E4
:101C20006F5F7F4F8F4F9F4F660F771F881F991FE2
:101C300069837A838B839C8305C0910119821A8200
:101C40001B821C822E5F3F4F80CF89819A81AB819E
:101C5000BC81B695A7959795879577E027163104AF
:101C6000C0F08093DF039093E003A093E103B0936F
:101C7000E203369427943092DE032092DD03109322
:101C8000DC030093DB0322E030E03093DA0320939F
:101C9000D90321E0892B8A2B8B2B09F420E0822F9A
:101CA00060960FB6F894DEBF0FBECDBFDF91CF9127
:101CB0001F910F91FF90EF90DF90CF90BF90AF906A
:101CC0009F908F907F906F905F904F903F902F905C
:101CD00008952F923F924F925F926F927F928F92D0
:101CE0009F92AF92BF92CF92DF92EF92FF920F93AB
:101CF0001F93CF93DF93CDB7DEB76C970FB6F894F1
:101D0000DEBF0FBECDBF8C01809153039091540371
:101D100067E470E00E94ED1F1B01A0911101B091DA
:101D200012019B010E946B200E94C81E2AE037ED21
:101D300043E25CE30E947A1F0E949C1E6B017C01BF
:101D4000C101A0E0B0E052E0880F991FAA1FBB1F9D
:101D50005A95D1F74C015D018C189D08AE08BF085B
:101D600089829A82AB82BC82B701A601480F591FB3
:101D70006A1F7B1F4D835E836F8378879101ABE081
:101D8000B0E00E945C204B015C018C189D08AE08FD
:101D9000BF0889869A86AB86BC8646015701860EA7
:101DA000971EA81EB91E8D869E86AF86B88AA9E0AA
:101DB000B0E00E945C204B015C018C189D08AE08CD
:101DC000BF08898A9A8AAB8ABC8A46015701860E67
:101DD000971EA81EB91E8D8A9E8AAF8AB88EA6E06D
:101DE000B0E00E945C209B01AC012C193D094E091A
:101DF0005F09298F3A8F4B8F5C8FC60ED71EE81E66
:101E0000F91E21E030E080E090E0DC01201731078E
:101E100008F070C0F901EE0FFF1FED5AFC4F408132
:101E200051812A01612C712C49815A816B817C81FD
:101E3000441555056605770520F58D809E80AF8099
:101E4000B884481459046A047B04D8F4F901EE0FED
:101E5000FF1FEB5AFC4F4081518160E070E08984A4
:101E60009A84AB84BC8484169506A606B70648F40B
:101E70008D849E84AF84B888481559056A057B0512
:101E800068F149895A896B897C894415550566052D
:101E9000770548F58D889E88AF88B88C481459041A
:101EA0006A047B0400F5F901EE0FFF1FEB5AFC4FAB
:101EB000408151812A01612C712C498D5A8D6B8D85
:101EC0007C8D441555056605770568F44C145D0452
:101ED0006E047F0440F40196A11DB11D880F991F67
:101EE000AA1FBB1F04C0980180E090E0DC012E5FB8
:101EF0003F4F8CCFB695A7959795879507301105DD
:101F0000C0F08093DF039093E003A093E103B093CC
:101F1000E203169507951093DE030093DD033092DC
:101F2000DC032092DB0323E030E03093DA032093DC
:101F3000D90321E0892B8A2B8B2B09F420E0822FF7
:101F40006C960FB6F894DEBF0FBECDBFDF91CF9178
:101F50001F910F91FF90EF90DF90CF90BF90AF90C7
:101F60009F908F907F906F905F904F903F902F90B9
:101F70000895CF92DF92EF92FF920F931F93CF932A
:101F8000DF930E94E7196B017C0180914F039091D0
:101F900050038601081B190B10934E0300934D0349
:101FA000093883E11807C0F18091530390915403DD
:101FB0009C01285C31092017310750F588539F4F49
:101FC0000817190728F580914B0390914C0301964F
:101FD00090934C0380934B03C0914903D0914A03E3
:101FE0002197D0934A03C0934903029789F4CE0105
:101FF0000E941E0C811108C0CE010E943D0D81116E
:1020000003C0CE010E94690E10924C0310924B0344
:1020100010924A03109249038091490390914A0318
:102020008334910540F010924A03109249031092B4
:102030004C0310924B03E0914903F0914A03CF0106
:10204000019690934A0380934903EE0FFF1FED5AC8
:10205000FC4F11830083C0924F03D0925003E09253
:102060005103F0925203DF91CF911F910F91FF9096
:10207000EF90DF90CF9008950895CF93DF9363E2C0
:1020800070E083EE93E00E94591142E050E063E279
:1020900070E083EE93E00E94CF1183EE93E00E9404
:1020A000B610D82F80E0C82F83EE93E00E94B610C0
:1020B000C82BD92B83EE93E00E94D211BE0180E0A1
:1020C00090E00E94C81E2AE939E949E95FE30E94CD
:1020D000341E0E949C1ECB01DF91CF910895CF93B7
:1020E000C62F63E270E083EE93E00E9459116C2FDB
:1020F00083EE93E00E94061183EE93E0CF910C945F
:10210000D211633161F028F420EF260F223078F4E9
:1021100006C0603260F0623210F0633241F40E9417
:102120006F108FE39CE90197F1F700C0000008955C
:102130000F931F93CF93DF931F92CDB7DEB78C0120
:1021400083EE93E069830E9445116981C8010F9075
:10215000DF91CF911F910F910C9481108091130406
:1021600090E020911404821B910908952091140499
:1021700080911304281750F4E22FF0E0EB5EFB4F40
:10218000808190E02F5F2093140408958FEF9FEFDC
:102190000895E091140480911304E81730F4F0E0FE
:1021A000EB5EFB4F808190E008958FEF9FEF0895E5
:1021B0000895CF92DF92EF92FF920F931F93CF93E8
:1021C000DF937C01CB018A012091EF03222389F068
:1021D000EB016B01C40ED51ECC15DD0569F06991CC
:1021E000D701ED91FC910190F081E02DC701099597
:1021F000F3CF642F0E949612C801DF91CF911F91F7
:102200000F91FF90EF90DF90CF900895CF93DF93E1
:102210001F92CDB7DEB769832091EF032223D1F05F
:102220002091F003203240F021E030E0FC013383C4
:10223000228380E090E015C08091F103E82FF0E068
:10224000EE50FC4F998190838F5F8093F1038093D0
:10225000F00305C061E0CE0101960E94961281E074
:1022600090E00F90DF91CF910895FC0113821282CC
:1022700048EE53E060E070E04483558366837783E3
:1022800088EB91E09183808308951092140410925A
:1022900013041092F1031092F0030C94D91181E011
:1022A0008093EF03609312041092F1031092F003F5
:1022B00008950C944F110F93062F21E04091F003E5
:1022C00062EF73E0809112040E943F121092F103BA
:1022D0001092F0031092EF030F9108958F929F9246
:1022E000AF92BF92CF92DF92EF92FF920F931F9324
:1022F000CF93DF93EC01F62ED42E48015901EE2046
:1023000019F10E944F111E2D143008F013E01150E6
:10231000B8F0E881F98128E0129FB0011124A501ED
:10232000940104C056954795379527956A95D2F73D
:10233000CA01B9010190F081E02DCE010995E7CFE6
:1023400060E0CE010E945B114D2D413208F040E269
:102350002C2D65E174E08F2D0E94F711109214046A
:1023600080931304DF91CF911F910F91FF90EF9015
:10237000DF90CF90BF90AF909F908F900895CF92B5
:10238000EF920F931F93C22EE12C00E010E0980112
:102390000E946E111F910F91EF90CF90089521E050
:1023A0000C94BF1161E00C945B1183EE93E00C94EC
:1023B00035111092A20481E08093A00410929F0432
:1023C00061E082E10E944B1B61E083E10E944B1BB4
:1023D000E9EBF0E080818E7F808380818D7F808338
:1023E00088E48093B80085E48093BC00089541326E
:1023F00008F043C09091A2049111FCCF91E090931A
:10240000A2042093A0042FEF2093350410927A04A5
:10241000240F209379049093A1049091A104880F34
:10242000892B8093A10480919F04813061F41092E4
:102430009F048091A1048093BB008091BC0083FD28
:10244000F8CF85EC01C085EE8093BC008091A2049A
:102450008130E1F380917A04841710F440917A047A
:102460002BE734E0FB01D9018A2F821B841718F473
:102470008D918193F9CF842F089580E008950F9373
:10248000413208F04AC09091A2049111FCCF92E031
:102490009093A2040093A0049FEF909335041092B0
:1024A0007A0440937904FB016BE774E0DB019A2F17
:1024B000961B941718F491919D93F9CF1092A10453
:1024C0009091A104880F892B8093A10480919F048F
:1024D000813061F410929F048091A1048093BB002D
:1024E0008091BC0083FDF8CF85EC01C085EE809320
:1024F000BC00222321F08091A2048230E1F380917C
:1025000035048F3F61F080913504803251F0809125
:102510003504803341F483E007C081E005C080E0EA
:1025200003C082E001C084E00F910895613298F405
:102530002091A204243089F460935704FC0189E5BA
:1025400094E0DC012A2F281B261718F421912D93E3
:10255000F9CF80E0089581E0089582E0089585ED47
:102560008093BC008091BC0084FDFCCF1092A2043B
:10257000089585EC8093BC001092A20408951F92E8
:102580000F920FB60F9211242F933F934F935F93A7
:102590006F937F938F939F93AF93BF93EF93FF932B
:1025A0008091B900887F803609F49EC078F5883222
:1025B00009F45DC090F4803109F456C038F48823E2
:1025C00009F4F5C0883009F44FC0F5C0883109F42A
:1025D0004EC0803209F45FC0EEC0803409F46AC096
:1025E00058F4803309F457C0883309F0E4C080936D
:1025F00035040E94B912DFC0803509F44FC0883518
:1026000009F45DC0883409F0D6C0D3C0883909F414
:10261000C4C0A8F4883709F467C038F4883609F4D0
:1026200063C0803709F460C0C6C0883809F4B5C0FB
:10263000803909F45FC0803809F0BDC05BC0803BC1
:1026400009F483C038F4803A09F466C0883A09F482
:102650007CC0B1C0803C09F4A4C0883C09F4A1C08E
:10266000883B09F487C0A7C08091A10410C0909155
:102670007A0480917904981770F5E0917A0481E0EA
:102680008E0F80937A04F0E0E558FB4F80818093B1
:10269000BB0085EC83C0809335048BC0E0917A0445
:1026A00081E08E0F80937A048091BB00F0E0E558C2
:1026B000FB4F808390917A04809179046BC0E09104
:1026C0007A0481E08E0F80937A048091BB00F0E061
:1026D000E558FB4F80838091A00481116AC081E09E
:1026E00080939F0484EA5EC083E08093A2041092EA
:1026F0003604CFCF80913604803208F04EC0E0918E
:10270000360481E08E0F809336048091BB00F0E0A8
:10271000E95CFB4F8083BDCF0E94B91280913604E3
:10272000803230F4E0913604F0E0E95CFB4F108237
:102730006091360470E0E0919B04F0919C0487E383
:1027400094E009951092360436C084E08093A20488
:102750001092580410925704E0919D04F0919E0449
:10276000099580915704811105C081E08093570439
:1027700010925904E091580481E08E0F8093580420
:10278000F0E0E75AFB4F80818093BB0090915804A2
:1027900080915704981708F47CCF85E88093BC009B
:1027A0000AC085EC8093BC001092A20404C0109271
:1027B00035040E94AF12FF91EF91BF91AF919F91AD
:1027C0008F917F916F915F914F913F912F910F90DA
:1027D0000FBE0F901F9018950895FC018CEE93E1A9
:1027E000928B818B768365831482108289E081834A
:1027F00081E0828383830895CF93DF93EB0167E0C9
:10280000CE010E94161991E02F81821390E0892F4A
:10281000DF91CF910895EF92FF920F931F93CF9383
:10282000DF93EC018B01E42E8D819E810E94441880
:10283000F12C41E0B8018D819E810E947918882396
:1028400059F0FE1006C0B801CE010E94FC138111A0
:1028500004C0F394EF1468F780E0DF91CF911F91EB
:102860000F91FF90EF900895CF92DF92EF92FF9239
:102870000F931F93CF93DF9300D0CDB7DEB76C01DA
:10288000F42EE52EFC018581968169837A830E946E
:10289000211769817A81882311F1F601858196815A
:1028A0000E941C1840E06EEBF601858196810E9423
:1028B000BE170F2D1E2D89E0F82EF6018581968119
:1028C0000E940018F80181938F01FA94B1F7F60184
:1028D000858196810E94211791E0813009F090E076
:1028E000892F0F900F90DF91CF911F910F91FF9043
:1028F000EF90DF90CF900895CF93DF93EA010E948D
:102900003414882351F068E0CE010E94161991E03A
:102910002885821390E0892F01C080E0DF91CF915C
:102920000895EF92FF920F931F93CF93DF93EC01E3
:102930008B017A018D819E810E942117B8018D81C2
:102940009E810E941C1840E06EE48D819E810E9451
:10295000BE1740E0F70162818D819E810E94BE1703
:1029600040E0F70163818D819E810E94BE17F801CE
:102970008081803139F040E0F70164818D819E8152
:102980000E94BE178D819E810E942117B8018D8102
:102990009E810E941C18488168E48D819E810E945E
:1029A000BE1764E170E080E090E00E940A1A88811E
:1029B000882331F06AE070E080E090E00E940A1A1B
:1029C0008D819E81DF91CF911F910F91FF90EF90AC
:1029D0000C942117EF92FF921F93CF93DF9300D0B7
:1029E000CDB7DEB77C01FC018581968169837A834E
:1029F0000E94211769817A81F701858196810E9461
:102A00001C1840E064EBF701858196810E94BE1797
:102A1000F701858196810E949317182FF701858110
:102A200096810E94211781E0111180E00F900F9094
:102A3000DF91CF911F91FF90EF900895EF92FF9259
:102A40000F931F93CF93DF93CDB7DEB72A970FB6BF
:102A5000F894DEBF0FBECDBF7C018B01242FAE01E9
:102A60004F5F5F4F2A870E947C142A858823D1F00C
:102A7000F80180818031C1F02B3041F02C3021F001
:102A80002A3031F48FE305C08FE703C08FE501C022
:102A90008FE18D83AE014F5F5F4FB801C7010E9488
:102AA000911402C080E001C081E02A960FB6F8942C
:102AB000DEBF0FBECDBFDF91CF911F910F91FF9071
:102AC000EF900895CF93DF93CDB7DEB729970FB678
:102AD000F894DEBF0FBECDBFFB0120812031D1F0C5
:102AE000AE014F5F5F4F0E947C14882379F08D8187
:102AF0008F3351F020F48F3149F489E00CC08F35C9
:102B000039F08F3739F002C08AE005C080E003C099
:102B10008BE001C08CE029960FB6F894DEBF0FBEA3
:102B2000CDBFDF91CF910895FF920F931F93CF9365
:102B3000DF93CDB7DEB761970FB6F894DEBF0FBE57
:102B4000CDBF8C01FC01858196810E944418F8015B
:102B5000148241E0BE01665F7F4FF8018581968156
:102B60000E9479188823D1F1BE01665F7F4FC801AA
:102B70000E94FC13882369F3F8018081811108C049
:102B8000BE01665F7F4FC8010E94EA14811122C016
:102B9000AE014F5F5F4FBE01665F7F4FC8010E946D
:102BA0003414F801F180BE01665F7F4FC8010E94B6
:102BB00062158F1518F4F801818106C0BE01665FA9
:102BC0007F4FC8010E946215F801818384818F5F65
:102BD0008483BFCF81E0F8018083DACF61960FB69E
:102BE000F894DEBF0FBECDBFDF91CF911F910F9143
:102BF000FF900895CF93DF93CDB7DEB729970FB637
:102C0000F894DEBF0FBECDBFAE014F5F5F4F0E9495
:102C1000341481E09981911101C080E029960FB6AA
:102C2000F894DEBF0FBECDBFDF91CF9108958F9294
:102C30009F92AF92BF92CF92DF92EF92FF920F934B
:102C40001F93CF93DF93EC018A016950633048F4FE
:102C5000E62FF0E0EE0FFF1FEC53FE4F80809180D7
:102C600004C09EEE892E92E0992E0115110501F106
:102C70008B818823E9F0888181111AC00E94DB19B9
:102C80006B017C01AA2497FCA094BA2CB801CE0158
:102C90000E94FA1581111FC00E94DB196819790979
:102CA0008A099B096C157D058E059F05A0F4EECF62
:102CB000B401882777FD8095982FDF91CF911F91E0
:102CC0000F91FF90EF90DF90CF90BF90AF909F90CB
:102CD0008F900C940A1ADF91CF911F910F91FF9062
:102CE000EF90DF90CF90BF90AF909F908F9008951E
:102CF000EF92FF920F931F93CF93DF93EC018B0121
:102D00000E946215E82E811102C0F12C1CC08D8139
:102D10009E810E9421178823C1F3B8018D819E8175
:102D20000E941C18488164E48D819E810E94BE1718
:102D3000FA80FF2031F0A8016E2DCE010E941716F7
:102D400002C0FF24F3948F2DDF91CF911F910F913B
:102D5000FF90EF900895FA01208148E0249F9001B0
:102D60001124818190E0982F8827990F990F990F4E
:102D7000282B392BDB018C918031C1F4678170E005
:102D80008681AB01481B5109CA019695982F882767
:102D9000979587950E94012060517109207F53E02B
:102DA000220F331F5A95E1F7260F371FC9010895E7
:102DB000EF92FF920F931F93CF93DF93CDB7DEB7C0
:102DC00029970FB6F894DEBF0FBECDBF8C017B01F3
:102DD000AE014F5F5F4F0E947C14882341F0AE012B
:102DE0004F5F5F4FB701C8010E94AB1602C080E879
:102DF00094EE29960FB6F894DEBF0FBECDBFDF91DB
:102E0000CF911F910F91FF90EF900895813824EE9C
:102E1000920774F0BC01882777FD8095982F0E9457
:102E2000CA1E20E030E040E05CE30E947A1F089573
:102E300060E070E08EEF92EC08950E94D8160C943A
:102E40000617FF920F931F93CF93DF93FC0100812E
:102E5000C181D281F8948981F02EF0948F218983E9
:102E600078941DE7115029F182E090E00E94441A05
:102E700088818023B9F3F8948A818F218A8389819C
:102E8000802B8983789480EE91E00E94441AF89414
:102E900089818F21898386E490E00E94441A888189
:102EA000802311E009F010E078948AE991E00E9413
:102EB000441A812FDF91CF911F910F91FF900895B8
:102EC0001F93CF93DF93FC011081C181D281912F99
:102ED000909560FF12C0F8948A8189238A83898142
:102EE000812B89838AE090E00E94441A8A81812B99
:102EF0008A83789487E390E011C0F8948A818923CB
:102F00008A838981812B898381E490E00E94441A1D
:102F10008A81812B8A83789485E090E0DF91CF913C
:102F20001F910C94441A0F931F93CF93DF93FC01CE
:102F30001081C181D281F8948981812B89838A8112
:102F4000012F009580238A8383E090E00E94441A39
:102F50008981802389838AE090E00E94441AC88195
:102F6000789485E390E00E94441A1C2381E009F4E0
:102F700080E0DF91CF911F910F910895CF92DF9262
:102F8000EF92FF920F931F93CF93DF931F92CDB7D2
:102F9000DEB76C01E62E08E010E0FF24F39461E058
:102FA0009F2D9E2109F460E0C60149830E946017AD
:102FB000FF0C0150110949810115110581F74111DB
:102FC00015C0F894D6011196ED91FC91129791815C
:102FD0008C918095892381831196ED91FC911297B4
:102FE00092818C9180958923828378940F90DF91D0
:102FF000CF911F910F91FF90EF90DF90CF900895A8
:10300000EF92FF920F931F93CF93DF938C01C8E051
:10301000D0E0F12CEE24E394C8010E9493178111B3
:10302000FE28EE0C2197C1F78F2DDF91CF911F91D4
:103030000F91FF90EF900895CF92DF92FF920F9340
:103040001F93CF93DF931F92CDB7DEB78C01F62E7F
:1030500040E065E579830E94BE17CF2C7981D72E99
:1030600088E0F82EF60161916F0140E0C8010E94EE
:10307000BE17FA94B9F70F90DF91CF911F910F917E
:10308000FF90DF90CF900895FC011386158614867B
:1030900027E030E0DF01A20FB31F13961C92211529
:1030A000310519F021503109F5CF08951F93CF93C1
:1030B000DF93EC01162F60E0812F0E94121B612F1D
:1030C00070E0FB01E257FE4FE491E883FB01EE550F
:1030D000FE4FE491F0E0EE0FFF1FEA54FE4F8591A2
:1030E00094919A838983CE01DF91CF911F910C94A3
:1030F0004418AF92BF92CF92DF92EF92FF920F935C
:103100001F93CF93DF931F92CDB7DEB75C01D62E0E
:10311000E72EFC018585811164C0C50149830E94A9
:1031200021174981811105C0F50113861586148682
:1031300071C0442319F040E060EF02C040E06CEE43
:10314000C5010E94BE1701E0F12CC12C11E0C501A0
:103150000E949317682FC50169830E9493176981A4
:10316000613019F48130B9F433C02F2D30E0681389
:103170001BC0F5018385181730F4E20FF31F83811C
:10318000802349F402C0181731F060E0193058F478
:10319000F501148708C0F501EF0DF11D8381802B27
:1031A000838361E009C0C12EF501E20FF31F838123
:1031B000902F909589238383C5010E9460171F5F1C
:1031C000000F11F4F39401E0F7E0FF1508F0BFCF12
:1031D000113438F0F501C386C11009C081E085873C
:1031E00006C0F50113861586148680E013C0F5012C
:1031F00083818823B1F3ED2DFE2D80E090E0D50191
:10320000A80FB91F13962C91219301968830910530
:10321000B1F781E00F90DF91CF911F910F91FF9057
:10322000EF90DF90CF90BF90AF900895DC0180E0E9
:10323000615038F0ED91E827F0E0E658FF4F8491B7
:10324000F7CF089508958230E8F4E82FF0E0EE0F0C
:10325000FF1FED5EFE4F71836083813041F08091EE
:1032600069008C7F842B80936900E89A089580918F
:103270006900440F551F440F551F837F842B809393
:103280006900E99A08951F920F920FB60F921124C8
:103290002F933F934F935F936F937F938F939F935E
:1032A000AF93BF93EF93FF93E0911301F09114015B
:1032B0000995FF91EF91BF91AF919F918F917F9170
:1032C0006F915F914F913F912F910F900FBE0F9093
:1032D0001F9018951F920F920FB60F9211242F93E3
:1032E0003F934F935F936F937F938F939F93AF938E
:1032F000BF93EF93FF93E0911501F09116010995AB
:10330000FF91EF91BF91AF919F918F917F916F91BD
:103310005F914F913F912F910F900FBE0F901F9093
:1033200018951F920F920FB60F9211242F933F936F
:103330008F939F93AF93BF938091A4049091A50422
:10334000A091A604B091A7043091A30423E0230F19
:103350002D3720F40196A11DB11D05C026E8230FCD
:103360000296A11DB11D2093A3048093A404909301
:10337000A504A093A604B093A7048091A8049091FB
:10338000A904A091AA04B091AB040196A11DB11D9E
:103390008093A8049093A904A093AA04B093AB04CB
:1033A000BF91AF919F918F913F912F910F900FBE41
:1033B0000F901F9018952FB7F8946091A404709106
:1033C000A5048091A6049091A7042FBF08953FB74C
:1033D000F8948091A8049091A904A091AA04B091B6
:1033E000AB0426B5A89B05C02F3F19F00196A11D7F
:1033F000B11D3FBF6627782F892F9A2F620F711D4D
:10340000811D911D42E0660F771F881F991F4A9505
:10341000D1F708958F929F92AF92BF92CF92DF9291
:10342000EF92FF926B017C010E94E7194B015C0156
:10343000C114D104E104F104F1F00E942F1E0E9496
:10344000E719681979098A099B09683E7340810563
:10345000910570F321E0C21AD108E108F10888EE65
:10346000880E83E0981EA11CB11CC114D104E10494
:10347000F10429F7DDCFFF90EF90DF90CF90BF9060
:10348000AF909F908F9008958230910538F0880F0B
:10349000991F880F991F05970197F1F70895789460
:1034A00084B5826084BD84B5816084BD85B5826049
:1034B00085BD85B5816085BDEEE6F0E080818160E7
:1034C0008083E1E8F0E010828081826080838081E7
:1034D00081608083E0E8F0E0808181608083E1EBBF
:1034E000F0E0808184608083E0EBF0E080818160A7
:1034F0008083EAE7F0E0808184608083808182605D
:103500008083808181608083808180688083109245
:10351000C10008951F93CF93DF93182FEB0161E053
:103520000E94121B209711F460E004C0CF3FD10528
:1035300039F461E0812FDF91CF911F910C944B1BE7
:10354000E12FF0E0E658FE4FE491E330F9F048F463
:10355000E130B9F0E230A1F584B5806284BDC8BD28
:1035600034C0E730E9F0E83019F1E43049F58091F2
:103570008000806280938000D0938B00C0938A008B
:1035800024C084B5806884BDC7BD1FC08091800001
:10359000806880938000D0938900C093880015C014
:1035A0008091B00080688093B000C093B3000DC0DC
:1035B0008091B00080628093B000C093B40005C0D9
:1035C000C038D1050CF0B5CFAFCFDF91CF911F91AF
:1035D0000895833081F028F4813099F08230A1F091
:1035E00008958730A9F08830B9F08430D1F4809103
:1035F00080008F7D03C0809180008F778093800052
:10360000089584B58F7702C084B58F7D84BD0895F9
:103610008091B0008F7703C08091B0008F7D809340
:10362000B0000895CF93DF9390E0FC01E257FE4F86
:103630002491FC01EE55FE4F8491882349F190E0DE
:10364000880F991FFC01E653FE4FA591B491805459
:103650009E4FFC01C591D4919FB7611108C0F894A9
:103660008C91209582238C93888182230AC06230BA
:1036700051F4F8948C91322F309583238C93888168
:10368000822B888304C0F8948C91822B8C939FBFEB
:10369000DF91CF9108950F931F93CF93DF931F92E4
:1036A000CDB7DEB7282F30E0F901E658FE4F849100
:1036B000F901E257FE4F1491F901EE55FE4F0491C6
:1036C0000023C9F0882321F069830E94E91A6981E7
:1036D000E02FF0E0EE0FFF1FE054FE4FA591B491F4
:1036E0009FB7F8948C91611103C01095812301C09C
:1036F000812B8C939FBF0F90DF91CF911F910F91E2
:103700000895CF93DF93282F30E0F901E658FE4F5C
:103710008491F901E257FE4FD491F901EE55FE4F25
:10372000C491CC2391F081110E94E91AEC2FF0E0B2
:10373000EE0FFF1FEA54FE4FA591B4912C912D235B
:1037400081E090E021F480E002C080E090E0DF9131
:10375000CF910895FC01818D228D90E0805C9F4F78
:10376000821B91098F7399270895FC01918D828D99
:10377000981731F0828DE80FF11D858D90E0089546
:103780008FEF9FEF0895FC01918D828D981761F066
:10379000828DDF01A80FB11D5D968C91928D9F5F88
:1037A0009F73928F90E008958FEF9FEF089587E4C5
:1037B0009DE1892B49F080E090E0892B29F00E945F
:1037C000471D81110C9400000895FC01848DDF01D8
:1037D000A80FB11DA35ABF4F2C91848D90E0019684
:1037E0008F739927848FA689B7892C93A089B18973
:1037F0008C9180648C93938D848D981306C002887D
:10380000F389E02D80818F7D80830895CF93DF93AE
:10381000EC01888D8823C9F0EA89FB89808185FDC8
:1038200005C0A889B9898C9186FD0FC00FB607FC29
:10383000F5CF808185FFF2CFA889B9898C9185FF6A
:10384000EDCFCE010E94E51BE7CFDF91CF91089528
:10385000CF92DF92FF920F931F93CF93DF931F922C
:10386000CDB7DEB76C0181E0D60158968C9358979E
:103870005B969C915B975C968C915C97981307C0C4
:103880005096ED91FC915197808185FD2EC0F601F7
:10389000038D10E00F5F1F4F0F731127F02EF601FD
:1038A000848DF81211C00FB607FCF9CFD6015096DF
:1038B000ED91FC915197808185FFF1CFC60169831D
:1038C0000E94E51B6981EBCF838DE80FF11DE35A60
:1038D000FF4F6083D6015B960C935B975296ED91F8
:1038E000FC915397808180620CC0D6015696ED9171
:1038F000FC91579760835096ED91FC915197808190
:103900008064808381E090E00F90DF91CF911F91E0
:103910000F91FF90DF90CF900895BF92CF92DF92EA
:10392000EF92FF92CF93DF93EC016A017B01B22EFD
:10393000E889F98982E08083411581EE58076105A5
:103940007105A1F060E079E08DE390E0A7019601B8
:103950000E9415202150310941095109569547957A
:1039600037952795211580E1380798F0E889F9897E
:10397000108260E874E88EE190E0A70196010E9451
:103980001520215031094109510956954795379520
:103990002795EC85FD853083EE85FF852083188E85
:1039A000EC89FD89B082EA89FB898081806180830E
:1039B000EA89FB89808188608083EA89FB8980812C
:1039C00080688083EA89FB8980818F7D8083DF9195
:1039D000CF91FF90EF90DF90CF90BF9008951F920E
:1039E0000F920FB60F9211242F938F939F93EF9303
:1039F000FF93E091BC04F091BD048081E091C2048A
:103A0000F091C30482FD12C090818091C5048F5F44
:103A10008F732091C604821751F0E091C504F0E045
:103A2000E455FB4F958F8093C50401C08081FF91C1
:103A3000EF919F918F912F910F900FBE0F901F903C
:103A400018951F920F920FB60F9211242F933F9348
:103A50004F935F936F937F938F939F93AF93BF9396
:103A6000EF93FF938CEA94E00E94E51BFF91EF91A6
:103A7000BF91AF919F918F917F916F915F914F9186
:103A80003F912F910F900FBE0F901F9018958CEAC9
:103A900094E00E94AA1B21E0892B09F420E0822FE8
:103AA00008951092AF041092AE0488EE93E0A0E067
:103AB000B0E08093B0049093B104A093B204B093AB
:103AC000B3048EEC91E09093AD048093AC0485EC4C
:103AD00090E09093B9048093B80484EC90E09093C4
:103AE000BB048093BA0480EC90E09093BD04809373
:103AF000BC0481EC90E09093BF048093BE0482EC00
:103B000090E09093C1048093C00486EC90E0909381
:103B1000C3048093C2041092C5041092C60410928C
:103B2000C7041092C8040895CF92DF92EF92FF92DB
:103B30000F931F93CF93DF937C016A01EB0100E0A9
:103B400010E00C151D0571F06991D701ED91FC9104
:103B50000190F081E02DC7010995892B19F00F5FC5
:103B60001F4FEFCFC801DF91CF911F910F91FF90B1
:103B7000EF90DF90CF9008956115710581F0DB0122
:103B80000D900020E9F7AD0141505109461B570B3C
:103B9000DC01ED91FC910280F381E02D099480E03D
:103BA00090E008956AED71E00C94BC1D0F931F9393
:103BB000CF93DF93EC010E94BC1D8C01CE010E94CB
:103BC000D21D800F911FDF91CF911F910F9108950A
:103BD0004F925F926F927F92AF92BF92CF92DF929D
:103BE000EF92FF920F931F93CF93DF93CDB7DEB782
:103BF00029013A01621B730B840B950B29893A89C1
:103C00004B895C892A193B094C095D09298B3A8B40
:103C10004B8B5C8B9B01AC0169897A898B899C8970
:103C20000E94DD1FE418F50806091709A80197018D
:103C30000E9437202A0D3B1D4C1D5D1DCA01B90194
:103C4000DF91CF911F910F91FF90EF90DF90CF9078
:103C5000BF90AF907F906F905F904F9008950895C0
:103C6000D4D008F481E008950CD00AC102D140F00C
:103C7000F9D030F021F45F3F19F0EBC0511134C19D
:103C8000EEC00FD198F39923C9F35523B1F3951BD7
:103C9000550BBB27AA2762177307840738F09F5F6D
:103CA0005F4F220F331F441FAA1FA9F333D00E2EDC
:103CB0003AF0E0E830D091505040E695001CCAF749
:103CC00029D0FE2F27D0660F771F881FBB1F26170E
:103CD00037074807AB07B0E809F0BB0B802DBF01E1
:103CE000FF2793585F4F2AF09E3F510568F0B1C0FF
:103CF000FBC05F3FECF3983EDCF3869577956795C4
:103D0000B795F7959F5FC9F7880F911D9695879591
:103D100097F90895E1E0660F771F881FBB1F6217B0
:103D200073078407BA0720F0621B730B840BBA0B6E
:103D3000EE1F88F7E0950895BCD088F09F5790F06B
:103D4000B92F9927B751A0F0D1F0660F771F881FC0
:103D5000991F1AF0BA95C9F712C0B13081F0C3D0DB
:103D6000B1E00895C0C0672F782F8827B85F39F079
:103D7000B93FCCF3869577956795B395D9F73EF41F
:103D800090958095709561957F4F8F4F9F4F0895C7
:103D9000E89409C097FB3EF49095809570956195E5
:103DA0007F4F8F4F9F4F9923A9F0F92F96E9BB279B
:103DB0009395F695879577956795B795F111F8CF17
:103DC000FAF4BB0F11F460FF1BC06F5F7F4F8F4F82
:103DD0009F4F16C0882311F096E911C0772321F078
:103DE0009EE8872F762F05C0662371F096E8862F10
:103DF00070E060E02AF09A95660F771F881FDAF767
:103E0000880F9695879597F90895990F0008550F93
:103E1000AA0BE0E8FEEF16161706E807F907C0F050
:103E200012161306E407F50798F0621B730B840B58
:103E3000950B39F40A2661F0232B242B252B21F432
:103E400008950A2609F4A140A6958FEF811D811DD2
:103E5000089597F99F6780E870E060E008959FEF0C
:103E600080EC089500240A94161617061806090611
:103E7000089500240A9412161306140605060895E0
:103E8000092E0394000C11F4882352F0BB0F40F468
:103E9000BF2B11F460FF04C06F5F7F4F8F4F9F4FA8
:103EA000089557FD9058440F551F59F05F3F71F02A
:103EB0004795880F97FB991F61F09F3F79F0879591
:103EC0000895121613061406551FF2CF4695F1DF1A
:103ED00008C0161617061806991FF1CF86957105AA
:103EE000610508940895E894BB2766277727CB01DE
:103EF00097F908950BD0C4CFB5DF28F0BADF18F0DA
:103F0000952309F0A6CFABCF1124EECFCADFA0F3E3
:103F1000959FD1F3950F50E0551F629FF001729F5E
:103F2000BB27F00DB11D639FAA27F00DB11DAA1F7D
:103F3000649F6627B00DA11D661F829F2227B00DCA
:103F4000A11D621F739FB00DA11D621F839FA00D55
:103F5000611D221F749F3327A00D611D231F849FA5
:103F6000600D211D822F762F6A2F11249F575040FC
:103F70008AF0E1F088234AF0EE0FFF1FBB1F661F97
:103F8000771F881F91505040A9F79E3F510570F050
:103F900060CFAACF5F3FECF3983EDCF38695779530
:103FA0006795B795F795E7959F5FC1F7FE2B880F4B
:103FB000911D9695879597F90895DB018F939F93AF
:103FC0000E947220BF91AF91A29F800D911DA39F6F
:103FD000900DB29F900D11240895AA1BBB1B51E1B7
:103FE00007C0AA1FBB1FA617B70710F0A61BB70B69
:103FF000881F991F5A95A9F780959095BC01CD010E
:10400000089597FB072E16F4009407D077FD09D08A
:104010000E94ED1F07FC05D03EF4909581959F4FBF
:104020000895709561957F4F0895A1E21A2EAA1BFD
:10403000BB1BFD010DC0AA1FBB1FEE1FFF1FA21758
:10404000B307E407F50720F0A21BB30BE40BF50B55
:10405000661F771F881F991F1A9469F760957095DE
:10406000809590959B01AC01BD01CF010895052E6F
:1040700097FB1EF400940E944E2057FD07D00E942B
:10408000152007FC03D04EF40C944E20509540951B
:10409000309521953F4F4F4F5F4F089590958095F4
:1040A000709561957F4F8F4F9F4F0895EE0FFF1FC3
:1040B0000590F491E02D0994A29FB001B39FC00137
:1040C000A39F700D811D1124911DB29F700D811D44
:1040D0001124911D08950E945C20B7FF0895821B52
:1040E000930B08950E945C20A59F900DB49F900DA6
:1040F000A49F800D911D11240895FC018827992704
:10410000E89421912032E9F3293010F02E30C8F3E1
:104110002B3241F02D3239F4689404C00E94E6201D
:10412000820F911D219120532A30C0F31EF49095E7
:1041300081959F4F08951F93FC0199278827BC0103
:10414000E89411911032E9F3193010F01E30C8F3E1
:104150001B3251F01D3249F4689406C00E94D120F0
:10416000610F711D811D911D119110531A30B0F313
:104170003EF490958095709561957F4F8F4F9F4F3E
:104180001F910895FB01DC014150504048F001901F
:104190000D920020C9F701C01D9241505040E0F738
:1041A0000895592F482F372F262F660F771F881F06
:1041B000991F660F771F881F991F620F731F841F37
:1041C000951F660F771F881F991F08957AE0979FA4
:1041D000902D879F802D910D11240895DC01CB0136
:1041E000FC01F999FECF06C0F2BDE1BDF89A319607
:1041F00000B40D9241505040B8F70895F999FECFA0
:1042000092BD81BDF89A992780B50895262FF99916
:10421000FECF92BD81BDF89A019700B4021639F025
:104220001FBA20BD0FB6F894FA9AF99A0FBE0895F6
:04423000F894FFCF30
:104234000000490580000100000001FF00FCE1A826
:10424400A83C0022192219436F756C64206E6F74A8
:1042540020676574204453313842323020646576D7
:10426400696365206164647265737321004E6F64D1
:10427400652072656164792E00322E302E302D62F5
:1042840065746100302E3132620044696D6D616283
:104294006C65204C69676874004C696768742069B0
:1042A4006E74656E73697479004D6F74696F6E20F6
:1042B400616374697669747900496C6C756D696EB3
:1042C4006174696F6E206C6576656C004D6F766500
:1042D400206465746563740054656D7065726174FF
:1042E40075726500000000000611D910AE10B610FA
:1042F400C910D8105E00BC00770100000000281C23
:10430400941DAA1BC31BB51B061C0D0A006E616E0F
:0A43140000696E66006F7666000017
:107800000C94343C0C94513C0C94513C0C94513CE1
:107810000C94513C0C94513C0C94513C0C94513CB4
:107820000C94513C0C94513C0C94513C0C94513CA4
:107830000C94513C0C94513C0C94513C0C94513C94
:107840000C94513C0C94513C0C94513C0C94513C84
:107850000C94513C0C94513C0C94513C0C94513C74
:107860000C94513C0C94513C11241FBECFEFD8E036
:10787000DEBFCDBF11E0A0E0B1E0ECE9FFE702C060
:1078800005900D92A230B107D9F712E0A2E0B1E065
:1078900001C01D92AD30B107E1F70E942D3D0C945F
:1078A000CC3F0C94003C982F959595959595959582
:1078B000905D8F708A307CF0282F295A8091C0000B
:1078C00085FFFCCF9093C6008091C00085FFFCCF60
:1078D0002093C6000895282F205DF0CF982F809127
:1078E000C00085FFFCCF9093C6000895EF92FF92F1
:1078F0000F931F93EE24FF2487018091C00087FD22
:1079000017C00894E11CF11C011D111D81E4E8164B
:1079100082E4F8068FE0080780E0180770F3E09132
:107920000401F091050109958091C00087FFE9CF1E
:107930008091C6001F910F91FF90EF9008950E94D3
:10794000763C982F8091C00085FFFCCF9093C600B5
:1079500091362CF490330CF09053892F089597555D
:10796000892F08951F930E949F3C182F0E949F3CCF
:107970001295107F810F1F9108951F93182F882350
:1079800021F00E94763C1150E1F71F9108951F935A
:10799000182F0E94763C803249F0809103018F5F5E
:1079A000809303018530C1F01F9108958091C0003C
:1079B00085FFFCCF84E18093C6008091C00085FFE5
:1079C000FCCF1093C6008091C00085FFFCCF80E102
:1079D0008093C6001F910895E0910401F091050184
:1079E00009951F9108950E94763C803241F0809164
:1079F00003018F5F80930301853081F008958091AA
:107A0000C00085FFFCCF84E18093C6008091C00058
:107A100085FFFCCF80E18093C6000895E0910401CA
:107A2000F09105010995089540E951E08823A1F0FE
:107A30002D9A28EE33E0FA013197F1F721503040CA
:107A4000D1F72D9828EE33E0FA013197F1F7215064
:107A50003040D1F7815061F708953F924F925F9285
:107A60006F927F928F929F92AF92BF92CF92DF924E
:107A7000EF92FF920F931F93CF93DF93000080E16B
:107A80008093C4001092C50088E18093C10086E015
:107A90008093C2005098589A259A81E00E94143D24
:107AA00024E1F22E9EE1E92E85E9D82E0FE0C02ECA
:107AB00010E1B12EAA24A394B1E49B2EA6E58A2E50
:107AC000F2E57F2EE0E26E2E79E4572E63E5462E36
:107AD00050E5352E0E94763C8033B1F18133B9F107
:107AE000803409F46FC0813409F476C0823409F41B
:107AF00085C0853409F488C0803531F1823521F1A3
:107B0000813511F1853509F485C0863509F48DC0BC
:107B1000843609F496C0843709F403C1853709F423
:107B200072C1863709F466C0809103018F5F80932C
:107B30000301853079F6E0910401F0910501099582
:107B40000E94763C803351F60E94F33CC3CF0E94E2
:107B5000763C803249F78091C00085FFFCCFF092DF
:107B6000C6008091C00085FFFCCF9092C600809136
:107B7000C00085FFFCCF8092C6008091C00085FFC9
:107B8000FCCF7092C6008091C00085FFFCCF609250
:107B9000C6008091C00085FFFCCF5092C600809146
:107BA000C00085FFFCCF4092C6008091C00085FFD9
:107BB000FCCF3092C6008091C00085FFFCCFB09210
:107BC000C60088CF0E94763C863808F4BDCF0E945C
:107BD000763C0E94F33C7ECF0E94763C803809F4CC
:107BE0009CC0813809F40BC1823809F43CC1883942
:107BF00009F48FC080E00E94C73C6CCF84E10E94F2
:107C0000BD3C0E94F33C66CF85E00E94BD3C0E94D3
:107C1000F33C60CF0E94763C809306010E94763C44
:107C2000809307010E94F33C55CF0E94763C80333D
:107C300009F41DC183E00E94BD3C80E00E94C73C66
:107C400049CF0E94763C809309020E94763C809343
:107C5000080280910C028E7F80930C020E94763C79
:107C6000853409F415C18091080290910902892B8D
:107C700089F000E010E00E94763CF801E85FFE4FDA
:107C800080830F5F1F4F80910802909109020817AF
:107C9000190788F30E94763C803209F045CF809125
:107CA0000C0280FF01C16091060170910701660F0F
:107CB000771F7093070160930601A0910802B091AD
:107CC00009021097C9F0E8E0F1E09B01AD014E0F09
:107CD0005F1FF999FECF32BD21BD819180BDFA9A17
:107CE000F99A2F5F3F4FE417F50799F76A0F7B1F4B
:107CF00070930701609306018091C00085FFFCCF5F
:107D0000F092C6008091C00085FFFCCFB092C60003
:107D1000E1CE83E00E94C73CDDCE82E00E94C73CFA
:107D2000D9CE0E94763C809309020E94763C8093D3
:107D300008028091060190910701880F991F909386
:107D40000701809306010E94763C853409F4A6C0A1
:107D500080910C028E7F80930C020E94763C8032D0
:107D600009F0B8CE8091C00085FFFCCFF092C6002C
:107D7000609108027091090261157105B9F140E046
:107D800050E080910C02A82FA170B82FB27011C0E2
:107D9000BB2309F45CC0E0910601F0910701319624
:107DA000F0930701E09306014F5F5F4F46175707B7
:107DB000E8F4AA2369F3F999FECF209106013091E6
:107DC000070132BD21BDF89A90B58091C00085FFB2
:107DD000FCCF9093C6002F5F3F4F30930701209355
:107DE00006014F5F5F4F4617570718F38091C00099
:107DF00085FDE5CE8091C00085FFF8CFE0CE81E023
:107E00000E94C73C67CE0E94763C803209F08CCE3F
:107E10008091C00085FFFCCFF092C6008091C00029
:107E200085FFFCCFE092C6008091C00085FFFCCFAB
:107E3000D092C6008091C00085FFFCCFC092C600E2
:107E40008091C00085FFFCCFB092C60043CEE09188
:107E50000601F091070194918091C00085FFFCCF4D
:107E60009093C6009CCF80E10E94C73C33CE0E9415
:107E7000763C0E94763C182F0E94763C112309F430
:107E800083C0113009F484C08FE00E94C73C22CE29
:107E900080910C02816080930C02E5CE80910C02EF
:107EA000816080930C0259CF809107018823880F4D
:107EB000880B8A2180930B02809106019091070123
:107EC000880F991F90930701809306018091080203
:107ED00080FF09C080910802909109020196909359
:107EE000090280930802F894F999FECF1127E091D6
:107EF0000601F0910701C8E0D1E08091080290915D
:107F00000902103091F40091570001700130D9F34B
:107F100003E000935700E89500915700017001308D
:107F2000D9F301E100935700E89509901990009169
:107F3000570001700130D9F301E000935700E89534
:107F40001395103498F011270091570001700130FB
:107F5000D9F305E000935700E895009157000170B0
:107F60000130D9F301E100935700E895329602976A
:107F700009F0C7CF103011F00296E5CF112480919F
:107F8000C00085FFB9CEBCCE8EE10E94C73CA2CD19
:0C7F900085E90E94C73C9ECDF894FFCF0D
:027F9C00800063
:040000030000780081
:00000001FF
