:100000000C9462000C94220E0C94FB0D0C948A004C
:100010000C948A000C948A000C94C4050C948A00F9
:100020000C948A000C948A000C948A000C948A0028
:100030000C948A000C948A000C948A000C948A0018
:100040000C94B10D0C948A000C940F0C0C94E90BD9
:100050000C948A000C948A000C948A000C948A00F8
:100060000C94490E0C948A00000000002300260026
:10007000290000000000240027002A0000000000E2
:10008000250028002B0004040404040404040202D4
:100090000202020203030303030301020408102007
:1000A0004080010204081020010204081020000012
:1000B0000008000201000003040700000000000027
:1000C0000000741011241FBECFEFD8E0DEBFCDBFFB
:1000D00011E0A0E0B1E0EEE4F6E202C005900D927E
:1000E000A63AB107D9F723E0A6EAB1E001C01D9214
:1000F000AA3FB207E1F710E0C2E6D0E004C02197C2
:10010000FE010E94F810C136D107C9F70E949F0F67
:100110000C9425130C9400008091B10184608093AD
:10012000B1018091B20180788093B201E091B40175
:10013000F091B501309709F0099408958091B201CA
:10014000982F9077903759F0982F92959F709F5FD6
:1001500097709295907F8F78892B8093B2018091D0
:10016000B1018B7F8F7E8093B10180E090E0892B7D
:1001700021F087E690E00E94000029986CE080E280
:100180000C94490ACF93C82F8FEF8C0F8E3FA8F4A1
:10019000C0933602C0931C0163E082E20E94490AC8
:1001A00061E081E20E94490A0E945A0A6C2F80E0B5
:1001B00090E00E94C31281E00CC080E090E0892BA7
:1001C00021F08EE690E00E9400008FEF80933602CF
:1001D00080E0CF9108950F931F930E946F0D0091BF
:1001E000A9011091AA012091AB013091AC01601BD3
:1001F000710B820B930B1F910F910895E1EBF1E0CE
:100200008081877F8F7E80831092AD011092AE0136
:100210001092AF011092B00143E050E060E070E056
:1002200086E392E00C94A31291E59CBD91E09DBD04
:100230002A98E3E2F0E03197F1F78EBD00000DB4AB
:1002400007FEFDCF8EB5FB019FEF4150C8F0222382
:1002500061F09EBD00000DB407FEFDCF8EB56115A7
:10026000710599F380833196F0CFDF01119680817B
:100270008EBD00000DB407FEFDCF8EB5FD01E5CFAC
:100280002A9AE3E2F0E03197F1F7089520E040E0A8
:1002900060E070E00C9414010F931F93CF93DF93F1
:1002A000FC0182819091B10190FF04C08F3F09F061
:1002B0004FC005C08F3F19F0D091370201C0DFEF6A
:1002C000809136028083438142FD06C04695469563
:1002D0004695C7E0C40F01C0C0E28F0180E090E006
:1002E000892B21F080E090E00E940000299883E0B3
:1002F00092E00197F1F76EE080E20E94490A8BE8F4
:1003000091E00197F1F76D2F8AE20E94490A6D2F63
:1003100080E30E94490A81EE0E944601DF3F11F00E
:1003200080EA01C080EB4C2FC13208F040E220E0AF
:10033000B8010E941401299A00E010E08FEF0E949A
:100340004601C82F807331F401501109B9F702C07A
:10035000C0E02FC0299860E387E20E94490AC4FFE9
:1003600003C081EE0E9446010E945A0AC5FBCC27B9
:10037000C0F991E0DF3F09F090E0C92B809137028E
:10038000D81317C0C11110C080E090E0892B21F074
:1003900085E690E00E9400008091B20191E0980F04
:1003A0009F70807F892B03C08091B201807F8093F2
:1003B000B2018C2FDF91CF911F910F91089580E0B2
:1003C00090E0892B21F088E090E00E9400008FEF00
:1003D0008093B3018091B10188608093B10128E1DD
:1003E00043E06FEF80E00E94B40B61E00E94B80828
:1003F0000C944C01809136028F3FA1F480E090E094
:10040000892B21F086E090E00E94000023E043E089
:100410006FEF80E00E94B40B68E571E00E94C408B1
:100420000C944C01089580E090E0892B21F084E049
:1004300090E00E9400008091B101897F81608093EB
:10044000B1018FEF809338028093370227E043E0B9
:100450006FEF0E94B40B68E571E00E94C4080C9431
:100460004C012091B10122FD0C944C0180E00895D3
:100470006F927F928F929F92AF92BF92DF92EF9294
:10048000FF920F931F93CF93DF9300D0CDB7DEB7CA
:10049000E091A701F091A8010280F381E02D30974F
:1004A00009F009958091B10184FBEE24E0F884FF06
:1004B000B9C186E0F82E90E0692E90E0792E00E038
:1004C00010E021E2D22E21E041E060E070E087E11F
:1004D0000E94140180FDA6C1FA94FF2009F4A2C174
:1004E0006114710421F081E090E00E94000021E09D
:1004F00041E060E070E080E60E941401A82E80E2F6
:100500008A1520F482EE0E944601A12C21E04A2D9A
:1005100067E473E081E60E94140160E487E20E94D0
:10052000490A90914A03292F2695269526952A3126
:1005300008F029E192FD03C047E0420F01C040E20C
:10054000E0914B0350914C03B09048033091470326
:1005500080914903A41639F06114710409F4B3CFF2
:100560008CE690E00AC0492F4370423049F0611494
:10057000710409F4A8CF8DE690E00E940000A3CF9B
:100580004E2F47706091B20160686093B201609134
:100590003602861349C030E0B901F3E0660F771FD9
:1005A000FA95E1F79770962B90934A03D901A95BCE
:1005B000BC4F17961C92E3FF1BC0E7E4F3E0A6E2F2
:1005C000B3E09D2D01900D929A95E1F790912A0349
:1005D000977F906190932A0380932703B09228031A
:1005E00086E293E049835A830E9431025A8149810D
:1005F00020914B0324FD13C0433089F490914C03A8
:1006000081EF890F833008F03FC05DCF913009F44E
:10061000E6C09A3009F457CF9C3109F454CF87E4EF
:1006200093E00E94A6094FCF8F3F09F04CCF433093
:1006300031F58091B10182FF03C0573009F443CFF7
:10064000583009F440CF543109F03DCF8091370242
:10065000381339CF0E946F0D7370882799270E9435
:10066000350DA090370225E143E06FEF8B2D0E94FE
:10067000B40B6A2D0E94B8080E944C0124CF8091CF
:100680003702381320CFCBCF543039F487E493E0CE
:100690000E9495090E94C20016CF5830E1F4A09044
:1006A000B101A0FE10CF87E493E00E9495098F3F2F
:1006B00009F409CF91E0980F9F3F09F404CF80918E
:1006C0003802981708F0FFCEA1FCFDCE90933802B7
:1006D000B0923702F8CE583141F429E143E06FEF90
:1006E0008B2D0E94B40B61E0C5CF593171F480911C
:1006F000B10183FFE8CE877F8093B10187E493E067
:100700000E9495098093B301DECE80914803811148
:1007100085C09D3099F480E090E0892B21F08BE03A
:1007200090E00E94000098E088E10FB6F894A89548
:10073000809360000FBE90936000FFCF9B31A9F4BF
:1007400087E493E00E94950991E0811101C090E057
:100750008091350290FB80F9809335026114710419
:1007600009F4B1CE8AE090E008CF9630A9F49091D8
:100770004E03992329F081E09D3419F080E001C0F7
:100780008E2D8093340241E050E063E071E084E319
:1007900092E00E94B31297CE933119F40E9423097C
:1007A00092CE923109F032CF0E94EB004B015C01F6
:1007B00026E143E06FEF80E00E94B40BFC018481EE
:1007C0008F71806A8483838187708062838387824C
:1007D0009086A186B286CF010E94310274CE0115A7
:1007E000110509F470CE229526952770253049F41D
:1007F00060914E0370914F0380915003909151038B
:100800000AC0211105C08EE493E00E94D11103C0FB
:1008100060E070E0CB010E94000055CE9A3109F0F3
:10082000FECE51CE0F900F90DF91CF911F910F917F
:10083000FF90EF90DF90BF90AF909F908F907F9050
:100840006F9008959C018091A7019091A801821753
:10085000930751F09091B1019F719093B101309342
:10086000A8012093A70105C08091B101805E80930B
:10087000B101E091A701F091A8010190F081E02D74
:10088000309709F009950E946F0D6093A90170934C
:10089000AA018093AB019093AC0108950F931F932D
:1008A0000E94EB002091B2012077203729F000E16F
:1008B00017E220E030E004C000E61AEE20E030E06D
:1008C000061717072807390730F48DE191E01F91CB
:1008D0000F910C9422041F910F9108958091B20101
:1008E0008F70863020F088E191E00C942204089506
:1008F0008091B3018F3FA1F00E946F0D6093AD0115
:100900007093AE018093AF019093B0018091B301D9
:100910009091380289138093380284E191E01BC0E2
:100920000E94EB00613D774081059105B0F0809118
:10093000B101803618F480E191E00DC0877F80938B
:10094000B10180E090E0892B21F08AE690E00E94DE
:10095000000088E191E00C94220408958091360211
:100960008F3F59F080E090E0892B21F087E090E004
:100970000E94000080E191E018C00E94EB00613D00
:1009800077408105910598F08091B101803618F487
:100990008CE091E00AC080E090E0892B21F089E6AC
:1009A00090E00E94000088E091E00C9422040895F9
:1009B0000E94EB00613D77408105910520F4809114
:1009C000B10181FF0895809137028F3F81F08091BE
:1009D000B1018E7F8093B10180E090E0892B21F0FE
:1009E00085E090E00E9400008CE091E011C08091D1
:1009F000B101803618F488E191E00AC080E090E00F
:100A0000892B21F088E690E00E94000088E091E0C8
:100A10000C942204CF93219A229ACFB7F894809114
:100A2000A601811127C0E0E9F0E08491E4EAF0E05A
:100A30009491E82FF0E0EE0FFF1FEE58FF4FA591C5
:100A4000B491EC91E92321F461E08AE00E946A0C00
:100A500061E08AE00E949A0C8CB580618CBD8CB5F7
:100A600080648CBD61E08DE00E949A0C61E08BE0B7
:100A70000E949A0C8091A6018F5F8093A601CFBF40
:100A800029982A9A6EE080E20E94490A65E070E0A7
:100A900080E090E00E94350D63E083E20E94490A05
:100AA0006FE584E20E94490A6CE485E20E94490AEB
:100AB00067E286E20E94490A63E780E50E94490AEC
:100AC00066E08DE30E94490A21E041E060E070E0C9
:100AD00086E00E941401C82F21E041E060E070E050
:100AE00085E00E9414018C3409F040C0C732F1F552
:100AF00062E082E20E94490A60E081E20E94490AC3
:100B000063E08CE30E94490A8FEF8093030120E0A9
:100B100045E063E071E08BE20E94140120E045E0D3
:100B200063E071E08AE20E94140120E045E063E0A6
:100B300071E080E30E94140182EE0E94460181EE82
:100B40000E94460160E787E20E94490A8091B10154
:100B500080618093B101809136028F3F81F00E94C5
:100B6000C20081110CC088E091E00BC080E090E0F1
:100B7000892BC9F387E690E00E940000F4CF88E15A
:100B800091E0CF910C9422041F920F920FB60F9216
:100B900011240F900FBE0F901F90189580910B029B
:100BA00090E020910C02821B91090895CF92DF9270
:100BB000EF92FF920F931F93CF93DF937C01262F29
:100BC000972F8A018091EA01882391F0C62FD72FB1
:100BD0006E01C40ED51ECC15DD0571F06991D701EB
:100BE000ED91FC910190F081E02DC7010995F3CFC3
:100BF000642F822F0E94770FC801DF91CF911F9140
:100C00000F91FF90EF90DF90CF900895CF93DF93F7
:100C10001F92CDB7DEB769832091EA012223D1F07C
:100C20002091E901203240F021E030E0FC013383E3
:100C3000228380E090E015C08091E801E82FF0E089
:100C4000E853FE4F998190838F5F8093E8018093F2
:100C5000E90105C061E0CE0101960E94770F81E0B5
:100C600090E00F90DF91CF9108950F931F93CF9352
:100C7000DF9300D000D0CDB7DEB7182F062F8091BC
:100C8000C701181739F1111109C060E083E00E9413
:100C90006A0C60E085E00E946A0C1AC0262F30E0E2
:100CA000AFEFB0E00E94161324E630E040E050E0E1
:100CB0000E94D512B90183E029833A834B835C8378
:100CC0000E94D60C29813A81B90185E00E94D60C98
:100CD0001093C7018091C6010817F1F01123D1F0DC
:100CE000202F30E0AFEFB0E00E94161324E630E092
:100CF00040E050E00E94D512B90183E029833A8395
:100D00004B835C830E94D60C29813A81B90185E02E
:100D10000E94D60C0093C6010F900F900F900F9079
:100D2000DF91CF911F910F910895CF92DF92EF92B3
:100D3000FF92CF93DF932091E20280910E02811106
:100D4000FCCF81E080930E02809310029FEF90937E
:100D50000D021092320280933102809333029091FF
:100D60003302822F880F892B8093330280910F02E8
:100D7000813061F410920F02809133028093BB00A6
:100D80008091BC0083FDF8CF85EC01C085EE809397
:100D9000BC0080910E028130E1F3809132028230FA
:100DA00018F48091320201C082E0A1E1B2E02BEEA2
:100DB00031E0F9019E2F921B981718F49D919193A1
:100DC000F9CF10920C0280930B0286ED92E00E9404
:100DD0009E0BD82F80E0C82F86ED92E00E949E0BDC
:100DE0008C2B9D2BBC0180E090E00E9415122AE91B
:100DF00039E949E95FE30E94FE100E9470116B011E
:100E00007C01CB016AE070E00E94E4102091C301F4
:100E10003091C401C901861B970BC816D90628F06A
:100E2000260F371F2C153D05F0F4D092C401C09257
:100E3000C3018091E8028F7180668093E8028091FF
:100E4000E702877080618093E702D092EC02C09243
:100E5000EB0284EE92E0DF91CF91FF90EF90DF9074
:100E6000CF900C94C30BDF91CF91FF90EF90DF9068
:100E7000CF9008950F931F93CF93DF930E946F0D30
:100E80000091B7011091B8012091B9013091BA01D8
:100E9000DC01CB01801B910BA20BB30B893E93406D
:100EA000A105B10508F447C00E946F0D6093B7011A
:100EB0007093B8018093B9019093BA018091210198
:100EC000882309F438C0E2EBF0E08491EEE9F0E029
:100ED000D491EAE8F0E0C491CC2379F081110E942A
:100EE000410CEC2FF0E0EE0FFF1FE859FF4FA591EA
:100EF000B491EC91ED23C1E009F4C0E0C1708091A0
:100F0000C501C817C1F0C093C5016C2F87E00E94CE
:100F10006A0C809108038770886080930803809131
:100F200009038F71806280930903C0930C0385E0ED
:100F300093E00E94C30B0E946F0D0091BB011091C2
:100F4000BC012091BD013091BE01DC01CB01801BB1
:100F5000910BA20BB30B89389341A105B10560F049
:100F60000E946F0D6093BB017093BC018093BD0123
:100F70009093BE010E9495060E946F0D0091BF01E3
:100F80001091C0012091C1013091C201DC01CB015F
:100F9000801B910BA20BB30B81369A4EA105B105B4
:100FA000B0F00E946F0D6093BF017093C0018093F9
:100FB000C1019093C20187EE93E09093C4018093A6
:100FC000C301DF91CF911F910F910C949506DF9192
:100FD000CF911F910F910895CF93DF9361E083E04C
:100FE0000E949A0C61E085E00E949A0C61E087E023
:100FF0000E949A0C60E084E00E949A0C10920C020D
:1010000010920B021092E8011092E90110920E0268
:10101000D1E0D093100210920F0261E082E10E94B1
:101020006A0C61E083E10E946A0C8091B9008E7FB6
:101030008093B9008091B9008D7F8093B90088E4D6
:101040008093B80085E48093BC00C091E202D09305
:10105000EA01C093B6011092E8011092E90160E143
:1010600086ED92E00E9406068091E901813208F047
:1010700046C090910E029111FCCF92E090930E0227
:1010800091E0909310029FEF90930D021092320224
:1010900080933102A8ECB1E021E132E0F9019E2F0A
:1010A000921B981718F49D919193F9CF10923302E7
:1010B00080913302CC0FC82BC093330280910F0272
:1010C000813061F410920F02809133028093BB0053
:1010D0008091BC0083FDF8CF85EC01C085EE809344
:1010E000BC0080910E028230E1F380910D028F3FAF
:1010F00031F080910D02803211F080910D0210923A
:10110000E8011092E9011092EA016AE070E080E0E3
:1011100090E00E94350D89E18093C601C3E0D0E0E4
:1011200061E087E00E946A0C64E670E080E090E095
:101130000E94350D60E087E00E946A0C68EC70E068
:1011400080E090E00E94350D219751F74BE050E090
:101150006AE471E089E392E00E94670A42E050E0AD
:1011600066E571E089E392E0DF91CF910C94670A24
:10117000FC01838187708860838384818F718062A2
:1011800084836783CF0108950F931F93CF93DF93D9
:10119000EC016115710561F0FB0101900020E9F798
:1011A0003197E61BF70BE931F10518F0E9E101C0D1
:1011B000E0E00E2F10E0C80123E0880F991F2A9568
:1011C000E1F79B819770892B8B838C818F718C8346
:1011D000EE2329F0A801CE0107960E94A411FE017A
:1011E000E00FF11F1782CE01DF91CF911F910F9178
:1011F00008952BE043E06FEF80E00E94B40B69E5B7
:1012000071E00E94C4080E9431022CE043E06FEFBD
:1012100080E00E94B40B68E671E00E94C4080E945E
:1012200031024DE651E064E081E00E94D40B4DE7CD
:1012300051E061E082E00E94D40B4DE851E060E1B2
:1012400083E00C94D40BCF9380E090E0892B21F0C5
:101250008CE090E00E9400002FE043E06FEF80E020
:101260000E94B40B68E571E00E94C40880912903D4
:10127000877080618093290380912A038F71806C2D
:1012800080932A0381E080932D0310922E0386E23F
:1012900093E00E9431028FE00E947B0D48E551E00F
:1012A00061E18FEF0E94D40BC091370226E043E04A
:1012B0006FEF80E00E94B40B6C2F0E94B8080E9470
:1012C000310286E00E947B0DCF910C94F908CF93F8
:1012D0008091350281FD27C00E94230980E090E0C3
:1012E000892B21F089E090E00E9400008091350276
:1012F000816080933502C4E02AE143E06FEF80E033
:101300000E94B40B62E00E94B8080E9431028BE197
:101310000E947B0D811102C0C15071F7809135028E
:10132000826080933502CF910895FC01248122953B
:1013300026952770213011F487810895211104C06A
:1013400007960E94B311089580E00895EF92FF92EE
:101350001F93CF93DF931F92CDB7DEB77C0110911F
:10136000C7016091C601FC019681913021F0923055
:1013700009F45BC087C0F7018581823061F4C70141
:1013800069830E94950991E06981811101C090E013
:10139000892F0E943506F7018581833009F072C0DC
:1013A0009481929596959770923011F4878108C038
:1013B000911105C0C70107960E94B31101C080E0DA
:1013C000682F853648F161E087E00E946A0C64E18D
:1013D00070E080E090E00E94350D60E087E00E94C0
:1013E0006A0C64E670E080E090E00E94350D61E0F8
:1013F00087E00E946A0C64E170E080E090E00E9467
:10140000350D60E087E00E946A0C64E670E080E0E1
:1014100090E00E94350D61E0812F0F90DF91CF9118
:101420001F91FF90EF900C943506F70185818F3066
:1014300049F5C7010E94950991E0811101C090E032
:101440009093210191111EC01092C50160E087E0C8
:101450000E946A0C8091080387708860809308035B
:10146000809109038F7180628093090310920C03AD
:1014700085E093E00F90DF91CF911F91FF90EF9067
:101480000C94C30B0F90DF91CF911F91FF90EF90C1
:101490000895CF93DF931F92CDB7DEB7698320E025
:1014A00041E0BE016F5F7F4F0E9414010F90DF91FA
:1014B000CF9108956FE080E20E94490A60911C017B
:1014C0006F3F19F08AE20E94490A299A0895CF9243
:1014D000DF92EF92FF920F931F93CF93DF936C01F4
:1014E0007A018B01C0E0D0E0CE15DF0589F0D8018C
:1014F0006D918D01D601ED91FC910190F081E02D6F
:10150000C6010995892B11F47E0102C02196ECCF0A
:10151000C701DF91CF911F910F91FF90EF90DF9066
:10152000CF900895FC01918D828D981761F0828D86
:10153000DF01A80FB11D5D968C91928D9F5F9F7307
:10154000928F90E008958FEF9FEF0895FC01918DA9
:10155000828D981731F0828DE80FF11D858D90E016
:1015600008958FEF9FEF0895FC01918D228D892FB3
:1015700090E0805C9F4F821B91098F73992708959B
:1015800089E392E00E94B40A21E0892B09F420E06B
:10159000822F0895FC01848DDF01A80FB11DA35A8D
:1015A000BF4F2C91848D90E001968F739927848F83
:1015B000A689B7892C93A089B1898C9180648C937A
:1015C000938D848D981306C00288F389E02D808165
:1015D0008F7D80830895EF92FF920F931F93CF9397
:1015E000DF93EC0181E0888F9B8D8C8D981305C073
:1015F000E889F989808185FD24C0F62E0B8D10E0E5
:101600000F5F1F4F0F731127E02E8C8DE8120CC057
:101610000FB607FCFACFE889F989808185FFF5CFFD
:10162000CE010E94CA0AF1CF8B8DFE01E80FF11D99
:10163000E35AFF4FF0820B8FEA89FB898081806239
:1016400007C0EE89FF896083E889F9898081806419
:10165000808381E090E0DF91CF911F910F91FF9007
:10166000EF900895CF93DF93EC01888D8823C9F024
:10167000EA89FB89808185FD05C0A889B9898C919B
:1016800086FD0FC00FB607FCF5CF808185FFF2CF36
:10169000A889B9898C9185FFEDCFCE010E94CA0A35
:1016A000E7CFDF91CF91089580E090E0892B29F07A
:1016B0000E94C00A81110C94000008953FB7F8946D
:1016C0008091B4039091B503A091B603B091B70394
:1016D00026B5A89B05C02F3F19F00196A11DB11D8D
:1016E0003FBFBA2FA92F982F8827820F911DA11DC8
:1016F000B11DBC01CD0142E0660F771F881F991F05
:101700004A95D1F70895089585ED8093BC008091A6
:10171000BC0084FDFCCF10920E0208950895E09164
:101720000C0280910B02E81730F4F0E0E551FE4F17
:10173000808190E008958FEF9FEF089590910C02C3
:1017400080910B02981750F4E92FF0E0E551FE4F1D
:10175000208130E09F5F90930C0202C02FEF3FEF9B
:10176000C90108950E949F11E6E2F3E090913602CC
:10177000918382836683258347708481807E482B92
:101780004483CF010895FC018091360281839481C6
:10179000907F916094838091350280FF03C0CF01D8
:1017A0000C94310280E00895CF93DF93262F8F3F72
:1017B00011F0EA0102C0C0EAD1E040E0682F80E009
:1017C0000E94B40BBE010E94C408DF91CF910C941B
:1017D00031021F920F920FB60F9211242F933F9355
:1017E0004F935F936F937F938F939F93AF93BF9329
:1017F000EF93FF9389E392E00E94CA0AFF91EF9171
:10180000BF91AF919F918F917F916F915F914F9118
:101810003F912F910F900FBE0F901F9018951F9220
:101820000F920FB60F9211242F938F939F93EF93E4
:10183000FF93E0914902F0914A028081E0914F02CA
:10184000F091500282FD12C09081809152028F5F10
:101850008F7320915302821751F0E0915202F0E011
:10186000E75CFD4F958F8093520201C08081FF910C
:10187000EF919F918F912F910F900FBE0F901F901E
:101880001895833081F028F4813099F08230A1F0EE
:1018900008958730A9F08830B9F08430D1F4809170
:1018A00080008F7D03C0809180008F7780938000BF
:1018B000089584B58F7702C084B58F7D84BD089567
:1018C0008091B0008F7703C08091B0008F7D8093AE
:1018D000B00008951F93CF93DF93282F30E0F901D4
:1018E000E255FF4F8491F901E656FF4FD491F9017B
:1018F000EA57FF4FC491CC23C9F0162F81110E94E3
:10190000410CEC2FF0E0EE0FFF1FE458FF4FA591C4
:10191000B4918FB7F894111105C09C91ED2FE0950B
:10192000E92302C0EC91ED2BEC938FBFDF91CF91B7
:101930001F910895CF93DF9390E0FC01E656FF4F8F
:101940002491FC01EA57FF4F8491882361F190E0D4
:10195000880F991FFC01EE58FF4FC591D491FC01EF
:10196000E458FF4FA591B491611109C09FB7F89455
:101970008881209582238883EC912E230BC06230CE
:1019800061F49FB7F8943881822F809583238883F0
:10199000EC912E2B2C939FBF06C08FB7F894E88153
:1019A0002E2B28838FBFDF91CF9108951F93CF9364
:1019B000DF93182FEB0161E00E949A0C209711F43D
:1019C00060E004C0CF3FD10539F461E0812FDF91A1
:1019D000CF911F910C946A0CE12FF0E0E255FF4F7C
:1019E000E491E330F9F048F4E130B9F0E230A1F5E8
:1019F00084B5806284BDC8BD34C0E730E9F0E8300A
:101A000019F1E43049F58091800080628093800074
:101A1000D0938B00C0938A0024C084B5806884BDB5
:101A2000C7BD1FC080918000806880938000D093E4
:101A30008900C093880015C08091B00080688093B1
:101A4000B000C093B3000DC08091B000806280935D
:101A5000B000C093B40005C0C038D1050CF0B5CFBC
:101A6000AFCFDF91CF911F9108958F929F92AF9248
:101A7000BF92CF92DF92EF92FF926B017C010E94A6
:101A80005E0B4B015C01C114D104E104F104F1F0DF
:101A90000E945E0BDC01CB0188199909AA09BB09D8
:101AA000883E9340A105B10570F321E0C21AD10828
:101AB000E108F10888EE880E83E0981EA11CB11C95
:101AC000C114D104E104F10419F7DDCFFF90EF90C8
:101AD000DF90CF90BF90AF909F908F9008952FB7D9
:101AE000F8946091B0037091B1038091B20390912A
:101AF000B3032FBF0895CF92DF92EF92FF92CF935F
:101B0000DF93D82F0E946F0D6B017C0181E0D11112
:101B100080E080934C03C0E00E946F0DAB01BC01DC
:101B20004C195D096E097F09403D574061057105FB
:101B300080F4C1110EC0A8950E94380290914B0309
:101B40009770933049F7C1E080914C038D13E3CF38
:101B5000E3CF8C2FDF91CF91FF90EF90DF90CF906C
:101B600008951F920F920FB60F9211242F933F9357
:101B70008F939F93AF93BF938091B0039091B103E4
:101B8000A091B203B091B3033091AF0323E0230FD0
:101B90002D3720F40196A11DB11D05C026E8230FA5
:101BA0000296A11DB11D2093AF038093B0039093C3
:101BB000B103A093B203B093B3038091B4039091A7
:101BC000B503A091B603B091B7030196A11DB11D55
:101BD0008093B4039093B503A093B603B093B70377
:101BE000BF91AF919F918F913F912F910F900FBE19
:101BF0000F901F9018951F920F920FB60F921124FD
:101C00002F933F934F935F936F937F938F939F9304
:101C1000AF93BF93EF93FF93E0912401F0912501DF
:101C20000995FF91EF91BF91AF919F918F917F9116
:101C30006F915F914F913F912F910F900FBE0F9039
:101C40001F9018951F920F920FB60F9211242F9389
:101C50003F934F935F936F937F938F939F93AF9334
:101C6000BF93EF93FF93E0912201F0912301099537
:101C7000FF91EF91BF91AF919F918F917F916F9164
:101C80005F914F913F912F910F900FBE0F901F903A
:101C900018951F920F920FB60F9211242F933F9316
:101CA0004F935F936F937F938F939F93AF93BF9364
:101CB000EF93FF938091B900887F803609F49CC030
:101CC00068F5883209F45BC090F4803109F454C09F
:101CD00038F4882309F4F6C0883009F44DC0F6C002
:101CE000883109F44CC0803209F45DC0EFC0803403
:101CF00009F468C048F4803309F455C0883309F00A
:101D0000E5C080930D02D8C0803509F44FC08835F6
:101D100009F45DC0883409F0D9C0D6C0883909F407
:101D2000C7C0A8F4883709F467C038F4883609F4C6
:101D300063C0803709F460C0C9C0883809F4B8C0EE
:101D4000803909F45FC0803809F0C0C05BC0803BB7
:101D500009F486C038F4803A09F466C0883A09F478
:101D60007FC0B4C0803C09F4A7C0883C09F4A4C07B
:101D7000883B09F48AC0AAC08091330210C09091B8
:101D8000320280913102981770F5E091320281E0C1
:101D90008E0F80933202F0E0EF5EFD4F80818093E2
:101DA000BB0085EC86C080930D028EC0E0913202AC
:101DB00081E08E0F809332028091BB00F0E0EF5EF5
:101DC000FD4F808390913202809131026EC0E0918C
:101DD000320281E08E0F809332028091BB00F0E0EE
:101DE000EF5EFD4F80838091100281116DC081E014
:101DF00080930F0284EA61C083E080930E02109208
:101E0000AE03CFCF8091AE03803208F051C0E09195
:101E1000AE0381E08E0F8093AE038091BB00F0E0B3
:101E2000E257FC4F8083BDCF85EC8093BC001092BD
:101E30000E028091AE03803230F4E091AE03F0E008
:101E4000E257FC4F10826091AE0370E0E0918C038A
:101E5000F0918D038EE893E009951092AE0336C0A1
:101E600084E080930E0210928B0310928A03E0911B
:101E70008803F0918903099580918A03811105C037
:101E800081E080938A0310926803E0918B0381E0E4
:101E90008E0F80938B03F0E0E859FC4F8081809394
:101EA000BB0090918B0380918A03981708F479CF37
:101EB00085E88093BC000AC085EC8093BC0010923A
:101EC0000E0204C010920D020E94840BFF91EF914C
:101ED000BF91AF919F918F917F916F915F914F9142
:101EE0003F912F910F900FBE0F901F90189540912A
:101EF0008A03262F30E0240F311D21323105DCF416
:101F000020910E022430C9F4FC0180E090E0861795
:101F100058F430918A032191DC01A859BC4FA30FDA
:101F2000B11D2C930196F3CF80918A03680F6093C3
:101F30008A0380E0089581E0089582E0089578940E
:101F400084B5826084BD84B5816084BD85B58260BE
:101F500085BD85B5816085BD80916E00816080936F
:101F60006E001092810080918100826080938100D8
:101F700080918100816080938100809180008160E8
:101F8000809380008091B10084608093B100809143
:101F9000B00081608093B00080917A00846080936B
:101FA0007A0080917A00826080937A0080917A0032
:101FB000816080937A0080917A00806880937A00B3
:101FC0001092C100A89580E090E0892B11F00E944A
:101FD0000000E0914902F0914A0282E08083E091A2
:101FE0004502F09146021082E0914702F0914802CA
:101FF00080E1808310925102E0914D02F0914E02F7
:1020000086E08083E0914B02F0914C0280818061F8
:102010008083E0914B02F0914C0280818860808344
:10202000E0914B02F0914C02808180688083E091C6
:102030004B02F0914C0280818F7D8083809135022C
:102040008D7F8093350280E090E0892B11F00E9413
:10205000000041E050E063E071E084E392E00E9420
:10206000A3126FEF81E090E00E94C3128091B20151
:102070008F788093B2011092A8011092A7018DE190
:1020800091E00E94220487E699E09093B501809345
:10209000B4010E946F0D0E946F0D0E943802A89536
:1020A0008091B10182FFF7CF0E94EC07A895A89517
:1020B0000E9438020E943A070E94540BF8CFCF9337
:1020C000DF93FC0110821182128214821582168223
:1020D000DC0117968AE1ED0119928A95E9F782E011
:1020E0008383DF91CF910895CF93DF93E9E3F2E00B
:1020F0001382128288EE93E0A0E0B0E0848395839F
:10210000A683B7832EE231E03183208325EC30E0D3
:102110003587248724EC30E03787268720EC30E0B1
:10212000318B208B21EC30E0338B228B22EC30E0A2
:10213000358B248B26EC30E0378B268B118E128E5C
:10214000138E148EE6EDF2E013821282848395835F
:10215000A683B7838EE391E09183808387E493E045
:102160000E945F1086E293E00E945F1089ED93E089
:102170000E945F10E9EDF3E0D1E0D683C2E0C583B1
:1021800085E093E00E945F10E5E0F3E0C68380E124
:10219000858384EE92E00E945F10E4EEF2E0C3E0FB
:1021A000C68385E2858388EB93E00E945F10E8EBAD
:1021B000F3E0D683C58383E290E09093E3028093BB
:1021C000E202DF91CF910895AA1BBB1B51E107C02A
:1021D000AA1FBB1FA617B70710F0A61BB70B881FB7
:1021E000991F5A95A9F780959095BC01CD01089546
:1021F000EE0FFF1F0590F491E02D09940E9412113B
:102200000C9469120E94621258F00E945B1240F016
:1022100029F45F3F29F00C94521251110C949D1235
:102220000C9458120E947A1268F39923B1F3552343
:1022300091F3951B550BBB27AA27621773078407D9
:1022400038F09F5F5F4F220F331F441FAA1FA9F36F
:1022500035D00E2E3AF0E0E832D091505040E6955D
:10226000001CCAF72BD0FE2F29D0660F771F881FBE
:10227000BB1F261737074807AB07B0E809F0BB0BB1
:10228000802DBF01FF2793585F4F3AF09E3F5105C5
:1022900078F00C9452120C949D125F3FE4F3983E38
:1022A000D4F3869577956795B795F7959F5FC9F7AE
:1022B000880F911D9695879597F90895E1E0660F2F
:1022C000771F881FBB1F621773078407BA0720F0A8
:1022D000621B730B840BBA0BEE1F88F7E095089511
:1022E0000E94821288F09F5798F0B92F9927B75112
:1022F000B0F0E1F0660F771F881F991F1AF0BA95AA
:10230000C9F714C0B13091F00E949C12B1E0089559
:102310000C949C12672F782F8827B85F39F0B93F4B
:10232000CCF3869577956795B395D9F73EF490955C
:102330008095709561957F4F8F4F9F4F089581E0F5
:1023400090E0F8940C942513FB01DC0141505040BF
:1023500048F001900D920020C9F701C01D92415034
:102360005040E0F70895FC0188279927E8942191CF
:102370002032E9F3293010F02E30C8F32B3241F02F
:102380002D3239F4689404C00E940D12820F911D01
:10239000219120532A30C0F31EF4909581959F4FD0
:1023A00008951F93FC0199278827BC01E894119197
:1023B0001032E9F3193010F01E30C8F31B3251F01F
:1023C0001D3249F4689406C00E94F811610F711D16
:1023D000811D911D119110531A30B0F33EF4909568
:1023E0008095709561957F4F8F4F9F4F1F910895F6
:1023F000592F482F372F262F660F771F881F991FB9
:10240000660F771F881F991F620F731F841F951F08
:10241000660F771F881F991F08957AE0979F902D68
:10242000879F802D910D11240895E89409C097FB92
:102430003EF490958095709561957F4F8F4F9F4F9B
:102440009923A9F0F92F96E9BB279395F6958795DF
:1024500077956795B795F111F8CFFAF4BB0F11F4A2
:1024600060FF1BC06F5F7F4F8F4F9F4F16C0882349
:1024700011F096E911C0772321F09EE8872F762F7F
:1024800005C0662371F096E8862F70E060E02AF0C0
:102490009A95660F771F881FDAF7880F96958795AC
:1024A00097F9089597F99F6780E870E060E00895D4
:1024B0009FEF80EC089500240A941616170618065C
:1024C0000906089500240A94121613061406050638
:1024D0000895092E0394000C11F4882352F0BB0FC9
:1024E00040F4BF2B11F460FF04C06F5F7F4F8F4F2C
:1024F0009F4F089557FD9058440F551F59F05F3F67
:1025000071F04795880F97FB991F61F09F3F79F015
:1025100087950895121613061406551FF2CF469597
:10252000F1DF08C0161617061806991FF1CF869519
:102530007105610508940895E894BB2766277727FD
:10254000CB0197F90895DC01CB01FC01F999FECF8D
:1025500006C0F2BDE1BDF89A319600B40D9241502B
:102560005040B8F70895DC01A40FB51F415050400A
:1025700048F0CB01840F951F2E910E94C412415048
:102580005040D0F70895262FF999FECF92BD81BD16
:10259000F89A019700B4021639F01FBA20BD0FB6A1
:1025A000F894FA9AF99A0FBE0895052E97FB1EF437
:1025B00000940E94EC1257FD07D00E94F41207FC11
:1025C00003D04EF40C94EC12509540953095219523
:1025D0003F4F4F4F5F4F089590958095709561954F
:1025E0007F4F8F4F9F4F0895A1E21A2EAA1BBB1B4E
:1025F000FD010DC0AA1FBB1FEE1FFF1FA217B307CF
:10260000E407F50720F0A21BB30BE40BF50B661FE4
:10261000771F881F991F1A9469F7609570958095A8
:1026200090959B01AC01BD01CF010895A29FB0011F
:10263000B39FC001A39F700D811D1124911DB29FF6
:0E264000700D811D1124911D0895F894FFCF97
:10264E00FFFFFF00FCE1A8A89E004E04FA01AE04B5
:10265E00DF0178048C006E041302D804FFFE000A1A
:10266E000501830B830B0100000000000000EB0A44
:10267E00670AB40A920AA60A320B00000000060688
:10268E00D605CE059E0B8F0B8E0B4E6F646520729A
:10269E00656164792E000D0A0044696D6D61626C8E
:1026AE0065204C6967687400302E3134004C6967C0
:1026BE00687420696E74656E73697479004D6F74F9
:1026CE00696F6E20616374697669747900496C6C08
:1026DE00756D696E6174696F6E206C6576656C00E0
:0626EE00322E312E3100F6
:1078000011E0A0E0B1E0E4EFFFE702C005900D92C7
:10781000A630B107D9F721E0A6E0B1E001C01D9282
:10782000AE34B207E1F7CDB7DEB76197DEBFCDBFAB
:10783000112484B78093270114BE88E180936000EF
:1078400089E280936000259A86E020E295B1922734
:1078500095B93FEF40E792E0315040409040E1F76A
:1078600000C00000815091F78091270181FD11C077
:107870008EE284B981E58CBD812C912C55245394E2
:1078800011E0CC24CA94DC2CAA24A39472E0B72E75
:10789000FDC082E08093C00088E18093C10086E053
:1078A0008093C20080E18093C400E12CF12CC12CB4
:1078B000D12CAA24AA94BA2C01E0A8950BD3813428
:1078C00071F408D3898B12D38989823811F482E04C
:1078D00053C0813811F485E64FC083E04DC0823437
:1078E00011F484E103C0853419F485E00BD363C03F
:1078F000853541F4EFD2E82EEDD2F12CF82AEE0CCA
:10790000FF1C58C0863521F484E0FCD280E034C0EE
:107910008436E1F4DFD2DED2882EDCD2C80CD11C52
:10792000912C981480F4D6D2182FD4D2F701E90DF7
:10793000F11D212F30E0382B090107BFE8951124F4
:1079400093949394EECFC7018CD134C0843761F403
:10795000C1D2C0D2182FBED2C9D2F70185917F0102
:10796000B2D21150D1F728C0853741F4BFD28EE191
:10797000AAD285E9A8D28FE0A6D21DC08135D1F464
:10798000BA82A982BC82AB82C60134E09695879503
:107990003A95E1F79E838D83C60175D198878F83D1
:1079A00048E050E06BE171E0CE01019602D39ED237
:1079B00011E002C09BD210E080E185D2112309F4CE
:1079C0007CCF56CF43E050E060E070E089E291E088
:1079D000E0D248E050E06BE171E0CE010196D9D2EF
:1079E00029982A9A63E083E29AD16CE485E297D1E0
:1079F00067E286E294D163E780E591D164E08DE3AC
:107A00008ED161E082E28BD161E081E288D161E0D8
:107A10008CE385D121E041E060E070E086E058D160
:107A2000873209F008C180912A01809328011092C1
:107A30004D018FEF80932A0180932B0103E22AE00E
:107A400047E06FEF66D260E084E269D160E08EEFDC
:107A500083D180912A018F3F09F4EDC080912901E3
:107A600081508E3F08F46CC003E222E043E06FEFE8
:107A700080E04FD263E084E06FD1882379F383E321
:107A800091E055D2682F80E090E0A2D2F999FECF24
:107A900099CF46E050E063E371E08DE091E064D27D
:107AA000892B79F5C3018150904F082F02950077FB
:107AB00040E050E0602F70E0DA01A45DBE4FFA01B3
:107AC000E60FF71F1E962C911E9730E0322F2227CB
:107AD0001D96AC912A2B090157BEE89511244E5FE3
:107AE0005F4F4031510541F7011106C044E0880F56
:107AF000991F4A95E1F7B5D0E114F10409F482C069
:107B0000370189859A8590930E0180930D018B85AD
:107B10009C859093100180930F01730121E0E21A7C
:107B2000F108F0921201E092110104EC22E342E02C
:107B30006FEF80E0EED168E083E00ED18111A9CF34
:107B40006FE584E2ECD010930D0110920E0103EC6E
:107B500022E14FE06FEF80E0DCD160E08FE0FCD00D
:107B60008D819E8124E0880F991F2A95E1F78BD0A3
:107B700098878F8388E0FE013196ADE0B1E00190F7
:107B80000D928A95E1F7B0921601A092150104ECCE
:107B900022E540E06FEF80E0BCD163E081E0DCD023
:107BA000882309F448C088E0E3E3F1E0DE01199698
:107BB00001900D928A95E1F748E050E0BE01675FC1
:107BC0007F4FCE010196D0D1892BA9F18091370149
:107BD000909138018038974070F588E0FE01399621
:107BE000DE01119601900D928A95E1F7D886CF8239
:107BF00048E050E06BE171E0CE010196DAD16D848E
:107C00007E847FCF8D859E8534E0880F991F3A95BD
:107C1000E1F739D02F8538898217930721F01E8626
:107C20001D86188A1F8648E050E06BE171E0CE01A6
:107C30000996BFD12BCF8D819E8124E0880F991F9B
:107C40002A95E1F720D02F8138858217930709F014
:107C50001DCF1CBCA89580912701282EF401099501
:107C600015CF23E0FC0127BFE89507B600FCFDCF48
:107C700025E0FC0127BFE89507B600FCFDCF81E1B8
:107C800087BFE8950895AC01413088E7580710F0A8
:107C900040E058E7E0E0F0E08FEF9FEF411551053D
:107CA000B1F02591822768E0DC01B695A7959C018B
:107CB000217033273195219531092170307AC9011E
:107CC0008A279B27615081F741505109E7CF0895DA
:107CD0002A988EBD0DB407FEFDCF8EB59FEF4150A3
:107CE000D0F0222369F09EBD0DB407FEFDCF8EB506
:107CF00061157105A1F3DB018C936F5F7F4FEFCFAF
:107D0000FB013196DB018C918EBD0DB407FEFDCFDA
:107D10008EB5BF01E4CF2A9A089520E0D9CFCF9342
:107D2000DF931F92CDB7DEB7698320E041E0BE014B
:107D30006F5F7F4FCDDF0F90DF91CF91089540E0CF
:107D400060E070E082EEE9DF40E060E070E081EE4C
:107D5000E4DF60E787E2E3CFEF92FF920F931F9398
:107D6000CF93DF93F82ED62FEE24EA94A895C091F6
:107D70000901C695C695C695C95F10912A01299833
:107D80006EE080E2CCDFDBDF1093000145E060E0D5
:107D900071E08AE2C2DF45E060E071E080E3BDDFD0
:107DA0004C2F66E071E080EAB8DF299A2A98EEBC91
:107DB0000DB407FEFDCFCEB52A9A8C2F8073B1F398
:107DC000299860E387E2ABDFC4FF05C040E060E0D4
:107DD00070E081EEA2DF6FE080E2A1DF6091290117
:107DE0008AE29DDFACDF299A0FEF1FEFA89521E013
:107DF00041E060E070E087E16BDF80FF02C04FEFA1
:107E000044C021E041E060E070E080E661DF813263
:107E100030F040E060E070E082EE7FDF80E021E063
:107E2000482F6CE271E081E653DF89DF90912E01EB
:107E3000809129019813E3CF409131018091300165
:107E40008770833011F5483001F580912D015091F4
:107E50002801851303C091E090934D019091330167
:107E6000692F70E020912B0130E021503109621719
:107E7000730724F420914D01222311F0851305C0CE
:107E80009F5F90932B0180932A0191E04F1190E026
:107E900085EA8A95F1F700000150110921F4892F34
:107EA000D11105C009C0992309F4A0CF04C0D15055
:107EB000992309F45BCF81E0DF91CF911F910F915E
:107EC000FF90EF9008959091C00095FFFCCF8093B4
:107ED000C60008958091C00087FFFCCF8091C0004C
:107EE00084FD01C0A8958091C6000895F3DF80321B
:107EF00039F088E18093600088E080936000FFCFD4
:107F000084E1E1CFCF93C82FE5DFC150E9F7CF91EE
:107F1000EDCF0F9390912901E6E0F1E091839083FA
:107F2000828366834583048323830F910895FC0134
:107F300088279927E89421912032E9F3293010F01D
:107F40002E30C8F32B3239F02D3231F4689403C04F
:107F500018D0820F911D219120532A30C8F31EF4AE
:107F6000909581959F4F0895FB01DC0104C08D9190
:107F70000190801921F441505040C8F7881B990B9B
:107F800008957AE0979F902D879F802D910D112461
:107F90000895DC01CB01FC01F999FECF06C0F2BDCA
:107FA000E1BDF89A319600B40D9241505040B8F7B7
:107FB0000895DC01A40FB51F4150504040F0CB01A3
:107FC000840F951F2E9105D041505040D8F7089549
:107FD000262FF999FECF92BD81BDF89A019700B482
:107FE000021639F01FBA20BD0FB6F894FA9AF99A22
:047FF0000FBE089523
:067FF40000FCE1A8A8005A
:040000030000780081
:00000001FF
