:100000000C946B000C94DE0E0C94B70E0C949300C1
:100010000C9493000C9493000C9443060C9493005E
:100020000C9493000C9493000C9493000C94930004
:100030000C9493000C9493000C9493000C949300F4
:100040000C946D0E0C9493000C94E1120C94BB1262
:100050000C9493000C9493000C9493000C949300D4
:100060000C94050F0C949300CC0724082408DF0798
:10007000090811081A081D082008000000002300C4
:100080002600290000000000240027002A000000AC
:100090000000250028002B000404040404040404C8
:1000A0000202020202020303030303030102040823
:1000B00010204080010204081020010204081020D2
:1000C0000000000800020100000304070000000017
:1000D00000000000A41511241FBECFEFD8E0DEBF42
:1000E000CDBF11E0A0E0B1E0E6EDF1E302C0059084
:1000F0000D92A03CB107D9F724E0A0ECB1E001C01B
:100100001D92AA3FB207E1F710E0CBE6D0E004C0B1
:100110002197FE010E945416CA36D107C9F70E94E2
:10012000AA140C94E9180C940000EFECF1E0808123
:100130008460808381818F7081830895FF920F9303
:100140001F93CF93DF9300D0CDB7DEB7F82E8B018E
:1001500081E58CBD81E08DBD60E08AE02A83498322
:100160000E943C13E3E2F0E03197F1F7FEBC00009F
:1001700049812A810DB407FEFDCFFEB4F8018FEF4F
:100180004150D0F0222361F08EBD00000DB407FE77
:10019000FDCFFEB40115110599F3F0823196F0CF31
:1001A000BF016F5F7F4F90819EBD00000DB407FEC1
:1001B000FDCFFEB4FB01E4CF61E08AE00E943C1376
:1001C00083E290E00197F1F78F2D0F900F90DF9170
:1001D000CF911F910F91FF90089520E040E060E0E3
:1001E00070E00C949E000F931F930E946614009180
:1001F000C3011091C4012091C5013091C601601B5B
:10020000710B820B930B1F910F910895CF93DF9386
:100210001F92CDB7DEB7698320E041E0BE016F5F7A
:100220007F4F0E949E000F90DF91CF9108950F9312
:100230001F93CF93DF93FC0122813091CF0130FFD8
:1002400004C02F3F09F05AC005C02F3F19F0D091CC
:10025000EE0201C0DFEF8C018091ED02F801808396
:10026000C381C2FD08C0C695C695C69580E090E0E2
:10027000892B31F409C080E090E0892B39F0C0E28D
:1002800080E090E00E940000CA3110F0C0E201C09E
:10029000C95F60E089E00E943C1383E092E001972F
:1002A000F1F76EE080E20E9406018BE891E0019791
:1002B000F1F76D2F8AE20E9406016D2F80E30E9404
:1002C000060181EE0E94ED00DF3F11F080EA01C0DF
:1002D00080EB20E04C2FB8010E949E0061E089E095
:1002E0000E943C1300E010E08FEF0E94ED00C82F49
:1002F000807331F401501109B9F702C0C0E02EC07B
:1003000060E089E00E943C1360E387E20E940601FE
:10031000C4FF03C081EE0E94ED000E94BC09C5FD30
:1003200005C0C1E0DF3F19F0C0E001C0C1E080912D
:10033000EE02D81313C0C1110CC080E090E0892BED
:1003400021F085E690E00E9400008091D001805F5E
:1003500003C08091D0018F708093D0018C2FDF91EA
:10036000CF911F910F9108958091ED028F3F11F56C
:1003700080E090E0892B21F086E090E00E94000070
:100380008091ED0280939804109299048FEF8093EE
:100390009D0483E080939C0480919B04807E836015
:1003A00080939B0460E671E087E994E00E94CE08A8
:1003B0000C941701089580E090E0892B21F084E0EF
:1003C00090E00E9400008091CF01897F816080933E
:1003D000CF018FEF8093EF028093EE029091ED02B8
:1003E000909398048093990480939D0487E0809370
:1003F0009C0480919B04807E836080939B0460E6D4
:1004000071E087E994E00E94CE080C941701CF9325
:10041000C82F8FEF8C0F8E3FD0F4C093ED02C093A6
:10042000180163E082E20E94060161E081E20E941D
:1004300006010E94BC0980E090E00E948318C81762
:1004400079F06C2F80E090E00E948B1809C080E06A
:1004500090E0892B39F08CE690E00E94000002C009
:1004600081E001C080E0CF9108958091CF018B7F22
:100470008F7E8093CF0180E090E0892B21F087E68A
:1004800090E00E94000060E089E00E943C136CE074
:1004900080E20C9406012091CF0122FD0C941701FB
:1004A00080E008954F925F926F927F928F929F9219
:1004B000AF92BF92CF92DF92EF92FF920F931F9372
:1004C000CF93DF9300D0CDB7DEB78091CF0184FB0F
:1004D000DD24D0F884FFBDC186E0582E00E010E096
:1004E00044244A9495E1C92E20E0E22E20E0F22E29
:1004F00036E1B32E43EAA42E59E1952E61E2862E11
:1005000021E041E060E070E087E10E949E0080FD14
:10051000A0C15A94552009F49CC121E041E060E05B
:1005200070E080E60E949E00813220F082EE0E9400
:10053000ED0080E021E0482F68EB74E081E60E9446
:100540009E0060E487E20E9406010115110521F07A
:1005500081E090E00E9400005091BC042091BD0415
:100560007090B9049091B8044091BA048091BB0492
:10057000382F3370323031F00115110509F28BE656
:1005800090E0B8C0352F37706091ED02461329C155
:10059000982F9770869586958695893120F4880FD7
:1005A000880F880F01C088EC892B8093BB04869547
:1005B00086958695E82FF0E0E854FB4F178253FFAD
:1005C0001BC0E8EBF4E0A7E9B4E0882D01900D92A0
:1005D0008A95E1F780919B04877F806180939B04DB
:1005E000409398047092990487E994E02A833983B0
:1005F0000E944B0239812A819091BC0494FDECC089
:10060000333009F0E9C0243039F488EB94E00E94DB
:10061000AB090E94070274CF2830D9F46090CF0153
:1006200060FE6ECF88EB94E00E94AB098F3F09F427
:1006300067CF8F5F8F3F09F463CF9091EF028917E7
:1006400008F05ECF61FC5CCF8093EF027092EE0207
:1006500057CF283191F48091ED02809398047092E5
:10066000990440929D0490929C0480919B04807E0A
:10067000836080939B0461E0E0C0293171F4809134
:10068000CF0183FF3DCF877F8093CF0188EB94E03C
:100690000E94AB098093D10133CF8091BD0420919A
:1006A000B904211196C08D3099F480E090E0892B37
:1006B00021F08AE090E00E94000098E088E10FB607
:1006C000F894A895809360000FBE90936000FFCFD0
:1006D0008B3199F488EB94E00E94AB0991E0811191
:1006E00001C090E09093EC020115110509F408CFC8
:1006F00089E090E00E94000003CF8630D1F4809121
:10070000BF04882329F061E08D3419F060E001C056
:100710006D2D6093D20183E091E069830E9483187C
:100720006981681709F4ECCE83E091E00E948B1890
:10073000E7CE833119F40E945009E2CE823109F5E7
:100740000E94F3002091ED022093980410929904E6
:1007500040929D04B0929C04A0929B0420919A0424
:100760002770206220939A0460939E0470939F04E4
:100770008093A0049093A10487E994E00E944B0227
:10078000BFCE813001F5E114F10409F4B9CE892F0F
:10079000829586958770853049F46091BF04709189
:1007A000C0048091C1049091C2040AC0811105C0A7
:1007B0008FEB94E00E94341703C060E070E0CB013F
:1007C0000E9400009DCE8A3009F49ACE8C3121F42B
:1007D00097CE8A3109F494CE88EB94E00E945210AF
:1007E0008FCE4F3F09F08CCE333071F58091CF0121
:1007F00082FF03C0273009F483CE243109F080CE74
:100800008091EE0298137CCE0E9466147370882744
:1008100099270E942C146091EE028091ED02809342
:1008200098047092990440929D04C0929C04809117
:100830009B04807E836080939B0487E994E00E9400
:1008400095070E9417015CCE8091EE02981358CE56
:10085000C3CF0F900F90DF91CF911F910F91FF9019
:10086000EF90DF90CF90BF90AF909F908F907F9050
:100870006F905F904F900895E091C101F091C20197
:100880000280F381E02D309709F0099408959C01CE
:100890004091C1015091C2019091D001421753077C
:1008A00041F0907F9093D0013093C2012093C10119
:1008B00007C081E0890F8F70907F982B9093D001B3
:1008C000E091C101F091C2010190F081E02D3097DB
:1008D00009F009950E9466146093C3017093C401E6
:1008E0008093C5019093C60108950E94F300613181
:1008F00077428105910520F089E191E00C9447044D
:1009000008958091D00182958F7090E0069724F031
:1009100084E191E00C9447040895CF92DF92EF9226
:10092000FF92CF938091CF0183FD50C0C091ED0223
:10093000CC23D9F188608093CF018FEF8093D101D0
:10094000C09398041092990480939D0488E1809349
:100950009C0480919B04807E836080939B0461E073
:1009600087E994E00E9495070E9417010E9466148F
:100970006B017C011092BD04C0E00E946614DC0192
:10098000CB018C199D09AE09BF09803D9740A10597
:10099000B10510F4CC23E9F08091CF01877F8093DB
:1009A000CF01C091D101CF3F89F00E9466146093BE
:1009B000C7017093C8018093C9019093CA018091C7
:1009C000EF02C81799F0C093EF0210C084E191E0E4
:1009D0000FC00E9452028091BC048770833069F678
:1009E000C1E08091BD04893139F6C7CF80E191E043
:1009F000CF91FF90EF90DF90CF900C9447048091BF
:100A0000ED028F3F59F080E090E0892B21F087E0E4
:100A100090E00E9400008CE091E01AC00E94F30078
:100A2000613D774081059105A8F08091D0018F70DC
:100A300090E003971CF488E091E00AC080E090E029
:100A4000892B21F089E690E00E9400008DE191E081
:100A50000C94470408950E94F300613D774081059E
:100A6000910520F48091CF0181FF08958091EE02DD
:100A70008F3F81F08091CF018E7F8093CF0180E006
:100A800090E0892B21F085E090E00E94000088E052
:100A900091E01AC00E94F300613D77408105910505
:100AA000A8F08091D0018F7090E003971CF484E14E
:100AB00091E00AC080E090E0892B21F088E690E088
:100AC0000E9400008DE191E00C9447040895CF93BB
:100AD0008091CF01877F8F7E8093CF011092C701D5
:100AE0001092C8011092C9011092CA0143E050E06F
:100AF00060E070E08DEE92E00E94731861E089E0A2
:100B00000E946C1361E08AE00E946C13CFB7F894E6
:100B10008091C001811127C0E2EAF0E08491E6EB08
:100B2000F0E09491E82FF0E0EE0FFF1FEC57FF4F3D
:100B3000A591B491EC91E92321F461E08AE00E944F
:100B40003C1361E08AE00E946C138CB580618CBD1F
:100B50008CB580648CBD61E08DE00E946C1361E017
:100B60008BE00E946C138091C0018F5F8093C00165
:100B7000CFBF60E089E00E943C1361E08AE00E9400
:100B80003C136EE080E20E94060165E070E080E0C8
:100B900090E00E942C1463E083E20E9406016FE55E
:100BA00084E20E9406016CE485E20E94060167E28D
:100BB00086E20E94060163E780E50E94060166E086
:100BC0008DE30E94060121E041E060E070E086E0F4
:100BD0000E949E00C82F21E041E060E070E085E0C7
:100BE0000E949E008C3409F040C0C732F1F562E0EB
:100BF00082E20E94060160E081E20E94060163E059
:100C00008CE30E9406018FEF8093030120E045E012
:100C100063E071E08BE20E949E0020E045E063E02B
:100C200071E08AE20E949E0020E045E063E071E00E
:100C300080E30E949E0082EE0E94ED0081EE0E9401
:100C4000ED0060E787E20E9406018091CF0180619C
:100C50008093CF018091ED028F3F81F00E940702C7
:100C600081110CC08DE191E00BC080E090E0892BF8
:100C7000C9F387E690E00E940000F4CF84E191E0A0
:100C8000CF910C9447041F920F920FB60F9211242C
:100C90000F900FBE0F901F901895CF92DF92EF929A
:100CA000FF92CF93DF9381E08093170383E28093D9
:100CB00039031092180310923A03809116038111A0
:100CC000FCCF81E080931603809315039FEF9093F0
:100CD000140310921303809312038093F102809106
:100CE000F10286648093F1028091F002813061F418
:100CF0001092F0028091F1028093BB008091BC00C1
:100D000083FDF8CF85EC01C085EE8093BC00809117
:100D100016038130E1F380911303823018F480913F
:100D2000130301C082E0A2EFB2E026EE31E0F90148
:100D30009E2F921B981718F49D919193F9CF1092C2
:100D400007028093060288ED93E00E940E0AD82FD6
:100D500080E0C82F88ED93E00E940E0AC82BD92BA3
:100D600081E00E943112BE0180E090E00E9478177D
:100D70002AE939E949E95FE30E9461160E94D31626
:100D80006B017C01CB016AE070E00E94401620916B
:100D9000DF013091E001C901861B970BC816D90607
:100DA00028F0260F371F2C153D05F0F4D092E001F6
:100DB000C092DF01809117048F71806680931704C1
:100DC000809116048770806180931604D0921B0472
:100DD000C0921A0483E194E0DF91CF91FF90EF90ED
:100DE000DF90CF900C948E12DF91CF91FF90EF9017
:100DF000DF90CF900895CF93DF9361E083E00E946E
:100E00006C1361E085E00E946C1361E087E00E9452
:100E10006C1360E084E00E946C131092EA0310925D
:100E2000E9031092E4031092E5031092E603109296
:100E3000E7031092E5011092E40189E89AE09093AB
:100E4000230180932201809169008C7F81608093CF
:100E50006900E89A10920702109206021092180395
:100E600010923A0310921603C1E0C093150310923A
:100E7000F00261E082E10E943C1361E083E10E94A4
:100E80003C138091B9008E7F8093B9008091B900A6
:100E90008D7F8093B90088E48093B80085E48093C7
:100EA000BC00C093170383E28093390310921803A8
:100EB00010923A0360E188ED93E00E945A0A81E0C3
:100EC0000E9431128FE39CE90197F1F700C0000006
:100ED00089E18093E201C3E0D0E061E087E00E9415
:100EE0003C1364E670E080E090E00E942C1460E027
:100EF00087E00E943C1368EC70E080E090E00E9484
:100F00002C14219751F74BE050E062E571E08BE340
:100F100093E00E94381142E050E06EE571E08BE30F
:100F200093E0DF91CF910C943811FC01838187709D
:100F30008860838384818F71806284836783CF011B
:100F40000895FC01838187708860838384818F7119
:100F5000806284836783CF0108950F931F93CF939B
:100F6000DF934091E4035091E5036091E6037091B3
:100F7000E703411551056105710509F46DC08091C4
:100F8000E201FA01E150F448E930F10508F05CC0F3
:100F9000EC5CFF4F0C9454168091E301882359F1C7
:100FA0001092E30181E08093210160E083E00E94E0
:100FB0003C1360E085E00E943C1360E015C0909116
:100FC000E301911118C091E09093E3019093210106
:100FD000682F70E083E00E94A8136091E20170E046
:100FE00085E00E94A81361E086E794E00E94A107D3
:100FF0000E94C41005C01092210182E00E943310AB
:101000006091210185E594E00E94A1070E94C4102F
:101010001BC091E0980F943610F48E5F09C084E6EF
:1010200007C09FEF980F923010F0825001C081E00E
:1010300090E008C084E690E005C082E390E002C042
:1010400089E190E00E94EF101092E4031092E50312
:101050001092E6031092E7030E9466140091D301F8
:101060001091D4012091D5013091D601DC01CB0142
:10107000801B910BA20BB30B893E9340A105B105D8
:1010800008F43BC00E9466146093D3017093D401AE
:101090008093D5019093D60180912101882369F135
:1010A000E4ECF0E08491E0EBF0E0D491ECE9F0E0E6
:1010B000C491CC2379F081110E941313EC2FF0E03E
:1010C000EE0FFF1FE658FF4FA591B491EC91ED2371
:1010D000C1E009F4C0E0C1708091E101C81769F076
:1010E000C093E1016C2F87E00E943C136C2F84E3D6
:1010F00094E00E94A1070E948E120E946614009143
:10110000D7011091D8012091D9013091DA01DC0189
:10111000CB01801B910BA20BB30B89389341A10526
:10112000B10560F00E9466146093D7017093D801F6
:101130008093D9019093DA010E944D060E946614B3
:101140000091DB011091DC012091DD013091DE0185
:10115000DC01CB01801B910BA20BB30B81369A4EA5
:10116000A105B105B0F00E9466146093DB01709395
:10117000DC018093DD019093DE0187EE93E0909394
:10118000E0018093DF01DF91CF911F910F910C94CB
:101190004D06DF91CF911F910F9108950F931F93EB
:1011A000CF93DF93EC016115710561F0FB010190B4
:1011B0000020E9F73197E61BF70BE931F10518F04C
:1011C000E9E101C0E0E00E2F10E0C80123E0880F44
:1011D000991F2A95E1F79B819770892B8B838C81CE
:1011E0008F718C83EE2329F0A801CE0107960E940F
:1011F0000717FE01E00FF11F1782CE01DF91CF919B
:101200001F910F910895EF92FF921F93CF93DF9359
:10121000C7E9D4E08DEEE82E82E0F82EF701808158
:1012200089831A821FEF1E838BE08D838C81807EE1
:1012300083608C8361E671E0CE010E94CE080E943B
:101240004B02F701808189831A821E838CE08D8393
:101250008C81807E83608C8360E771E0CE010E9488
:10126000CE080E944B0245E751E064E081E00E9415
:101270009F1245E851E061E082E00E949F1245E93B
:1012800051E060E183E00E949F1248EA51E061E092
:1012900085E0DF91CF911F91FF90EF900C949F120A
:1012A000CF9380E090E0892B21F08BE090E00E94CA
:1012B00000008091ED028093980410929904CFEF82
:1012C000C0939D048FE080939C0480919B04807E5A
:1012D000836080939B0460E671E087E994E00E945C
:1012E000CE0880919A048770806180939A048091DF
:1012F0009B048F71806C80939B0481E080939E049B
:1013000010929F0487E994E00E944B0240E651E06E
:1013100061E18FEF0E949F126091EE028091ED02D9
:101320008093980410929904C0939D0486E0809362
:101330009C0480919B04807E836080939B0487E95A
:1013400094E00E9495070E944B0286E00E9472146E
:10135000CF910C940309FC012481229526952770D6
:10136000213011F487810895211104C007960E944D
:101370001617089580E008956FE080E20E9406014C
:10138000609118016F3F19F08AE20E94060161E046
:1013900089E00C943C13089585ED8093BC00809106
:1013A000BC0084FDFCCF1092160308954091BE024C
:1013B000262F30E0240F311D21323105DCF420913D
:1013C00016032430C9F4FC0180E090E0861758F43D
:1013D0003091BE022191DC01A456BD4FA30FB11D77
:1013E0002C930196F3CF8091BE02680F6093BE02EA
:1013F00080E0089581E0089582E008950895E091E5
:10140000070280910602E81730F4F0E0EA51FE4F3F
:10141000808190E008958FEF9FEF089590910702EB
:1014200080910602981750F4E92FF0E0EA51FE4F40
:10143000208130E09F5F9093070202C02FEF3FEFC3
:10144000C90108958091060290E020910702821B55
:1014500091090895CF92DF92EF92FF920F931F931D
:10146000CF93DF937C01262F972F8A01809117035A
:10147000882391F0C62FD72F6E01C40ED51ECC1530
:10148000DD0571F06991D701ED91FC910190F0813A
:10149000E02DC7010995F3CF642F822F0E94D60952
:1014A000C801DF91CF911F910F91FF90EF90DF90D6
:1014B000CF900895CF93DF931F92CDB7DEB76983A6
:1014C000209117032223D1F020913A03203240F0DB
:1014D00021E030E0FC013383228380E090E015C0FE
:1014E00080911803E82FF0E0E75EFC4F998190832C
:1014F0008F5F8093180380933A0305C061E0CE01AB
:1015000001960E94D60981E090E00F90DF91CF9183
:1015100008952F923F924F925F926F927F928F9297
:101520009F92AF92BF92CF92DF92EF92FF920F9372
:101530001F93CF93DF93CDB7DEB7A2970FB6F89482
:10154000DEBF0FBECDBF0E940714698B7A8B8B8BD9
:101550009C8B8091980290919902681B790B7AA3D9
:1015600069A37093970260939602693823E172072A
:1015700008F473C12090100230901102C101885C00
:1015800091098617970708F064C180579E4F681726
:10159000790708F05EC180910E0290910F020196CA
:1015A00090930F0280930E0200910C0210910D0295
:1015B00001501109029709F04CC1C1016FE170E0BF
:1015C0000E9440167E8B6D8B6B01E12CF12C4090BC
:1015D0002601509027015E864D869B01D2010E9414
:1015E0005A160E9478172AE037ED43E25CE30E9426
:1015F000B5170E94D3164B015C012D893E89A3E0EB
:10160000B0E00E94DA189B01AC01281939094A0997
:101610005B0929833A834B835C8324013501460EA1
:10162000571E681E791E4D825E826F82788621E089
:1016300030E080E090E0DC01B701A60148195909CB
:101640006A097B0949875A876B877C87C80CD91C34
:10165000EA1CFB1C2017310708F06CC0F901EE0FE3
:10166000FF1FE05FFD4F4081518160E070E04984E1
:101670005A846B847C84441655066606770610F5FA
:101680004C155D056E057F05E8F4F901EE0FFF1FAF
:10169000EE5EFD4F0190F081E02D4F01A12CB12CA9
:1016A00049805A806B807C80481459046A047B040A
:1016B00048F44D805E806F80788484149504A6047D
:1016C000B70460F169807A808B809C80641675060F
:1016D0008606970640F58D809E80AF80B8844815B9
:1016E00059056A057B05F8F4F901EE0FFF1FEE5E60
:1016F000FD4F4081518160E070E049845A846B84E1
:101700007C84441655066606770668F44C155D051C
:101710006E057F0540F40196A11DB11D880F991F2C
:10172000AA1FBB1F04C0980180E090E0DC012E5F7F
:101730003F4F90CFB695A7959795879507301105A0
:10174000D8F08093E4039093E503A093E603B0936D
:10175000E7039801369527953093E5012093E4013E
:101760006D887E8870920B0260920A0221E030E060
:101770003093090220930802892B8A2B8B2B09F0C6
:1017800064C0B3C0F901EE0FFF1FE05FFD4FC080E2
:10179000D180E12CF12C4D855E856F8578894C15C3
:1017A0005D056E057F0508F006C249805A806B8092
:1017B0007C80C414D504E604F70408F0FCC1F901E8
:1017C000EE0FFF1FEE5EFD4F4081518160E070E043
:1017D0004D805E806F8078844416550666067706D5
:1017E00008F0E9C149845A846B847C84441555050A
:1017F0006605770508F0DFC1880F991FAA1FBB1F78
:101800002E5F3F4F2017310708F4BCCF073011057A
:10181000E0F0B695A795979587958093E40390930C
:10182000E503A093E603B093E7031695079510939D
:10183000E5010093E40130920B0220920A0283E05A
:1018400090E0909309028093080210920F02109288
:101850000E0210920D0210920C0280910C029091D7
:101860000D028334910540F010920D0210920C028B
:1018700010920F0210920E0280910C0290910D02B4
:101880009C012F5F3F4F30930D0220930C02880F75
:10189000991FFC01E05FFD4FE9A0FAA0F182E08210
:1018A00049885A886B887C884092980250929902A5
:1018B00060929A0270929B02A2960FB6F894DEBFD5
:1018C0000FBECDBFDF91CF911F910F91FF90EF9091
:1018D000DF90CF90BF90AF909F908F907F906F9050
:1018E0005F904F903F902F900895C1016AE070E0A3
:1018F0000E9440167E8B6D8B6B01E12CF12C9B01BD
:10190000AD85BE850E945A160E9478172AE037EDF1
:1019100043E25CE30E94B5170E94D3164B015C01C1
:10192000B701A601440F551F661F771FDB01CA01CF
:1019300088199909AA09BB098D839E83AF83B8874B
:10194000480D591D6A1D7B1D21E030E080E090E0CC
:10195000DC0126013701481859086A087B084986C6
:101960005A866B867C863A014B016C187D088E087E
:101970009F08698E7A8E8B8E9C8E2017310708F017
:1019800073C0F901EE0FFF1FE05FFD4FC080D180F3
:10199000E12CF12C89849A84AB84BC848C149D0442
:1019A000AE04BF0438F5498C5A8C6B8C7C8CC41403
:1019B000D504E604F704F0F4F901EE0FFF1FEE5E24
:1019C000FD4FA080B1803501812C912C69827A82F3
:1019D0008B829C82540143014D805E806F807884AD
:1019E000481459046A047B0428F484169506A60654
:1019F000B70670F16D807E808F8098846C147D04B2
:101A00008E049F0450F5C416D506E606F70628F5A1
:101A1000F901EE0FFF1FEE5EFD4F0190F081E02D0A
:101A20006F01E12CF12C89849A84AB84BC848C14E2
:101A30009D04AE04BF0488F4498C5A8C6B8C7C8C5A
:101A4000C414D504E604F70440F40196A11DB11DA9
:101A5000880F991FAA1FBB1F04C0980180E090E067
:101A6000DC012E5F3F4F89CFB695A7959795879557
:101A700007301105D8F08093E4039093E503A09319
:101A8000E603B093E7039801369527953093E50177
:101A90002093E4016D887E8870920B0260920A02A6
:101AA00022E030E03093090220930802892B8A2B30
:101AB0008B2B09F0CACEC10167E470E00E9440168A
:101AC0001B019B01AD85BE850E945A160E947817A6
:101AD0002AE037ED43E25CE30E94B5170E94D3167B
:101AE0006B017C01C101A0E0B0E022E0880F991FEA
:101AF000AA1FBB1F2A95D1F74C015D018C189D08C8
:101B0000AE08BF088D869E86AF86B88AB701A6014B
:101B1000480F591F6A1F7B1F49835A836B837C833D
:101B20009101ABE0B0E00E94DA182B013C014C18A7
:101B30005D086E087F084D825E826F82788636016E
:101B40004701660E771E881E991E69867A868B86E7
:101B50009C86A9E0B0E00E94DA184B015C018C1869
:101B60009D08AE08BF088D8A9E8AAF8AB88E26016E
:101B70003701460E571E681E791E498E5A8E6B8E8F
:101B80007C8EA6E0B0E00E94DA183B014C016C1894
:101B90007D088E089F086D8E7E8E8F8E98A24601DE
:101BA0005701860E971EA81EB91E21E030E080E086
:101BB00090E0DC0127CE4D895E896F89788D4C15C8
:101BC0005D056E057F0520F5498C5A8C6B8C7C8CED
:101BD000C414D504E604F704D8F4F901EE0FFF1F8E
:101BE000EE5EFD4F4081518160E070E0CD8CDE8C77
:101BF000EF8CF8A0C416D506E606F70648F448159B
:101C000059056A057B0520F40196A11DB11DF4CD8F
:101C1000980180E090E0DC01F3CD0F931F93CF9308
:101C2000DF9300D000D0CDB7DEB7182F062F8091FC
:101C3000E301181739F1111109C060E083E00E9437
:101C40003C1360E085E00E943C131AC0262F30E070
:101C5000AFEFB0E00E94DA1824E630E040E050E058
:101C60000E949918B90183E029833A834B835C83EE
:101C70000E94A81329813A81B90185E00E94A81326
:101C80001093E3018091E2010817F1F01123D1F0E4
:101C9000202F30E0AFEFB0E00E94DA1824E630E009
:101CA00040E050E00E949918B90183E029833A830B
:101CB0004B835C830E94A81329813A81B90185E096
:101CC0000E94A8130093E2010F900F900F900F90C5
:101CD000DF91CF911F910F9108951F920F920FB630
:101CE0000F9211242F933F938F939F93AF93BF93A2
:101CF0008091E4029091E502A091E602B091E702A2
:101D00003091E30223E0230F2D3720F40196A11D2B
:101D1000B11D05C026E8230F0296A11DB11D209319
:101D2000E3028093E4029093E502A093E602B0936D
:101D3000E7028091E8029091E902A091EA02B09155
:101D4000EB020196A11DB11D8093E8029093E90278
:101D5000A093EA02B093EB02BF91AF919F918F9154
:101D60003F912F910F900FBE0F901F9018951F92CB
:101D70000F920FB60F9211242F933F934F935F93BF
:101D80006F937F938F939F93AF93BF93EF93FF9343
:101D9000E0912401F09125010995FF91EF91BF9108
:101DA000AF919F918F917F916F915F914F913F91F3
:101DB0002F910F900FBE0F901F9018951F920F92AA
:101DC0000FB60F9211242F933F934F935F936F930E
:101DD0007F938F939F93AF93BF93EF93FF93E09184
:101DE0002201F09123010995FF91EF91BF91AF91ED
:101DF0009F918F917F916F915F914F913F912F9123
:101E00000F900FBE0F901F9018951F920F920FB654
:101E10000F9211242F933F934F935F936F937F9370
:101E20008F939F93AF93BF93EF93FF938091B900EC
:101E3000887F803609F49CC068F5883209F45BC05D
:101E400090F4803109F454C038F4882309F4F6C0C2
:101E5000883009F44DC0F6C0883109F44CC0803296
:101E600009F45DC0EFC0803409F468C048F48033E1
:101E700009F455C0883309F0E5C080931403D8C035
:101E8000803509F44FC0883509F45DC0883409F005
:101E9000D9C0D6C0883909F4C7C0A8F4883709F476
:101EA00067C038F4883609F463C0803709F460C02D
:101EB000C9C0883809F4B8C0803909F45FC08038D7
:101EC00009F0C0C05BC0803B09F486C038F4803A9A
:101ED00009F466C0883A09F47FC0B4C0803C09F4B4
:101EE000A7C0883C09F4A4C0883B09F48AC0AAC0F2
:101EF0008091F10210C09091130380911203981702
:101F000070F5E091130381E08E0F80931303F0E0EE
:101F1000EE50FD4F80818093BB0085EC86C080939E
:101F200014038EC0E091130381E08E0F809313039E
:101F30008091BB00F0E0EE50FD4F80839091130341
:101F4000809112036EC0E091130381E08E0F8093A5
:101F500013038091BB00F0E0EE50FD4F8083809131
:101F6000150381116DC081E08093F00284EA61C0A5
:101F700083E0809316031092E202CFCF8091E202B9
:101F8000803208F051C0E091E20281E08E0F809330
:101F9000E2028091BB00F0E0EE53FD4F8083BDCFA5
:101FA00085EC8093BC00109216038091E20280328F
:101FB00030F4E091E202F0E0EE53FD4F10826091C8
:101FC000E20270E0E091C002F091C10282EC92E086
:101FD00009951092E20236C084E0809316031092B5
:101FE000BF021092BE02E091BC02F091BD020995C1
:101FF0008091BE02811105C081E08093BE021092E3
:102000009C02E091BF0281E08E0F8093BF02F0E05E
:10201000E456FD4F80818093BB009091BF02809178
:10202000BE02981708F479CF85E88093BC000AC0F7
:1020300085EC8093BC001092160304C01092140328
:102040000E94CC09FF91EF91BF91AF919F918F9129
:102050007F916F915F914F913F912F910F900FBEA4
:102060000F901F901895CF93DF93D82FC0E0CD1716
:10207000B1F061E087E00E943C1364E170E080E031
:1020800090E00E942C1460E087E00E943C1364E61C
:1020900070E080E090E00E942C14CF5FE8CFDF91E9
:1020A000CF910895EF92FF921F93CF93DF931F92EA
:1020B000CDB7DEB77C011091E3016091E201FC0134
:1020C0009681913019F09530B1F157C0F7018581B3
:1020D000823061F4C70169830E94AB0991E0698194
:1020E000811101C090E0892F0E940D0EF7018581BA
:1020F000833009F042C09481929596959770923002
:1021000011F4878108C0911105C0C70107960E948C
:10211000161701C080E0682F853620F082E00E940B
:10212000331061E0812F0F90DF91CF911F91FF90CD
:10213000EF900C940D0EF70185818F30F1F4C701FB
:102140000E94AB0991E0811101C090E090932101C0
:10215000911113C01092E10160E087E00E943C13EE
:1021600060E084E394E00E94A1070F90DF91CF919B
:102170001F91FF90EF900C948E120F90DF91CF91F2
:102180001F91FF90EF900895CF92DF92EF92FF9210
:10219000CF93DF93EC01CE010E948E12811117C004
:1021A0000E9466146B017C010E946614AB01BC01A5
:1021B0004C195D096E097F094436510561057105A9
:1021C00050F7A8950E943C040E945202EDCF81E096
:1021D000DF91CF91FF90EF90DF90CF900895CF9354
:1021E000DF93EC018091E20190E0C817D907E9F193
:1021F0008091E301882341F0BE0183E00E94A8138F
:10220000BE0185E00E94A813209789F460E083E076
:102210000E943C1360E085E00E943C131092E301B1
:1022200060E086E794E00E94A1070E94C4108091BC
:10223000F6038F7180648093F6038091F5038770B5
:1022400080618093F503D093FA03C093F90382EF82
:1022500093E00E94C410882319F0C093E20105C0E6
:1022600083E0DF91CF910C943310DF91CF910895EB
:10227000CF92DF92EF92FF920F931F93CF93DF9352
:102280006C017A018B01C0E0D0E0CE15DF0589F04A
:10229000D8016D918D01D601ED91FC910190F081F5
:1022A000E02DC6010995892B11F47E0102C021960B
:1022B000ECCFC701DF91CF911F910F91FF90EF906D
:1022C000DF90CF900895FC01918D828D981761F079
:1022D000828DDF01A80FB11D5D968C91928D9F5F5D
:1022E0009F73928F90E008958FEF9FEF0895FC0108
:1022F000918D828D981731F0828DE80FF11D858DBB
:1023000090E008958FEF9FEF0895FC01918D228D4D
:10231000892F90E0805C9F4F821B91098F739927D2
:1023200008958BE393E00E94851121E0892B09F445
:1023300020E0822F0895FC01848DDF01A80FB11DDC
:10234000A35ABF4F2C91848D90E001968F739927EB
:10235000848FA689B7892C93A089B1898C918064D8
:102360008C93938D848D981306C00288F389E02D99
:1023700080818F7D80830895EF92FF920F931F934A
:10238000CF93DF93EC0181E0888F9B8D8C8D981328
:1023900005C0E889F989808185FD24C0F62E0B8D62
:1023A00010E00F5F1F4F0F731127E02E8C8DE81286
:1023B0000CC00FB607FCFACFE889F989808185FF48
:1023C000F5CFCE010E949B11F1CF8B8DFE01E80F5E
:1023D000F11DE35AFF4FF0820B8FEA89FB89808160
:1023E000806207C0EE89FF896083E889F98980816E
:1023F0008064808381E090E0DF91CF911F910F9105
:10240000FF90EF900895CF93DF93EC01888D8823A0
:10241000C9F0EA89FB89808185FD05C0A889B98951
:102420008C9186FD0FC00FB607FCF5CF808185FF2C
:10243000F2CFA889B9898C9185FFEDCFCE010E949A
:102440009B11E7CFDF91CF91089580E090E0892B39
:1024500029F00E94911181110C94000008950E94AE
:102460000217382F20913A0390913903213208F056
:1024700049C0809116038111FCCF42E040931603BE
:10248000309315033FEF30931403109213032093FE
:102490001203A9E1B3E042EF52E0FA013E2F341BF0
:1024A000321718F43D913193F9CF1092F102209137
:1024B000F102990F922B9093F1029091F0029130DA
:1024C00061F41092F0029091F1029093BB00909110
:1024D000BC0093FDF8CF95EC01C095EE9093BC0045
:1024E000909116039230E1F3909114039F3F79F09D
:1024F00080911403803241F080911403803331F0D5
:1025000084E005C081E003C082E001C083E0109256
:10251000180310923A03109217030895FC0180915A
:10252000ED0281839481907F916094838091EC028D
:10253000882319F0CF010C944B0280E008958F3F5F
:1025400011F09A0102C024EB31E09091ED029093DA
:1025500098041092990480939D0460939C04809148
:102560009B04807E80939B04B90187E994E00E94DC
:10257000CE080C944B021F920F920FB60F921124AB
:102580002F933F934F935F936F937F938F939F937B
:10259000AF93BF93EF93FF938BE393E00E949B1164
:1025A000FF91EF91BF91AF919F918F917F916F912B
:1025B0005F914F913F912F910F900FBE0F901F9001
:1025C00018951F920F920FB60F9211242F938F938D
:1025D0009F93EF93FF93E0914B03F0914C03808125
:1025E000E0915103F091520382FD12C090818091DD
:1025F00054038F5F8F7320915503821751F0E09140
:102600005403F0E0E55CFC4F958F8093540301C0C8
:102610008081FF91EF919F918F912F910F900FBE2D
:102620000F901F901895833081F028F4813099F035
:102630008230A1F008958730A9F08830B9F0843055
:10264000D1F4809180008F7D03C0809180008F77CE
:1026500080938000089584B58F7702C084B58F7D04
:1026600084BD08958091B0008F7703C08091B00041
:102670008F7D8093B00008951F93CF93DF93282F11
:1026800030E0F901E054FF4F8491F901E455FF4F28
:10269000D491F901E856FF4FC491CC23C9F0162F0D
:1026A00081110E941313EC2FF0E0EE0FFF1FE25791
:1026B000FF4FA591B4918FB7F894111105C09C916B
:1026C000ED2FE095E92302C0EC91ED2BEC938FBF49
:1026D000DF91CF911F910895CF93DF9390E0FC019C
:1026E000E455FF4F2491FC01E856FF4F8491882365
:1026F00061F190E0880F991FFC01EC57FF4FC591E5
:10270000D491FC01E257FF4FA591B491611109C02A
:102710009FB7F8948881209582238883EC912E239B
:102720000BC0623061F49FB7F8943881822F809596
:1027300083238883EC912E2B2C939FBF06C08FB7E9
:10274000F894E8812E2B28838FBFDF91CF910895D5
:102750001F93CF93DF93182FEB0161E00E946C135E
:10276000209711F460E004C0CF3FD10539F461E057
:10277000812FDF91CF911F910C943C13E12FF0E05A
:10278000E054FF4FE491E330F9F048F4E130B9F060
:10279000E230A1F584B5806284BDC8BD34C0E730A5
:1027A000E9F0E83019F1E43049F580918000806269
:1027B00080938000D0938B00C0938A0024C084B59E
:1027C000806884BDC7BD1FC08091800080688093F1
:1027D0008000D0938900C093880015C08091B0001C
:1027E00080688093B000C093B3000DC08091B000AA
:1027F00080628093B000C093B40005C0C038D1059A
:102800000CF0B5CFAFCFDF91CF911F9108953FB7B7
:10281000F8948091E8029091E902A091EA02B091C7
:10282000EB0226B5A89B05C02F3F19F00196A11D0C
:10283000B11D3FBFBA2FA92F982F8827820F911D56
:10284000A11DB11DBC01CD0142E0660F771F881F9D
:10285000991F4A95D1F708958F929F92AF92BF9298
:10286000CF92DF92EF92FF926B017C010E940714DE
:102870004B015C01C114D104E104F104F1F00E94A8
:102880000714DC01CB0188199909AA09BB09883E04
:102890009340A105B10570F321E0C21AD108E10807
:1028A000F10888EE880E83E0981EA11CB11CC114AB
:1028B000D104E104F10419F7DDCFFF90EF90DF9030
:1028C000CF90BF90AF909F908F9008952FB7F894BE
:1028D0006091E4027091E5028091E6029091E70236
:1028E0002FBF0895CF92DF92EF92FF92CF93DF93A5
:1028F000D82F0E9466146B017C0181E0D11180E029
:102900008093BD04C0E00E946614AB01BC014C1969
:102910005D096E097F09403D57406105710590F4DE
:10292000C11110C0A8950E943C040E9452029091CF
:10293000BC049770933039F7C1E08091BD048D13CA
:10294000E1CFE1CF8C2FDF91CF91FF90EF90DF901F
:10295000CF900895789484B5826084BD84B58160F9
:1029600084BD85B5826085BD85B5816085BD80915A
:102970006E00816080936E001092810080918100D2
:1029800082608093810080918100816080938100CA
:10299000809180008160809380008091B10084608C
:1029A0008093B1008091B00081608093B0008091ED
:1029B0007A00846080937A0080917A0082608093AC
:1029C0007A0080917A00816080937A0080917A0009
:1029D000806880937A001092C10080E090E0892B9B
:1029E00011F00E940000E0914B03F0914C0382E053
:1029F0008083E0914703F09148031082E0914903FE
:102A0000F0914A0380E1808310925303E0914F03D9
:102A1000F091500386E08083E0914D03F0914E03E6
:102A2000808180618083E0914D03F0914E0380812D
:102A300088608083E0914D03F0914E03808180682F
:102A40008083E0914D03F0914E0380818F7D8083E0
:102A500080E090E0892B11F00E94000041E050E0FE
:102A600063E071E082ED91E00E94731881E090E0F4
:102A70000E9483188F3F29F06FEF81E090E00E9461
:102A80008B188DE191E09093C2018093C10189E19F
:102A900091E00E9447048091CF0182FD06C0A89575
:102AA0000E943C040E945202F6CF0E94500980E02E
:102AB00090E0892B21F088E090E00E94000081E006
:102AC0008093EC02C4E0DFEF1AE18091ED02809385
:102AD000980410929904D0939D0410939C048091C3
:102AE0009B04807E836080939B0462E087E994E08E
:102AF0000E9495070E944B028BE10E947214811183
:102B000002C0C15011F70E94FB06A8950E943C0428
:102B10000E9452020E94AD070E942512F6CFCF9369
:102B2000DF93FC01108211821282148215821682B8
:102B3000DC0117968AE1ED0119928A95E9F782E0A6
:102B40008383DF91CF910895CF93DF93EBE3F3E09D
:102B50001382128288EE93E0A0E0B0E08483958334
:102B6000A683B78326E331E03183208325EC30E070
:102B70003587248724EC30E03787268720EC30E047
:102B8000318B208B21EC30E0338B228B22EC30E038
:102B9000358B248B26EC30E0378B268B118E128EF2
:102BA000138E148EE8EDF3E01382128284839583F2
:102BB000A683B78386E491E09183808388EB94E0D9
:102BC0000E948F1587E994E00E948F1586E794E0B4
:102BD0000E948F15E6E7F4E0C1E0C683D2E0D5831A
:102BE00085E594E00E948F15E5E5F4E085E08683B5
:102BF0008FE0858384E394E00E948F15E4E3F4E0A2
:102C0000D68380E1858383E194E00E948F15E3E120
:102C1000F4E0D3E0D68385E2858389ED94E00E94D9
:102C20008F15E9EDF4E086E08683158282EF93E06C
:102C30000E948F15E2EFF3E0C683D583E9EEF3E05F
:102C40008FEF9FEF938382832EE531E035832483DA
:102C50002AE030E037832683C087918380838CE32A
:102C600090E090932701809326011092E403109244
:102C7000E5031092E6031092E703DF91CF910895E8
:102C8000AA1BBB1B51E107C0AA1FBB1FA617B70792
:102C900010F0A61BB70B881F991F5A95A9F78095AE
:102CA0009095BC01CD010895EE0FFF1F0590F491A2
:102CB000E02D09940E94DA18B7FF0895821B930B48
:102CC00008950E9475160C9439180E94321858F015
:102CD0000E942B1840F029F45F3F29F00C94221831
:102CE00051110C946D180C9428180E944A1868F31E
:102CF0009923B1F3552391F3951B550BBB27AA27B5
:102D000062177307840738F09F5F5F4F220F331FEE
:102D1000441FAA1FA9F335D00E2E3AF0E0E832D0B6
:102D200091505040E695001CCAF72BD0FE2F29D0B9
:102D3000660F771F881FBB1F261737074807AB078B
:102D4000B0E809F0BB0B802DBF01FF2793585F4F00
:102D50003AF09E3F510578F00C9422180C946D18AF
:102D60005F3FE4F3983ED4F3869577956795B795E2
:102D7000F7959F5FC9F7880F911D9695879597F9ED
:102D80000895E1E0660F771F881FBB1F6217730766
:102D90008407BA0720F0621B730B840BBA0BEE1F7B
:102DA00088F7E09508950E94521888F09F5798F090
:102DB000B92F9927B751B0F0E1F0660F771F881F40
:102DC000991F1AF0BA95C9F714C0B13091F00E945A
:102DD0006C18B1E008950C946C18672F782F882731
:102DE000B85F39F0B93FCCF3869577956795B39581
:102DF000D9F73EF490958095709561957F4F8F4FF0
:102E00009F4F089581E090E0F8940C94E918FB013D
:102E1000DC014150504048F001900D920020C9F76C
:102E200001C01D9241505040E0F70895FC018827F1
:102E30009927E89421912032E9F3293010F02E30BF
:102E4000C8F32B3241F02D3239F4689404C00E944B
:102E50007017820F911D219120532A30C0F31EF468
:102E6000909581959F4F08951F93FC01992788277E
:102E7000BC01E89411911032E9F3193010F01E30C2
:102E8000C8F31B3251F01D3249F4689406C00E9409
:102E90005B17610F711D811D911D119110531A3027
:102EA000B0F33EF490958095709561957F4F8F4F6C
:102EB0009F4F1F910895592F482F372F262F660FA8
:102EC000771F881F991F660F771F881F991F620F32
:102ED000731F841F951F660F771F881F991F089502
:102EE0007AE0979F902D879F802D910D1124089552
:102EF000E89409C097FB3EF4909580957095619594
:102F00007F4F8F4F9F4F9923A9F0F92F96E9BB2749
:102F10009395F695879577956795B795F111F8CFC5
:102F2000FAF4BB0F11F460FF1BC06F5F7F4F8F4F30
:102F30009F4F16C0882311F096E911C0772321F026
:102F40009EE8872F762F05C0662371F096E8862FBE
:102F500070E060E02AF09A95660F771F881FDAF715
:102F6000880F9695879597F908950E94C8170C9435
:102F700039180E942B1838F00E94321820F095233F
:102F800011F00C9422180C94281811240C946D182C
:102F90000E944A1870F3959FC1F3950F50E0551F9A
:102FA000629FF001729FBB27F00DB11D639FAA279E
:102FB000F00DB11DAA1F649F6627B00DA11D661FED
:102FC000829F2227B00DA11D621F739FB00DA11D0E
:102FD000621F839FA00D611D221F749F3327A00DC8
:102FE000611D231F849F600D211D822F762F6A2F64
:102FF00011249F5750409AF0F1F088234AF0EE0FC9
:10300000FF1FBB1F661F771F881F91505040A9F7F5
:103010009E3F510580F00C9422180C946D185F3F70
:10302000E4F3983ED4F3869577956795B795F79531
:10303000E7959F5FC1F7FE2B880F911D96958795A9
:1030400097F9089597F99F6780E870E060E0089528
:103050009FEF80EC089500240A94161617061806B0
:103060000906089500240A9412161306140605068C
:103070000895092E0394000C11F4882352F0BB0F1D
:1030800040F4BF2B11F460FF04C06F5F7F4F8F4F80
:103090009F4F089557FD9058440F551F59F05F3FBB
:1030A00071F04795880F97FB991F61F09F3F79F06A
:1030B00087950895121613061406551FF2CF4695EC
:1030C000F1DF08C0161617061806991FF1CF86956E
:1030D0007105610508940895E894BB276627772752
:1030E000CB0197F90895DC01CB01FC01F999FECFE2
:1030F00006C0F2BDE1BDF89A319600B40D92415080
:103100005040B8F70895F999FECF92BD81BDF89A65
:10311000992780B50895262FF999FECF1FBA92BD41
:1031200081BD20BD0FB6F894FA9AF99A0FBE0196A8
:103130000895052E97FB1EF400940E94B01857FDC9
:1031400007D00E94B81807FC03D04EF40C94B018B6
:1031500050954095309521953F4F4F4F5F4F0895C3
:1031600090958095709561957F4F8F4F9F4F0895F3
:10317000A1E21A2EAA1BBB1BFD010DC0AA1FBB1F7B
:10318000EE1FFF1FA217B307E407F50720F0A21BED
:10319000B30BE40BF50B661F771F881F991F1A945A
:1031A00069F760957095809590959B01AC01BD0184
:1031B000CF010895A29FB001B39FC001A39F700DDE
:1031C000811D1124911DB29F700D811D1124911D2F
:0631D0000895F894FFCF02
:1031D600FFFFFF00FCE1A8A8B401FF048D04000076
:1031E60095008104DB012B05FF670500003502759C
:1031F6000401CB09CB093C000000FA048000010061
:10320600000000000000BC11381185116311771110
:103216000312000000005A0A2A0A220A0E0AFF09AF
:10322600FE094E6F64652072656164792E000D0A91
:103236000044696D6D61626C65204C696768740055
:10324600302E3133004C6967687420696E74656E80
:1032560073697479004D6F74696F6E206163746968
:103266007669747900496C6C756D696E6174696F05
:103276006E206C6576656C004D6F766520646574AE
:1032860065637400322E302E312D62657461000044
:00000001FF
