:100000000C94B0030C94341A0C940D1A0C94D8036D
:100010000C94D8030C94D8030C947F090C94D80347
:100020000C94D8030C94D8030C94D8030C94D803E4
:100030000C94D8030C94D8030C94D8030C94D803D4
:100040000C94C3190C94D8030C9418150C94F21446
:100050000C94D8030C94D8030C94D8030C94D803B4
:100060000C94D8030C94D8032154534D3A494E496B
:10007000543A545350204641494C0A0054534D3A87
:10008000494E49543A545350204F4B0A0054534D53
:100090003A494E49540A0054534D3A465041520A87
:1000A000002154534D3A465041523A4E4F2052454A
:1000B000504C590A002154534D3A465041523A4649
:1000C00041494C0A0054534D3A465041523A4F4B25
:1000D0000A0054534D3A49443A5245510A00545388
:1000E0004D3A49440A002154534D3A49443A464155
:1000F000494C2C49443D25640A0054534D3A494427
:100100003A4F4B2C49443D25640A0054534D3A550F
:10011000504C3A4F4B0A002154534D3A55504C3AEB
:100120004641494C0A0054534D3A55504C0A00542C
:10013000534D3A52454144590A002154534D3A52C5
:10014000454144593A55504C204641494C2C534E58
:10015000500A0054534D3A4641494C5552453A5085
:1001600044540A0054534D3A4641494C5552450AAD
:100170000054534D3A4641494C5552453A52452D4B
:10018000494E49540A005453463A415349443A4F60
:100190004B2C49443D25640A00215453463A4153AF
:1001A00049443A4641494C2C49443D25640A0025BE
:1001B000735453463A4D53473A53454E442C2564A5
:1001C0002D25642D25642D25642C733D25642C6319
:1001D0003D25642C743D25642C70743D25642C6C85
:1001E0003D25642C73673D25642C66743D25642C85
:1001F00073743D25733A25730A00215453463A52CD
:100200004F5554453A256420554E4B4E4F574E0A94
:1002100000215453463A524F5554453A46504152A4
:10022000204143544956450A00215453463A534508
:100230004E443A544E520A004D434F3A5245473AC3
:100240005245510A004D434F3A42474E3A494E49B2
:1002500054204F4B2C49443D25642C5041523D25A0
:10026000642C4449533D25642C5245473D25640A7E
:10027000004D434F3A42474E3A5354500A004D43C3
:100280004F3A42474E3A4246520A004D434F3A4295
:10029000474E3A494E4954205245504541544552E3
:1002A0002C43503D524E4E52412D2D2C5645523D21
:1002B000322E302E312D626574610A00005EBCE280
:1002C000613FDD83C29C7E20A3FD1F419DC3217F32
:1002D000FCA2401E5F01E3BD3E6082DC237D9FC126
:1002E000421CFEA0E1BF5D0380DE3C62BEE0025C1A
:1002F000DF81633D7C22C09E1D43A1FF4618FAA406
:1003000027799BC584DA3866E5BB5907DB856739F1
:10031000BAE406581947A5FB7826C49A653BD987E5
:10032000045AB8E6A7F91B45C6987A24F8A6441AD9
:1003300099C7257B3A6486D85B05E7B98CD2306EC5
:10034000EDB3510F4E10F2AC2F7193CD114FADF3B1
:10035000702ECC92D38D6F31B2EC0E50AFF1134DA5
:10036000CE90722C6D33D18F0C52B0EE326C8ED099
:10037000530DEFB1F0AE4C1291CF2D73CA94762885
:10038000ABF517490856B4EA6937D58B5709EBB571
:1003900036688AD495CB2977F4AA4816E9B7550B65
:1003A00088D6346A2B7597C94A14F6A8742AC89659
:1003B000154BA9F7B6E80A54D7896B355453463A1A
:1003C0004352543A4F4B0A004D434F3A50494D3A2D
:1003D000524F555445204E3D25642C523D25640A0C
:1003E000004D434F3A50494D3A4E4F4445205245F7
:1003F000473D25640A005453463A43484B55504CF8
:100400003A4F4B2C464354524C0A005453463A4DF3
:1004100053473A52454C2050784E472C48503D2582
:10042000640A005453463A4D53473A52454C204DC6
:1004300053470A005453463A4D53473A46574420CF
:100440004243204D53470A00215453463A4D5347E7
:100450003A47574C204641494C0A005453463A4DBE
:1004600053473A47574C204F4B0A005453463A4D96
:1004700053473A46504152205245512C49443D255C
:10048000640A005453463A4D53473A42430A0054D3
:1004900053463A4D53473A41434B0A005453463A68
:1004A0004D53473A504F4E4720524543562C4850E3
:1004B0003D25640A005453463A4D53473A50494E3D
:1004C0004745442C49443D25642C48503D25640A49
:1004D000005453463A4D53473A4650415220494EF4
:1004E0004143544956450A005453463A4D53473AFE
:1004F00046504152204F4B2C49443D25642C443DED
:1005000025640A005453463A4D53473A46504152E7
:10051000205245532C49443D25642C443D25640A12
:10052000005453463A4D53473A41434B20524551AC
:100530000A00215453463A4D53473A505645522CDF
:100540002564213D25640A005453463A4D53473AE9
:10055000524541442C25642D25642D25642C733D82
:1005600025642C633D25642C743D25642C70743DFA
:1005700025642C6C3D25642C73673D25643A2573F6
:100580000A00215453463A53414E43484B3A4641A0
:10059000494C0A005453463A53414E43484B3A4F54
:1005A0004B0A0000000000240027002A0000000081
:1005B00000250028002B00000000080002010000B8
:1005C0000304070000000000000000214D434F3AE3
:1005D000534E443A4E4F4445204E4F5420524547C7
:1005E0000A0000000000230026002900040404047F
:1005F00004040404020202020202030303030303CD
:1006000001020408102040800102040810200102A9
:10061000040810205453463A50494E473A53454E29
:10062000442C544F3D25640A005453463A43484BEA
:1006300055504C3A4641494C0A005453463A4348B7
:100640004B55504C3A444757432C4F3D25642C4E54
:100650003D25640A005453463A43484B55504C3AA2
:100660004F4B0A0000407A10F35A00A0724E18094E
:100670000010A5D4E80000E87648170000E40B5409
:10068000020000CA9A3B000000E1F50500008096D8
:100690009800000040420F000000A086010000000A
:1006A000102700000000E8030000000064000000C4
:1006B00000000A00000000000100000000002C768D
:1006C000D888DC674F0823DFC1DFAE59E1B1B796A8
:1006D000E5E3E453C63AE651997696E8E6C2842605
:1006E000EB898C9B62ED407C6FFCEFBC9C9F40F2E1
:1006F000BAA56FA5F490055A2AF75C936B6CF9675D
:100700006DC11BFCE0E40D47FEF520E6B500D0ED21
:10071000902E0300943577050080841E0800002089
:100720004E0A000000C80C333333330F986E128327
:100730001141EF8D2114893BE65516CFFEE6DB18FB
:10074000D1844B381BF77C1D901DA4BBE4242032C0
:1007500084725E228100C9F124ECA1E53D27FE1CD4
:1007600011241FBECFEFD8E0DEBFCDBF11E0A0E067
:10077000B1E0E6ECFCE402C005900D92A03CB107AC
:10078000D9F724E0A0ECB1E001C01D92A532B20778
:10079000E1F713E0C0EBD3E004C02197FE010E9413
:1007A000191ECF3AD107C9F70E94DF1B0C946126AE
:1007B0000C940000FC0183818770886083838481AE
:1007C0008F71806284836783CF0108950F931F9395
:1007D000CF93DF93EC016115710561F0FB0101908E
:1007E0000020E9F73197E61BF70BE931F10518F026
:1007F000E9E101C0E0E00E2F10E0C80123E0880F1E
:10080000991F2A95E1F79B819770892B8B838C81A7
:100810008F718C83EE2329F0A801CE0107960E94E8
:10082000CA1EFE01E00FF11F1782CE01DF91CF91AA
:100830001F910F910895FF920F931F93CF93DF9312
:1008400000D0CDB7DEB7F82E8B0181E58CBD81E0FD
:100850008DBD60E08AE02A8349830E944A15E3E265
:10086000F0E03197F1F7FEBC000049812A810DB418
:1008700007FEFDCFFEB4F8018FEF4150D0F02223E8
:1008800061F08EBD00000DB407FEFDCFFEB4011572
:10089000110599F3F0823196F0CFBF016F5F7F4F62
:1008A00090819EBD00000DB407FEFDCFFEB4FB019C
:1008B000E4CF61E08AE00E944A1583E290E001976C
:1008C000F1F78F2D0F900F90DF91CF911F910F9126
:1008D000FF900895CF9321E041E060E070E086E072
:1008E0000E941B04C82F21E041E060E070E085E039
:1008F0000E941B0421E08C3409F020E081E0C73223
:1009000009F080E08223CF910895CF93DF931F9267
:10091000CDB7DEB7698320E041E0BE016F5F7F4F56
:100920000E941B040F90DF91CF9108956FE080E249
:100930000E948504609118016F3F19F08AE20E94BD
:10094000850461E089E00C944A1520E040E060E015
:1009500070E00C941B04E0917103F091720302802B
:10096000F381E02D309709F0099580917F0384FD94
:100970000C94370D08950F931F930E94B71900919F
:100980007303109174032091750330917603601BFB
:10099000710B820B930B1F910F9108959C01409155
:1009A000710350917203909180034217530741F0F5
:1009B000907F90938003309372032093710307C05C
:1009C00081E0890F8F70907F982B90938003E09146
:1009D0007103F09172030190F081E02D309709F0DE
:1009E00009950E94B7196093730370937403809301
:1009F0007503909376030895CF93DF93CDB7DEB759
:100A0000CC52D1400FB6F894DEBF0FBECDBF9E01D1
:100A10002F5C3E4FF901419151919F016CE271E0D1
:100A2000CE0101960E94B11FCE0101960E9434149E
:100A300081E092E00E945613C45DDE4F0FB6F89439
:100A4000DEBF0FBECDBFDF91CF9108959F92AF92D1
:100A5000BF92CF92DF92EF92FF920F931F93CF93AB
:100A6000DF938C01DC011296CC9180917F0380FF93
:100A70000CC0CF3F79F181E192E09F938F930E9468
:100A8000FC040F900F90D0E007C1C11103C0C091CA
:100A9000CC0120C0CF3FF1F0EC2EF12CC701039622
:100AA0000E9405268F3FA9F4F80190818091CC0126
:100AB000981781F0FF92CF938AEF91E09F938F93E5
:100AC0000E94FC04C091CC010F900F900F900F90EA
:100AD00001C0C82F8091CB01D8018C931396DC9173
:100AE000D2FD08C0D695D695D69580E090E0892BAA
:100AF00031F409C080E090E0892B39F0D0E280E049
:100B000090E00E940000DA3110F0D0E201C0D95F1D
:100B100060E089E00E944A1583E092E00197F1F7D6
:100B20006EE080E20E9485048BE891E00197F1F786
:100B30006C2F8AE20E9485046C2F80E30E9485045A
:100B400081EE0E94A504CF3F11F080EA01C080EB46
:100B500020E04D2FB8010E941B0461E089E00E9453
:100B60004A15E12CF12C8FEF0E94A504D82F807339
:100B700021F4B1E0EB1AF108B1F760E089E00E94DE
:100B80004A1560E387E20E948504D4FF03C081EE2A
:100B90000E94A5040E949604D5FBDD27D0F9C80168
:100BA0000E948413CF3F29F0D11106C066E471E0A2
:100BB00005C063E471E002C06BE471E0E091800382
:100BC0009E2E92942FE09222F801238122FBAA24E8
:100BD000A0F8522F5695569556952481B22EB29470
:100BE000B69437E0B322C580422F4770D680E280AA
:100BF000AC2FB0E0F0801181D11105C0CF3F19F0CA
:100C00002EE431E002C02CE531E09F938F937F9377
:100C10006F931F929F921F92AF921F925F931F92AA
:100C2000BF921F92CF921F924F931F92DF921F92FB
:100C3000EF92BF93AF931F92FF921F921F933F9328
:100C40002F938FEA91E09F938F930E94FC048DB7BE
:100C50009EB74E960FB6F8949EBF0FBE8DBFD111B2
:100C600004C0D1E0CF3F09F0D0E08091CC01C8139F
:100C700013C0D1110CC080E090E0892B21F085E6F3
:100C800090E00E94000080918003805F03C080910B
:100C900080038F70809380038D2FDF91CF911F9100
:100CA0000F91FF90EF90DF90CF90BF90AF909F900B
:100CB000089520917F0322FD0C94260589E292E09D
:100CC0009F938F930E94FC040F900F9080E00895F3
:100CD0000C945906CF9380E090E0892B21F08BE0B3
:100CE00090E00E9400008091CB018093220310923B
:100CF0002303CFEFC09327038FE0809326038091D7
:100D00002503807E8360809325036CE571E081E29A
:100D100093E00E94E60380912403877080618093B2
:100D20002403809125038F71806C8093250381E0DB
:100D3000809328031092290381E293E00E945906D0
:100D40004CE551E062E18FEF0E9446146091CC01C6
:100D50008091CB018093220310922303C093270339
:100D600086E08093260380912503807E83608093B4
:100D7000250381E293E00E94DA030E94680686E080
:100D80000E94BC14CF910C94CE0CCF93C82F8FEF40
:100D90008C0F8E3F38F5C093CB01C093180163E0F0
:100DA00082E20E94850461E081E20E9485040E9443
:100DB000960480E090E00E940526C81729F06C2F69
:100DC00080E090E00E940D261F92CF9386E891E08C
:100DD0009F938F930E94FC040F900F900F900F90A1
:100DE00081E015C01F92CF9389E991E09F938F9383
:100DF0000E94FC040F900F900F900F9080E090E005
:100E0000892B21F08CE690E00E94000080E0CF91D9
:100E100008950E94BB04613177428105910560F01D
:100E200081E791E09F938F930E94FC040F900F90B5
:100E300089E191E00C94CE04089584E691E09F93BB
:100E40008F930E94FC0480917F038B7F8F7E809321
:100E50007F030F900F9080E090E0892B21F087E6D0
:100E600090E00E94000083E591E09F938F930E94A1
:100E7000FC0460E089E00E944A150F900F906CE03E
:100E800080E20C9485048091800382958F7090E0BD
:100E90000B9764F08AE391E09F938F930E94FC0488
:100EA0000F900F9084E191E00C94CE0408958FE2AE
:100EB00091E09F938F930E94FC04EFE7F3E0808121
:100EC0008460808381818F7081830F900F9008955B
:100ED00086E291E09F938F930E94FC040E94261B60
:100EE0000F900F90882359F08BE091E09F938F93A0
:100EF0000E94FC040F900F9080E191E00AC087E10E
:100F000091E09F938F930E94FC040F900F9084E1D7
:100F100091E00C94CE048091CB018F3FB9F01F92E9
:100F20008F938AEF90E09F938F930E94FC040F9021
:100F30000F900F900F9080E090E0892B21F087E0D8
:100F400090E00E9400008CE091E028C00E94BB0469
:100F5000613D77408105910518F1809180038F7084
:100F600090E003971CF488E091E018C08091CB01D9
:100F70001F928F9386EE90E09F938F930E94FC04C4
:100F80000F900F900F900F9080E090E0892B21F050
:100F900089E690E00E9400008DE191E00C94CE047F
:100FA00008958EED90E09F938F930E94FC040F9024
:100FB0000F908091CB018F3F51F580E090E0892B1D
:100FC00021F086E090E00E94000082ED90E09F9387
:100FD0008F930E94FC048091CB0180932203109296
:100FE00023038FEF8093270383E080932603809170
:100FF0002503807E8360809325036CE571E081E2A8
:1010000093E00E94E6030F900F900C94260508953C
:101010000E94BB04613D77408105910520F48091D9
:101020007F0381FF08958091CC018F3FC1F085EC53
:1010300090E09F938F930E94FC0480917F038E7FAA
:1010400080937F030F900F9080E090E0892B21F038
:1010500085E090E00E94000088E091E02AC00E94B4
:10106000BB04613D77408105910528F180918003A3
:101070008F7090E003975CF481EA90E09F938F93E8
:101080000E94FC040F900F9084E191E012C085EB68
:1010900090E09F938F930E94FC040F900F9080E04C
:1010A00090E0892B21F088E690E00E9400008DE11D
:1010B00091E00C94CE04089587E990E09F938F937C
:1010C0000E94FC040F900F9080E090E0892B21F0AB
:1010D00084E090E00E94000080917F03897F81601E
:1010E00080937F038FEF8093CD018093CC0190910B
:1010F000CB0190932203809323038093270387E0FF
:101100008093260380912503807E8360809325034E
:101110006CE571E081E293E00E94E6030C94260501
:10112000CF938DE890E09F938F930E94FC04809171
:101130007F03877F8F7E80937F030E94B719609320
:101140007B0370937C0380937D0390937E031092C6
:101150007703109278031092790310927A0343E098
:1011600050E060E070E08BEC91E00E94F52561E0DA
:1011700089E00E94961561E08AE00E949615CFB73B
:10118000F8940F900F908091C001811127C0E6EF75
:10119000F5E08491EAE0F6E09491E82FF0E0EE0FBC
:1011A000FF1FED55FA4FA591B491EC91E92321F47D
:1011B00061E08AE00E944A1561E08AE00E9496158B
:1011C0008CB580618CBD8CB580648CBD61E08DE098
:1011D0000E94961561E08BE00E9496158091C001F7
:1011E0008F5F8093C001CFBF60E089E00E944A1505
:1011F00061E08AE00E944A156EE080E20E94850468
:1012000065E070E080E090E00E94D21563E083E248
:101210000E9485046FE584E20E9485046CE485E207
:101220000E94850467E286E20E94850463E780E508
:101230000E94850466E08DE30E9485040E946A0492
:10124000882309F446C062E082E20E94850460E0DF
:1012500081E20E94850463E08CE30E9485048FEFA5
:101260008093030120E045E063E071E08BE20E949F
:101270001B0420E045E063E071E08AE20E941B0469
:1012800020E045E063E071E080E30E941B0482EE11
:101290000E94A50481EE0E94A50460E787E20E94F7
:1012A00085048CE790E09F938F930E94FC048091CB
:1012B0007F03806180937F038091CB010F900F901B
:1012C0008F3FC1F00E94C506811114C08DE191E0ED
:1012D00013C088E690E09F938F930E94FC040F90C8
:1012E0000F9080E090E0892B89F387E690E00E94E0
:1012F0000000ECCF84E191E0CF910C94CE041F92DA
:101300000F920FB60F9211240F900FBE0F901F90E7
:1013100018954F925F926F927F928F929F92AF92A9
:10132000BF92CF92DF92EF92FF920F931F93CF93D2
:10133000DF93CDB7DEB762970FB6F894DEBF0FBE6E
:10134000CDBFC0909E02D0909F02E090A002F0908E
:10135000A102C114D104E104F10409F47DC080E5C7
:1013600091E00E9434144AE0C701B6010E947B1448
:101370008AE591E00E94341427E0C21624E8D206E0
:1013800025E3E206F104D9F1A0F451E0C51654E8D2
:10139000D50655E3E506F10459F184E0C81684E862
:1013A000D80685E3E806F10409F04EC061E671E075
:1013B00021C0A8E0CA16A4E8DA06A5E3EA06F1040B
:1013C00069F1B9E0CB16B4E8DB06B5E3EB06F1044E
:1013D000D9F58091A6028F7180648093A6028091D6
:1013E000A502877080618093A50289E190E024C006
:1013F0006DE571E083EC92E00E94E60323C08091EA
:10140000A6028F7180648093A6028091A5028770E6
:1014100080618093A50284E690E00EC08091A602D0
:101420008F7180648093A6028091A502877080618D
:101430008093A50282E390E09093AA028093A90290
:1014400082EA92E00E94621410929E0210929F0221
:101450001092A0021092A1020E94B7190091C5013A
:101460001091C6012091C7013091C801DC01CB0168
:10147000801B910BA20BB30B81369A4EA105B105CF
:1014800008F475C280910A0390910B030E94F01A30
:1014900040E06CEC80910A0390910B030E94AE1A1D
:1014A0004091050364E480910A0390910B030E942C
:1014B000AE1A809107038823A9F0E0910603E95052
:1014C000E33040F4F0E0EE0FFF1FE35DFE4F60817C
:1014D000718102C06EEE72E0072E000C880B990B32
:1014E0000E94D21500910A0310910B03D8011B969C
:1014F0001C921B971D961C921D971C961C92F8011E
:101500003B966801B3E0CB0ED11C1292EC15FD05A1
:10151000E1F7C8010E94F01A882309F45DC040E099
:1015200060EFC8010E94AE1AEE24E394B12CA12C06
:10153000FF24F394C8010E945B1A682FC8016A8BCC
:101540000E945B1A6A89613019F48130D1F437C086
:101550002B2D30E068131EC0D8011B968C91F81615
:1015600038F4F801E20FF31F83818E2151F402C099
:10157000F81639F060E0B8E0BF1558F0F801F486CD
:1015800008C0F801EB0DF11D83818E29838361E092
:1015900009C0AF2CF801E20FF31F93818E2D8095C7
:1015A00089238383C8010E947F1AF394EE0C19F4F7
:1015B000B394EE24E394F7E0FB1508F0BBCF20E4EE
:1015C0002F1550F4D8011B96AC921B97A11009C09F
:1015D00081E01D968C9305C0F8011386158614864C
:1015E00024C0D80113968C918823B1F38E01065F35
:1015F0001F4FCE014296F801D6012D916D01219326
:10160000E817F907C9F7D801E0E0F02E87E0800F6E
:101610008A1739F09D91E927F0E0E454FD4FE491F9
:10162000F7CF8989E81709F400C1C12CD12C8EEFBE
:10163000E82E82ECF82E84E691E00E943414A70193
:101640009601C701B6010E94C01E882319F082E7E7
:1016500091E01AC046015701E894B7F82FEF3FEF29
:101660004FE75FE7C501B4010E94C01E81110FC0A2
:101670002FEF3FEF4FE75FE7C501B4010E94D12490
:1016800018162CF486E791E00E9434147BC02FEFEB
:101690003FEF4FE75FE4C701B6010E94BB1E18167B
:1016A0001CF48AE791E0F0CF2FEF3FEF4FE75FECBC
:1016B000C701B6010E94D12487FDF3CF20E030E0BE
:1016C000A901C701B6010E94D12487FF0FC0E09194
:1016D0000102F09102020190F081E02D6DE281E0C3
:1016E00092E00995C701B601905802C0C701B60142
:1016F0002AE037ED43EA5BE30E94201E2B013C0108
:101700000E948C1E4B015C010E94D6249B01AC01FF
:10171000C301B2010E941F1E2B013C014AE0C5011A
:10172000B4010E947B148EE791E00E94341420E003
:1017300030E040E251E4C301B2010E9437252B01A1
:101740003C010E948C1E4B01A12CB12C4AE0C5012A
:10175000B4010E947B14C501B4010E94D6249B01F0
:10176000AC01C301B2010E941F1E20E030E040E244
:1017700051E40E9437250E948C1E80E090E04AE0F0
:101780000E947B148AE591E00E943414A70196011F
:101790006091C1017091C2018091C3019091C40117
:1017A0000E94D1248823B1F120E030E04EEF52ECCA
:1017B000C701B6010E94D124882361F120E030E006
:1017C0004AEA52E4C701B6010E94D124882311F1EC
:1017D0008091E702877088628093E7028091E80237
:1017E000806E8093E802C092EB02D092EC02E0920D
:1017F000ED02F092EE0281E08093EF0284EE92E03F
:101800000E946214C092C101D092C201E092C30151
:10181000F092C4010E94B7196093C5017093C6018C
:101820008093C7019093C801A2C080910A03909150
:101830000B030E94F01A882309F445C0C0900A03E4
:10184000D0900B0340E065E5C6010E94AE1AB8E0F7
:10185000FB0EF80161918F0140E0C6010E94AE1AB3
:10186000F012F7CF40E06EEB80910A0390910B03EA
:101870000E94AE1A8E010F5F1F4F6801F02EA9E083
:101880008A2E800E60900A0370900B03F8E0AF2E52
:10189000B12C99249394E12CC3010E945B1A81110D
:1018A000E928990CF1E0AF1AB108B1F7D601ED9231
:1018B0006D018A12E7CF80910A0390910B030E9479
:1018C000F01A813019F060E874EE3DC0E0E088E085
:1018D0008F0D801749F0D8019D918D01E927F0E027
:1018E000E454FD4FE491F5CF8985E813ECCF69818D
:1018F000B8E06B9FB00111248A81282F30E0322F8D
:101900002227330F330F330F262B372B8A85803155
:10191000C9F4688570E08F81FB01E81BF109CF01F4
:101920009695982F8827979587950E94DC1D605182
:101930007109207F53E0220F331F5A95E1F7620FA0
:10194000731F01C0B9016138F4EE7F070CF46DCE4E
:10195000072E000C880B990B0E94D82420E030E061
:1019600040E05CE30E9437256B017C0164CE629607
:101970000FB6F894DEBF0FBECDBFDF91CF911F91A0
:101980000F91FF90EF90DF90CF90BF90AF909F901E
:101990008F907F906F905F904F900895EF92FF929D
:1019A0001F93CF93DF93C1E2D3E08BECE82E81E06D
:1019B000F82EF701808189831A821FEF1E838BE046
:1019C0008D838C81807E83608C8360E871E0CE01A2
:1019D0000E94E6030E946806F701808189831A82CB
:1019E0001E838CE08D838C81807E83608C836DE888
:1019F00071E0CE010E94E6030E94680641E951E0D1
:101A000066E080E00E9446144DE951E063E081E029
:101A1000DF91CF911F91FF90EF900C94461461E0FD
:101A200086E00E94961560E086E00E944A1581E0FB
:101A300090E0909319038093180310929E021092E5
:101A40009F021092A0021092A102109283031092A2
:101A5000820383E396E19093260180932501E9E6D2
:101A6000F0E08081837F84608083E99A08952F92DB
:101A70003F924F925F926F927F928F929F92AF921E
:101A8000BF92CF92DF92EF92FF920F931F93CF936B
:101A9000DF9300D000D000D0CDB7DEB70E94B719D9
:101AA00000917B0310917C0320917D0330917E0394
:101AB000DC01CB01801B910BA20BB30B81369A4E3C
:101AC000A105B105D0F00E94B71960937B03709314
:101AD0007C0380937D0390937E030E946A048111AE
:101AE00021C082E895E09F938F930E94FC048DE1D2
:101AF00091E00E94CE040F900F9036E03D8330E0DD
:101B0000A32E30E0B32ECE0101961C0144EB442EEF
:101B10004BE2542E41E1642E712C58EC852E53E09B
:101B2000952EC9C084E995E09F938F930E94FC0491
:101B3000E2CF3D8131503D83332309F4D3C421E00A
:101B400041E060E070E080E60E941B04813220F0FA
:101B500082EE0E94A50480E021E0482F62E473E059
:101B600081E60E941B0460E487E20E948504A114C0
:101B7000B10421F081E090E00E940000C090460393
:101B8000209147032B831091430300914203D0908F
:101B9000440382E493E00E94841350914503209112
:101BA0004603E12EF12C9F938F9352FB882780F9F7
:101BB0001F928F935695569556951F925F93822F3D
:101BC0008295869587701F928F931F923B813F93DA
:101BD00027701F922F93809148031F928F931F921B
:101BE000DF921F920F931F921F93A8E4B5E0BF935B
:101BF000AF930E94FC04E09145038E2F83700FB6D3
:101C0000F894DEBF0FBECDBF823009F05EC02C2D30
:101C100027702C838091CB01D81246C38E2F8770FA
:101C2000E695E695E695E93108F061C0EE0FEE0F16
:101C3000EE0FE82BE0934503E695E695E695F0E098
:101C4000EE5BFC4F17828091CC01081352C080914B
:101C5000460383FF21C081E2E2E4F3E0A1E2B3E0C6
:101C600001900D928A95E1F780912503877F80612D
:101C7000809325038091CB0180932203109323034B
:101C800081E295E09F938F930E94FC0481E293E0B0
:101C90000E9459060F900F909091460394FDF2C256
:101CA0002C81233009F0F6C23B81343081F50E944B
:101CB00021140E94C50621E041E060E070E087E168
:101CC0000E941B0480FD0EC434CFA114B10421F086
:101CD0008BE690E00E9400001F9282E08F9380913B
:101CE000450383701F928F9382E395E046C0E8EC32
:101CF000A0CF33E0E30EF11CC7010E9405260817B0
:101D000009F4A5CF602FC7010E940D26A0CF2B811B
:101D1000283009F040C080917F0380FF39C00E94C5
:101D200021141F928F931F921F9324E035E03F935D
:101D30002F938E830E94FC040F900F900F900F90B2
:101D40000F900F908E818F3F09F4B5CF8F5F8F3F3B
:101D500009F4B1CF9091CD01891708F0ACCF9091E3
:101D60007F0391FDA8CF8093CD011093CC011F92EA
:101D70008F931F921F9388EE94E09F938F930E94FE
:101D8000FC040F900F900F900F900F900F9093CF37
:101D900081ED94E012C33B81383131F50E9421146A
:101DA0001F928F931F921F9385EB94E09F938F93C5
:101DB0000E94FC048091CB018093220310932303A3
:101DC0008FEF8093270389E1809326038091250379
:101DD000807E83608093250361E081E293E00E942E
:101DE000DA030E942605CDCF2B81293181F4809121
:101DF0007F0383FF60CF877F80937F030E9421143E
:101E0000809381031F928F938CE994E032C080917C
:101E1000470320914303211132C28D3099F480E0B1
:101E200090E0892B21F08AE090E00E94000098E089
:101E300088E10FB6F894A895809360000FBE909348
:101E40006000FFCF8B31F1F40E94211491E08111E9
:101E500001C090E09093CA01A114B10421F089E07F
:101E600090E00E9400008091CA011F928F9381EE42
:101E700093E09F938F930E94FC040F900F900F901C
:101E80000F9019CF8630C1F48091490361E0882317
:101E900019F08D3409F060E06093C90183E091E0AE
:101EA0006E830E9405266E81681709F404CF83E0D3
:101EB00091E00E940D26FFCE833119F40E946A063C
:101EC000FACE823101F50E94BB042091CB01209310
:101ED0002203109223032FEF2093270326E1209360
:101EE000260323EA209325032091240327702062F0
:101EF00020932403609328037093290380932A037B
:101F000090932B03F3C0813009F520E030E0232BC0
:101F100009F4D1CE892F829586958770853049F452
:101F20006091490370914A0380914B0390914C0357
:101F30000AC0811105C089E493E00E94171F03C005
:101F400060E070E0CB010E940000B5CE8A30F1F570
:101F500080914903833409F0AECEA114B10421F07D
:101F60008CE090E00E94000003E010E0C8010E94B5
:101F700005268F3F21F06FEFC8010E940D260F5FED
:101F80001F4F023031E0130789F78CEB93E09F93EA
:101F90008F930E94FC048091CB01809322031092C6
:101FA00023038FEF809327038AE080932603809199
:101FB0002503807E83608093250361EB71E081E2DD
:101FC00093E00E94E6030E946806FBC18C3109F091
:101FD00061C180914903823509F051C000E010E0F1
:101FE000C80103960E9405268F3F31F40F5F1F4FF3
:101FF0000F3F1105A9F75FCE1F928F931F930F9389
:102000009F928F928E830E94FC049091CB019093BB
:102010002203109223039FEF90932703ACE1A09338
:102020002603909124039770906190932403B3EC5E
:10203000B0932503009328038E818093290381E2C6
:1020400093E00E9468060E94B7196B017C010F9013
:102050000F900F900F900F900F900E94B719DC0116
:10206000CB018C199D09AE09BF09883C9105A105DA
:10207000B10508F0BBCFA8950E94AB04EECF863522
:10208000D1F58EE480937C0066E470E080E090E01F
:102090000E94D21580917A00806480937A008091AA
:1020A0007A0086FDFCCF20917800309179008091F4
:1020B000CB0180932203109223038FEF8093270399
:1020C0008CE18093260383E680932503809124038B
:1020D000877080618093240340E050E0C301B20127
:1020E0000E94F01D309329032093280381E293E09E
:1020F0000E946806E0CD863409F059C0F8948FEF4D
:1021000086BB10928500109284001092800010927D
:102110008200909160002DE088E10FB6F894A895B8
:10212000809360000FBE2093600080916000806407
:1021300080936000A89585E0809381008091600085
:1021400087FFFCCF10928100A89580916000886184
:102150008093600090936000789460918400709107
:1021600085008091CB0180932203109223038FEF8F
:10217000809327038CE18093260383E680932503D5
:10218000809124038770806180932403CB01A0E0B9
:10219000B0E0BC01CD012BE0660F771F881F991FAF
:1021A0002A95D1F720EA36E841E050E099CF8D3406
:1021B00029F58091210490912204009711F485E281
:1021C00094E02091CB0120932203109223032FEF60
:1021D000209327032CE12093260323E62093250355
:1021E0002091240327702061209324039101281B50
:1021F000390B309329032093280378CF853409F0D5
:102200005ACD8091CB0180932203109223038FEF4C
:10221000809327038CE18093260380912503807EA1
:1022200083608093250361EB71E081E293E00E947B
:10223000E6030E94680600E010E0C8010E9405263F
:102240008F3F21F06FEFC8010E940D260F5F1F4FD7
:102250000D3931E0130789F780E090E0892B21F0F8
:102260008AE090E00E94000098E088E10FB6F894C0
:10227000A895809360000FBE90936000FFCF8A31D5
:1022800049F419CD8FE894E09F938F930E94FC044A
:102290000F900F9080E090E0892B09F40CCD82E440
:1022A00093E00E94000007CD8FEFD812C1C0A3E8D1
:1022B000B4E0BF93AF930E94FC040F900F903C8159
:1022C000333009F0A7C090917F038091CC0192FF39
:1022D0007BC02B81273009F077C0181709F4EBCCAD
:1022E0001F921F93ABE6B4E0BF93AF930E94FC0430
:1022F00033E0E30EF11CC7010E9405260F900F90FA
:102300000F900F90181721F0612FC7010E940D2622
:102310000E94B71920917703309178034091790397
:1023200050917A03DC01CB01821B930BA40BB50BFC
:1023300080319742A105B105D0F586EF93E09F93D8
:102340008F930E94FC040F900F900E94B719609326
:102350007703709378038093790390937A038BE5E6
:1023600094E09F938F930E94FC040E94B7197370AE
:10237000882799270E94D2156091CD018091CB01C9
:1023800080932203109323038FEF8093270388E029
:102390008093260380912503807E836080932503AC
:1023A00081E293E00E94DA030E9426050AC00E949F
:1023B000261B8111CACF88E494E09F938F930E94DB
:1023C000FC040F900F9077CC3B81343119F5081342
:1023D00021C00E94B7197370882799270E94D215CF
:1023E0006091CC018091CB01809322031093230351
:1023F0008FEF8093270385E1809326038091250347
:10240000807E83608093250381E293E00E94DA035B
:102410000E9426058091CC0108134DCC8091CB0100
:10242000181709F45AC080917F0382FD41C055C03E
:1024300080917F0382FF3FCCA3E2B4E0BF93AF93D0
:102440000E94FC040F900F908091CC01081761F05E
:1024500033E0E30EF11CC7010E940526081721F0A6
:10246000602FC7010E940D262C812330E1F48B815F
:1024700088518230C0F40E9421148E3FA1F01F9237
:102480008F93ABE0B4E0BF93AF938E830E94FC04C4
:102490008E8161E0680F82E493E00E94DA030F907E
:1024A0000F900F900F9082E493E00E94260503CCDA
:1024B000A4E3B4E0BF93AF930E94FC0482E493E0F2
:1024C0000E9426050F900F903C81333009F4F3CB26
:1024D0008091CC010813EFCBDDCE2C81233009F0A5
:1024E000D9CEE9CB26960FB6F894DEBF0FBECDBF8E
:1024F000DF91CF911F910F91FF90EF90DF90CF90E0
:10250000BF90AF909F908F907F906F905F904F9013
:102510003F902F900895CF92DF92EF92FF920F930A
:102520001F93CF93DF936C017A018B01C0E0D0E061
:10253000CE15DF0589F0D8016D918D01D601ED91A1
:10254000FC910190F081E02DC6010995892B11F4D1
:102550007E0102C02196ECCFC701DF91CF911F9180
:102560000F91FF90EF90DF90CF900895FC01918D37
:10257000828D981761F0828DDF01A80FB11D5D96E5
:102580008C91928D9F5F9F73928F90E008958FEF53
:102590009FEF0895FC01918D828D981731F0828D07
:1025A000E80FF11D858D90E008958FEF9FEF08955E
:1025B000FC01918D228D892F90E0805C9F4F821BC2
:1025C00091098F739927089581E092E00E94D812B3
:1025D00021E0892B09F420E0822F0895FC01848DED
:1025E000DF01A80FB11DA35ABF4F2C91848D90E03D
:1025F00001968F739927848FA689B7892C93A08918
:10260000B1898C9180648C93938D848D981306C0CE
:102610000288F389E02D80818F7D80830895EF9279
:10262000FF920F931F93CF93DF93EC0181E0888F8C
:102630009B8D8C8D981305C0E889F989808185FD73
:1026400024C0F62E0B8D10E00F5F1F4F0F73112764
:10265000E02E8C8DE8120CC00FB607FCFACFE8898B
:10266000F989808185FFF5CFCE010E94EE12F1CF6E
:102670008B8DFE01E80FF11DE35AFF4FF0820B8FA7
:10268000EA89FB898081806207C0EE89FF896083C7
:10269000E889F98980818064808381E090E0DF911E
:1026A000CF911F910F91FF90EF900895CF93DF93FB
:1026B000EC01888D8823C9F0EA89FB89808185FD3A
:1026C00005C0A889B9898C9186FD0FC00FB607FC9B
:1026D000F5CF808185FFF2CFA889B9898C9185FFDC
:1026E000EDCFCE010E94EE12E7CFDF91CF9108959A
:1026F00080E090E0892B29F00E94E41281110C9473
:10270000000008950E94C51E0F931F93CF93DF937F
:10271000EC018C8182958695877091F44B8146956A
:102720004695469550E0BE01695F7F4F8EEC91E083
:102730000E94CA1EEB81E695E695E695F0E077C02B
:10274000813031F48F814AE06EEC71E090E007C097
:10275000823041F44AE06EEC71E08F8198850E94EE
:102760003E1F68C0833041F44AE06EEC71E08F8117
:1027700098850E94971F5EC0843051F46F817885E0
:1027800089859A852AE04EEC51E00E94491F52C08B
:10279000853051F46F81788589859A852AE04EECE1
:1027A00051E00E94751F46C0873071F42B85293097
:1027B00008F028E06F81788589859A850EEC11E014
:1027C00042E00E94D91E36C08630A1F520E0EB81A0
:1027D000E695E695E6952E1738F5E22FF0E0AF0185
:1027E000440F551FDA01A253BE4FEC0FFD1F878126
:1027F000082E000C990B34E0959587953A95E1F7F2
:102800008F708A3010F4805D01C0895C8C93DA018E
:10281000A153BE4F87818F708A3010F4805D01C054
:10282000895C8C932F5FD3CFF0E0EE0FFF1FE25354
:10283000FE4F10828EEC91E0DF91CF911F910F91AE
:10284000089580914603829586958770813019F4AA
:10285000809149030895811105C089E493E00E94A5
:10286000F91E089580E00895009769F0FC01019039
:102870000020E9F73197AF01481B590BBC0181E0FB
:1028800092E00C948B1280E090E008958F3F11F05D
:102890009A0102C024EB31E09091CB019093220386
:1028A00010922303809327036093260380912503CE
:1028B000807E80932503B90181E293E00E94E603C4
:1028C0000C946806FC018091CB0181839481907FF8
:1028D000916094838091CA01882319F0CF010C94F0
:1028E00059068BEC95E09F938F930E94FC040F9008
:1028F0000F9080E008958F929F92AF92BF920F93B6
:102900001F93CF93DF93CDB7DEB7A1970FB6F8949F
:10291000DEBF0FBECDBF19A2423008F44AE08E01DF
:102920000F5D1F4F842E912CA12CB12CA501940179
:102930000E94F01DE62FB901CA0101501109EA30C9
:1029400014F4E05D01C0E95CD801EC93232B242B47
:10295000252B61F7C8010E943414A1960FB6F89494
:10296000DEBF0FBECDBFDF91CF911F910F91BF9002
:10297000AF909F908F900895CF92DF92EF92FF9249
:10298000CF93DF93D82F0E94B7196B017C0181E0B0
:10299000D11180E080934703C0E00E94B719AB01DA
:1029A000BC014C195D096E097F09403D5740610526
:1029B000710580F4C1110EC0A8950E94AB049091DE
:1029C00046039770933049F7C1E0809147038D1318
:1029D000E3CFE3CF8C2FDF91CF91FF90EF90DF908B
:1029E000CF9008951F920F920FB60F9211242F933C
:1029F0003F934F935F936F937F938F939F93AF9387
:102A0000BF93EF93FF9381E092E00E94EE12FF915B
:102A1000EF91BF91AF919F918F917F916F915F9156
:102A20004F913F912F910F900FBE0F901F901895CF
:102A30001F920F920FB60F9211242F938F939F9393
:102A4000EF93FF93E0911102F09112028081E091E7
:102A50001702F091180282FD12C0908180911A0233
:102A60008F5F8F7320911B02821751F0E0911A0241
:102A7000F0E0EF5FFD4F958F80931A0201C08081D7
:102A8000FF91EF919F918F912F910F900FBE0F901B
:102A90001F90189590E0FC01E954FA4F3491FC0125
:102AA000E050FA4F2491FC01E451FA4FE491EE23F7
:102AB00009F43BC0332339F1333091F038F431302D
:102AC000A9F0323001F584B58F7D12C0373091F016
:102AD0003830A1F03430B9F4809180008F7D03C08C
:102AE000809180008F77809380000DC084B58F77B0
:102AF00084BD09C08091B0008F7703C08091B00081
:102B00008F7D8093B000F0E0EE0FFF1FE355FA4F8A
:102B1000A591B4918FB7F894EC91611103C0209501
:102B20002E2301C02E2B2C938FBF0895CF93DF93BC
:102B300090E0FC01E050FA4F2491FC01E451FA4F7F
:102B40008491882361F190E0880F991FFC01ED5575
:102B5000FA4FC591D491FC01E355FA4FA591B49178
:102B6000611109C09FB7F8948881209582238883DA
:102B7000EC912E230BC0623061F49FB7F89438813A
:102B8000822F809583238883EC912E2B2C939FBFDB
:102B900006C08FB7F894E8812E2B28838FBFDF9172
:102BA000CF9108958F929F92AF92BF92CF92DF9272
:102BB000EF92FF926B017C010E940E164B015C01AB
:102BC000C114D104E104F104F1F00E940E16DC01FD
:102BD000CB0188199909AA09BB09883E9340A10530
:102BE000B10570F321E0C21AD108E108F10888EEBE
:102BF000880E83E0981EA11CB11CC114D104E1040D
:102C0000F10419F7DDCFFF90EF90DF90CF90BF90E8
:102C1000AF909F908F900895089508953FB7F894CE
:102C200080911D0490911E04A0911F04B091200476
:102C300026B5A89B05C02F3F19F00196A11DB11D17
:102C40003FBFBA2FA92F982F8827820F911DA11D52
:102C5000B11DBC01CD0142E0660F771F881F991F8F
:102C60004A95D1F708952F923F924F925F926F92BB
:102C70007F928F929F92AF92BF92CF92DF92EF920C
:102C8000FF920F931F93CF93DF93CDB7DEB7A29739
:102C90000FB6F894DEBF0FBECDBF0E940E16698B33
:102CA0007A8B8B8B9C8B8091140490911504681BFC
:102CB000790B7AA369A370931304609312046938A3
:102CC00023E1720708F473C120908C0330908D03C8
:102CD000C101885C91098617970708F064C1805785
:102CE0009E4F6817790708F05EC180918A03909122
:102CF0008B03019690938B0380938A030091880342
:102D00001091890301501109029709F04CC1C101CA
:102D10006FE170E00E94C81D7E8B6D8B6B01E12C12
:102D2000F12C40902101509022015E864D869B013E
:102D3000D2010E94121E0E94D6242AE037ED43E2FF
:102D40005CE30E9437250E948C1E4B015C012D899B
:102D50003E89A3E0B0E00E9452269B01AC012819F5
:102D600039094A095B0929833A834B835C8324012F
:102D70003501460E571E681E791E4D825E826F8297
:102D8000788621E030E080E090E0DC01B701A60128
:102D9000481959096A097B0949875A876B877C87D3
:102DA000C80CD91CEA1CFB1C2017310708F06CC0AA
:102DB000F901EE0FFF1FE457FC4F4081518160E0A5
:102DC00070E049845A846B847C84441655066606F8
:102DD000770610F54C155D056E057F05E8F4F901E1
:102DE000EE0FFF1FE257FC4F0190F081E02D4F01E5
:102DF000A12CB12C49805A806B807C8048145904E6
:102E00006A047B0448F44D805E806F80788484146B
:102E10009504A604B70460F169807A808B809C8059
:102E2000641675068606970640F58D809E80AF80F5
:102E3000B884481559056A057B05F8F4F901EE0FC9
:102E4000FF1FE257FC4F4081518160E070E04984F0
:102E50005A846B847C84441655066606770668F4AB
:102E60004C155D056E057F0540F40196A11DB11D51
:102E7000880F991FAA1FBB1F04C0980180E090E033
:102E8000DC012E5F3F4F90CFB695A795979587951C
:102E900007301105D8F080939E0290939F02A09373
:102EA000A002B093A1029801369527953093830331
:102EB000209382036D887E887092870360928603D8
:102EC00021E030E03093850320938403892B8A2B03
:102ED0008B2B09F064C0B3C0F901EE0FFF1FE4575C
:102EE000FC4FC080D180E12CF12C4D855E856F8533
:102EF00078894C155D056E057F0508F006C249808E
:102F00005A806B807C80C414D504E604F70408F072
:102F1000FCC1F901EE0FFF1FE257FC4F40815181C8
:102F200060E070E04D805E806F80788444165506C6
:102F30006606770608F0E9C149845A846B847C846C
:102F4000441555056605770508F0DFC1880F991F00
:102F5000AA1FBB1F2E5F3F4F2017310708F4BCCFBD
:102F600007301105E0F0B695A79597958795809362
:102F70009E0290939F02A093A002B093A102169587
:102F80000795109383030093820330928703209266
:102F9000860383E090E090938503809384031092EE
:102FA0008B0310928A0310928903109288038091F8
:102FB0008803909189038334910540F0109289032E
:102FC0001092880310928B0310928A0380918803D9
:102FD000909189039C012F5F3F4F30938903209389
:102FE0008803880F991FFC01E457FC4FE9A0FAA061
:102FF000F182E08249885A886B887C884092140468
:10300000509215046092160470921704A2960FB69F
:10301000F894DEBF0FBECDBFDF91CF911F910F910E
:10302000FF90EF90DF90CF90BF90AF909F908F90E8
:103030007F906F905F904F903F902F900895C101C7
:103040006AE070E00E94C81D7E8B6D8B6B01E12CE5
:10305000F12C9B01AD85BE850E94121E0E94D624D4
:103060002AE037ED43E25CE30E9437250E948C1E84
:103070004B015C01B701A601440F551F661F771F66
:10308000DB01CA0188199909AA09BB098D839E83AE
:10309000AF83B887480D591D6A1D7B1D21E030E0C4
:1030A00080E090E0DC0126013701481859086A08E1
:1030B0007B0849865A866B867C863A014B016C18E0
:1030C0007D088E089F08698E7A8E8B8E9C8E2017C5
:1030D000310708F073C0F901EE0FFF1FE457FC4FF2
:1030E000C080D180E12CF12C89849A84AB84BC848B
:1030F0008C149D04AE04BF0438F5498C5A8C6B8C3B
:103100007C8CC414D504E604F704F0F4F901EE0F46
:10311000FF1FE257FC4FA080B1803501812C912C1C
:1031200069827A828B829C82540143014D805E8049
:103130006F807884481459046A047B0428F4841648
:103140009506A606B70670F16D807E808F80988404
:103150006C147D048E049F0450F5C416D506E60653
:10316000F70628F5F901EE0FFF1FE257FC4F01901B
:10317000F081E02D6F01E12CF12C89849A84AB84DD
:10318000BC848C149D04AE04BF0488F4498C5A8C12
:103190006B8C7C8CC414D504E604F70440F40196CF
:1031A000A11DB11D880F991FAA1FBB1F04C0980144
:1031B00080E090E0DC012E5F3F4F89CFB695A79568
:1031C0009795879507301105D8F080939E029093CC
:1031D0009F02A093A002B093A10298013695279573
:1031E00030938303209382036D887E8870928703D7
:1031F0006092860322E030E03093850320938403BD
:10320000892B8A2B8B2B09F0CACEC10167E470E0B1
:103210000E94C81D1B019B01AD85BE850E94121E28
:103220000E94D6242AE037ED43E25CE30E94372572
:103230000E948C1E6B017C01C101A0E0B0E022E085
:10324000880F991FAA1FBB1F2A95D1F74C015D015A
:103250008C189D08AE08BF088D869E86AF86B88AFA
:10326000B701A601480F591F6A1F7B1F49835A8364
:103270006B837C839101ABE0B0E00E9452262B016E
:103280003C014C185D086E087F084D825E826F829B
:10329000788636014701660E771E881E991E69865C
:1032A0007A868B869C86A9E0B0E00E9452264B016C
:1032B0005C018C189D08AE08BF088D8A9E8AAF8A73
:1032C000B88E26013701460E571E681E791E498E9C
:1032D0005A8E6B8E7C8EA6E0B0E00E9452263B0197
:1032E0004C016C187D088E089F086D8E7E8E8F8E27
:1032F00098A246015701860E971EA81EB91E21E00E
:1033000030E080E090E0DC0127CE4D895E896F8956
:10331000788D4C155D056E057F0520F5498C5A8C1E
:103320006B8C7C8CC414D504E604F704D8F4F90142
:10333000EE0FFF1FE257FC4F4081518160E070E0CB
:10334000CD8CDE8CEF8CF8A0C416D506E606F70609
:1033500048F4481559056A057B0520F40196A11D1E
:10336000B11DF4CD980180E090E0DC01F3CD2FB7E2
:10337000F8946091190470911A0480911B04909143
:103380001C042FBF08951F920F920FB60F921124A5
:103390002F933F938F939F93AF93BF938091190483
:1033A00090911A04A0911B04B0911C043091180450
:1033B00023E0230F2D3720F40196A11DB11D05C078
:1033C00026E8230F0296A11DB11D209318048093B7
:1033D000190490931A04A0931B04B0931C048091C9
:1033E0001D0490911E04A0911F04B0912004019629
:1033F000A11DB11D80931D0490931E04A0931F0472
:10340000B0932004BF91AF919F918F913F912F91E5
:103410000F900FBE0F901F9018951F920F920FB62E
:103420000F9211242F933F934F935F936F937F934A
:103430008F939F93AF93BF93EF93FF93E0912501F9
:10344000F09126010995FF91EF91BF91AF919F9166
:103450008F917F916F915F914F913F912F910F903D
:103460000FBE0F901F9018951F920F920FB60F92DC
:1034700011242F933F934F935F936F937F938F9379
:103480009F93AF93BF93EF93FF93E0912301F0914C
:1034900024010995FF91EF91BF91AF919F918F9179
:1034A0007F916F915F914F913F912F910F900FBE40
:1034B0000F901F901895FC0190810180F281E02D02
:1034C000F8948181892B81832281892F80952823FB
:1034D0002283A7E0B0E01197F1F721818223818355
:1034E000A3E2B0E01197F1F780817894EFECF0E07F
:1034F0003197F1F7982381E009F480E00895FC0109
:1035000090810180F281E02D892F809560FF12C0AB
:10351000F8942281822382838181892B8183A3E293
:10352000B0E01197F1F78281982B9283789487ED20
:1035300090E011C0F8942281822382838181892BBB
:103540008183AFEFB0E01197F1F78281982B9283DE
:1035500078948FE090E00197F1F70895CF92DF9291
:10356000EF92FF920F931F93CF93DF931F92CDB7EC
:10357000DEB76C01E62E08E010E0FF24F39461E072
:103580008F2D8E2109F460E0C60149830E947F1AC5
:10359000FF0C0150110949810115110581F74111F5
:1035A00015C0F894D6011196ED91FC911297918176
:1035B0008C918095892381831196ED91FC911297CE
:1035C00092818C9180958923828378940F90DF91EA
:1035D000CF911F910F91FF90EF90DF90CF900895C2
:1035E000FC0190810180F281E02DF8948181292FE6
:1035F00020958223818378948DE743E050E08150C9
:1036000021F1DA011197F1F730813923C1F3F894F0
:103610008281822382838181892B81837894ABE7A5
:10362000B7E01197F1F7F894818128232183A3E172
:10363000B1E01197F1F78081982381E009F080E0F3
:103640007894E3E6F6E03197F1F70895CF92DF92B0
:10365000EF92FF92CF9380917F0383FD77C0C0915B
:10366000CB01CC2309F449C0886080937F03CFEF5E
:10367000C09381031F921F9284E196E09F938F93E2
:103680000E94FC048091CB018093220310922303BB
:10369000C093270388E18093260380912503807ED1
:1036A00083608093250361E081E293E00E94DA0366
:1036B0000E9426050E94B7196B017C0110924703F6
:1036C0000F900F900F900F90C0E00E94B719DC018F
:1036D000CB018C199D09AE09BF09803D9740A1051A
:1036E000B10510F4CC23F1F180917F03877F8093A3
:1036F0007F03C0918103CF3F49F10E94B7196093C6
:103700007703709378038093790390937A0385E528
:1037100096E09F938F930E94FC048091CD010F90BF
:103720000F90C817E9F01F92CF931F928F938AE3EF
:1037300096E09F938F930E94FC04C093CD010F905D
:103740000F900F900F900F900F900AC089E296E0B3
:103750009F938F930E94FC040F900F9080E014C001
:1037600081E012C080917F0384FD0E94370D80911B
:1037700046038770833009F0A8CFC1E080914703EA
:10378000893109F0A1CFA1CFCF91FF90EF90DF90C9
:10379000CF900895CF93DF93FC01108211821282A3
:1037A000148215821682DC0117968AE1ED011992C6
:1037B0008A95E9F782E08383DF91CF910895789429
:1037C00084B5826084BD84B5816084BD85B5826026
:1037D00085BD85B5816085BD80916E0081608093D7
:1037E0006E00109281008091810082608093810040
:1037F0008091810081608093810080918000816050
:10380000809380008091B10084608093B1008091AA
:10381000B00081608093B00080917A0084608093D2
:103820007A0080917A00826080937A0080917A0099
:10383000816080937A0080917A00806880937A001A
:103840001092C10080E090E0892B11F00E940000EE
:10385000E0911102F091120282E08083E0910D026A
:10386000F0910E021082E0910F02F091100280E1BF
:10387000808310921902E0911502F091160286E001
:103880008083E0911302F091140280818061808333
:10389000E0911302F0911402808188608083E091AE
:1038A0001302F0911402808180688083E0911302FA
:1038B000F091140280818F7D80838BE892E09F934A
:1038C0008F930E94FC040F900F9080E090E0892B72
:1038D00051F08EE792E09F938F930E94FC040E9428
:1038E00000000F900F9041E050E063E071E089EC40
:1038F00091E00E94F52581E090E00E9405268F3F2F
:1039000029F06FEF81E090E00E940D268DE191E0BB
:10391000909372038093710389E191E00E94CE0439
:1039200080917F0382FD04C0A8950E94AB04F8CF6C
:103930000E946A0688E392E09F938F930E94FC04A2
:103940000F900F9080E090E0892B21F088E090E0CC
:103950000E94000081E08093CA01C4E0DFEF1AE119
:103960008091CB018093220310922303D0932703ED
:103970001093260380912503807E83608093250326
:1039800062E081E293E00E94DA030E9468068BE124
:103990000E94BC14811102C0C15011F781E792E06E
:1039A0009F938F930E94FC040E940F0D0F900F9025
:1039B0008091CA011F928F938091CD011F928F93A6
:1039C0008091CC011F928F938091CB011F928F9396
:1039D00085E492E09F938F930E94FC048DB79EB77D
:1039E0000A960FB6F8949EBF0FBE8DBFA8950E9491
:1039F000AB040E9489090E947813F8CFCF931092EC
:103A000004021092030288EE93E0A0E0B0E08093FD
:103A1000050290930602A0930702B093080287E381
:103A200091E0909302028093010285EC90E09093E4
:103A30000E0280930D0284EC90E09093100280932C
:103A40000F0280EC90E0909312028093110281ECBF
:103A500090E0909314028093130282EC90E0909394
:103A600016028093150286EC90E0909318028093E2
:103A7000170210921A0210921B0210921C0210924E
:103A80001D0282E493E00E94CA1B81E293E00E943F
:103A9000CA1B8FEF9FEF90931B0380931A032EE5B1
:103AA00031E030931D0320931C032AE030E0309373
:103AB0001F0320931E0321E02093200390931903FA
:103AC000809318038CE390E090932201809321016E
:103AD00010929E0210929F021092A0021092A102D8
:103AE00060E084E00E949615E4E0F6E0E491E09363
:103AF0006303E0EFF5E0E491F0E0EE0FFF1FEE511D
:103B0000FA4F85919491909365038093640310928A
:103B10006E031092700310926F03EEE6F3E01292C0
:103B200083E0E636F807D9F78DE096E19093170326
:103B30008093160383E693E090930B0380930A032C
:103B4000109209031092050389E080930603C1E0F7
:103B5000C0930703C093080384EE92E00E94CA1B3F
:103B60001092EA021092E90283EC92E00E94CA1BD2
:103B7000C093C90282E08093C80282EA92E00E9468
:103B8000CA1BC093A80283E08093A702CF91089537
:103B9000AA1BBB1B51E107C0AA1FBB1FA617B70773
:103BA00010F0A61BB70B881F991F5A95A9F780958F
:103BB0009095BC01CD01089597FB072E16F4009453
:103BC00007D077FD09D00E94C81D07FC05D03EF440
:103BD000909581959F4F0895709561957F4F0895B9
:103BE000A1E21A2EAA1BBB1BFD010DC0AA1FBB1F01
:103BF000EE1FFF1FA217B307E407F50720F0A21B73
:103C0000B30BE40BF50B661F771F881F991F1A94DF
:103C100069F760957095809590959B01AC01BD0109
:103C2000CF0108950E945226B7FF0895821B930B7F
:103C30000895EE0FFF1F0590F491E02D0994505860
:103C4000BB27AA270E94371E0C94BB250E94AD25D6
:103C500038F00E94B42520F039F49F3F19F426F47F
:103C60000C94AA250EF4E095E7FB0C94A425E92F0B
:103C70000E94CC2558F3BA1762077307840795078B
:103C800020F079F4A6F50C94EE250EF4E0950B2EB9
:103C9000BA2FA02D0B01B90190010C01CA01A0019E
:103CA0001124FF27591B99F0593F50F4503E68F1F9
:103CB0001A16F040A22F232F342F4427585FF3CF3A
:103CC000469537952795A795F0405395C9F77EF40B
:103CD0001F16BA0B620B730B840BBAF09150A1F054
:103CE000FF0FBB1F661F771F881FC2F70EC0BA0FDA
:103CF000621F731F841F48F4879577956795B79562
:103D0000F7959E3F08F0B0CF9395880F08F099275C
:103D1000EE0F9795879508950E94D42588F09F57B8
:103D200098F0B92F9927B751B0F0E1F0660F771FDF
:103D3000881F991F1AF0BA95C9F714C0B13091F0D5
:103D40000E94EE25B1E008950C94EE25672F782FA0
:103D50008827B85F39F0B93FCCF38695779567959A
:103D6000B395D9F73EF490958095709561957F4F06
:103D70008F4F9F4F08950E94132508F48FEF0895E9
:103D80000E941325880B990B089581E090E0F89428
:103D90000C946126FB01DC014150504048F0019039
:103DA0000D920020C9F701C01D9241505040E0F72C
:103DB0000895EF920F931F93CF93DF93E80147FD90
:103DC00002C034E001C034E1E42F440FFF0BF7FFE1
:103DD00003C0F195E195F109E32E022F2E2FAE01DC
:103DE0000E94AF21CE01DF91CF911F910F91EF90F3
:103DF0000895FC0188279927E89421912032E9F35E
:103E0000293010F02E30C8F32B3241F02D3239F426
:103E1000689404C00E946D1F820F911D2191205350
:103E20002A30C0F31EF4909581959F4F08951F93FB
:103E3000FC0199278827BC01E89411911032E9F31D
:103E4000193010F01E30C8F31B3251F01D3249F406
:103E5000689406C00E94581F610F711D811D911D3D
:103E6000119110531A30B0F33EF4909580957095EF
:103E700061957F4F8F4F9F4F1F910895BB274A3009
:103E800031F4992322F4BDE2909581959F4F0C94D3
:103E9000981FBB272A3051F4992342F4BDE2909534
:103EA0008095709561957F4F8F4F9F4F0C94761F33
:103EB000592F482F372F262F660F771F881F991FDE
:103EC000660F771F881F991F620F731F841F951F2E
:103ED000660F771F881F991F08957AE0979F902D8E
:103EE000879F802D910D11240895BB27FA01A62FDD
:103EF0006217710581059105330B30FB66F0AA2727
:103F0000660F771F881F991FAA1FA21710F0A21B08
:103F100063953850A9F7A05DAA3308F0A95DA19375
:103F200036F7B111B1931082CA010C942B24BB2730
:103F3000FB015527AA27880F991FAA1FA41710F065
:103F4000A41B83955051B9F7A05DAA3308F0A95D71
:103F5000A193009779F7B111B1931192CB010C9411
:103F60002B24AEE0B0E0E7EBFFE10C9429268C01B6
:103F7000CA014EE04C831A83098377FF02C060E0D8
:103F800070E8FB013197FE83ED83A901BC01CE01EE
:103F900001960E94DD1F4D815E8157FD0AC02F8171
:103FA0003885421753070CF49A01F801E20FF31F0A
:103FB00010822E96E4E00C944526ACE0B0E0E3EEEF
:103FC000FFE10C941B267C016B018A01FC01178226
:103FD0001682838181FFBDC1CE0101964C01F7019C
:103FE0009381F60193FD859193FF81916F01882361
:103FF00009F4ABC1853239F493FD859193FF81912A
:104000006F01853229F4B70190E00E943B24E7CF8D
:10401000512C312C20E02032A0F48B3269F030F4A6
:10402000803259F0833269F420612CC08D3239F02E
:10403000803339F4216026C02260246023C02860C8
:1040400021C027FD27C030ED380F3A3078F426FF25
:1040500006C0FAE05F9E300D1124532E13C08AE093
:10406000389E300D1124332E20620CC08E3221F484
:1040700026FD6BC1206406C08C3611F4206802C096
:10408000883641F4F60193FD859193FF81916F018C
:104090008111C1CF982F9F7D9554933028F40C5FE8
:1040A0001F4FFFE3F9830DC0833631F0833771F082
:1040B000833509F05BC022C0F801808189830E5FDF
:1040C0001F4F44244394512C540115C03801F2E091
:1040D0006F0E711CF801A080B18026FF03C0652D12
:1040E00070E002C06FEF7FEFC5012C870E94202493
:1040F0002C0183012C852F77222E17C03801F2E086
:104100006F0E711CF801A080B18026FF03C0652DE1
:1041100070E002C06FEF7FEFC5012C870E9415246D
:104120002C012C852068222E830123FC1BC0832DAB
:1041300090E048165906B0F4B70180E290E00E9482
:104140003B243A94F4CFF50127FC859127FE819119
:104150005F01B70190E00E943B2431103A94F1E0F6
:104160004F1A51084114510471F7E5C0843611F01B
:10417000893639F5F80127FF07C060817181828196
:1041800093810C5F1F4F08C060817181072E000C66
:10419000880B990B0E5F1F4F2F76722E97FF09C069
:1041A00090958095709561957F4F8F4F9F4F2068B8
:1041B000722E2AE030E0A4010E947324A82EA818D1
:1041C00044C0853729F42F7EB22E2AE030E025C086
:1041D000F22FF97FBF2E8F36C1F018F4883579F0B1
:1041E000B4C0803719F0883721F0AFC02F2F20617D
:1041F000B22EB4FE0DC08B2D8460B82E09C024FFF2
:104200000AC09F2F9660B92E06C028E030E005C096
:1042100020E130E002C020E132E0F801B7FE07C043
:1042200060817181828193810C5F1F4F06C0608124
:10423000718180E090E00E5F1F4FA4010E94732403
:10424000A82EA818FB2DFF777F2E76FE0BC0372DEA
:104250003E7FA51450F474FE0AC072FC08C0372DCE
:104260003E7E05C0BA2C372D03C0BA2C01C0B52C38
:1042700034FF0DC0FE01EA0DF11D8081803311F481
:10428000397E09C032FF06C0B394B39404C0832FB3
:10429000867809F0B39433FD13C030FF06C05A2C62
:1042A000B31418F4530C5B18B32CB31468F4B701AF
:1042B00080E290E03C870E943B24B3943C85F5CF9C
:1042C000B31410F43B1801C0312C34FF12C0B701F5
:1042D00080E390E03C870E943B243C8532FF17C07E
:1042E00031FD03C088E790E002C088E590E0B701A7
:1042F0000CC0832F867859F031FF02C08BE201C0D9
:1043000080E237FD8DE2B70190E00E943B24A514C6
:1043100038F4B70180E390E00E943B245A94F7CF31
:10432000AA94F401EA0DF11D8081B70190E00E948A
:104330003B24A110F5CF332009F451CEB70180E220
:1043400090E00E943B243A94F6CFF7018681978152
:1043500002C08FEF9FEF2C96E2E10C9437264F922C
:104360005F926F927F929F92AF92BF92CF92DF92B5
:10437000EF92FF920F931F93CF93DF93CDB7DEB7EA
:1043800029970FB6F894DEBF0FBECDBF6A01122F7A
:10439000B02E2BE3201720F0FF24F394F00E02C080
:1043A000BCE3FB2E0F2D27E0AE014F5F5F4F0E9455
:1043B0003D23AC018981982F9970913031F0E1FC57
:1043C00006C0E0FE06C090E205C09DE203C09BE28D
:1043D00001C090E0EE2DE07183FF3CC0911102C05E
:1043E00083E001C084E0811718F4212F281B01C04D
:1043F00020E0E1110BC0F601822F30E2882319F092
:1044000031938150FBCFC20ED11C20E0992329F0BB
:10441000D6019C93F60131966F01C6010396E2FE28
:104420000AC03EE4D6013C9341E411964C931197A7
:1044300012963C9306C03EE6F601308341E6418386
:104440003283FC01322F40E2332309F442C041930E
:104450003150FACF82FF44C0911102C083E001C005
:1044600084E0811718F4212F281B01C020E0E111FE
:104470000BC0F601822F30E2882319F0319381506E
:10448000FBCFC20ED11C20E0992329F0D6019C93CA
:10449000F60131966F01C6010396E2FE0BC039E4C6
:1044A000D6013C933EE411963C93119736E4129664
:1044B0003C9307C039E6F60130833EE6318336E6A9
:1044C0003283FC01322F40E2332319F04193315003
:1044D000FBCFFC01E20FF11D10828EEF9FEFB7C002
:1044E000F1E0911101C0F0E06F2F70E01416150695
:1044F00024F49A012F5F3F4F02C021E030E0260FE5
:10450000371FBB2029F06B2D70E06F5F7F4F02C01B
:1045100060E070E0260F371F612F70E02617370725
:104520001CF4121B212F01C020E03E2D387159F4DC
:10453000D601322F60E2332319F06D933150FBCF57
:10454000C20ED11C20E0FF2331F0D6019C93B601AE
:104550006F5F7F4F6B01E1110BC0F601922F30E3CB
:10456000992319F031939150FBCFC20ED11C20E05A
:104570009F2D940F3A81782F7071A72E84FF03C06E
:10458000313309F49150191624F4993018F098E059
:1045900001C091E0E42F852F57FF02C0E0E080E0EA
:1045A0006E2F782FE0E0F0E0AEE29A2E3A01691A21
:1045B00071082A01461A570A0B2D10E01195019532
:1045C00011096F3F8FEF780729F4D6019C92C6013D
:1045D00001966C014617570784F0661677066CF44F
:1045E0007F01E40CF51CA1E0B0E0AC0FBD1FEA0EAA
:1045F000FB1ED7011196BC9002C090E3B92E61500A
:1046000071093196C60101967C016017710724F08B
:10461000D601BC926C01D5CF6417750741F43633CF
:1046200020F4353321F4A11002C081E3B82EF60145
:10463000B082F701822F90E2882319F09193815084
:10464000FBCFF701E20FF11D108280E090E0299688
:104650000FB6F894DEBF0FBECDBFDF91CF911F9193
:104660000F91FF90EF90DF90CF90BF90AF909F9011
:104670007F906F905F904F900895283008F027E06A
:104680003327DA01990F311D87FD9160009661058E
:10469000710539F432602E5F3D9330E32A95E1F7DE
:1046A00008959F3F30F080387105610509F03C5F47
:1046B0003C5F3D93913008F08068911DDF93CF936C
:1046C0001F930F93FF92EF92192F987F9695E92FE2
:1046D00096959695E90FFF27E254F94F99273327CE
:1046E000EE24FF24A701E70105900894079428F41D
:1046F000360FE71EF81E491F511D660F771F881FD2
:10470000991F0694A1F70590079428F4E70EF81E68
:10471000491F561FC11D770F881F991F661F0694DA
:10472000A1F70590079428F4F80E491F561FC71FDC
:10473000D11D880F991F661F771F0694A1F705905A
:10474000079420F4490F561FC71FD81F990F661FE3
:10475000771F881F0694A9F784911095177041F070
:10476000D695C79557954795F794E7941A95C1F74D
:10477000E4E6F6E068941590159135916591959170
:1047800005907FE27395E118F10A430B560BC90BB4
:10479000D009C0F7E10CF11E431F561FC91FD01DE1
:1047A0007EF4703311F48A95E6CFE894015030F02E
:1047B000080F0AF40027021708F4202F2395022F70
:1047C0007A3328F079E37D932A95E9F710C07D9339
:1047D0002A9589F6069497956795379517951794B6
:1047E000E118F10A430B560BC90BD00998F0239539
:1047F0007E9173957A3308F070E37C932013B8F7B9
:104800007E9170617D9330F0839571E37D9370E3C9
:104810002A95E1F71124EF90FF900F911F91CF910E
:10482000DF91992787FD90950895FC0105906150CF
:1048300070400110D8F7809590958E0F9F1F0895B6
:10484000FC016150704001900110D8F7809590955F
:104850008E0F9F1F0895DC01FC01672F7191772354
:10486000E1F7329704C07C916D9370836291AE172B
:10487000BF07C8F308950F931F93CF93DF93FB01F6
:10488000238121FD03C08FEF9FEF28C022FF16C0B8
:1048900046815781248135814217530744F4A08112
:1048A000B1819D012F5F3F4F318320838C932681FF
:1048B00037812F5F3F4F3783268310C0EB01092FCD
:1048C000182F0084F185E02D0995892BE1F68E8162
:1048D0009F8101969F838E83812F902FDF91CF91AF
:1048E0001F910F910895FA01AA27283051F1203124
:1048F00081F1E8946F936E7F6E5F7F4F8F4F9F4F74
:10490000AF4FB1E03ED0B4E03CD0670F781F891FB5
:104910009A1FA11D680F791F8A1F911DA11D6A0F83
:10492000711D811D911DA11D20D009F468943F9136
:104930002AE0269F11243019305D3193DEF6CF0135
:104940000895462F4770405D4193B3E00FD0C9F7FB
:10495000F6CF462F4F70405D4A3318F0495D31FD68
:104960004052419302D0A9F7EACFB4E0A6959795BB
:10497000879577956795BA95C9F700976105710591
:1049800008959B01AC010A2E0694579547953795DB
:104990002795BA95C9F7620F731F841F951FA01D35
:1049A00008950E94132508F481E00895E89409C051
:1049B00097FB3EF490958095709561957F4F8F4F52
:1049C0009F4F9923A9F0F92F96E9BB279395F69568
:1049D000879577956795B795F111F8CFFAF4BB0FE6
:1049E00011F460FF1BC06F5F7F4F8F4F9F4F16C04A
:1049F000882311F096E911C0772321F09EE8872FD4
:104A0000762F05C0662371F096E8862F70E060E08F
:104A10002AF09A95660F771F881FDAF7880F969508
:104A2000879597F90895990F0008550FAA0BE0E8AC
:104A3000FEEF16161706E807F907C0F01216130660
:104A4000E407F50798F0621B730B840B950B39F4A0
:104A50000A2661F0232B242B252B21F408950A2606
:104A600009F4A140A6958FEF811D811D08950E9434
:104A70004A250C94BB250E94AD2538F00E94B42530
:104A800020F0952311F00C94A4250C94AA25112450
:104A90000C94EF250E94CC2570F3959FC1F3950FE0
:104AA00050E0551F629FF001729FBB27F00DB11DB2
:104AB000639FAA27F00DB11DAA1F649F6627B00D42
:104AC000A11D661F829F2227B00DA11D621F739F2B
:104AD000B00DA11D621F839FA00D611D221F749F39
:104AE0003327A00D611D231F849F600D211D822F80
:104AF000762F6A2F11249F5750409AF0F1F08823A7
:104B00004AF0EE0FFF1FBB1F661F771F881F9150D3
:104B10005040A9F79E3F510580F00C94A4250C94B9
:104B2000EF255F3FE4F3983ED4F38695779567953C
:104B3000B795F795E7959F5FC1F7FE2B880F911DFD
:104B40009695879597F9089597F99F6780E870E0A3
:104B500060E008959FEF80EC089500240A941616F3
:104B6000170618060906089500240A94121613065B
:104B7000140605060895092E0394000C11F48823E9
:104B800052F0BB0F40F4BF2B11F460FF04C06F5F05
:104B90007F4F8F4F9F4F089557FD9058440F551FDB
:104BA00059F05F3F71F04795880F97FB991F61F0AF
:104BB0009F3F79F087950895121613061406551F26
:104BC000F2CF4695F1DF08C0161617061806991F92
:104BD000F1CF86957105610508940895E894BB2787
:104BE00066277727CB0197F90895DC01CB01FC01FB
:104BF000F999FECF06C0F2BDE1BDF89A319600B436
:104C00000D9241505040B8F70895F999FECF92BDEA
:104C100081BDF89A992780B50895262FF999FECF7E
:104C20001FBA92BD81BD20BD0FB6F894FA9AF99AC9
:104C30000FBE019608952F923F924F925F926F920E
:104C40007F928F929F92AF92BF92CF92DF92EF921C
:104C5000FF920F931F93CF93DF93CDB7DEB7CA1B9D
:104C6000DB0B0FB6F894DEBF0FBECDBF09942A88C8
:104C7000398848885F846E847D848C849B84AA8470
:104C8000B984C884DF80EE80FD800C811B81AA81FD
:104C9000B981CE0FD11D0FB6F894DEBF0FBECDBFC8
:104CA000ED010895A29FB001B39FC001A39F700DB5
:104CB000811D1124911DB29F700D811D1124911D24
:064CC0000895F894FFCFF7
:104CC600FFFFFF00FCE1A8A8D1078B0768070000DB
:104CD600570743075C080808FF900800001D0709EE
:104CE600073C000C160C160000250480005E00BC74
:104CF600007701000000000F138B12D812B612CAFB
:104D06001256136263004E41434B004F4B00210085
:104D1600526563656976656420000D0A004F464654
:104D2600004F4E0054656D70657261747572653A18
:104D360020006E616E00696E66006F7666002E005A
:104D460053656E736F722052656C617900302E3434
:104D56000054656D7065726174757265004C6967A3
:104D66006874207377697463682F64696D6D657202
:104D7600006F6B00322E302E312D6265746100009B
:1078000011E0A0E0B1E0E4EFFFE702C005900D92C7
:10781000A630B107D9F721E0A6E0B1E001C01D9282
:10782000AE34B207E1F7CDB7DEB76197DEBFCDBFAB
:10783000112484B78093270114BE88E180936000EF
:1078400089E280936000259A86E020E295B1922734
:1078500095B93FEF40E792E0315040409040E1F76A
:1078600000C00000815091F78091270181FD11C077
:107870008EE284B981E58CBD812C912C55245394E2
:1078800011E0CC24CA94DC2CAA24A39472E0B72E75
:10789000FDC082E08093C00088E18093C10086E053
:1078A0008093C20080E18093C400E12CF12CC12CB4
:1078B000D12CAA24AA94BA2C01E0A8950BD3813428
:1078C00071F408D3898B12D38989823811F482E04C
:1078D00053C0813811F485E64FC083E04DC0823437
:1078E00011F484E103C0853419F485E00BD363C03F
:1078F000853541F4EFD2E82EEDD2F12CF82AEE0CCA
:10790000FF1C58C0863521F484E0FCD280E034C0EE
:107910008436E1F4DFD2DED2882EDCD2C80CD11C52
:10792000912C981480F4D6D2182FD4D2F701E90DF7
:10793000F11D212F30E0382B090107BFE8951124F4
:1079400093949394EECFC7018CD134C0843761F403
:10795000C1D2C0D2182FBED2C9D2F70185917F0102
:10796000B2D21150D1F728C0853741F4BFD28EE191
:10797000AAD285E9A8D28FE0A6D21DC08135D1F464
:10798000BA82A982BC82AB82C60134E09695879503
:107990003A95E1F79E838D83C60175D198878F83D1
:1079A00048E050E06BE171E0CE01019602D39ED237
:1079B00011E002C09BD210E080E185D2112309F4CE
:1079C0007CCF56CF43E050E060E070E089E291E088
:1079D000E0D248E050E06BE171E0CE010196D9D2EF
:1079E00029982A9A63E083E29AD16CE485E297D1E0
:1079F00067E286E294D163E780E591D164E08DE3AC
:107A00008ED161E082E28BD161E081E288D161E0D8
:107A10008CE385D121E041E060E070E086E058D160
:107A2000873209F008C180912A01809328011092C1
:107A30004D018FEF80932A0180932B0103E22AE00E
:107A400047E06FEF66D260E084E269D160E08EEFDC
:107A500083D180912A018F3F09F4EDC080912901E3
:107A600081508E3F08F46CC003E222E043E06FEFE8
:107A700080E04FD263E084E06FD1882379F383E321
:107A800091E055D2682F80E090E0A2D2F999FECF24
:107A900099CF46E050E063E371E08DE091E064D27D
:107AA000892B79F5C3018150904F082F02950077FB
:107AB00040E050E0602F70E0DA01A45DBE4FFA01B3
:107AC000E60FF71F1E962C911E9730E0322F2227CB
:107AD0001D96AC912A2B090157BEE89511244E5FE3
:107AE0005F4F4031510541F7011106C044E0880F56
:107AF000991F4A95E1F7B5D0E114F10409F482C069
:107B0000370189859A8590930E0180930D018B85AD
:107B10009C859093100180930F01730121E0E21A7C
:107B2000F108F0921201E092110104EC22E342E02C
:107B30006FEF80E0EED168E083E00ED18111A9CF34
:107B40006FE584E2ECD010930D0110920E0103EC6E
:107B500022E14FE06FEF80E0DCD160E08FE0FCD00D
:107B60008D819E8124E0880F991F2A95E1F78BD0A3
:107B700098878F8388E0FE013196ADE0B1E00190F7
:107B80000D928A95E1F7B0921601A092150104ECCE
:107B900022E540E06FEF80E0BCD163E081E0DCD023
:107BA000882309F448C088E0E3E3F1E0DE01199698
:107BB00001900D928A95E1F748E050E0BE01675FC1
:107BC0007F4FCE010196D0D1892BA9F18091370149
:107BD000909138018038974070F588E0FE01399621
:107BE000DE01119601900D928A95E1F7D886CF8239
:107BF00048E050E06BE171E0CE010196DAD16D848E
:107C00007E847FCF8D859E8534E0880F991F3A95BD
:107C1000E1F739D02F8538898217930721F01E8626
:107C20001D86188A1F8648E050E06BE171E0CE01A6
:107C30000996BFD12BCF8D819E8124E0880F991F9B
:107C40002A95E1F720D02F8138858217930709F014
:107C50001DCF1CBCA89580912701282EF401099501
:107C600015CF23E0FC0127BFE89507B600FCFDCF48
:107C700025E0FC0127BFE89507B600FCFDCF81E1B8
:107C800087BFE8950895AC01413088E7580710F0A8
:107C900040E058E7E0E0F0E08FEF9FEF411551053D
:107CA000B1F02591822768E0DC01B695A7959C018B
:107CB000217033273195219531092170307AC9011E
:107CC0008A279B27615081F741505109E7CF0895DA
:107CD0002A988EBD0DB407FEFDCF8EB59FEF4150A3
:107CE000D0F0222369F09EBD0DB407FEFDCF8EB506
:107CF00061157105A1F3DB018C936F5F7F4FEFCFAF
:107D0000FB013196DB018C918EBD0DB407FEFDCFDA
:107D10008EB5BF01E4CF2A9A089520E0D9CFCF9342
:107D2000DF931F92CDB7DEB7698320E041E0BE014B
:107D30006F5F7F4FCDDF0F90DF91CF91089540E0CF
:107D400060E070E082EEE9DF40E060E070E081EE4C
:107D5000E4DF60E787E2E3CFEF92FF920F931F9398
:107D6000CF93DF93F82ED62FEE24EA94A895C091F6
:107D70000901C695C695C695C95F10912A01299833
:107D80006EE080E2CCDFDBDF1093000145E060E0D5
:107D900071E08AE2C2DF45E060E071E080E3BDDFD0
:107DA0004C2F66E071E080EAB8DF299A2A98EEBC91
:107DB0000DB407FEFDCFCEB52A9A8C2F8073B1F398
:107DC000299860E387E2ABDFC4FF05C040E060E0D4
:107DD00070E081EEA2DF6FE080E2A1DF6091290117
:107DE0008AE29DDFACDF299A0FEF1FEFA89521E013
:107DF00041E060E070E087E16BDF80FF02C04FEFA1
:107E000044C021E041E060E070E080E661DF813263
:107E100030F040E060E070E082EE7FDF80E021E063
:107E2000482F6CE271E081E653DF89DF90912E01EB
:107E3000809129019813E3CF409131018091300165
:107E40008770833011F5483001F580912D015091F4
:107E50002801851303C091E090934D019091330167
:107E6000692F70E020912B0130E021503109621719
:107E7000730724F420914D01222311F0851305C0CE
:107E80009F5F90932B0180932A0191E04F1190E026
:107E900085EA8A95F1F700000150110921F4892F34
:107EA000D11105C009C0992309F4A0CF04C0D15055
:107EB000992309F45BCF81E0DF91CF911F910F915E
:107EC000FF90EF9008959091C00095FFFCCF8093B4
:107ED000C60008958091C00087FFFCCF8091C0004C
:107EE00084FD01C0A8958091C6000895F3DF80321B
:107EF00039F088E18093600088E080936000FFCFD4
:107F000084E1E1CFCF93C82FE5DFC150E9F7CF91EE
:107F1000EDCF0F9390912901E6E0F1E091839083FA
:107F2000828366834583048323830F910895FC0134
:107F300088279927E89421912032E9F3293010F01D
:107F40002E30C8F32B3239F02D3231F4689403C04F
:107F500018D0820F911D219120532A30C8F31EF4AE
:107F6000909581959F4F0895FB01DC0104C08D9190
:107F70000190801921F441505040C8F7881B990B9B
:107F800008957AE0979F902D879F802D910D112461
:107F90000895DC01CB01FC01F999FECF06C0F2BDCA
:107FA000E1BDF89A319600B40D9241505040B8F7B7
:107FB0000895DC01A40FB51F4150504040F0CB01A3
:107FC000840F951F2E9105D041505040D8F7089549
:107FD000262FF999FECF92BD81BDF89A019700B482
:107FE000021639F01FBA20BD0FB6F894FA9AF99A22
:047FF0000FBE089523
:067FF40000FCE1A8A8005A
:040000030000780081
:00000001FF
