:100000000C9463000C94010A0C94280A0C948B0045
:100010000C948B000C948B000C9463020C948B005A
:100020000C948B000C948B000C948B000C948B0024
:100030000C948B000C948B000C948B000C948B0014
:100040000C944F0A0C948B000C944E0D0C94800D64
:100050000C948B000C948B000C948B000C948B00F4
:100060000C948B000C948B0000000008000201002F
:100070000003040700000000000000000102040863
:100080001020408001020408102001020408102002
:10009000040404040404040402020202020203032E
:1000A00003030303000000002300260029000000D2
:1000B0000000250028002B0000000000240027007D
:1000C0002A009709B00D11241FBECFEFD8E0DEBF84
:1000D000CDBF11E0A0E0B1E0E2EBFDE102C0059090
:1000E0000D92AE35B107D9F722E0AEE5B1E001C01F
:1000F0001D92AB38B207E1F710E0C6ECD0E004C0C7
:100100002297FE010E94400EC23CD107C9F70E940F
:1001100083090C94D70E0C940000EEEDF1E0808181
:100120008460808381818F708183089560E083E0A3
:100130000E94710B61E083E00E94AA0B41E050E055
:1001400065EA70E081E00C94E10983E00E94E00B35
:1001500021E0892B09F020E02093880108958EBDCD
:1001600000000DB407FEFDCF8EB50895BF92CF926B
:10017000DF92EF92FF920F931F93CF93DF93C82FDD
:100180008B01C42EB22E8091E301882399F03FB7F2
:10019000F8948091E301813059F48DB38093E101AB
:1001A0008DB39091E201909598239DBB3FBF02C013
:1001B0003093E10181E58CBD81E08DBD60E08AE096
:1001C0000E94AA0B8AE090E00E94020B8C2F0E94F2
:1001D000AF00D82EE801CC20B9F0BB2051F08FEF52
:1001E0000E94AF00D82E0115110561F08883219679
:1001F00009C07E018FEFE81AF80A88810E94AF00DB
:10020000D82EE701CA94E7CF61E08AE00E94AA0BEA
:100210008091E301882361F09FB7F8942091E30176
:100220008091E101213019F48DBB9FBF01C08FBFC8
:100230008AE090E00E94020B8D2DDF91CF911F91FB
:100240000F91FF90EF90DF90CF90BF900895CF93E4
:10025000DF931F92CDB7DEB7698320E041E0BE0196
:100260006F5F7F4F0E94B6000F90DF91CF9108958E
:1002700060E089E00E94AA0B6CE080E20C94270108
:100280008091DE018B7F8F7E8093DE0180E090E0A5
:10029000892B21F087E690E00E9400000C94380141
:1002A0006FE080E20E942701609106016F3F19F024
:1002B0008AE20E94270161E089E00C94AA0B21E008
:1002C00041E060E070E00C94B600CF9386E00E94BD
:1002D0005F01C82F85E00E945F0191E08C3409F036
:1002E00090E081E0C73209F080E08923CF91089542
:1002F00020E040E060E070E00C94B600EF92FF92E6
:100300001F93CF93DF931F92CDB7DEB7182F7B01DA
:1003100060E089E049830E94AA0B82E890E00E9495
:10032000020B6EE080E20E94270184E690E00E94CA
:10033000020B612F8AE20E942701612F80E30E9455
:10034000270181EE0E94780149811F3F11F480EB63
:1003500001C080EA20E0B7010E94B60061E089E0B8
:100360000E94AA0BE12CF12C8FEF0E947801182F2C
:10037000807321F481E0E81AF108B1F760E089E0C8
:100380000E94AA0B60E387E20E94270114FF03C0CA
:1003900081EE0E9478010E94500115FB882780F9A8
:1003A0000F90DF91CF911F91FF90EF9008951F93D1
:1003B000CF93DF93EC0121E041E060E070E080E664
:1003C0000E94B600182F813220F082EE0E94780140
:1003D00010E021E0412FBE0181E60E94B60060E4FA
:1003E00087E20E942701812FDF91CF911F9108950D
:1003F000CF9361E089E00E94710B61E08AE00E9486
:10040000710B0E94AA0960E089E00E94AA0B61E0DA
:100410008AE00E94AA0B6EE080E20E94270165E05C
:1004200070E080E090E00E94C80A63E083E20E94EE
:1004300027016FE584E20E9427016CE485E20E94B7
:10044000270167E286E20E94270163E780E50E94B8
:10045000270166E08DE30E9427010E946501C82FF5
:10046000882371F162E082E20E94270160E081E26C
:100470000E94270163E08CE30E9427018FEF8093A5
:10048000070120E045E067E071E08BE20E94B600E2
:1004900020E045E067E071E08AE20E94B60020E0DB
:1004A00045E067E071E080E30E94B60082EE0E94C2
:1004B000780181EE0E94780160E787E20E942701BF
:1004C0008C2FCF9108951F920F920FB60F92112487
:1004D0000F900FBE0F901F9018952091D001309172
:1004E000D1014091DF012817390741F0407F409347
:1004F000DF019093D1018093D00108C091E0940F67
:100500009F70842F807F892B8093DF01E091D00141
:10051000F091D1010190F081E02D309709F009951B
:100520000E94990A6093D2017093D3018093D40101
:100530009093D50108958091DF0182958F7090E0AE
:10054000069724F08CE191E00C946D0208950F93CE
:100550001F930E94990A0091D2011091D30120911A
:10056000D4013091D501601B710B820B930B1F914D
:100570000F9108950E94A702613D77408105910582
:1005800020F48091DE0181FF08958091CD018F3F9D
:1005900081F08091DE018E7F8093DE0180E090E02B
:1005A000892B21F085E090E00E94000088E191E035
:1005B0001AC00E94A702613D774081059105A8F00D
:1005C0008091DF018F7090E003971CF48CE191E043
:1005D0000AC080E090E0892B21F088E690E00E943C
:1005E00000008CE091E00C946D0208958091CC01A4
:1005F0008F3F59F080E090E0892B21F087E090E078
:100600000E94000084E191E01AC00E94A702613DAF
:10061000774081059105A8F08091DF018F7090E00F
:1006200003971CF488E191E00AC080E090E0892BF8
:1006300021F089E690E00E9400008CE091E00C94AB
:100640006D0208950E94A7026131774281059105EC
:1006500020F080E291E00C946D020895E091D001C9
:10066000F091D1010280F381E02D309709F00994D7
:1006700008958CE091E09093D1018093D00180E2C5
:1006800091E00C946D020F931F93CF93DF93082F8B
:10069000EB018091CC0188831B8112FD04C016956B
:1006A0001695169501C010E220E030E0232B21F0D2
:1006B00080E090E00E940000212F30E02A313105D7
:1006C0001CF447E0410F01C040E2BE01802F0E94B0
:1006D0007E01811105C081E00F3F19F080E001C06B
:1006E00081E0DF91CF911F910F910895CF93BC01CD
:1006F000FC0182819091DE0190FF03C08F3F29F5BC
:1007000005C08F3F19F0C091CD0101C0CFEF8C2FF4
:100710000E9443039091CD01C91318C081110EC0EE
:1007200080E090E0892B21F085E690E00E940000B7
:100730008091DF01805F8093DF0107C08091DF013E
:100740008F708093DF0181E001C080E0CF91089538
:100750002091DE0122FD0C94760380E008958F3F06
:1007600051F08093060163E082E20E94270161E07C
:1007700081E20E9427010C945001CF93DF931F92D6
:10078000CDB7DEB7682F8FEF860F8E3F68F460938A
:10079000CC01862F69830E94AF03698180E090E0DD
:1007A0000E94C50E81E009C080E090E0892B21F015
:1007B0008CE690E00E94000080E00F90DF91CF91E6
:1007C00008958091DE01877F8F7E8093DE011092F5
:1007D000D6011092D7011092D8011092D90143E0AE
:1007E00050E060E070E08CEC91E00E94B50E0E9459
:1007F000F80181110BC080E090E0892B21F087E6A1
:1008000090E00E9400008CE091E00FC08091DE013A
:1008100080618093DE018091CC018F3F21F00E94A6
:10082000BD03882381F38CE191E00C946D02CF939A
:10083000DF93FC01108211821282138214821582CE
:100840001682DC0117968AE1ED0119928A95E9F783
:1008500083818C7F82608383DF91CF910895FC0137
:100860002481229526952770213011F487810895DF
:10087000211104C007960E94440E089580E0089557
:100880000E942F0491E0811101C090E0892F08950A
:10089000FC012481229526952770253029F4678153
:1008A0007085818592850895211103C007960C9467
:1008B000620E60E070E0CB0108950F931F93CF9319
:1008C000DF93EC016115710561F0FB0101900020DF
:1008D000E9F73197E61BF70BE931F10518F0E9E18B
:1008E00001C0E0E00E2F10E0C801A3E0880F991FBF
:1008F000AA95E1F79B819770982B9B838C818F71D0
:100900008C83EE2329F0A801CE0107960E94890E60
:10091000FE01E00FF11F1782CE01DF91CF911F91F1
:100920000F910895CF93DF93EC018091CC018983DF
:100930006A838FEF8E838FE08D838C81807E8360CE
:100940008C8366E371E0CE010E945D048B81877029
:1009500080618B838C818F71806C8C8381E08F832D
:100960001886CE01DF91CF910C94A80380E090E02F
:10097000892B21F084E090E00E9400008091DE014C
:10098000897F81608093DE018FEF8093CE01809319
:10099000CD019091CC0190938B0180938C01809339
:1009A000900187E080938F0180918E01807E83602B
:1009B00080938E0166E371E08AE891E00E945D0415
:1009C0000C9476038091CC018F3F11F580E090E08C
:1009D000892B21F086E090E00E9400008091CC01FC
:1009E00080938B0110928C018FEF8093900183E0B4
:1009F00080938F0180918E01807E836080938E0131
:100A000066E371E08AE891E00E945D040C9476034D
:100A10000895FC01838187708860838384818F714E
:100A2000806284836783CF010895FC01838187708E
:100A30008860838384818F71806284836783CF0120
:100A40000895FC0184818F71806A8483838187701B
:100A5000806283834783508761877287CF010895BF
:100A60000C94A8032091CC01FC0121832481207FD8
:100A70002160F8E06F9FB0011124262BFC01248334
:100A80002091890121110C94A80380E008950E940F
:100A9000A702AB01BC018091CC0180938B01109225
:100AA0008C018FEF8093900186E180938F01EEE8B7
:100AB000F1E08081807E836080838AE891E00E94FB
:100AC00021050C943005962F8F3F19F468E271E0F0
:100AD00001C0BA013091CC0130938B0110928C018E
:100AE0008093900190938F0188E0289F90011124BA
:100AF00080918E01807F822B8F7E80938E018AE889
:100B000091E00E945D040C9430050F931F93CF93E6
:100B1000DF931F92CDB7DEB78B01009709F12091CB
:100B2000CC0120938B0110928C012FEF2093900128
:100B30002BE020938F0150918E01507F536068E02D
:100B4000469F90011124522B5F7E50938E01BC0171
:100B50008AE891E049830E945D040E943005498142
:100B60000115110521F18091CC0180938B01109228
:100B70008C018FEF809390018CE080938F018091A6
:100B80008E01807F836098E0499FA0011124842B0F
:100B90008F7E80938E01B8018AE891E00E945D0407
:100BA0000F90DF91CF911F910F910C9430050F9012
:100BB000DF91CF911F910F91089540E063E371E0C1
:100BC00087E391E00E94850520E042E451E060E087
:100BD00081E00C9463056F927F928F929F92AF9207
:100BE000BF92CF92DF92EF92FF92CF93DF934B01B0
:100BF0005C01C42F622E0E94990A6B017C0181E086
:100C0000611080E08093B001712CD0E00E94990ABD
:100C10006C197D098E099F09681579058A059B0560
:100C200090F4711010C00E941F084091AF014770EE
:100C300050E04C175D0751F78091B0018611E6CF67
:100C400077247394E3CF872DDF91CF91FF90EF90BE
:100C5000DF90CF90BF90AF909F908F907F906F90DC
:100C600008951F93CF93DF9380E090E0892B21F0CC
:100C700088E090E00E94000081E080938901C4E058
:100C8000DFEF1AE18091CC0180938B0110928C01EF
:100C9000D093900110938F0180918E01807E8360AC
:100CA00080938E0162E08AE891E00E9415050E941F
:100CB00030052BE143E060ED77E080E090E00E94BA
:100CC000EB05811102C0C150E9F6DF91CF911F9170
:100CD000089580E090E0892B21F08BE090E00E9465
:100CE000000060E08AE891E00E94920420E046E380
:100CF00051E061E18FEF0E9463056091CD01809129
:100D0000CC0180938B0110928C018FEF8093900126
:100D100086E080938F0180918E01807E8360809336
:100D20008E018AE891E00E9415050E94300526E0B8
:100D300043E060ED77E080E090E00E94EB058DED10
:100D400095E0892B11F00C94DD0508959091B00188
:100D50008091AC01811156C09D30A1F480E090E0FB
:100D6000892B21F08AE090E00E94000028E088E1D1
:100D700090E00FB6F894A895809360000FBE209382
:100D80006000FFCF9B3179F48BEA91E00E94400430
:100D90008093890180E090E0892B61F189E090E007
:100DA0000E94000027C0963079F48091B20161E082
:100DB000882319F08D3409F060E06093CF0183E05F
:100DC00091E00E94C50E16C0933119F40E94690685
:100DD00011C0923119F40E9447050CC0913061F4A2
:100DE00080E090E0892B31F08BEA91E00E9448048A
:100DF0000E94000081E008959A30E1F381E09C3187
:100E000021F404C081E09A3109F080E008951F9335
:100E1000CF93DF938BEA91E00E94D70180E090E0CE
:100E2000892B21F081E090E00E9400003091AF0119
:100E3000C091B001D091AC012091AB019091AD0176
:100E40008091AE01482F4370423061F080E090E025
:100E5000892B09F4DAC08BE690E0DF91CF911F91E6
:100E60000C940000132F17704091CC01941394C080
:100E7000E82FE770869586958695893120F4880F4E
:100E8000880F880F01C088ECE82BE093AE01E6954F
:100E9000E695E695F0E0E555FE4F178233FF17C063
:100EA00081E2EBEAF1E0AAE8B1E001900D928A95C7
:100EB000E1F780918E01877F806180938E0190930E
:100EC0008B01D0938C018AE891E00E94A803809165
:100ED000AF0184FD55C0133009F052C0C43049F44D
:100EE0008BEA91E00E942F04DF91CF911F910C9427
:100EF000BD03C830D9F4C091DE01C0FF86C08BEAC3
:100F000091E00E942F048F3F09F47FC08F5F8F3FD5
:100F100009F47BC09091CE01891708F076C0C1FD1D
:100F200074C08093CE01D093CD016FC0C831A1F4BD
:100F30008091CC0180938B01D0938C018FEF8093B3
:100F4000900189E180938F0180918E01807E836082
:100F500080938E0161E04BC0C93171F48091DE0154
:100F600083FF53C0877F8093DE018BEA91E00E946C
:100F70002F048093E00149C00E94A606811145C05C
:100F800080E090E0892B09F440C08BEA91E0DF918A
:100F9000CF911F910C9400009F3FB9F5133081F55C
:100FA0008091DE0182FF02C0C73079F1C43169F55A
:100FB0008091CD01281329C00E94990A7370882757
:100FC00099270E94C80A6091CD018091CC0180933D
:100FD0008B01D0938C018FEF8093900185E18093FA
:100FE0008F0180918E01807E836080938E018AE8DC
:100FF00091E00E941505DF91CF911F910C9476032B
:101000008091CD01281709F4BBCFDF91CF911F91BB
:101010000895CF93C6E087E10E945F0180FD05C07F
:10102000C15019F00E940707F6CFCF9108950E9492
:101030002E038091DE0184FD0C9409080895A89583
:101040000C9417086F927F928F929F92AF92BF92EB
:10105000CF92DF92EF92FF92CF93DF934B015C012F
:10106000C42F622E0E94990A6B017C0181E06110FD
:1010700080E08093B001712CD0E00E94990A6C1935
:101080007D098E099F09681579058A059B05B0F4CD
:10109000711014C08091DE0184FD0E940908409106
:1010A000AF01477050E04C175D0739F77724739410
:1010B0008091B001861509F3712CDFCF872DDF9168
:1010C000CF91FF90EF90DF90CF90BF90AF909F9027
:1010D0008F907F906F9008959091DE0193FD30C0C6
:1010E0002091CC01821771F198609093DE019FEFFF
:1010F0009093E00120938B0180938C019093900159
:1011000088E180938F0180918E01807E836080933F
:101110008E0161E08AE891E00E9415050E94760345
:1011200029E143E060ED77E080E090E00E94220852
:101130008091DE01877F8093DE018091E001089538
:101140008FEF089580E008950F931F93811113C0CE
:101150000E94990A0091D6011091D7012091D801DF
:101160003091D901601B710B820B930B6031774278
:1011700081059105A8F080E00E946C08182F8F3F30
:1011800089F00E94990A6093D6017093D7018093E9
:10119000D8019093D9018091CE0118131093CE01FC
:1011A00081E001C080E01F910F91089581E00E94CD
:1011B000A408882319F080E191E002C08CE191E05D
:1011C0000C946D0280E090E0892B11F00E940000E9
:1011D00026E040E052EC61E070E08EEE91E00E948B
:1011E000EC0C80E090E0892B11F00E94000041E0BF
:1011F00050E063E071E08FEC91E00E94B50E6FEF7C
:1012000081E090E00E94C50E0E9439038091DE01CA
:1012100082FD04C0A8950E941708F8CF0E946906B5
:101220000E94310686E990E0892B11F00C9496001B
:1012300008950F931F930E94990A009162011091E3
:1012400063012091640130916501601B710B820B79
:10125000930B693E734081059105E8F00E94990A5D
:1012600060936201709363018093640190936501C0
:101270008091880190918701981769F060918801A9
:1012800086E691E00E94090560E00E9432058091A7
:101290008801809387011F910F9108950F931F93E9
:1012A0000E94990A00915E0110915F0120916001F6
:1012B00030916101601B710B820B930B61367A4E8A
:1012C00081059105C8F00E94990A60935E017093B0
:1012D0005F0180936001909361010E94A50060917D
:1012E000880186E691E00E94090560E00E943205CF
:1012F00080918801809387011F910F9108950E942A
:1013000019090C944E090E940D0B0E94E208CFE7C8
:10131000D9E006E31CE00E941F08209711F00E940C
:101320007F0901151105B9F30E94360CF4CF8BEA41
:1013300091E00E9417048AE891E00E94170486E673
:1013400091E00E94170481E080936C0180E180931A
:101350006B010895CF93CFB7F8948091E401811188
:1013600027C0EAE9F0E08491E6E8F0E09491E82F04
:10137000F0E0EE0FFF1FE854FF4FA591B4918C9160
:10138000892321F461E08AE00E94AA0B61E08AE0EF
:101390000E94710B8CB580618CBD8CB580648CBD56
:1013A00061E08DE00E94710B61E08BE00E94710BA7
:1013B0008091E4018F5F8093E401CFBFCF910895C6
:1013C00008958230E8F4E82FF0E0EE0FFF1FEC5DA7
:1013D000FE4F71836083813041F0809169008C7F82
:1013E000842B80936900E89A089580916900440FE6
:1013F000551F440F551F837F842B80936900E99A02
:1014000008951F920F920FB60F9211242F933F93BE
:101410004F935F936F937F938F939F93AF93BF93FC
:10142000EF93FF93E0912401F09125010995FF913D
:10143000EF91BF91AF919F918F917F916F915F914C
:101440004F913F912F910F900FBE0F901F901895C5
:101450001F920F920FB60F9211242F933F934F9329
:101460005F936F937F938F939F93AF93BF93EF930C
:10147000FF93E0912601F09127010995FF91EF91EB
:10148000BF91AF919F918F917F916F915F914F919C
:101490003F912F910F900FBE0F901F9018951F92A4
:1014A0000F920FB60F9211242F933F938F939F9318
:1014B000AF93BF938091E6019091E701A091E8017D
:1014C000B091E9013091E50123E0230F2D3720F49D
:1014D0000196A11DB11D05C026E8230F0296A11D8E
:1014E000B11D2093E5018093E6019093E701A0935D
:1014F000E801B093E9018091EA019091EB01A0919C
:10150000EC01B091ED010196A11DB11D8093EA019E
:101510009093EB01A093EC01B093ED01BF91AF91DB
:101520009F918F913F912F910F900FBE0F901F9021
:1015300018952FB7F8946091E6017091E7018091BA
:10154000E8019091E9012FBF08953FB7F894809189
:10155000EA019091EB01A091EC01B091ED0126B56B
:10156000A89B05C02F3F19F00196A11DB11D3FBFDB
:101570006627782F892F9A2F620F711D811D911D6B
:1015800042E0660F771F881F991F4A95D1F708958B
:101590008F929F92AF92BF92CF92DF92EF92FF9283
:1015A0006B017C010E94A50A4B015C01C114D104AE
:1015B000E104F104F1F00E941B0E0E94A50A6819D3
:1015C00079098A099B09683E73408105910570F38A
:1015D00021E0C21AD108E108F10888EE880E83E004
:1015E000981EA11CB11CC114D104E104F10429F717
:1015F000DDCFFF90EF90DF90CF90BF90AF909F90A6
:101600008F9008958230910538F0880F991F880FC8
:10161000991F05970197F1F70895789484B5826032
:1016200084BD84B5816084BD85B5826085BD85B586
:10163000816085BDEEE6F0E0808181608083E1E835
:10164000F0E010828081826080838081816080836D
:10165000E0E8F0E0808181608083E1EBF0E0808170
:1016600084608083E0EBF0E0808181608083EAE742
:10167000F0E08081846080838081826080838081CB
:10168000816080838081806880831092C10008958A
:10169000833081F028F4813099F08230A1F00895F0
:1016A0008730A9F08830B9F08430D1F4809180007F
:1016B0008F7D03C0809180008F7780938000089594
:1016C00084B58F7702C084B58F7D84BD08958091E5
:1016D000B0008F7703C08091B0008F7D8093B00001
:1016E0000895CF93DF9390E0FC01E458FF4F2491DD
:1016F000FC01E057FF4F8491882349F190E0880F67
:10170000991FFC01E854FF4FA591B49182559F4F5A
:10171000FC01C591D4919FB7611108C0F8948C91D8
:10172000209582238C93888182230AC0623051F4F1
:10173000F8948C91322F309583238C938881822B5F
:10174000888304C0F8948C91822B8C939FBFDF9187
:10175000CF9108950F931F93CF93DF931F92CDB72F
:10176000DEB7282F30E0F901E859FF4F8491F901E5
:10177000E458FF4F1491F901E057FF4F0491002303
:10178000C9F0882321F069830E94480B6981E02F0A
:10179000F0E0EE0FFF1FE255FF4FA591B4919FB708
:1017A000F8948C91611103C01095812301C0812BA5
:1017B0008C939FBF0F90DF91CF911F910F91089550
:1017C000CF93DF93282F30E0F901E859FF4F849140
:1017D000F901E458FF4FD491F901E057FF4FC4914C
:1017E000CC2391F081110E94480BEC2FF0E0EE0F1A
:1017F000FF1FEC55FF4FA591B4912C912D2381E053
:1018000090E021F480E002C080E090E0DF91CF9191
:101810000895FC01818D228D90E0805C9F4F821B9A
:1018200091098F7399270895FC01918D828D9817E6
:1018300031F0828DE80FF11D858D90E008958FEFD6
:101840009FEF0895FC01918D828D981761F0828D34
:10185000DF01A80FB11D5D968C91928D9F5F9F73E4
:10186000928F90E008958FEF9FEF089586EA9DE0B4
:10187000892B49F080E090E0892B29F00E94A60D89
:1018800081110C9400000895FC01848DDF01A80FE4
:10189000B11DA35ABF4F2C91848D90E001968F7398
:1018A0009927848FA689B7892C93A089B1898C91B7
:1018B00080648C93938D848D981306C00288F3897D
:1018C000E02D80818F7D80830895CF93DF93EC019D
:1018D000888D8823C9F0EA89FB89808185FD05C050
:1018E000A889B9898C9186FD0FC00FB607FCF5CF8A
:1018F000808185FFF2CFA889B9898C9185FFEDCFD2
:10190000CE010E94440CE7CFDF91CF910895CF9292
:10191000DF92FF920F931F93CF93DF931F92CDB768
:10192000DEB76C0181E0D60158968C9358975B9690
:101930009C915B975C968C915C97981307C050962E
:10194000ED91FC915197808185FD2EC0F601038DAC
:1019500010E00F5F1F4F0F731127F02EF601848DDB
:10196000F81211C00FB607FCF9CFD6015096ED91D1
:10197000FC915197808185FFF1CFC60169830E9458
:10198000440C6981EBCF838DE80FF11DE35AFF4FC3
:101990006083D6015B960C935B975296ED91FC9118
:1019A0005397808180620CC0D6015696ED91FC91D0
:1019B000579760835096ED91FC9151978081806498
:1019C000808381E090E00F90DF91CF911F910F9184
:1019D000FF90DF90CF900895BF92CF92DF92EF9269
:1019E000FF92CF93DF93EC016A017B01B22EE8896D
:1019F000F98982E08083411581EE58076105710500
:101A0000A1F060E079E08DE390E0A70196010E94EB
:101A10001C0E2150310941095109569547953795BA
:101A20002795211580E1380798F0E889F989108217
:101A300060E874E88EE190E0A70196010E941C0E18
:101A400021503109410951095695479537952795F8
:101A5000EC85FD853083EE85FF852083188EEC892B
:101A6000FD89B082EA89FB89808180618083EA896F
:101A7000FB89808188608083EA89FB898081806816
:101A80008083EA89FB8980818F7D8083DF91CF917C
:101A9000FF90EF90DF90CF90BF9008951F920F922C
:101AA0000FB60F9211242F938F939F93EF93FF9371
:101AB000E091FE01F091FF018081E0910402F0913C
:101AC000050282FD12C09081809107028F5F8F73A3
:101AD00020910802821751F0E0910702F0E0E251F4
:101AE000FE4F958F8093070201C08081FF91EF9197
:101AF0009F918F912F910F900FBE0F901F9018956F
:101B00001F920F920FB60F9211242F933F934F9372
:101B10005F936F937F938F939F93AF93BF93EF9355
:101B2000FF938EEE91E00E94440CFF91EF91BF91E4
:101B3000AF919F918F917F916F915F914F913F9165
:101B40002F910F900FBE0F901F9018958EEE91E081
:101B50000E94090C21E0892B09F420E0822F0895CE
:101B60001092F1011092F00188EE93E0A0E0B0E055
:101B70008093F2019093F301A093F401B093F501E7
:101B800081E591E09093EF018093EE0185EC90E088
:101B90009093FB018093FA0184EC90E09093FD0117
:101BA0008093FC0180EC90E09093FF018093FE0114
:101BB00081EC90E0909301028093000282EC90E02F
:101BC000909303028093020286EC90E090930502CA
:101BD00080930402109207021092080210920902E8
:101BE00010920A020895CF92DF92EF92FF920F9324
:101BF0001F93CF93DF937C016A01EB0100E010E0BB
:101C00000C151D0571F06991D701ED91FC910190C2
:101C1000F081E02DC7010995892B19F00F5F1F4F47
:101C2000EFCFC801DF91CF911F910F91FF90EF90FF
:101C3000DF90CF9008950895A1E21A2EAA1BBB1B36
:101C4000FD010DC0AA1FBB1FEE1FFF1FA217B30788
:101C5000E407F50720F0A21BB30BE40BF50B661F9E
:101C6000771F881F991F1A9469F760957095809562
:101C700090959B01AC01BD01CF010895EE0FFF1FB0
:101C80000590F491E02D0994FC0188279927E894A8
:101C900021912032E9F3293010F02E30C8F32B3295
:101CA00041F02D3239F4689404C00E94AD0E820FC9
:101CB000911D219120532A30C0F31EF490958195F7
:101CC0009F4F08951F93FC0199278827BC01E89432
:101CD00011911032E9F3193010F01E30C8F31B32A5
:101CE00051F01D3249F4689406C00E94980E610FAD
:101CF000711D811D911D119110531A30B0F33EF4E6
:101D000090958095709561957F4F8F4F9F4F1F9154
:101D10000895FB01DC014150504048F001900D92C4
:101D20000020C9F701C01D9241505040E0F70895CE
:101D3000592F482F372F262F660F771F881F991F7F
:101D4000660F771F881F991F620F731F841F951FCF
:101D5000660F771F881F991F08957AE0979F902D2F
:101D6000879F802D910D11240895DC01CB01FC018A
:101D7000F999FECF06C0F2BDE1BDF89A319600B4E4
:101D80000D9241505040B8F70895262FF999FECF93
:101D900092BD81BDF89A019700B4021639F01FBABE
:101DA00020BD0FB6F894FA9AF99A0FBE0895F894E8
:021DB000FFCF63
:101DB20000008B028000FF00FCE1A8A84001220382
:101DC2008D009B02D6080000E204F602B604BA02B5
:101DD200E1030000E009E009322E302E312D626568
:101DE200746100302E320048444F2073656E736F69
:101DF200720048444F207369676E616C00000000F6
:0E1E020000870CF30D090C220C140C650C006B
:1078000011E0A0E0B1E0E6EFFFE702C005900D92C5
:10781000A630B107D9F721E0A6E0B1E001C01D9282
:10782000AE34B207E1F7CDB7DEB76197DEBFCDBFAB
:10783000112484B78093270114BE88E248D3809135
:10784000270181FF96C082E08093C00088E1809389
:10785000C10086E08093C20080E18093C400E12CE7
:10786000F12C00E010E0CC24CA94DC2CAA24A394D0
:10787000A8953AD3813471F437D3898B41D3898960
:10788000823811F482E054C0813811F485E650C08A
:1078900083E04EC0823411F484E103C0853419F4CE
:1078A00085E031D363C0853541F41ED3082F1CD346
:1078B00010E0182B000F111F58C0863521F484E00A
:1078C00022D380E035C08436E1F40ED30DD3882E68
:1078D0000BD3E82CF12C912C981480F405D3B82EFE
:1078E00003D3F801E90DF11D2B2D30E0382B0901F0
:1078F000A7BEE895112493949394EECFC801BCD110
:1079000034C0843769F4F0D2EFD2B82EEDD2F8D279
:10791000F80185918F01E1D2BA94B110F9CF26C058
:10792000853741F4EDD28EE1D8D285E9D6D28FE009
:10793000D4D21CC08135C9F4DA82C982DC82CB8200
:10794000C70154E0969587955A95E1F79E838D83FC
:10795000C701A4D198878F8348E050E06BE171E0C4
:10796000CE01019627D388E0B2D2CAD280E1B5D247
:107970007FCF8EE284B981E58CBD29982A9A63E095
:1079800083E2D2D16FE584E2CFD16CE485E2CCD141
:1079900067E286E2C9D163E780E5C6D166E08DE3A0
:1079A000C3D161E082E2C0D161E081E2BDD161E09A
:1079B0008CE3BAD181E0812C912C5524539411E0B1
:1079C000CC24CA94DC2CAA24A39442E0B42E8130A7
:1079D000F1F7F999FECF43E050E060E070E089E212
:1079E00091E0D8D2809129018093050180912A01EC
:1079F0008093280110924D018FEF80932A0180938C
:107A00002B0103E222E047E06FEF84D261E08EEFCA
:107A1000A8D180912A018F3F49F38091290181509B
:107A20008E3F08F467C003E022E043E06FEF80E0A0
:107A300071D263E084E095D1882359F283E391E029
:107A400077D2682FBDC046E050E063E371E08DE07F
:107A500091E08BD2892B79F5C3018150904F082F8B
:107A60000295007740E050E0602F70E0DA01A45DFD
:107A7000BE4FFA01E60FF71F1E962C911E9730E0BD
:107A8000322F22271D96AC912A2B090157BEE8956B
:107A900011244E5F5F4F4031510541F7011106C07F
:107AA00044E0880F991F4A95E1F7E6D0E114F1040C
:107AB00009F4B6C0370189859A8590930E018093A9
:107AC0000D018B859C859093100180930F017301AC
:107AD000F1E0EF1AF108F0921201E092110104ECCA
:107AE00022E342E06FEF80E015D268E083E039D115
:107AF0008111A9CF10930D0110920E0103EC22E128
:107B00004FE06FEF80E006D261E08FE02AD148E0DD
:107B100050E06BE171E0CE0101963CD28D819E81F7
:107B200024E0880F991F2A95E1F7B8D098878F83B2
:107B300088E0FE013196ADE0B1E001900D928A95AA
:107B4000E1F7B0921601A092150104EC22E540E0A5
:107B50006FEF80E0DFD163E081E003D1882309F497
:107B600078C088E0E3E3F1E0DE01199601900D9220
:107B70008A95E1F7E0903701F0903801E114F104C3
:107B800059F58091390190913A018A379A4D09F05F
:107B900020CF80913301813079F4E12CF12C6FEF0B
:107BA000C70117D2F999FECF2FEFE21AF20AE114BA
:107BB00084E0F806A1F70DCF823029F460913501F9
:107BC00080E090E007C0833009F003CF6091350179
:107BD00081E090E0FED1FDCE48E050E0BE01675F5D
:107BE0007F4FCE010196C1D1892B99F1E0E8EE16C5
:107BF000E7E0FE0670F588E0FE013996DE01119699
:107C000001900D928A95E1F7D886CF8248E050E046
:107C10006BE171E0CE010196CDD16D847E844BCFB6
:107C20008D859E8534E0880F991F3A95E1F736D00F
:107C30002F8538898217930721F01E861D86188AA2
:107C40001F8648E050E06BE171E0CE010996B2D1A9
:107C5000C0CE8D819E8124E0880F991F2A95E1F77F
:107C60001DD02F8138858217930709F0B2CE1CBC36
:107C7000A895F4010995ADCE23E0FC0127BFE89556
:107C800007B600FCFDCF25E0FC0127BFE89507B64D
:107C900000FCFDCF81E187BFE8950895AC01E0E0ED
:107CA000F0E08FEF9FEF41155105B1F0259182274C
:107CB00068E0DC01B695A7959C01217033273195CA
:107CC000219531092170307AC9018A279B2761509B
:107CD00081F741505109E7CF08952A988EBD0DB420
:107CE00007FEFDCF8EB59FEF4150D0F0222369F003
:107CF0009EBD0DB407FEFDCF8EB561157105A1F3D4
:107D0000DB018C936F5F7F4FEFCFFB013196DB017F
:107D10008C918EBD0DB407FEFDCF8EB5BF01E4CFB3
:107D20002A9A089520E0D9CFCF93DF931F92CDB741
:107D3000DEB7698320E041E0BE016F5F7F4FCDDF9A
:107D40000F90DF91CF91089540E060E070E082EE07
:107D5000E9DF40E060E070E081EEE4DF60E787E2C9
:107D6000E3CFEF92FF920F931F93CF93DF93F82E01
:107D7000D62F80E0EE24EA94DD2309F4A1C081111E
:107D80009EC0A895C0910901C695C695C695C95FC4
:107D900010912A0129986EE080E2C6DFD5DF1093AA
:107DA000000145E060E071E08AE2BCDF45E060E0B0
:107DB00071E080E3B7DF4C2F66E071E080EAB2DF6C
:107DC000299A2A98EEBC0DB407FEFDCF8EB52A9AEB
:107DD000982F9073B1F3299884FF05C040E060E0CC
:107DE00070E081EE9FDF6FE080E29EDF6091050131
:107DF0008AE29ADFA9DF299A0FEF1FEFA89521E009
:107E000041E060E070E087E168DF80FF02C04FEF93
:107E100044C021E041E060E070E080E65EDF813256
:107E200030F040E060E070E082EE7CDF80E021E056
:107E3000482F6CE271E081E650DF86DF90912E01E1
:107E4000809129019813E3CF409131018091300155
:107E50008770833011F5483001F5509128018091E9
:107E60002D01581303C091E090934D01909133017F
:107E7000692F70E020912B0130E021503109621709
:107E8000730724F420914D01222311F0581305C0EB
:107E90009F5F90932B0180932A0191E04F1190E016
:107EA00085EA8A95F1F700000150110911F4892F34
:107EB00004C0992309F4A2CF81E0D1505DCF81E0C5
:107EC000DF91CF911F910F91FF90EF900895E0E621
:107ED000F0E098E19083808308959091C00095FF31
:107EE000FCCF8093C60008958091C00087FFFCCF2F
:107EF0008091C00084FD01C0A8958091C6000895BE
:107F0000F3DF84E1EACFCF93C82FEEDFC150E9F76A
:107F1000CF91F6CF0F9390912901E6E0F1E09183A4
:107F20009083828366834583048323830F9108951E
:107F3000FC0188279927E89421912032E9F3293020
:107F400010F02E30C8F32B3239F02D3231F4689412
:107F500003C018D0820F911D219120532A30C8F3FD
:107F60001EF4909581959F4F0895FB01DC0104C09C
:107F70008D910190801921F441505040C8F7881B21
:107F8000990B08957AE0979F902D879F802D910DF2
:107F900011240895DC01CB01FC01F999FECF06C044
:107FA000F2BDE1BDF89A319600B40D9241505040B7
:107FB000B8F70895DC01A40FB51F4150504040F0C0
:107FC000CB01840F951F2E9105D041505040D8F71A
:107FD0000895262FF999FECF92BD81BDF89A019799
:107FE00000B4021639F01FBA20BD0FB6F894FA9A01
:067FF000F99A0FBE08958E
:067FF600FFFCE1A8A8FF5A
:040000030000780081
:00000001FF
