:100000000C9462000C9485030C945E030C948A009B
:100010000C948A000C948A000C942F080C948A008B
:100020000C948A000C948A000C948A000C948A0028
:100030000C948A000C948A000C948A000C948A0018
:100040000C9414030C948A000C9461020C943B02EF
:100050000C948A000C948A000C948A000C948A00F8
:100060000C948A000C948A000000000023002600F3
:10007000290000000000240027002A0000000000E2
:10008000250028002B0004040404040404040202D4
:100090000202020203030303030301020408102007
:1000A0004080010204081020010204081020000012
:1000B0000008000201000003040700000000000027
:1000C0000000390811241FBECFEFD8E0DEBFCDBF3E
:1000D00011E0A0E0B1E0ECECF5E102C005900D927A
:1000E000A634B107D9F722E0A6E4B1E001C01D9221
:1000F000A636B207E1F710E0C2E6D0E004C02197CF
:10010000FE010E94420AC136D107C9F70E94710858
:100110000C94E40A0C940000CF92DF92EF92FF92CD
:100120000F931F93CF93DF936C017A018B01C0E093
:10013000D0E0CE15DF0589F0D8016D918D01D60193
:10014000ED91FC910190F081E02DC6010995892B7C
:1001500011F47E0102C02196ECCFC701DF91CF914F
:100160001F910F91FF90EF90DF90CF900895FC01C9
:10017000918D828D981761F0828DDF01A80FB11DDE
:100180005D968C91928D9F5F9F73928F90E0089502
:100190008FEF9FEF0895FC01918D828D981731F0BC
:1001A000828DE80FF11D858D90E008958FEF9FEF10
:1001B0000895FC01918D228D892F90E0805C9F4FE6
:1001C000821B91098F739927089586EA91E00E9416
:1001D000D90021E0892B09F420E0822F0895FC0149
:1001E000848DDF01A80FB11DA35ABF4F2C91848DC0
:1001F00090E001968F739927848FA689B7892C93F5
:10020000A089B1898C9180648C93938D848D98138F
:1002100006C00288F389E02D80818F7D8083089558
:10022000EF92FF920F931F93CF93DF93EC0181E046
:10023000888F9B8D8C8D981305C0E889F989808102
:1002400085FD24C0F62E0B8D10E00F5F1F4F0F733E
:100250001127E02E8C8DE8120CC00FB607FCFACFE8
:10026000E889F989808185FFF5CFCE010E94EF00F2
:10027000F1CF8B8DFE01E80FF11DE35AFF4FF082A5
:100280000B8FEA89FB898081806207C0EE89FF8934
:100290006083E889F98980818064808381E090E0CF
:1002A000DF91CF911F910F91FF90EF900895CF9321
:1002B000DF93EC01888D8823C9F0EA89FB8980816E
:1002C00085FD05C0A889B9898C9186FD0FC00FB640
:1002D00007FCF5CF808185FFF2CFA889B9898C9181
:1002E00085FFEDCFCE010E94EF00E7CFDF91CF91E8
:1002F000089580E090E0892B29F00E94E5008111AB
:100300000C9400000895833081F028F4813099F036
:100310008230A1F008958730A9F08830B9F0843098
:10032000D1F4809180008F7D03C0809180008F7711
:1003300080938000089584B58F7702C084B58F7D47
:1003400084BD08958091B0008F7703C08091B00084
:100350008F7D8093B0000895CF93DF9390E0FC01F0
:10036000E656FF4F2491FC01EA57FF4F8491882302
:1003700061F190E0880F991FFC01EE58FF4FC59185
:10038000D491FC01E458FF4FA591B491611109C0CB
:100390009FB7F8948881209582238883EC912E233F
:1003A0000BC0623061F49FB7F8943881822F80953A
:1003B00083238883EC912E2B2C939FBF06C08FB78D
:1003C000F894E8812E2B28838FBFDF91CF91089579
:1003D0003FB7F8948091A2019091A301A091A4014C
:1003E000B091A50126B5A89B05C02F3F19F0019635
:1003F000A11DB11D3FBFBA2FA92F982F8827820FAB
:10040000911DA11DB11DBC01CD0142E0660F771FFA
:10041000881F991F4A95D1F708950895CF93DF93C8
:10042000E1EBF0E08491EDE9F0E0D491E9E8F0E06F
:10043000C491CC23A1F081110E948301EC2FF0E044
:10044000EE0FFF1FE859FF4FA591B491EC91ED23FA
:1004500031E020E009F430E0832F922F02C080E0E9
:1004600090E021E08227817080939C01DF91CF9101
:1004700008950E94480A1F920F920FB60F921124FE
:100480002F933F934F935F936F937F938F939F939C
:10049000AF93BF93EF93FF9386EA91E00E94EF0042
:1004A000FF91EF91BF91AF919F918F917F916F914C
:1004B0005F914F913F912F910F900FBE0F901F9022
:1004C00018951F920F920FB60F9211242F938F93AE
:1004D0009F93EF93FF93E091B601F091B701808174
:1004E000E091BC01F091BD0182FD12C0908180912C
:1004F000BF018F5F8F732091C001821751F0E0918F
:10050000BF01F0E0EA55FE4F958F8093BF0101C017
:100510008081FF91EF919F918F912F910F900FBE4E
:100520000F901F9018951F93CF93DF93282F30E0E3
:10053000F901E255FF4F8491F901E656FF4FD4913E
:10054000F901EA57FF4FC491CC23C9F0162F81114E
:100550000E948301EC2FF0E0EE0FFF1FE458FF4FE5
:10056000A591B4918FB7F894111105C09C91ED2F0E
:10057000E095E92302C0EC91ED2BEC938FBFDF9166
:10058000CF911F91089560E083E00E94AC0161E08B
:1005900083E00E9493028EE092E0909309018093A1
:1005A0000801E9E6F0E08081837F84608083E99A36
:1005B00008952FB7F89460919E0170919F018091EA
:1005C000A0019091A1012FBF0895CF92DF92EF92E9
:1005D000FF92CF93C82F0E94D9026B017C0181E06A
:1005E000C11180E0809376010E94D902AB01BC0169
:1005F0004C195D096E097F09403D57406105710541
:1006000068F4909175019770933021F0A8950E943D
:100610005B06EACF809176018C13F8CFCF91FF90E3
:10062000EF90DF90CF9008951F920F920FB60F9228
:1006300011242F933F938F939F93AF93BF938091F8
:100640009E0190919F01A091A001B091A1013091D4
:100650009D0123E0230F2D3720F40196A11DB11D2C
:1006600005C026E8230F0296A11DB11D20939D0110
:1006700080939E0190939F01A093A001B093A1014C
:100680008091A2019091A301A091A401B091A50134
:100690000196A11DB11D8093A2019093A301A09387
:1006A000A401B093A501BF91AF919F918F913F910C
:1006B0002F910F900FBE0F901F9018951F920F92C1
:1006C0000FB60F9211242F933F934F935F936F9325
:1006D0007F938F939F93AF93BF93EF93FF93E0919B
:1006E0000801F09109010995FF91EF91BF91AF9138
:1006F0009F918F917F916F915F914F913F912F913A
:100700000F900FBE0F901F9018951F920F920FB66B
:100710000F9211242F933F934F935F936F937F9387
:100720008F939F93AF93BF93EF93FF93E091060155
:10073000F09107010995FF91EF91BF91AF919F91C2
:100740008F917F916F915F914F913F912F910F907A
:100750000FBE0F901F9018958F929F92AF92BF92ED
:10076000CF92DF92EF92FF926B017C010E94D9023F
:100770004B015C010E94D902DC01CB018819990967
:10078000AA09BB098C159D05AE05BF0520F4A895E7
:100790000E945B06EFCFFF90EF90DF90CF90BF906D
:1007A000AF909F908F900895BC01809146019091E9
:1007B0004701A0914801B09149010196A11DB11DC9
:1007C0008093460190934701A0934801B09349015B
:1007D00080914E018F3F19F40E9405061BC0909135
:1007E0004D019F3F19F40E94360614C0FB0193810E
:1007F0009C7F926093830E94A10581110DC090910E
:100800004C019F5F90934C0180914A01882339F0FD
:10081000963010F780E0089510924C0181E0089521
:100820000F931F930E94D90200919301109194019C
:100830002091950130919601DC01CB01801B910B39
:10084000A20BB30B893E9340A105B10560F10E9454
:10085000D9026093930170939401809395019093D2
:10086000960180919C01909197019817E1F09091E9
:100870009C01809146028770886080934602809137
:10088000470290934A0290914D01909344028071E7
:1008900081628093470283E492E00E94D4038091B6
:1008A0009C01809397010E94D902009198011091B8
:1008B000990120919A0130919B01DC01CB01801BB1
:1008C000910BA20BB30B81369A4EA105B10540F1F5
:1008D0000E94D902609398017093990180939A01C4
:1008E00090939B010E940E0290919C018091460280
:1008F00087708860809346028091470290934A02F5
:1009000090914D01909344028071816280934702DF
:1009100083E492E00E94D40380919C01809397012C
:100920001F910F9108950F931F93CF93DF93EC01C5
:100930006115710561F0FB0101900020E9F7319725
:10094000E61BF70BE931F10518F0E9E101C0E0E041
:100950000E2F10E0C80123E0880F991F2A95E1F7B8
:100960009B819770892B8B838C818F718C83EE2375
:1009700029F0A801CE0107960E944D0AFE01E00F62
:10098000F11F1782CE01DF91CF911F910F91089532
:100990008F3F11F09A0102C020E231E090914D01A9
:1009A00090937201109273018093770160937601A6
:1009B00080917501807E80937501B90181E791E096
:1009C0000E9493040C94D403EF92FF921F93CF9351
:1009D000DF93C1E7D1E08DE4E82E81E0F82EF70146
:1009E000808189831A821FEF1E838BE08D838C8127
:1009F000807E83608C836BE271E0CE010E94930461
:100A00000E94D403F701808189831A821E838CE0BF
:100A10008D838C81807E83608C8366E371E0CE0160
:100A20000E9493040E94D4034AE351E060E081E015
:100A3000DF91CF911F91FF90EF900C94C8048F3FEE
:100A400051F08093000163E082E20E948A0561E038
:100A500081E20C948A0508956FE080E20E948A0585
:100A6000609100016F3F19F08AE20E948A0561E0FF
:100A700089E00C949302FF920F931F93CF93DF931F
:100A800000D0CDB7DEB7F82E8B0181E58CBD81E0BB
:100A90008DBD60E08AE02A8349830E949302E3E2ED
:100AA000F0E03197F1F7FEBC000049812A810DB4D6
:100AB00007FEFDCFFEB4F8018FEF4150D0F02223A6
:100AC00061F08EBD00000DB407FEFDCFFEB4011530
:100AD000110599F3F0823196F0CFBF016F5F7F4F20
:100AE00090819EBD00000DB407FEFDCFFEB4FB015A
:100AF000E4CF61E08AE00E94930283E290E00197F4
:100B0000F1F78F2D0F900F90DF91CF911F910F91E3
:100B1000FF900895CF93DF931F92CDB7DEB769831F
:100B200020E041E0BE016F5F7F4F0E943B050F90C8
:100B3000DF91CF91089520E040E060E070E00C94F8
:100B40003B05EF92FF921F93CF93DF931F92CDB798
:100B5000DEB7182F7B01FB0143814C7F426043834A
:100B600042FD04C046954695469501C040E28091FD
:100B70004D01F70180834A3110F4495F01C040E222
:100B800060E089E049830E94930283E092E001974C
:100B9000F1F76EE080E20E948A058BE891E0019710
:100BA000F1F7612F8AE20E948A05612F80E30E949B
:100BB0008A0581EE0E949B0520E04981B70180EA09
:100BC0000E943B0561E089E00E9493028FEF0E9442
:100BD0009B05182F8073D1F360E089E00E94930297
:100BE00060E387E20E948A0514FF03C081EE0E9441
:100BF0009B050E942C0515FB882780F90F90DF913B
:100C0000CF911F91FF90EF9008958091650281111F
:100C10002CC081E08093650210924C018FEF80938D
:100C20004F0190914D0190937201809373018093D5
:100C3000770187E08093760180917501807E8360E3
:100C40008093750169E371E081E791E00E9493046C
:100C500061E771E08FEF0E94A10560ED77E080E031
:100C600090E00E94AC03109265020895CF93DF9349
:100C7000CDE4D1E088810E941F050E942C05E1E7A8
:100C8000F1E08881818312828FEF868383E0858300
:100C90008481807E8360848369E371E0CF010E9458
:100CA000930461E771E089810E94A10584E0DF91EE
:100CB000CF910C94E502EF92FF920F931F93CF9385
:100CC000DF931F92CDB7DEB78FEF0E949B0590E0B8
:100CD000959587958770863008F0B9C121E041E08D
:100CE00060E070E080E60E943B05813220F082EEF9
:100CF0000E949B0580E021E0482F61E771E081E6DA
:100D00000E943B0560E487E20E948A0520917501FC
:100D100010917601F090720190917101E090730151
:100D2000E09174018E2F8370823009F090C1022F00
:100D3000077080914D01E81237C19E2F96959695C8
:100D40009695892F90E08A31910514F089E190E021
:100D500033E0880F991F3A95E1F7E7708E2B809367
:100D60007401869586958695E82FF0E0EF58FE4F42
:100D7000178223FF15C081E2E1E7F1E0A0E5B1E0D1
:100D800001900D928A95E1F7277F2061209354010D
:100D9000E0925101F092520180E591E00E94D4036B
:100DA000033009F0F1C0183019F580914A01882309
:100DB00009F44DC1809175018295869587708130C7
:100DC00019F48091780106C0811107C088E791E08D
:100DD0000E945C0A8F3F11F43AC180E08F5F8F3F21
:100DE00009F435C190914F01891708F414C12FC13E
:100DF000F110CAC0143089F58091750182958695ED
:100E00008770813019F48091780108C0811105C084
:100E100088E791E00E945C0A01C080E080934D0168
:100E20008F3F09F4FFCF0E94E9090E94E40460911A
:100E30004D0180E090E069830E94CE0A69816817C5
:100E400009F405C180E090E00F90DF91CF911F91F0
:100E50000F91FF90EF900C94D60A809176018D301F
:100E600059F498E088E10FB6F894A8958093600053
:100E70000FBE90936000FFCF863001F58091750121
:100E800082958695877059F488E791E061E0892B17
:100E900039F0809178018D3419F060E001C061E093
:100EA00060934B0183E091E069830E94CE0A6981DF
:100EB000681709F4CCC083E091E0C6CF833179F4A0
:100EC0008091750184FDC3C00E94E9090F90DF91F4
:100ED000CF911F910F91FF90EF900C94E404823119
:100EE00041F5409146015091470160914801709150
:100EF000490180914D0180937201109273018FEF2F
:100F00008093770186E18093760183EA809375016F
:100F1000809174018770806280937401409378019E
:100F20005093790160937A0170937B0181E791E09E
:100F300069C0813009F08BC080E090E0892B09F412
:100F400086C080917501829586958770853049F4B9
:100F5000609178017091790180917A0190917B0183
:100F60000AC0811105C088E791E00E947A0A03C097
:100F700060E070E0CB010F90DF91CF911F910F9156
:100F8000FF90EF900C94000080E090E0892B09F432
:100F90005EC081E791E00F90DF91CF911F910F919B
:100FA000FF90EF900C9400008FEFE81250C00330D8
:100FB00009F04DC0143109F04AC080914E019813D8
:100FC00046C00E94D9027370882799270E94AC03FB
:100FD00090914E0180914D0180935101F092520108
:100FE000E092560185E1809355018091530187700D
:100FF00088608093530183E280935401909357015A
:1010000080E591E00F90DF91CF911F910F91FF90BC
:10101000EF900C94D40380934F01F0924E0181E045
:1010200090E00E94CE0AF81629F06F2D81E090E042
:101030000E94D60A60914F0182E090E069830E948D
:10104000CE0A6981681719F082E090E0FDCE0F901A
:10105000DF91CF911F910F91FF90EF9008951F9214
:101060000F920FB60F9211240F900FBE0F901F908A
:101070001895E6EAF1E01382128288EE93E0A0E090
:10108000B0E084839583A683B78384E191E0918364
:10109000808385EC90E09587848784EC90E0978747
:1010A000868780EC90E0918B808B81EC90E0938B35
:1010B000828B82EC90E0958B848B86EC90E0978B12
:1010C000868B118E128E138E148E109273011092D5
:1010D0005201E3E4F2E0128281E0868380E18583BD
:1010E0000895789484B5826084BD84B5816084BDA0
:1010F00085B5826085BD85B5816085BD80916E00B6
:10110000816080936E0010928100809181008260E6
:101110008093810080918100816080938100809123
:1011200080008160809380008091B1008460809312
:10113000B1008091B00081608093B00080917A000E
:10114000846080937A0080917A00826080937A0034
:1011500080917A00816080937A0080917A00806823
:1011600080937A001092C100E091B601F091B7012E
:1011700082E08083E091B201F091B3011082E091AE
:10118000B401F091B50180E180831092BE01E0913D
:10119000BA01F091BB0186E08083E091B801F09143
:1011A000B901808180618083E091B801F091B9013B
:1011B000808188608083E091B801F091B9018081DD
:1011C00080688083E091B801F091B90180818F7DC2
:1011D000808380E090E0892B11F00E940000109243
:1011E0004C0161E089E00E94AC0161E08AE00E946C
:1011F000AC01FFB6F89480919201811127C0E0E91B
:10120000F0E08491E4EAF0E09491E82FF0E0EE0F52
:10121000FF1FEE58FF4FA591B491EC91E92321F403
:1012200061E08AE00E94930261E08AE00E94AC01E2
:101230008CB580618CBD8CB580648CBD61E08DE027
:101240000E94AC0161E08BE00E94AC0180919201B0
:101250008F5F80939201FFBE60E089E00E9493025D
:1012600061E08AE00E9493026EE080E20E948A05BB
:101270000E94E8014B015C0185E0C82ED12CE12CD5
:10128000F12C0E94E801DC01CB0188199909AA0917
:10129000BB09883E9340A105B10558F021E0C21A70
:1012A000D108E108F10888EE880E83E0981EA11CA1
:1012B000B11CC114D104E104F10419F763E083E225
:1012C0000E948A056FE584E20E948A056CE485E24B
:1012D0000E948A0567E286E20E948A0521E041E0D9
:1012E00060E070E086E00E943B05873209F046C06E
:1012F00063E780E30E948A0566E08DE30E948A0529
:1013000062E082E20E948A0560E081E20E948A0532
:1013100063E08CE30E948A058FEF8093010120E057
:1013200045E061E071E08BE20E943B0520E045E092
:1013300061E071E08AE20E943B0520E045E061E067
:1013400071E080E30E943B0582EE0E949B0581EEE6
:101350000E949B0560E787E20E948A0541E050E019
:1013600063E071E08BE491E00E94BE0A80914B0142
:101370008F3F29F481E080934B0101C0FFCF43E010
:1013800050E060E070E08DE491E00E94BE0A81E0F0
:1013900080934A0180914E018F3F11F40E9405060F
:1013A00080914D018F3F21F480914E018F3F71F468
:1013B0000E94C3020E94E9090E94E404A8950E94C9
:1013C0005B060E9410040E947901F8CF0E94360645
:1013D000EFCFCF9380914D010E941F050E942C05F5
:1013E00080914D018F3F09F44BC0809372011092A0
:1013F0007301CFEFC09377018FE0809376018091E6
:101400007501807E83608093750169E371E081E7F7
:1014100091E00E94930480917401877080618093B1
:10142000740181E0809378011092790181E791E065
:101430000E94D40349E351E061E18FEF0E94C804A8
:1014400090914E0180914D01809372011092730131
:10145000C093770186E08093760180917401877054
:1014600088608093740183E2809375019093780182
:1014700081E791E00E94D40386E0CF910C94E502CD
:10148000CF910895EE0FFF1F0590F491E02D099480
:1014900081E090E0F8940C94E40AFB01DC014150F7
:1014A000504048F001900D920020C9F701C01D92F4
:1014B00041505040E0F70895FC0188279927E894AF
:1014C00021912032E9F3293010F02E30C8F32B326D
:1014D00041F02D3239F4689404C00E94B60A820F9C
:1014E000911D219120532A30C0F31EF490958195CF
:1014F0009F4F08951F93FC0199278827BC01E8940A
:1015000011911032E9F3193010F01E30C8F31B327C
:1015100051F01D3249F4689406C00E94A10A610F7F
:10152000711D811D911D119110531A30B0F33EF4BD
:1015300090958095709561957F4F8F4F9F4F1F912C
:101540000895592F482F372F262F660F771F881F92
:10155000991F660F771F881F991F620F731F841FC3
:10156000951F660F771F881F991F08957AE0979F30
:10157000902D879F802D910D11240895DC01CB01C2
:10158000FC01F999FECF06C0F2BDE1BDF89A319693
:1015900000B40D9241505040B8F70895F999FECF2C
:1015A00092BD81BDF89A992780B50895262FF999A3
:1015B000FECF1FBA92BD81BD20BD0FB6F894FA9A36
:0C15C000F99A0FBE01960895F894FFCF31
:1015CC00FF00FCE1A8A80D020D02000066028000DD
:1015DC000000000010018C00D900B700CB005701AF
:1015EC00322E302E302D626574610048444F2073CA
:1015FC00656E736F7200302E320048444F20736951
:06160C00676E616C000036
:107800000C94343C0C94513C0C94513C0C94513CE1
:107810000C94513C0C94513C0C94513C0C94513CB4
:107820000C94513C0C94513C0C94513C0C94513CA4
:107830000C94513C0C94513C0C94513C0C94513C94
:107840000C94513C0C94513C0C94513C0C94513C84
:107850000C94513C0C94513C0C94513C0C94513C74
:107860000C94513C0C94513C11241FBECFEFD8E036
:10787000DEBFCDBF11E0A0E0B1E0ECE9FFE702C060
:1078800005900D92A230B107D9F712E0A2E0B1E065
:1078900001C01D92AD30B107E1F70E942D3D0C945F
:1078A000CC3F0C94003C982F959595959595959582
:1078B000905D8F708A307CF0282F295A8091C0000B
:1078C00085FFFCCF9093C6008091C00085FFFCCF60
:1078D0002093C6000895282F205DF0CF982F809127
:1078E000C00085FFFCCF9093C6000895EF92FF92F1
:1078F0000F931F93EE24FF2487018091C00087FD22
:1079000017C00894E11CF11C011D111D81E4E8164B
:1079100082E4F8068FE0080780E0180770F3E09132
:107920000401F091050109958091C00087FFE9CF1E
:107930008091C6001F910F91FF90EF9008950E94D3
:10794000763C982F8091C00085FFFCCF9093C600B5
:1079500091362CF490330CF09053892F089597555D
:10796000892F08951F930E949F3C182F0E949F3CCF
:107970001295107F810F1F9108951F93182F882350
:1079800021F00E94763C1150E1F71F9108951F935A
:10799000182F0E94763C803249F0809103018F5F5E
:1079A000809303018530C1F01F9108958091C0003C
:1079B00085FFFCCF84E18093C6008091C00085FFE5
:1079C000FCCF1093C6008091C00085FFFCCF80E102
:1079D0008093C6001F910895E0910401F091050184
:1079E00009951F9108950E94763C803241F0809164
:1079F00003018F5F80930301853081F008958091AA
:107A0000C00085FFFCCF84E18093C6008091C00058
:107A100085FFFCCF80E18093C6000895E0910401CA
:107A2000F09105010995089540E951E08823A1F0FE
:107A30002D9A28EE33E0FA013197F1F721503040CA
:107A4000D1F72D9828EE33E0FA013197F1F7215064
:107A50003040D1F7815061F708953F924F925F9285
:107A60006F927F928F929F92AF92BF92CF92DF924E
:107A7000EF92FF920F931F93CF93DF93000080E16B
:107A80008093C4001092C50088E18093C10086E015
:107A90008093C2005098589A259A81E00E94143D24
:107AA00024E1F22E9EE1E92E85E9D82E0FE0C02ECA
:107AB00010E1B12EAA24A394B1E49B2EA6E58A2E50
:107AC000F2E57F2EE0E26E2E79E4572E63E5462E36
:107AD00050E5352E0E94763C8033B1F18133B9F107
:107AE000803409F46FC0813409F476C0823409F41B
:107AF00085C0853409F488C0803531F1823521F1A3
:107B0000813511F1853509F485C0863509F48DC0BC
:107B1000843609F496C0843709F403C1853709F423
:107B200072C1863709F466C0809103018F5F80932C
:107B30000301853079F6E0910401F0910501099582
:107B40000E94763C803351F60E94F33CC3CF0E94E2
:107B5000763C803249F78091C00085FFFCCFF092DF
:107B6000C6008091C00085FFFCCF9092C600809136
:107B7000C00085FFFCCF8092C6008091C00085FFC9
:107B8000FCCF7092C6008091C00085FFFCCF609250
:107B9000C6008091C00085FFFCCF5092C600809146
:107BA000C00085FFFCCF4092C6008091C00085FFD9
:107BB000FCCF3092C6008091C00085FFFCCFB09210
:107BC000C60088CF0E94763C863808F4BDCF0E945C
:107BD000763C0E94F33C7ECF0E94763C803809F4CC
:107BE0009CC0813809F40BC1823809F43CC1883942
:107BF00009F48FC080E00E94C73C6CCF84E10E94F2
:107C0000BD3C0E94F33C66CF85E00E94BD3C0E94D3
:107C1000F33C60CF0E94763C809306010E94763C44
:107C2000809307010E94F33C55CF0E94763C80333D
:107C300009F41DC183E00E94BD3C80E00E94C73C66
:107C400049CF0E94763C809309020E94763C809343
:107C5000080280910C028E7F80930C020E94763C79
:107C6000853409F415C18091080290910902892B8D
:107C700089F000E010E00E94763CF801E85FFE4FDA
:107C800080830F5F1F4F80910802909109020817AF
:107C9000190788F30E94763C803209F045CF809125
:107CA0000C0280FF01C16091060170910701660F0F
:107CB000771F7093070160930601A0910802B091AD
:107CC00009021097C9F0E8E0F1E09B01AD014E0F09
:107CD0005F1FF999FECF32BD21BD819180BDFA9A17
:107CE000F99A2F5F3F4FE417F50799F76A0F7B1F4B
:107CF00070930701609306018091C00085FFFCCF5F
:107D0000F092C6008091C00085FFFCCFB092C60003
:107D1000E1CE83E00E94C73CDDCE82E00E94C73CFA
:107D2000D9CE0E94763C809309020E94763C8093D3
:107D300008028091060190910701880F991F909386
:107D40000701809306010E94763C853409F4A6C0A1
:107D500080910C028E7F80930C020E94763C8032D0
:107D600009F0B8CE8091C00085FFFCCFF092C6002C
:107D7000609108027091090261157105B9F140E046
:107D800050E080910C02A82FA170B82FB27011C0E2
:107D9000BB2309F45CC0E0910601F0910701319624
:107DA000F0930701E09306014F5F5F4F46175707B7
:107DB000E8F4AA2369F3F999FECF209106013091E6
:107DC000070132BD21BDF89A90B58091C00085FFB2
:107DD000FCCF9093C6002F5F3F4F30930701209355
:107DE00006014F5F5F4F4617570718F38091C00099
:107DF00085FDE5CE8091C00085FFF8CFE0CE81E023
:107E00000E94C73C67CE0E94763C803209F08CCE3F
:107E10008091C00085FFFCCFF092C6008091C00029
:107E200085FFFCCFE092C6008091C00085FFFCCFAB
:107E3000D092C6008091C00085FFFCCFC092C600E2
:107E40008091C00085FFFCCFB092C60043CEE09188
:107E50000601F091070194918091C00085FFFCCF4D
:107E60009093C6009CCF80E10E94C73C33CE0E9415
:107E7000763C0E94763C182F0E94763C112309F430
:107E800083C0113009F484C08FE00E94C73C22CE29
:107E900080910C02816080930C02E5CE80910C02EF
:107EA000816080930C0259CF809107018823880F4D
:107EB000880B8A2180930B02809106019091070123
:107EC000880F991F90930701809306018091080203
:107ED00080FF09C080910802909109020196909359
:107EE000090280930802F894F999FECF1127E091D6
:107EF0000601F0910701C8E0D1E08091080290915D
:107F00000902103091F40091570001700130D9F34B
:107F100003E000935700E89500915700017001308D
:107F2000D9F301E100935700E89509901990009169
:107F3000570001700130D9F301E000935700E89534
:107F40001395103498F011270091570001700130FB
:107F5000D9F305E000935700E895009157000170B0
:107F60000130D9F301E100935700E895329602976A
:107F700009F0C7CF103011F00296E5CF112480919F
:107F8000C00085FFB9CEBCCE8EE10E94C73CA2CD19
:0C7F900085E90E94C73C9ECDF894FFCF0D
:027F9C00800063
:040000030000780081
:00000001FF
