:100000000C947D000C94780D0C94510D0C94A5006B
:100010000C94A5000C94A5000C94F2040C94A5007B
:100020000C94A5000C94A5000C94A5000C94A500BC
:100030000C94A5000C94A5000C94A5000C94A500AC
:100040000C94070D0C94A5000C94000C0C94DA0B86
:100050000C94A5000C94A5000C94A5000C94A5008C
:100060000C94A5000C94A5000000000023002600BD
:10007000290000000008000201000003040700003E
:1000800000000000000000000000250028002B00F8
:1000900000000000240027002A00040404040404D3
:1000A0000404020202020202030303030303010227
:1000B00004081020408001020408102001020408F6
:1000C00010205E01011F01030301008A02010A01E1
:1000D0000202010064001E47040B0906007C0101B6
:1000E000060103030100F401060E0102020100C231
:1000F0000117010102020101740E11241FBECFEF8E
:10010000D8E0DEBFCDBF11E0A0E0B1E0E6E8FFE15E
:1001100002C005900D92A239B107D9F723E0A2E9F8
:10012000B1E001C01D92AD39B207E1F710E0CDE7B3
:10013000D0E004C02197FE010E94020FCC37D10706
:10014000C9F70E94B40D0C94C10F0C94000080916B
:100150009F01846080939F018091A00180788093AB
:10016000A001E0919301F0919401309709F0099476
:100170000895EFE9F1E08081877F8F7E8083109280
:100180009B0110929C0110929D0110929E0143E0F0
:1001900050E060E070E08AEA91E00C94870FFC0187
:1001A000838187708860838384818F718062848378
:1001B0006783CF0108950F931F93CF93DF93EC01D3
:1001C0006115710561F0FB0101900020E9F731979D
:1001D000E61BF70BE931F10518F0E9E101C0E0E0B9
:1001E0000E2F10E0C80123E0880F991F2A95E1F730
:1001F0009B819770892B8B838C818F718C83EE23ED
:1002000029F0A801CE0107960E940D0FFE01E00F14
:10021000F11F1782CE01DF91CF911F910F910895A9
:10022000FC012481229526952770213011F48781C5
:100230000895211104C007960E941C0F089580E0C4
:10024000089590E59CBD1DBC2A98E0E1F0E031974F
:10025000F1F78EBD00000DB407FEFDCF8EB5FB019A
:100260009FEF4150C8F0222361F09EBD00000DB405
:1002700007FEFDCF8EB56115710599F38083319628
:10028000F0CFDF01119680818EBD00000DB407FE16
:10029000FDCF8EB5FD01E5CF2A9AE0E1F0E0319780
:1002A000F1F70895CF93DF931F92CDB7DEB769833F
:1002B00020E041E0BE016F5F7F4F0E9421010F905F
:1002C000DF91CF9108956FE080E20E94520160912A
:1002D0001C016F3F19F08AE20E945201299A089589
:1002E0008091A001982F9077903759F0982F929590
:1002F0009F709F5F97709295907F8F78892B8093E6
:10030000A00180919F018B7F8F7E80939F0180E071
:1003100090E0892B21F087E690E00E940000299868
:100320006CE080E20C94520120E040E060E070E07C
:100330000C9421010F931F93CF93DF938C01FC0149
:10034000C28180919F0180FF04C0CF3F09F05DC052
:1003500014C0C11103C0C091AB010FC0CF3F69F001
:100360008C2F90E003960E94970F8F3F29F4809185
:10037000AB01F80190819813C82F8091AA01F80170
:100380008083438142FD06C0469546954695D7E059
:10039000D40F01C0D0E280E090E0892B21F080E012
:1003A00090E00E940000299880E091E00197F1F729
:1003B0006EE080E20E94520184EC90E00197F1F738
:1003C0006C2F8AE20E9452016C2F80E30E9452013E
:1003D00081EE0E949401CF3F11F080EA01C080EBD2
:1003E0004D2FD13208F040E220E0B8010E942101F7
:1003F000299A00E010E08FEF0E949401D82F8073BB
:1004000031F401501109B9F702C0D0E02FC029988A
:1004100060E387E20E945201D4FF03C081EE0E9494
:1004200094010E946301D5FBDD27D0F991E0CF3F15
:1004300009F090E0D92B8091AB01C81317C0D111FE
:1004400010C080E090E0892B21F085E690E00E94CA
:1004500000008091A00191E0980F9F70807F892B10
:1004600003C08091A001807F8093A0018D2FDF9138
:10047000CF911F910F91089520919F0122FD0C941F
:100480009A0180E00895CF9380E090E0892B21F0DD
:100490008CE090E00E9400002FE043E06FEF80E0EE
:1004A0000E94860B66E871E00E94DB008091810269
:1004B0008770806180938102809182028F71806C4D
:1004C0008093820281E080938502109286028EE7FB
:1004D00092E00E943C028FE00E94D10C46E851E07D
:1004E00062E18FEF0E94C50BC091AB0126E043E0B3
:1004F0006FEF80E00E94860B6C2F0E94CF000E945D
:100500003C0286E00E94D10CCF910C94DA05CF9387
:100510008091A90181FD27C00E94430280E090E004
:10052000892B21F089E090E00E9400008091A901D0
:1005300081608093A901C4E02AE143E06FEF80E08D
:100540000E94860B62E00E94CF000E943C028BE179
:100550000E94D10C811102C0C15071F78091A90194
:1005600082608093A901CF91089580E090E0892B6B
:1005700021F088E090E00E9400008FEF8093A101BD
:1005800080919F01886080939F0128E143E06FEF95
:1005900080E00E94860B61E00E94CF000C949A01DB
:1005A0008091AA018F3FA1F480E090E0892B21F097
:1005B00086E090E00E94000023E043E06FEF80E0DF
:1005C0000E94860B66E871E00E94DB000C949A01A1
:1005D000089580E090E0892B21F084E090E00E9473
:1005E000000080919F01897F816080939F018FEF40
:1005F0008093AC018093AB0127E043E06FEF0E9452
:10060000860B66E871E00E94DB000C949A01CF93A0
:10061000C82F8FEF8C0F8E3FA8F4C093AA01C09310
:100620001C0163E082E20E94520161E081E20E94CB
:1006300052010E9463016C2F80E090E00E94AF0F96
:1006400081E00CC080E090E0892B21F08EE690E004
:100650000E9400008FEF8093AA0180E0CF9108955F
:10066000E0919501F09196010280F381E02D3097A1
:1006700009F0099580919F0184FD0C943706089537
:100680000F931F930E94C50C009197011091980140
:100690002091990130919A01601B710B820B930B91
:1006A0001F910F9108959C01809195019091960161
:1006B0008217930751F090919F019F7190939F0132
:1006C000309396012093950105C080919F01805E33
:1006D00080939F01E0919501F09196010190F08146
:1006E000E02D309709F009950E94C50C60939701A1
:1006F000709398018093990190939A0108950F93B4
:100700001F930E9440032091A0012077203729F0F9
:1007100000E117E220E030E004C000E61AEE20E03D
:1007200030E0061717072807390730F48DE191E00C
:100730001F910F910C9453031F910F910895809175
:10074000A0018F708B3020F088E191E00C9453036E
:1007500008958091A1018F3FA1F00E94C50C609384
:100760009B0170939C0180939D0190939E018091C9
:10077000A1019091AC0189138093AC0184E191E0D7
:100780001BC00E944003613D774081059105B0F098
:1007900080919F01803618F480E191E00DC0877F41
:1007A00080939F0180E090E0892B21F08AE690E021
:1007B0000E94000088E191E00C9453030895809119
:1007C000AA018F3F59F080E090E0892B21F087E06B
:1007D00090E00E94000080E191E018C00E94400378
:1007E000613D77408105910598F080919F018036A9
:1007F00018F48CE091E00AC080E090E0892B21F0B1
:1008000089E690E00E94000088E091E00C94530398
:1008100008950E944003613D77408105910520F4D1
:1008200080919F0181FF08958091AB018F3F81F0FE
:1008300080919F018E7F80939F0180E090E0892BC3
:1008400021F085E090E00E9400008CE091E011C072
:1008500080919F01803618F488E191E00AC080E021
:1008600090E0892B21F088E690E00E94000088E06B
:1008700091E00C945303CF93219A229ACFB7F89426
:1008800080919201811124C0E4EAF0E08491E8EBC8
:10089000F0E09491E82FF0E0EE0FFF1FE057FF4FDC
:1008A000A591B491EC91E92321F461E08AE00E94E2
:1008B0005B0C8AE00E94950B8CB580618CBD8CB579
:1008C00080648CBD8DE00E94950B8BE00E94950B9F
:1008D000809192018F5F80939201CFBF29982A9ACD
:1008E0006EE080E20E94520165E070E080E090E0FE
:1008F0000E948B0C63E083E20E9452016FE584E268
:100900000E9452016CE485E20E94520167E286E295
:100910000E94520163E780E50E94520166E08DE388
:100920000E94520121E041E060E070E086E00E9418
:100930002101C82F21E041E060E070E085E00E94E5
:1009400021018C3409F040C0C732F1F562E082E247
:100950000E94520160E081E20E94520163E08CE358
:100960000E9452018FEF8093030120E045E063E095
:1009700071E08BE20E94210120E045E063E071E03C
:100980008AE20E94210120E045E063E071E080E31B
:100990000E94210182EE0E94940181EE0E94940146
:1009A00060E787E20E94520180919F0180618093FD
:1009B0009F018091AA018F3F81F00E94070381115E
:1009C0000CC088E091E00BC080E090E0892BC9F377
:1009D00087E690E00E940000F4CF88E191E0CF919B
:1009E0000C9453031F920F920FB60F9211240F9085
:1009F0000FBE0F901F901895FC012681223069F4DC
:100A00002581223051F40E941001882311F061E009
:100A100001C060E084E00C945B0C08950F931F9379
:100A2000CF93DF9380914A0290914B02A0914C02A8
:100A3000B0914D02892B8A2B8B2B09F464C061E0A5
:100A400083E00E945B0C80914A0290914B02A0913E
:100A50004C02B0914D020097A105B10509F447C0C1
:100A6000843024E8920725E3A207B10529F1B0F408
:100A700081309448A543B105D1F5809152028F7120
:100A800080648093520280915102877080618093CC
:100A90005102109256021092550220C08B3024E869
:100AA000920725E3A207B105F1F081319448A543EF
:100AB000B105E9F460E018C0809152028F71806442
:100AC000809352028091510287708061809351021D
:100AD00081E090E090935602809355028EE492E07C
:100AE0000E94B40B04C061E084E00E945B0C109291
:100AF0004A0210924B0210924C0210924D0260E09A
:100B000083E00E945B0CE5E7F0E08491E1EBF0E02C
:100B1000D491EDE9F0E0C491CC2371F081110E94F1
:100B2000320CEC2FF0E0EE0FFF1FE859FF4FA591BC
:100B3000B491EC91ED23B9F40E94C50C0091A2018F
:100B40001091A3012091A4013091A501DC01CB01FA
:100B5000801B910BA20BB30B89389341A105B10502
:100B600020F161E015C00E94C50C0091A201109116
:100B7000A3012091A4013091A501DC01CB01801BD0
:100B8000910BA20BB30B4F97A105B10570F060E07C
:100B900083E00E945B0C0E94C50C6093A2017093DD
:100BA000A3018093A4019093A501DF91CF911F91A0
:100BB0000F9108952BE043E06FEF80E00E94860BD9
:100BC00067E371E00E94DB000E943C022CE043E0FE
:100BD0006FEF80E00E94860B63E471E00E94DB000F
:100BE0000E943C0247E451E064E081E00E94C50BB2
:100BF0004CE551E063E081E00E94C50B4EE651E018
:100C000063E082E00C94C50B83E00E94950B84E0C6
:100C10000E94950B1092700210926F0210924A027D
:100C200010924B0210924C0210924D021092A701AA
:100C30001092A60181E29AE0909322018093210113
:100C4000E9E6F0E080818C7F81608083E89A48E06B
:100C500050E06BE771E08DEA91E00E94040942E008
:100C600050E064E871E08DEA91E00C9404094F9241
:100C70005F926F927F928F929F92AF92BF92CF922C
:100C8000DF92EF92FF920F931F93CF93DF9386E053
:100C9000B82E90E0E92E90E0F92E20E0C22E20E060
:100CA000D22E31E2A32E21E041E060E070E087E146
:100CB0000E94210180FD97C2BA94BB2009F493C21F
:100CC000E114F10421F081E090E00E94000021E0B5
:100CD00041E060E070E080E60E942101082F81324F
:100CE00020F082EE0E94940100E021E0402F6FE9A5
:100CF00072E081E60E94210160E487E20E945201D5
:100D00009091A202192F1695169516951A3108F092
:100D100019E192FD03C087E0810F01C080E270906D
:100D2000A302C091A402D091A00290909F02809053
:100D3000A102081739F0E114F10409F4B4CF8CE6EC
:100D400090E009C09370923049F0E114F10409F485
:100D5000AACF8DE690E00E940000A5CF8091AB0164
:100D6000981651F08091AA01D81731F08D2F90E09C
:100D7000692D03960E94AF0F072D07708091A00187
:100D800080688093A0018091AA0188124BC02091B5
:100D9000A202822F8695869586958A3108F089E190
:100DA00038E0839FC00111242770822B8093A20218
:100DB000E12FF0E0E156FD4F17828091A30283FFFF
:100DC00017C0EFE9F2E0AEE7B2E08A2D01900D9294
:100DD0008A95E1F780918202877F80618093820209
:100DE00080927F02D09380028EE792E00E943C02C4
:100DF0008091A30284FD11C0033079F49091A40284
:100E00009F3009F0BBC04FCF913009F45DC19A30DB
:100E100009F479C19C3109F446CF8FE992E00E9430
:100E2000FC0441CF2FEF82128FC0033009F07EC047
:100E300080919F0182FF5DC0C73009F05AC0809148
:100E4000AB01D81709F42FCF0E94C50C00919B016C
:100E500010919C0120919D0130919E01DC01CB01FC
:100E6000801B910BA20BB30B80319742A105B105FA
:100E700018F180919F0183FD16CF9091AA019111E5
:100E80006AC11092A10180919F01877F80939F0189
:100E9000C091A101CF3F09F406CF0E94C50C609319
:100EA0009B0170939C0180939D0190939E01809182
:100EB000AC01C813C093AC010E94C50C60939B01A8
:100EC00070939C0180939D0190939E010E94C50C9C
:100ED0007370882799270E948B0CC091AC0128E081
:100EE00043E06FEF8D2F0E94860B6C2F0E94CF0086
:100EF00042C0C83009F4D7CEC431C1F48091AB01EF
:100F0000981214C00E94C50C7370882799270E94FC
:100F10008B0CC091AB0125E143E06FEF8D2F0E9458
:100F2000860B6C2F0E94CF000E949A018091AB012A
:100F30009812B9CE8091AA01D81709F450C18091B6
:100F40009F0182FD40C14BC180919F0182FFABCECA
:100F5000033079F4C851C23060F48FE992E00E9406
:100F600010018E3F31F061E0680F8FE992E00E943E
:100F7000CF008FE992E00E949A0195CEC43039F4F7
:100F80008FE992E00E9410010E9407038CCEC830C6
:100F9000D9F4C0919F01C0FF86CE8FE992E00E94F4
:100FA00010018F3F09F47FCE8F5F8F3F09F47BCE16
:100FB0009091AC01891708F076CEC1FD74CE809374
:100FC000AC01D093AB016FCEC83141F429E143E0CD
:100FD0006FEF8D2F0E94860B61E088CFC93171F4CD
:100FE00080919F0183FF5FCE877F80939F018FE970
:100FF00092E00E9410018093A10155CE2091A002A1
:101000002111A5C09D3099F480E090E0892B21F05A
:101010008BE090E00E94000098E088E10FB6F89421
:10102000A895809360000FBE90936000FFCF9B3126
:10103000A9F48FE992E00E94100191E0811101C0B2
:1010400090E08091A90190FB80F98093A901E114BF
:10105000F10409F428CE8AE090E07DCE963099F430
:101060009091A60281E0992319F09D3409F080E067
:101070008093A80141E050E063E071E088EA91E0EC
:101080000E949F0F10CE933119F40E9443020BCEA1
:10109000923109F0B9CE0E9440032B013C0126E1B8
:1010A00043E06FEF80E00E94860BFC0184818F712A
:1010B000806A8483838187708062838347825086BD
:1010C00061867286CF0140C0C114D10409F4EBCD12
:1010D000829586958770853049F46091A60270915B
:1010E000A7028091A8029091A9020AC0811105C0AF
:1010F00086EA92E00E943A0F03C060E070E0CB0104
:101100000E940000D0CD8091A602833409F0CBCD9F
:10111000E114F10421F08DE090E00E940000C3E0B2
:10112000D0E06FEFCE010E94AF0F2196C33081E077
:10113000D807B9F72AE043E06FEF80E00E94860B02
:1011400061E871E00E94DB000E943C02ACCD9A3164
:1011500009F063CEA8CD886080939F018092A101A1
:1011600028E143E06FEF80E00E94860B61E00E947F
:10117000CF000E949A010E94C50C2B013C011092E5
:10118000A402C0E00E94C50CDC01CB0184199509C2
:10119000A609B709803D9740A105B10508F073CEB7
:1011A000C11171CE80919F0184FD0E943706A895E0
:1011B0008091A3028770833029F7C1E08091A40257
:1011C0008931F9F6DFCF8FE992E00E949A0103306E
:1011D00009F469CD8091AB01981265CD1ECE033024
:1011E00009F01BCE60CDDF91CF911F910F91FF9041
:1011F000EF90DF90CF90BF90AF909F908F907F90B7
:101200006F905F904F900895CF92DF92EF92FF9290
:101210000F931F93CF93DF936C017A018B01C0E092
:10122000D0E0CE15DF0589F0D8016D918D01D60192
:10123000ED91FC910190F081E02DC6010995892B7B
:1012400011F47E0102C02196ECCFC701DF91CF914E
:101250001F910F91FF90EF90DF90CF900895FC01C8
:10126000918D828D981761F0828DDF01A80FB11DDD
:101270005D968C91928D9F5F9F73928F90E0089501
:101280008FEF9FEF0895FC01918D828D981731F0BB
:10129000828DE80FF11D858D90E008958FEF9FEF0F
:1012A0000895FC01918D228D892F90E0805C9F4FE5
:1012B000821B91098F73992708958DEA91E00E940E
:1012C000510921E0892B09F420E0822F0895FC01C7
:1012D000848DDF01A80FB11DA35ABF4F2C91848DBF
:1012E00090E001968F739927848FA689B7892C93F4
:1012F000A089B1898C9180648C93938D848D98138F
:1013000006C00288F389E02D80818F7D8083089557
:10131000EF92FF920F931F93CF93DF93EC0181E045
:10132000888F9B8D8C8D981305C0E889F989808101
:1013300085FD24C0F62E0B8D10E00F5F1F4F0F733D
:101340001127E02E8C8DE8120CC00FB607FCFACFE7
:10135000E889F989808185FFF5CFCE010E94670970
:10136000F1CF8B8DFE01E80FF11DE35AFF4FF082A4
:101370000B8FEA89FB898081806207C0EE89FF8933
:101380006083E889F98980818064808381E090E0CE
:10139000DF91CF911F910F91FF90EF900895CF9320
:1013A000DF93EC01888D8823C9F0EA89FB8980816D
:1013B00085FD05C0A889B9898C9186FD0FC00FB63F
:1013C00007FCF5CF808185FFF2CFA889B9898C9180
:1013D00085FFEDCFCE010E946709E7CFDF91CF9166
:1013E000089580E090E0892B29F00E945D09811129
:1013F0000C94000008953FB7F894809157039091A2
:101400005803A0915903B0915A0326B5A89B05C073
:101410002F3F19F00196A11DB11D3FBFBA2FA92F73
:10142000982F8827820F911DA11DB11DBC01CD01F0
:1014300043E0660F771F881F991F4A95D1F70895DB
:1014400008952F923F924F925F926F927F928F9268
:101450009F92AF92BF92CF92DF92EF92FF920F9343
:101460001F93CF93DF93CDB7DEB765970FB6F89490
:10147000DEBF0FBECDBF0E94FB096B017C018091D6
:101480004E0390914F032601481A590A29EF42163C
:1014900021E1520608F4F6C08091C8029091C90279
:1014A000A201481B590BCA0157FF03C091958195B2
:1014B0009109883C91050CF0E1C08091C6029091A1
:1014C000C70201969093C7028093C602029709F063
:1014D000D5C092EC692E90E0792E01E010E02090CA
:1014E000C4023090C5023B862A8649E050E0B30131
:1014F000CE0101960E94610F8C816B81681708F400
:10150000682F70E08091C8029091C9020E94EE0E8F
:101510009B014091250150912601649FC001659F68
:10152000900D749F900D112464E670E00E94EE0E01
:101530008985811103C0A1E0B0E002C0A2E0B0E063
:101540008D81829FA001839F500D11245D874C8760
:101550008E81829F1001839F300C11243F862E863E
:101560008F81829FA001839F500D1124598B488B3E
:101570008885829F1001839F300C11243B8A2A8A20
:10158000FD01EE0FFF1FE853FD4F812C912C5401FC
:101590004A855B85415051095D8B4C8B8C899D89B7
:1015A000A817B90708F040C0880C991CAA1CBB1CDE
:1015B00080819181AC012C843D844219530957FFED
:1015C00003C05195419551094617570770F4428160
:1015D00053812E843F844219530957FF03C051950C
:1015E0004195510946175707E0F028883988821934
:1015F000930997FF03C091958195910986179707E5
:1016000080F5828193814A895B89841B950B97FFC2
:1016100003C09195819591098617970710F56894F5
:1016200080F812963496BACF4A855B8548305105CA
:1016300008F180924A0290924B02A0924C02B09222
:101640004D021C01369427943092A7012092A601E6
:101650003093C3022093C2021093C1020093C002D0
:1016600009C00F5F1F4F59E0650E711C073011054F
:1016700009F035CF1092C7021092C6021092C5022F
:101680001092C4028091C4029091C50283349105E6
:1016900040F01092C5021092C4021092C70210923C
:1016A000C6028091C4029091C5029C012F5F3F4FFA
:1016B0003093C5022093C402880F991FFC01E853A0
:1016C000FD4F51824082C0924E03D0924F03E09270
:1016D0005003F092510365960FB6F894DEBF0FBE2B
:1016E000CDBFDF91CF911F910F91FF90EF90DF90D1
:1016F000CF90BF90AF909F908F907F906F905F90B2
:101700004F903F902F9008950E94080FEEE7F2E06F
:101710009091AA0191838283668325834770848197
:10172000807E482B4483CF01089590E0FC01E25570
:10173000FF4F2491FC01E656FF4F8491882399F0D6
:1017400090E0880F991FFC01E057FF4FA591B491DD
:10175000FC01EA57FF4F859194918FB7F894EC9173
:10176000E22BEC938FBF0895FC018091AA01818345
:101770009481907F916094838091A90180FF03C040
:10178000CF010C943C0280E00895CF93DF93262F85
:101790008F3F11F0EA0102C0C7E8D1E040E0682FB6
:1017A00080E00E94860BBE010E94DB00DF91CF919A
:1017B0000C943C021F920F920FB60F9211242F939C
:1017C0003F934F935F936F937F938F939F93AF93C9
:1017D000BF93EF93FF938DEA91E00E946709FF9119
:1017E000EF91BF91AF919F918F917F916F915F9199
:1017F0004F913F912F910F900FBE0F901F90189512
:101800001F920F920FB60F9211242F938F939F93D5
:10181000EF93FF93E091BD01F091BE018081E091D3
:10182000C301F091C40182FD12C090818091C60174
:101830008F5F8F732091C701821751F0E091C6012D
:10184000F0E0E355FE4F958F8093C60101C0808183
:10185000FF91EF919F918F912F910F900FBE0F905D
:101860001F901895833081F028F4813099F08230F0
:10187000A1F008958730A9F08830B9F08430D1F410
:10188000809180008F7D03C0809180008F7780934E
:101890008000089584B58F7702C084B58F7D84BDA4
:1018A00008958091B0008F7703C08091B0008F7D44
:1018B0008093B00008951F93CF93DF93282F30E0DB
:1018C000F901EE58FF4F8491F901E255FF4FD49191
:1018D000F901E656FF4FC491CC23C9F0162F8111B0
:1018E0000E94320CEC2FF0E0EE0FFF1FEA57FF4F83
:1018F000A591B4918FB7F894111105C09C91ED2F6B
:10190000E095E92302C0EC91ED2BEC938FBFDF91C2
:10191000CF911F9108958F929F92AF92BF92CF92D5
:10192000DF92EF92FF926B017C010E94FB094B0159
:101930005C01C114D104E104F104F1F00E94FB093F
:10194000DC01CB0188199909AA09BB09883E93409B
:10195000A105B10570F321E0C21AD108E108F10830
:1019600088EE880E83E0981EA11CB11CC114D1041E
:10197000E104F10419F7DDCFFF90EF90DF90CF90F5
:10198000BF90AF909F908F9008952FB7F89460917B
:1019900053037091540380915503909156032FBFC8
:1019A0000895CF92DF92EF92FF92CF93DF93D82FDB
:1019B0000E94C50C6B017C0181E0D11180E0809315
:1019C000A402C0E00E94C50CAB01BC014C195D092A
:1019D0006E097F09403D57406105710580F4C111D2
:1019E0000EC0A8950E9430039091A3029770933087
:1019F00049F7C1E08091A4028D13E3CFE3CF8C2F90
:101A0000DF91CF91FF90EF90DF90CF9008951F92DC
:101A10000F920FB60F9211242F933F938F939F93A2
:101A2000AF93BF938091530390915403A0915503BA
:101A3000B09156033091520326E0230F2D3720F446
:101A40000296A11DB11D05C029E8230F0396A11D13
:101A5000B11D209352038093530390935403A0939A
:101A60005503B09356038091570390915803A0916A
:101A70005903B0915A030196A11DB11D80935703DC
:101A800090935803A0935903B0935A03BF91AF9119
:101A90009F918F913F912F910F900FBE0F901F90AC
:101AA00018951F920F920FB60F9211242F933F9308
:101AB0004F935F936F937F938F939F93AF93BF9356
:101AC000EF93FF93E0912301F09124010995FF9199
:101AD000EF91BF91AF919F918F917F916F915F91A6
:101AE0004F913F912F910F900FBE0F901F9018951F
:101AF0001F920F920FB60F9211242F933F934F9383
:101B00005F936F937F938F939F93AF93BF93EF9365
:101B1000FF93E0912101F09122010995FF91EF914E
:101B2000BF91AF919F918F917F916F915F914F91F5
:101B30003F912F910F900FBE0F901F901895CF934C
:101B4000DF93FC01108211821282148215821682A8
:101B5000DC0117968AE1ED0119928A95E9F782E096
:101B60008383DF91CF910895789484B5826084BD9A
:101B700084B5816084BD85B5826085BD85B5816091
:101B800085BD80916E00816080936E00109281000F
:101B900080918100826080938100809181008160CA
:101BA000809381008091800081608093800080918B
:101BB000B10084608093B1008091B0008160809317
:101BC000B00080917A00846080937A0080917A00DE
:101BD000826080937A0080917A008E7F80937A0071
:101BE00080917A00806880937A001092C100A89555
:101BF00080E090E0892B11F00E940000E091BD018F
:101C0000F091BE0182E08083E091B901F091BA01C8
:101C10001082E091BB01F091BC0188E080831092BA
:101C2000C501E091C101F091C20186E08083E0919D
:101C3000BF01F091C001808180618083E091BF018C
:101C4000F091C001808188608083E091BF01F091B4
:101C5000C001808180688083E091BF01F091C00164
:101C600080818F7D80838091A9018D7F8093A901E0
:101C700080E090E0892B11F00E94000041E050E0EC
:101C800063E071E088EA91E00E94870F6FEF81E0E6
:101C900090E00E94AF0F8091A0018F788093A00107
:101CA00010929601109295018DE191E00E945303EC
:101CB00087E892E090939401809393010E94C50C71
:101CC0000E94C50C0E943003A89580919F0182FF5D
:101CD000F7CF0E940406A895A8950E9430030E94A1
:101CE0000E050E94F109F8CF0F931F93CF93DF9356
:101CF000EDEAF1E01382128288EE93E0A0E0B0E01A
:101D000084839583A683B7838BE291E0918380835C
:101D100085EC90E09587848784EC90E097878687B0
:101D200080EC90E0918B808B81EC90E0938B828BA8
:101D300082EC90E0958B848B86EC90E0978B868B81
:101D4000118E128E138E148E8FE992E00E949F0DD9
:101D50008EE792E00E949F0DCFE6D2E00FEF1FEFDB
:101D60001B830A838AE090E09D838C8349E050E0E6
:101D700062EC70E085E792E00E94610F19830883AE
:101D80008CE390E0909326018093250110924A0203
:101D900010924B0210924C0210924D028CE793E08D
:101DA0000E949F0DECE7F3E0C1E0C68383E08583EA
:101DB0008EE492E00E949F0DEEE4F2E0C683C2E062
:101DC000C5838BE593E00E949F0DEBE5F3E0C683AE
:101DD000C583DF91CF911F910F910895AA1BBB1B63
:101DE00051E107C0AA1FBB1FA617B70710F0A61B1B
:101DF000B70B881F991F5A95A9F780959095BC013C
:101E0000CD010895EE0FFF1F0590F491E02D099488
:101E100081E090E0F8940C94C10FFB01DC0141508B
:101E2000504048F001900D920020C9F701C01D926A
:101E300041505040E0F70895FC0188279927E89425
:101E400021912032E9F3293010F02E30C8F32B32E3
:101E500041F02D3239F4689404C00E947F0F820F44
:101E6000911D219120532A30C0F31EF49095819545
:101E70009F4F08951F93FC0199278827BC01E89480
:101E800011911032E9F3193010F01E30C8F31B32F3
:101E900051F01D3249F4689406C00E946A0F610F28
:101EA000711D811D911D119110531A30B0F33EF434
:101EB00090958095709561957F4F8F4F9F4F1F91A3
:101EC0000895FB01DC0102C005900D924150504085
:101ED000D8F70895592F482F372F262F660F771FD1
:101EE000881F991F660F771F881F991F620F731F26
:101EF000841F951F660F771F881F991F08957AE02A
:101F0000979F902D879F802D910D11240895DC01BE
:101F1000CB01FC01F999FECF06C0F2BDE1BDF89AF4
:101F2000319600B40D9241505040B8F70895F99998
:101F3000FECF92BD81BDF89A992780B50895DC0146
:101F4000A40FB51F4150504048F0CB01840F951F9E
:101F50002E910E94B00F41505040D0F70895262F87
:101F6000F999FECF92BD81BDF89A019700B402168F
:101F700039F01FBA20BD0FB6F894FA9AF99A0FBE3D
:061F80000895F894FFCF64
:101F8600FFFFFF00FCE1A8A870017F03D002DF037A
:101F9600B502A903A7009F03E9020904FFB9003BA4
:101FA60004200A200A3C00000000008809040951A8
:101FB600092F094309CF094B69642773206C6967A8
:101FC600687400302E32004D61696E206C69676856
:101FD6007420696E74656E73697479004D61696EFB
:101FE600206C6967687420737769746368004C694C
:101FF60067687420737769746368005365747570D5
:10200600204F4B000D0A00322E312E302D626574A2
:02201600610067
:00000001FF
