:100000000C9489000C94BC0A0C94950A0C94B100D1
:100010000C94B1000C94B1000C94B0060C94B10097
:100020000C94B1000C94B1000C94B1000C94B1008C
:100030000C94B1000C94B1000C94B1000C94B1007C
:100040000C944B0A0C94B1000C94B1000C94B100C8
:100050000C94B1000C94B1000C94B1000C94B1005C
:100060000C94B1000C94B100B5091D0A1D0AC90910
:100070001D0A1D0AE009ED09FA091D0A090A1D0AEF
:100080001D0A1D0A1D0A1D0A100A5E01011F010337
:100090000301008A02010A010202010064001E47F6
:1000A000040B0906007C0101060103030100F401B1
:1000B000060E0102020100C2011701010202010144
:1000C0000000000800020100000304070000000017
:1000D0000000000000000000250028002B000000A8
:1000E0000000240027002A0004040404040404047B
:1000F00002020202020203030303030301020408D3
:100100001020408001020408102001020408102081
:10011000720B11241FBECFEFD8E0DEBFCDBF11E0C0
:10012000A0E0B1E0ECEEF8E102C005900D92A4373A
:10013000B107D9F722E0A4E7B1E001C01D92AF39C1
:10014000B207E1F710E0C9E8D0E004C02197FE0152
:100150000E945F0CC838D107C9F70E94E30A0C94CB
:10016000740C0C940000FC01838187708860838389
:1001700084818F71806284836783CF010895809129
:100180007F01846080937F018091800180788093DB
:100190008001E0918401F0918501309709F0099484
:1001A000089584E00E9452081092890110928801FB
:1001B0001092990110929A0110929B0110929C0149
:1001C000109298011092970180EE96E0909325018D
:1001D00080932401E9E6F0E080818C7F8160808358
:1001E000E89A0895EFE7F1E08081877F8F7E808332
:1001F00010927B0110927C0110927D0110927E0181
:1002000044E050E060E070E08FED91E00C94190C58
:100210000F931F930E944809009177011091780174
:100220002091790130917A01601B710B820B930B45
:100230001F910F9108959C01809175019091760115
:100240008217930751F090917F019F7190937F01E6
:10025000309376012093750105C080917F01805E07
:1002600080937F01E0917501F0917601309721F044
:100270000190F081E02D09950E9448096093770173
:10028000709378018093790190937A0108950F9388
:100290001F930E940801209180012077203729F0C8
:1002A00000E117E220E030E004C000E61AEE20E0B2
:1002B00030E0061717072807390730F48EE191E080
:1002C0001F910F910C941B011F910F910895809124
:1002D00080018F70863020F088E191E00C941B0142
:1002E00008958091DF018F3F19F080E191E010C007
:1002F0000E940801613D77408105910558F0809189
:100300007F01803618F48CE091E002C088E091E033
:100310000C941B0108950E940801613D77408105FE
:10032000910520F480917F0181FF08958091E00183
:100330008F3F41F080917F018E7F80937F018CE021
:1003400091E009C080917F01803618F488E191E046
:1003500002C088E091E00C941B01CF93C091810111
:10036000CF3F91F00E94480960937B0170937C011C
:1003700080937D0190937E018091E101C813C09329
:10038000E10184E191E013C00E940801613D7740E2
:100390008105910578F080917F01803618F480E125
:1003A00091E005C0877F80937F0188E191E0CF9144
:1003B0000C941B01CF91089591E59CBD91E09DBDEA
:1003C0002A98E3E2F0E03197F1F78EBD00000DB41A
:1003D00007FEFDCF8EB5FB019FEF4150C8F02223F1
:1003E00061F09EBD00000DB407FEFDCF8EB5611516
:1003F000710599F380833196F0CFDF0111968081EA
:100400008EBD00000DB407FEFDCF8EB5FD01E5CF1A
:100410002A9AE3E2F0E03197F1F70895CF93DF9362
:100420001F92CDB7DEB7698320E041E0BE016F5F68
:100430007F4F0E94DC010F90DF91CF910895809152
:100440008001982F9077903759F0982F92959F7050
:100450009F5F97709295907F8F78892B8093800112
:1004600080917F018B7F8F7E80937F0129986CE044
:1004700080E20C940E026FE080E20E940E02609116
:100480001D016F3F19F08AE20E940E02299A089519
:10049000CF939FEF980F9E3FB0F4C82F8093DF015A
:1004A00080931D0163E082E20E940E0261E081E21E
:1004B0000E940E020E943B026C2F80E090E00E949E
:1004C000390C81E004C08FEF8093DF0180E0CF9191
:1004D000089520E040E060E070E00C94DC01EF92D1
:1004E000FF921F93CF93DF93FC01828190917F0154
:1004F00090FF04C08F3F09F04DC005C08F3F19F039
:10050000D091E00101C0DFEF8091DF018083438162
:1005100042FD06C0469546954695C7E0C40F01C00A
:10052000C0E27F011091E2011170299883E092E00E
:100530000197F1F76EE080E20E940E028BE891E0F5
:100540000197F1F76D2F8AE20E940E026D2F80E372
:100550000E940E0281EE0E946902DF3F21F011111C
:1005600002C080EA01C080EB4C2FC13208F040E2AB
:1005700020E0B7010E94DC01299AE12CF12C8FEFD9
:100580000E946902C82F807339F481E0E81AF108EB
:10059000B1F702C010E027C0299860E387E20E940B
:1005A0000E02C4FF03C081EE0E9469020E943B025A
:1005B000C5FD02C0117001C011E081E0DF3F09F00C
:1005C00080E0182B8091E001D8130DC0909180013C
:1005D000111106C081E0890F8F70907F982B01C0A8
:1005E000907F90938001812FDF91CF911F91FF9099
:1005F000EF9008958FEF80938101EFE7F1E0808124
:100600008860808328E143E06FEF80E00E94430828
:1006100061E00E94B3000C946F02CF93219A229A5A
:1006200029982A9ACFB7F89480917401811124C037
:10063000E2EFF0E08491E6E0F1E09491E82FF0E061
:10064000EE0FFF1FE252FF4FA591B491EC91E92309
:1006500021F461E08AE00E94B0088AE00E9452081A
:100660008CB580618CBD8CB580648CBD8DE00E94A2
:1006700052088BE00E945208809174018F5F809332
:100680007401CFBF6EE080E20E940E0265E070E070
:1006900080E090E00E940E0963E083E20E940E0277
:1006A0006FE584E20E940E026CE485E20E940E0275
:1006B00065E286E20E940E0263E780E50E940E0278
:1006C00064E08DE30E940E0221E041E060E070E012
:1006D00086E00E94DC01853209F04AC021E041E059
:1006E00060E070E085E00E94DC018C3409F040C0DD
:1006F00062E082E20E940E0260E081E20E940E024D
:1007000063E08CE30E940E028FEF8093030120E0F0
:1007100045E063E071E08BE20E94DC0120E045E00F
:1007200063E071E08AE20E94DC0120E045E063E0E2
:1007300071E080E30E94DC0182EE0E94690281EE9A
:100740000E94690260E787E20E940E0280917F01A9
:10075000806180937F018091E2018E7F8093E2012E
:100760008091DF018F3F39F00E944802811103C060
:1007700088E091E002C088E191E0CF910C941B01E8
:10078000FC0184818F7180648483838187708061A0
:10079000838370876783CF0108950F931F93CF934F
:1007A000DF93EC016115710561F0FB010190002000
:1007B000E9F73197E61BF70BE931F10518F0E9E1AC
:1007C00001C0E0E00E2F10E0C80123E0880F991F60
:1007D0002A95E1F79B819770892B8B838C818F7190
:1007E0008C83EE2329F0A801CE0107960E94650CA8
:1007F000FE01E00FF11F1782CE01DF91CF911F9113
:100800000F9108958091DF018F3FB1F40E94480954
:100810006F3F19F060931C0102C010921C0123E08D
:1008200043E060911C0180E00E9443086FE371E0A7
:100830000E94CD030C946F020895EFE7F1E08081F0
:10084000897F81608083EFEDF1E08FEF8283818388
:1008500027E043E06FEF0E9443086FE371E00E94DE
:10086000CD030C946F02FC012481229526952770FC
:10087000213011F487810895211104C007960E9448
:10088000AE0B089580E00895CF93DF93FC011082B2
:1008900011821282148215821682DC0117968AE177
:1008A000ED0119928A95E9F782E08383DF91CF9178
:1008B000089520917F0122FD0C946F0280E008953D
:1008C000FC01962F8091DF0181836481607F262F58
:1008D000216088E0989FB0011124622B648380918D
:1008E000870180FF03C0CF010C94590480E0089574
:1008F000CF932FE043E06FEF80E00E9443086FE367
:1009000071E00E94CD03EEEBF1E08381877080619E
:10091000838384818F71806C848381E087831086D8
:10092000CF010E9459048FE00E9454094FE351E027
:1009300061E18FEF0E947108C091E00126E043E081
:100940006FEF80E00E9443086C2F0E94B3000E946A
:10095000590486E00E945409CF910C948608CF93E5
:100960008091870181FD1FC00E94780480918701DA
:10097000816080938701C4E02AE143E06FEF80E06B
:100980000E94430862E00E94B3000E9459048BE178
:100990000E945409811102C0C15071F780918701F2
:1009A000826080938701CF9108957F928F929F926A
:1009B000AF92BF92CF92DF92EF92FF920F931F936D
:1009C000CF93DF931F92CDB7DEB7E0917501F09121
:1009D0007601309721F00280F381E02D0995809116
:1009E0007F0184FBFF24F0F884FFABC186E0782E02
:1009F00000E010E091E2E92E21E041E060E070E0EB
:100A000087E10E94DC0180FD9CC17A94772009F483
:100A100098C121E041E060E070E080E60E94DC01E6
:100A2000C82E80E28C1520F482EE0E946902C12C4F
:100A300021E04C2D6DE971E081E60E94DC0160E46B
:100A400087E20E940E029091A001292F26952695FB
:100A500026952A3108F029E192FD03C037E0320FD4
:100A600001C030E2E091A101B090A201D0909E01BE
:100A700080919D0140919F01C312BECF392F3370E9
:100A8000323009F0B9CF5E2F577030918001306855
:100A9000309380013091DF01431338C030E0B90159
:100AA000F3E0660F771FFA95E1F79770962B909316
:100AB000A001D901A356BE4F17961C92E3FF19C09F
:100AC000EDE9F1E0AEEBB1E08E2D01900D928A954B
:100AD000E1F78091C201877F80618093C2014093DA
:100AE000BF01D092C0018EEB91E059830E9459045E
:100AF00059812091A10124FD12C0533081F49091BD
:100B0000A20181EF890F8330B8F576CF4F3F09F00E
:100B100073CF533049F09091E00189136DCF8DE987
:100B200091E00E94FC0868CF90917F0192FF04C081
:100B300097E0B91609F460CF98E0B91609F45CCFD4
:100B400094E1B91259CF9091E001891355CF0E94D9
:100B500048097370882799270E940E09C090E00108
:100B600025E143E06FEF8D2D0E9443086C2D0E941C
:100B7000B3000E946F0240CF84E0B81210C0809191
:100B8000A30190911C01891719F08F3F09F034CF10
:100B90008DE991E00E9433040E9448022DCF88E045
:100BA000B8121CC0C0907F01C0FE26CF8DE991E035
:100BB0000E9433048F3F09F41FCF91E0980F9F3FAD
:100BC00009F41ACF8091E101981708F015CFC1FC04
:100BD00013CF9093E101D092E0010ECF88E1B812DB
:100BE00008C029E143E06FEF8D2D0E94430861E0CA
:100BF000BECF89E1B8120EC080917F0183FFFCCE89
:100C0000877F80937F018DE991E00E943304809378
:100C10008101F2CE80919E0181117EC09D3059F4F8
:100C200098E088E10FB6F894A895809360000FBE15
:100C300090936000FFCF9B3179F48DE991E00E94A1
:100C4000330491E0811101C090E08091870190FB15
:100C500080F980938701D0CE9630A9F49091A401B9
:100C6000992329F081E09D3419F080E001C08F2D97
:100C70008093860141E050E063E071E086E891E016
:100C80000E94290CB9CE933119F40E947804B4CE95
:100C90009231D9F40E9408014B015C0126E143E046
:100CA0006FEF80E00E944308FC0184818F71806AAD
:100CB0008483838187708062838387829086A18604
:100CC000B286CF010E94590497CE9130F9F40115F4
:100CD000110509F491CE229526952770253049F407
:100CE0006091A4017091A5018091A6019091A70146
:100CF0000AC0211105C084EA91E00E94CC0B03C018
:100D000060E070E0CB010E94000076CE9A3009F4DA
:100D100073CE9C3121F470CE9A3109F46DCE9EE1F0
:100D2000B91609F469CE9DE1B912F9CE2FE143E07D
:100D30006FEF80E00E94430860E07FEF0E94C003F5
:100D400018CF0F90DF91CF911F910F91FF90EF90EF
:100D5000DF90CF90BF90AF909F908F907F9008953D
:100D60001F920F920FB60F9211240F900FBE0F908B
:100D70001F9018953FB7F89480919B0290919C0228
:100D8000A0919D02B0919E0226B5A89B05C02F3F61
:100D900019F00196A11DB11D3FBFBA2FA92F982FA1
:100DA0008827820F911DA11DB11DBC01CD0142E01C
:100DB000660F771F881F991F4A95D1F708950895E8
:100DC0002F923F924F925F926F927F928F929F925B
:100DD000AF92BF92CF92DF92EF92FF920F931F9349
:100DE000CF93DF93CDB7DEB765970FB6F894DEBF2C
:100DF0000FBECDBF0E94BA066B017C0180919202AA
:100E0000909193022601481A590A2DEC421620E1CE
:100E1000520608F4F6C080910C0290910D02A201D6
:100E2000481B590BCA0157FF03C091958195910941
:100E3000883C91050CF0E1C080910A0290910B0270
:100E4000019690930B0280930A02029709F0D5C095
:100E50009AE8692E90E0792E01E010E020900802D7
:100E6000309009023B862A8649E050E0B301CE016A
:100E700001960E94F30B8C816B81681708F4682F30
:100E800070E080910C0290910D020E944B0C9B012E
:100E90004091220150912301649FC001659F900DF4
:100EA000749F900D112464E670E00E944B0C8985BC
:100EB000811103C0A1E0B0E002C0A2E0B0E08D81EA
:100EC000829FA001839F500D11245D874C878E81E6
:100ED000829F1001839F300C11243F862E868F81C4
:100EE000829FA001839F500D1124598B488B8885C8
:100EF000829F1001839F300C11243B8A2A8AFD01B6
:100F0000EE0FFF1FE45FFD4F812C912C54014A85A9
:100F10005B85415051095D8B4C8B8C899D89A8174D
:100F2000B90708F040C0880C991CAA1CBB1C808122
:100F30009181AC012C843D844219530957FF03C0B1
:100F40005195419551094617570770F442815381D5
:100F50002E843F844219530957FF03C05195419590
:100F6000510946175707E0F02888398882199309F4
:100F700097FF03C09195819591098617970780F592
:100F8000828193814A895B89841B950B97FF03C0FB
:100F90009195819591098617970710F5689480F8C7
:100FA00012963496BACF4A855B8548305105C0F019
:100FB0008092990190929A01A0929B01B0929C011B
:100FC0001C01369427943092980120929701309317
:100FD000070220930602109305020093040209C041
:100FE0000F5F1F4F59E0650E711C0730110509F0A6
:100FF00035CF10920B0210920A0210920902109241
:10100000080280910802909109028334910540F012
:10101000109209021092080210920B0210920A021A
:1010200080910802909109029C012F5F3F4F3093FD
:10103000090220930802880F991FFC01E45FFD4F0D
:1010400051824082C0929202D0929302E092940226
:10105000F092950265960FB6F894DEBF0FBECDBF35
:10106000DF91CF911F910F91FF90EF90DF90CF9084
:10107000BF90AF909F908F907F906F905F904F90B8
:101080003F902F900895EEEBF1E09091DF01918376
:1010900082836683258347708481807E482B4483C6
:1010A000CF01089590E0FC01E450FF4F2491FC0132
:1010B000E851FF4F8491882399F090E0880F991FA1
:1010C000FC01E252FF4FA591B491FC01EC52FF4F9D
:1010D000859194918FB7F894EC91E22BEC938FBFAC
:1010E0000895CF93DF93262F8F3F11F0EA0102C0BE
:1010F000C8E2D1E040E0682F80E00E944308BE01D2
:101100000E94CD03DF91CF910C9459042BE043E072
:101110006FEF80E00E9443086EE271E00E94CD0311
:101120000E9459042CE043E06FEF80E00E944308E6
:101130006AE371E00E94CD030E94590440E451E04B
:1011400064E081E00E94710845E551E063E081E0E0
:101150000E94710847E651E063E082E00C94710858
:1011600090E0FC01E054FF4F3491FC01E450FF4F4C
:101170002491FC01E851FF4FE491EE2309F43BC0B8
:10118000332339F1333091F038F43130A9F0323073
:1011900001F584B58F7D12C0373091F03830A1F061
:1011A0003430B9F4809180008F7D03C0809180003D
:1011B0008F77809380000DC084B58F7784BD09C080
:1011C0008091B0008F7703C08091B0008F7D8093B5
:1011D000B000F0E0EE0FFF1FEC52FF4FA591B4916D
:1011E0008FB7F894EC91611103C020952E2301C0B4
:1011F0002E2B2C938FBF0895FC012681223069F499
:101200002581223051F40E943304882311F061E0DB
:1012100001C060E084E00C94B00808958F929F9222
:10122000AF92BF92CF92DF92EF92FF926B017C015F
:101230000E94BA064B015C01C114D104E104F1041F
:10124000F1F00E94BA06DC01CB0188199909AA09BC
:10125000BB09883E9340A105B10570F321E0C21A95
:10126000D108E108F10888EE880E83E0981EA11CE1
:10127000B11CC114D104E104F10419F7DDCFFF90D2
:10128000EF90DF90CF90BF90AF909F908F90089598
:101290002FB7F8946091970270919802809199020B
:1012A00090919A022FBF0895CF92DF92EF92FF9212
:1012B000CF93DF93D82F0E9448096B017C0181E016
:1012C000D11180E08093A201C0E00E944809AB01E7
:1012D000BC014C195D096E097F09403D574061050D
:1012E000710580F4C1110EC0A8950E94D50490919B
:1012F000A1019770933049F7C1E08091A2018D134D
:10130000E3CFE3CF8C2FDF91CF91FF90EF90DF9071
:10131000CF900895CF92DF92EF92FF92CF93DF9319
:10132000CDB7DEB7A1970FB6F894DEBF0FBECDBF25
:10133000C0909901D0909A01E0909B01F0909C019F
:10134000C114D104E104F10409F483C061E083E035
:101350000E94B008F601E150F448E131F10508F0CF
:101360006CC0EC5CFF4F0C945F0CCE0101960E94A8
:10137000440481E08F8382E08E8385E08B838C81BF
:10138000877088608C838D818F7180628D831886D1
:1013900013C0CE0101960E94440491E09F8382E035
:1013A0008E8385E08B838C81877088608C838D81B0
:1013B0008F7180628D83988761E0CE0101963BC07A
:1013C000CE0101960E94440481E08F8383E08E83E6
:1013D00085E08B8364E670E019C0CE0101960E941F
:1013E000440481E08F8383E08E8385E08B8362E316
:1013F00070E00CC0CE0101960E94440481E08F830E
:1014000083E08E8385E08B8369E170E0CE010196F5
:101410000FC061E084E00E94B00861E070E006C0A7
:1014200060E084E00E94B00860E070E083EE91E04C
:101430000E94C00360E00E94600410929901109223
:101440009A0110929B0110929C0160E083E00E943F
:10145000B0080E9448096B017C010E944809DC0128
:10146000CB018C199D09AE09BF09883C9105A105E6
:10147000B10520F4A8950E94D504EFCFA1960FB630
:10148000F894DEBF0FBECDBFDF91CF91FF90EF90FC
:10149000DF90CF9008951F920F920FB60F921124F4
:1014A0002F933F938F939F93AF93BF938091970216
:1014B00090919802A0919902B0919A02309196026F
:1014C00023E0230F2D3720F40196A11DB11D05C087
:1014D00026E8230F0296A11DB11D2093960280934A
:1014E000970290939802A0939902B0939A028091E8
:1014F0009B0290919C02A0919D02B0919E02019648
:10150000A11DB11D80939B0290939C02A0939D020C
:10151000B0939E02BF91AF919F918F913F912F9178
:101520000F900FBE0F901F9018951F920F920FB63D
:101530000F9211242F933F934F935F936F937F9359
:101540008F939F93AF93BF93EF93FF93E091260107
:10155000F09127010995FF91EF91BF91AF919F9174
:101560008F917F916F915F914F913F912F910F904C
:101570000FBE0F901F9018951F920F920FB60F92EB
:1015800011242F933F934F935F936F937F938F9388
:101590009F93AF93BF93EF93FF93E0912401F0915A
:1015A00025010995FF91EF91BF91AF919F918F9187
:1015B0007F916F915F914F913F912F910F900FBE4F
:1015C0000F901F901895789484B5826084BD84B57F
:1015D000816084BD85B5826085BD85B5816085BD2E
:1015E00080916E00816080936E00109281008091E6
:1015F000810082608093810080918100816080936E
:101600008100809180008160809380008091B10092
:1016100084608093B1008091B00081608093B000BD
:1016200080917A00846080937A0080917A00826051
:1016300080937A0080917A00816080937A00809113
:101640007A00806880937A001092C100A89580E0AB
:1016500090E0892B11F00E940000809187018D7F1E
:101660008093870180E090E0892B11F00E940000B8
:1016700041E050E063E071E086E891E00E94190CDF
:101680006FEF81E090E00E94390C809180018F78AB
:101690008093800110927601109275018EE191E0A5
:1016A0000E941B018FEA94E090938501809384014E
:1016B0000E9448090E9448090E94D504A89580917B
:1016C0007F0182FFF7CF0E94D100A895C0E0D0E053
:1016D000A8950E94D5040E948A092097C9F30E9408
:1016E0000000F6CF0F931F93CF93DF938DE991E026
:1016F0000E9444048EEB91E00E944404C8E8D1E0CB
:101700000FEF1FEF1B830A838AE090E09D838C8399
:1017100049E050E06AE870E08EE891E00E94F30B47
:10172000198308838CE390E0909323018093220136
:101730001092990110929A0110929B0110929C01B3
:1017400083EE91E00E944404E3EEF1E082E08683C0
:101750008583DF91CF911F910F910895FC01882718
:101760009927E89421912032E9F3293010F02E30A6
:10177000C8F32B3241F02D3239F4689404C00E9432
:10178000110C820F911D219120532A30C0F31EF4B9
:10179000909581959F4F08951F93FC019927882765
:1017A000BC01E89411911032E9F3193010F01E30A9
:1017B000C8F31B3251F01D3249F4689406C00E94F0
:1017C000FC0B610F711D811D911D119110531A3079
:1017D000B0F33EF490958095709561957F4F8F4F53
:1017E0009F4F1F910895FB01DC0102C005900D92EF
:1017F00041505040D8F70895592F482F372F262FA2
:10180000660F771F881F991F660F771F881F991F04
:10181000620F731F841F951F660F771F881F991F04
:1018200008957AE0979F902D879F802D910D112428
:101830000895DC01CB01FC01F999FECF06C0F2BD91
:10184000E1BDF89A319600B40D9241505040B8F77E
:101850000895DC01A40FB51F4150504048F0CB0162
:10186000840F951F2E910E943A0C41505040D0F7A2
:101870000895262FF999FECF92BD81BDF89A019760
:1018800000B4021639F01FBA20BD0FB6F894FA9AC8
:10189000F99A0FBE0895AA1BBB1B51E107C0AA1FEE
:1018A000BB1FA617B70710F0A61BB70B881F991F01
:1018B0005A95A9F780959095BC01CD010895EE0F3A
:1018C000FF1F0590F491E02D0994FB01DC014150CC
:1018D000504048F001900D920020C9F701C01D92C0
:0C18E00041505040E0F70895F894FFCF0D
:1018EC00FFFFFF00FCE1A8A81F02470102047101E1
:1018FC00FA02AD01BF0067011D048B01FFFFF2006E
:10190C000D033C00DF06DF06322E322E30004B6911
:10191C00642773206C6967687400312E302E300098
:10192C004D61696E206C6967687420696E74656EB0
:10193C0073697479004D61696E206C6967687420F5
:10194C00737769746368004C69676874207377698E
:04195C007463680048
:00000001FF
