:100000000C9489000C948D0C0C94660C0C94B1002B
:100010000C94B1000C94B1000C94B0050C94B10098
:100020000C94B1000C94B1000C94B1000C94B1008C
:100030000C94B1000C94B1000C94B1000C94B1007C
:100040000C941C0C0C94B1000C94100B0C94EA0A48
:100050000C94B1000C94B1000C94B1000C94B1005C
:100060000C94B1000C94B100340790079007370747
:10007000900790073C075107660790077D07900798
:10008000900790079007900784070000000800027F
:100090000100000304070000000000000000000051
:1000A0000000250028002B0000000000240027008D
:1000B0002A000404040404040404020202020202EA
:1000C000030303030303010204081020408001021C
:1000D000040810200102040810205E01011F010322
:1000E0000301008A02010A010202010064001E47A6
:1000F000040B0906007C0101060103030100F40161
:10010000060E0102020100C20117010102020101F3
:10011000740D11241FBECFEFD8E0DEBFCDBF11E0BC
:10012000A0E0B1E0E6E7FDE102C005900D92AE3837
:10013000B107D9F723E0AEE8B1E001C01D92A539BF
:10014000B207E1F710E0C9E8D0E004C02197FE0152
:100150000E94020EC838D107C9F70E94B40C0C9453
:10016000B90E0C94000080919901846080939901EC
:1001700080919A01807880939A01E0919C01F0919E
:100180009D01309709F0099408950F931F93CF9321
:10019000DF93FC0182819091990190FF04C08F3F11
:1001A00009F04FC005C08F3F19F0D091A30101C0E5
:1001B000DFEF8091A2018083438142FD06C0469516
:1001C00046954695C7E0C40F01C0C0E28F0180E0AC
:1001D00090E0892B21F080E090E00E9400002998B7
:1001E00083E092E00197F1F76EE080E20E94F00771
:1001F0008BE891E00197F1F76D2F8AE20E94F007FA
:100200006D2F80E30E94F00781EE0E940E08DF3F11
:1002100011F080EA01C080EB4C2FC13208F040E2BF
:1002200020E0B8010E94BE07299A00E010E08FEF9D
:100230000E940E08C82F807331F401501109B9F7DC
:1002400002C0C0E02FC0299860E387E20E94F00757
:10025000C4FF03C081EE0E940E080E940108C5FB86
:10026000CC27C0F991E0DF3F09F090E0C92B8091E5
:10027000A301D81317C0C11110C080E090E0892BF2
:1002800021F085E690E00E94000080919A0191E0C3
:10029000980F9F70807F892B03C080919A01807F87
:1002A00080939A018C2FDF91CF911F910F91089528
:1002B00080919A01982F9077903759F0982F9295C6
:1002C0009F709F5F97709295907F8F78892B809316
:1002D0009A01809199018B7F8F7E8093990180E0B4
:1002E00090E0892B21F087E690E00E940000299899
:1002F0006CE080E20C94F007CF93C82F8FEF8C0F47
:100300008E3FA8F4C093A201C0931C0163E082E277
:100310000E94F00761E081E20E94F0070E9401085C
:100320006C2F80E090E00E94A70E81E00CC080E07E
:1003300090E0892B21F08EE690E00E9400008FEF84
:100340008093A20180E0CF91089580E090E0892B16
:1003500021F088E090E00E9400008FEF80939B01E5
:100360008091990188608093990128E143E06FEFC3
:1003700080E00E94960A61E00E94FA050C94C50094
:100380000F931F930E94DA0B00919101109192013B
:100390002091930130919401601B710B820B930BA0
:1003A0001F910F9108958091A2018F3FA1F480E0E9
:1003B00090E0892B21F086E090E00E94000023E08D
:1003C00043E06FEF80E00E94960A62E471E00E94D1
:1003D00006060C94C500089580E090E0892B21F07A
:1003E00084E090E00E94000080919901897F816003
:1003F000809399018FEF8093A4018093A30127E05C
:1004000043E06FEF0E94960A62E471E00E940606E4
:100410000C94C500E9E9F1E08081877F8F7E8083BD
:1004200010929501109296011092970110929801E6
:1004300043E050E060E070E082EA91E00C94870EC7
:100440002091990122FD0C94C50080E008956F92DF
:100450007F928F929F92AF92BF92DF92EF92FF9224
:100460000F931F93CF93DF9300D0CDB7DEB7E0910A
:100470008F01F09190010280F381E02D309709F017
:1004800009958091990184FBEE24E0F884FFB9C1BD
:1004900086E0F82E90E0692E90E0792E00E010E0E2
:1004A00021E2D22E21E041E060E070E087E10E948D
:1004B000BE0780FDA6C1FA94FF2009F4A2C1611411
:1004C000710421F081E090E00E94000021E041E011
:1004D00060E070E080E60E94BE07A82E80E28A15E8
:1004E00020F482EE0E940E08A12C21E04A2D69ED35
:1004F00072E081E60E94BE0760E487E20E94F00796
:100500009091DC02292F2695269526952A3108F010
:1005100029E192FD03C047E0420F01C040E2E091B3
:10052000DD025091DE02B090DA023091D902809162
:10053000DB02A41639F06114710409F4B3CF8CE620
:1005400090E00AC0492F4370423049F061147104B1
:1005500009F4A8CF8DE690E00E940000A3CF4E2FB3
:10056000477060919A01606860939A016091A2015E
:10057000861349C030E0B901F3E0660F771FFA95A2
:10058000E1F79770962B9093DC02D901A752BD4FEB
:1005900017961C92E3FF1BC0E9EDF2E0A8EBB2E076
:1005A0009D2D01900D929A95E1F79091BC02977F55
:1005B00090619093BC028093B902B092BA0288EB2A
:1005C00092E049835A830E9420025A8149812091F6
:1005D000DD0224FD13C0433089F49091DE0281EFE7
:1005E000890F833008F03FC05DCF913009F4E6C039
:1005F0009A3009F457CF9C3109F454CF89ED92E039
:100600000E948E0B4FCF8F3F09F04CCF433031F516
:100610008091990182FF03C0573009F443CF5830CD
:1006200009F440CF543109F03DCF8091A301381334
:1006300039CF0E94DA0B7370882799270E94A00B8C
:10064000A090A30125E143E06FEF8B2D0E94960A55
:100650006A2D0E94FA050E94C50024CF8091A30153
:10066000381320CFCBCF543039F489ED92E00E947B
:10067000D7060E947C0116CF5830E1F4A090990172
:10068000A0FE10CF89ED92E00E94D7068F3F09F4BB
:1006900009CF91E0980F9F3F09F404CF8091A40106
:1006A000981708F0FFCEA1FCFDCE9093A401B09264
:1006B000A301F8CE583141F429E143E06FEF8B2DCF
:1006C0000E94960A61E0C5CF593171F48091990179
:1006D00083FFE8CE877F8093990189ED92E00E94A5
:1006E000D70680939B01DECE8091DA02811185C00E
:1006F0009D3099F480E090E0892B21F08BE090E030
:100700000E94000098E088E10FB6F894A8958093C5
:1007100060000FBE90936000FFCF9B31A9F489ED7C
:1007200092E00E94D70691E0811101C090E0809193
:10073000A10190FB80F98093A1016114710409F477
:10074000B1CE8AE090E008CF9630A9F49091E00213
:10075000992329F081E09D3419F080E001C08E2DAD
:100760008093A00141E050E063E071E080EA91E015
:100770000E94970E97CE933119F40E94650692CE8F
:10078000923109F032CF0E94C0014B015C0126E199
:1007900043E06FEF80E00E94960AFC0184818F7134
:1007A000806A848383818770806283838782908656
:1007B000A186B286CF010E94200274CE01151105D8
:1007C00009F470CE229526952770253049F4609162
:1007D000E0027091E1028091E2029091E3020AC08E
:1007E000211105C080EE92E00E943A0E03C060E045
:1007F00070E0CB010E94000055CE9A3109F0FECE88
:1008000051CE0F900F90DF91CF911F910F91FF90DC
:10081000EF90DF90BF90AF909F908F907F906F9000
:1008200008959C0180918F01909190018217930708
:1008300051F0909199019F7190939901309390019B
:1008400020938F0105C080919901805E809399016A
:10085000E0918F01F09190010190F081E02D3097AF
:1008600009F009950E94DA0B60939101709392014F
:10087000809393019093940108950F931F930E9486
:10088000C00120919A012077203729F000E117E27A
:1008900020E030E004C000E61AEE20E030E0061769
:1008A00017072807390730F48DE191E01F910F9168
:1008B0000C9411041F910F91089580919A018F70EB
:1008C000863020F088E191E00C9411040895809125
:1008D0009B018F3FA1F00E94DA0B6093950170930A
:1008E0009601809397019093980180919B0190913C
:1008F000A40189138093A40184E191E01BC00E94AC
:10090000C001613D774081059105B0F0809199016A
:10091000803618F480E191E00DC0877F80939901C3
:1009200080E090E0892B21F08AE690E00E940000B0
:1009300088E191E00C94110408958091A2018F3F09
:1009400059F080E090E0892B21F087E090E00E9450
:10095000000080E191E018C00E94C001613D774035
:100960008105910598F080919901803618F48CE00A
:1009700091E00AC080E090E0892B21F089E690E0C8
:100980000E94000088E091E00C94110408950E94F8
:10099000C001613D77408105910520F48091990166
:1009A00081FF08958091A3018F3F81F0809199018B
:1009B0008E7F8093990180E090E0892B21F085E083
:1009C00090E00E9400008CE091E011C080919901BC
:1009D000803618F488E191E00AC080E090E0892B2D
:1009E00021F088E690E00E94000088E091E00C94FD
:1009F0001104CF93219A229ACFB7F89480918E0157
:100A0000811124C0ECEBF0E08491E0EDF0E09491F2
:100A1000E82FF0E0EE0FFF1FE855FF4FA591B491CE
:100A2000EC91E92321F461E08AE00E94420B8AE024
:100A30000E94A50A8CB580618CBD8CB580648CBD8C
:100A40008DE00E94A50A8BE00E94A50A80918E018C
:100A50008F5F80938E01CFBF29982A9A6EE080E243
:100A60000E94F00765E070E080E090E00E94A00B3B
:100A700063E083E20E94F0076FE584E20E94F007E2
:100A80006CE485E20E94F00767E286E20E94F007CC
:100A900063E780E50E94F00766E08DE30E94F007BF
:100AA00021E041E060E070E086E00E94BE07C82FD0
:100AB00021E041E060E070E085E00E94BE078C34F8
:100AC00009F040C0C732F1F562E082E20E94F0070F
:100AD00060E081E20E94F00763E08CE30E94F0078F
:100AE0008FEF8093030120E045E063E071E08BE24B
:100AF0000E94BE0720E045E063E071E08AE20E94C8
:100B0000BE0720E045E063E071E080E30E94BE079D
:100B100082EE0E940E0881EE0E940E0860E787E2D6
:100B20000E94F007809199018061809399018091E2
:100B3000A2018F3F81F00E947C0181110CC088E0EE
:100B400091E00BC080E090E0892BC9F387E690E04C
:100B50000E940000F4CF88E191E0CF910C94110441
:100B60001F920F920FB60F9211240F900FBE0F908D
:100B70001F901895FC0184818F7180648483838128
:100B800087708061838370876783CF01089583E0D6
:100B90000E94A50A84E00E94A50A1092AA0210925F
:100BA000A902109242021092430210924402109243
:100BB000450210929F0110929E0181E399E090936B
:100BC000220180932101E9E6F0E080818C7F816041
:100BD0008083E89A48E050E067E371E085EA91E0BD
:100BE0000E94140842E050E060E471E085EA91E080
:100BF0000C941408FC01838187708860838384814E
:100C00008F71806284836783CF0108950F931F9350
:100C1000CF93DF93EC016115710561F0FB01019049
:100C20000020E9F73197E61BF70BE931F10518F0E1
:100C3000E9E101C0E0E00E2F10E0C80123E0880FD9
:100C4000991F2A95E1F79B819770892B8B838C8163
:100C50008F718C83EE2329F0A801CE0107960E94A4
:100C60000D0EFE01E00FF11F1782CE01DF91CF9133
:100C70001F910F9108952BE043E06FEF80E00E94F9
:100C8000960A63E471E00E9406060E9420022CE0AE
:100C900043E06FEF80E00E94960A6FE471E00E94EB
:100CA00006060E94200243E551E064E081E00E94D4
:100CB000D50A48E651E063E081E00E94D50A4AE7A0
:100CC00051E063E082E00C94D50ACF9380E090E09D
:100CD000892B21F08CE090E00E9400002FE043E09F
:100CE0006FEF80E00E94960A62E471E00E940606BF
:100CF0008091BB02877080618093BB028091BC02AF
:100D00008F71806C8093BC0281E08093BF0210924F
:100D1000C00288EB92E00E9420028FE00E94E60B66
:100D200042E451E061E18FEF0E94D50AC091A30136
:100D300026E043E06FEF80E00E94960A6C2F0E944D
:100D4000FA050E94200286E00E94E60BCF910C94E7
:100D50003B06CF938091A10181FD27C00E946506CB
:100D600080E090E0892B21F089E090E00E94000073
:100D70008091A10181608093A101C4E02AE143E058
:100D80006FEF80E00E94960A62E00E94FA050E94DE
:100D900020028BE10E94E60B811102C0C15071F765
:100DA0008091A10182608093A101CF910895FC01FF
:100DB0002481229526952770213011F4878108958A
:100DC000211104C007960E941C0E089580E008952A
:100DD000CF93DF93FC01108211821282148215825C
:100DE0001682DC0117968AE1ED0119928A95E9F7DE
:100DF00082E08383DF91CF910895CF92DF92EF92CB
:100E0000FF92CF93DF93CDB7DEB7A1970FB6F894DB
:100E1000DEBF0FBECDBF8091420290914302A091F0
:100E20004402B0914502892B8A2B8B2B09F484C094
:100E300061E083E00E94420B809142029091430264
:100E4000A0914402B09145020097A105B10509F4B3
:100E500067C0FC01E150F448E131F10508F060C0E1
:100E6000EC5CFF4F0C94020E60E070E002C061E0A9
:100E700070E087E692E050C064E670E088E892E0B7
:100E80000E94BA050E94C40ACE0101960E94E8069B
:100E900081E08F8383E08E8385E08B8364E670E05E
:100EA00029C062E370E088E892E00E94BA050E94DF
:100EB000C40ACE0101960E94E80681E08F8383E098
:100EC0008E8385E08B8362E370E014C069E170E09B
:100ED00088E892E00E94BA050E94C40ACE010196F9
:100EE0000E94E80681E08F8383E08E8385E08B8318
:100EF00069E170E0CE0101960FC061E084E00E94DC
:100F0000420B61E070E006C060E084E00E94420BAA
:100F100060E070E086E492E00E94BA050E94C40A94
:100F20001092420210924302109244021092450223
:100F300060E083E00E94420B0E94DA0B6B017C01AF
:100F40000E94DA0BDC01CB018C199D09AE09BF09A7
:100F5000883C9105A105B10520F4A8950E942702BF
:100F6000EFCFA1960FB6F894DEBF0FBECDBFDF91D5
:100F7000CF91FF90EF90DF90CF90089591E59CBDC9
:100F800091E09DBD2A98E3E2F0E03197F1F78EBD44
:100F900000000DB407FEFDCF8EB5FB019FEF415061
:100FA000C8F0222361F09EBD00000DB407FEFDCF06
:100FB0008EB56115710599F380833196F0CFDF010D
:100FC000119680818EBD00000DB407FEFDCF8EB559
:100FD000FD01E5CF2A9AE3E2F0E03197F1F70895B9
:100FE000CF93DF931F92CDB7DEB7698320E041E056
:100FF000BE016F5F7F4F0E94BE070F90DF91CF91C0
:1010000008956FE080E20E94F00760911C016F3F3D
:1010100019F08AE20E94F007299A089520E040E042
:1010200060E070E00C94BE07CF92DF92EF92FF92E7
:101030000F931F93CF93DF936C017A018B01C0E074
:10104000D0E0CE15DF0589F0D8016D918D01D60174
:10105000ED91FC910190F081E02DC6010995892B5D
:1010600011F47E0102C02196ECCFC701DF91CF9130
:101070001F910F91FF90EF90DF90CF900895FC01AA
:10108000918D828D981761F0828DDF01A80FB11DBF
:101090005D968C91928D9F5F9F73928F90E00895E3
:1010A0008FEF9FEF0895FC01918D828D981731F09D
:1010B000828DE80FF11D858D90E008958FEF9FEFF1
:1010C0000895FC01918D228D892F90E0805C9F4FC7
:1010D000821B91098F739927089585EA91E00E94F8
:1010E000610821E0892B09F420E0822F0895FC019A
:1010F000848DDF01A80FB11DA35ABF4F2C91848DA1
:1011000090E001968F739927848FA689B7892C93D5
:10111000A089B1898C9180648C93938D848D981370
:1011200006C00288F389E02D80818F7D8083089539
:10113000EF92FF920F931F93CF93DF93EC0181E027
:10114000888F9B8D8C8D981305C0E889F9898081E3
:1011500085FD24C0F62E0B8D10E00F5F1F4F0F731F
:101160001127E02E8C8DE8120CC00FB607FCFACFC9
:10117000E889F989808185FFF5CFCE010E94770843
:10118000F1CF8B8DFE01E80FF11DE35AFF4FF08286
:101190000B8FEA89FB898081806207C0EE89FF8915
:1011A0006083E889F98980818064808381E090E0B0
:1011B000DF91CF911F910F91FF90EF900895CF9302
:1011C000DF93EC01888D8823C9F0EA89FB8980814F
:1011D00085FD05C0A889B9898C9186FD0FC00FB621
:1011E00007FCF5CF808185FFF2CFA889B9898C9162
:1011F00085FFEDCFCE010E947708E7CFDF91CF9139
:10120000089580E090E0892B29F00E946D088111FB
:101210000C94000008953FB7F89480919103909149
:101220009203A0919303B091940326B5A89B05C0A7
:101230002F3F19F00196A11DB11D3FBFBA2FA92F55
:10124000982F8827820F911DA11DB11DBC01CD01D2
:1012500042E0660F771F881F991F4A95D1F70895BE
:1012600008952F923F924F925F926F927F928F924A
:101270009F92AF92BF92CF92DF92EF92FF920F9325
:101280001F93CF93DF93CDB7DEB765970FB6F89472
:10129000DEBF0FBECDBF0E940B096B017C018091A8
:1012A0008803909189032601481A590A2DEC4216A9
:1012B00020E1520608F4F6C08091020390910303E6
:1012C000A201481B590BCA0157FF03C09195819594
:1012D0009109883C91050CF0E1C080910003909148
:1012E000010301969093010380930003029709F094
:1012F000D5C09AED692E90E0792E01E010E02090A3
:10130000FE023090FF023B862A8649E050E0B3019E
:10131000CE0101960E94610E8C816B81681708F4E2
:10132000682F70E080910203909103030E94EE0DFC
:101330009B014091250150912601649FC001659F4A
:10134000900D749F900D112464E670E00E94EE0DE4
:101350008985811103C0A1E0B0E002C0A2E0B0E045
:101360008D81829FA001839F500D11245D874C8742
:101370008E81829F1001839F300C11243F862E8620
:101380008F81829FA001839F500D1124598B488B20
:101390008885829F1001839F300C11243B8A2A8A02
:1013A000FD01EE0FFF1FEE5FFC4F812C912C5401CD
:1013B0004A855B85415051095D8B4C8B8C899D8999
:1013C000A817B90708F040C0880C991CAA1CBB1CC0
:1013D00080819181AC012C843D844219530957FFCF
:1013E00003C05195419551094617570770F4428142
:1013F00053812E843F844219530957FF03C05195EE
:101400004195510946175707E0F028883988821915
:10141000930997FF03C091958195910986179707C6
:1014200080F5828193814A895B89841B950B97FFA4
:1014300003C09195819591098617970710F56894D7
:1014400080F812963496BACF4A855B8548305105AC
:10145000C0F08092420290924302A0924402B09265
:1014600045021C013694279430929F0120929E01E0
:101470003093FD022093FC021093FB020093FA02CA
:1014800009C00F5F1F4F59E0650E711C0730110531
:1014900009F035CF10920103109200031092FF0261
:1014A0001092FE028091FE029091FF02833491051A
:1014B00040F01092FF021092FE021092010310926F
:1014C00000038091FE029091FF029C012F5F3F4F2D
:1014D0003093FF022093FE02880F991FFC01EE5FFC
:1014E000FC4F51824082C0928803D0928903E092DF
:1014F0008A03F0928B0365960FB6F894DEBF0FBE99
:10150000CDBFDF91CF911F910F91FF90EF90DF90B2
:10151000CF90BF90AF909F908F907F906F905F9093
:101520004F903F902F9008950E94080EE8EBF2E054
:101530009091A20191838283668325834770848181
:10154000807E482B4483CF01089590E0FC01EA534C
:10155000FF4F2491FC01EE54FF4F8491882399F0B2
:1015600090E0880F991FFC01E855FF4FA591B491B9
:10157000FC01E256FF4F859194918FB7F894EC915E
:10158000E22BEC938FBF0895FC018091A20181832F
:101590009481907F916094838091A10180FF03C02A
:1015A000CF010C94200280E00895CF93DF93262F83
:1015B0008F3F11F0EA0102C0C7E8D1E040E0682F98
:1015C00080E00E94960ABE010E940606DF91CF913C
:1015D0000C9420021F920F920FB60F9211242F939A
:1015E0003F934F935F936F937F938F939F93AF93AB
:1015F000BF93EF93FF9385EA91E00E947708FF91F4
:10160000EF91BF91AF919F918F917F916F915F917A
:101610004F913F912F910F900FBE0F901F901895F3
:101620001F920F920FB60F9211242F938F939F93B7
:10163000EF93FF93E091B501F091B6018081E091C5
:10164000BB01F091BC0182FD12C090818091BE016E
:101650008F5F8F732091BF01821751F0E091BE011F
:10166000F0E0EB55FE4F958F8093BE0101C0808165
:10167000FF91EF919F918F912F910F900FBE0F903F
:101680001F90189590E0FC01E657FF4F3491FC0144
:10169000EA53FF4F2491FC01EE54FF4FE491EE23F7
:1016A00009F43BC0332339F1333091F038F4313051
:1016B000A9F0323001F584B58F7D12C0373091F03A
:1016C0003830A1F03430B9F4809180008F7D03C0B0
:1016D000809180008F77809380000DC084B58F77D4
:1016E00084BD09C08091B0008F7703C08091B000A5
:1016F0008F7D8093B000F0E0EE0FFF1FE256FF4FAA
:10170000A591B4918FB7F894EC91611103C0209525
:101710002E2301C02E2B2C938FBF0895FC01268110
:10172000223069F42581223051F40E94D7068823A3
:1017300011F061E001C060E084E00C94420B089578
:101740008F929F92AF92BF92CF92DF92EF92FF92D1
:101750006B017C010E940B094B015C01C114D10497
:10176000E104F104F1F00E940B09DC01CB018819BE
:101770009909AA09BB09883E9340A105B10570F3F8
:1017800021E0C21AD108E108F10888EE880E83E052
:10179000981EA11CB11CC114D104E104F10419F775
:1017A000DDCFFF90EF90DF90CF90BF90AF909F90F4
:1017B0008F9008952FB7F89460918D0370918E03E8
:1017C00080918F03909190032FBF0895CF92DF9265
:1017D000EF92FF92CF93DF93D82F0E94DA0B6B0129
:1017E0007C0181E0D11180E08093DE02C0E00E94A4
:1017F000DA0BAB01BC014C195D096E097F09403D54
:1018000057406105710580F4C1110EC0A8950E9472
:1018100027029091DD029770933049F7C1E08091E3
:10182000DE028D13E3CFE3CF8C2FDF91CF91FF90BA
:10183000EF90DF90CF9008951F920F920FB60F9206
:1018400011242F933F938F939F93AF93BF938091D6
:101850008D0390918E03A0918F03B09190033091EE
:101860008C0323E0230F2D3720F40196A11DB11D19
:1018700005C026E8230F0296A11DB11D20938C03FD
:1018800080938D0390938E03A0938F03B093900366
:101890008091910390919203A0919303B09194034E
:1018A0000196A11DB11D8093910390939203A09383
:1018B0009303B0939403BF91AF919F918F913F9108
:1018C0002F910F900FBE0F901F9018951F920F929F
:1018D0000FB60F9211242F933F934F935F936F9303
:1018E0007F938F939F93AF93BF93EF93FF93E09179
:1018F0002301F09124010995FF91EF91BF91AF91E0
:101900009F918F917F916F915F914F913F912F9117
:101910000F900FBE0F901F9018951F920F920FB649
:101920000F9211242F933F934F935F936F937F9365
:101930008F939F93AF93BF93EF93FF93E091210118
:10194000F09122010995FF91EF91BF91AF919F9185
:101950008F917F916F915F914F913F912F910F9058
:101960000FBE0F901F901895789484B5826084BD47
:1019700084B5816084BD85B5826085BD85B5816093
:1019800085BD80916E00816080936E001092810011
:1019900080918100826080938100809181008160CC
:1019A000809381008091800081608093800080918D
:1019B000B10084608093B1008091B0008160809319
:1019C000B00080917A00846080937A0080917A00E0
:1019D000826080937A0080917A00816080937A009F
:1019E00080917A00806880937A001092C100A89557
:1019F00080E090E0892B11F00E940000E091B50199
:101A0000F091B60182E08083E091B101F091B201E2
:101A10001082E091B301F091B40180E180831092D3
:101A2000BD01E091B901F091BA0186E08083E091B7
:101A3000B701F091B801808180618083E091B701A6
:101A4000F091B801808188608083E091B701F091C6
:101A5000B801808180688083E091B701F091B8017E
:101A600080818F7D80838091A1018D7F8093A101F2
:101A700080E090E0892B11F00E94000041E050E0EE
:101A800063E071E080EA91E00E94870E6FEF81E0F1
:101A900090E00E94A70E80919A018F7880939A011E
:101AA0001092900110928F018DE191E00E9411043B
:101AB00089EA96E090939D0180939C010E94DA0B45
:101AC0000E94DA0B0E942702A8958091990182FF5B
:101AD000F7CF0E94C705A895A8950E9427020E94EB
:101AE000FD060E940109F8CF0F931F93CF93DF9358
:101AF000E5EAF1E01382128288EE93E0A0E0B0E024
:101B000084839583A683B7838BE291E0918380835E
:101B100085EC90E09587848784EC90E097878687B2
:101B200080EC90E0918B808B81EC90E0938B828BAA
:101B300082EC90E0958B848B86EC90E0978B868B83
:101B4000118E128E138E148E89ED92E00E94E8069B
:101B500088EB92E00E94E806C9EAD2E00FEF1FEF9F
:101B60001B830A838AE090E09D838C8349E050E0E8
:101B70006AED70E08FEA92E00E94610E198308839B
:101B80008CE390E09093260180932501109242020D
:101B900010924302109244021092450288E892E0AB
:101BA0000E94E806E8E8F2E0C1E0C68383E08583AE
:101BB00087E692E00E94E806E7E6F2E0C683C2E02C
:101BC000C58386E492E00E94E806E6E4F2E0C6837C
:101BD000C583DF91CF911F910F910895AA1BBB1B65
:101BE00051E107C0AA1FBB1FA617B70710F0A61B1D
:101BF000B70B881F991F5A95A9F780959095BC013E
:101C0000CD010895EE0FFF1F0590F491E02D09948A
:101C100081E090E0F8940C94B90EFB01DC01415096
:101C2000504048F001900D920020C9F701C01D926C
:101C300041505040E0F70895FC0188279927E89427
:101C400021912032E9F3293010F02E30C8F32B32E5
:101C500041F02D3239F4689404C00E947F0E820F47
:101C6000911D219120532A30C0F31EF49095819547
:101C70009F4F08951F93FC0199278827BC01E89482
:101C800011911032E9F3193010F01E30C8F31B32F5
:101C900051F01D3249F4689406C00E946A0E610F2B
:101CA000711D811D911D119110531A30B0F33EF436
:101CB00090958095709561957F4F8F4F9F4F1F91A5
:101CC0000895FB01DC0102C005900D924150504087
:101CD000D8F70895592F482F372F262F660F771FD3
:101CE000881F991F660F771F881F991F620F731F28
:101CF000841F951F660F771F881F991F08957AE02C
:101D0000979F902D879F802D910D11240895DC01C0
:101D1000CB01FC01F999FECF06C0F2BDE1BDF89AF6
:101D2000319600B40D9241505040B8F70895DC014F
:101D3000A40FB51F4150504048F0CB01840F951FB0
:101D40002E910E94A80E41505040D0F70895262FA2
:101D5000F999FECF92BD81BDF89A019700B40216A1
:101D600039F01FBA20BD0FB6F894FA9AF99A0FBE4F
:061D70000895F894FFCF76
:101D7600FFFFFF00FCE1A8A858013D04D3019D0424
:101D8600A5016704B3005D04EC01C704FF0A02F96C
:101D960004300930093C000000000098081408616E
:101DA600083F085308DF085365747570204F4B00D1
:101DB6000D0A004B69642773206C696768740030EC
:101DC6002E32004D61696E206C6967687420696EF9
:101DD60074656E73697479004D61696E206C69670C
:101DE600687420737769746368004C696768742047
:0E1DF60073776974636800322E312E3100005D
:00000001FF
