:100000000C9489000C942F0D0C94080D0C94B100E5
:100010000C94B1000C94B1000C94C7040C94B10082
:100020000C94B1000C94B1000C94B1000C94B1008C
:100030000C94B1000C94B1000C94B1000C94B1007C
:100040000C94BE0C0C94B1000C94C40B0C949E0B3D
:100050000C94B1000C94B1000C94B1000C94B1005C
:100060000C94B1000C94B1000E0534053405110553
:1000700034053405160519051C053405210534051C
:100080003405340534053405280500000008000255
:100090000100000304070000000000000000000051
:1000A0000000250028002B0000000000240027008D
:1000B0002A000404040404040404020202020202EA
:1000C000030303030303010204081020408001021C
:1000D000040810200102040810205E01011F010322
:1000E0000301008A02010A010202010064001E47A6
:1000F000040B0906007C0101060103030100F40161
:10010000060E0102020100C20117010102020101F3
:100110002B0E11241FBECFEFD8E0DEBFCDBF11E004
:10012000A0E0B1E0E4EFFEE102C005900D92A2393B
:10013000B107D9F723E0A2E9B1E001C01D92A939C6
:10014000B207E1F710E0C9E8D0E004C02197FE0152
:100150000E94B90EC838D107C9F70E946B0D0C94E4
:10016000780F0C94000080919F01846080939F0120
:100170008091A00180788093A001E0919301F0919B
:100180009401309709F009940895EFE9F1E0808136
:10019000877F8F7E808310929B0110929C0110922A
:1001A0009D0110929E0143E050E060E070E086EA1D
:1001B00091E00C943E0FFC0184818F7180648483F4
:1001C000838187708061838370876783CF010895FF
:1001D000FC01838187708860838384818F71806252
:1001E00084836783CF0108950F931F93CF93DF9389
:1001F000EC016115710561F0FB0101900020E9F748
:100200003197E61BF70BE931F10518F0E9E101C080
:10021000E0E00E2F10E0C80123E0880F991F2A9517
:10022000E1F79B819770892B8B838C818F718C83F5
:10023000EE2329F0A801CE0107960E94C40EFE010C
:10024000E00FF11F1782CE01DF91CF911F910F9127
:100250000895FC012481229526952770213011F400
:1002600087810895211104C007960E94D30E089536
:1002700080E0089590E59CBD1DBC2A98E0E1F0E087
:100280003197F1F78EBD00000DB407FEFDCF8EB59E
:10029000FB019FEF4150C8F0222361F09EBD00009A
:1002A0000DB407FEFDCF8EB56115710599F38083FE
:1002B0003196F0CFDF01119680818EBD00000DB424
:1002C00007FEFDCF8EB5FD01E5CF2A9AE0E1F0E013
:1002D0003197F1F70895CF93DF931F92CDB7DEB733
:1002E000698320E041E0BE016F5F7F4F0E943A01C9
:1002F0000F90DF91CF9108956FE080E20E946B0133
:1003000060911C016F3F19F08AE20E946B01299AEB
:1003100008958091A001982F9077903759F0982FE9
:1003200092959F709F5F97709295907F8F78892BA1
:100330008093A00180919F018B7F8F7E80939F018E
:1003400080E090E0892B21F087E690E00E94000099
:1003500029986CE080E20C946B0120E040E060E0C2
:1003600070E00C943A010F931F93CF93DF938C01AD
:10037000FC01C28180919F0180FF04C0CF3F09F042
:100380005DC014C0C11103C0C091A7010FC0CF3F11
:1003900069F08C2F90E003960E944E0F8F3F29F456
:1003A0008091A701F80190819813C82F8091A60130
:1003B000F8018083438142FD06C0469546954695E7
:1003C000D7E0D40F01C0D0E280E090E0892B21F08B
:1003D00080E090E00E940000299880E091E0019781
:1003E000F1F76EE080E20E946B0184EC90E00197EF
:1003F000F1F76C2F8AE20E946B016C2F80E30E9460
:100400006B0181EE0E94AD01CF3F11F080EA01C087
:1004100080EB4D2FD13208F040E220E0B8010E947D
:100420003A01299A00E010E08FEF0E94AD01D82F29
:10043000807331F401501109B9F702C0D0E02FC028
:10044000299860E387E20E946B01D4FF03C081EE2C
:100450000E94AD010E947C01D5FBDD27D0F991E01F
:10046000CF3F09F090E0D92B8091A701C81317C0A6
:10047000D11110C080E090E0892B21F085E690E05A
:100480000E9400008091A00191E0980F9F70807FF2
:10049000892B03C08091A001807F8093A0018D2FC4
:1004A000DF91CF911F910F91089520919F0122FD1F
:1004B0000C94B30180E00895CF938091A50181FD54
:1004C00027C00E94B70580E090E0892B21F089E0E9
:1004D00090E00E9400008091A50181608093A501B9
:1004E000C4E02AE143E06FEF80E00E944A0B62E043
:1004F0000E94E8000E9455028BE10E94880C811145
:1005000002C0C15071F78091A50182608093A5015E
:10051000CF91089580E090E0892B21F088E090E071
:100520000E9400008FEF8093A10180919F0188605D
:1005300080939F0128E143E06FEF80E00E944A0B27
:1005400061E00E94E8000C94B3018091A6018F3F06
:10055000A1F480E090E0892B21F086E090E00E94F9
:10056000000023E043E06FEF80E00E944A0B66E862
:1005700071E00E94F4000C94B301089580E090E0D3
:10058000892B21F084E090E00E94000080919F017F
:10059000897F816080939F018FEF8093A801809372
:1005A000A70127E043E06FEF0E944A0B66E871E085
:1005B0000E94F4000C94B301CF93C82F8FEF8C0FDF
:1005C0008E3FA8F4C093A601C0931C0163E082E2B1
:1005D0000E946B0161E081E20E946B010E947C013C
:1005E0006C2F80E090E00E94660F81E00CC080E0FC
:1005F00090E0892B21F08EE690E00E9400008FEFC2
:100600008093A60180E0CF910895E0919501F0914B
:1006100096010280F381E02D309709F009958091D1
:100620009F0184FD0C94FB0508950F931F930E9476
:100630007C0C0091970110919801209199013091C3
:100640009A01601B710B820B930B1F910F91089500
:100650009C0180919501909196018217930751F02A
:1006600090919F019F7190939F01309396012093E9
:10067000950105C080919F01805E80939F01E0916C
:100680009501F09196010190F081E02D309709F0ED
:1006900009950E947C0C6093970170939801809358
:1006A000990190939A0108950F931F930E94150347
:1006B0002091A0012077203729F000E117E220E007
:1006C00030E004C000E61AEE20E030E0061717071D
:1006D0002807390730F48DE191E01F910F910C94B8
:1006E00028031F910F9108958091A0018F708B3086
:1006F00020F088E191E00C94280308958091A101F5
:100700008F3FA1F00E947C0C60939B0170939C0131
:1007100080939D0190939E018091A1019091A801E9
:1007200089138093A80184E191E01BC00E94150306
:10073000613D774081059105B0F080919F01803641
:1007400018F480E191E00DC0877F80939F0180E0E5
:1007500090E0892B21F08AE690E00E94000088E179
:1007600091E00C94280308958091A6018F3F59F0E1
:1007700080E090E0892B21F087E090E00E9400006B
:1007800080E191E018C00E941503613D774081052A
:10079000910598F080919F01803618F48CE091E0EB
:1007A0000AC080E090E0892B21F089E690E00E9469
:1007B000000088E091E00C94280308950E9415033E
:1007C000613D77408105910520F480919F0181FF73
:1007D00008958091A7018F3F81F080919F018E7FC6
:1007E00080939F0180E090E0892B21F085E090E0EC
:1007F0000E9400008CE091E011C080919F01803642
:1008000018F488E191E00AC080E090E0892B21F0A3
:1008100088E690E00E94000088E091E00C942803B4
:10082000CF93219A229ACFB7F894809192018111A7
:1008300024C0ECEBF0E08491E0EDF0E09491E82F3F
:10084000F0E0EE0FFF1FE855FF4FA591B491EC913A
:10085000E92321F461E08AE00E94F60B8AE00E941D
:10086000590B8CB580618CBD8CB580648CBD8DE0DE
:100870000E94590B8BE00E94590B809192018F5F6F
:1008800080939201CFBF29982A9A6EE080E20E945D
:100890006B0165E070E080E090E00E94420C63E054
:1008A00083E20E946B016FE584E20E946B016CE4BD
:1008B00085E20E946B0167E286E20E946B0163E7BA
:1008C00080E50E946B0166E08DE30E946B0121E0F0
:1008D00041E060E070E086E00E943A01C82F21E02C
:1008E00041E060E070E085E00E943A018C3409F05C
:1008F00040C0C732F1F562E082E20E946B0160E025
:1009000081E20E946B0163E08CE30E946B018FEF38
:100910008093030120E045E063E071E08BE20E94F8
:100920003A0120E045E063E071E08AE20E943A018A
:1009300020E045E063E071E080E30E943A0182EE4E
:100940000E94AD0181EE0E94AD0160E787E20E9446
:100950006B0180919F01806180939F018091A6012E
:100960008F3F81F00E94DC0281110CC088E091E091
:100970000BC080E090E0892BC9F387E690E00E94ED
:100980000000F4CF88E191E0CF910C9428031F92EE
:100990000F920FB60F9211240F900FBE0F901F9061
:1009A0001895FC012681223069F42581223051F40A
:1009B0000E942901882311F061E001C060E084E019
:1009C0000C94F60B0895CF92DF92EF92FF928091F4
:1009D000460290914702A0914802B0914902892BAA
:1009E0008A2B8B2B09F44CC061E083E00E94F60B4C
:1009F0008091460290914702A0914802B09149022D
:100A00000097A105B10581F1FC01E150F448E13105
:100A1000F10550F5EC5CFF4F0C94B90E60E070E00E
:100A200002C061E070E08BE692E01AC064E670E01C
:100A300005C062E370E002C069E170E08CE892E01A
:100A40000FC061E084E00E94F60B61E070E006C038
:100A500060E084E00E94F60B60E070E08AE492E0DF
:100A60000E94DB000E94780B10924602109247020F
:100A7000109248021092490260E083E00E94F60B57
:100A80000E947C0C6B017C010E947C0CDC01CB0180
:100A90008C199D09AE09BF09883C9105A105B105D6
:100AA00020F4A8950E940503EFCFFF90EF90DF9010
:100AB000CF9008952BE043E06FEF80E00E944A0B57
:100AC00067E371E00E94F4000E9455022CE043E0CD
:100AD0006FEF80E00E944A0B63E471E00E94F40033
:100AE0000E94550247E451E064E081E00E94890BD6
:100AF0004CE551E063E081E00E94890B4EE651E055
:100B000063E082E00C94890B83E00E94590B84E03F
:100B10000E94590B1092AE021092AD021092460242
:100B20001092470210924802109249021092A301BB
:100B30001092A20185EE99E0909322018093210109
:100B4000E9E6F0E080818C7F81608083E89A48E06C
:100B500050E06BE771E089EA91E00E94C80842E04A
:100B600050E064E871E089EA91E00C94C808CF9302
:100B700080E090E0892B21F08CE090E00E94000062
:100B80002FE043E06FEF80E00E944A0B66E871E0DF
:100B90000E94F4008091BF02877080618093BF0241
:100BA0008091C0028F71806C8093C00281E080933D
:100BB000C3021092C4028CEB92E00E9455028FE0B7
:100BC0000E94880C46E851E062E18FEF0E94890B99
:100BD000C091A70126E043E06FEF80E00E944A0B3E
:100BE0006C2F0E94E8000E94550286E00E94880C4B
:100BF000CF910C945A054F925F926F927F928F9291
:100C00009F92AF92BF92CF92DF92EF92FF920F939B
:100C10001F93CF93DF9386E0B82E90E0E92E90E00B
:100C2000F92E20E0C22E20E0D22E31E2A32E21E0C8
:100C300041E060E070E087E10E943A0180FD97C2E8
:100C4000BA94BB2009F493C2E114F10421F081E0CD
:100C500090E00E94000021E041E060E070E080E66A
:100C60000E943A01082F813220F082EE0E94AD01ED
:100C700000E021E0402F6DED72E081E60E943A0134
:100C800060E487E20E946B019091E002192F1695B3
:100C9000169516951A3108F019E192FD03C087E008
:100CA000810F01C080E27090E102C091E202D09118
:100CB000DE029090DD028090DF02081739F0E11427
:100CC000F10409F4B4CF8CE690E009C0937092303F
:100CD00049F0E114F10409F4AACF8DE690E00E94F6
:100CE0000000A5CF8091A701981651F08091A60130
:100CF000D81731F08D2F90E0692D03960E94660F72
:100D0000072D07708091A00180688093A0018091D9
:100D1000A60188124BC02091E002822F869586950D
:100D200086958A3108F089E138E0839FC00111245B
:100D30002770822B8093E002E12FF0E0E352FD4F19
:100D400017828091E10283FF17C0EDEDF2E0ACEB7A
:100D5000B2E08A2D01900D928A95E1F78091C00250
:100D6000877F80618093C0028092BD02D093BE02D3
:100D70008CEB92E00E9455028091E10284FD11C04B
:100D8000033079F49091E2029F3009F0BBC04FCF5D
:100D9000913009F45DC19A3009F479C19C3109F4AC
:100DA00046CF8DED92E00E94D10441CF2FEF821209
:100DB0008FC0033009F07EC080919F0182FF5DC02B
:100DC000C73009F05AC08091A701D81709F42FCF76
:100DD0000E947C0C00919B0110919C0120919D012F
:100DE00030919E01DC01CB01801B910BA20BB30B58
:100DF00080319742A105B10518F180919F0183FDD3
:100E000016CF9091A60191116AC11092A101809113
:100E10009F01877F80939F01C091A101CF3F09F47B
:100E200006CF0E947C0C60939B0170939C01809381
:100E30009D0190939E018091A801C813C093A801C1
:100E40000E947C0C60939B0170939C0180939D0198
:100E500090939E010E947C0C7370882799270E94B2
:100E6000420CC091A80128E043E06FEF8D2F0E9453
:100E70004A0B6C2F0E94E80042C0C83009F4D7CE5C
:100E8000C431C1F48091A701981214C00E947C0C57
:100E90007370882799270E94420CC091A70125E111
:100EA00043E06FEF8D2F0E944A0B6C2F0E94E800E9
:100EB0000E94B3018091A7019812B9CE8091A6013A
:100EC000D81709F450C180919F0182FD40C14BC1E8
:100ED00080919F0182FFABCE033079F4C851C230BC
:100EE00060F48DED92E00E9429018E3F31F061E0C7
:100EF000680F8DED92E00E94E8008DED92E00E9477
:100F0000B30195CEC43039F48DED92E00E942901F1
:100F10000E94DC028CCEC830D9F4C0919F01C0FF82
:100F200086CE8DED92E00E9429018F3F09F47FCE9D
:100F30008F5F8F3F09F47BCE9091A801891708F04D
:100F400076CEC1FD74CE8093A801D093A7016FCE59
:100F5000C83141F429E143E06FEF8D2F0E944A0B25
:100F600061E088CFC93171F480919F0183FF5FCE2A
:100F7000877F80939F018DED92E00E9429018093ED
:100F8000A10155CE2091DE022111A5C09D3099F41A
:100F900080E090E0892B21F08BE090E00E9400003F
:100FA00098E088E10FB6F894A895809360000FBE92
:100FB00090936000FFCF9B31A9F48DED92E00E94E9
:100FC000290191E0811101C090E08091A50190FB81
:100FD00080F98093A501E114F10409F428CE8AE098
:100FE00090E07DCE963099F49091E40281E09923CF
:100FF00019F09D3409F080E08093A40141E050E0B5
:1010000063E071E084EA91E00E94560F10CE9331C4
:1010100019F40E94B7050BCE923109F0B9CE0E94A7
:1010200015032B013C0126E143E06FEF80E00E94B5
:101030004A0BFC0184818F71806A8483838187706D
:10104000806283834782508661867286CF0140C06A
:10105000C114D10409F4EBCD829586958770853053
:1010600049F46091E4027091E5028091E60290916A
:10107000E7020AC0811105C084EE92E00E94F10EE1
:1010800003C060E070E0CB010E940000D0CD8091F1
:10109000E402833409F0CBCDE114F10421F08DE0BA
:1010A00090E00E940000C3E0D0E06FEFCE010E940C
:1010B000660F2196C33081E0D807B9F72AE043E0F4
:1010C0006FEF80E00E944A0B61E871E00E94F4003B
:1010D0000E945502ACCD9A3109F063CEA8CD88604C
:1010E00080939F018092A10128E143E06FEF80E0AF
:1010F0000E944A0B61E00E94E8000E94B3010E9436
:101100007C0C2B013C011092E202C0E00E947C0C9E
:10111000DC01CB0184199509A609B709803D9740E8
:10112000A105B10508F073CEC11171CE80919F0168
:1011300084FD0E94FB05A8958091E10287708330B1
:1011400029F7C1E08091E2028931F9F6DFCF8DED18
:1011500092E00E94B301033009F469CD8091A701A8
:10116000981265CD1ECE033009F01BCE60CDDF9105
:10117000CF911F910F91FF90EF90DF90CF90BF9094
:10118000AF909F908F907F906F905F904F90089559
:10119000CF92DF92EF92FF920F931F93CF93DF9343
:1011A0006C017A018B01C0E0D0E0CE15DF0589F03B
:1011B000D8016D918D01D601ED91FC910190F081E6
:1011C000E02DC6010995892B11F47E0102C02196FC
:1011D000ECCFC701DF91CF911F910F91FF90EF905E
:1011E000DF90CF900895FC01918D828D981761F06A
:1011F000828DDF01A80FB11D5D968C91928D9F5F4E
:101200009F73928F90E008958FEF9FEF0895FC01F8
:10121000918D828D981731F0828DE80FF11D858DAB
:1012200090E008958FEF9FEF0895FC01918D228D3E
:10123000892F90E0805C9F4F821B91098F739927C3
:10124000089589EA91E00E94150921E0892B09F4AB
:1012500020E0822F0895FC01848DDF01A80FB11DCD
:10126000A35ABF4F2C91848D90E001968F739927DC
:10127000848FA689B7892C93A089B1898C918064C9
:101280008C93938D848D981306C00288F389E02D8A
:1012900080818F7D80830895EF92FF920F931F933B
:1012A000CF93DF93EC0181E0888F9B8D8C8D981319
:1012B00005C0E889F989808185FD24C0F62E0B8D53
:1012C00010E00F5F1F4F0F731127E02E8C8DE81277
:1012D0000CC00FB607FCFACFE889F989808185FF39
:1012E000F5CFCE010E942B09F1CF8B8DFE01E80FC7
:1012F000F11DE35AFF4FF0820B8FEA89FB89808151
:10130000806207C0EE89FF896083E889F98980815E
:101310008064808381E090E0DF91CF911F910F91F5
:10132000FF90EF900895CF93DF93EC01888D882391
:10133000C9F0EA89FB89808185FD05C0A889B98942
:101340008C9186FD0FC00FB607FCF5CF808185FF1D
:10135000F2CFA889B9898C9185FFEDCFCE010E948B
:101360002B09E7CFDF91CF91089580E090E0892BA2
:1013700029F00E94210981110C94000008953FB7C3
:10138000F8948091950390919603A0919703B09162
:10139000980326B5A89B05C02F3F19F00196A11D03
:1013A000B11D3FBFBA2FA92F982F8827820F911DFB
:1013B000A11DB11DBC01CD0143E0660F771F881F41
:1013C000991F4A95D1F7089508952F923F924F9211
:1013D0005F926F927F928F929F92AF92BF92CF92C5
:1013E000DF92EF92FF920F931F93CF93DF93CDB7CE
:1013F000DEB765970FB6F894DEBF0FBECDBF0E9473
:10140000BF096B017C0180918C0390918D032601B3
:10141000481A590A29EF421621E1520608F4F6C08B
:101420008091060390910703A201481B590BCA0142
:1014300057FF03C0919581959109883C91050CF067
:10144000E1C08091040390910503019690930503F8
:1014500080930403029709F0D5C09AED692E90E0BD
:10146000792E01E010E020900203309003033B86C8
:101470002A8649E050E0B301CE0101960E94180F80
:101480008C816B81681708F4682F70E080910603E7
:10149000909107030E94A50E9B0140912501509158
:1014A0002601649FC001659F900D749F900D1124CB
:1014B00064E670E00E94A50E8985811103C0A1E059
:1014C000B0E002C0A2E0B0E08D81829FA001839FC6
:1014D000500D11245D874C878E81829F1001839F60
:1014E000300C11243F862E868F81829FA001839F1E
:1014F000500D1124598B488B8885829F1001839F42
:10150000300C11243B8A2A8AFD01EE0FFF1FEA5F8F
:10151000FC4F812C912C54014A855B854150510927
:101520005D8B4C8B8C899D89A817B90708F040C04A
:10153000880C991CAA1CBB1C80819181AC012C8455
:101540003D844219530957FF03C0519541955109F4
:101550004617570770F4428153812E843F84421905
:10156000530957FF03C05195419551094617570735
:10157000E0F0288839888219930997FF03C0919574
:10158000819591098617970780F5828193814A8911
:101590005B89841B950B97FF03C0919581959109F9
:1015A0008617970710F5689480F812963496BACF8C
:1015B0004A855B854830510508F180924602909239
:1015C0004702A0924802B09249021C013694279427
:1015D0003092A3012092A2013093010320930003D3
:1015E0001093FF020093FE0209C00F5F1F4F59E0E6
:1015F000650E711C0730110509F035CF10920503F7
:1016000010920403109203031092020380910203CC
:10161000909103038334910540F0109203031092DC
:10162000020310920503109204038091020390912B
:1016300003039C012F5F3F4F30930303209302036A
:10164000880F991FFC01EA5FFC4F51824082C092D3
:101650008C03D0928D03E0928E03F0928F036596F7
:101660000FB6F894DEBF0FBECDBFDF91CF911F91B3
:101670000F91FF90EF90DF90CF90BF90AF909F9031
:101680008F907F906F905F904F903F902F90089534
:101690000E94BF0EECEBF2E09091A6019183828351
:1016A0006683258347708481807E482B4483CF01E5
:1016B000089590E0FC01EA53FF4F2491FC01EE54A1
:1016C000FF4F8491882399F090E0880F991FFC01C7
:1016D000E855FF4FA591B491FC01E256FF4F85916B
:1016E00094918FB7F894EC91E22BEC938FBF08950F
:1016F000FC018091A60181839481907F9160948305
:101700008091A50180FF03C0CF010C94550280E0B9
:101710000895CF93DF93262F8F3F11F0EA0102C087
:10172000C7E8D1E040E0682F80E00E944A0BBE018C
:101730000E94F400DF91CF910C9455021F920F92FA
:101740000FB60F9211242F933F934F935F936F9394
:101750007F938F939F93AF93BF93EF93FF9389EA08
:1017600091E00E942B09FF91EF91BF91AF919F9162
:101770008F917F916F915F914F913F912F910F903A
:101780000FBE0F901F9018951F920F920FB60F92D9
:1017900011242F938F939F93EF93FF93E091B901BF
:1017A000F091BA018081E091BF01F091C00182FD0A
:1017B00012C090818091C2018F5F8F732091C3010D
:1017C000821751F0E091C201F0E0E755FE4F958F8E
:1017D0008093C20101C08081FF91EF919F918F9111
:1017E0002F910F900FBE0F901F90189590E0FC0165
:1017F000E657FF4F3491FC01EA53FF4F2491FC015F
:10180000EE54FF4FE491EE2309F43BC0332339F14A
:10181000333091F038F43130A9F0323001F584B52D
:101820008F7D12C0373091F03830A1F03430B9F4E8
:10183000809180008F7D03C0809180008F7780939E
:1018400080000DC084B58F7784BD09C08091B00041
:101850008F7703C08091B0008F7D8093B000F0E05F
:10186000EE0FFF1FE256FF4FA591B4918FB7F8948A
:10187000EC91611103C020952E2301C02E2B2C93D7
:101880008FBF08958F929F92AF92BF92CF92DF92B7
:10189000EF92FF926B017C010E94BF094B015C013A
:1018A000C114D104E104F104F1F00E94BF09DC018C
:1018B000CB0188199909AA09BB09883E9340A10563
:1018C000B10570F321E0C21AD108E108F10888EEF1
:1018D000880E83E0981EA11CB11CC114D104E10440
:1018E000F10419F7DDCFFF90EF90DF90CF90BF901C
:1018F000AF909F908F9008952FB7F89460919103C7
:101900007091920380919303909194032FBF089557
:10191000CF92DF92EF92FF92CF93DF93D82F0E9466
:101920007C0C6B017C0181E0D11180E08093E202AC
:10193000C0E00E947C0CAB01BC014C195D096E0932
:101940007F09403D57406105710580F4C1110EC00B
:10195000A8950E9405039091E1029770933049F792
:10196000C1E08091E2028D13E3CFE3CF8C2FDF91B2
:10197000CF91FF90EF90DF90CF9008951F920F923C
:101980000FB60F9211242F933F938F939F93AF9392
:10199000BF938091910390919203A0919303B09192
:1019A00094033091900326E0230F2D3720F4029604
:1019B000A11DB11D05C029E8230F0396A11DB11D6E
:1019C000209390038093910390939203A0939303A9
:1019D000B09394038091950390919603A0919703FF
:1019E000B09198030196A11DB11D8093950390932A
:1019F0009603A0939703B0939803BF91AF919F91E3
:101A00008F913F912F910F900FBE0F901F901895BF
:101A10001F920F920FB60F9211242F933F934F9363
:101A20005F936F937F938F939F93AF93BF93EF9346
:101A3000FF93E0912301F09124010995FF91EF912B
:101A4000BF91AF919F918F917F916F915F914F91D6
:101A50003F912F910F900FBE0F901F9018951F92DE
:101A60000F920FB60F9211242F933F934F935F93D2
:101A70006F937F938F939F93AF93BF93EF93FF9356
:101A8000E0912101F09122010995FF91EF91BF9121
:101A9000AF919F918F917F916F915F914F913F9106
:101AA0002F910F900FBE0F901F901895CF93DF933B
:101AB000FC01108211821282148215821682DC01CE
:101AC00017968AE1ED0119928A95E9F782E08383FE
:101AD000DF91CF910895789484B5826084BD84B5F8
:101AE000816084BD85B5826085BD85B5816085BD19
:101AF00080916E00816080936E00109281008091D1
:101B00008100826080938100809181008160809358
:101B10008100809180008160809380008091B1007D
:101B200084608093B1008091B00081608093B000A8
:101B300080917A00846080937A0080917A0082603C
:101B400080937A0080917A008E7F80937A008091D2
:101B50007A00806880937A001092C100A89580E096
:101B600090E0892B11F00E940000E091B901F09102
:101B7000BA0182E08083E091B501F091B601108254
:101B8000E091B701F091B80188E080831092C10123
:101B9000E091BD01F091BE0186E08083E091BB0140
:101BA000F091BC01808180618083E091BB01F09164
:101BB000BC01808188608083E091BB01F091BC0111
:101BC000808180688083E091BB01F091BC018081BD
:101BD0008F7D80838091A5018D7F8093A50180E01A
:101BE00090E0892B11F00E94000041E050E063E09A
:101BF00071E084EA91E00E943E0F6FEF81E090E097
:101C00000E94660F8091A0018F788093A0011092AE
:101C10009601109295018DE191E00E9428038CE5D8
:101C200092E090939401809393010E947C0C0E9417
:101C30007C0C0E940503A89580919F0182FFF7CF3D
:101C40000E948405A895A8950E9405030E94E304BC
:101C50000E94B509F8CF0F931F93CF93DF93E9EA62
:101C6000F1E01382128288EE93E0A0E0B0E084837A
:101C70009583A683B7838BE291E09183808385EC83
:101C800090E09587848784EC90E09787868780EC46
:101C900090E0918B808B81EC90E0938B828B82EC37
:101CA00090E0958B848B86EC90E0978B868B118EE1
:101CB000128E138E148E8DED92E00E94560D8CEBD9
:101CC00092E00E94560DCDEAD2E00FEF1FEF1B838A
:101CD0000A838AE090E09D838C8349E050E06AEDBE
:101CE00070E083EB92E00E94180F198308838CE365
:101CF00090E0909326018093250110924602109265
:101D0000470210924802109249028CE892E00E9429
:101D1000560DECE8F2E0C1E0C68383E085838BE6F4
:101D200092E00E94560DEBE6F2E0C683C2E0C58366
:101D30008AE492E00E94560DEAE4F2E0C683C5838D
:101D4000DF91CF911F910F910895AA1BBB1B51E109
:101D500007C0AA1FBB1FA617B70710F0A61BB70B1B
:101D6000881F991F5A95A9F780959095BC01CD01C0
:101D70000895EE0FFF1F0590F491E02D099481E086
:101D800090E0F8940C94780FFB01DC014150504036
:101D900048F001900D920020C9F701C01D924150FA
:101DA0005040E0F70895FC0188279927E894219195
:101DB0002032E9F3293010F02E30C8F32B3241F0F5
:101DC0002D3239F4689404C00E94360F820F911DA1
:101DD000219120532A30C0F31EF4909581959F4F96
:101DE00008951F93FC0199278827BC01E89411915D
:101DF0001032E9F3193010F01E30C8F31B3251F0E5
:101E00001D3249F4689406C00E94210F610F711DB4
:101E1000811D911D119110531A30B0F33EF490952D
:101E20008095709561957F4F8F4F9F4F1F910895BB
:101E3000FB01DC0102C005900D9241505040D8F7E3
:101E40000895592F482F372F262F660F771F881F89
:101E5000991F660F771F881F991F620F731F841FBA
:101E6000951F660F771F881F991F08957AE0979F27
:101E7000902D879F802D910D11240895DC01CB01B9
:101E8000FC01F999FECF06C0F2BDE1BDF89A31968A
:101E900000B40D9241505040B8F70895F999FECF23
:101EA00092BD81BDF89A992780B50895DC01A40FF1
:101EB000B51F4150504048F0CB01840F951F2E9123
:101EC0000E94670F41505040D0F70895262FF9998E
:101ED000FECF92BD81BDF89A019700B4021639F089
:101EE0001FBA20BD0FB6F894FA9AF99A0FBE08955A
:041EF000F894FFCF94
:101EF400FFFFFF00FCE1A8A889015403A502B40375
:101F04008A027E03B3007403BE02DE03FFC5001021
:101F140004E409E4093C00000000004C09C8081569
:101F240009F308070993094B69642773206C6967EF
:101F3400687400302E32004D61696E206C696768E8
:101F44007420696E74656E73697479004D61696E8D
:101F5400206C6967687420737769746368004C69DE
:101F64006768742073776974636800536574757067
:101F7400204F4B000D0A00322E312E302D62657435
:021F84006100FA
:1078000011E0A0E0B1E0E6EFFFE702C005900D92C5
:10781000A630B107D9F721E0A6E0B1E001C01D9282
:10782000AE34B207E1F7CDB7DEB76197DEBFCDBFAB
:10783000112484B78093270114BE88E180936000EF
:1078400089E280936000259A86E020E295B1922734
:1078500095B93FE748E391E0315040409040E1F76F
:1078600000C00000815091F78091270181FD13C075
:107870008EE284B981E58CBD81E08DBD812C912C97
:107880005524539411E0CC24CA94DC2CAA24A3944C
:1078900072E0B72EFDC082E08093C00088E1809343
:1078A000C10086E08093C20089E18093C400E12C8E
:1078B000F12CC12CD12CAA24AA94BA2C01E0A895B1
:1078C0000AD3813471F407D3898B11D38989823823
:1078D00011F482E053C0813811F485E64FC083E093
:1078E0004DC0823411F484E103C0853419F485E07D
:1078F0000AD363C0853541F4EED2E82EECD2F12CE8
:10790000F82AEE0CFF1C58C0863521F484E0FBD227
:1079100080E034C08436E1F4DED2DDD2882EDBD2C2
:10792000C80CD11C912C981480F4D5D2182FD3D226
:10793000F701E90DF11D212F30E0382B090107BFB8
:10794000E895112493949394EECFC7018CD134C061
:10795000843761F4C0D2BFD2182FBDD2C8D2F7018C
:1079600085917F01B1D21150D1F728C0853741F4FC
:10797000BED28EE1A9D285E9A7D28FE0A5D21DC0E3
:107980008135D1F4BA82A982BC82AB82C60134E0CF
:10799000969587953A95E1F79E838D83C60175D1BB
:1079A00098878F8348E050E06BE171E0CE0101964B
:1079B00001D39DD211E002C09AD210E080E184D2BE
:1079C000112309F47CCF54CF43E050E060E070E035
:1079D00089E291E0DFD248E050E06BE171E0CE0156
:1079E0000196D8D229982A9A63E083E29AD16CE46E
:1079F00085E297D167E286E294D163E780E591D191
:107A000064E08DE38ED161E082E28BD161E081E2BE
:107A100088D161E08CE385D121E041E060E070E055
:107A200086E058D1873209F008C180912A018093FD
:107A3000280110924D018FEF80932A0180932B0132
:107A400003E22AE047E06FEF65D260E084E269D1AB
:107A500060E08EEF83D180912A018F3F09F4EDC061
:107A60008091290181508E3F08F46CC003E222E02E
:107A700043E06FEF80E04ED263E084E06FD1882373
:107A800079F383E391E054D2682F80E090E0A1D2B3
:107A9000F999FECF99CF46E050E063E371E08DE0C5
:107AA00091E063D2892B79F5C3018150904F082F63
:107AB0000295007740E050E0602F70E0DA01A45DAD
:107AC000BE4FFA01E60FF71F1E962C911E9730E06D
:107AD000322F22271D96AC912A2B090157BEE8951B
:107AE00011244E5F5F4F4031510541F7011106C02F
:107AF00044E0880F991F4A95E1F7B5D0E114F104ED
:107B000009F482C0370189859A8590930E0180938C
:107B10000D018B859C859093100180930F0173015B
:107B200021E0E21AF108F0921201E092110104EC56
:107B300022E342E06FEF80E0EDD168E083E00ED118
:107B40008111A9CF6FE584E2ECD010930D01109262
:107B50000E0103EC22E14FE06FEF80E0DBD160E04B
:107B60008FE0FCD08D819E8124E0880F991F2A959B
:107B7000E1F78BD098878F8388E0FE013196ADE0E6
:107B8000B1E001900D928A95E1F7B0921601A092B2
:107B9000150104EC22E540E06FEF80E0BBD163E02B
:107BA00081E0DCD0882309F448C088E0E3E3F1E019
:107BB000DE01199601900D928A95E1F748E050E0B8
:107BC000BE01675F7F4FCE010196CFD1892BA9F10E
:107BD00080913701909138018038974070F588E0A6
:107BE000FE013996DE01119601900D928A95E1F71A
:107BF000D886CF8248E050E06BE171E0CE0101967B
:107C0000D9D16D847E847FCF8D859E8534E0880FA9
:107C1000991F3A95E1F739D02F8538898217930754
:107C200021F01E861D86188A1F8648E050E06BE111
:107C300071E0CE010996BED12BCF8D819E8124E0CB
:107C4000880F991F2A95E1F720D02F813885821758
:107C5000930709F01DCF1CBCA89580912701282E01
:107C6000F401099515CF23E0FC0127BFE89507B67D
:107C700000FCFDCF25E0FC0127BFE89507B600FC1E
:107C8000FDCF81E187BFE8950895AC01413088E7D9
:107C9000580710F040E058E7E0E0F0E08FEF9FEF8A
:107CA00041155105B1F02591822768E0DC01B695B8
:107CB000A7959C01217033273195219531092170B9
:107CC000307AC9018A279B27615081F741505109B9
:107CD000E7CF08952A988EBD0DB407FEFDCF8EB56F
:107CE0009FEF4150D0F0222369F09EBD0DB407FEF6
:107CF000FDCF8EB561157105A1F3DB018C936F5F2C
:107D00007F4FEFCFFB013196DB018C918EBD0DB41F
:107D100007FEFDCF8EB5BF01E4CF2A9A089520E07B
:107D2000D9CFCF93DF931F92CDB7DEB7698320E021
:107D300041E0BE016F5F7F4FCDDF0F90DF91CF91AC
:107D4000089540E060E070E082EEE9DF40E060E04E
:107D500070E081EEE4DF60E787E2E3CFEF92FF922D
:107D60000F931F93CF93DF93F82ED62FEE24EA9430
:107D7000A895C0910901C695C695C695C95F109191
:107D80002A0129986EE080E2CCDFDBDF109300014E
:107D900045E060E071E08AE2C2DF45E060E071E06A
:107DA00080E3BDDF4C2F66E071E080EAB8DF299AFE
:107DB0002A98EEBC0DB407FEFDCFCEB52A9A8C2FC3
:107DC0008073B1F3299860E387E2ABDFC4FF05C09D
:107DD00040E060E070E081EEA2DF6FE080E2A1DFD2
:107DE000609129018AE29DDFACDF299A0FEF1FEF36
:107DF000A89521E041E060E070E087E16BDF80FF63
:107E000002C04FEF44C021E041E060E070E080E656
:107E100061DF813230F040E060E070E082EE7FDFD1
:107E200080E021E0482F6CE271E081E653DF89DFDA
:107E300090912E01809129019813E3CF4091310157
:107E4000809130018770833011F5483001F58091C1
:107E50002D0150912801851303C091E090934D01AD
:107E600090913301692F70E020912B0130E0215077
:107E700031096217730724F420914D01222311F078
:107E8000851305C09F5F90932B0180932A0191E099
:107E90004F1190E088E28A95F1F70150110921F421
:107EA000892FD11105C009C0992309F4A1CF04C0BD
:107EB000D150992309F45CCF81E0DF91CF911F91DC
:107EC0000F91FF90EF9008959091C00095FFFCCF27
:107ED0008093C60008958091C00087FFFCCF8091F9
:107EE000C00084FD01C0A8958091C6000895F3DF0D
:107EF000803239F088E18093600088E080936000F0
:107F0000FFCF84E1E1CFCF93C82FE5DFC150E9F780
:107F1000CF91EDCF0F9390912901E6E0F1E09183AD
:107F20009083828366834583048323830F9108951E
:107F3000FC0188279927E89421912032E9F3293020
:107F400010F02E30C8F32B3239F02D3231F4689412
:107F500003C018D0820F911D219120532A30C8F3FD
:107F60001EF4909581959F4F0895FB01DC0104C09C
:107F70008D910190801921F441505040C8F7881B21
:107F8000990B08957AE0979F902D879F802D910DF2
:107F900011240895DC01CB01FC01F999FECF06C044
:107FA000F2BDE1BDF89A319600B40D9241505040B7
:107FB000B8F70895DC01A40FB51F4150504040F0C0
:107FC000CB01840F951F2E9105D041505040D8F71A
:107FD0000895262FF999FECF92BD81BDF89A019799
:107FE00000B4021639F01FBA20BD0FB6F894FA9A01
:067FF000F99A0FBE08958E
:067FF60000FCE1A8A80058
:040000030000780081
:00000001FF
