:100000000C945D000C94EA0C0C94C30C0C948500C9
:100010000C9485000C9485000C9473060C94850058
:100020000C9485000C9485000C9485000C9485003C
:100030000C9485000C9485000C9485000C9485002C
:100040000C94790C0C9485000C943F0B0C94190BB8
:100050000C9485000C9485000C9485000C9485000C
:100060000C9485000C94850000000008000201003B
:100070000003040700000000000000000000000072
:10008000250028002B0000000000240027002A0083
:10009000040404040404040402020202020203032E
:1000A0000303030301020408102040800102040836
:1000B0001020010204081020A20E11241FBECFEF51
:1000C000D8E0DEBFCDBF11E0A0E0B1E0E4EEF3E2A6
:1000D00002C005900D92A837B107D9F722E0A8E732
:1000E000B1E001C01D92A73DB207E1F710E0CDE5F8
:1000F000D0E004C02197FE010E94090FCC35D10742
:10010000C9F70E94E20D0C94F0110C94000080914C
:100110008501846080938501809186018078809339
:100120008601E0917901F0917A01309709F0099404
:1001300008950F931F93CF93DF93FC0182819091D9
:10014000850190FF04C08F3F09F047C005C08F3F75
:1001500019F0D091A50101C0DFEF8091A401808347
:10016000438142FD06C0469546954695C7E0C40FBB
:1001700001C0C0E28F01299880E091E00197F1F77A
:100180006EE080E20E94990784EC90E00197F1F71D
:100190006D2F8AE20E9499076D2F80E30E949907D4
:1001A00081EE0E946909DF3F11F080EA01C080EB17
:1001B0004C2FC13208F040E220E0B8010E946807ED
:1001C000299A00E010E08FEF0E946909C82F807320
:1001D00031F401501109B9F702C080E025C0299817
:1001E00060E387E20E949907C4FF03C081EE0E948A
:1001F00069090E945C09C5FB882780F991E0DF3F0F
:1002000009F090E0892B9091A501D9130DC0909130
:100210008601811106C021E0290F2F70907F922B5B
:1002200001C0907F90938601DF91CF911F910F9134
:100230000895CF939FEF980F9E3FB0F4C82F8093FF
:10024000A4018093190163E082E20E94990761E0B2
:1002500081E20E9499070E945C096C2F80E090E087
:100260000E94DE1181E004C08FEF8093A40180E042
:10027000CF9108958FEF80938701E5E8F1E08081C9
:100280008860808328E143E06FEF80E00E94B60A37
:1002900061E00E9491060C94990080918601982F4C
:1002A0009077903759F0982F92959F709F5F977035
:1002B0009295907F8F78892B80938601809185011C
:1002C0008B7F8F7E809385010C94AA078091A40177
:1002D0008F3F61F423E043E06FEF80E00E94B60AB5
:1002E00060E571E00E949D060C9499000895E5E890
:1002F000F1E08081897F81608083E4EAF1E08FEF23
:100300008283818327E043E06FEF0E94B60A60E5B5
:1003100071E00E949D060C949900E5E8F1E080816F
:10032000877F8F7E808310928101109282011092CC
:1003300083011092840143E050E060E070E084EAC1
:1003400091E00C94BE1180911F010E94110D8091CB
:1003500020018F3F21F0809120010E94110D80919A
:100360001F0180931E010895809120010E94110DAC
:1003700080911F018F3F21F080911F010E94110D7C
:100380008091200180931E0108952091850122FD16
:100390000C94990080E00895AF92BF92CF92DF92C3
:1003A000EF92FF920F931F93CF93DF931F92CDB7DE
:1003B000DEB7E0917B01F0917C010280F381E02DBA
:1003C000309709F009958091850184FBFF24F0F8AE
:1003D00084FF75C186E0A82E00E010E091E2E92ECE
:1003E00021E041E060E070E087E10E94680780FD65
:1003F00066C1AA94AA2009F462C121E041E060E04C
:1004000070E080E60E946807C82E90E2981720F4FA
:1004100082EE0E946909C12C21E04C2D6BEA72E04A
:1004200081E60E94680760E487E20E949907909144
:10043000AE02292F2695269526952A3108F029E126
:1004400092FD03C037E0320F01C030E2E091AF020D
:10045000B090B002D090AC028091AB024091AD025E
:10046000C312BECF392F3370323009F0B9CF5E2FAF
:100470005770309186013068309386013091A40125
:10048000431347C030E0B901F3E0660F771FFA95D8
:10049000E1F79770962B9093AE02D901A555BD4F09
:1004A00017961C92E3FF19C0EBEAF2E0AAE8B2E06B
:1004B0008E2D01900D928A95E1F780918E02877FB3
:1004C000806180938E0240938B02D0928C028AE8E6
:1004D00092E059830E94C50159812091AF0224FD09
:1004E00013C0533089F49091B00281EF890F8330AB
:1004F00008F041C075CF913009F4BEC09A3009F4BC
:100500006FCF9C3109F46CCF8BEA92E00E948E0A87
:1005100067CF4F3F09F064CF533041F5909185018B
:1005200092FF04C097E0B91609F45ACF98E0B916C3
:1005300009F456CF94E1B91253CF9091A5018913D4
:100540004FCF0E94E70B7370882799270E94AD0B4D
:10055000C090A50125E143E06FEF8D2D0E94B60A02
:100560006C2D0E9491060E9499003ACF9091A501AE
:10057000891336CFC9CF84E0B81205C00E94F60EA9
:100580000E9419012DCF88E0B8121AC0C0908501D1
:10059000C0FE26CF0E94F60E8F3F09F421CF91E0D6
:1005A000980F9F3F09F41CCF8091A601981708F07F
:1005B00017CFC1FC15CF9093A601D092A50110CF03
:1005C00088E1B81208C029E143E06FEF8D2D0E9449
:1005D000B60A61E0C6CF89E1B8120CC080918501EE
:1005E00083FFFECE877F809385010E94F60E809365
:1005F0008701F6CE8091AC0281115DC09D3059F427
:1006000098E088E10FB6F894A895809360000FBE3B
:1006100090936000FFCF9B3169F40E94F60E91E049
:10062000811101C090E08091A30190FB80F980933B
:10063000A301D6CE9630A9F49091B202992329F065
:1006400081E09D3419F080E001C08F2D8093A201DC
:1006500041E050E063E071E082EA91E00E94CE1157
:10066000BFCE933119F40E94F606BACE923109F04A
:1006700042CF0E94D60AB4CE0115110509F4B0CEBE
:10068000229526952770253049F46091B202709129
:10069000B3028091B4029091B5020AC0211105C045
:1006A00082EB92E00E94561003C060E070E0CB0144
:1006B0000E94000095CE9A3109F026CF91CE0F907E
:1006C000DF91CF911F910F91FF90EF90DF90CF902E
:1006D000BF90AF9008950F931F930E94E70B009176
:1006E0007D0110917E0120917F0130918001601B7E
:1006F000710B820B930B1F910F9108959C018091B8
:100700007B0190917C018217930751F090918501B4
:100710009F719093850130937C0120937B0105C0EC
:1007200080918501805E80938501E0917B01F0914D
:100730007C010190F081E02D309709F009950E942D
:10074000E70B60937D0170937E0180937F0190930E
:10075000800108950F931F930E946B0320918601DF
:100760002077203729F000E117E220E030E004C0D4
:1007700000E61AEE20E030E00617170728073907D1
:1007800030F48AE191E01F910F910C947E031F9148
:100790000F910895809186018F70863020F085E159
:1007A00091E00C947E030895809187018F3FA1F022
:1007B0000E94E70B60938101709382018093830113
:1007C00090938401809187019091A6018913809371
:1007D000A60181E191E013C00E946B03613D774067
:1007E0008105910570F080918501803618F48DE0C7
:1007F00091E005C0877F8093850185E191E00C94AD
:100800007E0308958091A4018F3F19F08DE091E05F
:1008100010C00E946B03613D77408105910558F03F
:1008200080918501803618F489E091E002C085E06E
:1008300091E00C947E0308950E946B03613D774024
:100840008105910520F48091850181FF08958091B3
:10085000A5018F3F41F0809185018E7F80938501B6
:1008600089E091E009C080918501803618F485E126
:1008700091E002C085E091E00C947E03CF93219A31
:10088000229ACFB7F89480917801811166C08AE9E5
:1008900090E0FC0124914EEA50E0FA01649130E0CE
:1008A000220F331F2A573F4FF901A591B4912C9184
:1008B000622309F040C0E2E7F0E02491FA0144919C
:1008C000FC0194919923B9F1222339F1233091F05D
:1008D00038F42130A9F0223001F584B58F7D12C0A3
:1008E000273091F02830A1F02430B9F480918000B5
:1008F0008F7D03C0809180008F77809380000DC032
:1009000084B58F7784BD09C08091B0008F7703C014
:100910008091B0008F7D8093B000E92FF0E0EE0F62
:10092000FF1FE458FF4FA591B4918FB7F8949C91A5
:10093000492B4C938FBF61E08AE00E94710B8CB50C
:1009400080618CBD8CB580648CBD61E08DE00E94BF
:10095000710B61E08BE00E94710B809178018F5FD9
:1009600080937801CFBF29982A9A6EE080E20E9496
:10097000990765E070E080E090E00E94AD0B63E0D5
:1009800083E20E9499076FE584E20E9499076CE474
:1009900085E20E94990767E286E20E94990763E771
:1009A00080E50E94990766E08DE30E94990721E0A7
:1009B00041E060E070E086E00E946807C82F21E017
:1009C00041E060E070E085E00E9468078C34E9F562
:1009D000C732D9F562E082E20E94990760E081E2C5
:1009E0000E94990763E08CE30E9499078FEF809340
:1009F000000120E045E060E071E08BE20E946807C2
:100A000020E045E060E071E08AE20E94680720E0B3
:100A100045E060E071E080E30E94680782EE0E949A
:100A2000690981EE0E94690960E787E20E949907DF
:100A3000809185018061809385018091A4018F3F21
:100A400039F00E941901811103C085E091E002C0D4
:100A500085E191E0CF910C947E0320917A002F776D
:100A600020937A00309160008A309105B1F083FDC7
:100A700002C028E001C028E28770822B98E10FB6FF
:100A8000F894A895909360000FBE809360008091C9
:100A900060008065809360000BC00FB6F894A89545
:100AA00080916000886180936000109260000FBEAA
:100AB00083B7817F846083BFF89483B7816083BFED
:100AC00085B7806685BF8F7D85BF7894889583B70D
:100AD0008E7F83BFF894A895809160008861809391
:100AE000600030936000789480917A0080688093F1
:100AF0007A0008958F929F92AF92BF92CF92DF9229
:100B0000EF92FF924B015C0187EA91E00E943A0A62
:100B100080911E018F3F91F480E488168FE1980642
:100B2000A104B10458F089E090E00E942D0580E412
:100B3000881A8FE1980AA108B108EACF750164010B
:100B400080911E018F3F41F480EA88168FE098065D
:100B5000A104B10408F068C080911E018F3F41F4E8
:100B600080EDC81687E0D806E104F10408F069C0FA
:100B700080911E018F3F41F488EEC81683E0D806AD
:100B8000E104F10408F068C080911E018F3F41F438
:100B900084EFC81681E0D806E104F10408F067C0CC
:100BA00080911E018F3F39F48AEFC816D104E10409
:100BB000F10408F067C080911E018F3F39F48DE782
:100BC000C816D104E104F10408F066C080911E014A
:100BD0008F3F39F480E4C816D104E104F10408F031
:100BE00065C080911E018F3F39F480E2C816D104A0
:100BF000E104F10408F064C080911E018F3F09F008
:100C000069C080E1C816D104E104F10408F462C0AF
:100C100080E090E0FF90EF90DF90CF90BF90AF909A
:100C20009F908F900C942D0588E090E00E942D05F8
:100C30007501640180EAC81A8FE0D80AE108F1085A
:100C40008BCF87E090E00E942D0580EDC81A87E0E9
:100C5000D80AE108F1088CCF86E090E00E942D05CB
:100C600088EEC81A83E0D80AE108F1088DCF85E044
:100C700090E00E942D0584EFC81A81E0D80AE108AF
:100C8000F1088ECF84E090E00E942D058AEFC81A0B
:100C9000D108E108F1088FCF83E090E00E942D0594
:100CA00088E7C81AD108E108F10890CF82E090E007
:100CB0000E942D058CE3C81AD108E108F10891CFF4
:100CC00081E090E00E942D058EE1C81AD108E1086C
:100CD000F10892CFFF90EF90DF90CF90BF90AF9050
:100CE0009F908F9008951F920F920FB60F9211242C
:100CF0000F900FBE0F901F90189583E080932101F5
:100D00000E940D0B60E082E00E94710B1092900136
:100D100043E050E069E27CE080E00E94230D0C9407
:100D2000430DFC01838187708860838384818F7188
:100D3000806284836783CF0108950F931F93CF93BD
:100D4000DF93EC016115710561F0FB01019000205A
:100D5000E9F73197E61BF70BE931F10518F0E9E106
:100D600001C0E0E00E2F10E0C80123E0880F991FBA
:100D70002A95E1F79B819770892B8B838C818F71EA
:100D80008C83EE2329F0A801CE0107960E9429103A
:100D9000FE01E00FF11F1782CE01DF91CF911F916D
:100DA0000F9108952BE043E06FEF80E00E94B60AB8
:100DB0006CE371E00E949D060E94C5012CE043E0B7
:100DC0006FEF80E00E94B60A6DE471E00E949D061C
:100DD0000E94C50141E551E06DE081E00E94F80A02
:100DE0004DE551E06EE182E00C94F80ACF932FE0DC
:100DF00043E06FEF80E00E94B60A60E571E00E9478
:100E00009D06EAE8F2E083818770806183838481B4
:100E10008F71806C848381E087831086CF010E946C
:100E2000C5018FE00E94F30B40E551E061E18FEFD7
:100E30000E94F80AC091A50126E043E06FEF80E030
:100E40000E94B60A6C2F0E9491060E94C50186E09E
:100E50000E94F30BCF910C94D206CF938091A30103
:100E600081FD1FC00E94F6068091A30181608093DE
:100E7000A301C4E02AE143E06FEF80E00E94B60ADC
:100E800062E00E9491060E94C5018BE10E94F30B73
:100E9000811102C0C15071F78091A30182608093DB
:100EA000A301CF910895CF93DF93FC0110821182AB
:100EB0001282148215821682DC0117968AE1ED01F6
:100EC00019928A95E9F782E08383DF91CF910895A3
:100ED00090E59CBD1DBC2A98E0E1F0E03197F1F768
:100EE0008EBD00000DB407FEFDCF8EB5FB019FEF58
:100EF0004150C8F0222361F09EBD00000DB407FEF2
:100F0000FDCF8EB56115710599F380833196F0CFD1
:100F1000DF01119680818EBD00000DB407FEFDCF6C
:100F20008EB5FD01E5CF2A9AE0E1F0E03197F1F7C7
:100F30000895CF93DF931F92CDB7DEB7698320E08A
:100F400041E0BE016F5F7F4F0E9468070F90DF9105
:100F5000CF91089529986CE080E20C9499078F92C4
:100F60009F92AF92BF92CF92DF92EF92FF92CF9378
:100F70000E94E70BC0908C01D0908D01E0908E0113
:100F8000F0908F01DC01CB018C199D09AE09BF09DE
:100F900081339547A105B10508F449C00E94E70BCC
:100FA00060938C0170938D0180938E0190938F01DB
:100FB000809199018823C9F1C0909E01D0909F0132
:100FC000E090A001F090A101A70196016091880135
:100FD0007091890180918A0190918B010E949A10F1
:100FE000882329F1C0928801D0928901E0928A0178
:100FF000F0928B0180914B028770886280934B0244
:1010000080914C02806E80934C02C0924F02D0922D
:101010005002E0925102F092520282E08093530219
:1010200088E492E00E94C50A02C00E940D0B0E9453
:10103000E70BC0909501D0909601E0909701F09059
:101040009801DC01CB018C199D09AE09BF09813CD7
:10105000944DA140B10508F425C180919A01909169
:101060009B01A0919C01B0919D01409191015091F3
:1010700092016091930170919401481759076A0792
:101080007B0709F0B4C010929E0110929F0110924C
:10109000A0011092A10180914B0287708862809319
:1010A0004B0280914C02806E80934C0210924F0252
:1010B00010925002109251021092520282E08093DC
:1010C000530288E492E00E94C50AC0919001809189
:1010D000850182FD13C00E94E70B6B017C0140E09B
:1010E00050E0BA018091850182FDBCC0403187E2A9
:1010F00058076105710508F4C9C0B4C080EEC82E58
:1011000083E9D82E84E0E82EF12C0E94D60A0E94B2
:10111000E70B4B015C010E94E70BDC01CB01881956
:101120009909AA09BB09843F9140A105B10520F4A2
:10113000A8950E94CC01EFCF0E94AA07CF3F11F1E2
:10114000F894C09320018FEF80931F0143E050E09B
:1011500064EB71E08C2F0E94230DC701B6010E9441
:101160007A058C2F0E94110D80911E018F3F19F07E
:1011700080911E0101C08FEF9FEF90931E0187FFAA
:1011800010C004C0C701B6010E947A05CF91FF903C
:10119000EF90DF90CF90BF90AF909F908F900C9486
:1011A000430D80919A0190919B01A0919C01B09177
:1011B0009D010196A11DB11D80939A0190939B0101
:1011C000A0939C01B0939D010E94E70B60934402A1
:1011D00070934502809346029093470243E050E0AB
:1011E00069E27CE0809190010E94230D30C0409123
:1011F0009A0150919B0160919C0170919D01809199
:101200006D028F71806A80936D0280916C0287708D
:10121000806280936C0240937002509371026093DD
:1012200072027093730289E692E00E94C50A80916F
:101230009A0190919B01A0919C01B0919D01809396
:10124000910190939201A0939301B09394010E9415
:10125000E70B6093950170939601809397019093AB
:10126000980120C0403E83E9580784E06807710573
:1012700008F08CCF90EEC92E93E9D92E94E0E92E98
:10128000F12CC41AD50AE60AF70A3FCFA8950E94A6
:10129000CC010E94E70BAB01BC014C195D096E0942
:1012A0007F0920CFCF91FF90EF90DF90CF90BF903C
:1012B000AF909F908F9008956FE080E20E94990711
:1012C000609119016F3F19F08AE20E949907299AEB
:1012D000089520E040E060E070E00C946807CF9251
:1012E000DF92EF92FF920F931F93CF93DF936C01E6
:1012F0007A018B01C0E0D0E0CE15DF0589F0D8017E
:101300006D918D01D601ED91FC910190F081E02D60
:10131000C6010995892B11F47E0102C02196ECCFFC
:10132000C701DF91CF911F910F91FF90EF90DF9058
:10133000CF900895FC01918D828D981761F0828D78
:10134000DF01A80FB11D5D968C91928D9F5F9F73F9
:10135000928F90E008958FEF9FEF0895FC01918D9B
:10136000828D981731F0828DE80FF11D858D90E008
:1013700008958FEF9FEF0895FC01918D228D892FA5
:1013800090E0805C9F4F821B91098F73992708958D
:1013900087EA91E00E94BC0921E0892B09F420E052
:1013A000822F0895FC01848DDF01A80FB11DA35A7F
:1013B000BF4F2C91848D90E001968F739927848F75
:1013C000A689B7892C93A089B1898C9180648C936C
:1013D000938D848D981306C00288F389E02D808157
:1013E0008F7D80830895EF92FF920F931F93CF9389
:1013F000DF93EC0181E0888F9B8D8C8D981305C065
:10140000E889F989808185FD24C0F62E0B8D10E0D6
:101410000F5F1F4F0F731127E02E8C8DE8120CC049
:101420000FB607FCFACFE889F989808185FFF5CFEF
:10143000CE010E94D209F1CF8B8DFE01E80FF11D84
:10144000E35AFF4FF0820B8FEA89FB89808180622B
:1014500007C0EE89FF896083E889F989808180640B
:10146000808381E090E0DF91CF911F910F91FF90F9
:10147000EF900895CF93DF93EC01888D8823C9F016
:10148000EA89FB89808185FD05C0A889B9898C918D
:1014900086FD0FC00FB607FCF5CF808185FFF2CF28
:1014A000A889B9898C9185FFEDCFCE010E94D20920
:1014B000E7CFDF91CF91089580E090E0892B29F06C
:1014C0000E94C80981110C94000008953FB7F89458
:1014D0008091D3029091D402A091D502B091D6020E
:1014E00026B5A89B05C02F3F19F00196A11DB11D7F
:1014F0003FBFBA2FA92F982F8827820F911DA11DBA
:10150000B11DBC01CD0143E0660F771F881F991FF5
:101510004A95D1F7089508950E942410FC01868110
:10152000813019F58581813101F584818295869517
:101530008770843029F467817085818592850AC01F
:10154000811105C0CF0107960E94561003C060E0CC
:1015500070E0CB0160939A0170939B0180939C0192
:1015600090939D0181E0809399010895EAE8F2E06B
:101570009091A4019183828366832583477084813F
:10158000807E482B4483CF010895FC018091A40103
:1015900081839481907F916094838091A30180FFE7
:1015A00003C0CF010C94C50180E00895CF92DF9273
:1015B000EF92FF920E946B036B017C0126E143E0F6
:1015C0006FEF80E00E94B60AFC0184818F71806A0F
:1015D00084838381877080628383C782D086E1861B
:1015E000F286CF01FF90EF90DF90CF900C94C50171
:1015F000CF93DF93262F8F3F11F0EA0102C0CDE693
:10160000D1E040E0682F80E00E94B60ABE010E944F
:101610009D06DF91CF910C94C50121E142E061E08C
:1016200080E00E94B60A60E571E00E949D060C947D
:10163000C5011F920F920FB60F9211242F933F9363
:101640004F935F936F937F938F939F93AF93BF93CA
:10165000EF93FF9387EA91E00E94D209FF91EF9107
:10166000BF91AF919F918F917F916F915F914F91BA
:101670003F912F910F900FBE0F901F9018951F92C2
:101680000F920FB60F9211242F938F939F93EF9386
:10169000FF93E091B701F091B8018081E091BD0125
:1016A000F091BE0182FD12C090818091C0018F5FD8
:1016B0008F732091C101821751F0E091C001F0E0D9
:1016C000E955FE4F958F8093C00101C08081FF9145
:1016D000EF919F918F912F910F900FBE0F901F90C0
:1016E0001895CF93DF9390E0FC01EC55FF4F2491C8
:1016F000FC01E057FF4F8491882361F190E0880F4F
:10170000991FFC01EA57FF4FC591D491FC01E458A1
:10171000FF4FA591B491611109C09FB7F8948881DA
:10172000209582238883EC912E230BC0623061F4D4
:101730009FB7F8943881822F809583238883EC911A
:101740002E2B2C939FBF06C08FB7F894E8812E2BC9
:1017500028838FBFDF91CF9108958F929F92AF9290
:10176000BF92CF92DF92EF92FF926B017C010E94B9
:10177000660A4B015C01C114D104E104F104F1F0EB
:101780000E94660ADC01CB0188199909AA09BB09E4
:10179000883E9340A105B10570F321E0C21AD1083B
:1017A000E108F10888EE880E83E0981EA11CB11CA8
:1017B000C114D104E104F10419F7DDCFFF90EF90DB
:1017C000DF90CF90BF90AF909F908F9008952FB7EC
:1017D000F8946091CF027091D0028091D1029091E3
:1017E000D2022FBF0895CF92DF92EF92FF92CF9354
:1017F000DF93D82F0E94E70B6B017C0181E0D111B0
:1018000080E08093B002C0E00E94E70BAB01BC0116
:101810004C195D096E097F09403D5740610571050E
:1018200080F4C1110EC0A8950E94CC019091AF0226
:101830009770933049F7C1E08091B0028D13E3CFE8
:10184000E3CF8C2FDF91CF91FF90EF90DF90CF907F
:101850000895CF92DF92EF92FF920E94E70B6B0107
:101860007C018091440290914502A0914602B09182
:101870004702A7019601281B390B4A0B5B0BCA01D3
:10188000B9010E949F109B01AC0160E070E68AE6FE
:1018900097E40E947C0F20E030E040E251E40E9497
:1018A000001160939E0170939F018093A00190931B
:1018B000A10180919A0190919B01A0919C01B0910E
:1018C0009D010196A11DB11D80939A0190939B01EA
:1018D000A0939C01B0939D01C0924402D092450216
:1018E000E0924602F0924702FF90EF90DF90CF9097
:1018F00008951F920F920FB60F9211242F933F93CA
:101900008F939F93AF93BF938091CF029091D0021A
:10191000A091D102B091D2023091CE0226E0230FE5
:101920002D3720F40296A11DB11D05C029E8230F13
:101930000396A11DB11D2093CE028093CF029093F8
:10194000D002A093D102B093D2028091D3029091A1
:10195000D402A091D502B091D6020196A11DB11D6D
:101960008093D3029093D402A093D502B093D60271
:10197000BF91AF919F918F913F912F910F900FBE8B
:101980000F901F9018951F920F920FB60F9211246F
:101990002F933F934F935F936F937F938F939F9377
:1019A000AF93BF93EF93FF93E0912401F091250152
:1019B0000995FF91EF91BF91AF919F918F917F9189
:1019C0006F915F914F913F912F910F900FBE0F90AC
:1019D0001F9018951F920F920FB60F9211242F93FC
:1019E0003F934F935F936F937F938F939F93AF93A7
:1019F000BF93EF93FF93E0912201F09123010995AA
:101A0000FF91EF91BF91AF919F918F917F916F91D6
:101A10005F914F913F912F910F900FBE0F901F90AC
:101A20001895823078F4813011F0E89801C0E99877
:101A3000E82FF0E0EE0FFF1FEE5DFE4F8BE89AE01F
:101A40009183808308958230E8F4E82FF0E0EE0F70
:101A5000FF1FEE5DFE4F71836083813041F0809106
:101A600069008C7F482B40936900E89A0895809123
:101A70006900440F551F440F551F837F482B409327
:101A80006900E99A08958F929F92AF92BF92CF9288
:101A9000DF92EF92FF920F931F93CF93DF93CDB717
:101AA000DEB7A1970FB6F894DEBF0FBECDBF809111
:101AB000210120E4829FC001112480937C00809149
:101AC0007A00806480937A0080917A0086FDFCCF52
:101AD000609178008091790070E0782B072E000CDF
:101AE000880B990B0E94A11023E73BEB45EA5BE3CF
:101AF0000E9400114B015C0120E030E04AE754E411
:101B00000E9400110E94F50F6B017C018091CC02B4
:101B10009091CD028C159D0509F441C0CE0101962E
:101B20000E94530782E08F8386E28E838D818F71BE
:101B300080668D838C81877080618C83D986C8860E
:101B4000CE0101960E94C50A20E043E06FEF80E0DD
:101B50000E94B60A8C0126E636E646E650E4C50148
:101B6000B4010E940F0F20E030E040EC5FE30E94E0
:101B70007C0F20E030E048EC52E40E9400110E940B
:101B8000EE0F6536710514F064E670E0C8010E943E
:101B900091060E94C501D092CD02C092CC02A196BE
:101BA0000FB6F894DEBF0FBECDBFDF91CF911F916E
:101BB0000F91FF90EF90DF90CF90BF90AF909F90EC
:101BC0008F900895789484B5826084BD84B58160D7
:101BD00084BD85B5826085BD85B5816085BD8091F8
:101BE0006E00816080936E00109281008091810070
:101BF0008260809381008091810081608093810068
:101C0000809180008160809380008091B100846029
:101C10008093B1008091B00081608093B00080918A
:101C20007A00846080937A0080917A008260809349
:101C30007A0080917A008E7F80937A0080917A007A
:101C4000806880937A001092C100A89580E090E0AF
:101C5000892B11F00E940000E091B701F091B801CA
:101C600082E08083E091B301F091B4011082E091B1
:101C7000B501F091B60188E080831092BF01E09138
:101C8000BB01F091BC0186E08083E091B901F09145
:101C9000BA01808180618083E091B901F091BA013D
:101CA000808188608083E091B901F091BA018081E0
:101CB00080688083E091B901F091BA0180818F7DC5
:101CC00080838091A3018D7F8093A30180E090E0C9
:101CD000892B11F00E94000041E050E063E071E0C8
:101CE00082EA91E00E94BE116FEF81E090E00E94D5
:101CF000DE11809186018F788093860110927C019D
:101D000010927B018AE191E00E947E038DE297E0D0
:101D100090937A01809379010E94E70B0E94E70B70
:101D20000E94CC01A8958091850182FFF7CF0E9487
:101D30007D06A895A8950E94CC010E94AF070E943D
:101D40005C0AF8CFCF93E7EAF1E01382128288EEC3
:101D500093E0A0E0B0E084839583A683B78380E31B
:101D600091E09183808385EC90E09587848784EC73
:101D700090E09787868780EC90E0918B808B81EC58
:101D800090E0938B828B82EC90E0958B848B86EC39
:101D900090E0978B868B118E128E138E148E8BEAA9
:101DA00092E00E9453078AE892E00E94530789E676
:101DB00092E00E945307E9E6F2E0C1E0C68381E1C8
:101DC000858388E492E00E945307E8E4F2E0C6834A
:101DD00082E185830E94E70B609344027093450281
:101DE0008093460290934702CF9108958091AF026D
:101DF000829586958770813019F48091B20208959A
:101E0000811105C082EB92E00E943810089580E0B5
:101E10000895EE0FFF1F0590F491E02D099450589E
:101E2000BB27AA270E94270F0C9484110E947611C9
:101E300038F00E947D1120F039F49F3F19F426F408
:101E40000C9473110EF4E095E7FB0C946D11E92FDF
:101E50000E94951158F3BA17620773078407950714
:101E600020F079F4A6F50C94B7110EF4E0950B2E42
:101E7000BA2FA02D0B01B90190010C01CA01A001DC
:101E80001124FF27591B99F0593F50F4503E68F137
:101E90001A16F040A22F232F342F4427585FF3CF78
:101EA000469537952795A795F0405395C9F77EF449
:101EB0001F16BA0B620B730B840BBAF09150A1F092
:101EC000FF0FBB1F661F771F881FC2F70EC0BA0F18
:101ED000621F731F841F48F4879577956795B795A0
:101EE000F7959E3F08F0B0CF9395880F08F099279B
:101EF000EE0F9795879508950E94900F0C9484118A
:101F00000E947D1158F00E94761140F029F45F3F45
:101F100029F00C946D1151110C94B8110C9473119B
:101F20000E94951168F39923B1F3552391F3951B02
:101F3000550BBB27AA2762177307840738F09F5FEA
:101F40005F4F220F331F441FAA1FA9F335D00E2E57
:101F50003AF0E0E832D091505040E695001CCAF7C4
:101F60002BD0FE2F29D0660F771F881FBB1F261787
:101F700037074807AB07B0E809F0BB0B802DBF015E
:101F8000FF2793585F4F3AF09E3F510578F00C942D
:101F90006D110C94B8115F3FE4F3983ED4F386952D
:101FA00077956795B795F7959F5FC9F7880F911D4E
:101FB0009695879597F90895E1E0660F771F881F3A
:101FC000BB1F621773078407BA0720F0621B730BED
:101FD000840BBA0BEE1F88F7E09508950E94F50F69
:101FE0006894B1110C94B81108950E949D1188F065
:101FF0009F5798F0B92F9927B751B0F0E1F0660FCD
:10200000771F881F991F1AF0BA95C9F714C0B1300D
:1020100091F00E94B711B1E008950C94B711672FA9
:10202000782F8827B85F39F0B93FCCF3869577953C
:102030006795B395D9F73EF4909580957095619525
:102040007F4F8F4F9F4F089581E090E0F8940C945C
:10205000F011FB01DC014150504048F001900D921D
:102060000020C9F701C01D9241505040E0F708958B
:10207000FC0188279927E89421912032E9F329303F
:1020800010F02E30C8F32B3241F02D3239F4689421
:1020900004C00E949210820F911D219120532A307A
:1020A000C0F31EF4909581959F4F08951F93FC01F6
:1020B00099278827BC01E89411911032E9F319306F
:1020C00010F01E30C8F31B3251F01D3249F46894F1
:1020D00006C00E947D10610F711D811D911D11911F
:1020E00010531A30B0F33EF4909580957095619539
:1020F0007F4F8F4F9F4F1F910895592F482F372F94
:10210000262F660F771F881F991F660F771F881F5E
:10211000991F620F731F841F951F660F771F881FFB
:10212000991F08957AE0979F902D879F802D910D9C
:10213000112408950E94DC1008F481E00895E894C9
:1021400009C097FB3EF490958095709561957F4FFF
:102150008F4F9F4F9923A9F0F92F96E9BB279395AD
:10216000F695879577956795B795F111F8CFFAF4BD
:10217000BB0F11F460FF1BC06F5F7F4F8F4F9F4FEE
:1021800016C0882311F096E911C0772321F09EE84C
:10219000872F762F05C0662371F096E8862F70E0B2
:1021A00060E02AF09A95660F771F881FDAF7880F8C
:1021B0009695879597F90895990F0008550FAA0BE2
:1021C000E0E8FEEF16161706E807F907C0F012164A
:1021D0001306E407F50798F0621B730B840B950B4D
:1021E00039F40A2661F0232B242B252B21F40895A2
:1021F0000A2609F4A140A6958FEF811D811D08953F
:102200000E9413110C9484110E94761138F00E94E0
:102210007D1120F0952311F00C946D110C94731125
:1022200011240C94B8110E94951170F3959FC1F37D
:10223000950F50E0551F629FF001729FBB27F00D74
:10224000B11D639FAA27F00DB11DAA1F649F6627C9
:10225000B00DA11D661F829F2227B00DA11D621F18
:10226000739FB00DA11D621F839FA00D611D221FD2
:10227000749F3327A00D611D231F849F600D211DB6
:10228000822F762F6A2F11249F5750409AF0F1F039
:1022900088234AF0EE0FFF1FBB1F661F771F881FA2
:1022A00091505040A9F79E3F510580F00C946D115C
:1022B0000C94B8115F3FE4F3983ED4F3869577957C
:1022C0006795B795F795E7959F5FC1F7FE2B880F48
:1022D000911D9695879597F9089597F99F6780E8DE
:1022E00070E060E008959FEF80EC089500240A9468
:1022F0001616170618060906089500240A941216E1
:102300001306140605060895092E0394000C11F413
:10231000882352F0BB0F40F4BF2B11F460FF04C0C0
:102320006F5F7F4F8F4F9F4F089557FD9058440F19
:10233000551F59F05F3F71F04795880F97FB991F24
:1023400061F09F3F79F087950895121613061406E1
:10235000551FF2CF4695F1DF08C01616170618066E
:10236000991FF1CF86957105610508940895E89449
:10237000BB2766277727CB0197F90895DC01CB01AE
:10238000FC01F999FECF06C0F2BDE1BDF89A319685
:1023900000B40D9241505040B8F70895DC01A40FED
:1023A000B51F4150504048F0CB01840F951F2E912E
:1023B0000E94DF1141505040D0F70895262FF9991F
:1023C000FECF92BD81BDF89A019700B4021639F094
:1023D0001FBA20BD0FB6F894FA9AF99A0FBE089565
:0423E000F894FFCF9F
:1023E40000FCE1A8A84D01AA03660102043A01D445
:1023F400038700CA0377011C04FF8D013E04FFFF1D
:10240400FF018B0A8B0A0000D70280000000000045
:10241400F3096F09BC099A09AE093A0A47617320A6
:102424006D657465722073656E736F7200312E3141
:102434000050756C736520636F756E74004261742F
:102444007465727920766F6C7461676500322E3220
:082454002E302D626574610059
:00000001FF
