:100000000C9479010C947E0A0C94570A0C94A1016B
:100010000C94A1010C94A1010C94CE060C94A101A6
:100020000C94A1010C94A1010C94A1010C94A101C8
:100030000C94A1010C94A1010C94A1010C94A101B8
:100040000C940D0A0C94A1010C9474150C944E158B
:100050000C94A1010C94A1010C94A1010C94A10198
:100060000C94A1010C94A1019F0367039F039F03BC
:1000700072038403950367E6096A85AE67BB72F372
:100080006E3C3AF54FA57F520E518C68059BABD95B
:10009000831F19CDE05B005EBCE2613FDD83C29C43
:1000A0007E20A3FD1F419DC3217FFCA2401E5F0156
:1000B000E3BD3E6082DC237D9FC1421CFEA0E1BF08
:1000C0005D0380DE3C62BEE0025CDF81633D7C223A
:1000D000C09E1D43A1FF4618FAA427799BC584DA68
:1000E0003866E5BB5907DB856739BAE40658194716
:1000F000A5FB7826C49A653BD987045AB8E6A7F9C8
:100100001B45C6987A24F8A6441A99C7257B3A64F9
:1001100086D85B05E7B98CD2306EEDB3510F4E1027
:10012000F2AC2F7193CD114FADF3702ECC92D38DD5
:100130006F31B2EC0E50AFF1134DCE90722C6D3387
:10014000D18F0C52B0EE326C8ED0530DEFB1F0AEB9
:100150004C1291CF2D73CA947628ABF517490856E7
:10016000B4EA6937D58B5709EBB536688AD495CB95
:100170002977F4AA4816E9B7550B88D6346A2B7547
:1001800097C94A14F6A8742AC896154BA9F7B6E879
:100190000A54D7896B3500000000240027002A008C
:1001A00000000000250028002B00000000080002CD
:1001B0000100000304070000000000000000982F69
:1001C0008A4291443771CFFBC0B5A5DBB5E95BC26C
:1001D0005639F111F159A4823F92D55E1CAB98AA11
:1001E00007D8015B8312BE853124C37D0C55745D35
:1001F000BE72FEB1DE80A706DC9B74F19BC1C169B3
:100200009BE48647BEEFC69DC10FCCA10C246F2C8A
:10021000E92DAA84744ADCA9B05CDA88F9765251D7
:100220003E986DC631A8C82703B0C77F59BFF30BEE
:10023000E0C64791A7D55163CA0667292914850AE4
:10024000B72738211B2EFC6D2C4D130D38535473DA
:100250000A65BB0A6A762EC9C281852C7292A1E812
:10026000BFA24B661AA8708B4BC2A3516CC719E88A
:1002700092D1240699D685350EF470A06A1016C165
:10028000A419086C371E4C774827B5BCB034B30CA2
:100290001C394AAAD84E4FCA9C5BF36F2E68EE8277
:1002A0008F746F63A5781478C8840802C78CFAFF2E
:1002B000BE90EB6C50A4F7A3F9BEF27871C60000B3
:1002C000000023002600290004040404040404049C
:1002D00002020202020203030303030301020408F1
:1002E00010204080010204081020010204081020A0
:1002F000081811241FBECFEFD8E0DEBFCDBF11E03C
:10030000A0E0B1E0EEEFF6E302C005900D92A83A4E
:10031000B107D9F725E0A8EAB1E001C01D92A433E6
:10032000B207E1F711E0C9E7D1E004C02197FE016F
:100330000E943F1BC837D107C9F70E947D160C9455
:100340007D1B0C9400008091E70184608093E7019D
:100350008091E80180788093E801E091AF01F0910D
:10036000B001309709F0099408959091AE01992356
:1003700099F05FB7F8949091AE01913059F49DB324
:100380009093A8013DB39091AD01909593239DBBAF
:100390005FBF02C05093A80191E59CBD91E09DBD57
:1003A0002A98E3E2F0E03197F1F78EBD00000DB43A
:1003B00007FEFDCF8EB5FB019FEF4150C8F0222311
:1003C00061F09EBD00000DB407FEFDCF8EB5611536
:1003D000710599F380833196F0CFDF01119680810A
:1003E0008EBD00000DB407FEFDCF8EB5FD01E5CF3B
:1003F0002A9A9091AE01992361F02FB7F894309129
:10040000AE019091A801313019F49DBB2FBF01C0FE
:100410009FBFE3E2F0E03197F1F70895CF93DF93C8
:100420001F92CDB7DEB7698320E041E0BE016F5F68
:100430007F4F0E94B5010F90DF91CF910895809179
:10044000E801982F9077903759F0982F92959F70E8
:100450009F5F97709295907F8F78892B8093E801AA
:100460008091E7018B7F8F7E8093E70129986CE371
:1004700080E20C940E026FE380E20E940E02609113
:1004800018016F3F19F08AE20E940E02299A08951E
:1004900021E041E060E070E00C94B5018091AA0198
:1004A0009091AB01892B61F087E10E94480280FDA9
:1004B00006C0E091AA01F091AB010995F5CF08952E
:1004C00060E487E20C940E0220E040E060E070E01F
:1004D0000C94B5010F931F93CF938C0121E041E061
:1004E00060E070E080E60E94B501C82F813220F004
:1004F00082EE0E946402C0E021E04C2FB80181E648
:100500000E94B50160E487E20E940E028C2FCF9119
:100510001F910F9108951F93CF93DF930E949C1317
:10052000811147C01FB7F8940E949C1381110DC020
:100530008091FB03C091F903D091FA0391E2899F66
:10054000C00DD11D11241FBF03C01FBFC0E0D0E0EC
:10055000CE0101960E946A0288831FB7F8940E9418
:100560009C13811124C08091FB03A091F903B091E9
:10057000FA0391E2899FA00DB11D1124AC17BD07AC
:1005800031F081E2FE0101900D928A95E1F78091B0
:10059000FB0390E001966091F80370E00E942B1B32
:1005A0008093FB038091FC038F5F8093FC031FBF4C
:1005B0000DC080E090E00E946A028091A9018F3F07
:1005C00029F08091A9018F5F8093A901DF91CF91DC
:1005D0001F910895E7EEF1E08081877F8F7E808311
:1005E0001092E3011092E4011092E5011092E601ED
:1005F0000E94010A6093EC017093ED018093EE017B
:100600009093EF0144E050E060E070E080EC92E015
:100610000C94491AFC0183818770886083838481EC
:100620008F71806284836783CF0108950F931F9336
:10063000CF93DF93EC016115710561F0FB0101902F
:100640000020E9F73197E61BF70BE931F10518F0C7
:10065000E9E101C0E0E00E2F10E0C80123E0880FBF
:10066000991F2A95E1F79B819770892B8B838C8149
:100670008F718C83EE2329F0A801CE0107960E948A
:100680006E1BFE01E00FF11F1782CE01DF91CF91AB
:100690001F910F910895FC012481229526952770C2
:1006A000213011F487810895211104C007960E941A
:1006B000BA18089580E008958730910528F4FC0168
:1006C000EC5CFF4F0C943F1B80E090E0089588E0C5
:1006D0000E9448028F70282F38EF3203C001112486
:1006E0004D97089586E00E944802282F30E0359506
:1006F000279520953095237033274AEF4203C00198
:10070000439F900D1124089586E00E944802282FEF
:1007100030E035952795359527952370332789E166
:10072000829F800D112490E008958091EA019091BC
:10073000EB0124E0959587952A95E1F7089580E0EF
:100740009FEF0895CF92DF92EF92FF921F93CF9386
:10075000DF937C01FC01C2818091E70180FF04C02E
:10076000CF3F09F05BC014C0C11103C0C091C102EA
:100770000FC0CF3F69F08C2F90E003960E94591A6A
:100780008F3F29F48091C102F70190819813C82FFF
:100790008091C002F7018083438142FD06C04695E7
:1007A00046954695D7E0D40F01C0D0E21091C30220
:1007B0001170299883E092E00197F1F76EE380E2EF
:1007C0000E940E028BE891E00197F1F76C2F8AE20C
:1007D0000E940E026C2F80E30E940E0281EE0E94A6
:1007E0006402CF3F21F0111102C080EA01C080EB0A
:1007F0004D2FD13208F040E220E0B7010E94B50150
:10080000299AE12CF12C8FEF0E946402D82F80737B
:1008100039F4F1E0EF1AF108B1F702C010E05EC060
:10082000299860E387E20E940E02D4FF03C081EEA4
:100830000E9464020E943B02D5FD02C0117001C0FB
:1008400011E081E0CF3F09F080E0182B8091C102D8
:10085000C81344C09091E801111108C081E0890FCC
:100860008F70907F982B9093E80138C0907F909381
:10087000E80181E090E00E945C03EC016091EA01F4
:100880007091EB01072E000C880B990B0E942C191C
:1008900023E333E343E75FE30E948B196B017C01A1
:1008A000CE0124E0880F991F2A95E1F7BC01990F2A
:1008B000880B990B0E942C192DEC3CEC4CE45DE369
:1008C0000E948B199B01AC01C701B6010E94841ADA
:1008D0000E94F01A7093EB016093EA01812FDF917F
:1008E000CF911F91FF90EF90DF90CF9008952091CE
:1008F000E70122FD0C94A20380E008958FEF80931E
:10090000E901E7EEF1E080818860808328E143E03F
:100910006FEF80E00E94C50F61E00E940A030C9413
:10092000A2038091C0028F3FB1F40E94010A6F3F81
:1009300019F060931F0102C010921F0123E043E0F1
:1009400060911F0180E00E94C50F60E771E00E9486
:1009500016030C94A2030895E7EEF1E08081897FED
:1009600081608083E0ECF2E08FEF8283818327E077
:1009700043E06FEF0E94C50F60E771E00E9416032D
:100980000C94A203CF939FEF980F9E3FB0F4C82F13
:100990008093C0028093180163E082E20E940E02FD
:1009A00061E081E20E940E020E943B026C2F80E017
:1009B00090E00E94711A81E004C08FEF8093C00222
:1009C00080E0CF910895E091DD01F091DE01028099
:1009D000F381E02D309709F009958091E70184FDBE
:1009E0000C94AA0B08950F931F930E94010A009183
:1009F000DF011091E0012091E1013091E201601BE3
:100A0000710B820B930B1F910F9108959C018091A4
:100A1000DD019091DE018217930751F09091E7017B
:100A20009F719093E7013093DE012093DD0105C0B3
:100A30008091E701805E8093E701E091DD01F09114
:100A4000DE010190F081E02D309709F009950E94B8
:100A5000010A6093DF017093E0018093E1019093BC
:100A6000E20108950F931F930E94F3042091E8017F
:100A70002077203729F000E117E220E030E004C0C1
:100A800000E61AEE20E030E00617170728073907BE
:100A900030F489E191E01F910F910C9406051F91AC
:100AA0000F9108958091E8018F708B3020F084E1E0
:100AB00091E00C94060508958091E9018F3FA1F023
:100AC0000E94010A6093E3017093E4018093E501C1
:100AD0009093E6018091E9019091C202891380937D
:100AE000C20280E191E013C00E94F304613D7740AF
:100AF0008105910570F08091E701803618F48CE053
:100B000091E005C0877F8093E70184E191E00C9438
:100B1000060508958091C0028F3F19F08CE091E0A6
:100B200010C00E94F304613D77408105910558F0A3
:100B30008091E701803618F488E091E002C080E2FD
:100B400091E00C94060508950E94F304613D7740FE
:100B50008105910520F48091E70181FF089580913E
:100B6000C1028F3F41F08091E7018E7F8093E701C2
:100B700088E091E009C08091E701803618F484E1B3
:100B800091E002C080E291E00C940605CF9386E0EC
:100B90000E944802C82F85E00E94480221E08C3460
:100BA00009F020E081E0C53209F080E08223CF9196
:100BB0000895CF938FB7F8942BE832E03093AB01D0
:100BC0002093AA018FBF5298219A229A29982A9A93
:100BD000CFB7F8948091AC01811127C0E2EDF2E02B
:100BE0008491E6EEF2E09491E82FF0E0EE0FFF1F23
:100BF000EA56FE4FA591B491EC91E92321F461E00E
:100C00008AE00E94A61561E08AE00E94F2158CB588
:100C100080618CBD8CB580648CBD61E08DE00E94EC
:100C2000F21561E08BE00E94F2158091AC018F5FBC
:100C30008093AC01CFBF9FB7F8948091AD018160E4
:100C40008093AD018091AE01811103C081E080935A
:100C5000AE019FBF8EE492E0909325018093240122
:100C6000809169008C7F826080936900E89A6EE3CE
:100C700080E20E940E0265E070E080E090E00E9459
:100C80002E1663E083E20E940E026FE584E20E946A
:100C90000E026CE485E20E940E0265E286E20E948A
:100CA0000E0263E780E50E940E0266E08DE30E947B
:100CB0000E020E94C605882309F440C062E082E269
:100CC0000E940E0260E081E20E940E0263E08CE36B
:100CD0000E940E028FEF8093030120E045E063E065
:100CE00071E08BE20E94B50120E045E063E071E035
:100CF0008AE20E94B50120E045E063E071E080E314
:100D00000E94B50182EE0E94640281EE0E9464029C
:100D100060E787E20E940E028091E7018061809384
:100D2000E7018091C3028E7F8093C3028091C0024D
:100D30008F3F39F00E94C204811103C080E291E02C
:100D400002C084E191E0CF910C9406050F931F93AC
:100D5000CF93DF93EC018C01060F171FC017D1074B
:100D6000C1F0899140915C0250915D0260915E02F8
:100D700070915F024F5F5F4F6F4F7F4F40935C02F8
:100D800050935D0260935E0270935F020E94D40FE5
:100D9000E5CFDF91CF911F910F9108951F920F9290
:100DA0000FB60F9211240F900FBE0F901F90189541
:100DB000FC012681233019F0243071F00895FC01E4
:100DC0002581223071F50E944B0361E0811101C041
:100DD00060E086E00C94A615FC012581211121C05C
:100DE0002481229526952770223019F487819085D9
:100DF00008C0211104C007960E94BA1802C080E002
:100E000090E020911D0130911E018217930749F057
:100E100090931E0180931D01682F8EE991E00C9440
:100E2000711A0895CF92DF92EF92FF92CF93DF93E2
:100E3000CDB7DEB761970FB6F894DEBF0FBECDBF5A
:100E40000E94010AC090D501D090D601E090D70150
:100E5000F090D801DC01CB018C199D09AE09BF09C6
:100E600081369A4EA105B10508F4EEC00E94010A30
:100E70006093D5017093D6018093D7019093D801E8
:100E80008091A8039091A9030E94740B40E06CEC40
:100E90008091A8039091A9030E94050B4091A303A0
:100EA00064E48091A8039091A9030E94050B8091AE
:100EB000A5038823A9F0E091A403E950E33040F4AE
:100EC000F0E0EE0FFF1FE85DFE4F6081718102C010
:100ED0006EEE72E0072E000C880B990B0E942E1606
:100EE000E091A803F091A903138615861486DF010B
:100EF0001B96CF0103961E92A817B907E1F7BE0112
:100F0000665F7F4FCF010E94EF13882349F067E0AF
:100F1000CE010A960E94A50A9989891709F4B7C0DB
:100F2000C12CD12C9EEFE92E92ECF92EA70196014F
:100F30006091D1017091D2018091D3019091D4013F
:100F40000E942519882309F455C020E030E04EEFB7
:100F500052ECC701B6010E942519882309F44AC042
:100F600080918503877088628093850380918603D2
:100F7000806E80938603C0928903D0928A03E092A8
:100F80008B03F0928C0381E080938D0382E893E0E1
:100F90000E94A713C092D101D092D201E092D30156
:100FA000F092D40160911D0170911E01072E000C7A
:100FB000880B990B0E942C199B01AC01C701B6014B
:100FC0000E94261B87FD16C060E086E00E94A615E1
:100FD00080916403877088608093640380916503C7
:100FE0008F718062809365031092680381E693E0BD
:100FF0000E94A71360911D0170911E016B5F7F4FCE
:10100000072E000C880B990B0E942C199B01AC0138
:10101000C701B6010E94261B1816B4F460E086E0F2
:101020000E94A61580916403877088608093640392
:10103000809165038F7180628093650310926803CD
:1010400081E693E00E94A7130E94010AC090D90193
:10105000D090DA01E090DB01F090DC01DC01CB0103
:101060008C199D09AE09BF09813A9B4BAD40B10572
:1010700008F461C00E94010A6093D9017093DA01FB
:101080008093DB019093DC010E94B81354C0BE0131
:101090006F5F7F4FCE010A960E947F14882341F034
:1010A00068E0CE0101960E94A50A99858917B1F0E2
:1010B00060E874EE613854EE75070CF431CF072EFA
:1010C000000C880B990B0E942C1920E030E040E0C6
:1010D0005CE30E948B196B017C0128CF698148E099
:1010E000649FB00111248A81282F30E0322F2227FB
:1010F000330F330F330F262B372B8A858031C9F4FA
:10110000688570E08F81AB01481B5109CA01969533
:10111000982F8827979587950E942B1B60517109FE
:10112000207F53E0220F331F5A95E1F7620F731FA0
:10113000C1CFB901BFCF61960FB6F894DEBF0FBE25
:10114000CDBFDF91CF91FF90EF90DF90CF900895CA
:101150002BE043E06FEF80E00E94C50F62E671E094
:101160000E9416030E9477042CE043E06FEF80E0BA
:101170000E94C50F6DE671E00E9416030E9477047D
:1011800041E751E066E080E00E94DA134DE751E06C
:1011900063E083E00E94DA1349E851E066E084E00E
:1011A0000C94DA130F931F93CF93DF93CDB7DEB771
:1011B00061970FB6F894DEBF0FBECDBFE091A803D4
:1011C000F091A903138615861486DF011B963396CA
:1011D0001E92AE17BF07E1F71092A70311E0BE0100
:1011E000665F7F4F8091A8039091A9030E94EF133F
:1011F000882309F451C067E0CE010A960E94A50A2F
:1012000099898913ECCF8091A303811127C0809124
:10121000A8039091A9030E94740BBE01665F7F4FE3
:101220008091A8039091A9030E94470B40E064EBD2
:101230008091A8039091A9030E94050B8091A803B7
:101240009091A9030E94B20A082F8091A80390915F
:10125000A9030E94740B002309F44CC0BE016F5F08
:101260007F4FCE010A960E947F140091A403CE0105
:101270000A960E94D414801718F48091A40304C025
:10128000CE010A960E94D4148093A4038091A703F0
:101290008F5F8093A703A3CF8EE991E00E94591A34
:1012A00090E09C01255131092B33310520F49093B6
:1012B0001E0180931D0120E042E064E080E00E9476
:1012C000C50F60E771E00E9416030E94770461E099
:1012D00086E00E94F21560E086E00E94A615619605
:1012E0000FB6F894DEBF0FBECDBFDF91CF911F9137
:1012F0000F9108951093A303B1CFCF932FE043E054
:101300006FEF80E00E94C50F60E771E00E94160356
:10131000E6EBF3E0838187708061838384818F7142
:10132000806C848381E087831086CF010E947704DC
:101330008FE00E94181540E751E062E18FEF0E94B4
:10134000DA13C091C10226E043E06FEF80E00E9413
:10135000C50F6C2F0E940A030E94770486E00E944A
:101360001815CF910C94A808CF938091FA0181FDB4
:101370001FC00E947D098091FA0181608093FA016B
:10138000C4E02AE143E06FEF80E00E94C50F62E015
:101390000E940A030E9477048BE10E9418158111B4
:1013A00002C0C15071F78091FA0182608093FA0106
:1013B000CF910895089508953FB7F8948091F5016D
:1013C0009091F601A091F701B091F80126B5A89B84
:1013D00005C02F3F19F00196A11DB11D3FBFBA2FC7
:1013E000A92F982F8827820F911DA11DB11DBC0127
:1013F000CD0142E0660F771F881F991F4A95D1F7EC
:1014000008952FB7F8946091F1017091F2018091E5
:10141000F3019091F4012FBF08951F920F920FB620
:101420000F9211242F933F938F939F93AF93BF936A
:101430008091F1019091F201A091F301B091F4013A
:101440003091F00123E0230F2D3720F40196A11DE8
:10145000B11D05C026E8230F0296A11DB11D2093E2
:10146000F0018093F1019093F201A093F301B09306
:10147000F4018091F5019091F601A091F701B091EE
:10148000F8010196A11DB11D8093F5019093F6011D
:10149000A093F701B093F801BF91AF919F918F9105
:1014A0003F912F910F900FBE0F901F9018951F9294
:1014B0000F920FB60F9211242F933F934F935F9388
:1014C0006F937F938F939F93AF93BF93EF93FF930C
:1014D000E0912601F09127010995FF91EF91BF91CD
:1014E000AF919F918F917F916F915F914F913F91BC
:1014F0002F910F900FBE0F901F9018951F920F9273
:101500000FB60F9211242F933F934F935F936F93D6
:101510007F938F939F93AF93BF93EF93FF93E0914C
:101520002401F09125010995FF91EF91BF91AF91B1
:101530009F918F917F916F915F914F913F912F91EB
:101540000F900FBE0F901F901895DC01E0E06150E6
:1015500038F08D91E827F0E0EA56FF4FE491F7CF9D
:101560008E2F0895FC0190810180F281E02DF89486
:101570008181892B81832281892F80952823228351
:10158000A7E0B0E01197F1F7218182238183A3E2E4
:10159000B0E01197F1F780817894EFECF0E03197AB
:1015A000F1F7982381E009F480E00895FC0190812F
:1015B0000180F281E02D892F809560FF12C0F894A0
:1015C0002281822382838181892B8183A3E2B0E0FF
:1015D0001197F1F78281982B9283789487ED90E0B0
:1015E00011C0F8942281822382838181892B818397
:1015F000AFEFB0E01197F1F78281982B9283789446
:101600008FE090E00197F1F70895CF92DF92EF928B
:10161000FF920F931F93CF93DF931F92CDB7DEB747
:101620006C01E62E08E010E0FF24F39461E08F2DBA
:101630008E2109F460E0C60149830E94D60AFF0C9E
:101640000150110949810115110581F7411115C09A
:10165000F894D6011196ED91FC91129791818C919D
:101660008095892381831196ED91FC911297928147
:101670008C9180958923828378940F90DF91CF910C
:101680001F910F91FF90EF90DF90CF900895CF9230
:10169000DF92EF92FF920F931F93CF93DF931F92EE
:1016A000CDB7DEB78C01F62E40E065E579830E9468
:1016B000050BCF2C7981D72E760188E0E80EF11C3E
:1016C000F60161916F0140E0C8010E94050BCE1444
:1016D000DF04B1F70F90DF91CF911F910F91FF9031
:1016E000EF90DF90CF900895FC0190810180F2810E
:1016F000E02DF8948181292F20958223818378948D
:101700008DE743E050E0815021F1DA011197F1F7C4
:1017100030813923C1F3F8948281822382838181CD
:10172000892B81837894ABE7B7E01197F1F7F894B0
:10173000818128232183A3E1B1E01197F1F7808112
:10174000982381E009F080E07894E3E6F6E03197B1
:10175000F1F708956F927F928F929F92AF92BF920E
:10176000CF92DF92EF92FF920F931F93CF93DF936D
:1017700000D0CDB7DEB70E94010A0091EC011091B4
:10178000ED012091EE013091EF01DC01CB01801BD6
:10179000910BA20BB30B813A9B4BAD40B10590F07E
:1017A0000E94010A6093EC017093ED018093EE01B9
:1017B0009093EF010E94C605811104C080E291E080
:1017C0000E94060586E0F82E91E2E92E20E0622EC6
:1017D00020E0722E0E940F158111CDC2FA94FF20D5
:1017E00009F4C9C21FB7F8940E940F1581111BC0DC
:1017F0008091FB032091FC036091F80370E090E07E
:10180000821B9109860F971F0E942B1B6091F90381
:101810007091FA038E9D600D711D11241FBF61151B
:10182000710521F401C01FBFB12C15C0FB01B1909F
:10183000BF014B2D50E087ED93E00E94651B1FB761
:10184000F8940E940F15811105C08091FC0381500E
:101850008093FC031FBF8091DA03282F26952695DD
:1018600026952A3108F029E182FD03C097E0920F06
:1018700001C090E21091DB035091DC03C090D803CB
:10188000D090D7030091D903B912A4CF83708230CE
:1018900009F0A0CF8091C102D81671F08091C002EA
:1018A000C81651F08C2D90E06D2D039629835A8334
:1018B0000E94711A5A81298117708091E80180680D
:1018C0008093E8018091C002081355C04091DA036B
:1018D000842F8695869586958A3108F089E1F8E00F
:1018E0008F9FC00111244770842B8093DA03E22F6D
:1018F000F0E0E952FC4F17828091DB0383FF19C0AF
:10190000E7EDF3E0A6EBB3E08E2D01900D928A9502
:10191000E1F78091BA03877F80618093BA030093D7
:10192000B703C092B80386EB93E05A830E94770412
:101930005A819091DB0394FD19C01330B9F4809162
:10194000DC0321EF280F233008F0C1C043CF8130E2
:1019500009F44DC18A3009F469C18C3109F43ACFD8
:101960005E3109F437CF5D3109F482C187ED93E030
:101970000E94D8062FCF0F3F09F08FC0133009F017
:101980007EC08091E70182FF5DC0573009F05AC0E8
:101990008091C102C81609F41DCF0E94010A8090EF
:1019A000E3019090E401A090E501B090E601DC0134
:1019B000CB0188199909AA09BB0980319742A10571
:1019C000B10518F18091E70183FD04CF9091C00229
:1019D000911189C11092E9018091E701877F80937D
:1019E000E7011091E9011F3F09F4F4CE0E94010ABA
:1019F0006093E3017093E4018093E5019093E60125
:101A00008091C20218131093C2020E94010A6093CF
:101A1000E3017093E4018093E5019093E6010E9455
:101A2000010A7370882799270E942E161091C2020E
:101A300028E043E06FEF8C2D0E94C50F612F0E94BC
:101A40000A0342C0583009F4C5CE5431C1F4809124
:101A5000C102D81214C00E94010A73708827992706
:101A60000E942E160091C10225E143E06FEF8C2DFC
:101A70000E94C50F602F0E940A030E94A20380915A
:101A8000C102D812A7CE8091C002C81609F46FC156
:101A90008091E70182FD5FC16AC18091E70182FF09
:101AA00099CE133079F45851523060F487ED93E0B9
:101AB0000E944B038E3F31F061E0680F87ED93E0A9
:101AC0000E940A0387ED93E00E94A20383CE543064
:101AD00081F48091DD0390911F01891719F08F3FE8
:101AE00009F078CE87ED93E00E944B030E94C20478
:101AF00071CE583001F51091E70110FF6BCE87EDE4
:101B000093E00E944B038F3F09F464CE8F5F8F3FB9
:101B100021F09091C202891710F0C1105BCE11FD27
:101B200059CEC11003C012601093E7018093C20226
:101B3000C092C1024FCE583141F429E143E06FEF2A
:101B40008C2D0E94C50F61E07ACF593171F48091DC
:101B5000E70183FF3FCE877F8093E70187ED93E026
:101B60000E944B038093E90135CE2091D8032111C7
:101B70007BC08D3059F498E088E10FB6F894A895B1
:101B8000809360000FBE90936000FFCF8B3179F49B
:101B900087ED93E00E944B0391E0811101C090E03A
:101BA0008091FA0190FB80F98093FA0113CE863080
:101BB00099F49091DE0381E0992319F09D3409F0A6
:101BC00080E08093F90141E050E063E071E089EF4B
:101BD00091E00E94611AFECD833119F40E947D09C3
:101BE000F9CD823109F0B3CE0E94B813F3CD611460
:101BF000710409F4EFCD929596959770953049F45C
:101C00006091DE037091DF038091E0039091E10326
:101C10000AC0911105C08EED93E00E94D81803C050
:101C200060E070E0CB010E940000D4CD8091DE0323
:101C3000833409F0CFCD03E010E06FEFC8010E94BC
:101C4000711A0F5F1F4F033021E01207B1F72AE02E
:101C500043E06FEF80E00E94C50F6AE971E00E94E7
:101C600016030E947704B6CD8A3109F079CEB2CD41
:101C70001091DE038091DF03813211F0E0EB0FC0A1
:101C80002EE143E06FEF8091D7030E94C50F6FEF05
:101C90000E940A030E94A203882381F0E0EDE10F75
:101CA000E43230F4F0E0E25DFE4F808190E002C06B
:101CB00087E090E00E945C038C0102C000E01FEF0F
:101CC0002FE143E06FEF80E00E94C50FFC0194819B
:101CD0009F71906494839381977090619383108730
:101CE0000783CF01F1CE88608093E7010093E9017B
:101CF00028E143E06FEF80E00E94C50F61E00E94A1
:101D00000A030E94A2030E94010A4B015C01109287
:101D1000DC0310E00E94010ADC01CB01881999095B
:101D2000AA09BB09803D9740A105B10508F054CE32
:101D3000111152CE8091E70184FD0E94AA0BA89553
:101D40008091DB038770833029F711E08091DC03F9
:101D50008931F9F6DFCF87ED93E00E94A2031330BB
:101D600009F438CD8091C102D81234CDFFCD1330A3
:101D700009F0FCCD2FCD0F900F90DF91CF911F91E7
:101D80000F91FF90EF90DF90CF90BF90AF909F901A
:101D90008F907F906F900895CF92DF92EF92FF9295
:101DA0000F931F93CF93DF936C017A018B01C0E0F7
:101DB000D0E0CE15DF0589F0D8016D918D01D601F7
:101DC000ED91FC910190F081E02DC6010995892BE0
:101DD00011F47E0102C02196ECCFC701DF91CF91B3
:101DE0001F910F91FF90EF90DF90CF900895FC012D
:101DF000918D828D981761F0828DDF01A80FB11D42
:101E00005D968C91928D9F5F9F73928F90E0089565
:101E10008FEF9FEF0895FC01918D828D981731F01F
:101E2000828DE80FF11D858D90E008958FEF9FEF73
:101E30000895FC01918D228D892F90E0805C9F4F49
:101E4000821B91098F739927089584EC92E00E9478
:101E5000190F21E0892B09F420E0822F0895FC015D
:101E6000848DDF01A80FB11DA35ABF4F2C91848D23
:101E700090E001968F739927848FA689B7892C9358
:101E8000A089B1898C9180648C93938D848D9813F3
:101E900006C00288F389E02D80818F7D80830895BC
:101EA000EF92FF920F931F93CF93DF93EC0181E0AA
:101EB000888F9B8D8C8D981305C0E889F989808166
:101EC00085FD24C0F62E0B8D10E00F5F1F4F0F73A2
:101ED0001127E02E8C8DE8120CC00FB607FCFACF4C
:101EE000E889F989808185FFF5CFCE010E942F0F07
:101EF000F1CF8B8DFE01E80FF11DE35AFF4FF08209
:101F00000B8FEA89FB898081806207C0EE89FF8997
:101F10006083E889F98980818064808381E090E032
:101F2000DF91CF911F910F91FF90EF900895CF9384
:101F3000DF93EC01888D8823C9F0EA89FB898081D1
:101F400085FD05C0A889B9898C9186FD0FC00FB6A3
:101F500007FCF5CF808185FFF2CFA889B9898C91E4
:101F600085FFEDCFCE010E942F0FE7CFDF91CF91FC
:101F7000089580E090E0892B29F00E94250F8111BF
:101F80000C94000008950E94601BE6EBF3E0909132
:101F9000C002918382836683258347708481807E1B
:101FA000482B4483CF0108952F923F924F925F9226
:101FB0006F927F928F929F92AF92BF92CF92DF9259
:101FC000EF92FF920F931F93CF93DF93CDB7DEB7BE
:101FD000C354D1090FB6F894DEBF0FBECDBF9091A8
:101FE0003B02E3E0E927F0E0E550FE4F80839F5F8E
:101FF00090933B02903409F085C340903C0250908E
:102000003D0260903E0270903F024AA25BA26CA229
:102010007DA22091400230914102409142025091B4
:1020200043022EA33FA348A759A7409144025091D1
:10203000450260914602709147024AA75BA76CA7D0
:102040007DA7609148027091490280914A02909167
:102050004B026EA77FA788AB99AB80914C02909101
:102060004D02A0914E02B0914F028AAB9BABACAB3C
:10207000BDAB40905002509051026090520270905F
:1020800053024EAA5FAA68AE79AE209154023091F5
:10209000550240915602509157022AAF3BAF4CAFC8
:1020A0005DAF409158025091590260915A0270916F
:1020B0005B0222964CAF5DAF6EAF7FAF2297FEEB17
:1020C0002F2EF1E03F2E6EA57FA588A999A96A8FD2
:1020D0007B8F8C8F9D8F8AA59BA5ACA5BDA58A8B78
:1020E0009B8BAC8BBD8B4EA05FA068A479A44E8A5D
:1020F0005F8A688E798E0AA11BA12CA13DA14EA9F1
:102100005FA968AD79AD4E8F5F8F68A379A36AAD83
:102110007BAD8CAD9DAD6E877F87888B998B22962A
:102120008CAD9DADAEADBFAD229789839A83AB8355
:10213000BC834AA85BA86CA87DA84D825E826F8292
:1021400078864AEF5FEF24965FAF4EAF24971D86E7
:10215000F10185909590A590B4904D815E816F813D
:10216000788585E1440F551F661F771F8A95D1F743
:102170008D819E81AF81B885EBE0B695A795979547
:102180008795EA95D1F72C013D01442A552A662A04
:10219000772ACD80DE80EF80F884FAE1CC0CDD1C5C
:1021A000EE1CFF1CFA95D1F74D815E816F81788519
:1021B000A6E07695679557954795AA95D1F74C294E
:1021C0005D296E297F2944255525662577258D8132
:1021D0009E81AF81B885E9E1B695A79597958795DA
:1021E000EA95D1F7CD80DE80EF80F884F7E0CC0C63
:1021F000DD1CEE1CFF1CFA95D1F78C299D29AE2918
:10220000BF29482759276A277B274E845F8468881F
:1022100079888E8D9F8DA8A1B9A1482659266A2656
:102220007B268D819E81AF81B885482259226A2202
:102230007B228E859F85A889B989482659266A26DA
:102240007B26440D551D661D771D840E951EA61E0A
:10225000B71EED85EF7094E0E99FF0011124E55081
:10226000FE4F4081518162817381840E951EA61EAE
:10227000B71E49805A806B807C80840C951CA61CFC
:10228000B71CB901A801A3E1440F551F661F771FB2
:10229000AA95D1F7D901C801EDE0B695A795979514
:1022A0008795EA95D1F72C013D01442A552A662AE3
:1022B000772AD901C801FEE1880F991FAA1FBB1F09
:1022C000FA95D1F76801790142E0F694E794D79442
:1022D000C7944A95D1F7C82AD92AEA2AFB2AB3011A
:1022E000A2014C255D256E257F25D901C801E6E1B7
:1022F000B695A79597958795EA95D1F768017901E5
:10230000FAE0CC0CDD1CEE1CFF1CFA95D1F7C82AB4
:10231000D92AEA2AFB2AC426D526E626F7264A89A0
:102320005B896C897D898E899F89A88DB98D482BA1
:10233000592B6A2B7B2B40235123622373238A89D9
:102340009B89AC89BD894E885F88688C798C842193
:102350009521A621B721842B952BA62BB72B8C0D6D
:102360009D1DAE1DBF1D4A8D5B8D6C8D7D8D480DF5
:10237000591D6A1D7B1D49875A876B877C872C01F5
:102380003D01480C591C6A1C7B1C49825A826B8295
:102390007C824D854F5F4D87403409F415C15D85C2
:1023A000503108F4CBC0852F8F7064E0869FC00148
:1023B0001124DC01A550BE4FBB8FAA8F2496EEAD31
:1023C000FFAD2497EF70FF27EE0FFF1FEE0FFF1FEB
:1023D000E550FE4F4D915D916D917C918081918191
:1023E000A281B3814A015B01880E991EAA1EBB1E01
:1023F0002496EEADFFAD24973596EF70FF27EE0FD4
:10240000FF1FEE0FFF1FE550FE4F4081518162819B
:1024100073816A017B01EDE0CC0CDD1CEE1CFF1C1E
:10242000EA95D1F7DB01CA01F3E1B695A795979537
:102430008795FA95D1F78C299D29AE29BF292A01C4
:102440003B01EFE0440C551C661C771CEA95D1F764
:102450006A017B01F1E1F694E794D794C794FA9569
:10246000D1F7C428D528E628F728C826D926EA2691
:10247000FB26AAE07695679557954795AA95D1F7DB
:102480004C255D256E257F25480D591D6A1D7B1D38
:102490002496EEADFFAD24973897EF70FF27EE0F2F
:1024A000FF1FEE0FFF1FE550FE4F80819181A2813B
:1024B000B3814C015D01EEE0880C991CAA1CBB1C89
:1024C000EA95D1F76C017D01F2E1F694E794D79497
:1024D000C794FA95D1F78C289D28AE28BF282C01E7
:1024E0003D01E7E07694679457944794EA95D1F7D5
:1024F0006C017D01F9E1CC0CDD1CEE1CFF1CFA9592
:10250000D1F7C428D528E628F728C824D924EA24F6
:10251000FB24E3E0B695A79597958795EA95D1F7C3
:10252000C826D926EA26FB26C40ED51EE61EF71EAF
:10253000EA8DFB8DC082D182E282F382F4E02F0E1D
:10254000311C24964EAD5FAD24974F5F5F4F2496AC
:102550005FAF4EAF24976A897B898C899D896A8F8A
:102560007B8F8C8F9D8F8E899F89A88DB98D8A8B4B
:102570009B8BAC8BBD8B0E8B1F8B288F398F09816A
:102580001A812B813C814E845F84688879884982D6
:102590005A826B827C824E8D5F8D68A179A14E87B5
:1025A0005F87688B798B6D817E818F8198856E8F37
:1025B0007F8F88A399A389859A85AB85BC858D83F8
:1025C0009E83AF83B887C4CD530142016AA17BA12A
:1025D0008CA19DA1860E971EA81EB91E80923C025A
:1025E00090923D02A0923E02B0923F028EA19FA126
:1025F000A8A5B9A5080F191F2A1F3B1F0093400269
:102600001093410220934202309343028E899F89A6
:10261000A88DB98D4AA45BA46CA47DA4840D951DDE
:10262000A61DB71D8093440290934502A0934602D5
:10263000B09347028A899B89AC89BD892EA53FA5A5
:1026400048A959A9820F931FA41FB51F8093480260
:1026500090934902A0934A02B0934B0289859A85D0
:10266000AB85BC854AA95BA96CA97DA9840F951F80
:10267000A61FB71F80934C0290934D02A0934E0269
:10268000B0934F028D819E81AF81B8854EA85FA81F
:1026900068AC79AC840D951DA61DB71D80935002C2
:1026A00090935102A0935202B09353028E8D9F8D4E
:1026B000A8A1B9A12AAD3BAD4CAD5DAD820F931F72
:1026C000A41FB51F8093540290935502A093560205
:1026D000B09357028E859F85A889B98922964CAD03
:1026E0005DAD6EAD7FAD2297840F951FA61FB71FFE
:1026F0008093580290935902A0935A02B0935B02C0
:1027000010923B02CD5BDF4F0FB6F894DEBF0FBED9
:10271000CDBFDF91CF911F910F91FF90EF90DF9090
:10272000CF90BF90AF909F908F907F906F905F9071
:102730004F903F902F9008959FB7F8943091FC03ED
:1027400081E02091F803321380E09FBF0895FC01DF
:102750008091C00281839481907F91609483809165
:10276000FA0180FF03C0CF010C94770480E0089544
:10277000CF92DF92EF92FF920E94F3046B017C01F3
:1027800026E143E06FEF80E00E94C50FFC018481E9
:102790008F71806A84838381877080628383C7821C
:1027A000D086E186F286CF01FF90EF90DF90CF9048
:1027B0000C947704CF93DF93262F8F3F11F0EA011B
:1027C00002C0CDE9D1E040E0682F80E00E94C50F53
:1027D000BE010E941603DF91CF910C947704AF9253
:1027E000BF92CF92DF92EF92FF920F931F93CF93FE
:1027F000DF931F92CDB7DEB75C01D62EE72EFC012A
:102800008585811105C0C5010E94740B811106C028
:10281000F50113861586148680E065C040E060EF00
:10282000C5010E94050B01E0F12CC12C11E0C5018E
:102830000E94B20A682FC50169830E94B20A6981A9
:10284000613019F48130B9F433C04F2D50E0681372
:102850001BC0F5018385181730F4E40FF51F838141
:10286000802349F402C0181731F060E0193058F4A1
:10287000F501148708C0F501EF0DF11D8381802B50
:10288000838361E009C0C12EF501E40FF51F938138
:10289000802F809589238383C5010E94D60A1F5FFC
:1028A000000F11F4F39401E0F7E0FF1508F0BFCF3B
:1028B000113408F4ADCFF501C386C11002C081E028
:1028C0008587F5018381882309F4A2CFD50113966A
:1028D000ED2DFE2D9501255F3F4F8D918193A21720
:1028E000B307D9F781E00F90DF91CF911F910F913E
:1028F000FF90EF90DF90CF90BF90AF900895AF9290
:10290000BF92CF92DF92EF92FF920F931F93CF93DC
:10291000DF93EC018B018091A8039091A9030E94A1
:10292000740B8823A1F1BE018091A8039091A903A3
:102930000E94470B40E06EEB8091A8039091A903A1
:102940000E94050BE801680189E0C80ED11CA09027
:10295000A803B090A90388E0E82EF12C01E010E074
:10296000C5010E94B20A8111102B000F81E0E81A04
:10297000F108B1F71993CC15DD0549F78091A8034B
:102980009091A9030E94740B91E0813009F090E0CE
:10299000892FDF91CF911F910F91FF90EF90DF90E2
:1029A000CF90BF90AF900895CF93DF93CDB7DEB7B0
:1029B00029970FB6F894DEBF0FBECDBFFC01208172
:1029C000203119F1BE016F5F7F4F0E947F14882371
:1029D00079F068E0CE0101960E94A50A99858913D5
:1029E00007C008C0803458F08F3569F08F3769F020
:1029F00080E00CC08D818F33A9F78AE007C08F314A
:102A0000B9F789E003C08BE001C08CE029960FB6CE
:102A1000F894DEBF0FBECDBFDF91CF9108958FB781
:102A2000F8949091FC038FBF81E0911180E00895AC
:102A3000CF92DF92EF92FF92CF93DF93D82F0E9435
:102A4000010A6B017C0181E0D11180E08093DC03FD
:102A5000C0E00E94010AAB01BC014C195D096E097E
:102A60007F09403D57406105710580F4C1110EC0DA
:102A7000A8950E94E3049091DB039770933049F787
:102A8000C1E08091DC038D13E3CFE3CF8C2FDF9186
:102A9000CF91FF90EF90DF90CF9008951F920F920B
:102AA0000FB60F9211242F933F934F935F936F9321
:102AB0007F938F939F93AF93BF93EF93FF9384EC98
:102AC00092E00E942F0FFF91EF91BF91AF919F91E4
:102AD0008F917F916F915F914F913F912F910F90C7
:102AE0000FBE0F901F9018951F920F920FB60F9266
:102AF00011242F938F939F93EF93FF93E091D40230
:102B0000F091D5028081E091DA02F091DB0282FD42
:102B100012C090818091DD028F5F8F732091DE0261
:102B2000821751F0E091DD02F0E0EC53FD4F958FFC
:102B30008093DD0201C08081FF91EF919F918F9181
:102B40002F910F900FBE0F901F90189590E0FC01F1
:102B5000E655FE4F3491FC01E452FD4F2491FC01F7
:102B6000E853FD4FE491EE2309F43BC0332339F1E0
:102B7000333091F038F43130A9F0323001F584B5BA
:102B80008F7D12C0373091F03830A1F03430B9F475
:102B9000809180008F7D03C0809180008F7780932B
:102BA00080000DC084B58F7784BD09C08091B000CE
:102BB0008F7703C08091B0008F7D8093B000F0E0EC
:102BC000EE0FFF1FE056FE4FA591B4918FB7F8941A
:102BD000EC91611103C020952E2301C02E2B2C9364
:102BE0008FBF0895CF93DF9390E0FC01E452FD4F37
:102BF0002491FC01E853FD4F8491882361F190E01A
:102C0000880F991FFC01EA56FE4FC591D491FC0133
:102C1000E056FE4FA591B491611109C09FB7F89499
:102C20008881209582238883EC912E230BC062300B
:102C300061F49FB7F8943881822F8095832388832D
:102C4000EC912E2B2C939FBF06C08FB7F894E88190
:102C50002E2B28838FBFDF91CF9108958F929F9263
:102C6000AF92BF92CF92DF92EF92FF926B017C0105
:102C70000E94DC094B015C01C114D104E104F104A0
:102C8000F1F00E94DC09DC01CB0188199909AA093D
:102C9000BB09883E9340A105B10570F321E0C21A3B
:102CA000D108E108F10888EE880E83E0981EA11C87
:102CB000B11CC114D104E104F10419F7DDCFFF9078
:102CC000EF90DF90CF90BF90AF909F908F9008953E
:102CD000CF93DF93FC01108211821282148215823D
:102CE0001682DC0117968AE1ED0119928A95E9F7BF
:102CF00082E08383DF91CF910895CF93DF93CDB7A7
:102D0000DEB7A1970FB6F894DEBF0FBECDBF7894A3
:102D100084B5826084BD84B5816084BD85B58260E0
:102D200085BD85B5816085BD80916E008160809391
:102D30006E001092810080918100826080938100FA
:102D4000809181008160809381008091800081600A
:102D5000809380008091B10084608093B100809165
:102D6000B00081608093B00080917A00846080938D
:102D70007A0080917A00826080937A0080917A0054
:102D8000816080937A0080917A00806880937A00D5
:102D90001092C100A89580E090E0892B11F00E946C
:102DA0000000E091D402F091D50282E08083E091AE
:102DB000D002F091D1021082E091D202F091D302C0
:102DC00080E180831092DC02E091D802F091D90278
:102DD00086E08083E091D602F091D7028081806105
:102DE0008083E091D602F091D70280818860808351
:102DF000E091D602F091D702808180688083E091D3
:102E0000D602F091D70280818F7D80838091FA0174
:102E10008D7F8093FA0180E090E0892B11F00E9471
:102E2000000080E2E1EBF1E0DF011D928A95E9F715
:102E300040E250E066E770E08CE392E00E94FF1809
:102E400010925C0210925D0210925E0210925F027C
:102E500010923B0240E250E063E671E0CE01019641
:102E60000E94491A60E270E0CE0101960E94A60617
:102E700040E150E06CE871E0CE0101960E94491AF1
:102E800060E170E0CE0101960E94A60649E050E0A4
:102E900063E871E0CE0101960E94491A69E070E092
:102EA000CE0101960E94A60680E80E94D40F809170
:102EB0003B02883311F080E0F8CF80E00E94D40F0D
:102EC00080E00E94D40F80E00E94D40F80915C02C9
:102ED00090915D02A0915E02B0915F022DE1B695E6
:102EE000A795979587952A95D1F70E94D40F809141
:102EF0005C0290915D02A0915E02B0915F0235E1AB
:102F0000B695A795979587953A95D1F70E94D40FD6
:102F100080915C0290915D02A0915E02B0915F028F
:102F20004DE0B695A795979587954A95D1F70E945C
:102F3000D40F80915C0290915D02A0915E02B091ED
:102F40005F0255E0B695A795979587955A95D1F765
:102F50000E94D40F80915C02880F880F880F0E9416
:102F6000D40FECE3F2E060817181828193810E9451
:102F7000451B6193719381939193B2E0EC35FB070C
:102F800091F780E2ECE3F2E0A1EBB1E001900D9269
:102F90008A95E1F741E050E06AE171E0CE01819667
:102FA0000E94491A41E050E063E071E089EF91E04E
:102FB0000E94491A60E081E090E00E94711A8091BD
:102FC000E8018F788093E8011092DE011092DD0114
:102FD00089E191E00E94060584EB99E09093B001AD
:102FE0008093AF010E94010A0E94010A0E94E3043B
:102FF000A8958091E70182FFF7CF0E94D208A8959B
:10300000A8950E94E3040E9412070E94B90FF8CF0E
:103010001092C7021092C60288EE93E0A0E0B0E0E2
:103020008093C8029093C902A093CA02B093CB02C6
:1030300086E591E09093C5028093C40285EC90E010
:103040009093D1028093D00284EC90E09093D302CD
:103050008093D20280EC90E09093D5028093D402CA
:1030600081EC90E09093D7028093D60282EC90E0BE
:103070009093D9028093D80286EC90E09093DB0283
:103080008093DA021092DD021092DE021092DF02CB
:103090001092E00288E08093F8038CE294E0909331
:1030A000FA038093F9038FB7F8941092FB03109200
:1030B000FC038FBF87ED93E00E94681686EB93E0D8
:1030C0000E94681660E087E00E94F215E3EEF2E0ED
:1030D000E491E0931E04EFECF2E0E491F0E0EE0FF7
:1030E000FF1FE254FD4F85919491909320048093AB
:1030F0001F041092290410922B0410922A04E9E272
:10310000F4E0129284E0E132F807D9F78BED99E010
:103110009093B5038093B4038EE194E09093A90358
:103120008093A8031092A7031092A30389E08093D1
:10313000A40381E08093A5038093A60382E893E033
:103140000E946816109288031092870381E693E02C
:103150000E94681683E08093670382E08093660391
:103160008DEF93E00E94681684E080930304109230
:1031700002040895FC0188279927E89421912032C0
:10318000E9F3293010F02E30C8F32B3241F02D3204
:1031900039F4689404C00E941D19820F911D219179
:1031A00020532A30C0F31EF4909581959F4F0895C7
:1031B0001F93FC0199278827BC01E89411911032D4
:1031C000E9F3193010F01E30C8F31B3251F01D32F4
:1031D00049F4689406C00E940819610F711D811D91
:1031E000911D119110531A30B0F33EF490958095D3
:1031F000709561957F4F8F4F9F4F1F910895FB01F1
:10320000DC0102C005900D9241505040D8F708955E
:10321000592F482F372F262F660F771F881F991F8A
:10322000660F771F881F991F620F731F841F951FDA
:10323000660F771F881F991F08957AE0979F902D3A
:10324000879F802D910D112408950E94671908F41D
:1032500081E00895E89409C097FB3EF4909580952D
:10326000709561957F4F8F4F9F4F9923A9F0F92F4C
:1032700096E9BB279395F695879577956795B795CA
:10328000F111F8CFFAF4BB0F11F460FF1BC06F5FB0
:103290007F4F8F4F9F4F16C0882311F096E911C0C2
:1032A000772321F09EE8872F762F05C0662371F0E3
:1032B00096E8862F70E060E02AF09A95660F771FF7
:1032C000881FDAF7880F9695879597F90895990FD3
:1032D0000008550FAA0BE0E8FEEF16161706E807E0
:1032E000F907C0F012161306E407F50798F0621B01
:1032F000730B840B950B39F40A2661F0232B242BD6
:10330000252B21F408950A2609F4A140A6958FEFF4
:10331000811D811D08950E949E190C940F1A0E9410
:10332000011A38F00E94081A20F0952311F00C942D
:10333000F8190C94FE1911240C94431A0E94201AB7
:1033400070F3959FC1F3950F50E0551F629FF001F8
:10335000729FBB27F00DB11D639FAA27F00DB11D11
:10336000AA1F649F6627B00DA11D661F829F22279A
:10337000B00DA11D621F739FB00DA11D621F839F21
:10338000A00D611D221F749F3327A00D611D231FF7
:10339000849F600D211D822F762F6A2F11249F5745
:1033A00050409AF0F1F088234AF0EE0FFF1FBB1F48
:1033B000661F771F881F91505040A9F79E3F510507
:1033C00080F00C94F8190C94431A5F3FE4F3983E94
:1033D000D4F3869577956795B795F795E7959F5FB1
:1033E000C1F7FE2B880F911D9695879597F9089543
:1033F00097F99F6780E870E060E008959FEF80ECA8
:10340000089500240A94161617061806090608954A
:1034100000240A9412161306140605060895092EB0
:103420000394000C11F4882352F0BB0F40F4BF2B1F
:1034300011F460FF04C06F5F7F4F8F4F9F4F08955F
:1034400057FD9058440F551F59F05F3F71F0479555
:10345000880F97FB991F61F09F3F79F0879508953A
:10346000121613061406551FF2CF4695F1DF08C059
:10347000161617061806991FF1CF86957105610576
:1034800008940895E894BB2766277727CB0197F91E
:103490000895DC01CB01FC01F999FECF06C0F2BD15
:1034A000E1BDF89A319600B40D9241505040B8F702
:1034B0000895F999FECF92BD81BDF89A992780B5FC
:1034C0000895DC01A40FB51F4150504048F0CB01D6
:1034D000840F951F2E910E94721A41505040D0F7D0
:1034E0000895262FF999FECF92BD81BDF89A0197D4
:1034F00000B4021639F01FBA20BD0FB6F894FA9A3C
:10350000F99A0FBE08955058BB27AA270E949B1A0C
:103510000C940F1A0E94011A38F00E94081A20F029
:1035200039F49F3F19F426F40C94FE190EF4E0953B
:10353000E7FB0C94F819E92F0E94201A58F3BA17E8
:10354000620773078407950720F079F4A6F50C94B9
:10355000421A0EF4E0950B2EBA2FA02D0B01B901E3
:1035600090010C01CA01A0011124FF27591B99F0F9
:10357000593F50F4503E68F11A16F040A22F232F05
:10358000342F4427585FF3CF469537952795A79555
:10359000F0405395C9F77EF41F16BA0B620B730BFC
:1035A000840BBAF09150A1F0FF0FBB1F661F771F6D
:1035B000881FC2F70EC0BA0F621F731F841F48F422
:1035C000879577956795B795F7959E3F08F0B0CFAB
:1035D0009395880F08F09927EE0F97958795089592
:1035E0000E94F71A6894B1110C94431A08950E942E
:1035F000281A88F09F5798F0B92F9927B751B0F043
:10360000E1F0660F771F881F991F1AF0BA95C9F766
:1036100014C0B13091F00E94421AB1E008950C94A8
:10362000421A672F782F8827B85F39F0B93FCCF35B
:10363000869577956795B395D9F73EF490958095E3
:10364000709561957F4F8F4F9F4F08950E94671926
:1036500008F48FEF089597FB072E16F4009407D017
:1036600077FD09D00E944C1B07FC05D03EF49095D5
:1036700081959F4F0895709561957F4F0895EE0F46
:10368000FF1F0590F491E02D09946927962769277B
:103690007827872778270895AA1BBB1B51E107C00D
:1036A000AA1FBB1FA617B70710F0A61BB70B881FD2
:1036B000991F5A95A9F780959095BC01CD01089561
:1036C00081E090E0F8940C947D1BFB01DC0102C0CA
:1036D00001900D9241505040D8F70895FB01DC0154
:1036E0004150504048F001900D920020C9F701C0B0
:0E36F0001D9241505040E0F70895F894FFCF2E
:1036FE00FFFFFF00FCE1A8A891048A057E045C058B
:10370E00A3015205AC04A405FFEA02D9053700FF58
:10371E001F023205DA09DA095E00BC0077010507DF
:10372E00000204060707070707070707070707072B
:10373E00070707070707070707070707070707070B
:10374E00010300000000500FCC0E190FF70E0B0FE7
:10375E00970F426F696C657254656D7000302E352F
:10376E0000426F696C65722074656D7000426F69FE
:10377E006C657220686561740044657374696E616E
:10378E0074696F6E2074656D70004F4B00322E326F
:08379E002E302D6265746100FC
:1078000011E0A0E0B1E0E4EFFFE702C005900D92C7
:10781000A630B107D9F721E0A6E0B1E001C01D9282
:10782000AE34B207E1F7CDB7DEB76197DEBFCDBFAB
:10783000112484B78093270114BE88E180936000EF
:1078400089E280936000259A86E020E295B1922734
:1078500095B93FEF40E792E0315040409040E1F76A
:1078600000C00000815091F78091270181FD11C077
:107870008EE284B981E58CBD812C912C55245394E2
:1078800011E0CC24CA94DC2CAA24A39472E0B72E75
:10789000FDC082E08093C00088E18093C10086E053
:1078A0008093C20080E18093C400E12CF12CC12CB4
:1078B000D12CAA24AA94BA2C01E0A8950BD3813428
:1078C00071F408D3898B12D38989823811F482E04C
:1078D00053C0813811F485E64FC083E04DC0823437
:1078E00011F484E103C0853419F485E00BD363C03F
:1078F000853541F4EFD2E82EEDD2F12CF82AEE0CCA
:10790000FF1C58C0863521F484E0FCD280E034C0EE
:107910008436E1F4DFD2DED2882EDCD2C80CD11C52
:10792000912C981480F4D6D2182FD4D2F701E90DF7
:10793000F11D212F30E0382B090107BFE8951124F4
:1079400093949394EECFC7018CD134C0843761F403
:10795000C1D2C0D2182FBED2C9D2F70185917F0102
:10796000B2D21150D1F728C0853741F4BFD28EE191
:10797000AAD285E9A8D28FE0A6D21DC08135D1F464
:10798000BA82A982BC82AB82C60134E09695879503
:107990003A95E1F79E838D83C60175D198878F83D1
:1079A00048E050E06BE171E0CE01019602D39ED237
:1079B00011E002C09BD210E080E185D2112309F4CE
:1079C0007CCF56CF43E050E060E070E089E291E088
:1079D000E0D248E050E06BE171E0CE010196D9D2EF
:1079E00029982A9A63E083E29AD16CE485E297D1E0
:1079F00067E286E294D163E780E591D164E08DE3AC
:107A00008ED161E082E28BD161E081E288D161E0D8
:107A10008CE385D121E041E060E070E086E058D160
:107A2000873209F008C180912A01809328011092C1
:107A30004D018FEF80932A0180932B0103E22AE00E
:107A400047E06FEF66D260E084E269D160E08EEFDC
:107A500083D180912A018F3F09F4EDC080912901E3
:107A600081508E3F08F46CC003E222E043E06FEFE8
:107A700080E04FD263E084E06FD1882379F383E321
:107A800091E055D2682F80E090E0A2D2F999FECF24
:107A900099CF46E050E063E371E08DE091E064D27D
:107AA000892B79F5C3018150904F082F02950077FB
:107AB00040E050E0602F70E0DA01A45DBE4FFA01B3
:107AC000E60FF71F1E962C911E9730E0322F2227CB
:107AD0001D96AC912A2B090157BEE89511244E5FE3
:107AE0005F4F4031510541F7011106C044E0880F56
:107AF000991F4A95E1F7B5D0E114F10409F482C069
:107B0000370189859A8590930E0180930D018B85AD
:107B10009C859093100180930F01730121E0E21A7C
:107B2000F108F0921201E092110104EC22E342E02C
:107B30006FEF80E0EED168E083E00ED18111A9CF34
:107B40006FE584E2ECD010930D0110920E0103EC6E
:107B500022E14FE06FEF80E0DCD160E08FE0FCD00D
:107B60008D819E8124E0880F991F2A95E1F78BD0A3
:107B700098878F8388E0FE013196ADE0B1E00190F7
:107B80000D928A95E1F7B0921601A092150104ECCE
:107B900022E540E06FEF80E0BCD163E081E0DCD023
:107BA000882309F448C088E0E3E3F1E0DE01199698
:107BB00001900D928A95E1F748E050E0BE01675FC1
:107BC0007F4FCE010196D0D1892BA9F18091370149
:107BD000909138018038974070F588E0FE01399621
:107BE000DE01119601900D928A95E1F7D886CF8239
:107BF00048E050E06BE171E0CE010196DAD16D848E
:107C00007E847FCF8D859E8534E0880F991F3A95BD
:107C1000E1F739D02F8538898217930721F01E8626
:107C20001D86188A1F8648E050E06BE171E0CE01A6
:107C30000996BFD12BCF8D819E8124E0880F991F9B
:107C40002A95E1F720D02F8138858217930709F014
:107C50001DCF1CBCA89580912701282EF401099501
:107C600015CF23E0FC0127BFE89507B600FCFDCF48
:107C700025E0FC0127BFE89507B600FCFDCF81E1B8
:107C800087BFE8950895AC01413088E7580710F0A8
:107C900040E058E7E0E0F0E08FEF9FEF411551053D
:107CA000B1F02591822768E0DC01B695A7959C018B
:107CB000217033273195219531092170307AC9011E
:107CC0008A279B27615081F741505109E7CF0895DA
:107CD0002A988EBD0DB407FEFDCF8EB59FEF4150A3
:107CE000D0F0222369F09EBD0DB407FEFDCF8EB506
:107CF00061157105A1F3DB018C936F5F7F4FEFCFAF
:107D0000FB013196DB018C918EBD0DB407FEFDCFDA
:107D10008EB5BF01E4CF2A9A089520E0D9CFCF9342
:107D2000DF931F92CDB7DEB7698320E041E0BE014B
:107D30006F5F7F4FCDDF0F90DF91CF91089540E0CF
:107D400060E070E082EEE9DF40E060E070E081EE4C
:107D5000E4DF60E787E2E3CFEF92FF920F931F9398
:107D6000CF93DF93F82ED62FEE24EA94A895C091F6
:107D70000901C695C695C695C95F10912A01299833
:107D80006EE080E2CCDFDBDF1093000145E060E0D5
:107D900071E08AE2C2DF45E060E071E080E3BDDFD0
:107DA0004C2F66E071E080EAB8DF299A2A98EEBC91
:107DB0000DB407FEFDCFCEB52A9A8C2F8073B1F398
:107DC000299860E387E2ABDFC4FF05C040E060E0D4
:107DD00070E081EEA2DF6FE080E2A1DF6091290117
:107DE0008AE29DDFACDF299A0FEF1FEFA89521E013
:107DF00041E060E070E087E16BDF80FF02C04FEFA1
:107E000044C021E041E060E070E080E661DF813263
:107E100030F040E060E070E082EE7FDF80E021E063
:107E2000482F6CE271E081E653DF89DF90912E01EB
:107E3000809129019813E3CF409131018091300165
:107E40008770833011F5483001F580912D015091F4
:107E50002801851303C091E090934D019091330167
:107E6000692F70E020912B0130E021503109621719
:107E7000730724F420914D01222311F0851305C0CE
:107E80009F5F90932B0180932A0191E04F1190E026
:107E900085EA8A95F1F700000150110921F4892F34
:107EA000D11105C009C0992309F4A0CF04C0D15055
:107EB000992309F45BCF81E0DF91CF911F910F915E
:107EC000FF90EF9008959091C00095FFFCCF8093B4
:107ED000C60008958091C00087FFFCCF8091C0004C
:107EE00084FD01C0A8958091C6000895F3DF80321B
:107EF00039F088E18093600088E080936000FFCFD4
:107F000084E1E1CFCF93C82FE5DFC150E9F7CF91EE
:107F1000EDCF0F9390912901E6E0F1E091839083FA
:107F2000828366834583048323830F910895FC0134
:107F300088279927E89421912032E9F3293010F01D
:107F40002E30C8F32B3239F02D3231F4689403C04F
:107F500018D0820F911D219120532A30C8F31EF4AE
:107F6000909581959F4F0895FB01DC0104C08D9190
:107F70000190801921F441505040C8F7881B990B9B
:107F800008957AE0979F902D879F802D910D112461
:107F90000895DC01CB01FC01F999FECF06C0F2BDCA
:107FA000E1BDF89A319600B40D9241505040B8F7B7
:107FB0000895DC01A40FB51F4150504040F0CB01A3
:107FC000840F951F2E9105D041505040D8F7089549
:107FD000262FF999FECF92BD81BDF89A019700B482
:107FE000021639F01FBA20BD0FB6F894FA9AF99A22
:047FF0000FBE089523
:067FF40000FCE1A8A8005A
:040000030000780081
:00000001FF
