:100000000C9462000C94180D0C94F10C0C948A0062
:100010000C948A000C948A000C94A0050C948A001D
:100020000C948A000C948A000C948A000C948A0028
:100030000C948A000C948A000C948A000C948A0018
:100040000C94A70C0C948A000C94710B0C944B0B21
:100050000C948A000C948A000C948A000C948A00F8
:100060000C948A000C948A000000000023002600F3
:10007000290000000008000201000003040700003E
:1000800000000000000000000000250028002B00F8
:1000900000000000240027002A00040404040404D3
:1000A0000404020202020202030303030303010227
:1000B00004081020408001020408102001020408F6
:1000C0001020FF0D11241FBECFEFD8E0DEBFCDBF43
:1000D00011E0A0E0B1E0E6E7F0E202C005900D9289
:1000E000A238B107D9F722E0A2E8B1E001C01D9221
:1000F000AB3EB207E1F710E0C2E6D0E004C02197C2
:10010000FE010E945C0EC136D107C9F70E943F0D67
:100110000C9439100C94000080918D0184608093C0
:100120008D0180918E01807880938E01E091900105
:10013000F0919101309709F0099408950F931F935E
:10014000CF93DF93FC01828190918D0190FF04C0D9
:100150008F3F09F04FC005C08F3F19F0D091BB0110
:1001600001C0DFEF8091BA018083438142FD06C068
:10017000469546954695C7E0C40F01C0C0E28F0181
:1001800080E090E0892B21F080E090E00E94000068
:10019000299883E092E00197F1F76EE080E20E94F7
:1001A000E7088BE891E00197F1F76D2F8AE20E9452
:1001B000E7086D2F80E30E94E70881EE0E940509A1
:1001C000DF3F11F080EA01C080EB4C2FC13208F014
:1001D00040E220E0B8010E94B508299A00E010E052
:1001E0008FEF0E940509C82F807331F40150110967
:1001F000B9F702C0C0E02FC0299860E387E20E94EF
:10020000E708C4FF03C081EE0E9405090E94F808B8
:10021000C5FBCC27C0F991E0DF3F09F090E0C92B86
:100220008091BB01D81317C0C11110C080E090E0CD
:10023000892B21F085E690E00E94000080918E01DC
:1002400091E0980F9F70807F892B03C080918E0171
:10025000807F80938E018C2FDF91CF911F910F9122
:10026000089580918E01982F9077903759F0982FAC
:1002700092959F709F5F97709295907F8F78892B52
:1002800080938E0180918D018B7F8F7E80938D0175
:1002900080E090E0892B21F087E690E00E9400004A
:1002A00029986CE080E20C94E708CF93C82F8FEF79
:1002B0008C0F8E3FA8F4C093BA01C0931C0163E079
:1002C00082E20E94E70861E081E20E94E7080E9462
:1002D000F8086C2F80E090E00E94271081E00CC0AD
:1002E00080E090E0892B21F08EE690E00E940000F3
:1002F0008FEF8093BA0180E0CF91089580E090E085
:10030000892B21F088E090E00E9400008FEF80931D
:100310008F0180918D01886080938D0128E143E0F9
:100320006FEF80E00E94F70A61E00E94D2050C9412
:100330009E000F931F930E94650C00918501109100
:1003400086012091870130918801601B710B820B1F
:10035000930B1F910F9108958091BA018F3FA1F4E3
:1003600080E090E0892B21F086E090E00E94000080
:1003700023E043E06FEF80E00E94F70A61E871E05C
:100380000E94DE050C949E00089580E090E0892B89
:1003900021F084E090E00E94000080918D01897F2F
:1003A000816080938D018FEF8093BC018093BB01AE
:1003B00027E043E06FEF0E94F70A61E871E00E94D6
:1003C000DE050C949E00EDE8F1E08081877F8F7E52
:1003D00080831092890110928A0110928B011092F1
:1003E0008C0143E050E060E070E08AEB91E00C9417
:1003F000071020918D0122FD0C949E0080E008954D
:100400006F927F928F929F92AF92BF92DF92EF9204
:10041000FF920F931F93CF93DF9300D0CDB7DEB73A
:10042000E0918301F09184010280F381E02D309707
:1004300009F0099580918D0184FBEE24E0F884FF9A
:10044000B1C186E0F82E90E0692E90E0792E00E0B0
:1004500010E021E2D22E21E041E060E070E087E18F
:100460000E94B50880FD9EC1FA94FF2009F49AC14C
:100470006114710421F081E090E00E94000021E00D
:1004800041E060E070E080E60E94B508A82E80E2BE
:100490008A1520F482EE0E940509A12C21E04A2D44
:1004A0006DEB72E081E60E94B50860E487E20E948D
:1004B000E7089091C002292F2695269526952A3186
:1004C00008F029E192FD03C047E0420F01C040E27D
:1004D000E091C1025091C202B090BE023091BD02C3
:1004E0008091BF02A41639F06114710409F4B3CFEE
:1004F0008CE690E00AC0492F4370423049F0611405
:10050000710409F4A8CF8DE690E00E940000A3CF0B
:100510004E2F477060918E01606860938E016091EC
:10052000BA01861349C030E0B901F3E0660F771FC6
:10053000FA95E1F79770962B9093C002D901A354D6
:10054000BD4F17961C92E3FF1BC0EDEBF2E0ACE948
:10055000B2E09D2D01900D929A95E1F79091A00245
:10056000977F90619093A00280939D02B0929E022B
:100570008CE992E049835A830E94F9015A814981AA
:100580002091C10224FD13C0433089F49091C2022E
:1005900081EF890F833008F03FC05DCF913009F4BF
:1005A000DEC09A3009F457CF9C3109F454CF8DEB5B
:1005B00092E00E949B0A4FCF8F3F09F04CCF43300F
:1005C00031F580918D0182FF03C0573009F443CF8C
:1005D000583009F440CF543109F03DCF8091BB0130
:1005E000381339CF0E94650C7370882799270E94B1
:1005F0002B0CA090BB0125E143E06FEF8B2D0E94F7
:10060000F70A6A2D0E94D2050E949E0024CF809195
:10061000BB01381320CFCBCF543029F40E94060BF6
:100620000E94550118CF5830D1F4A0908D01A0FE42
:1006300012CF0E94060B8F3F09F40DCF91E0980F67
:100640009F3F09F408CF8091BC01981708F003CFB1
:10065000A1FC01CF9093BC01B092BB01FCCE5831FC
:1006600041F429E143E06FEF8B2D0E94F70A61E02E
:10067000C9CF593161F480918D0183FFECCE877F22
:1006800080938D010E94060B80938F01E4CE8091B0
:10069000BE02811183C09D3099F480E090E0892BE7
:1006A00021F08BE090E00E94000098E088E10FB616
:1006B000F894A895809360000FBE90936000FFCFE0
:1006C0009B3199F40E94060B91E0811101C090E0EA
:1006D0008091B90190FB80F98093B9016114710494
:1006E00009F4B9CE8AE090E010CF9630A9F4909149
:1006F000C402992329F081E09D3419F080E001C003
:100700008E2D8093B80141E050E063E071E088EB0A
:1007100091E00E9417109FCE933119F40E94430676
:100720009ACE923109F03ACF0E9499014B015C01B7
:1007300026E143E06FEF80E00E94F70AFC0184812C
:100740008F71806A848383818770806283838782CC
:100750009086A186B286CF010E94F9017CCE011558
:10076000110509F478CE229526952770253049F495
:100770006091C4027091C5028091C6029091C70237
:100780000AC0211105C084EC92E00E94350F03C01D
:1007900060E070E0CB010E9400005DCE9A3109F06C
:1007A00006CF59CE0F900F90DF91CF911F910F91EF
:1007B000FF90EF90DF90BF90AF909F908F907F90D1
:1007C0006F9008959C01809183019091840182171C
:1007D000930751F090918D019F7190938D0130930B
:1007E00084012093830105C080918D01805E8093F8
:1007F0008D01E0918301F09184010190F081E02D61
:10080000309709F009950E94650C609385017093FB
:100810008601809387019093880108950F931F9319
:100820000E94990120918E012077203729F000E164
:1008300017E220E030E004C000E61AEE20E030E0ED
:10084000061717072807390730F48DE191E01F914B
:100850000F910C94E2031F910F91089580918E01E6
:100860008F70863020F088E191E00C94E2030895C7
:1008700080918F018F3FA1F00E94650C60938901E8
:1008800070938A0180938B0190938C0180918F01EA
:100890009091BC0189138093BC0184E191E01BC05D
:1008A0000E949901613D774081059105B0F08091EA
:1008B0008D01803618F480E191E00DC0877F809330
:1008C0008D0180E090E0892B21F08AE690E00E9483
:1008D000000088E191E00C94E20308958091BA0150
:1008E0008F3F59F080E090E0892B21F087E090E085
:1008F0000E94000080E191E018C00E949901613DD2
:1009000077408105910598F080918D01803618F42B
:100910008CE091E00AC080E090E0892B21F089E62C
:1009200090E00E94000088E091E00C94E2030895BA
:100930000E949901613D77408105910520F48091E5
:100940008D0181FF08958091BB018F3F81F08091DF
:100950008D018E7F80938D0180E090E0892B21F0C6
:1009600085E090E00E9400008CE091E011C0809151
:100970008D01803618F488E191E00AC080E090E0B3
:10098000892B21F088E690E00E94000088E091E049
:100990000C94E2031F93CF93DF93219A229ADFB73F
:1009A000F8948091820181113FC024EA30E0F9017E
:1009B000849148EB50E0FA01649190E0880F991F10
:1009C00080579F4FFC01A591B4918C916823D1F47D
:1009D000ECE7F0E08491FA011491F901C491CC2381
:1009E00089F081110E94A30BEC2FF0E0EE0FFF1FA6
:1009F000EA57FF4FA591B4918FB7F8944C91412BD2
:100A00004C938FBF61E08AE00E94EF0B8CB5806150
:100A10008CBD8CB580648CBD61E08DE00E94EF0BD5
:100A200061E08BE00E94EF0B809182018F5F8093E9
:100A30008201DFBF29982A9A6EE080E20E94E708CF
:100A400065E070E080E090E00E942B0C63E083E2C0
:100A50000E94E7086FE584E20E94E7086CE485E203
:100A60000E94E70867E286E20E94E70863E780E504
:100A70000E94E70866E08DE30E94E70821E041E07C
:100A800060E070E086E00E94B508C82F21E041E0F8
:100A900060E070E085E00E94B5088C3409F040C049
:100AA000C732F1F562E082E20E94E70860E081E28D
:100AB0000E94E70863E08CE30E94E7088FEF8093D1
:100AC000030120E045E063E071E08BE20E94B5089D
:100AD00020E045E063E071E08AE20E94B50820E092
:100AE00045E063E071E080E30E94B50882EE0E9479
:100AF000050981EE0E94050960E787E20E94E70888
:100B000080918D01806180938D018091BA018F3F2A
:100B100081F00E94550181110CC088E091E00BC06A
:100B200080E090E0892BC9F387E690E00E94000006
:100B3000F4CF88E191E0DF91CF911F910C94E20313
:100B40001F920F920FB60F9211240F900FBE0F90AD
:100B50001F90189588E10E943F0B89E10E943F0B8E
:100B600062E082E00E94EF0B62E083E00E94EF0B04
:100B7000A1E2B1E088E29AE011969C938E93E9E6B7
:100B8000F0E0808183608083E89A8CEC9BE0139690
:100B90009C938E9312978081837F84608083E99AEF
:100BA0000C94CC0BFC0183818770886083838481E3
:100BB0008F71806284836783CF0108950F931F93A1
:100BC000CF93DF93EC016115710561F0FB0101909A
:100BD0000020E9F73197E61BF70BE931F10518F032
:100BE000E9E101C0E0E00E2F10E0C80123E0880F2A
:100BF000991F2A95E1F79B819770892B8B838C81B4
:100C00008F718C83EE2329F0A801CE0107960E94F4
:100C1000080FFE01E00FF11F1782CE01DF91CF9187
:100C20001F910F9108952BE043E06FEF80E00E9449
:100C3000F70A65E371E00E94DE050E94F9012CE0ED
:100C400043E06FEF80E00E94F70A62E471E00E94E7
:100C5000DE050E94F90147E451E06DE083E00E9467
:100C60002A0B49E551E06DE084E00E942A0B42E640
:100C700051E060E082E00E942A0B4DE651E067E11E
:100C800081E00C942A0BCF9380E090E0892B21F037
:100C90008CE090E00E9400002FE043E06FEF80E0E6
:100CA0000E94F70A61E871E00E94DE0580919F02D0
:100CB0008770806180939F028091A0028F71806C09
:100CC0008093A00281E08093A3021092A4028CE999
:100CD00092E00E94F9018FE00E94710C41E851E01E
:100CE00061E18FEF0E942A0BC091BB0126E043E037
:100CF0006FEF80E00E94F70A6C2F0E94D2050E94DD
:100D0000F90186E00E94710CCF910C941306CF93E9
:100D10008091B90181FD27C00E94430680E090E0E8
:100D2000892B21F089E090E00E9400008091B901B8
:100D300081608093B901C4E02AE143E06FEF80E075
:100D40000E94F70A62E00E94D2050E94F9018BE13D
:100D50000E94710C811102C0C15071F78091B901DC
:100D600082608093B901CF910895CF93DF93FC0106
:100D7000108211821282148215821682DC0117966B
:100D80008AE1ED0119928A95E9F782E08383DF9188
:100D9000CF9108950F931F93CF93DF93CDB7DEB715
:100DA000C254D1090FB6F894DEBF0FBECDBF8091FB
:100DB000B7019091A0019817C1F09091B70180916F
:100DC0005D028770886080935D0280915E028F7102
:100DD000806280935E02909361028AE592E00E94B5
:100DE000190B8091B7018093A0010E94650C0091BE
:100DF0009601109197012091980130919901DC01A1
:100E0000CB01801B910BA20BB30B89399A43A1052F
:100E1000B10508F45CC00E94650C60939601709364
:100E2000970180939801909399014091B30150915B
:100E3000B4016091B5017091B601809192019091D9
:100E40009301A0919401B0919501481759076A0741
:100E50007B07E9F18091B3019091B401A091B501B4
:100E6000B091B60188399A43A105B10500F54091CA
:100E7000B3015091B4016091B5017091B6018091B8
:100E80007F028F71806A80937F0280917E028770DB
:100E9000806280937E02409382025093830260932B
:100EA0008402709385028BE792E00E94190B809177
:100EB000B3019091B401A091B501B091B6018093B6
:100EC000920190939301A0939401B09395010E9495
:100ED000650C00919C0110919D0120919E01309123
:100EE0009F01DC01CB01801B910BA20BB30B813660
:100EF0009A4EA105B10508F42CC10E94650C6093BF
:100F00009C0170939D0180939E0190939F0180911D
:100F1000A601882309F47AC04091AF015091B00135
:100F20006091B1017091B2018091A7019091A801E7
:100F3000A091A901B091AA01481759076A077B0738
:100F400009F467C08091AF019091B001A091B10107
:100F5000B091B2018093A7019093A801A093A90139
:100F6000B093AA01CE0182960E94B50681E088A7BF
:100F700088E18FA34091AF015091B0016091B10120
:100F80007091B2018EA18F71806A8EA38DA187703E
:100F900080628DA349A75AA76BA77CA7CE01829632
:100FA0000E94190B80919A0190919B0165E070E07D
:100FB0000E94480E892B69F5CE0101960E94B50664
:100FC00083E08F8382E18E836091AF017091B001E5
:100FD0008091B1019091B2012C81277028622C83FD
:100FE0002D81206E2D830E94790F20E030E44CE1AA
:100FF00056E40E94620E688779878A879B8784E01F
:101000008C87CE0101960E94190B03C088E10E94D3
:101010003F0B8091A101882309F479C04091AB0175
:101020005091AC016091AD017091AE018091A2012F
:101030009091A301A091A401B091A501481759076F
:101040006A077B0709F466C08091AB019091AC01FF
:10105000A091AD01B091AE018093A2019093A30144
:10106000A093A401B093A501CE0182960E94B5067B
:1010700081E088A789E18FA34091AB015091AC0139
:101080006091AD017091AE018EA18F71806A8EA3C7
:101090008DA1877080628DA349A75AA76BA77CA7F3
:1010A000CE0182960E94190B80919A0190919B012A
:1010B00065E070E00E94480E892B61F5CE01019633
:1010C0000E94B50614E01F8382E18E836091AB011C
:1010D0007091AC018091AD019091AE012C8127708F
:1010E00028622C832D81206E2D830E94790F20E0B1
:1010F00030E44CE156E40E94620E688779878A8763
:101100009B871C87CE0101960E94190B03C089E1C1
:101110000E943F0B80919A0190919B0101969093C0
:101120009B0180939A010E94CC0B9091B701809112
:101130005D028770886080935D0280915E028F718E
:10114000806280935E02909361028AE592E00E9441
:10115000190BCE5BDF4F0FB6F894DEBF0FBECDBFCD
:10116000DF91CF911F910F91089591E59CBD91E082
:101170009DBD2A98E3E2F0E03197F1F78EBD0000C3
:101180000DB407FEFDCF8EB5FB019FEF4150C8F0B7
:10119000222361F09EBD00000DB407FEFDCF8EB589
:1011A0006115710599F380833196F0CFDF011196B7
:1011B00080818EBD00000DB407FEFDCF8EB5FD0110
:1011C000E5CF2A9AE3E2F0E03197F1F70895CF9363
:1011D000DF931F92CDB7DEB7698320E041E0BE0107
:1011E0006F5F7F4F0E94B5080F90DF91CF910895F8
:1011F0006FE080E20E94E70860911C016F3F19F0E8
:101200008AE20E94E708299A089520E040E060E021
:1012100070E00C94B508CF92DF92EF92FF920F939B
:101220001F93CF93DF936C017A018B01C0E0D0E074
:10123000CE15DF0589F0D8016D918D01D601ED91B4
:10124000FC910190F081E02DC6010995892B11F4E4
:101250007E0102C02196ECCFC701DF91CF911F9193
:101260000F91FF90EF90DF90CF900895FC01918D4A
:10127000828D981761F0828DDF01A80FB11D5D96F8
:101280008C91928D9F5F9F73928F90E008958FEF66
:101290009FEF0895FC01918D828D981731F0828D1A
:1012A000E80FF11D858D90E008958FEF9FEF089571
:1012B000FC01918D228D892F90E0805C9F4F821BD5
:1012C00091098F73992708958DEB91E00E94580939
:1012D00021E0892B09F420E0822F0895FC01848D00
:1012E000DF01A80FB11DA35ABF4F2C91848D90E050
:1012F00001968F739927848FA689B7892C93A0892B
:10130000B1898C9180648C93938D848D981306C0E1
:101310000288F389E02D80818F7D80830895EF928C
:10132000FF920F931F93CF93DF93EC0181E0888F9F
:101330009B8D8C8D981305C0E889F989808185FD86
:1013400024C0F62E0B8D10E00F5F1F4F0F73112777
:10135000E02E8C8DE8120CC00FB607FCFACFE8899E
:10136000F989808185FFF5CFCE010E946E09F1CF0A
:101370008B8DFE01E80FF11DE35AFF4FF0820B8FBA
:10138000EA89FB898081806207C0EE89FF896083DA
:10139000E889F98980818064808381E090E0DF9131
:1013A000CF911F910F91FF90EF900895CF93DF930E
:1013B000EC01888D8823C9F0EA89FB89808185FD4D
:1013C00005C0A889B9898C9186FD0FC00FB607FCAE
:1013D000F5CF808185FFF2CFA889B9898C9185FFEF
:1013E000EDCFCE010E946E09E7CFDF91CF91089536
:1013F00080E090E0892B29F00E94640981110C940F
:10140000000008953FB7F8948091E7029091E802B8
:10141000A091E902B091EA0226B5A89B05C02F3F32
:1014200019F00196A11DB11D3FBFBA2FA92F982F0A
:101430008827820F911DA11DB11DBC01CD0142E085
:10144000660F771F881F991F4A95D1F70895089551
:10145000CF92DF92EF92FF920E94020A6B017C0111
:101460008091DE029091DF02A091E002B091E10252
:10147000A7019601281B390B4A0B5B0BCA01B90166
:10148000603137E273078105910508F44DC00E9471
:10149000790F9B01AC0164EA73E986E59FE40E9441
:1014A000620E20E030E040E251E40E94620E0E94B1
:1014B000D40E6093B3017093B4018093B5019093FF
:1014C000B601C092DE02D092DF02E092E002F0921A
:1014D000E1028091B7018823A1F08091AB01909146
:1014E000AC01A091AD01B091AE010196A11DB11D5D
:1014F0008093AB019093AC01A093AD01B093AE018A
:1015000013C08091AF019091B001A091B101B09151
:10151000B2010196A11DB11D8093AF019093B0015E
:10152000A093B101B093B201FF90EF90DF90CF9004
:1015300008950E94030FFC012681213009F056C056
:101540008581883149F584818295869587708430BC
:1015500029F467817085818592850AC0811105C053
:10156000CF0107960E94350F03C060E070E0CB0109
:101570006093A7017093A8018093A9019093AA0199
:101580006093AF017093B0018093B1019093B20169
:1015900081E08093A6010895893141F58481829587
:1015A00086958770843029F467817085818592855E
:1015B0000AC0811105C0CF0107960E94350F03C0F4
:1015C00060E070E0CB016093A2017093A30180936F
:1015D000A4019093A5016093AB017093AC0180933B
:1015E000AD019093AE0181E08093A1010895ECE9F3
:1015F000F2E09091BA0191838283668325834770DC
:101600008481807E482B4483CF0108958091C1025C
:10161000829586958770813019F48091C40208956F
:10162000811105C084EC92E00E94170F089580E0BC
:101630000895FC018091BA0181839481907F91602B
:1016400094838091B90180FF03C0CF010C94F9010C
:1016500080E00895CF93DF93262F8F3F11F0EA01AA
:1016600002C0CCE7D1E040E0682F80E00E94F70A9A
:10167000BE010E94DE05DF91CF910C94F901282F65
:1016800042E061E080E00E94F70A61E871E00E94B8
:10169000DE050C94F9011F920F920FB60F921124E0
:1016A0002F933F934F935F936F937F938F939F936A
:1016B000AF93BF93EF93FF938DEB91E00E946E0980
:1016C000FF91EF91BF91AF919F918F917F916F911A
:1016D0005F914F913F912F910F900FBE0F901F90F0
:1016E00018951F920F920FB60F9211242F938F937C
:1016F0009F93EF93FF93E091CD01F091CE01808114
:10170000E091D301F091D40182FD12C090818091CB
:10171000D6018F5F8F732091D701821751F0E0912E
:10172000D601F0E0E354FE4F958F8093D60101C0BF
:101730008081FF91EF919F918F912F910F900FBE1C
:101740000F901F901895833081F028F4813099F024
:101750008230A1F008958730A9F08830B9F0843044
:10176000D1F4809180008F7D03C0809180008F77BD
:1017700080938000089584B58F7702C084B58F7DF3
:1017800084BD08958091B0008F7703C08091B00030
:101790008F7D8093B0000895CF93DF93E5E7F0E06D
:1017A0008491E1EBF0E0D491EDE9F0E0C491CC2339
:1017B00079F081110E94A30BEC2FF0E0EE0FFF1FD8
:1017C000E859FF4FA591B491EC91ED2381E009F424
:1017D00080E081708093B701DF91CF910895CF931E
:1017E000DF9390E0FC01E255FF4F2491FC01E656A7
:1017F000FF4F8491882361F190E0880F991FFC01CD
:10180000E057FF4FC591D491FC01EA57FF4FA591D6
:10181000B491611109C09FB7F89488812095822303
:101820008883EC912E230BC0623061F49FB7F8944B
:101830003881822F809583238883EC912E2B2C93E3
:101840009FBF06C08FB7F894E8812E2B28838FBFE7
:10185000DF91CF9108958F929F92AF92BF92CF92D6
:10186000DF92EF92FF926B017C010E94020A4B0112
:101870005C01C114D104E104F104F1F00E94020AF8
:10188000DC01CB0188199909AA09BB09883E93405C
:10189000A105B10570F321E0C21AD108E108F108F1
:1018A00088EE880E83E0981EA11CB11CC114D104DF
:1018B000E104F10419F7DDCFFF90EF90DF90CF90B6
:1018C000BF90AF909F908F9008952FB7F89460913C
:1018D000E3027091E4028091E5029091E6022FBF4D
:1018E0000895CF92DF92EF92FF92CF93DF93D82F9C
:1018F0000E94650C6B017C0181E0D11180E0809336
:10190000C202C0E00E94650CAB01BC014C195D092C
:101910006E097F09403D57406105710580F4C11192
:101920000EC0A8950E9400029091C102977093305A
:1019300049F7C1E08091C2028D13E3CFE3CF8C2F32
:10194000DF91CF91FF90EF90DF90CF9008951F929D
:101950000F920FB60F9211242F933F938F939F9363
:10196000AF93BF938091E3029091E402A091E502CE
:10197000B091E6023091E20223E0230F2D3720F4EC
:101980000196A11DB11D05C026E8230F0296A11DD9
:10199000B11D2093E2028093E3029093E402A093AE
:1019A000E502B093E6028091E7029091E802A091EF
:1019B000E902B091EA020196A11DB11D8093E702F0
:1019C0009093E802A093E902B093EA02BF91AF912D
:1019D0009F918F913F912F910F900FBE0F901F906D
:1019E00018951F920F920FB60F9211242F933F93C9
:1019F0004F935F936F937F938F939F93AF93BF9317
:101A0000EF93FF93E0912301F09124010995FF9159
:101A1000EF91BF91AF919F918F917F916F915F9166
:101A20004F913F912F910F900FBE0F901F901895DF
:101A30001F920F920FB60F9211242F933F934F9343
:101A40005F936F937F938F939F93AF93BF93EF9326
:101A5000FF93E0912101F09122010995FF91EF910F
:101A6000BF91AF919F918F917F916F915F914F91B6
:101A70003F912F910F900FBE0F901F901895789463
:101A800084B5826084BD84B5816084BD85B5826083
:101A900085BD85B5816085BD80916E008160809334
:101AA0006E0010928100809181008260809381009D
:101AB00080918100816080938100809180008160AD
:101AC000809380008091B10084608093B100809108
:101AD000B00081608093B00080917A008460809330
:101AE0007A0080917A00826080937A0080917A00F7
:101AF000816080937A0080917A00806880937A0078
:101B00001092C100A89580E090E0892B11F00E940E
:101B10000000E091CD01F091CE0182E08083E09160
:101B2000C901F091CA011082E091CB01F091CC0182
:101B300080E180831092D501E091D101F091D20132
:101B400086E08083E091CF01F091D00180818061B7
:101B50008083E091CF01F091D00180818860808303
:101B6000E091CF01F091D001808180688083E09185
:101B7000CF01F091D00180818F7D80838091B90168
:101B80008D7F8093B90180E090E0892B11F00E9455
:101B9000000041E050E063E071E088EB91E00E94DA
:101BA00007106FEF81E090E00E94271080918E0176
:101BB0008F7880938E0110928401109283018DE1C1
:101BC00091E00E94E20387E896E090939101809370
:101BD00090010E94650C0E94650C0E940002A8956D
:101BE00080918D0182FFF7CF0E94AA05A895A89544
:101BF0000E9400020E94CA060E94F809F8CFEDEB8D
:101C0000F1E01382128288EE93E0A0E0B0E08483DA
:101C10009583A683B78389E291E09183808385ECE5
:101C200090E09587848784EC90E09787868780ECA6
:101C300090E0918B808B81EC90E0938B828B82EC97
:101C400090E0958B848B86EC90E0978B868B118E41
:101C5000128E138E148E8DEB92E00E94B5068CE9E5
:101C600092E00E94B5068BE792E00E94B506EBE792
:101C7000F2E083E0868381E185838AE592E00E9439
:101C8000B506EAE5F2E082E0868380E18583089587
:101C9000AA1BBB1B51E107C0AA1FBB1FA617B70792
:101CA00010F0A61BB70B881F991F5A95A9F78095AE
:101CB0009095BC01CD010895EE0FFF1F0590F491A2
:101CC000E02D09940E94760E0C94CD0F0E94C60F51
:101CD00058F00E94BF0F40F029F45F3F29F00C94A8
:101CE000B60F51110C9401100C94BC0F0E94DE0F22
:101CF00068F39923B1F3552391F3951B550BBB273B
:101D0000AA2762177307840738F09F5F5F4F220F7F
:101D1000331F441FAA1FA9F335D00E2E3AF0E0E876
:101D200032D091505040E695001CCAF72BD0FE2FC0
:101D300029D0660F771F881FBB1F26173707480754
:101D4000AB07B0E809F0BB0B802DBF01FF2793580C
:101D50005F4F3AF09E3F510578F00C94B60F0C940B
:101D600001105F3FE4F3983ED4F38695779567952D
:101D7000B795F7959F5FC9F7880F911D9695879541
:101D800097F90895E1E0660F771F881FBB1F621760
:101D900073078407BA0720F0621B730B840BBA0B1E
:101DA000EE1F88F7E09508950E94E60F88F09F5790
:101DB00098F0B92F9927B751B0F0E1F0660F771F6F
:101DC000881F991F1AF0BA95C9F714C0B13091F065
:101DD0000E940010B1E008950C940010672F782F36
:101DE0008827B85F39F0B93FCCF38695779567952A
:101DF000B395D9F73EF490958095709561957F4F96
:101E00008F4F9F4F089581E090E0F8940C94391023
:101E1000FB01DC014150504048F001900D92002040
:101E2000C9F701C01D9241505040E0F70895FC01F0
:101E300088279927E89421912032E9F3293010F07E
:101E40002E30C8F32B3241F02D3239F4689404C09F
:101E50000E94710F820F911D219120532A30C0F3EF
:101E60001EF4909581959F4F08951F93FC0199272B
:101E70008827BC01E89411911032E9F3193010F071
:101E80001E30C8F31B3251F01D3249F4689406C06D
:101E90000E945C0F610F711D811D911D11911053E6
:101EA0001A30B0F33EF490958095709561957F4F10
:101EB0008F4F9F4F1F910895592F482F372F262F4F
:101EC000660F771F881F991F660F771F881F991F3E
:101ED000620F731F841F951F660F771F881F991F3E
:101EE00008957AE0979F902D879F802D910D112462
:101EF0000895E89409C097FB3EF4909580957095FD
:101F000061957F4F8F4F9F4F9923A9F0F92F96E945
:101F1000BB279395F695879577956795B795F111BA
:101F2000F8CFFAF4BB0F11F460FF1BC06F5F7F4F57
:101F30008F4F9F4F16C0882311F096E911C0772369
:101F400021F09EE8872F762F05C0662371F096E872
:101F5000862F70E060E02AF09A95660F771F881F41
:101F6000DAF7880F9695879597F9089597F99F67FF
:101F700080E870E060E008959FEF80EC0895002411
:101F80000A941616170618060906089500240A94DE
:101F900012161306140605060895092E0394000C64
:101FA00011F4882352F0BB0F40F4BF2B11F460FFF3
:101FB00004C06F5F7F4F8F4F9F4F089557FD90581C
:101FC000440F551F59F05F3F71F04795880F97FBFD
:101FD000991F61F09F3F79F08795089512161306B7
:101FE0001406551FF2CF4695F1DF08C016161706E6
:101FF0001806991FF1CF869571056105089408951B
:10200000E894BB2766277727CB0197F90895DC0171
:10201000CB01FC01F999FECF06C0F2BDE1BDF89AF3
:10202000319600B40D9241505040B8F70895DC014C
:10203000A40FB51F4150504048F0CB01840F951FAD
:102040002E910E94281041505040D0F70895262F1D
:10205000F999FECF92BD81BDF89A019700B402169E
:1020600039F01FBA20BD0FB6F894FA9AF99A0FBE4C
:062070000895F894FFCF73
:10207600FFFFFF00FCE1A8A831010E04AC016E04CD
:102086007E0138048C002E04C5019804FFE301CAC2
:1020960004270A270A000000008F090B0958093691
:1020A600094A09D609456E65726779204D657465DA
:1020B6007200312E323100506F7765722048492CFC
:1020C60020696E7374616E7400506F776572204C70
:1020D6004F0048444F207369676E616C0050756C01
:1020E600736520636F756E7465727300322E312EC0
:0220F6003100B7
:00000001FF
