:100000000C9462000C94A10C0C947A0C0C948A0051
:100010000C948A000C948A000C949D050C948A0020
:100020000C948A000C948A000C948A000C948A0028
:100030000C948A000C948A000C948A000C948A0018
:100040000C94300C0C948A000C94FA0A0C94D40A88
:100050000C948A000C948A000C948A000C948A00F8
:100060000C948A000C948A000000000023002600F3
:10007000290000000008000201000003040700003E
:1000800000000000000000000000250028002B00F8
:1000900000000000240027002A00040404040404D3
:1000A0000404020202020202030303030303010227
:1000B00004081020408001020408102001020408F6
:1000C0001020B50D11241FBECFEFD8E0DEBFCDBF8D
:1000D00011E0A0E0B1E0E0E6F0E202C005900D9290
:1000E000AC39B107D9F723E0ACE9B1E001C01D920A
:1000F000A234B207E1F710E0C2E6D0E004C02197D5
:10010000FE010E94340EC136D107C9F70E94C80C07
:100110000C942E100C940000E7EAF1E080818460DA
:10012000808381818078818308950F931F93CF937B
:10013000DF93FC0182819091A70190FF04C08F3F63
:1001400009F04FC005C08F3F19F0D091D00101C018
:10015000DFEF8091CF018083438142FD06C0469549
:1001600046954695C7E0C40F01C0C0E28F0180E00C
:1001700090E0892B21F080E090E00E940000299817
:1001800083E092E00197F1F76EE080E20E9452086E
:100190008BE891E00197F1F76D2F8AE20E945208F7
:1001A0006D2F80E30E94520881EE0E947008DF3FAD
:1001B00011F080EA01C080EB4C2FC13208F040E220
:1001C00020E0B8010E942008299A00E010E08FEF9B
:1001D0000E947008C82F807331F401501109B9F7DB
:1001E00002C0C0E02FC0299860E387E20E94520855
:1001F000C4FF03C081EE0E9470080E946308C5FB23
:10020000CC27C0F991E0DF3F09F090E0C92B809145
:10021000D001D81317C0C11110C080E090E0892B25
:1002200021F085E690E00E9400008091A80191E015
:10023000980F9F70807F892B03C08091A801807FD9
:100240008093A8018C2FDF91CF911F910F9108957A
:100250008091A801982F9077903759F0982F929518
:100260009F709F5F97709295907F8F78892B809376
:10027000A8018091A7018B7F8F7E8093A70180E0EA
:1002800090E0892B21F087E690E00E9400002998F9
:100290006CE080E20C945208CF93C82F8FEF8C0F44
:1002A0008E3FD0F4C093CF01C0931C0163E082E283
:1002B0000E94520861E081E20E9452080E94630895
:1002C00080E090E00E941810C81799F06C2F80E031
:1002D00090E00E9420100DC080E090E0892B21F07A
:1002E0008EE690E00E9400008FEF8093CF0180E0C7
:1002F00001C081E0CF91089580E090E0892B21F04A
:1003000088E090E00E9400008FEF8093A901809127
:10031000A70188608093A70128E143E06FEF80E0A8
:100320000E94ED0961E00E9477070C9495000F93FD
:100330001F930E94EE0B00919F011091A00120914C
:10034000A1013091A201601B710B820B930B1F91D5
:100350000F9108958091CF018F3FA1F480E090E04C
:10036000892B21F086E090E00E94000023E043E02A
:100370006FEF80E00E94ED096DE371E00E9483075A
:100380000C949500089580E090E0892B21F084E0A2
:1003900090E00E9400008091A701897F8160809396
:1003A000A7018FEF8093D1018093D00127E043E034
:1003B0006FEF0E94ED096DE371E00E9483070C94DA
:1003C0009500E7EAF1E08081877F8F7E808310923D
:1003D000A3011092A4011092A5011092A60143E07E
:1003E00050E060E070E08FEC91E00C9408102091F8
:1003F000A70122FD0C94950080E008956F927F92F2
:100400008F929F92AF92BF92DF92EF92FF920F93E3
:100410001F93CF93DF9300D0CDB7DEB7E0919D015E
:10042000F0919E010280F381E02D309709F009954B
:100430008091A70184FBEE24E0F884FFB0C186E040
:10044000F82E90E0692E90E0792E00E010E021E295
:10045000D22E21E041E060E070E087E10E942008B8
:1004600080FD9DC1FA94FF2009F499C161147104C3
:1004700021F081E090E00E94000021E041E060E096
:1004800070E080E60E942008A82E80E28A1520F401
:1004900082EE0E947008A12C21E04A2D64E173E0F5
:1004A00081E60E94200860E487E20E945208909151
:1004B0001703292F2695269526952A3108F029E13C
:1004C00092FD03C047E0420F01C040E2E0911803F3
:1004D00050911903B09015033091140380911603C5
:1004E000A41639F06114710409F4B3CF8CE690E0DE
:1004F0000AC0492F4370423049F06114710409F475
:10050000A8CF8DE690E00E940000A3CF4E2F477049
:100510006091A80160686093A8016091CF01861383
:1005200047C030E0B901F3E0660F771FFA95E1F7B5
:100530009770962B90931703D901AC5EBC4F17961A
:100540001C92E3FF1BC0E4E1F3E0A3EFB2E09D2DBA
:1005500001900D929A95E1F79091F702977F906143
:100560009093F7028093F402B092F50283EF92E049
:1005700049835A830E94F7015A81498120911803C7
:1005800024FD11C0433079F4909119039F3009F094
:100590003FC05FCF913009F4DFC09A3009F459CFE2
:1005A0009C3109F456CF84E193E00E94620A51CF56
:1005B0008F3F09F04ECF433031F58091A70182FF84
:1005C00003C0573009F445CF583009F442CF5431B5
:1005D00009F03FCF8091D00138133BCF0E94EE0B42
:1005E0007370882799270E94B40BA090D00125E151
:1005F00043E06FEF8B2D0E94ED096A2D0E94770773
:100600000E94950026CF8091D001381322CFCBCF06
:10061000543029F40E94FC090E944C011ACF583032
:10062000D1F4A090A701A0FE14CF0E94FC098F3F37
:1006300009F40FCF91E0980F9F3F09F40ACF809102
:10064000D101981708F005CFA1FC03CF9093D101F9
:10065000B092D001FECE583141F429E143E06FEF72
:100660008B2D0E94ED0961E0C9CF593161F4809171
:10067000A70183FFEECE877F8093A7010E94FC092C
:100680008093A901E6CE80911503811184C09D302D
:1006900099F480E090E0892B21F08BE090E00E94BB
:1006A000000098E088E10FB6F894A8958093600068
:1006B0000FBE90936000FFCF9B3179F40E94FC093C
:1006C00091E0811101C090E09093CE01611471041A
:1006D00009F4BFCE8AE090E016CF9630D1F4809135
:1006E0001B03882329F061E08D3419F060E001C01C
:1006F0006E2D6093AA0183E091E069830E94181037
:100700006981681709F4A5CE83E091E00E9420106A
:10071000A0CE933119F40E94DC079BCE923109F0F0
:1007200039CF0E9497014B015C0126E143E06FEF56
:1007300080E00E94ED09FC0184818F71806A8483CE
:10074000838187708062838387829086A186B28648
:10075000CF010E94F7017DCE0115110509F479CE74
:10076000229526952770253049F460911B037091DE
:100770001C0380911D0390911E030AC0211105C026
:100780008BE193E00E940D0F03C060E070E0CB01AD
:100790000E9400005ECE9A3109F005CF5ACE0F902C
:1007A0000F90DF91CF911F910F91FF90EF90DF900D
:1007B000BF90AF909F908F907F906F9008959C0115
:1007C00080919D0190919E018217930751F0909125
:1007D000A7019F719093A70130939E0120939D01E3
:1007E00005C08091A701805E8093A701E0919D01E3
:1007F000F0919E010190F081E02D309709F009956C
:100800000E94EE0B60939F017093A0018093A10161
:100810009093A20108950F931F930E949701209136
:10082000A8012077203729F000E117E220E030E02E
:1008300004C000E61AEE20E030E00617170728078C
:10084000390730F48DE191E01F910F910C94DF0393
:100850001F910F9108958091A8018F70863020F02C
:1008600088E191E00C94DF0308958091A9018F3F06
:10087000A1F00E94EE0B6093A3017093A4018093FA
:10088000A5019093A6018091A9019091D1018913AE
:100890008093D10184E191E01BC00E949701613DEA
:1008A000774081059105B0F08091A701803618F45A
:1008B00080E191E00DC0877F8093A70180E090E008
:1008C000892B21F08AE690E00E94000088E191E007
:1008D0000C94DF0308958091CF018F3F59F080E0A1
:1008E00090E0892B21F087E090E00E94000080E1F9
:1008F00091E018C00E949701613D77408105910504
:1009000098F08091A701803618F48CE091E00AC03D
:1009100080E090E0892B21F089E690E00E940000C1
:1009200088E091E00C94DF0308950E949701613DF7
:1009300077408105910520F48091A70181FF0895FA
:100940008091D0018F3F81F08091A7018E7F8093AD
:10095000A70180E090E0892B21F085E090E00E94E3
:1009600000008CE091E011C08091A701803618F45E
:1009700088E191E00AC080E090E0892B21F088E6D0
:1009800090E00E94000088E091E00C94DF031F9348
:10099000CF93DF93219A229ADFB7F89480919C013C
:1009A00081113FC024EA30E0F901849148EB50E026
:1009B000FA01649190E0880F991F80579F4FFC01C6
:1009C000A591B4918C916823D1F4ECE7F0E0849187
:1009D000FA011491F901C491CC2389F081110E948C
:1009E0002C0BEC2FF0E0EE0FFF1FEA57FF4FA59105
:1009F000B4918FB7F8944C91412B4C938FBF61E029
:100A00008AE00E94780B8CB580618CBD8CB58064C7
:100A10008CBD61E08DE00E94780B61E08BE00E946C
:100A2000780B80919C018F5F80939C01DFBF299898
:100A30002A9A6EE080E20E94520865E070E080E051
:100A400090E00E94B40B63E083E20E9452086FE5DD
:100A500084E20E9452086CE485E20E94520867E238
:100A600086E20E94520863E780E50E94520866E031
:100A70008DE30E94520821E041E060E070E086E0F2
:100A80000E942008C82F21E041E060E070E085E08E
:100A90000E9420088C3409F040C0C732F1F562E0B2
:100AA00082E20E94520860E081E20E94520863E004
:100AB0008CE30E9452088FEF8093030120E045E011
:100AC00063E071E08BE20E94200820E045E063E0F3
:100AD00071E08AE20E94200820E045E063E071E0D6
:100AE00080E30E94200882EE0E94700881EE0E943E
:100AF000700860E787E20E9452088091A701806138
:100B00008093A7018091CF018F3F81F00E944C011B
:100B100081110CC088E091E00BC080E090E0892B4F
:100B2000C9F387E690E00E940000F4CF88E191E0ED
:100B3000DF91CF911F910C94DF031F920F920FB69C
:100B40000F9211240F900FBE0F901F9018958F9247
:100B50009F92AF92BF92CF92DF92EF92FF920E944C
:100B6000EE0B6B017C018091BC019091BD01A091C5
:100B7000BE01B091BF01B701A601481B590B6A0B1A
:100B80007B0B81E041325E446105710508F480E031
:100B90009091C001992309F4F2C0882309F4FBC0A5
:100BA0004091C9015091CA016091CB017091CC0173
:100BB0008091B8019091B901A091BA01B091BB01A7
:100BC000481759076A077B0709F450C08091C9018B
:100BD0009091CA01A091CB01B091CC018031974294
:100BE000A105B10500F54091C9015091CA0160917C
:100BF000CB017091CC018091D6028F71806A809375
:100C0000D6028091D502877080628093D50240938E
:100C1000D9025093DA026093DB027093DC0282ED1A
:100C200092E00E94A20A85E391E00E940F0A60917F
:100C3000C9017091CA018091CB019091CC014AE029
:100C40000E94210A8BE391E00E940F0A8091C90162
:100C50009091CA01A091CB01B091CC018093B801D1
:100C60009093B901A093BA01B093BB014091C50123
:100C70005091C6016091C7017091C8018091C10176
:100C80009091C201A091C301B091C40148175907C6
:100C90006A077B0709F477C04091C5015091C601EE
:100CA0006091C7017091C801809194028F71806A30
:100CB0008093940280919302877080628093930264
:100CC00040939702509398026093990270939A020E
:100CD00080E992E00E94A20A6091C5017091C6016C
:100CE0008091C7019091C8010E94560F20E030E426
:100CF0004CE156E40E943A0E4B015C018091C50123
:100D00009091C601A091C701B091C8018093C10123
:100D10009093C201A093C301B093C4012091B40188
:100D20003091B5014091B6015091B701C501B401B0
:100D30000E94510F882339F18091B4028770886234
:100D40008093B4028091B502806E8093B502809248
:100D5000B8029092B902A092BA02B092BB0284E0AB
:100D60008093BC0281EB92E00E94A20A8092B401BF
:100D70009092B501A092B601B092B70104C0882349
:100D800051F00E94C80AC092BC01D092BD01E0920D
:100D9000BE01F092BF010E94EE0BC090AB01D0905B
:100DA000AC01E090AD01F090AE01DC01CB018C19FB
:100DB0009D09AE09BF09893E9340A105B10540F1E7
:100DC0000E94EE0B6093AB017093AC018093AD0178
:100DD0009093AE018091CD019091AF019817C1F031
:100DE0009091CD0180917202877088608093720229
:100DF000809173028F718062809373029093760268
:100E00008FE692E00E94A20A8091CD018093AF010B
:100E10000E94EE0BC090B001D090B101E090B20101
:100E2000F090B301DC01CB018C199D09AE09BF091B
:100E300081369A4EA105B10520F10E94EE0B609318
:100E4000B0017093B1018093B2019093B3010E94FD
:100E5000550B9091CD0180917202877088608093CC
:100E60007202809173028F718062809373029093FB
:100E700076028FE692E00E94A20A8091CD018093D3
:100E8000AF01FF90EF90DF90CF90BF90AF909F9019
:100E90008F9008950E94C80A62E082E00E94780B59
:100EA00062E083E00E94780BA1E2B1E083E999E07F
:100EB00011969C938E93E9E6F0E0808183608083B5
:100EC000E89A85E59BE013969C938E931297808118
:100ED000837F84608083E99A0E94EE0B6093BC015B
:100EE0007093BD018093BE019093BF010895FC01F2
:100EF000838187708860838384818F71806284831B
:100F00006783CF0108950F931F93CF93DF93EC0175
:100F10006115710561F0FB0101900020E9F731973F
:100F2000E61BF70BE931F10518F0E9E101C0E0E05B
:100F30000E2F10E0C80123E0880F991F2A95E1F7D2
:100F40009B819770892B8B838C818F718C83EE238F
:100F500029F0A801CE0107960E94E00EFE01E00FE5
:100F6000F11F1782CE01DF91CF911F910F9108954C
:100F70002BE043E06FEF80E00E94ED096EE371E04B
:100F80000E9483070E94F7012CE043E06FEF80E0AE
:100F90000E94ED096BE471E00E9483070E94F70153
:100FA0004FE451E06DE081E00E94B30A42E651E077
:100FB00060E082E00C94B30ACF9380E090E0892B4C
:100FC00021F08CE090E00E9400002FE043E06FEF02
:100FD00080E00E94ED096DE371E00E94830780913B
:100FE000F602877080618093F6028091F7028F711C
:100FF000806C8093F70281E08093FA021092FB02EA
:1010000083EF92E00E94F7018FE00E94FA0B4DE31C
:1010100051E061E18FEF0E94B30AC091D00126E058
:1010200043E06FEF80E00E94ED096C2F0E9477078C
:101030000E94F70186E00E94FA0BCF910C94B8074A
:1010400091E59CBD91E09DBD2A98E3E2F0E03197E7
:10105000F1F78EBD00000DB407FEFDCF8EB5FB018C
:101060009FEF4150C8F0222361F09EBD00000DB4F7
:1010700007FEFDCF8EB56115710599F3808331961A
:10108000F0CFDF01119680818EBD00000DB407FE08
:10109000FDCF8EB5FD01E5CF2A9AE3E2F0E031976E
:1010A000F1F70895CF93DF931F92CDB7DEB7698331
:1010B00020E041E0BE016F5F7F4F0E9420080F904B
:1010C000DF91CF9108956FE080E20E945208609115
:1010D0001C016F3F19F08AE20E945208299A089574
:1010E00020E040E060E070E00C942008CF92DF92B6
:1010F000EF92FF920F931F93CF93DF936C017A01CE
:101100008B01C0E0D0E0CE15DF0589F0D8016D91EC
:101110008D01D601ED91FC910190F081E02DC60189
:101120000995892B11F47E0102C02196ECCFC701ED
:10113000DF91CF911F910F91FF90EF90DF90CF90B3
:101140000895FC01918D828D981761F0828DDF01E9
:10115000A80FB11D5D968C91928D9F5F9F73928FAA
:1011600090E008958FEF9FEF0895FC01918D828D9F
:10117000981731F0828DE80FF11D858D90E008956C
:101180008FEF9FEF0895FC01918D228D892F90E0C4
:10119000805C9F4F821B91098F739927089582ED80
:1011A00091E00E94C30821E0892B09F420E0822FFE
:1011B0000895FC01848DDF01A80FB11DA35ABF4F14
:1011C0002C91848D90E001968F739927848FA68946
:1011D000B7892C93A089B1898C9180648C93938D6D
:1011E000848D981306C00288F389E02D80818F7D5D
:1011F00080830895EF92FF920F931F93CF93DF9315
:10120000EC0181E0888F9B8D8C8D981305C0E88957
:10121000F989808185FD24C0F62E0B8D10E00F5FCB
:101220001F4F0F731127E02E8C8DE8120CC00FB6E4
:1012300007FCFACFE889F989808185FFF5CFCE01D7
:101240000E94D908F1CF8B8DFE01E80FF11DE35A02
:10125000FF4FF0820B8FEA89FB898081806207C093
:10126000EE89FF896083E889F989808180648083C1
:1012700081E090E0DF91CF911F910F91FF90EF906F
:101280000895CF93DF93EC01888D8823C9F0EA8914
:10129000FB89808185FD05C0A889B9898C9186FD6F
:1012A0000FC00FB607FCF5CF808185FFF2CFA8896C
:1012B000B9898C9185FFEDCFCE010E94D908E7CF87
:1012C000DF91CF91089580E090E0892B29F00E9472
:1012D000CF0881110C94000008953FB7F8948091D5
:1012E0003E0390913F03A0914003B091410326B586
:1012F000A89B05C02F3F19F00196A11DB11D3FBF4E
:10130000BA2FA92F982F8827820F911DA11DB11DDB
:10131000BC01CD0142E0660F771F881F991F4A95D7
:10132000D1F708950895CF92DF92EF92FF920E9435
:101330006D096B017C018091350390913603A0917A
:101340003703B0913803A7019601281B390B4A0BCC
:101350005B0BCA01B901603137E273078105910562
:10136000A8F10E94560F9B01AC0164EA73E986E57F
:101370009FE40E943A0E20E030E040E251E40E94F7
:101380003A0E0E94AC0E6093C9017093CA0180931B
:10139000CB019093CC01C0923503D0923603E092FA
:1013A0003703F09238038091C5019091C601A09156
:1013B000C701B091C8010196A11DB11D8093C5015F
:1013C0009093C601A093C701B093C801FF90EF901E
:1013D000DF90CF9008950E94DB0EE3EFF2E0909152
:1013E000CF01918382836683258347708481807EC9
:1013F000482B4483CF0108958091180382958695E8
:101400008770813019F480911B030895811105C004
:101410008BE193E00E94EF0E089580E0089500971D
:1014200069F0FC0101900020E9F73197AF01481BFA
:10143000590BBC0182ED91E00C94760880E090E0BD
:1014400008958F929F92AF92BF920F931F93CF9365
:10145000DF93CDB7DEB7A1970FB6F894DEBF0FBE0E
:10146000CDBF19A2423008F44AE08E010F5D1F4F34
:10147000842E912CA12CB12CA50194010E94120E56
:10148000E62FB901CA0101501109EA3014F4E05DF8
:1014900001C0E95CD801EC93232B242B252B61F7A9
:1014A000C8010E940F0AA1960FB6F894DEBF0FBEC6
:1014B000CDBFDF91CF911F910F91BF90AF909F90C3
:1014C0008F900895FC0125812831D9F5848182957A
:1014D00086958770843029F467817085818592852F
:1014E0000AC0811105C0CF0107960E940D0F03C0ED
:1014F00060E070E0CB016093C1017093C201809302
:10150000C3019093C4016093C5017093C601809399
:10151000C7019093C8018DE691E00E940F0A609187
:10152000C5017091C6018091C7019091C8014AE040
:101530000E94210A8BE391E00E940F0A81E08093D0
:10154000C0010895FC018091CF0181839481907F37
:10155000916094838091CE01882319F0CF010C947F
:10156000F70180E00895CF93DF93262F8F3F11F08E
:10157000EA0102C0C0E9D1E040E0682F80E00E94AB
:10158000ED09BE010E948307DF91CF910C94F70112
:1015900028E142E061E080E00E94ED096DE371E046
:1015A0000E9483070C94F7011F920F920FB60F92BF
:1015B00011242F933F934F935F936F937F938F9358
:1015C0009F93AF93BF93EF93FF9382ED91E00E94BF
:1015D000D908FF91EF91BF91AF919F918F917F912A
:1015E0006F915F914F913F912F910F900FBE0F9090
:1015F0001F9018951F920F920FB60F9211242F93E0
:101600008F939F93EF93FF93E091E201F091E301B9
:101610008081E091E801F091E90182FD12C09081A2
:101620008091EB018F5F8F732091EC01821751F055
:10163000E091EB01F0E0EE52FE4F958F8093EB01CD
:1016400001C08081FF91EF919F918F912F910F9019
:101650000FBE0F901F901895833081F028F48130D1
:1016600099F08230A1F008958730A9F08830B9F060
:101670008430D1F4809180008F7D03C08091800000
:101680008F7780938000089584B58F7702C084B5EA
:101690008F7D84BD08958091B0008F7703C08091C5
:1016A000B0008F7D8093B0000895CF93DF93E5E77E
:1016B000F0E08491E1EBF0E0D491EDE9F0E0C49149
:1016C000CC2379F081110E942C0BEC2FF0E0EE0F6F
:1016D000FF1FE859FF4FA591B491EC91ED2381E0F4
:1016E00009F480E081708093CD01DF91CF9108955E
:1016F000CF93DF9390E0FC01E255FF4F2491FC0172
:10170000E656FF4F8491882361F190E0880F991F7E
:10171000FC01E057FF4FC591D491FC01EA57FF4F00
:10172000A591B491611109C09FB7F8948881209563
:1017300082238883EC912E230BC0623061F49FB723
:10174000F8943881822F809583238883EC912E2B07
:101750002C939FBF06C08FB7F894E8812E2B288367
:101760008FBFDF91CF9108958F929F92AF92BF92DA
:10177000CF92DF92EF92FF926B017C010E946D0984
:101780004B015C01C114D104E104F104F1F00E94A9
:101790006D09DC01CB0188199909AA09BB09883EAA
:1017A0009340A105B10570F321E0C21AD108E10808
:1017B000F10888EE880E83E0981EA11CB11CC114AC
:1017C000D104E104F10419F7DDCFFF90EF90DF9031
:1017D000CF90BF90AF909F908F9008952FB7F894BF
:1017E00060913A0370913B0380913C0390913D03DB
:1017F0002FBF0895CF92DF92EF92FF92CF93DF93A6
:10180000D82F0E94EE0B6B017C0181E0D11180E0AA
:1018100080931903C0E00E94EE0BAB01BC014C1990
:101820005D096E097F09403D57406105710580F4EF
:10183000C1110EC0A8950E94FE01909118039770E7
:10184000933049F7C1E0809119038D13E3CFE3CFC3
:101850008C2FDF91CF91FF90EF90DF90CF90089584
:101860001F920F920FB60F9211242F933F938F93D5
:101870009F93AF93BF9380913A0390913B03A091C4
:101880003C03B0913D033091390323E0230F2D3702
:1018900020F40196A11DB11D05C026E8230F029674
:1018A000A11DB11D2093390380933A0390933B030C
:1018B000A0933C03B0933D0380913E0390913F037E
:1018C000A0914003B09141030196A11DB11D8093E9
:1018D0003E0390933F03A0934003B0934103BF9115
:1018E000AF919F918F913F912F910F900FBE0F90CD
:1018F0001F9018951F920F920FB60F9211242F93DD
:101900003F934F935F936F937F938F939F93AF9387
:10191000BF93EF93FF93E0912301F0912401099588
:10192000FF91EF91BF91AF919F918F917F916F91B7
:101930005F914F913F912F910F900FBE0F901F908D
:1019400018951F920F920FB60F9211242F933F9369
:101950004F935F936F937F938F939F93AF93BF93B7
:10196000EF93FF93E0912101F09122010995FF91FE
:10197000EF91BF91AF919F918F917F916F915F9107
:101980004F913F912F910F900FBE0F901F90189580
:10199000789484B5826084BD84B5816084BD85B54A
:1019A000826085BD85B5816085BD80916E00816056
:1019B00080936E00109281008091810082608093FC
:1019C00081008091810081608093810080918000FE
:1019D0008160809380008091B10084608093B10029
:1019E0008091B00081608093B00080917A00846023
:1019F00080937A0080917A00826080937A0080914F
:101A00007A00816080937A0080917A008068809368
:101A10007A001092C100A89580E090E0892B11F027
:101A20000E940000E091E201F091E30182E08083F6
:101A3000E091DE01F091DF011082E091E001F09190
:101A4000E10180E180831092EA01E091E601F091EA
:101A5000E70186E08083E091E401F091E501808177
:101A600080618083E091E401F091E50180818860EC
:101A70008083E091E401F091E501808180688083BA
:101A8000E091E401F091E50180818F7D808380E029
:101A900090E0892B11F00E94000041E050E063E0EB
:101AA00071E08AEA91E00E94081081E090E00E94D3
:101AB00018108F3F29F06FEF81E090E00E94201016
:101AC0008091A8018F788093A80110929E011092B6
:101AD0009D018DE191E00E94DF038091A70182FDCD
:101AE00004C0A8950E94FE01F8CF0E94DC0780E0A8
:101AF00090E0892B21F089E090E00E94000081E0D5
:101B00008093CE01C4E02AE143E06FEF80E00E94C1
:101B1000ED0962E00E9477070E94F7018BE10E94C5
:101B2000FA0B811102C0C15071F70E944A07A895B3
:101B3000A8950E94FE010E94A7050E946309F8CFA4
:101B4000CF93DF93FC0110821182128214821582DE
:101B50001682DC0117968AE1ED0119928A95E9F760
:101B600082E08383DF91CF910895CF93E2EDF1E09E
:101B70001382128288EE93E0A0E0B0E08483958324
:101B8000A683B78389E291E09183808385EC90E01E
:101B90009587848784EC90E09787868780EC90E037
:101BA000918B808B81EC90E0938B828B82EC90E028
:101BB000958B848B86EC90E0978B868B118E128EA2
:101BC000138E148E84E193E00E94A00D83EF92E0C7
:101BD0000E94A00D82ED92E00E94A00DE2EDF2E0E5
:101BE000C1E0C68381E1858381EB92E00E94A00D74
:101BF000E1EBF2E0C68382E1858380E992E00E9416
:101C0000A00DE0E9F2E0C68388E185838FE692E0EB
:101C10000E94A00DEFE6F2E082E0868380E18583FA
:101C2000CF910895A1E21A2EAA1BBB1BFD010DC086
:101C3000AA1FBB1FEE1FFF1FA217B307E407F5077C
:101C400020F0A21BB30BE40BF50B661F771F881F58
:101C5000991F1A9469F760957095809590959B01EE
:101C6000AC01BD01CF010895EE0FFF1F0590F49167
:101C7000E02D09940E944E0E0C94CE0F0E94C70FC7
:101C800058F00E94C00F40F029F45F3F29F00C94F7
:101C9000B70F51110C9402100C94BD0F0E94DF0F6E
:101CA00068F39923B1F3552391F3951B550BBB278B
:101CB000AA2762177307840738F09F5F5F4F220FD0
:101CC000331F441FAA1FA9F335D00E2E3AF0E0E8C7
:101CD00032D091505040E695001CCAF72BD0FE2F11
:101CE00029D0660F771F881FBB1F261737074807A5
:101CF000AB07B0E809F0BB0B802DBF01FF2793585D
:101D00005F4F3AF09E3F510578F00C94B70F0C945A
:101D100002105F3FE4F3983ED4F38695779567957C
:101D2000B795F7959F5FC9F7880F911D9695879591
:101D300097F90895E1E0660F771F881FBB1F6217B0
:101D400073078407BA0720F0621B730B840BBA0B6E
:101D5000EE1F88F7E09508950E94E70F88F09F57DF
:101D600098F0B92F9927B751B0F0E1F0660F771FBF
:101D7000881F991F1AF0BA95C9F714C0B13091F0B5
:101D80000E940110B1E008950C940110672F782F84
:101D90008827B85F39F0B93FCCF38695779567957A
:101DA000B395D9F73EF490958095709561957F4FE6
:101DB0008F4F9F4F089581E090E0F8940C942E107F
:101DC000FB01DC014150504048F001900D92002091
:101DD000C9F701C01D9241505040E0F70895FC0141
:101DE00088279927E89421912032E9F3293010F0CF
:101DF0002E30C8F32B3241F02D3239F4689404C0F0
:101E00000E94490F820F911D219120532A30C0F367
:101E10001EF4909581959F4F08951F93FC0199277B
:101E20008827BC01E89411911032E9F3193010F0C1
:101E30001E30C8F31B3251F01D3249F4689406C0BD
:101E40000E94340F610F711D811D911D119110535E
:101E50001A30B0F33EF490958095709561957F4F60
:101E60008F4F9F4F1F910895592F482F372F262F9F
:101E7000660F771F881F991F660F771F881F991F8E
:101E8000620F731F841F951F660F771F881F991F8E
:101E900008957AE0979F902D879F802D910D1124B2
:101EA00008950E94930F08F481E00895E89409C012
:101EB00097FB3EF490958095709561957F4F8F4F7D
:101EC0009F4F9923A9F0F92F96E9BB279395F69593
:101ED000879577956795B795F111F8CFFAF4BB0F11
:101EE00011F460FF1BC06F5F7F4F8F4F9F4F16C075
:101EF000882311F096E911C0772321F09EE8872FFF
:101F0000762F05C0662371F096E8862F70E060E0BA
:101F10002AF09A95660F771F881FDAF7880F969533
:101F2000879597F90895990F0008550FAA0BE0E8D7
:101F3000FEEF16161706E807F907C0F0121613068B
:101F4000E407F50798F0621B730B840B950B39F4CB
:101F50000A2661F0232B242B252B21F408950A2631
:101F600009F4A140A6958FEF811D811D089597F971
:101F70009F6780E870E060E008959FEF80EC08952F
:101F800000240A9416161706180609060895002458
:101F90000A9412161306140605060895092E0394D2
:101FA000000C11F4882352F0BB0F40F4BF2B11F446
:101FB00060FF04C06F5F7F4F8F4F9F4F089557FDA5
:101FC0009058440F551F59F05F3F71F04795880FA7
:101FD00097FB991F61F09F3F79F08795089512163E
:101FE00013061406551FF2CF4695F1DF08C01616EA
:101FF00017061806991FF1CF86957105610508949B
:102000000895E894BB2766277727CB0197F90895B1
:10201000DC01CB01FC01F999FECF06C0F2BDE1BDA8
:10202000F89A319600B40D9241505040B8F7089597
:10203000F999FECF92BD81BDF89A992780B5089590
:10204000262FF999FECF1FBA92BD81BD20BD0FB6D4
:10205000F894FA9AF99A0FBE01960895F894FFCF72
:10206000FFFFFF00FCE1A8A828010B04AA016B04F4
:102070007C0135048C002B04C3019504FFE101C7EA
:10208000049209920900000000FA087608C308A12A
:1020900008B5084109576174743A000D0A00456E8D
:1020A00065726779204D6574657200312E30004588
:1020B0006E657267792070756C73652076616C75DA
:1020C000650048444F207369676E616C0052656318
:1020D0006569766564206C6173742070756C7365D6
:1020E00020636F756E742066726F6D2067773A009B
:0C20F000322E302E312D6265746100002C
:1078000011E0A0E0B1E0E4EFFFE702C005900D92C7
:10781000A630B107D9F721E0A6E0B1E001C01D9282
:10782000AE34B207E1F7CDB7DEB76197DEBFCDBFAB
:10783000112484B78093270114BE88E180936000EF
:1078400089E280936000259A86E020E295B1922734
:1078500095B93FEF40E792E0315040409040E1F76A
:1078600000C00000815091F78091270181FD11C077
:107870008EE284B981E58CBD812C912C55245394E2
:1078800011E0CC24CA94DC2CAA24A39472E0B72E75
:10789000FDC082E08093C00088E18093C10086E053
:1078A0008093C20080E18093C400E12CF12CC12CB4
:1078B000D12CAA24AA94BA2C01E0A8950BD3813428
:1078C00071F408D3898B12D38989823811F482E04C
:1078D00053C0813811F485E64FC083E04DC0823437
:1078E00011F484E103C0853419F485E00BD363C03F
:1078F000853541F4EFD2E82EEDD2F12CF82AEE0CCA
:10790000FF1C58C0863521F484E0FCD280E034C0EE
:107910008436E1F4DFD2DED2882EDCD2C80CD11C52
:10792000912C981480F4D6D2182FD4D2F701E90DF7
:10793000F11D212F30E0382B090107BFE8951124F4
:1079400093949394EECFC7018CD134C0843761F403
:10795000C1D2C0D2182FBED2C9D2F70185917F0102
:10796000B2D21150D1F728C0853741F4BFD28EE191
:10797000AAD285E9A8D28FE0A6D21DC08135D1F464
:10798000BA82A982BC82AB82C60134E09695879503
:107990003A95E1F79E838D83C60175D198878F83D1
:1079A00048E050E06BE171E0CE01019602D39ED237
:1079B00011E002C09BD210E080E185D2112309F4CE
:1079C0007CCF56CF43E050E060E070E089E291E088
:1079D000E0D248E050E06BE171E0CE010196D9D2EF
:1079E00029982A9A63E083E29AD16CE485E297D1E0
:1079F00067E286E294D163E780E591D164E08DE3AC
:107A00008ED161E082E28BD161E081E288D161E0D8
:107A10008CE385D121E041E060E070E086E058D160
:107A2000873209F008C180912A01809328011092C1
:107A30004D018FEF80932A0180932B0103E22AE00E
:107A400047E06FEF66D260E084E269D160E08EEFDC
:107A500083D180912A018F3F09F4EDC080912901E3
:107A600081508E3F08F46CC003E222E043E06FEFE8
:107A700080E04FD263E084E06FD1882379F383E321
:107A800091E055D2682F80E090E0A2D2F999FECF24
:107A900099CF46E050E063E371E08DE091E064D27D
:107AA000892B79F5C3018150904F082F02950077FB
:107AB00040E050E0602F70E0DA01A45DBE4FFA01B3
:107AC000E60FF71F1E962C911E9730E0322F2227CB
:107AD0001D96AC912A2B090157BEE89511244E5FE3
:107AE0005F4F4031510541F7011106C044E0880F56
:107AF000991F4A95E1F7B5D0E114F10409F482C069
:107B0000370189859A8590930E0180930D018B85AD
:107B10009C859093100180930F01730121E0E21A7C
:107B2000F108F0921201E092110104EC22E342E02C
:107B30006FEF80E0EED168E083E00ED18111A9CF34
:107B40006FE584E2ECD010930D0110920E0103EC6E
:107B500022E14FE06FEF80E0DCD160E08FE0FCD00D
:107B60008D819E8124E0880F991F2A95E1F78BD0A3
:107B700098878F8388E0FE013196ADE0B1E00190F7
:107B80000D928A95E1F7B0921601A092150104ECCE
:107B900022E540E06FEF80E0BCD163E081E0DCD023
:107BA000882309F448C088E0E3E3F1E0DE01199698
:107BB00001900D928A95E1F748E050E0BE01675FC1
:107BC0007F4FCE010196D0D1892BA9F18091370149
:107BD000909138018038974070F588E0FE01399621
:107BE000DE01119601900D928A95E1F7D886CF8239
:107BF00048E050E06BE171E0CE010196DAD16D848E
:107C00007E847FCF8D859E8534E0880F991F3A95BD
:107C1000E1F739D02F8538898217930721F01E8626
:107C20001D86188A1F8648E050E06BE171E0CE01A6
:107C30000996BFD12BCF8D819E8124E0880F991F9B
:107C40002A95E1F720D02F8138858217930709F014
:107C50001DCF1CBCA89580912701282EF401099501
:107C600015CF23E0FC0127BFE89507B600FCFDCF48
:107C700025E0FC0127BFE89507B600FCFDCF81E1B8
:107C800087BFE8950895AC01413088E7580710F0A8
:107C900040E058E7E0E0F0E08FEF9FEF411551053D
:107CA000B1F02591822768E0DC01B695A7959C018B
:107CB000217033273195219531092170307AC9011E
:107CC0008A279B27615081F741505109E7CF0895DA
:107CD0002A988EBD0DB407FEFDCF8EB59FEF4150A3
:107CE000D0F0222369F09EBD0DB407FEFDCF8EB506
:107CF00061157105A1F3DB018C936F5F7F4FEFCFAF
:107D0000FB013196DB018C918EBD0DB407FEFDCFDA
:107D10008EB5BF01E4CF2A9A089520E0D9CFCF9342
:107D2000DF931F92CDB7DEB7698320E041E0BE014B
:107D30006F5F7F4FCDDF0F90DF91CF91089540E0CF
:107D400060E070E082EEE9DF40E060E070E081EE4C
:107D5000E4DF60E787E2E3CFEF92FF920F931F9398
:107D6000CF93DF93F82ED62FEE24EA94A895C091F6
:107D70000901C695C695C695C95F10912A01299833
:107D80006EE080E2CCDFDBDF1093000145E060E0D5
:107D900071E08AE2C2DF45E060E071E080E3BDDFD0
:107DA0004C2F66E071E080EAB8DF299A2A98EEBC91
:107DB0000DB407FEFDCFCEB52A9A8C2F8073B1F398
:107DC000299860E387E2ABDFC4FF05C040E060E0D4
:107DD00070E081EEA2DF6FE080E2A1DF6091290117
:107DE0008AE29DDFACDF299A0FEF1FEFA89521E013
:107DF00041E060E070E087E16BDF80FF02C04FEFA1
:107E000044C021E041E060E070E080E661DF813263
:107E100030F040E060E070E082EE7FDF80E021E063
:107E2000482F6CE271E081E653DF89DF90912E01EB
:107E3000809129019813E3CF409131018091300165
:107E40008770833011F5483001F580912D015091F4
:107E50002801851303C091E090934D019091330167
:107E6000692F70E020912B0130E021503109621719
:107E7000730724F420914D01222311F0851305C0CE
:107E80009F5F90932B0180932A0191E04F1190E026
:107E900085EA8A95F1F700000150110921F4892F34
:107EA000D11105C009C0992309F4A0CF04C0D15055
:107EB000992309F45BCF81E0DF91CF911F910F915E
:107EC000FF90EF9008959091C00095FFFCCF8093B4
:107ED000C60008958091C00087FFFCCF8091C0004C
:107EE00084FD01C0A8958091C6000895F3DF80321B
:107EF00039F088E18093600088E080936000FFCFD4
:107F000084E1E1CFCF93C82FE5DFC150E9F7CF91EE
:107F1000EDCF0F9390912901E6E0F1E091839083FA
:107F2000828366834583048323830F910895FC0134
:107F300088279927E89421912032E9F3293010F01D
:107F40002E30C8F32B3239F02D3231F4689403C04F
:107F500018D0820F911D219120532A30C8F31EF4AE
:107F6000909581959F4F0895FB01DC0104C08D9190
:107F70000190801921F441505040C8F7881B990B9B
:107F800008957AE0979F902D879F802D910D112461
:107F90000895DC01CB01FC01F999FECF06C0F2BDCA
:107FA000E1BDF89A319600B40D9241505040B8F7B7
:107FB0000895DC01A40FB51F4150504040F0CB01A3
:107FC000840F951F2E9105D041505040D8F7089549
:107FD000262FF999FECF92BD81BDF89A019700B482
:107FE000021639F01FBA20BD0FB6F894FA9AF99A22
:047FF0000FBE089523
:067FF40000FCE1A8A8005A
:040000030000780081
:00000001FF
