:100000000C949D010C946C120C9445120C94C50137
:100010000C94C5010C94C5010C9453070C94C501B4
:100020000C94C5010C94C5010C94C5010C94C50138
:100030000C94C5010C94C5010C94C5010C94C50128
:100040000C94FB110C94C5010C949A1B0C94741B1A
:100050000C94C5010C94C5010C94C5010C94C50108
:100060000C9498130C94C501970A5F0A970A970A93
:100070006A0A7C0A8D0A320E880E880E450E6D0EB5
:10008000750E7E0E810E840E67E6096A85AE67BB2B
:1000900072F36E3C3AF54FA57F520E518C68059B6A
:1000A000ABD9831F19CDE05B005EBCE2613FDD830D
:1000B000C29C7E20A3FD1F419DC3217FFCA2401E48
:1000C0005F01E3BD3E6082DC237D9FC1421CFEA038
:1000D000E1BF5D0380DE3C62BEE0025CDF81633D28
:1000E0007C22C09E1D43A1FF4618FAA427799BC518
:1000F00084DA3866E5BB5907DB856739BAE4065808
:100100001947A5FB7826C49A653BD987045AB8E6F7
:10011000A7F91B45C6987A24F8A6441A99C7257BE7
:100120003A6486D85B05E7B98CD2306EEDB3510FD7
:100130004E10F2AC2F7193CD114FADF3702ECC92C7
:10014000D38D6F31B2EC0E50AFF1134DCE90722CB7
:100150006D33D18F0C52B0EE326C8ED0530DEFB1A7
:10016000F0AE4C1291CF2D73CA947628ABF5174997
:100170000856B4EA6937D58B5709EBB536688AD487
:1001800095CB2977F4AA4816E9B7550B88D6346A77
:100190002B7597C94A14F6A8742AC896154BA9F767
:1001A000B6E80A54D7896B35000000002400270008
:1001B0002A0000000000250028002B000000000895
:1001C000000201000003040700000000000000001E
:1001D000982F8A4291443771CFFBC0B5A5DBB5E9B2
:1001E0005BC25639F111F159A4823F92D55E1CAB26
:1001F00098AA07D8015B8312BE853124C37D0C55B4
:10020000745DBE72FEB1DE80A706DC9B74F19BC1FB
:10021000C1699BE48647BEEFC69DC10FCCA10C24EB
:100220006F2CE92DAA84744ADCA9B05CDA88F976CF
:1002300052513E986DC631A8C82703B0C77F59BF39
:10024000F30BE0C64791A7D55163CA066729291465
:10025000850AB72738211B2EFC6D2C4D130D385302
:1002600054730A65BB0A6A762EC9C281852C7292C4
:10027000A1E8BFA24B661AA8708B4BC2A3516CC7F2
:1002800019E892D1240699D685350EF470A06A102B
:1002900016C1A419086C371E4C774827B5BCB0347A
:1002A000B30C1C394AAAD84E4FCA9C5BF36F2E6818
:1002B000EE828F746F63A5781478C8840802C78CA7
:1002C000FAFFBE90EB6C50A4F7A3F9BEF27871C6AA
:1002D0005E01011F01030301008A02010A010202FB
:1002E000010064001E47040B0906007C01010601A1
:1002F00003030100F401060E0102020100C201170E
:100300000101020201010000000023002600290073
:1003100004040404040404040202020202020303AB
:1003200003030303010204081020408001020408B3
:100330001020010204081020571D11241FBECFEF0A
:10034000D8E0DEBFCDBF11E0A0E0B1E0E4E8F3E427
:1003500002C005900D92A03EB107D9F726E0A0EEAD
:10036000B1E001C01D92A131B207E1F711E0CDE982
:10037000D1E004C02197FE010E949F21CC39D10712
:10038000C9F70E94CC1B0C94C0210C9400008091F2
:10039000EB0184608093EB018091EC018078809385
:1003A000EC01E091F001F091F101309709F009942E
:1003B000089591E59CBD91E09DBD2A98E3E2F0E0AF
:1003C0003197F1F78EBD00000DB407FEFDCF8EB55D
:1003D000FB019FEF4150C8F0222361F09EBD000059
:1003E0000DB407FEFDCF8EB56115710599F38083BD
:1003F0003196F0CFDF01119680818EBD00000DB4E3
:1004000007FEFDCF8EB5FD01E5CF2A9AE3E2F0E0CD
:100410003197F1F70895CF93DF931F92CDB7DEB7F1
:10042000698320E041E0BE016F5F7F4F0E94D901E8
:100430000F90DF91CF9108958091EC01982F9077E4
:10044000903759F0982F92959F709F5F9770929573
:10045000907F8F78892B8093EC018091EB018B7FCB
:100460008F7E8093EB0129986CE080E20C940B0264
:100470006FE080E20E940B0260911D016F3F19F056
:100480008AE20E940B02299A089520E040E060E091
:1004900070E00C94D901CF92DF92EF92FF921F93FC
:1004A000CF93DF93FC0182819091EB0190FF04C018
:1004B0008F3F09F04DC005C08F3F19F0D09148041F
:1004C00001C0DFEF809147048083438142FD06C075
:1004D000469546954695C7E0C40F01C0C0E27F012E
:1004E00010914A041170299883E092E00197F1F786
:1004F0006EE080E20E940B028BE891E00197F1F739
:100500006D2F8AE20E940B026D2F80E30E940B0286
:1005100081EE0E944502DF3F21F0111102C080EA06
:1005200001C080EB4C2FC13208F040E220E0B7015F
:100530000E94D901299AE12CF12C8FEF0E944502EB
:10054000C82F807339F481E0E81AF108B1F702C0CE
:1005500010E05EC0299860E387E20E940B02C4FFAE
:1005600003C081EE0E9445020E943802C5FD02C010
:10057000117001C011E081E0DF3F09F080E0182B2D
:1005800080914804D81344C09091EC01111108C027
:1005900081E0890F8F70907F982B9093EC0138C089
:1005A000907F9093EC0181E090E00E94540AEC016E
:1005B0006091EE017091EF01072E000C880B990BF2
:1005C0000E94C31E23E333E343E75FE30E94221F3D
:1005D0006B017C01CE0124E0880F991F2A95E1F779
:1005E000BC01990F880B990B0E94C31E2DEC3CECAB
:1005F0004CE45DE30E94221F9B01AC01C701B601E0
:100600000E9463200E9441217093EF016093EE01EC
:10061000812FDF91CF911F91FF90EF90DF90CF90CE
:100620000895CF939FEF980F9E3FB0F4C82F80930B
:10063000470480931D0163E082E20E940B0261E0A7
:1006400081E20E940B020E9438026C2F80E090E051
:100650000E94002081E004C08FEF8093470480E077
:10066000CF9108958FEF8093ED01EBEEF1E0808163
:100670008860808328E143E06FEF80E00E94E71507
:1006800061E00E9484090C944B020F931F930E9417
:10069000EF110091E3011091E4012091E501309107
:1006A000E601601B710B820B930B1F910F91089554
:1006B000809147048F3FB1F40E94EF116F3F19F012
:1006C00060931C0102C010921C0123E043E0609182
:1006D0001C0180E00E94E71565E871E00E949C091A
:1006E0000C944B020895EBEEF1E08081897F8160EC
:1006F0008083E7E4F4E08FEF8283818327E043E0A7
:100700006FEF0E94E71565E871E00E949C090C9468
:100710004B02EBEEF1E08081877F8F7E8083109229
:10072000E7011092E8011092E9011092EA0144E019
:1007300050E060E070E087E494E00C94E01F2091CA
:10074000EB0122FD0C944B0280E008959C01809106
:10075000E1019091E2018217930751F09091EB0132
:100760009F719093EB013093E2012093E10105C06A
:100770008091EB01805E8093EB01E091E101F091CB
:10078000E2010190F081E02D309709F009950E9477
:10079000EF116093E3017093E4018093E50190937E
:1007A000E60108950F931F930E9445032091EC01E9
:1007B0002077203729F000E117E220E030E004C084
:1007C00000E61AEE20E030E0061717072807390781
:1007D00030F48EE191E01F910F910C94A6031F91CC
:1007E0000F9108958091EC018F70863020F088E1A0
:1007F00091E00C94A60308958091ED018F3FA1F044
:100800000E94EF116093E7017093E8018093E90182
:100810009093EA018091ED019091490489138093AE
:10082000490484E191E013C00E944503613D774093
:100830008105910570F08091EB01803618F480E11C
:1008400091E005C0877F8093EB0188E191E00C94F3
:10085000A6030895809147048F3F19F080E191E04D
:1008600010C00E944503613D77408105910558F015
:100870008091EB01803618F48CE091E002C088E0B2
:1008800091E00C94A60308950E944503613D7740D2
:100890008105910520F48091EB0181FF08958091FD
:1008A00048048F3F41F08091EB018E7F8093EB01F4
:1008B0008CE091E009C08091EB01803618F488E16A
:1008C00091E002C088E091E00C94A60321E041E0B1
:1008D00060E070E00C94D9017F928F929F92AF926A
:1008E000BF92CF92DF92EF92FF920F931F93CF931D
:1008F000DF931F92CDB7DEB7E091E101F091E20105
:100900000280F381E02D309709F009958091EB0189
:1009100084FBFF24F0F884FFE0C186E0782E00E03D
:1009200010E091E2E92E87E10E94660480FDD5C1C6
:100930007A94772009F4D1C121E041E060E070E0D1
:1009400080E60E94D901C82E80E28C1520F482EE48
:100950000E944502C12C21E04C2D62EE75E081E63B
:100960000E94D90160E487E20E940B029091E505A4
:10097000292F2695269526952A3108F029E192FD02
:1009800003C037E0320F01C030E2E091E605B090DD
:10099000E705D090E3058091E2054091E405C3129C
:1009A000C2CF392F3370323009F0BDCF5E2F577070
:1009B0003091EC0130683093EC01309147044313DF
:1009C0004FC030E0B901F3E0660F771FFA95E1F709
:1009D0009770962B9093E505D901AE51BA4F1796B3
:1009E0001C92E3FF19C0E2EEF5E0A1ECB5E08E2D1C
:1009F00001900D928A95E1F78091C505877F80610E
:100A00008093C5054093C205D092C30581EC95E063
:100A100059830E949F0359812091E60524FD1BC044
:100A20005330C9F49091E70581EF890F833008F0C6
:100A300049C079CF913009F4EFC09A3009F473CFEF
:100A40009C3109F470CF9EE1B91609F46CCF9DE199
:100A5000B91609F404C182EE95E00E94A50C63CF9B
:100A60004F3F09F060CF533041F59091EB0192FF79
:100A700004C097E0B91609F456CF98E0B91609F406
:100A800052CF94E1B9124FCF9091480489134BCFC4
:100A90000E94EF117370882799270E94B511C090AA
:100AA000480425E143E06FEF8D2D0E94E7156C2D82
:100AB0000E9484090E944B0236CF9091480489130A
:100AC00032CFC9CF84E0B81210C08091E805909170
:100AD0001C01891719F08F3F09F025CF82EE95E0B0
:100AE0000E942E0A0E9411031ECF88E0B8121CC07B
:100AF000C090EB01C0FE17CF82EE95E00E942E0A57
:100B00008F3F09F410CF91E0980F9F3F09F40BCF6E
:100B100080914904981708F006CFC1FC04CF909348
:100B20004904D0924804FFCE88E1B81208C029E1F8
:100B300043E06FEF8D2D0E94E71561E0B9CF89E1A9
:100B4000B8120EC08091EB0183FFEDCE877F8093BA
:100B5000EB0182EE95E00E942E0A8093ED01E3CE38
:100B60008091E305811177C09D3059F498E088E1C8
:100B70000FB6F894A895809360000FBE9093600024
:100B8000FFCF9B3179F482EE95E00E942E0A91E02E
:100B9000811101C090E08091810390FB80F98093E6
:100BA0008103C1CE9630A9F49091E905992329F0EB
:100BB00081E09D3419F080E001C08F2D8093800387
:100BC00041E050E063E071E080E893E00E94F01FB4
:100BD000AACE933119F40E94D109A5CE923109F021
:100BE00029CF0E9445034B015C0126E143E06FEFF2
:100BF00080E00E94E715FC0184818F71806A848304
:100C0000838187708062838387829086A186B28683
:100C1000CF010E949F0387CE0115110509F483CEF1
:100C2000229526952770253049F46091E905709149
:100C3000EA058091EB059091EC050AC0211105C0F1
:100C400089EE95E00E946F1E03C060E070E0CB016A
:100C50000E94000068CE9A3109F0F5CE64CE309142
:100C6000E9058091EA05813211F0E0EB11C02EE137
:100C700043E06FEF8091E20539830E94E7156FEF43
:100C80000E9484090E944B023981882381F0E0EDA3
:100C9000E30FE43230F4F0E0E75DFE4F808190E056
:100CA00002C087E090E00E94540A6C0103C0C12C8E
:100CB000DD24DA942FE143E06FEF80E00E94E71536
:100CC000FC0184818F71806484839381977090612B
:100CD0009383D086C782CF01EDCE0F90DF91CF9165
:100CE0001F910F91FF90EF90DF90CF90BF90AF904A
:100CF0009F908F907F900895CF93219A229A299860
:100D00002A9ACFB7F8948091E001811127C0EAE1D7
:100D1000F3E08491EEE2F3E09491E82FF0E0EE0F3F
:100D2000FF1FE855FE4FA591B491EC91E92321F402
:100D300061E08AE00E94C51061E08AE00E94F5103F
:100D40008CB580618CBD8CB580648CBD61E08DE01C
:100D50000E94F51061E08BE00E94F5108091E001A7
:100D60008F5F8093E001CFBF6EE080E20E940B02B4
:100D700065E070E080E090E00E94B51163E083E2FE
:100D80000E940B026FE584E20E940B026CE485E294
:100D90000E940B0265E286E20E940B0263E780E597
:100DA0000E940B0266E08DE30E940B0286E00E9427
:100DB0006604C82F85E00E9466048C3409F043C0A5
:100DC000C53209F040C062E082E20E940B0260E09E
:100DD00081E20E940B0263E08CE30E940B028FEF22
:100DE0008093030120E045E063E071E08BE20E9424
:100DF000D90120E045E063E071E08AE20E94D90178
:100E000020E045E063E071E080E30E94D90182EEDA
:100E10000E94450281EE0E94450260E787E20E943F
:100E20000B028091EB0180618093EB0180914A0479
:100E30008E7F80934A04809147048F3F39F00E944F
:100E40001103811103C088E091E002C088E191E0C4
:100E5000CF910C94A6030F931F93CF93DF93EC01D4
:100E60008C01060F171FC017D107C1F0899140915F
:100E7000E3035091E4036091E5037091E6034F5F53
:100E80005F4F6F4F7F4F4093E3035093E4036093B2
:100E9000E5037093E6030E94F615E5CFDF91CF914D
:100EA0001F910F9108951F920F920FB60F92112468
:100EB0000F900FBE0F901F9018958F929F92AF9238
:100EC000BF92CF92DF92EF92FF926B017C010E9462
:100ED000EF114B015C010E94EF11DC01CB0188197D
:100EE0009909AA09BB098C159D05AE05BF0520F41B
:100EF000A8950E946C04EFCFFF90EF90DF90CF9009
:100F0000BF90AF909F908F9008950F931F93CF93B2
:100F1000DF93CDB7DEB761970FB6F894DEBF0FBE93
:100F2000CDBF61E083E00E94F51061E085E00E94A2
:100F3000F51061E087E00E94F51060E084E00E9417
:100F4000F510109208031092070310923D021092C0
:100F50003E0210920A0301E000930C0310920B036F
:100F600061E082E10E94C51061E083E10E94C5104A
:100F70008091B9008E7F8093B9008091B9008D7FF8
:100F80008093B90088E48093B80085E48093BC0026
:100F90001091F80400933F021093120210923D0248
:100FA00010923E0260E188EE94E00E94D20A8091A5
:100FB0003E02813208F046C090910A039111FCCFA5
:100FC00092E090930A0391E090930C039FEF90932B
:100FD000090310922E0380932D03ADE1B2E02DE0C2
:100FE00033E0F9019E2F921B981718F49D9191936D
:100FF000F9CF10922F0380912F03110F182B10930C
:101000002F0380910B03813061F410920B038091C8
:101010002F038093BB008091BC0083FDF8CF85EC4B
:1010200001C085EE8093BC0080910A038230E1F319
:10103000809109038F3F31F080910903803211F0D4
:101040008091090310923D0210923E0210923F02DD
:101050006AE070E080E090E00E94B5111092A00577
:1010600010929F051092F4041092F5041092F60469
:101070001092F70410921C0210921B0281E09BE078
:101080009093240180932301809169008C7F81607B
:1010900080936900E89AE091B305F091B405138656
:1010A00015861486DF011B9633961E92AE17BF0776
:1010B000E1F71092B20501E0BE01665F7F4F8091BB
:1010C000B3059091B4050E94E41A882309F45AC02C
:1010D00067E0CE010A960E94931299898913ECCF9A
:1010E0008091AE05811127C08091B3059091B40520
:1010F0000E946213BE01665F7F4F8091B30590919D
:10110000B4050E94351340E064EB8091B3059091E3
:10111000B4050E94F3128091B3059091B4050E942A
:10112000A012182F8091B3059091B4050E9462130C
:10113000112309F4E2C0BE016F5F7F4FCE010A9612
:101140000E94181A1091AF058A85803109F4D8C021
:10115000CE010A960E94801A811718F48091AF057B
:1011600009C08A85803111F48CE004C0CE010A9652
:101170000E94801A8093AF058091B2058F5F8093A3
:10118000B2059ACFE091B305F091B40513861586A8
:101190001486DF011B96CF0103961E92A817B9078C
:1011A000E1F763E172E0CF010E94E41A882329F09D
:1011B00067E083E192E00E949312BE016F5F7F4F70
:1011C00083E192E00E946D1A882309F466C0809141
:1011D0001302803109F461C08FE58D838091B305DE
:1011E0009091B4050E94621363E172E08091B305AF
:1011F0009091B4050E94351340E06EE48091B305F0
:101200009091B4050E94F31240E06B818091B30588
:101210009091B4050E94F31240E06C818091B30577
:101220009091B4050E94F31280911302803141F035
:1012300040E06D818091B3059091B4050E94F31256
:101240008091B3059091B4050E94621363E172E04E
:101250008091B3059091B4050E9435134091AE057D
:1012600068E48091B3059091B4050E94F31264E1A3
:1012700070E080E090E00E94B5118091AE05882377
:1012800031F06AE070E080E090E00E94B51180915A
:10129000B3059091B4050E94621303E010E061E091
:1012A00087E00E94C51064E670E080E090E00E9454
:1012B0005D0760E087E00E94C51068EC70E080E0A8
:1012C00090E00E945D070150110949F762E081E05A
:1012D0000E940C1A63E081E00E940C1A62E085E033
:1012E0000E940C1A61960FB6F894DEBF0FBECDBFF8
:1012F000DF91CF911F910F9108950093AE051BCF01
:101300001D3008F02BCF30CFFC01838187708860BF
:10131000838384818F71806284836783CF01089582
:10132000FC01838187708860838384818F718062F0
:1013300084836783CF0108950F931F93CF93DF9327
:10134000EC016115710561F0FB0101900020E9F7E6
:101350003197E61BF70BE931F10518F0E9E101C01F
:10136000E0E00E2F10E0C80123E0880F991F2A95B6
:10137000E1F79B819770892B8B838C818F718C8394
:10138000EE2329F0A801CE0107960E94B121FE01AB
:10139000E00FF11F1782CE01DF91CF911F910F91C6
:1013A0000895CF932FE043E06FEF80E00E94E715B0
:1013B00065E871E00E949C09E1ECF5E083818770AB
:1013C0008061838384818F71806C848381E08783D3
:1013D0001086CF010E949F038FE00E94AE1A45E85D
:1013E00051E061E18FEF0E94F719C091480426E0B7
:1013F00043E06FEF80E00E94E7156C2F0E948409A4
:101400000E949F0386E00E94AE1ACF910C94361082
:10141000CF938091810381FD1FC00E94D1098091EB
:101420008103816080938103C4E02AE143E06FEF90
:1014300080E00E94E71562E00E9484090E949F03F9
:101440008BE10E94AE1A811102C0C15071F78091E8
:101450008103826080938103CF910895FC012481F0
:10146000229526952770213011F487810895211146
:1014700004C007960E94511E089580E00895CF93FE
:10148000DF93FC011082118212821482158216826F
:10149000DC0117968AE1ED0119928A95E9F782E05D
:1014A0008383DF91CF9108958730910528F4FC0163
:1014B000EC5CFF4F0C949F2180E090E0089588E061
:1014C0000E9466048F70282F38EF3203C001112468
:1014D0004D97089586E00E946604282F30E03595E8
:1014E000279520953095237033274AEF4203C0019A
:1014F000439F900D1124089586E00E946604282FD2
:1015000030E035952795359527952370332789E168
:10151000829F800D112490E008958091EE019091BA
:10152000EF0124E0959587952A95E1F7089580E0ED
:101530009FEF08958091070390E020910803821B9C
:1015400091090895CF92DF92EF92FF920F931F932C
:10155000CF93DF937C01262F972F8A0180913F0242
:10156000882391F0C62FD72F6E01C40ED51ECC153F
:10157000DD0571F06991D701ED91FC910190F08149
:10158000E02DC7010995F3CF642F822F0E94C61466
:10159000C801DF91CF911F910F91FF90EF90DF90E5
:1015A000CF900895CF93DF931F92CDB7DEB76983B5
:1015B00020913F022223D1F020913E02203240F0C0
:1015C00021E030E0FC013383228380E090E015C00D
:1015D00080913D02E82FF0E0E35EFD4F998190831A
:1015E0008F5F80933D0280933E0205C061E0CE0193
:1015F00001960E94C61481E090E00F90DF91CF9198
:1016000008952F923F924F925F926F927F928F92A6
:101610009F92AF92BF92CF92DF92EF92FF920F9381
:101620001F93CF93DF93CDB7DEB765970FB6F894CE
:10163000DEBF0FBECDBF0E9490116B017C01809177
:10164000E3029091E4022601481A590A2DEC421651
:1016500020E1520608F4F6C080915D0290915E028E
:10166000A201481B590BCA0157FF03C091958195F0
:101670009109883C91050CF0E1C080915B0290914A
:101680005C02019690935C0280935B02029709F0E2
:10169000D5C090ED692E92E0792E01E010E0209007
:1016A000590230905A023B862A8649E050E0B30145
:1016B000CE0101960E94961E8C816B81681708F4FA
:1016C000682F70E080915D0290915E020E94772108
:1016D0009B014091270150912801649FC001659FA3
:1016E000900D749F900D112464E670E00E947721A4
:1016F0008985811103C0A1E0B0E002C0A2E0B0E0A2
:101700008D81829FA001839F500D11245D874C879E
:101710008E81829F1001839F300C11243F862E867C
:101720008F81829FA001839F500D1124598B488B7C
:101730008885829F1001839F300C11243B8A2A8A5E
:10174000FD01EE0FFF1FE35AFD4F812C912C540138
:101750004A855B85415051095D8B4C8B8C899D89F5
:10176000A817B90708F040C0880C991CAA1CBB1C1C
:1017700080819181AC012C843D844219530957FF2B
:1017800003C05195419551094617570770F442819E
:1017900053812E843F844219530957FF03C051954A
:1017A0004195510946175707E0F028883988821972
:1017B000930997FF03C09195819591098617970723
:1017C00080F5828193814A895B89841B950B97FF01
:1017D00003C09195819591098617970710F5689434
:1017E00080F812963496BACF4A855B854830510509
:1017F000C0F08092F4049092F504A092F604B092A6
:10180000F7041C013694279430921C0220921B028C
:1018100030935802209357021093560200935502BA
:1018200009C00F5F1F4F59E0650E711C073011058D
:1018300009F035CF10925C0210925B0210925A02AE
:10184000109259028091590290915A028334910565
:1018500040F010925A021092590210925C021092BB
:101860005B028091590290915A029C012F5F3F4F79
:1018700030935A0220935902880F991FFC01E35AB2
:10188000FD4F51824082C092E302D092E402E09286
:10189000E502F092E60265960FB6F894DEBF0FBE41
:1018A000CDBFDF91CF911F910F91FF90EF90DF900F
:1018B000CF90BF90AF909F908F907F906F905F90F0
:1018C0004F903F902F900895CF93DF93EC0180913C
:1018D000530290E0C817D907A9F1809154028823D8
:1018E00041F0BE0183E00E943111BE0185E00E94FB
:1018F0003111209789F460E083E00E94C51060E018
:1019000085E00E94C5101092540260E08EE795E0D9
:101910000E9490090E94BE198091FE048F7180641C
:101920008093FE048091FD04877080618093FD04A4
:10193000D0930205C09301058AEF94E00E94BE197E
:10194000C0935302DF91CF910895FF920F931F939D
:10195000CF93DF9300D000D0CDB7DEB71091540203
:1019600000915302FC012681213021F0253009F439
:101970005CC09AC0FC012581223009F07AC00E9427
:101980002E0AFF24F394811101C0F12CF11609F401
:101990008BC0F11009C060E083E00E94C51060E0D8
:1019A00085E00E94C5101AC0202F30E0AFEFB0E0F4
:1019B0000E94532024E630E040E050E00E941220D4
:1019C000B90183E029833A834B835C830E94311100
:1019D00029813A81B90185E00E943111F0925402C7
:1019E0001F2D80915302081709F45EC01123D1F016
:1019F000202F30E0AFEFB0E00E94532024E630E02B
:101A000040E050E00E941220B90183E029833A832C
:101A10004B835C830E94311129813A81B90185E0B1
:101A20000E943111009353023FC0FC0125812230F6
:101A3000D9F50E942E0A91E0811101C090E09093A7
:101A40002201911131C060E08CE395E00E94900981
:101A50000E94BE191092520260E087E00F900F9032
:101A60000F900F90DF91CF911F910F91FF900C94E9
:101A7000C510233009F0B5CFFC01248122952695AD
:101A80002770223011F4878107C0211104C0079606
:101A90000E94511E01C080E0082F853608F4A1CFB6
:101AA0000E94CF1901E09DCF0F900F900F900F90E3
:101AB000DF91CF911F910F91FF900895CF92DF9208
:101AC000EF92FF92CF93DF932091F80480910A0365
:101AD0008111FCCF81E080930A0380930C039FEF78
:101AE0009093090310922E0380932D0380932F036C
:101AF00090912F03822F880F892B80932F03809141
:101B00000B03813061F410920B0380912F038093BB
:101B1000BB008091BC0083FDF8CF85EC01C085EE51
:101B20008093BC0080910A038130E1F380912E0301
:101B3000823018F480912E0301C082E0ADE0B3E062
:101B400027EE32E0F9019E2F921B981718F49D9111
:101B50009193F9CF109208038093070388EE94E0E5
:101B60000E948810D82F80E0C82F88EE94E00E9451
:101B700088108C2B9D2BBC0180E090E00E94C11E40
:101B80002AE939E949E95FE30E94CF200E94482110
:101B90006B017C01CB016AE070E00E94772120910B
:101BA000500230915102C901861B970BC816D90605
:101BB00028F0260F371F2C153D05F0F4D092510266
:101BC000C092500280911F058F71806680931F051F
:101BD00080911E058770806180931E05D092230539
:101BE000C09222058BE195E0DF91CF91FF90EF90BD
:101BF000DF90CF900C94BE19DF91CF91FF90EF90C2
:101C0000DF90CF9008958F929F92AF92BF92CF9224
:101C1000DF92EF92FF920F931F93CF93DF93CDB795
:101C2000DEB7AA970FB6F894DEBF0FBECDBF4091C6
:101C3000F4045091F5046091F6047091F704411595
:101C400051056105710509F46BC080915302FA01D9
:101C5000E150FE47E930F10508F05AC0E55CFF4F5E
:101C60000C949F2180915402882351F110925402C8
:101C700081E08093220160E083E00E94C51060E073
:101C800085E00E94C51060E014C09091540291114B
:101C900017C091E09093540290932201082F10E016
:101CA000B80183E00E943111B80185E00E94311132
:101CB00061E08EE795E00E9490090E94BE1904C081
:101CC000109222010E94CF19609122018DE595E0CA
:101CD0000E9490090E94BE191BC091E0980F943693
:101CE00010F48E5F09C084E607C09FEF980F923012
:101CF00010F0825001C081E090E008C084E690E0DE
:101D000005C082E390E002C089E190E00E94640C8B
:101D10001092F4041092F5041092F6041092F70455
:101D20000E94EF1100914002109141022091420265
:101D300030914302DC01CB01801B910BA20BB30B52
:101D4000893E9340A105B10508F43BC00E94EF1104
:101D50006093400270934102809342029093430249
:101D600080912201882369F1E0ECF1E08491E8E2BE
:101D7000F3E00491E4E1F3E01491112379F081118F
:101D80000E949C10E12FF0E0EE0FFF1FEA5FFC4F76
:101D9000A591B491EC91E02311E009F410E01170E9
:101DA00080915202181769F010935202612F87E058
:101DB0000E94C510612F8CE395E00E9490090E945B
:101DC000BE190E94EF11009144021091450220912A
:101DD000460230914702DC01CB01801B910BA20B24
:101DE000B30B89389341A105B10560F00E94EF1152
:101DF0006093440270934502809346029093470299
:101E00000E945E0D0E94EF1100914C0210914D0254
:101E100020914E0230914F02DC01CB01801B910BCF
:101E2000A20BB30B81369A4EA105B10508F40BC184
:101E30000E94EF1160934C0270934D0280934E020A
:101E400090934F0287EE93E090935102809350025B
:101E50000E945E0DCE0101960E943F0A86E08F83AC
:101E60001E8280911302803149F083E192E00E944A
:101E7000801A182F882309F4D1C001C01CE080917A
:101E8000B3059091B4050E946213882309F4C6C07B
:101E900063E172E08091B3059091B4050E9435131F
:101EA0004091AE0564E48091B3059091B4050E9421
:101EB000F3128091B0058823E1F11950133048F4F2
:101EC000E12FF0E0EE0FFF1FE35BFE4F0081118179
:101ED00002C00EEE12E08091B105882321F18091BD
:101EE000AE05811120C00E94EF114B015C01680119
:101EF000110FEE08FF08BE016E5D7F4F83E192E097
:101F00000E94181A8AA1811114C00E94EF11DC01ED
:101F1000CB018C199D09AE09BF0988159905AA0541
:101F2000BB0548F306C0B801110F880B990B0E943E
:101F3000B511BE016E5D7F4F83E192E00E946D1A84
:101F4000882309F468C06AA188E0689FB001112461
:101F50008BA1282F30E0322F2227330F330F330F7E
:101F6000262B372B809113028031C9F469A570E0CC
:101F700088A5AB01481B5109CA019695982F88275F
:101F8000979587950E948B2160517109207F53E0BE
:101F9000220F331F5A95E1F7620F731F01C0B90179
:101FA000613854EE75077CF0072E000C880B990BF6
:101FB0000E94C31E20E030E040E05CE30E94221F4C
:101FC0006B017C0106C0C12CD12C8EEFE82E82EC77
:101FD000F82E209148023091490240914A025091D6
:101FE0004B02C701B6010E94BC1E882361F1C0925A
:101FF0004802D0924902E0924A02F0924B028C8150
:10200000877088628C838D81806E8D83C886D98627
:10201000EA86FB8612C060E874EEC2CF8C818770BE
:1020200088628C838D81806E8D838DEC9CECA7EC17
:10203000B2E488879987AA87BB8781E08C87CE0125
:1020400001960E94BE19AA960FB6F894DEBF0FBE85
:10205000CDBFDF91CF911F910F91FF90EF90DF9057
:10206000CF90BF90AF909F908F9008952BE043E06A
:102070006FEF80E00E94E71563E771E00E949C0922
:102080000E949F032CE043E06FEF80E00E94E71581
:1020900062E871E00E949C090E949F0346E851E0BB
:1020A00064E081E00E94F71946E951E061E082E0D6
:1020B0000E94F71946EA51E060E183E00E94F719B7
:1020C00049EB51E063E085E00E94F71949EC51E0EB
:1020D00066E086E00C94F7190895089585ED8093E5
:1020E000BC008091BC0084FDFCCF10920A030895CF
:1020F0000895E091080380910703E81730F4F0E0B9
:10210000E951FD4F808190E008958FEF9FEF089592
:102110009091080380910703981750F4E92FF0E09D
:10212000E951FD4F208130E09F5F9093080302C08A
:102130002FEF3FEFC9010895833081F028F48130FB
:1021400099F08230A1F008958730A9F08830B9F075
:102150008430D1F4809180008F7D03C08091800015
:102160008F7780938000089584B58F7702C084B5FF
:102170008F7D84BD08958091B0008F7703C08091DA
:10218000B0008F7D8093B00008951F93CF93DF93AD
:10219000282F30E0F901E454FE4F8491F901EC5D01
:1021A000FC4FD491F901E05FFC4FC491CC23C9F0FE
:1021B000162F81110E949C10EC2FF0E0EE0FFF1FF4
:1021C000EE54FE4FA591B4918FB7F894111105C04C
:1021D0009C91ED2FE095E92302C0EC91ED2BEC935F
:1021E0008FBFDF91CF911F910895CF93DF9390E040
:1021F000FC01EC5DFC4F2491FC01E05FFC4F8491FD
:10220000882361F190E0880F991FFC01E855FE4F8B
:10221000C591D491FC01EE54FE4FA591B49161118A
:1022200009C09FB7F8948881209582238883EC9118
:102230002E230BC0623061F49FB7F8943881822F4F
:10224000809583238883EC912E2B2C939FBF06C00F
:102250008FB7F894E8812E2B28838FBFDF91CF9121
:1022600008951F93CF93DF93182FEB0161E00E9435
:10227000F510209711F460E004C0CF3FD10539F488
:1022800061E0812FDF91CF911F910C94C510E12F58
:10229000F0E0E454FE4FE491E330F9F048F4E1302B
:1022A000B9F0E230A1F584B5806284BDC8BD34C008
:1022B000E730E9F0E83019F1E43049F58091800029
:1022C000806280938000D0938B00C0938A0024C0EA
:1022D00084B5806884BDC7BD1FC0809180008068C0
:1022E00080938000D0938900C093880015C08091AE
:1022F000B00080688093B000C093B3000DC080919F
:10230000B00080628093B000C093B40005C0C038B4
:10231000D1050CF0B5CFAFCFDF91CF911F910895CC
:102320003FB7F89480917C0390917D03A0917E0348
:10233000B0917F0326B5A89B05C02F3F19F00196E9
:10234000A11DB11D3FBFBA2FA92F982F8827820F3B
:10235000911DA11DB11DBC01CD0142E0660F771F8B
:10236000881F991F4A95D1F708958F929F92AF9237
:10237000BF92CF92DF92EF92FF926B017C010E949D
:1023800090114B015C01C114D104E104F104F1F09E
:102390000E949011DC01CB0188199909AA09BB0997
:1023A000883E9340A105B10570F321E0C21AD1081F
:1023B000E108F10888EE880E83E0981EA11CB11C8C
:1023C000C114D104E104F10419F7DDCFFF90EF90BF
:1023D000DF90CF90BF90AF909F908F9008952FB7D0
:1023E000F894609178037091790380917A039091C9
:1023F0007B032FBF08951F920F920FB60F921124E7
:102400002F933F938F939F93AF93BF9380917803C4
:1024100090917903A0917A03B0917B033091770377
:1024200023E0230F2D3720F40196A11DB11D05C017
:1024300026E8230F0296A11DB11D209377038093F8
:10244000780390937903A0937A03B0937B038091F0
:102450007C0390917D03A0917E03B0917F03019650
:10246000A11DB11D80937C0390937D03A0937E03F7
:10247000B0937F03BF91AF919F918F913F912F9127
:102480000F900FBE0F901F9018951F920F920FB6CE
:102490000F9211242F933F934F935F936F937F93EA
:1024A0008F939F93AF93BF93EF93FF93E091250199
:1024B000F09126010995FF91EF91BF91AF919F9106
:1024C0008F917F916F915F914F913F912F910F90DD
:1024D0000FBE0F901F9018951F920F920FB60F927C
:1024E00011242F933F934F935F936F937F938F9319
:1024F0009F93AF93BF93EF93FF93E0912301F091EC
:1025000024010995FF91EF91BF91AF919F918F9118
:102510007F916F915F914F913F912F910F900FBEDF
:102520000F901F901895DC01E0E0615038F08D911C
:10253000E827F0E0E855FF4FE491F7CF8E2F08959C
:10254000FC0190810180F281E02DF8948181892B3A
:1025500081832281892F809528232283A7E0B0E000
:102560001197F1F7218182238183A3E2B0E01197D3
:10257000F1F780817894EFECF0E03197F1F7982350
:1025800081E009F480E00895FC0190810180F281EE
:10259000E02D892F809560FF12C0F894228182235C
:1025A00082838181892B8183A3E2B0E01197F1F7C7
:1025B0008281982B9283789487ED90E011C0F894F3
:1025C0002281822382838181892B8183AFEFB0E0D6
:1025D0001197F1F78281982B928378948FE090E0A5
:1025E0000197F1F70895CF92DF92EF92FF920F9348
:1025F0001F93CF93DF931F92CDB7DEB76C01E62E0A
:1026000008E010E0FF24F39461E08F2D8E2109F49F
:1026100060E0C60149830E94C412FF0C01501109F9
:1026200049810115110581F7411115C0F894D601B2
:102630001196ED91FC91129791818C91809589234F
:1026400081831196ED91FC91129792818C918095E6
:102650008923828378940F90DF91CF911F910F91FE
:10266000FF90EF90DF90CF900895CF92DF92EF929E
:10267000FF920F931F93CF93DF931F92CDB7DEB7D7
:102680008C01F62E40E065E579830E94F312CF2C91
:102690007981D72E760188E0E80EF11CF601619170
:1026A0006F0140E0C8010E94F312CE14DF04B1F7BD
:1026B0000F90DF91CF911F910F91FF90EF90DF90DE
:1026C000CF900895FC0190810180F281E02DF89473
:1026D0008181292F20958223818378948DE743E09F
:1026E00050E0815021F1DA011197F1F7308139235F
:1026F000C1F3F8948281822382838181892B818333
:102700007894ABE7B7E01197F1F7F894818128232B
:102710002183A3E1B1E01197F1F78081982381E053
:1027200009F080E07894E3E6F6E03197F1F7089558
:102730001F920F920FB60F9211242F933F934F9336
:102740005F936F937F938F939F93AF93BF93EF9319
:10275000FF938091B900887F803609F49CC068F5AA
:10276000883209F45BC090F4803109F454C038F425
:10277000882309F4F6C0883009F44DC0F6C08831CA
:1027800009F44CC0803209F45DC0EFC0803409F414
:1027900068C048F4803309F455C0883309F0E5C0B7
:1027A00080930903D8C0803509F44FC0883509F4F7
:1027B0005DC0883409F0D9C0D6C0883909F4C7C0D3
:1027C000A8F4883709F467C038F4883609F463C080
:1027D000803709F460C0C9C0883809F4B8C08039AE
:1027E00009F45FC0803809F0C0C05BC0803B09F4C9
:1027F00086C038F4803A09F466C0883A09F47FC08C
:10280000B4C0803C09F4A7C0883C09F4A4C0883B4C
:1028100009F48AC0AAC080912F0310C090912E03A2
:1028200080912D03981770F5E0912E0381E08E0FB3
:1028300080932E03F0E0E35FFC4F80818093BB0028
:1028400085EC86C0809309038EC0E0912E0381E061
:102850008E0F80932E038091BB00F0E0E35FFC4F6E
:10286000808390912E0380912D036EC0E0912E0302
:1028700081E08E0F80932E038091BB00F0E0E35F38
:10288000FC4F808380910C0381116DC081E08093A7
:102890000B0384EA61C083E080930A0310927603FD
:1028A000CFCF80917603803208F051C0E09176035B
:1028B00081E08E0F809376038091BB00F0E0EA5AAE
:1028C000FC4F8083BDCF85EC8093BC0010920A033F
:1028D00080917603803230F4E0917603F0E0EA5A9A
:1028E000FC4F10826091760370E0E0915403F09108
:1028F000550386E593E009951092760336C084E08F
:1029000080930A031092530310925203E0915003F4
:10291000F0915103099580915203811105C081E026
:102920008093520310923003E091530381E08E0FA5
:1029300080935303F0E0E05DFC4F80818093BB0007
:102940009091530380915203981708F479CF85E84A
:102950008093BC000AC085EC8093BC0010920A03EF
:1029600004C0109209030E946E10FF91EF91BF9175
:10297000AF919F918F917F916F915F914F913F9117
:102980002F910F900FBE0F901F90189540915203FA
:10299000262F30E0240F311D21323105DCF4209147
:1029A0000A032430C9F4FC0180E090E0861758F453
:1029B000309152032191DC01A05DBC4FA30FB11DEA
:1029C0002C930196F3CF80915203680F60935203CA
:1029D00080E0089581E0089582E00895CF92DF922B
:1029E000EF92FF920F931F93CF93DF936C017A01C5
:1029F0008B01C0E0D0E0CE15DF0589F0D8016D91E4
:102A00008D01D601ED91FC910190F081E02DC60180
:102A10000995892B11F47E0102C02196ECCFC701E4
:102A2000DF91CF911F910F91FF90EF90DF90CF90AA
:102A30000895FC01918D828D981761F0828DDF01E0
:102A4000A80FB11D5D968C91928D9F5F9F73928FA1
:102A500090E008958FEF9FEF0895FC01918D828D96
:102A6000981731F0828DE80FF11D858D90E0089563
:102A70008FEF9FEF0895FC01918D228D892F90E0BB
:102A8000805C9F4F821B91098F73992708958BE477
:102A900094E00E943B1521E0892B09F420E0822F6D
:102AA0000895FC01848DDF01A80FB11DA35ABF4F0B
:102AB0002C91848D90E001968F739927848FA6893D
:102AC000B7892C93A089B1898C9180648C93938D64
:102AD000848D981306C00288F389E02D80818F7D54
:102AE00080830895EF92FF920F931F93CF93DF930C
:102AF000EC0181E0888F9B8D8C8D981305C0E8894F
:102B0000F989808185FD24C0F62E0B8D10E00F5FC2
:102B10001F4F0F731127E02E8C8DE8120CC00FB6DB
:102B200007FCFACFE889F989808185FFF5CFCE01CE
:102B30000E945115F1CF8B8DFE01E80FF11DE35A74
:102B4000FF4FF0820B8FEA89FB898081806207C08A
:102B5000EE89FF896083E889F989808180648083B8
:102B600081E090E0DF91CF911F910F91FF90EF9066
:102B70000895CF93DF93EC01888D8823C9F0EA890B
:102B8000FB89808185FD05C0A889B9898C9186FD66
:102B90000FC00FB607FCF5CF808185FFF2CFA88963
:102BA000B9898C9185FFEDCFCE010E945115E7CFF9
:102BB000DF91CF91089580E090E0892B29F00E9469
:102BC000471581110C94000008950E94AC21E1EC9E
:102BD000F5E0909147049183828366832583477053
:102BE0008481807E482B4483CF0108952F923F92A9
:102BF0004F925F926F927F928F929F92AF92BF920D
:102C0000CF92DF92EF92FF920F931F93CF93DF93B8
:102C1000CDB7DEB7C354D1090FB6F894DEBF0FBEEF
:102C2000CDBF9091C203E3E0E927F0E0EE57FC4FFF
:102C300080839F5F9093C203903409F085C34090D6
:102C4000C3035090C4036090C5037090C6034AA2AA
:102C50005BA26CA27DA22091C7033091C803409172
:102C6000C9035091CA032EA33FA348A759A7409177
:102C7000CB035091CC036091CD037091CE034AA752
:102C80005BA76CA77DA76091CF037091D003809163
:102C9000D1039091D2036EA77FA788AB99AB8091A7
:102CA000D3039091D403A091D503B091D6038AABFE
:102CB0009BABACABBDAB4090D7035090D8036090BA
:102CC000D9037090DA034EAA5FAA68AE79AE20915C
:102CD000DB033091DC034091DD035091DE032AAF2A
:102CE0003BAF4CAF5DAF4091DF035091E00360918B
:102CF000E1037091E20322964CAF5DAF6EAF7FAF00
:102D00002297F0ED2F2EF1E03F2E6EA57FA588A92A
:102D100099A96A8F7B8F8C8F9D8F8AA59BA5ACA567
:102D2000BDA58A8B9B8BAC8BBD8B4EA05FA068A48E
:102D300079A44E8A5F8A688E798E0AA11BA12CA184
:102D40003DA14EA95FA968AD79AD4E8F5F8F68A395
:102D500079A36AAD7BAD8CAD9DAD6E877F87888B87
:102D6000998B22968CAD9DADAEADBFAD2297898378
:102D70009A83AB83BC834AA85BA86CA87DA84D82CC
:102D80005E826F8278864AEF5FEF24965FAF4EAF28
:102D900024971D86F10185909590A590B4904D8162
:102DA0005E816F81788585E1440F551F661F771F0F
:102DB0008A95D1F78D819E81AF81B885EBE0B6957C
:102DC000A79597958795EA95D1F72C013D01442A5F
:102DD000552A662A772ACD80DE80EF80F884FAE1D2
:102DE000CC0CDD1CEE1CFF1CFA95D1F74D815E81E9
:102DF0006F817885A6E07695679557954795AA9552
:102E0000D1F74C295D296E297F2944255525662552
:102E100077258D819E81AF81B885E9E1B695A7952B
:102E200097958795EA95D1F7CD80DE80EF80F8847D
:102E3000F7E0CC0CDD1CEE1CFF1CFA95D1F78C29B9
:102E40009D29AE29BF29482759276A277B274E8409
:102E50005F84688879888E8D9F8DA8A1B9A1482646
:102E600059266A267B268D819E81AF81B8854822AE
:102E700059226A227B228E859F85A889B989482696
:102E800059266A267B26440D551D661D771D840E26
:102E9000951EA61EB71EED85EF7094E0E99FF00128
:102EA0001124EE57FC4F4081518162817381840E61
:102EB000951EA61EB71E49805A806B807C80840CAC
:102EC000951CA61CB71CB901A801A3E1440F551F0E
:102ED000661F771FAA95D1F7D901C801EDE0B69515
:102EE000A79597958795EA95D1F72C013D01442A3E
:102EF000552A662A772AD901C801FEE1880F991F51
:102F0000AA1FBB1FFA95D1F76801790142E0F69438
:102F1000E794D794C7944A95D1F7C82AD92AEA2AC0
:102F2000FB2AB301A2014C255D256E257F25D90121
:102F3000C801E6E1B695A79597958795EA95D1F7EB
:102F400068017901FAE0CC0CDD1CEE1CFF1CFA953F
:102F5000D1F7C82AD92AEA2AFB2AC426D526E6268A
:102F6000F7264A895B896C897D898E899F89A88D1E
:102F7000B98D482B592B6A2B7B2B4023512362237D
:102F800073238A899B89AC89BD894E885F88688C48
:102F9000798C84219521A621B721842B952BA62BF2
:102FA000B72B8C0D9D1DAE1DBF1D4A8D5B8D6C8D8D
:102FB0007D8D480D591D6A1D7B1D49875A876B877A
:102FC0007C872C013D01480C591C6A1C7B1C4982E2
:102FD0005A826B827C824D854F5F4D87403409F465
:102FE00015C15D85503108F4CBC0852F8F7064E02A
:102FF000869FC0011124DC01AE57BC4FBB8FAA8F46
:103000002496EEADFFAD2497EF70FF27EE0FFF1F64
:10301000EE0FFF1FEE57FC4F4D915D916D917C912E
:1030200080819181A281B3814A015B01880E991E42
:10303000AA1EBB1E2496EEADFFAD24973596EF7009
:10304000FF27EE0FFF1FEE0FFF1FEE57FC4F4081D3
:103050005181628173816A017B01EDE0CC0CDD1C42
:10306000EE1CFF1CEA95D1F7DB01CA01F3E1B6952E
:10307000A79597958795FA95D1F78C299D29AE2923
:10308000BF292A013B01EFE0440C551C661C771C4C
:10309000EA95D1F76A017B01F1E1F694E794D794C0
:1030A000C794FA95D1F7C428D528E628F728C8266A
:1030B000D926EA26FB26AAE0769567955795479587
:1030C000AA95D1F74C255D256E257F25480D591D04
:1030D0006A1D7B1D2496EEADFFAD24973897EF70E7
:1030E000FF27EE0FFF1FEE0FFF1FEE57FC4F8081F3
:1030F0009181A281B3814C015D01EEE0880C991CA5
:10310000AA1CBB1CEA95D1F76C017D01F2E1F69493
:10311000E794D794C794FA95D1F78C289D28AE28C8
:10312000BF282C013D01E7E07694679457944794BB
:10313000EA95D1F76C017D01F9E1CC0CDD1CEE1CA8
:10314000FF1CFA95D1F7C428D528E628F728C8240B
:10315000D924EA24FB24E3E0B695A79597958795B3
:10316000EA95D1F7C826D926EA26FB26C40ED51E35
:10317000E61EF71EEA8DFB8DC082D182E282F382C9
:10318000F4E02F0E311C24964EAD5FAD24974F5FB7
:103190005F4F24965FAF4EAF24976A897B898C89F5
:1031A0009D896A8F7B8F8C8F9D8F8E899F89A88D3B
:1031B000B98D8A8B9B8BAC8BBD8B0E8B1F8B288F15
:1031C000398F09811A812B813C814E845F84688804
:1031D000798849825A826B827C824E8D5F8D68A18C
:1031E00079A14E875F87688B798B6D817E818F8116
:1031F00098856E8F7F8F88A399A389859A85AB85E3
:10320000BC858D839E83AF83B887C4CD53014201B3
:103210006AA17BA18CA19DA1860E971EA81EB91E36
:103220008092C3039092C403A092C503B092C603D8
:103230008EA19FA1A8A5B9A5080F191F2A1F3B1F82
:103240000093C7031093C8032093C9033093CA03A4
:103250008E899F89A88DB98D4AA45BA46CA47DA496
:10326000840D951DA61DB71D8093CB039093CC03B1
:10327000A093CD03B093CE038A899B89AC89BD8985
:103280002EA53FA548A959A9820F931FA41FB51FBA
:103290008093CF039093D003A093D103B093D20334
:1032A00089859A85AB85BC854AA95BA96CA97DA94E
:1032B000840F951FA61FB71F8093D3039093D40349
:1032C000A093D503B093D6038D819E81AF81B8853D
:1032D0004EA85FA868AC79AC840D951DA61DB71DDE
:1032E0008093D7039093D803A093D903B093DA03C4
:1032F0008E8D9F8DA8A1B9A12AAD3BAD4CAD5DAD22
:10330000820F931FA41FB51F8093DB039093DC03F0
:10331000A093DD03B093DE038E859F85A889B989CC
:1033200022964CAD5DAD6EAD7FAD2297840F951F9B
:10333000A61FB71F8093DF039093E003A093E103E0
:10334000B093E2031092C203CD5BDF4F0FB6F89447
:10335000DEBF0FBECDBFDF91CF911F910F91FF90C8
:10336000EF90DF90CF90BF90AF909F908F907F9025
:103370006F905F904F903F902F900895FC01809147
:10338000470481839481907F91609483809181032D
:1033900080FF03C0CF010C949F0380E0089561E09B
:1033A00087E00E94C51064E170E080E090E00E9438
:1033B000B51160E087E00E94C51064E670E080E02F
:1033C00090E00E94B51161E087E00E94C51064E1C1
:1033D00070E080E090E00E94B51160E087E00E941C
:1033E000C51064E670E080E090E00C94B511CF93D6
:1033F000DF93262F8F3F11F0EA0102C0C5EDD1E027
:1034000040E0682F80E00E94E715BE010E949C0901
:10341000DF91CF910C949F03262F42E0682F80E02C
:103420000E94E71565E871E00E949C090C949F03D7
:10343000AF92BF92CF92DF92EF92FF920F931F93C2
:10344000CF93DF93EC018B018091B3059091B4058C
:103450000E9462138823A1F1BE018091B30590916F
:10346000B4050E94351340E06EEB8091B305909156
:10347000B4050E94F312E801680189E0C80ED11C6E
:10348000A090B305B090B40588E0E82EF12C01E0DF
:1034900010E0C5010E94A0128111102B000F81E0E5
:1034A000E81AF108B1F71993CC15DD0549F78091B9
:1034B000B3059091B4050E94621391E0813009F048
:1034C00090E0892FDF91CF911F910F91FF90EF90A6
:1034D000DF90CF90BF90AF900895CF93DF93EB0133
:1034E0000E94181A882339F068E0CE010E949312D6
:1034F00091E02885821390E0892FDF91CF91089584
:10350000CF93DF93CDB7DEB729970FB6F894DEBF20
:103510000FBECDBFBE016F5F7F4F0E946D1A882323
:1035200089F08D818F3361F020F48F3159F489E077
:103530000CC08F3519F08F3739F004C08BE005C00F
:103540008AE003C080E001C08CE029960FB6F894B1
:10355000DEBF0FBECDBFDF91CF910895CF92DF9236
:10356000EF92FF92CF93DF93D82F0E94EF116B0160
:103570007C0181E0D11180E08093E705C0E00E94EA
:10358000EF11AB01BC014C195D096E097F09403D8B
:1035900057406105710580F4C1110EC0A8950E94C5
:1035A0006C049091E6059770933049F7C1E08091E3
:1035B000E7058D13E3CFE3CF8C2FDF91CF91FF9001
:1035C000EF90DF90CF900895AF92BF92CF92DF92AD
:1035D000EF92FF920F931F93CF93DF931F92CDB77C
:1035E000DEB75C01D62EE72EFC018585811105C072
:1035F000C5010E946213811106C0F501138615866C
:10360000148680E065C040E060EFC5010E94F312BF
:1036100001E0F12CC12C11E0C5010E94A012682F1D
:10362000C50169830E94A0126981613019F481305B
:10363000B9F433C04F2D50E068131BC0F5018385EA
:10364000181730F4E40FF51F8381802349F402C07A
:10365000181731F060E0193058F4F501148708C0EC
:10366000F501EF0DF11D8381802B838361E009C09B
:10367000C12EF501E40FF51F9381802F80958923DA
:103680008383C5010E94C4121F5F000F11F4F394DD
:1036900001E0F7E0FF1508F0BFCF113408F4ADCF1B
:1036A000F501C386C11002C081E08587F5018381E1
:1036B000882309F4A2CFD5011396ED2DFE2D950197
:1036C000255F3F4F8D918193A217B307D9F781E012
:1036D0000F90DF91CF911F910F91FF90EF90DF90AE
:1036E000CF90BF90AF9008951F920F920FB60F9298
:1036F00011242F933F934F935F936F937F938F93F7
:103700009F93AF93BF93EF93FF938BE494E00E945A
:103710005115FF91EF91BF91AF919F918F917F9143
:103720006F915F914F913F912F910F900FBE0F902E
:103730001F9018951F920F920FB60F9211242F937E
:103740008F939F93EF93FF93E0915B04F0915C0460
:103750008081E0916104F091620482FD12C0908149
:10376000809164048F5F8F7320916504821751F0FC
:10377000E0916404F0E0E55BFB4F958F8093640477
:1037800001C08081FF91EF919F918F912F910F90B8
:103790000FBE0F901F901895CF93DF93CDB7DEB774
:1037A000A1970FB6F894DEBF0FBECDBF789484B555
:1037B000826084BD84B5816084BD85B5826085BD2D
:1037C00085B5816085BD80916E00816080936E00BB
:1037D00010928100809181008260809381008091AD
:1037E000810081608093810080918000816080935E
:1037F00080008091B10084608093B1008091B0001E
:1038000081608093B00080917A00846080937A0018
:1038100080917A00826080937A0080917A00816042
:1038200080937A0080917A00806880937A00109269
:10383000C100A89580E090E0892B11F00E94000063
:10384000E0915B04F0915C0482E08083E091570496
:10385000F09158041082E0915904F0915A0480E1EB
:10386000808310926304E0915F04F091600486E02D
:103870008083E0915D04F0915E04808180618083AB
:10388000E0915D04F0915E04808188608083E09126
:103890005D04F0915E04808180688083E0915D0426
:1038A000F0915E0480818F7D8083809181038D7F84
:1038B0008093810380E090E0892B11F00E9400004A
:1038C00080E2E2EFF1E0DF011D928A95E9F740E244
:1038D00050E068E870E083EC93E00E94961E10923E
:1038E000E3031092E4031092E5031092E6031092B2
:1038F000C20340E250E063E671E0CE0101960E940F
:10390000E01F60E270E0CE0101960E942B0740E1CB
:1039100050E06CE871E0CE0101960E94E01F60E18A
:1039200070E0CE0101960E942B0749E050E063E869
:1039300071E0CE0101960E94E01F69E070E0CE01C7
:1039400001960E942B0780E80E94F6158091C20321
:10395000883311F080E0F8CF80E00E94F61580E017
:103960000E94F61580E00E94F6158091E303909185
:10397000E403A091E503B091E6032DE1B695A79588
:10398000979587952A95D1F70E94F6158091E303C4
:103990009091E403A091E503B091E60335E1B6957B
:1039A000A795979587953A95D1F70E94F61580913E
:1039B000E3039091E403A091E503B091E6034DE0A9
:1039C000B695A795979587954A95D1F70E94F615D4
:1039D0008091E3039091E403A091E503B091E603A5
:1039E00055E0B695A795979587955A95D1F70E947A
:1039F000F6158091E303880F880F880F0E94F61553
:103A0000E3ECF3E060817181828193810E94A521C2
:103A10006193719381939193B3E0E33EFB0791F738
:103A200080E2E3ECF3E0A2EFB1E001900D928A9521
:103A3000E1F741E050E06AE171E0CE0181960E9439
:103A4000E01F41E050E063E071E080E893E00E9415
:103A5000E01F6FEF81E090E00E9400208091EC0178
:103A60008F788093EC011092E2011092E1018EE1D7
:103A700091E00E94A60388E09AE09093F101809380
:103A8000F0010E94EF110E94EF110E946C04A895B2
:103A90008091EB0182FFF7CF0E948507A895A8953A
:103AA0000E946C040E94030E0E94DB15F8CF0F9356
:103AB0001F93CF93DF9310924E0410924D0488EE23
:103AC00093E0A0E0B0E080934F0490935004A09363
:103AD0005104B093520427E531E030934C04209315
:103AE0004B0425EC30E0309358042093570424EC29
:103AF00030E030935A042093590420EC30E03093A6
:103B00005C0420935B0421EC30E030935E0420934E
:103B10005D0422EC30E03093600420935F0426ECD7
:103B200030E0309362042093610410926404109298
:103B3000650410926604109267041092EB041092D0
:103B4000EA048093EC049093ED04A093EE04B09308
:103B5000EF0487E691E09093E9048093E80482EE15
:103B600095E00E943F0A81EC95E00E943F0A60E0E8
:103B700088E00E94F510ECE2F3E0E491E0930306A4
:103B8000E8E1F3E0E491F0E0EE0FFF1FEA5FFC4FA5
:103B900085919491909305068093040610920E06E9
:103BA0001092100610920F06EEE0F6E0129286E0F8
:103BB000E630F807D9F78DE690E19093C005809341
:103BC000BF0583E096E09093B4058093B30510920F
:103BD000B2051092AE0589E08093AF05C1E0C093B5
:103BE000B005C093B1050FEF1FEF1093A20500932E
:103BF000A1058AE090E09093A4058093A30549E095
:103C000050E060ED72E085EA95E00E94961E109308
:103C1000A00500939F058CE390E09093280180938A
:103C200027011092F4041092F5041092F6041092F9
:103C3000F7048EE795E00E943F0AC0938405D2E026
:103C4000D09383058DE595E00E943F0A85E080933F
:103C50006305D09362058CE395E00E943F0AD09300
:103C6000420580E1809341058BE195E00E943F0A87
:103C7000D3E0D093210585E2809320058AEF94E07C
:103C80000E943F0AC0930005D093FF0483E290E0B6
:103C90009093F9048093F804DF91CF911F910F91D5
:103CA0000895FC0188279927E89421912032E9F3AF
:103CB000293010F02E30C8F32B3241F02D3239F478
:103CC000689404C00E94B41E820F911D219120535C
:103CD0002A30C0F31EF4909581959F4F08951F934D
:103CE000FC0199278827BC01E89411911032E9F36F
:103CF000193010F01E30C8F31B3251F01D3249F458
:103D0000689406C00E949F1E610F711D811D911D48
:103D1000119110531A30B0F33EF490958095709540
:103D200061957F4F8F4F9F4F1F910895FB01DC01DD
:103D300002C005900D9241505040D8F70895592F78
:103D4000482F372F262F660F771F881F991F660F62
:103D5000771F881F991F620F731F841F951F660F9F
:103D6000771F881F991F08957AE0979F902D879F4E
:103D7000802D910D112408950E94FE1E08F481E00B
:103D80000895E89409C097FB3EF49095809570954E
:103D900061957F4F8F4F9F4F9923A9F0F92F96E997
:103DA000BB279395F695879577956795B795F1110C
:103DB000F8CFFAF4BB0F11F460FF1BC06F5F7F4FA9
:103DC0008F4F9F4F16C0882311F096E911C07723BB
:103DD00021F09EE8872F762F05C0662371F096E8C4
:103DE000862F70E060E02AF09A95660F771F881F93
:103DF000DAF7880F9695879597F90895990F000837
:103E0000550FAA0BE0E8FEEF16161706E807F907AC
:103E1000C0F012161306E407F50798F0621B730B47
:103E2000840B950B39F40A2661F0232B242B252BC8
:103E300021F408950A2609F4A140A6958FEF811D6B
:103E4000811D08950E94351F0C94A61F0E94981F83
:103E500038F00E949F1F20F0952311F00C948F1FC3
:103E60000C94951F11240C94DA1F0E94B71F70F355
:103E7000959FC1F3950F50E0551F629FF001729F0F
:103E8000BB27F00DB11D639FAA27F00DB11DAA1F1E
:103E9000649F6627B00DA11D661F829F2227B00D6B
:103EA000A11D621F739FB00DA11D621F839FA00DF6
:103EB000611D221F749F3327A00D611D231F849F46
:103EC000600D211D822F762F6A2F11249F5750409D
:103ED0009AF0F1F088234AF0EE0FFF1FBB1F661F18
:103EE000771F881F91505040A9F79E3F510580F0E1
:103EF0000C948F1F0C94DA1F5F3FE4F3983ED4F3C9
:103F0000869577956795B795F795E7959F5FC1F784
:103F1000FE2B880F911D9695879597F9089597F92F
:103F20009F6780E870E060E008959FEF80EC08955F
:103F300000240A9416161706180609060895002488
:103F40000A9412161306140605060895092E039402
:103F5000000C11F4882352F0BB0F40F4BF2B11F476
:103F600060FF04C06F5F7F4F8F4F9F4F089557FDD5
:103F70009058440F551F59F05F3F71F04795880FD7
:103F800097FB991F61F09F3F79F08795089512166E
:103F900013061406551FF2CF4695F1DF08C016161A
:103FA00017061806991FF1CF8695710561050894CB
:103FB0000895E894BB2766277727CB0197F90895E2
:103FC000DC01CB01FC01F999FECF06C0F2BDE1BDD9
:103FD000F89A319600B40D9241505040B8F70895C8
:103FE000DC01A40FB51F4150504048F0CB01840FB5
:103FF000951F2E910E94012041505040D0F7089506
:10400000262FF999FECF92BD81BDF89A019700B491
:10401000021639F01FBA20BD0FB6F894FA9AF99A31
:104020000FBE0895052E97FB1EF400940E942920D0
:1040300057FD07D00E94312007FC03D04EF40C94AA
:10404000292050954095309521953F4F4F4F5F4F18
:10405000089590958095709561957F4F8F4F9F4FF4
:104060000895A1E21A2EAA1BBB1BFD010DC0AA1FB9
:10407000BB1FEE1FFF1FA217B307E407F50720F0D1
:10408000A21BB30BE40BF50B661F771F881F991F4C
:104090001A9469F760957095809590959B01AC0195
:1040A000BD01CF010895A29FB001B39FC001A39F9E
:1040B000700D811D1124911DB29F700D811D112461
:1040C000911D08955058BB27AA270E947A200C946E
:1040D000A61F0E94981F38F00E949F1F20F039F4FD
:1040E0009F3F19F426F40C94951F0EF4E095E7FB1E
:1040F0000C948F1FE92F0E94B71F58F3BA1762075D
:1041000073078407950720F079F4A6F50C94D91F5E
:104110000EF4E0950B2EBA2FA02D0B01B9019001E2
:104120000C01CA01A0011124FF27591B99F0593F26
:1041300050F4503E68F11A16F040A22F232F342F6E
:104140004427585FF3CF469537952795A795F040BC
:104150005395C9F77EF41F16BA0B620B730B840BD1
:10416000BAF09150A1F0FF0FBB1F661F771F881F89
:10417000C2F70EC0BA0F621F731F841F48F48795E1
:1041800077956795B795F7959E3F08F0B0CF9395D3
:10419000880F08F09927EE0F9795879508950E944C
:1041A000E3200C94A61F0E949F1F58F00E94981FA6
:1041B00040F029F45F3F29F00C948F1F51110C94AB
:1041C000DA1F0C94951F0E94B71F68F39923B1F36F
:1041D000552391F3951B550BBB27AA27621773072D
:1041E000840738F09F5F5F4F220F331F441FAA1FC1
:1041F000A9F335D00E2E3AF0E0E832D0915050407D
:10420000E695001CCAF72BD0FE2F29D0660F771F2A
:10421000881FBB1F261737074807AB07B0E809F010
:10422000BB0B802DBF01FF2793585F4F3AF09E3F95
:10423000510578F00C948F1F0C94DA1F5F3FE4F364
:10424000983ED4F3869577956795B795F7959F5FD8
:10425000C9F7880F911D9695879597F90895E1E024
:10426000660F771F881FBB1F621773078407BA0783
:1042700020F0621B730B840BBA0BEE1F88F7E095DE
:1042800008950E9448216894B1110C94DA1F089592
:104290000E94BF1F88F09F5798F0B92F9927B751F8
:1042A000B0F0E1F0660F771F881F991F1AF0BA95DA
:1042B000C9F714C0B13091F00E94D91FB1E0089540
:1042C0000C94D91F672F782F8827B85F39F0B93F32
:1042D000CCF3869577956795B395D9F73EF490958D
:1042E0008095709561957F4F8F4F9F4F0895AA1BC2
:1042F000BB1B51E107C0AA1FBB1FA617B70710F0D1
:10430000A61BB70B881F991F5A95A9F78095909502
:10431000BC01CD01089597FB072E16F4009407D039
:1043200077FD09D00E94772107FC05D03EF49095D7
:1043300081959F4F0895709561957F4F0895EE0F79
:10434000FF1F0590F491E02D0994692796276927AE
:10435000782787277827089581E090E0F8940C94D7
:10436000C021FB01DC014150504048F001900D920A
:104370000020C9F701C01D9241505040E0F7089558
:04438000F894FFCFDF
:10438400FFFFFF00FCE1A8A81C02D20358032A0483
:104394003203FC03C701F20373034404FFFF8903E0
:1043A4007C06016C106C103C000507000204060733
:1043B4000707070707070707070707070707070789
:1043C400070707070707070707070701035E00BC7E
:1043D400007701000000007215EE143B1519152D2D
:1043E40015B91500000000D20AA20A9A0A881079A9
:1043F40010781044696D6D61626C65204C69676862
:104404007400302E39004C6967687420696E7465D5
:104414006E73697479004D6F74696F6E2061637493
:10442400697669747900496C6C756D696E6174693B
:104434006F6E206C6576656C004D6F7665206465E3
:1044440074656374206163740054656D7065726192
:104454007475726500322E322E302D6265746100DF
:00000001FF
