:100000000C94E2000C9401050C94DA040C940A019F
:100010000C940A010C940A010C94270C0C940A010C
:100020000C940A010C940A010C940A010C940A0124
:100030000C940A010C940A010C940A010C940A0114
:100040000C9490040C940A010C94FD0E0C94D70EA1
:100050000C940A010C940A010C940A010C940A01F4
:100060000C940A010C940A01005EBCE2613FDD833E
:10007000C29C7E20A3FD1F419DC3217FFCA2401E88
:100080005F01E3BD3E6082DC237D9FC1421CFEA078
:10009000E1BF5D0380DE3C62BEE0025CDF81633D68
:1000A0007C22C09E1D43A1FF4618FAA427799BC558
:1000B00084DA3866E5BB5907DB856739BAE4065848
:1000C0001947A5FB7826C49A653BD987045AB8E638
:1000D000A7F91B45C6987A24F8A6441A99C7257B28
:1000E0003A6486D85B05E7B98CD2306EEDB3510F18
:1000F0004E10F2AC2F7193CD114FADF3702ECC9208
:10010000D38D6F31B2EC0E50AFF1134DCE90722CF7
:100110006D33D18F0C52B0EE326C8ED0530DEFB1E7
:10012000F0AE4C1291CF2D73CA947628ABF51749D7
:100130000856B4EA6937D58B5709EBB536688AD4C7
:1001400095CB2977F4AA4816E9B7550B88D6346AB7
:100150002B7597C94A14F6A8742AC896154BA9F7A7
:10016000B6E80A54D7896B35000000002400270048
:100170002A0000000000250028002B0000000008D5
:10018000000201000003040700000000000000005E
:1001900000000000230026002900040404040404D5
:1001A0000404020202020202030303030303010226
:1001B00004081020408001020408102001020408F5
:1001C0001020DE1011241FBECFEFD8E0DEBFCDBF60
:1001D00011E0A0E0B1E0ECEEF6E202C005900D9275
:1001E000AC37B107D9F723E0ACE7B1E001C01D920D
:1001F000A730B207E1F710E0C2EED0E004C02197CB
:10020000FE010E94A911C13ED107C9F70E94F10F5A
:100210000C9474130C940000CF92DF92EF92FF9233
:100220001F93CF93DF93CDB7DEB761970FB6F894E6
:10023000DEBF0FBECDBF0E948404C0908001D0906D
:100240008101E0908201F0908301DC01CB018C19E7
:100250009D09AE09BF0981369A4EA105B10508F482
:10026000E7C00E94840460938001709381018093B1
:1002700082019093830180918802909189020E946B
:10028000F70540E06CEC80918802909189020E9411
:1002900088054091830264E48091880290918902EC
:1002A0000E948805809185028823A9F0E09184024C
:1002B000E950E33040F4F0E0EE0FFF1FEA5DFE4F3F
:1002C0006081718102C06EEE72E0072E000C880B17
:1002D000990B0E94B70FE0918802F0918902138672
:1002E00015861486DF011B96CF0103961E92A81770
:1002F000B907E1F7BE01665F7F4FCF010E94390D5C
:10030000882349F067E0CE010A960E942805998962
:10031000891709F4B0C0C12CD12C9EEFE92E92ECC4
:10032000F92EA701960160917C0170917D01809169
:100330007E0190917F010E942A12882309F478C0DF
:1003400020E030E04EEF52ECC701B6010E942A12C5
:10035000882309F46DC020E030E04AEA52E4C70186
:10036000B6010E942A12882309F462C080916502B6
:10037000877088628093650280916602806E8093A8
:100380006602C0926902D0926A02E0926B02F09219
:100390006C0211E010936D0282E692E00E94590E09
:1003A000C0927C01D0927D01E0927E01F0927F01AB
:1003B00020E030E048E452E4C701B6010E942A126E
:1003C00087FF16C061E088E00E942F0F80914402F1
:1003D0008770886080934402809145028F718062AB
:1003E000809345021093480281E492E00E94590EE6
:1003F00020E030E040E752E4C701B6010E94AF11AF
:1004000087FD16C060E088E00E942F0F80914402B3
:100410008770886080934402809145028F7180626A
:10042000809345021092480281E492E00E94590EA6
:100430000E948404C0908401D0908501E0908601E0
:10044000F0908701DC01CB018C199D09AE09BF0931
:10045000813A9B4BAD40B10508F461C00E94840411
:100460006093840170938501809386019093870146
:100470000E946A0E54C0BE016F5F7F4FCE010A9684
:100480000E94C90D882341F068E0CE0101960E94C8
:10049000280599858917B1F060E874EE613854EE4B
:1004A00075070CF438CF072E000C880B990B0E94AF
:1004B000311220E030E040E05CE30E9490126B01DA
:1004C0007C012FCF698148E0649FB00111248A81AB
:1004D000282F30E0322F2227330F330F330F262BF4
:1004E000372B8A858031C9F4688570E08F81AB0134
:1004F000481B5109CA019695982F8827979587958B
:100500000E94811160517109207F53E0220F331F37
:100510005A95E1F7620F731FC1CFB901BFCF619642
:100520000FB6F894DEBF0FBECDBFDF91CF911F9104
:10053000FF90EF90DF90CF9008950F931F93CF938C
:10054000DF93CDB7DEB761970FB6F894DEBF0FBE6D
:10055000CDBFE0918802F09189021386158614863A
:10056000DF011B9633961E92AE17BF07E1F710927C
:10057000870211E0BE01665F7F4F809188029091F3
:1005800089020E94390D882309F450C067E0CE012A
:100590000A960E94280599898913ECCF80918302DD
:1005A000811126C080918802909189020E94F705EE
:1005B000BE01665F7F4F80918802909189020E9400
:1005C000CA0540E064EB80918802909189020E9404
:1005D000880580918802909189020E943505082F34
:1005E00080918802909189020E94F7050023E1F131
:1005F000BE016F5F7F4FCE010A960E94C90D009128
:100600008402CE010A960E941E0E801718F4809173
:10061000840204C0CE010A960E941E0E80938402BA
:10062000809187028F5F80938702A4CF83E08093BD
:10063000050161E084E00E947B0F60E084E00E949D
:100640002F0F61E088E00E947B0F60E088E00E944D
:100650002F0F61960FB6F894DEBF0FBECDBFDF91AE
:10066000CF911F910F91089510938302C1CFFC0188
:10067000838187708860838384818F7180628483A3
:100680006783CF0108950F931F93CF93DF93EC01FE
:100690006115710561F0FB0101900020E9F73197C8
:1006A000E61BF70BE931F10518F0E9E101C0E0E0E4
:1006B0000E2F10E0C80123E0880F991F2A95E1F75B
:1006C0009B819770892B8B838C818F718C83EE2318
:1006D00029F0A801CE0107960E94B911FE01E00F92
:1006E000F11F1782CE01DF91CF911F910F910895D5
:1006F0002BE043E06FEF80E00E942A0D6CE371E095
:100700000E9443030E94D9092CE043E06FEF80E090
:100710000E942A0D67E471E00E9443030E94D909F8
:100720004BE451E066E080E00E948C0E47E551E02A
:1007300063E082E00E948C0E42E651E063E083E0D9
:100740000C948C0ECF9380E090E0892B21F08CE00C
:1007500090E00E9400002FE043E06FEF80E00E94F5
:100760002A0D6AE471E00E94430380919902877028
:1007700080618093990280919A028F71806C80933E
:100780009A0281E080939D0210929E0286E992E097
:100790000E94D9098FE00E94A10E4AE451E062E173
:1007A0008FEF0E948C0EC091A20126E043E06FEF14
:1007B00080E00E942A0D6C2F0E9437030E94D90905
:1007C00086E00E94A10ECF910C947803FC01248155
:1007D000229526952770213011F4878108952111E3
:1007E00004C007960E94C811089580E00895FC0196
:1007F0002681233061F42581223049F40E94E603EA
:1008000061E0811101C060E084E00C942F0F089535
:1008100090E59CBD1DBC2A98E0E1F0E03197F1F72E
:100820008EBD00000DB407FEFDCF8EB5FB019FEF1E
:100830004150C8F0222361F09EBD00000DB407FEB8
:10084000FDCF8EB56115710599F380833196F0CF98
:10085000DF01119680818EBD00000DB407FEFDCF33
:100860008EB5FD01E5CF2A9AE0E1F0E03197F1F78E
:100870000895CF93DF931F92CDB7DEB7698320E051
:1008800041E0BE016F5F7F4F0E9408040F90DF912F
:10089000CF9108956FE080E20E94390460910001D9
:1008A0006F3F19F08AE20E943904299A089520E0E6
:1008B00040E060E070E00C940804089508953FB7AC
:1008C000F89480919B0190919C01A0919D01B09121
:1008D0009E0126B5A89B05C02F3F19F00196A11DCA
:1008E000B11D3FBFBA2FA92F982F8827820F911DC6
:1008F000A11DB11DBC01CD0143E0660F771F881F0C
:10090000991F4A95D1F708952FB7F89460919701F0
:10091000709198018091990190919A012FBF08954B
:100920001F920F920FB60F9211242F933F938F9324
:100930009F93AF93BF938091970190919801A0915D
:100940009901B0919A013091960126E0230F2D373D
:1009500020F40296A11DB11D05C029E8230F0396BE
:10096000A11DB11D2093960180939701909398014A
:10097000A0939901B0939A0180919B0190919C0161
:10098000A0919D01B0919E010196A11DB11D809382
:100990009B0190939C01A0939D01B0939E01BF91F8
:1009A000AF919F918F913F912F910F900FBE0F901C
:1009B0001F9018951F920F920FB60F9211242F932C
:1009C0003F934F935F936F937F938F939F93AF93D7
:1009D000BF93EF93FF93E0910801F091090109950E
:1009E000FF91EF91BF91AF919F918F917F916F9107
:1009F0005F914F913F912F910F900FBE0F901F90DD
:100A000018951F920F920FB60F9211242F933F93B8
:100A10004F935F936F937F938F939F93AF93BF9306
:100A2000EF93FF93E0910601F09107010995FF9183
:100A3000EF91BF91AF919F918F917F916F915F9156
:100A40004F913F912F910F900FBE0F901F901895CF
:100A5000DC01E0E0615038F08D91E827F0E0E859E2
:100A6000FF4FE491F7CF8E2F0895FC019081018014
:100A7000F281E02DF8948181892B81832281892F55
:100A8000809528232283A2E0B0E01197F1F721811D
:100A900082238183A0E1B0E01197F1F780817894FF
:100AA000E6E6F0E03197F1F7982381E009F480E081
:100AB0000895FC0190810180F281E02D892F8095BD
:100AC00060FF12C0F8942281822382838181892B66
:100AD0008183A0E1B0E01197F1F78281982B928396
:100AE00078948AE690E011C0F89422818223828370
:100AF0008181892B8183AEE7B0E01197F1F7828184
:100B0000982B9283789486E090E00197F1F708950E
:100B1000CF92DF92EF92FF920F931F93CF93DF93C9
:100B20001F92CDB7DEB76C01E62E08E010E0FF247F
:100B3000F39461E08F2D8E2109F460E0C6014983B2
:100B40000E945905FF0C0150110949810115110539
:100B500081F7411115C0F894D6011196ED91FC91E1
:100B6000129791818C918095892381831196ED91C3
:100B7000FC91129792818C9180958923828378943D
:100B80000F90DF91CF911F910F91FF90EF90DF9029
:100B9000CF900895CF92DF92EF92FF920F931F9321
:100BA000CF93DF931F92CDB7DEB78C01F62E40E0D6
:100BB00065E579830E948805CF2C7981D72E76014F
:100BC00088E0E80EF11CF60161916F0140E0C80178
:100BD0000E948805CE14DF04B1F70F90DF91CF910A
:100BE0001F910F91FF90EF90DF90CF900895FC013F
:100BF00090810180F281E02DF8948181292F209548
:100C00008223818378948DE7815009F130813923E3
:100C1000D9F3F8948281822382838181892B818315
:100C20007894ACEBB3E01197F1F7F8948181282325
:100C30002183A8E8B0E01197F1F78081982381E043
:100C400009F080E07894E0E3F3E03197F1F708955C
:100C50003F924F925F926F927F928F929F92AF924C
:100C6000BF92CF92DF92EF92FF920F931F93CF9399
:100C7000DF931F92CDB7DEB786E0B82E90E0E92E65
:100C800090E0F92E20E0C22E20E0D22E31E2A32EF9
:100C900021E041E060E070E087E10E94080480FD0F
:100CA00090C2BA94BB2009F48CC2E114F10421F083
:100CB00081E090E00E94000021E041E060E070E00F
:100CC00080E60E940804082F813220F082EE0E9404
:100CD000570400E021E0402F67EB72E081E60E94BC
:100CE000080460E487E20E9439049091BA02192F47
:100CF0001695169516951A3108F019E192FD03C064
:100D000087E0810F01C080E25090BB024091BC029D
:100D10003090B8028090B7029090B902081739F06D
:100D2000E114F10409F4B4CF8CE690E009C09370AB
:100D3000923049F0E114F10409F4AACF8DE690E075
:100D40000E940000A5CF8091A201881689F0632C33
:100D5000712C23E0620E711CC30149830E945E1353
:100D60004981881629F0682DC3010E9466134981C4
:100D7000052D077080919401806880939401809183
:100D8000A10198124DC02091BA02822F86958695B6
:100D900086958A3108F089E138E0839FC0011124EB
:100DA0002770822B8093BA02E12FF0E0E954FD4FC7
:100DB00017828091BB0283FF19C0E7EBF2E0A6E93E
:100DC000B2E08A2D01900D928A95E1F780919A0206
:100DD000877F806180939A02909297023092980266
:100DE00086E992E049830E94D90949818091BB023A
:100DF00084FD11C0033079F49091BC029F3009F05A
:100E0000BBC046CF913009F448C19A3009F464C19F
:100E10009C3109F43DCF87EB92E00E94F70338CF75
:100E20002FEF92128FC0033009F07EC080919301A2
:100E300082FF5DC0473009F05AC08091A201381688
:100E400009F426CF0E94840400918F011091900133
:100E50002091910130919201DC01CB01801B910B1B
:100E6000A20BB30B80319742A105B10518F1809117
:100E7000930183FD0DCF9091A10191115BC110925F
:100E8000950180919301877F809393011091950143
:100E90001F3F09F4FDCE0E94840460938F0170937C
:100EA000900180939101909392018091A301181376
:100EB0001093A3010E94840460938F0170939001AA
:100EC00080939101909392010E948404737088270B
:100ED00099270E94B70F1091A30128E043E06FEF1C
:100EE000832D0E942A0D612F0E94370342C0483093
:100EF00009F4CECE4431C1F48091A201881214C00D
:100F00000E9484047370882799270E94B70F10915C
:100F1000A20125E143E06FEF832D0E942A0D612F8E
:100F20000E9437030E9437098091A2018812B0CE37
:100F30008091A101381609F440C18091930182FD8E
:100F400030C13BC18091930182FFA2CE033079F47E
:100F50004851423060F487EB92E00E94E6038E3FF6
:100F600031F061E0680F87EB92E00E94370387EB76
:100F700092E00E9437098CCE443039F487EB92E03E
:100F80000E94E6030E94320A83CE4830D9F41091C1
:100F9000930110FF7DCE87EB92E00E94E6038F3F26
:100FA00009F476CE8F5F8F3F09F472CE9091A30142
:100FB000891708F06DCE11FD6BCE8093A30130929E
:100FC000A20166CE483141F429E143E06FEF832D61
:100FD0000E942A0D61E088CF493171F4809193011C
:100FE00083FF56CE877F8093930187EB92E00E9428
:100FF000E603809395014CCE2091B802211196C052
:101000009D3099F480E090E0892B21F08BE090E016
:101010000E94000098E088E10FB6F894A8958093AC
:1010200060000FBE90936000FFCF9B3189F487EB87
:1010300092E00E94E60391E0811101C090E090935C
:10104000A001E114F10409F423CE8AE090E078CE07
:101050009630C1F48091BE0261E0882319F08D348E
:1010600009F060E06093880183E091E069830E9469
:101070005E136981681709F40BCE83E091E00E944A
:10108000661306CE933119F40E94A20301CE923169
:1010900009F0B8CE0E946A0EFBCDC114D10409F448
:1010A000F7CD829586958770853049F46091BE02B0
:1010B0007091BF028091C0029091C1020AC081115B
:1010C00005C08EEB92E00E94E61103C060E070E084
:1010D000CB010E940000DCCD8091BE02833409F078
:1010E000D7CDE114F10421F08DE090E00E940000E2
:1010F00003E010E0C8010E945E138F3F21F06FEF04
:10110000C8010E9466130F5F1F4F033081E018076C
:1011100089F72AE043E06FEF80E00E942A0D6EE637
:1011200071E00E9443030E94D909B2CD9A3109F0BF
:1011300072CEAECD8860809393019092950128E1A4
:1011400043E06FEF80E00E942A0D61E00E943703C8
:101150000E9437090E9484042B013C011092BC02BA
:1011600010E00E948404DC01CB0184199509A609D2
:10117000B709803D9740A105B10508F082CE111155
:1011800080CE8091930184FD0E9428068091BB024D
:101190008770833031F711E08091BC02893101F70B
:1011A000E0CF87EB92E00E943709033009F470CD5D
:1011B0008091A20188126CCD2ECE033009F02BCE87
:1011C00067CD0F90DF91CF911F910F91FF90EF901E
:1011D000DF90CF90BF90AF909F908F907F906F9057
:1011E0005F904F903F900895E3E9F1E08081846043
:1011F0008083818180788183089580919401982FE4
:101200009077903759F0982F92959F709F5F9770C5
:101210009295907F8F78892B809394018091930190
:101220008B7F8F7E8093930180E090E0892B21F06B
:1012300087E690E00E94000029986CE080E20C9420
:101240003904E3E9F1E08081877F8F7E808310920B
:101250008F0110929001109291011092920143E03F
:1012600050E060E070E081EA91E00C944E130F933F
:101270001F93CF93DF938C01FC01C2818091930176
:1012800080FF04C0CF3F09F05DC014C0C11103C08E
:10129000C091A2010FC0CF3F69F08C2F90E0039660
:1012A0000E945E138F3F29F48091A201F801908182
:1012B0009813C82F8091A101F8018083438142FDDA
:1012C00006C0469546954695D7E0D40F01C0D0E2BA
:1012D00080E090E0892B21F080E090E00E94000007
:1012E000299880E091E00197F1F76EE080E20E949A
:1012F000390484EC90E00197F1F76C2F8AE20E94A8
:1013000039046C2F80E30E94390481EE0E94570457
:10131000CF3F11F080EA01C080EB4D2FD13208F0B1
:1013200040E220E0B8010E940804299A00E010E0A1
:101330008FEF0E945704D82F807331F401501109A8
:10134000B9F702C0D0E02FC0299860E387E20E947D
:101350003904D4FF03C081EE0E9457040E944A045E
:10136000D5FBDD27D0F991E0CF3F09F090E0D92BF4
:101370008091A201C81317C0D11110C080E090E085
:10138000892B21F085E690E00E9400008091940175
:1013900091E0980F9F70807F892B03C0809194010A
:1013A000807F809394018D2FDF91CF911F910F91BA
:1013B00008952091930122FD0C94370980E008954F
:1013C00080E090E0892B21F088E090E00E9400000E
:1013D0008FEF8093950180919301886080939301B2
:1013E00028E143E06FEF80E00E942A0D61E00E9457
:1013F00037030C9437098091A1018F3FA1F480E05D
:1014000090E0892B21F086E090E00E94000023E02C
:1014100043E06FEF80E00E942A0D6AE471E00E94D1
:1014200043030C943709089580E090E0892B21F064
:1014300084E090E00E94000080919301897F8160A8
:10144000809393018FEF8093A3018093A20127E003
:1014500043E06FEF0E942A0D6AE471E00E944303AB
:101460000C943709CF93C82F8FEF8C0F8E3FD0F499
:10147000C093A101C093000163E082E20E9439049D
:1014800061E081E20E9439040E944A0480E090E019
:101490000E945E13C81799F06C2F80E090E00E94C4
:1014A00066130DC080E090E0892B21F08EE690E07D
:1014B0000E9400008FEF8093A10180E001C081E0D5
:1014C000CF910895E0918901F0918A010280F38122
:1014D000E02D309709F009958091930184FD0C94DB
:1014E000280608950F931F930E94840400918B0196
:1014F00010918C0120918D0130918E01601B710B38
:10150000820B930B1F910F9108959C01809189018B
:1015100090918A018217930751F0909193019F71E6
:101520009093930130938A012093890105C08091A3
:101530009301805E80939301E0918901F0918A018B
:101540000190F081E02D309709F009950E94840404
:1015500060938B0170938C0180938D0190938E0129
:1015600008950F931F930E94720A2091940120778F
:10157000203729F000E117E220E030E004C000E667
:101580001AEE20E030E0061717072807390730F475
:1015900081E091E01F910F910C94850A1F910F91AA
:1015A0000895809194018F708B3020F082E291E059
:1015B0000C94850A0895809195018F3FA1F00E94B7
:1015C000840460938F0170939001809391019093B4
:1015D0009201809195019091A30189138093A301B9
:1015E0008EE191E01BC00E94720A613D7740810547
:1015F0009105B0F080919301803618F48AE191E072
:101600000DC0877F8093930180E090E0892B21F0CB
:101610008AE690E00E94000082E291E00C94850A44
:1016200008958091A1018F3F59F080E090E0892BCF
:1016300021F087E090E00E9400008AE191E018C06C
:101640000E94720A613D77408105910598F0809172
:101650009301803618F486E191E00AC080E090E0C2
:10166000892B21F089E690E00E94000082E191E060
:101670000C94850A08950E94720A613D77408105A5
:10168000910520F48091930181FF08958091A2013A
:101690008F3F81F0809193018E7F8093930180E052
:1016A00090E0892B21F085E090E00E94000086E127
:1016B00091E011C080919301803618F482E291E0AC
:1016C0000AC080E090E0892B21F088E690E00E943B
:1016D000000082E191E00C94850ACF93219A229A2E
:1016E000CFB7F89480919F01811127C0E4EAF1E01F
:1016F0008491E8EBF1E09491E82FF0E0EE0FFF1F0A
:10170000E859FE4FA591B491EC91E92321F461E0F1
:101710008AE00E942F0F61E08AE00E947B0F8CB567
:1017200080618CBD8CB580648CBD61E08DE00E94D1
:101730007B0F61E08BE00E947B0F80919F018F5FA8
:1017400080939F01CFBF29982A9A6EE080E20E9481
:10175000390465E070E080E090E00E94B70F63E03C
:1017600083E20E9439046FE584E20E9439046CE44C
:1017700085E20E94390467E286E20E94390463E749
:1017800080E50E94390466E08DE30E94390421E07F
:1017900041E060E070E086E00E940804C82F21E08C
:1017A00041E060E070E085E00E9408048C3409F0BC
:1017B00040C0C732F1F562E082E20E94390460E085
:1017C00081E20E94390463E08CE30E9439048FEFC8
:1017D00080930D0120E045E06DE071E08BE20E9416
:1017E000080420E045E06DE071E08AE20E94080410
:1017F00020E045E06DE071E080E30E94080482EEA5
:101800000E94570481EE0E94570460E787E20E941D
:101810003904809193018061809393018091A101AB
:101820008F3F81F00E94320A81110CC082E191E069
:101830000BC080E090E0892BC9F387E690E00E941E
:101840000000F4CF82E291E0CF910C94850A1F92C0
:101850000F920FB60F9211240F900FBE0F901F9092
:101860001895CF92DF92EF92FF920F931F93CF9331
:10187000DF936C017A018B01C0E0D0E0CE15DF056B
:1018800089F0D8016D918D01D601ED91FC91019007
:10189000F081E02DC6010995892B11F47E0102C06B
:1018A0002196ECCFC701DF91CF911F910F91FF904F
:1018B000EF90DF90CF900895FC01918D828D981765
:1018C00061F0828DDF01A80FB11D5D968C91928D24
:1018D0009F5F9F73928F90E008958FEF9FEF089521
:1018E000FC01918D828D981731F0828DE80FF11DEA
:1018F000858D90E008958FEF9FEF0895FC01918D05
:10190000228D892F90E0805C9F4F821B91098F73FD
:101910009927089584EA91E00E947E0C21E0892BAA
:1019200009F420E0822F0895FC01848DDF01A80FC7
:10193000B11DA35ABF4F2C91848D90E001968F73F7
:101940009927848FA689B7892C93A089B1898C9116
:1019500080648C93938D848D981306C00288F389DC
:10196000E02D80818F7D80830895EF92FF920F9309
:101970001F93CF93DF93EC0181E0888F9B8D8C8D3B
:10198000981305C0E889F989808185FD24C0F62E69
:101990000B8D10E00F5F1F4F0F731127E02E8C8D02
:1019A000E8120CC00FB607FCFACFE889F9898081EC
:1019B00085FFF5CFCE010E94940CF1CF8B8DFE01F7
:1019C000E80FF11DE35AFF4FF0820B8FEA89FB8984
:1019D0008081806207C0EE89FF896083E889F98988
:1019E00080818064808381E090E0DF91CF911F91BE
:1019F0000F91FF90EF900895CF93DF93EC01888DC6
:101A00008823C9F0EA89FB89808185FD05C0A88902
:101A1000B9898C9186FD0FC00FB607FCF5CF808188
:101A200085FFF2CFA889B9898C9185FFEDCFCE01D2
:101A30000E94940CE7CFDF91CF91089580E090E071
:101A4000892B29F00E948A0C81110C9400000895C2
:101A50000E94B411E6E9F2E09091A10191838283A2
:101A60006683258347708481807E482B4483CF0121
:101A70000895AF92BF92CF92DF92EF92FF920F93B1
:101A80001F93CF93DF931F92CDB7DEB75C01D62EA5
:101A9000E72EFC018585811105C0C5010E94F7056F
:101AA000811106C0F50113861586148680E065C095
:101AB00040E060EFC5010E94880501E0F12CC12CD7
:101AC00011E0C5010E943505682FC50169830E9498
:101AD00035056981613019F48130B9F433C04F2D77
:101AE00050E068131BC0F5018385181730F4E40F2C
:101AF000F51F8381802349F402C0181731F060E09C
:101B0000193058F4F501148708C0F501EF0DF11DE7
:101B10008381802B838361E009C0C12EF501E40F2E
:101B2000F51F9381802F809589238383C5010E94AF
:101B300059051F5F000F11F4F39401E0F7E0FF1562
:101B400008F0BFCF113408F4ADCFF501C386C11042
:101B500002C081E08587F5018381882309F4A2CF43
:101B6000D5011396ED2DFE2D9501255F3F4F8D91EB
:101B70008193A217B307D9F781E00F90DF91CF913E
:101B80001F910F91FF90EF90DF90CF90BF90AF909B
:101B90000895AF92BF92CF92DF92EF92FF920F9390
:101BA0001F93CF93DF93EC018B018091880290917A
:101BB00089020E94F7058823A1F1BE018091880265
:101BC000909189020E94CA0540E06EEB80918802E4
:101BD000909189020E948805E801680189E0C80E99
:101BE000D11CA0908802B090890288E0E82EF12CE8
:101BF00001E010E0C5010E9435058111102B000F96
:101C000081E0E81AF108B1F71993CC15DD0549F721
:101C100080918802909189020E94F70591E08130BD
:101C200009F090E0892FDF91CF911F910F91FF90E4
:101C3000EF90DF90CF90BF90AF900895CF93DF9358
:101C4000CDB7DEB729970FB6F894DEBF0FBECDBF74
:101C5000FC012081203119F1BE016F5F7F4F0E948E
:101C6000C90D882379F068E0CE0101960E9428050D
:101C70009985891307C008C0803458F08F3569F002
:101C80008F3769F080E00CC08D818F33A9F78AE02F
:101C900007C08F31B9F789E003C08BE001C08CE049
:101CA00029960FB6F894DEBF0FBECDBFDF91CF915E
:101CB0000895FC018091A10181839481907F9160BE
:101CC00094838091A001882319F0CF010C94D90945
:101CD00080E00895CF92DF92EF92FF920E94720A05
:101CE0006B017C0126E143E06FEF80E00E942A0D4A
:101CF000FC0184818F71806A848383818770806214
:101D00008383C782D086E186F286CF01FF90EF9071
:101D1000DF90CF900C94D909CF93DF93262F8F3F7C
:101D200011F0EA0102C0C1E7D1E040E0682F80E095
:101D30000E942A0DBE010E944303DF91CF910C94B3
:101D4000D909CF92DF92EF92FF92CF93DF93D82FF2
:101D50000E9484046B017C0181E0D11180E08093BA
:101D6000BC02C0E00E948404AB01BC014C195D09B7
:101D70006E097F09403D57406105710580F4C1112E
:101D80000EC0A8950E94620A9091BB029770933092
:101D900049F7C1E08091BC028D13E3CFE3CF8C2FD4
:101DA000DF91CF91FF90EF90DF90CF9008951F9239
:101DB0000F920FB60F9211242F933F934F935F937F
:101DC0006F937F938F939F93AF93BF93EF93FF9303
:101DD00084EA91E00E94940CFF91EF91BF91AF9142
:101DE0009F918F917F916F915F914F913F912F9133
:101DF0000F900FBE0F901F9018951F920F920FB665
:101E00000F9211242F938F939F93EF93FF93E09161
:101E1000B401F091B5018081E091BA01F091BB016C
:101E200082FD12C090818091BD018F5F8F732091E0
:101E3000BE01821751F0E091BD01F0E0EC55FE4F7C
:101E4000958F8093BD0101C08081FF91EF919F919B
:101E50008F912F910F900FBE0F901F90189590E0CB
:101E6000FC01E458FE4F3491FC01E255FE4F2491F1
:101E7000FC01E656FE4FE491EE2309F43BC0332308
:101E800039F1333091F038F43130A9F0323001F5C6
:101E900084B58F7D12C0373091F03830A1F03430E6
:101EA000B9F4809180008F7D03C0809180008F778E
:101EB000809380000DC084B58F7784BD09C0809168
:101EC000B0008F7703C08091B0008F7D8093B00009
:101ED000F0E0EE0FFF1FEE58FE4FA591B4918FB7C3
:101EE000F894EC91611103C020952E2301C02E2B94
:101EF0002C938FBF0895CF93DF9390E0FC01E255C0
:101F0000FE4F2491FC01E656FE4F8491882361F137
:101F100090E0880F991FFC01E859FE4FC591D491BC
:101F2000FC01EE58FE4FA591B491611109C09FB715
:101F3000F8948881209582238883EC912E230BC00E
:101F4000623061F49FB7F8943881822F80958323A3
:101F50008883EC912E2B2C939FBF06C08FB7F894EB
:101F6000E8812E2B28838FBFDF91CF9108958F9228
:101F70009F92AF92BF92CF92DF92EF92FF926B014E
:101F80007C010E945F044B015C01C114D104E10497
:101F9000F104F1F00E945F04DC01CB01881999097A
:101FA000AA09BB09883E9340A105B10570F321E061
:101FB000C21AD108E108F10888EE880E83E0981E65
:101FC000A11CB11CC114D104E104F10419F7DDCF47
:101FD000FF90EF90DF90CF90BF90AF909F908F9049
:101FE0000895789484B5826084BD84B5816084BD91
:101FF00085B5826085BD85B5816085BD80916E00A7
:10200000816080936E0010928100809181008260D7
:102010008093810080918100816080938100809114
:1020200080008160809380008091B1008460809303
:10203000B1008091B00081608093B00080917A00FF
:10204000846080937A0080917A00826080937A0025
:1020500080917A008E7F80937A0080917A008068E8
:1020600080937A001092C100A89580E090E0892BBF
:1020700011F00E940000E091B401F091B50182E0FE
:102080008083E091B001F091B1011082E091B20142
:10209000F091B30188E080831092BC01E091B80117
:1020A000F091B90186E08083E091B601F091B7012B
:1020B000808180618083E091B601F091B7018081D9
:1020C00088608083E091B601F091B70180818068DB
:1020D0008083E091B601F091B70180818F7D80838C
:1020E00080E090E0892B11F00E94000041E050E078
:1020F00063E071E088E891E00E944E1381E090E097
:102100000E945E138F3F29F06FEF81E090E00E9404
:102110006613809194018F788093940110928A01C4
:102120001092890181E091E00E94850A80919301DB
:1021300082FD04C0A8950E94620AF8CF0E94A20303
:1021400080E090E0892B21F089E090E00E9400007F
:1021500081E08093A001C4E02AE143E06FEF80E0DA
:102160000E942A0D62E00E9437030E94D9098BE188
:102170000E94A10E811102C0C15071F70E949D0200
:10218000A895A8950E94620A0E940C010E941E0D4B
:10219000F8CFCF93DF93FC01108211821282148258
:1021A00015821682DC0117968AE1ED0119928A9553
:1021B000E9F782E08383DF91CF910895CF93109266
:1021C000A7011092A60188EE93E0A0E0B0E0809312
:1021D000A8019093A901A093AA01B093AB0180E359
:1021E00091E09093A5018093A40185EC90E09093F9
:1021F000B1018093B00184EC90E09093B30180939F
:10220000B20180EC90E09093B5018093B40181EC31
:1022100090E09093B7018093B60182EC90E09093A8
:10222000B9018093B80186EC90E09093BB01809354
:10223000BA011092BD011092BE011092BF0110921E
:10224000C00187EB92E00E94C91086E992E00E94EB
:10225000C91060E087E00E947B0FE5EBF1E0E491BC
:10226000E093F902E1EAF1E0E491F0E0EE0FFF1F04
:10227000E057FE4F859194919093FB028093FA0270
:10228000109204031092060310920503E4E0F3E0B9
:10229000129282E0EC3FF807D9F78EE594E0909334
:1022A00095028093940289EF92E090938902809343
:1022B0008802109287021092830289E08093840240
:1022C000C1E0C0938502C093860282E692E00E943C
:1022D000C910109268021092670288ED92E00E9485
:1022E000C910C093DE0286E28093DD0281E492E0B1
:1022F0000E94C91082E08093470280934602CF91EA
:10230000089597FB072E16F4009407D077FD09D0A7
:102310000E94951107FC05D03EF4909581959F4F42
:102320000895709561957F4F0895AA1BBB1B51E1DD
:1023300007C0AA1FBB1FA617B70710F0A61BB70B35
:10234000881F991F5A95A9F780959095BC01CD01DA
:102350000895EE0FFF1F0590F491E02D09940E945F
:102360006C1208F48FEF089581E090E0F8940C94DB
:102370007413FB01DC014150504048F001900D9274
:102380000020C9F701C01D9241505040E0F7089568
:10239000FC0188279927E89421912032E9F329301C
:1023A00010F02E30C8F32B3241F02D3239F46894FE
:1023B00004C00E942212820F911D219120532A30C5
:1023C000C0F31EF4909581959F4F08951F93FC01D3
:1023D00099278827BC01E89411911032E9F319304C
:1023E00010F01E30C8F31B3251F01D3249F46894CE
:1023F00006C00E940D12610F711D811D911D11916A
:1024000010531A30B0F33EF4909580957095619515
:102410007F4F8F4F9F4F1F910895592F482F372F70
:10242000262F660F771F881F991F660F771F881F3B
:10243000991F620F731F841F951F660F771F881FD8
:10244000991F08957AE0979F902D879F802D910D79
:10245000112408950E946C1208F481E00895E89414
:1024600009C097FB3EF490958095709561957F4FDC
:102470008F4F9F4F9923A9F0F92F96E9BB2793958A
:10248000F695879577956795B795F111F8CFFAF49A
:10249000BB0F11F460FF1BC06F5F7F4F8F4F9F4FCB
:1024A00016C0882311F096E911C0772321F09EE829
:1024B000872F762F05C0662371F096E8862F70E08F
:1024C00060E02AF09A95660F771F881FDAF7880F69
:1024D0009695879597F90895990F0008550FAA0BBF
:1024E000E0E8FEEF16161706E807F907C0F0121627
:1024F0001306E407F50798F0621B730B840B950B2A
:1025000039F40A2661F0232B242B252B21F408957E
:102510000A2609F4A140A6958FEF811D811D08951B
:102520000E94A3120C9414130E94061338F00E9408
:102530000D1320F0952311F00C94FD120C9403134D
:1025400011240C9448130E94251370F3959FC1F336
:10255000950F50E0551F629FF001729FBB27F00D51
:10256000B11D639FAA27F00DB11DAA1F649F6627A6
:10257000B00DA11D661F829F2227B00DA11D621FF5
:10258000739FB00DA11D621F839FA00D611D221FAF
:10259000749F3327A00D611D231F849F600D211D93
:1025A000822F762F6A2F11249F5750409AF0F1F016
:1025B00088234AF0EE0FFF1FBB1F661F771F881F7F
:1025C00091505040A9F79E3F510580F00C94FD12A8
:1025D0000C9448135F3FE4F3983ED4F386957795C7
:1025E0006795B795F795E7959F5FC1F7FE2B880F25
:1025F000911D9695879597F9089597F99F6780E8BB
:1026000070E060E008959FEF80EC089500240A9444
:102610001616170618060906089500240A941216BD
:102620001306140605060895092E0394000C11F4F0
:10263000882352F0BB0F40F4BF2B11F460FF04C09D
:102640006F5F7F4F8F4F9F4F089557FD9058440FF6
:10265000551F59F05F3F71F04795880F97FB991F01
:1026600061F09F3F79F087950895121613061406BE
:10267000551FF2CF4695F1DF08C01616170618064B
:10268000991FF1CF86957105610508940895E89426
:10269000BB2766277727CB0197F90895DC01CB018B
:1026A000FC01F999FECF06C0F2BDE1BDF89A319662
:1026B00000B40D9241505040B8F70895F999FECFFB
:1026C00092BD81BDF89A992780B50895262FF99972
:1026D000FECF1FBA92BD81BD20BD0FB6F894FA9A05
:0C26E000F99A0FBE01960895F894FFCF00
:1026EC00FF21096D0B015D045D04FFFFFF00FCE1A0
:1026FC00A8A8FD08B10AFB09110BE009DB0AF408D4
:10270C00D10A140A3B0B5E00BC00770100000000EC
:10271C00B50C310C7E0C5C0C700CFC0C426F696CB3
:10272C00657254656D7000302E3400426F696C65B3
:10273C00722074656D7000426F696C6572206C65F7
:10274C006400426F696C65722068656174004F4B60
:0C275C0000322E302E312D6265746100B9
:1078000011E0A0E0B1E0E6EFFFE702C005900D92C5
:10781000A630B107D9F721E0A6E0B1E001C01D9282
:10782000AE34B207E1F7CDB7DEB76197DEBFCDBFAB
:10783000112484B78093270114BE88E180936000EF
:1078400089E280936000259A86E020E295B1922734
:1078500095B93FE748E391E0315040409040E1F76F
:1078600000C00000815091F78091270181FD13C075
:107870008EE284B981E58CBD81E08DBD812C912C97
:107880005524539411E0CC24CA94DC2CAA24A3944C
:1078900072E0B72EFDC082E08093C00088E1809343
:1078A000C10086E08093C20089E18093C400E12C8E
:1078B000F12CC12CD12CAA24AA94BA2C01E0A895B1
:1078C0000AD3813471F407D3898B11D38989823823
:1078D00011F482E053C0813811F485E64FC083E093
:1078E0004DC0823411F484E103C0853419F485E07D
:1078F0000AD363C0853541F4EED2E82EECD2F12CE8
:10790000F82AEE0CFF1C58C0863521F484E0FBD227
:1079100080E034C08436E1F4DED2DDD2882EDBD2C2
:10792000C80CD11C912C981480F4D5D2182FD3D226
:10793000F701E90DF11D212F30E0382B090107BFB8
:10794000E895112493949394EECFC7018CD134C061
:10795000843761F4C0D2BFD2182FBDD2C8D2F7018C
:1079600085917F01B1D21150D1F728C0853741F4FC
:10797000BED28EE1A9D285E9A7D28FE0A5D21DC0E3
:107980008135D1F4BA82A982BC82AB82C60134E0CF
:10799000969587953A95E1F79E838D83C60175D1BB
:1079A00098878F8348E050E06BE171E0CE0101964B
:1079B00001D39DD211E002C09AD210E080E184D2BE
:1079C000112309F47CCF54CF43E050E060E070E035
:1079D00089E291E0DFD248E050E06BE171E0CE0156
:1079E0000196D8D229982A9A63E083E29AD16CE46E
:1079F00085E297D167E286E294D163E780E591D191
:107A000064E08DE38ED161E082E28BD161E081E2BE
:107A100088D161E08CE385D121E041E060E070E055
:107A200086E058D1873209F008C180912A018093FD
:107A3000280110924D018FEF80932A0180932B0132
:107A400003E22AE047E06FEF65D260E084E269D1AB
:107A500060E08EEF83D180912A018F3F09F4EDC061
:107A60008091290181508E3F08F46CC003E222E02E
:107A700043E06FEF80E04ED263E084E06FD1882373
:107A800079F383E391E054D2682F80E090E0A1D2B3
:107A9000F999FECF99CF46E050E063E371E08DE0C5
:107AA00091E063D2892B79F5C3018150904F082F63
:107AB0000295007740E050E0602F70E0DA01A45DAD
:107AC000BE4FFA01E60FF71F1E962C911E9730E06D
:107AD000322F22271D96AC912A2B090157BEE8951B
:107AE00011244E5F5F4F4031510541F7011106C02F
:107AF00044E0880F991F4A95E1F7B5D0E114F104ED
:107B000009F482C0370189859A8590930E0180938C
:107B10000D018B859C859093100180930F0173015B
:107B200021E0E21AF108F0921201E092110104EC56
:107B300022E342E06FEF80E0EDD168E083E00ED118
:107B40008111A9CF6FE584E2ECD010930D01109262
:107B50000E0103EC22E14FE06FEF80E0DBD160E04B
:107B60008FE0FCD08D819E8124E0880F991F2A959B
:107B7000E1F78BD098878F8388E0FE013196ADE0E6
:107B8000B1E001900D928A95E1F7B0921601A092B2
:107B9000150104EC22E540E06FEF80E0BBD163E02B
:107BA00081E0DCD0882309F448C088E0E3E3F1E019
:107BB000DE01199601900D928A95E1F748E050E0B8
:107BC000BE01675F7F4FCE010196CFD1892BA9F10E
:107BD00080913701909138018038974070F588E0A6
:107BE000FE013996DE01119601900D928A95E1F71A
:107BF000D886CF8248E050E06BE171E0CE0101967B
:107C0000D9D16D847E847FCF8D859E8534E0880FA9
:107C1000991F3A95E1F739D02F8538898217930754
:107C200021F01E861D86188A1F8648E050E06BE111
:107C300071E0CE010996BED12BCF8D819E8124E0CB
:107C4000880F991F2A95E1F720D02F813885821758
:107C5000930709F01DCF1CBCA89580912701282E01
:107C6000F401099515CF23E0FC0127BFE89507B67D
:107C700000FCFDCF25E0FC0127BFE89507B600FC1E
:107C8000FDCF81E187BFE8950895AC01413088E7D9
:107C9000580710F040E058E7E0E0F0E08FEF9FEF8A
:107CA00041155105B1F02591822768E0DC01B695B8
:107CB000A7959C01217033273195219531092170B9
:107CC000307AC9018A279B27615081F741505109B9
:107CD000E7CF08952A988EBD0DB407FEFDCF8EB56F
:107CE0009FEF4150D0F0222369F09EBD0DB407FEF6
:107CF000FDCF8EB561157105A1F3DB018C936F5F2C
:107D00007F4FEFCFFB013196DB018C918EBD0DB41F
:107D100007FEFDCF8EB5BF01E4CF2A9A089520E07B
:107D2000D9CFCF93DF931F92CDB7DEB7698320E021
:107D300041E0BE016F5F7F4FCDDF0F90DF91CF91AC
:107D4000089540E060E070E082EEE9DF40E060E04E
:107D500070E081EEE4DF60E787E2E3CFEF92FF922D
:107D60000F931F93CF93DF93F82ED62FEE24EA9430
:107D7000A895C0910901C695C695C695C95F109191
:107D80002A0129986EE080E2CCDFDBDF109300014E
:107D900045E060E071E08AE2C2DF45E060E071E06A
:107DA00080E3BDDF4C2F66E071E080EAB8DF299AFE
:107DB0002A98EEBC0DB407FEFDCFCEB52A9A8C2FC3
:107DC0008073B1F3299860E387E2ABDFC4FF05C09D
:107DD00040E060E070E081EEA2DF6FE080E2A1DFD2
:107DE000609129018AE29DDFACDF299A0FEF1FEF36
:107DF000A89521E041E060E070E087E16BDF80FF63
:107E000002C04FEF44C021E041E060E070E080E656
:107E100061DF813230F040E060E070E082EE7FDFD1
:107E200080E021E0482F6CE271E081E653DF89DFDA
:107E300090912E01809129019813E3CF4091310157
:107E4000809130018770833011F5483001F58091C1
:107E50002D0150912801851303C091E090934D01AD
:107E600090913301692F70E020912B0130E0215077
:107E700031096217730724F420914D01222311F078
:107E8000851305C09F5F90932B0180932A0191E099
:107E90004F1190E088E28A95F1F70150110921F421
:107EA000892FD11105C009C0992309F4A1CF04C0BD
:107EB000D150992309F45CCF81E0DF91CF911F91DC
:107EC0000F91FF90EF9008959091C00095FFFCCF27
:107ED0008093C60008958091C00087FFFCCF8091F9
:107EE000C00084FD01C0A8958091C6000895F3DF0D
:107EF000803239F088E18093600088E080936000F0
:107F0000FFCF84E1E1CFCF93C82FE5DFC150E9F780
:107F1000CF91EDCF0F9390912901E6E0F1E09183AD
:107F20009083828366834583048323830F9108951E
:107F3000FC0188279927E89421912032E9F3293020
:107F400010F02E30C8F32B3239F02D3231F4689412
:107F500003C018D0820F911D219120532A30C8F3FD
:107F60001EF4909581959F4F0895FB01DC0104C09C
:107F70008D910190801921F441505040C8F7881B21
:107F8000990B08957AE0979F902D879F802D910DF2
:107F900011240895DC01CB01FC01F999FECF06C044
:107FA000F2BDE1BDF89A319600B40D9241505040B7
:107FB000B8F70895DC01A40FB51F4150504040F0C0
:107FC000CB01840F951F2E9105D041505040D8F71A
:107FD0000895262FF999FECF92BD81BDF89A019799
:107FE00000B4021639F01FBA20BD0FB6F894FA9A01
:067FF000F99A0FBE08958E
:067FF60000FCE1A8A80058
:040000030000780081
:00000001FF
