:100000000C944F070C94E7140C94C0140C947707CD
:100010000C9477070C9477070C94F80B0C947707E3
:100020000C9477070C9477070C9477070C94770758
:100030000C9477070C9477070C9477070C94770748
:100040000C9476140C9477070C94641C0C943E1C4E
:100050000C9477070C9477070C9477070C94770728
:100060000C9477070C9477072A24F2232A242A2455
:10007000FD230F2420244E414E494E495459494EE8
:1000800046CDCCCC3D0AD7233C17B7D13877CC2B03
:10009000329595E6241FB14F0A000020410000C8A8
:1000A0004200401C4620BCBE4CCA1B0E5AAEC59D29
:1000B000740000000023002600290000000000005A
:1000C0003E5B4F5B3E3E6B4F6B3E1C3E7C3E1C18C6
:1000D0003C7E3C181C577D571C1C5E7F5E1C001824
:1000E0003C1800FFE7C3E7FF0018241800FFE7DB18
:1000F000E7FF30483A060E2629792926407F050574
:1001000007407F05253F5A3CE73C5A7F3E1C1C08B0
:10011000081C1C3E7F14227F22145F5F005F5F0675
:10012000097F017F006689956A606060606094A2C3
:10013000FFA29408047E040810207E201008082ADC
:100140001C08081C2A08081E101010100C1E0C1E7B
:100150000C30383E3830060E3E0E0600000000001F
:1001600000005F00000007000700147F147F1424C4
:100170002A7F2A1223130864623649562050000849
:10018000070300001C2241000041221C002A1C7FA2
:100190001C2A08083E08080080703000080808087B
:1001A00008000060600020100804023E5149453EEE
:1001B00000427F400072494949462141494D331868
:1001C00014127F1027454545393C4A4949314121A0
:1001D0001109073649494936464949291E00001484
:1001E00000000040340000000814224114141414CC
:1001F00014004122140802015909063E415D594E7E
:100200007C1211127C7F494949363E414141227F8F
:100210004141413E7F494949417F090909013E4128
:100220004151737F0808087F00417F410020404111
:100230003F017F081422417F404040407F021C0262
:100240007F7F0408107F3E4141413E7F0909090636
:100250003E4151215E7F0919294626494949320309
:10026000017F01033F4040403F1F2040201F3F408F
:1002700038403F6314081463030478040361594948
:100280004D43007F4141410204081020004141419B
:100290007F04020102044040404040000307080080
:1002A00020545478407F2844443838444444283803
:1002B0004444287F385454541800087E090218A476
:1002C000A49C787F0804047800447D4000204040CE
:1002D0003D007F1028440000417F40007C047804EA
:1002E000787C080404783844444438FC18242418E2
:1002F00018242418FC7C080404084854545424048A
:10030000043F44243C4040207C1C2040201C3C40B6
:1003100030403C44281028444C9090907C446454D5
:100320004C440008364100000077000000413608C8
:100330000002010204023C2623263C1EA1A16112F8
:100340003A4040207A385454555921555579412224
:1003500054547842215554784020545579400C1E0D
:1003600052721239555555593954545459395554B6
:1003700054580000457C410002457D420001457C07
:10038000407D1211127DF0282528F07C545545003F
:100390002054547C547C0A097F4932494949323AF5
:1003A0004444443A324A4848303A4141217A3A4238
:1003B000402078009DA0A07D3D4242423D3D40400E
:1003C000403D3C24FF2424487E4943662B2FFC2FCC
:1003D0002BFF0929F620C0887E0903205454794157
:1003E0000000447D413048484A32384040227A007B
:1003F0007A0A0A727D0D19317D2629292F2826298E
:1004000029292630484D40203808080808080808DF
:1004100008382F10C8ACBA2F102834FA00007B001F
:100420000008142A142222142A14085500550055D5
:10043000AA55AA55AAFF55FF55FF000000FF00105E
:100440001010FF00141414FF001010FF00FF101014
:10045000F010F0141414FC001414F700FF0000FF57
:1004600000FF1414F404FC141417101F10101F10B4
:100470001F1414141F00101010F0000000001F10B3
:100480001010101F10101010F010000000FF1010BE
:1004900010101010101010FF10000000FF140000CA
:1004A000FF00FF00001F10170000FC04F4141417D5
:1004B00010171414F404F40000FF00F714141414BB
:1004C000141414F700F7141414171410101F101F2D
:1004D000141414F4141010F010F000001F101F007A
:1004E00000001F14000000FC140000F010F01010B9
:1004F000FF10FF141414FF141010101F0000000050
:10050000F010FFFFFFFFFFF0F0F0F0F0FFFFFF0043
:1005100000000000FFFF0F0F0F0F0F384444384456
:10052000FC4A4A4A347E02020606027E027E0263CA
:10053000554941633844443C04407E201E20060255
:100540007E020299A5E7A5991C2A492A1C4C720132
:10055000724C304A4D4D303048784830BC625A4673
:100560003D3E494949007E0101017E2A2A2A2A2A64
:1005700044445F444440514A444040444A5140004E
:1005800000FF0103E080FF000008086B6B083612D3
:10059000362436060F090F06000018180000001058
:1005A00010003040FF0101001F01011E00191D173E
:1005B00012003C3C3C3C0000000000000000002415
:1005C0000027002A0000000000250028002B000062
:1005D0000000080002010000030407000000000002
:1005E000000000982F8A4291443771CFFBC0B5A517
:1005F000DBB5E95BC25639F111F159A4823F92D5BE
:100600005E1CAB98AA07D8015B8312BE853124C358
:100610007D0C55745DBE72FEB1DE80A706DC9B7456
:10062000F19BC1C1699BE48647BEEFC69DC10FCC5B
:10063000A10C246F2CE92DAA84744ADCA9B05CDAE1
:1006400088F97652513E986DC631A8C82703B0C7C5
:100650007F59BFF30BE0C64791A7D55163CA066720
:10066000292914850AB72738211B2EFC6D2C4D1320
:100670000D385354730A65BB0A6A762EC9C2818548
:100680002C7292A1E8BFA24B661AA8708B4BC2A332
:10069000516CC719E892D1240699D685350EF470AD
:1006A000A06A1016C1A419086C371E4C774827B5EC
:1006B000BCB034B30C1C394AAAD84E4FCA9C5BF369
:1006C0006F2E68EE828F746F63A5781478C88408E3
:1006D00002C78CFAFFBE90EB6C50A4F7A3F9BEF2F0
:1006E0007871C60404040404040404020202020231
:1006F00002030303030303010204081020408001E6
:100700000204081020010204081020000000000567
:1007100000010000030D0602F4050007050901F4BD
:100720000A000A0C0A00F51900090F0A01F32A0051
:10073000100D1000F444000C0D0D01F458000305D9
:100740000501F45A0006110601F4670006110600BF
:10075000F4740005060701F4780007080B02F97F1E
:100760000003050401FF810005020600FB8300036E
:10077000020401FF8400050D0500F48D00090D0A37
:1007800001F49C00050D0A02F4A500090D0A01F40C
:10079000B400080D0A01F4C100080D0A02F4CE00ED
:1007A000090D0A01F4DD00090D0A01F4EC00090D40
:1007B0000A00F4FB000A0D0A00F40C01090D0A01FD
:1007C000F41B0103090401F81F01030C0401F824C0
:1007D0000109090B01F82F0109060B01FA3601097D
:1007E000090B01F84101090D0B01F45001100F1222
:1007F00000F46E010C0D0D00F482010B0D0D01F4DF
:1008000094010C0D0D01F4A8010C0D0D01F4BC01B7
:10081000090D0C01F4CB01090D0B01F4DA010B0DEC
:100820000E01F4EC010B0D0D01F4FE01030D0601A8
:10083000F40302080D0A01F410020C0D0D01F4245A
:1008400002080D0B01F431020E0D1001F448020BE9
:100850000D0E01F45A020D0D0E01F470020B0D0C79
:1008600001F482020D0E0E01F499020C0D0D01F43B
:10087000AD020B0D0C01F4BF02090D0C02F4CE0207
:100880000B0D0D01F4E0020C0D0C00F4F402110D3F
:100890001100F410030C0D0C00F424030B0D0C01DB
:1008A000F43603090D0B01F4450304110601F44E5F
:1008B00003050D0500F4570304110600F460030856
:1008C000080B01F468030A010A00046A0303020525
:1008D00000F46B030A0A0A01F778030A0D0B01F40E
:1008E0008903090A0A01F79503090D0B01F4A40312
:1008F000090A0A01F7B003050D0601F4B903090E50
:100900000B01F7C903090D0B01F4D803030D050111
:10091000F4DD0304110500F4E603090D0A01F4F502
:1009200003030D0501F4FA030E0A1001F70C040984
:100930000A0B01F718040A0A0B01F725040A0E0B2B
:1009400001F73704090E0B01F74704060A0701F700
:100950004F04090A0A01F75B04050C0601F563045C
:10096000090A0B01F76F040A0A0A00F77C040E0A51
:100970000E00F78E040A0A0A00F79B040A0E0A000A
:10098000F7AD04080A0901F7B70404110701F4C020
:100990000401110502F4C30404110702F4CC040895
:1009A000020900FCFFFFFE487EEFDFBF744019869E
:1009B00067FDFF330CC333FEFF99866190101F1F44
:1009C000DEFF3F83C0FC1F09FCFEF7F1E04038105A
:1009D0007C30C620C640C6407C80399C013E036303
:1009E000026304630C3E081C0E01F83B83B83F0110
:1009F000E03E6776E3EE1CF3C7FE3F70FFF418633A
:100A00001C738E38E38E1870C3060861830E38712C
:100A1000C71C71C638E31840213E45283870E7FFEF
:100A2000E70E1CFC9CFFC0FC08C4231084621188E4
:100A3000003E3F9DDC7E3F1F8FC7E3F1DDCFE3E04B
:100A400008FFF39CE739CE73803E3FB8FC70381C3A
:100A50001C1C1C1C1C0FF7F83C7FE7E7070C0E075B
:100A600007E7E77E3C0E1E1E2E2E4E4E8EFFFF0E1B
:100A70000E0E7F3F90180DE7FB9E070381F1FFE705
:100A8000C03E3F9CFC0EE7FBDFC7E3F1DDEFE3E098
:100A9000FFFFC0E0E0607030381C0C0E0703803FA1
:100AA0001FEE3F87E3CFC7FBCFE1F87F3DFE3F005E
:100AB0003E3FBDDC7E3F1FDEFF3B81F9CFE3C0FC44
:100AC0000007E0FC0007E5E00083C7DF0C0780F8C3
:100AD0001F0180FFFFC0000FFFFC00703F03E038E4
:100AE0007DF1E080003E3FB8FC70381C1C1C1C0EE1
:100AF000000381C003F00FFC1E0E380270E9631979
:100B0000C219C611C633C63263FE73DC3C001FF83F
:100B100007F00700F00F80F81D819C19C38C3FE798
:100B2000FE706607E070FF9FFB83F07E0FFF3FF7CC
:100B300006E0FC1F83FFEFF81F83FE78E707E00E57
:100B400000E00E00E0070778F3FE1F80FF8FFCE057
:100B5000EE0EE07E07E07E07E07E0EE0EFFCFF8019
:100B6000FFFFF81C0E07FBFDC0E070381FFFF8FF09
:100B7000FFF81C0E07FBFDC0E070381C0E000F874D
:100B8000F9E3B83E01C038FF1FE06E0DE39FD0F2DD
:100B9000E0FC1F83F07E0FFFFFFF07E0FC1F83F0E8
:100BA0007E0EFFFFFFFFFE0707070707070707E7A0
:100BB000E7E77E3CE0EE1CE38E70EE0FC0FE0F70A8
:100BC000E70E38E1CE0EE0E0E0E0E0E0E0E0E0E07B
:100BD000E0E0E0FFFFF87FE1FF87FE1FEC7FB37EE0
:100BE000CDFB37ECDF9E7E79F9E7E79CE0FE1FC383
:100BF000FC7FCFD9FBBF37E7FC7F87F0FE0E0F816C
:100C0000FF1E3CE0EE03F01F80FC07E03B839E3CB0
:100C10007FC0F800FF9FFB87F07E0FC3FFF7FCE06B
:100C20001C0380700E000F81FF1E3CE0EE03F01FDE
:100C300080FC07E1BB8F9E3C7FE0FB8008FF8FFCC0
:100C4000E0EE0EE0EE0EFFCFFCE0EE0EE0EE0EE08A
:100C5000F03F0FFBC7F07E01FC1FF03F00FC1DC7FB
:100C6000BFE1F8FFFFC70381C0E070381C0E070327
:100C700081C0E0FC1F83F07E0FC1F83F07E0FC1F3E
:100C8000C7BFE1F060670E70E30C30C39C19819818
:100C90001F80F00F00F0060061C3B8E19C70CE3CED
:100CA000E336719B30ED98367C1B3C0F1E078F019D
:100CB000C380E18070E78E39C1F81F80F00700F033
:100CC0001F819C39C70E70E0E0FC39C718C3B836E5
:100CD00007C0700E01C0380700E0FFFFC0E0E0F081
:100CE0007070707838381FFFF8FFEEEEEEEEEEEE23
:100CF000EFF0861086108430843080FF7777777726
:100D000077777FF0181C3C3E366663C3FFC0CC3F4C
:100D10001FEE380E3F9EEE3B9EFF9EE0E0380E0336
:100D2000BCFFBCEE1F87E1F87F3BFEEF001F3FDCFE
:100D30007C0E070380E37F8F000381C0E777FBBF52
:100D40008FC7E3F1FDEFF3B83E3F9CDC3FFFFF812F
:100D5000C37F8F003BDDFFB9CE739CE7003BBFDD57
:100D6000FC7E3F1F8FEF7F9DC0FC77F1F0E0703875
:100D70001DEFFF9F8FC7E3F1F8FC7E38FC7FFFFF7C
:100D8000FE770777777777777FE0E070381C7E779C
:100D900073F1F8FE7739DC6E38FFFFFFFFFEEF7B63
:100DA000FFFE39F8E7E39F8E7E39F8E7E39F8E7008
:100DB000EF7FF8FC7E3F1F8FC7E3F1C01E1FE73BAC
:100DC00087E1F87E1DCE7F8780EF3FEF3B87E1F81C
:100DD0007E1FCEFFBBCE0380E038003BBFFDFC7E14
:100DE0003F1F8FEF7F9DC0E070381CEFFF38E38E10
:100DF00038E3803E3FB8FC0FC3FC3FC7FF1F0073C2
:100E0000BFF739CE739E70E3F1F8FC7E3F1F8FC7AA
:100E1000FFBDC0E1986739CC330DC3E0781E0700F1
:100E2000E31D9E667999E677B8D2C3CF0F3C3CF0BC
:100E30007380739CE3F0781E0781E0FC739CE0E113
:100E4000D86739CE330EC3E0781E0300C070380E69
:100E500000FEFE0E1C383870E0FFFF3766666EE657
:100E600066666730FFFF80CE6666677666666EC030
:100E7000718EA4090B07207E1667E6096A85AE67A6
:100E8000BB72F36E3C3AF54FA57F520E518C68054C
:100E90009BABD9831F19CDE05B0079257825112400
:100EA0001FBECFEFD8E0DEBFCDBF14E0A0E0B1E0C1
:100EB000E4EEFBE502C005900D92A034B107D9F72E
:100EC00026E0A0E4B4E001C01D92A038B207E1F72B
:100ED00017E0CEE4D7E004C02197FE010E94C42DA4
:100EE000CD34D107C9F70E9428260C94E52D0C9427
:100EF00000008091480684608093480680914906EE
:100F0000807880934906E0915806F0915906309711
:100F100009F0099408958FEF80934A06E8E4F6E01B
:100F200080818860808328E143E06FEF80E00E9449
:100F3000D81661E00E9480230C942D240F931F93F8
:100F40000E946A13009140061091410620914206CA
:100F500030914306601B710B820B930B1F910F9115
:100F60000895809111058F3FB1F40E946A136F3F7D
:100F700019F060931B0102C010921B0123E043E0B3
:100F800060911B0180E00E94D8166EED73E00E9414
:100F90008C230C942D240895E8E4F6E08081897F69
:100FA00081608083E1E1F5E08FEF8283818327E038
:100FB00043E06FEF0E94D8166EED73E00E948C2321
:100FC0000C942D24E8E4F6E08081877F8F7E808377
:100FD000109244061092450610924606109247065B
:100FE00044E050E060E070E081E195E00C94F42B87
:100FF0009C0180913E0690913F068217930751F025
:10100000909148069F719093480630933F06209335
:101010003E0605C080914806805E80934806E091B8
:101020003E06F0913F060190F081E02D309709F0E7
:1010300009950E946A13609340067093410680935D
:1010400042069093430608950F931F930E949E07B4
:10105000209149062077203729F000E117E220E0AF
:1010600030E004C000E61AEE20E030E00617170773
:101070002807390730F48FE193E01F910F910C940A
:10108000F8071F910F910895809149068F7086305F
:1010900020F087E191E00C94F807089580914A06CA
:1010A0008F3FA1F00E946A13609344067093450637
:1010B000809346069093470680914A0690911305C7
:1010C00089138093130583E191E013C00E949E076A
:1010D000613D77408105910570F08091480680362A
:1010E00018F48FE091E005C0877F8093480687E180
:1010F00091E00C94F8070895809111058F3F19F045
:101100008FE091E010C00E949E07613D774081050D
:10111000910558F080914806803618F48BE091E0F4
:1011200002C087E091E00C94F80708950E949E07A2
:10113000613D77408105910520F48091480681FF4B
:101140000895809112058F3F41F0809148068E7F6F
:10115000809348068BE091E009C080914806803674
:1011600018F487E191E002C087E091E00C94F80761
:101170008EBD00000DB407FEFDCF8EB50895CF9251
:10118000DF92EF92FF920F931F93CF93DF937B0138
:10119000142F022F90E59CBD1DBC2A98E0E1F0E0E1
:1011A0003197F1F70E94B808E7011123A9F0002355
:1011B00049F08FEF0E94B808E114F10459F08883D8
:1011C000219608C06E018FEFC81AD80A88810E9444
:1011D000B808E6011150E9CF2A9AE0E1F0E0319732
:1011E000F1F7DF91CF911F910F91FF90EF90DF907A
:1011F000CF900895CF93DF931F92CDB7DEB7698369
:1012000020E041E0BE016F5F7F4F0E94BF080F905A
:10121000DF91CF91089529986CE080E20C94FA0850
:1012200080914906982F9077903759F0982F929592
:101230009F709F5F97709295907F8F78892B809396
:101240004906809148068B7F8F7E809348060C94D8
:101250000B096FE080E20E94FA0860911E036F3F65
:1012600019F08AE20E94FA08299A089521E041E0E3
:1012700060E070E00C94BF0820E040E060E070E0C7
:101280000C94BF087F928F929F92AF92BF92CF92A1
:10129000DF92EF92FF920F931F93CF93DF931F92F2
:1012A000CDB7DEB7E0913E06F0913F060280F381B4
:1012B000E02D309709F009958091480684FBFF24C2
:1012C000F0F884FFE0C186E0782E00E010E091E2C3
:1012D000E92E87E10E94360980FDD5C17A947720F6
:1012E00009F4D1C121E041E060E070E080E60E94B5
:1012F000BF08C82E80E28C1520F482EE0E943C09C3
:10130000C12C21E04C2D6DE176E081E60E94BF0802
:1013100060E487E20E94FA0890912006292F269522
:10132000269526952A3108F029E192FD03C037E081
:10133000320F01C030E2E0912106B0902206D09039
:101340001E0680911D0640911F06C312C2CF392F81
:101350003370323009F0BDCF5E2F5770309149069F
:101360003068309349063091110543134FC030E087
:10137000B901F3E0660F771FFA95E1F79770962BA6
:1013800090932006D901A35EB94F17961C92E3FFF4
:1013900019C0EDE1F6E0ACEFB5E08E2D01900D92B5
:1013A0008A95E1F780910006877F8061809300062F
:1013B0004093FD05D092FE058CEF95E059830E9485
:1013C000F32459812091210624FD1BC05330C9F418
:1013D0009091220681EF890F833008F049C079CFC0
:1013E000913009F4EFC09A3009F473CF9C3109F4BD
:1013F00070CF9EE1B91609F46CCF9DE1B91609F4DE
:1014000004C18DE196E00E94761F63CF4F3F09F043
:1014100060CF533041F59091480692FF04C097E0A9
:10142000B91609F456CF98E0B91609F452CF94E1F1
:10143000B9124FCF9091120589134BCF0E946A13B6
:101440007370882799270E94781DC090120525E1A6
:1014500043E06FEF8D2D0E94D8166C2D0E948023E3
:101460000E942D2436CF90911205891332CFC9CF17
:1014700084E0B81210C08091230690911B01891757
:1014800019F08F3F09F025CF8DE196E00E94C1232E
:101490000E9457251ECF88E0B8121CC0C090480695
:1014A000C0FE17CF8DE196E00E94C1238F3F09F463
:1014B00010CF91E0980F9F3F09F40BCF8091130557
:1014C000981708F006CFC1FC04CF90931305D09273
:1014D0001205FFCE88E1B81208C029E143E06FEFA2
:1014E0008D2D0E94D81661E0B9CF89E1B8120EC0E7
:1014F0008091480683FFEDCE877F809348068DE17B
:1015000096E00E94C12380934A06E3CE80911E0696
:10151000811177C09D3059F498E088E10FB6F894B6
:10152000A895809360000FBE90936000FFCF9B3121
:1015300079F48DE196E00E94C12391E0811101C010
:1015400090E080914B0490FB80F980934B04C1CED6
:101550009630A9F490912406992329F081E09D34D6
:1015600019F080E001C08F2D80934A0441E050E0E3
:1015700063E071E08AE494E00E94042CAACE9331E7
:1015800019F40E94FA24A5CE923109F029CF0E94C5
:101590009E074B015C0126E143E06FEF80E00E9473
:1015A000D816FC0184818F71806A8483838187705F
:1015B0008062838387829086A186B286CF010E9453
:1015C000F32487CE0115110509F483CE22952695C3
:1015D0002770253049F4609124067091250680918A
:1015E0002606909127060AC0211105C084E296E0E4
:1015F0000E94022903C060E070E0CB010E9400005D
:1016000068CE9A3109F0F5CE64CE309124068091EF
:101610002506813211F0E0EB11C02EE143E06FEFBF
:1016200080911D0639830E94D8166FEF0E94802397
:101630000E942D243981882381F0E0EDE30FE4320C
:1016400030F4F0E0E75DFC4F808190E002C087E07D
:1016500090E00E94E7236C0103C0C12CDD24DA94E2
:101660002FE143E06FEF80E00E94D816FC018481F7
:101670008F71806484839381977090619383D08607
:10168000C782CF01EDCE0F90DF91CF911F910F91C7
:10169000FF90EF90DF90CF90BF90AF909F908F9092
:1016A0007F900895CF93219A229A29982A9A0E948E
:1016B00060156EE080E20E94FA0865E070E080E06C
:1016C00090E00E94781D63E083E20E94FA086FE5D3
:1016D00084E20E94FA086CE485E20E94FA0865E25E
:1016E00086E20E94FA0863E780E50E94FA0866E055
:1016F0008DE30E94FA0886E00E943609C82F85E033
:101700000E9436098C3409F043C0C53209F040C04C
:1017100062E082E20E94FA0860E081E20E94FA0838
:1017200063E08CE30E94FA088FEF8093020120E0CF
:1017300045E062E071E08BE20E94BF0820E045E0F6
:1017400062E071E08AE20E94BF0820E045E062E0CA
:1017500071E080E30E94BF0882EE0E943C0981EEA6
:101760000E943C0960E787E20E94FA0880914806DF
:10177000806180934806809114058E7F80931405C4
:10178000809111058F3F39F00E945725811103C0C8
:1017900087E091E002C087E191E0CF910C94F807D7
:1017A0000F931F93CF93DF93EC018C01060F171F4C
:1017B000C017D107C1F089914091AD045091AE049A
:1017C0006091AF047091B0044F5F5F4F6F4F7F4FD8
:1017D0004093AD045093AE046093AF047093B00493
:1017E0000E94E716E5CFDF91CF911F910F910895E9
:1017F0001F920F920FB60F9211240F900FBE0F90F1
:101800001F9018950895FC0177FD68C0808591852B
:10181000681779070CF062C057FD60C08285938518
:10182000481759070CF05AC08589823059F0833027
:10183000B1F08130D1F48FE290E0861B970BBA01B2
:10184000AC0113C083E590E0FC01E61BF70BBF0180
:101850008FE290E0FC01E41BF50BAF0106C083E5CD
:1018600090E0841B950BAB01BC0164357105B0F5AC
:101870004033510598F5CA01E3E095958795EA95BF
:10188000E1F747705527232BA1F024E5289FF001AD
:10189000299FF00D11246E0F7F1FFB01E05EFE4FAC
:1018A00081E090E001C0880F4A95EAF79081892B8A
:1018B00014C024E5289FF001299FF00D11246E0F1C
:1018C0007F1FFB01E05EFE4F81E090E001C0880FCA
:1018D0004A95EAF780959081892380830895089539
:1018E000FC016370658B848195812681378161302D
:1018F00039F0633029F091878087338722870895F4
:10190000318720879387828708952F923F924F9245
:101910005F926F927F928F929F92AF92BF92CF927F
:10192000DF92EF92FF920F931F93CF93DF93CDB788
:10193000DEB76C970FB6F894DEBF0FBECDBF9C8F9D
:101940008B8F5B011A011F830E833701C982DC0173
:1019500058964D915C9159974115510509F0E5C094
:1019600018968D919C911997681779070CF0CAC148
:101970001A968D919C911B97281639060CF0C2C1BE
:101980008C2C912CFB0136E0C39EE00DF11D11243F
:10199000FB87EA871E161F060CF0B4C1C40133E0B2
:1019A000880F991F3A95E1F79D878C87820D931DCB
:1019B000181619060CF0A6C157968C91811103C018
:1019C000203B08F02F5FAB8DBC8DED91FC91119702
:1019D0000680F781E02DCD012A8F09952A8DB5E08B
:1019E0002B9F90011124F5013596FF87EE87BB826E
:1019F000AA822501A9014A195B09598B488BC101AB
:101A000008969B8B8A8BE889F989E40DF51DE554CE
:101A1000FF4F9491988761013D822C82A885A0FF99
:101A200013C0AB8DBC8DED91FC91B981B13031F417
:101A30000084F185E02D2E813F8116C00284F3855C
:101A4000E02DEE80FF801AC0EE81FF816E167F06CA
:101A5000F1F0AB8DBC8DED91FC91B981B13051F4B9
:101A60000084F185E02D9301A601B2018B8D9C8D40
:101A700009950DC00284F385E02D73018401940162
:101A80004C815D816A817B818B8D9C8D0995E88578
:101A9000E695E887FFEFCF1ADF0A2C813D81280DFC
:101AA000391D3D832C834A895B89C416D50609F00C
:101AB000B5CF5FEF451A550A8A819B81880D991D24
:101AC0009B838A83AE85BF854A165B0609F09BCF50
:101AD000EE81FF816E167F0609F4F2C0EB8DFC8D5E
:101AE000A081B181F981F13079F4B5016B5F7F4F4D
:101AF0001C96ED91FC911D97830128E030E0A10137
:101B00008B8D9C8D0995DCC06A857B856819790968
:101B10001A96ED91FC911B9773010C851D8594011C
:101B2000A1018B8D9C8D0995CBC0FA0134969491BF
:101B3000329765917491291BCB01B7E02B9F800DE3
:101B4000911D1124FA01259134913B8B2A8BFC01C4
:101B5000459154915B834A83FC013296C49031963F
:101B600054915E87329614913196D4908981823057
:101B700058F0612E012E000C7708AD2D0D2C000CB5
:101B8000BB0BB987A88704C019861886612C712CF5
:101B9000AB8DBC8DED91FC9111970680F781E02D06
:101BA000CD010995B9818B2E912C689CC001699C4F
:101BB000900D789C900D1124FC01EA0DFB1DFD8712
:101BC000EC871C82712C612CE12F110FFF0B95010A
:101BD0002E0F3F1F3B872A87AC0CB11CA5014E0F6F
:101BE0005F1F5F8B4E8BC1018D0D911DD7FC9A95A8
:101BF000998F888F4E85641608F062C0862D90E01C
:101C000048855985480F591F489D9001499D300DC1
:101C1000589D300D1124D901A20DB31DB98BA88B8D
:101C2000AA84BB844C845D84DC80BA85DB1AE88D91
:101C3000F98DE80FF91FFD8BEC8B8D2D8A0D2E8908
:101C40003F89A216B306B9F1877061F48A819B813E
:101C50000196EA89FB89AA81BB81EA0FFB1F749078
:101C60009B838A8377FE20C0AB8DBC8DED91FC9168
:101C7000B981B13061F40084F185E02D2E813F817E
:101C80004C895D89B5018B8D9C8D09950DC00284B1
:101C9000F385E02DEE80FF80840194014889598905
:101CA000B2018B8D9C8D0995770CEFEFAE1ABE0AB1
:101CB000480C591CC2CF3C813C0D3C8363949ACFA5
:101CC000AB8DBC8DED91FC9111970288F389E02DCD
:101CD000CD016C960FB6F894DEBF0FBECDBFDF917D
:101CE000CF911F910F91FF90EF90DF90CF90BF9019
:101CF000AF909F908F907F906F905F904F903F90AC
:101D00002F9009946C960FB6F894DEBF0FBECDBF2E
:101D1000DF91CF911F910F91FF90EF90DF90CF90C7
:101D2000BF90AF909F908F907F906F905F904F90FB
:101D30003F902F900895AF92BF92CF92EF92FF9273
:101D40000F931F93CF93DF93EC01262F888D998DEE
:101D5000009709F040C06A3059F41D861C862C8912
:101D60008E859F8538E0239F800D911D112441C0F1
:101D70006D3009F4AAC08E898823C1F03C898C8516
:101D80009D8546E0349F800D911D1124488559851D
:101D9000481759075CF41D861C868E859F8548E090
:101DA000349F800D911D11249F878E87EA88FB88C0
:101DB000088919894E855F856C857D85CC88CE0123
:101DC0000E94850C2C898C859D8536E0239F800D93
:101DD000911D112442C06A3079F41D861C862C891D
:101DE000FC013696E4918E859F852E9F800D911D76
:101DF00011249F878E8769C06D3009F466C0FC018D
:101E000034963491631708F460C03196E491E61774
:101E100008F45BC0FC013296A590B490462F50E0C8
:101E2000431B510937E0349FB001359F700D1124D9
:101E3000A60EB71EF501329634913196E491332304
:101E400011F0E1110DC0F5013496E4912C898C85D7
:101E50009D85E29F800D911D11249D878C8735C043
:101E6000F501359644915E89552311F16C89E32F74
:101E7000F0E0E40FF11D47FDFA956E9FD0016F9FD2
:101E8000B00D11244C855D854A0F5B1FE885F985EF
:101E9000E417F5076CF41D861C86FC013696E49168
:101EA0008E859F856E9F800D911D11249F878E8743
:101EB000EA88FB88088919894E855F856C857D8550
:101EC000CC88CE010E94850CBECF81E090E0DF91EE
:101ED000CF911F910F91FF90EF90CF90BF90AF9057
:101EE00008956F927F928F929F92AF92BF92CF92FE
:101EF000DF92EF92FF920F931F93CF93DF93EC014A
:101F00004B015A0169013801E881F9810680F781A6
:101F1000E02D0995E881F9810684F785E02D870198
:101F20009601A501B401CE010995E881F981A501C9
:101F3000460D571D415051090684F785E02D960145
:101F4000B401CE010995E881F9810484F585E02D7D
:101F50009301A501B401CE010995E881F981C80C6E
:101F6000D91CB601615071090484F585E02D9301F7
:101F7000A501CE010995E881F9810288F389E02D58
:101F8000CE01DF91CF911F910F91FF90EF90DF90E5
:101F9000CF90BF90AF909F908F907F906F9009945B
:101FA000CF92DF92EF92FF920F931F93CF93DF9325
:101FB00000D000D000D0CDB7DEB76C01DC01ED91D0
:101FC000FC916217730789F4041715072CF4942FFA
:101FD000852FA801092F182F041B150B98012F5FBF
:101FE0003F4F008CF18DE02D12C04017510709F5CD
:101FF000261737072CF4962F872FB901292F382F52
:10200000261B370B2F5F3F4F028CF38DE02D87018E
:10201000C601099526960FB6F894DEBF0FBECDBF58
:10202000DF91CF911F910F91FF90EF90DF90CF90B4
:1020300008950680F781E02D2D833E834B835C83DA
:1020400069837A830995D601ED91FC910088F18925
:10205000E02D2D813E814B815C8169817A81C601B1
:102060000995D601ED91FC910288F389E02DC60116
:1020700026960FB6F894DEBF0FBECDBFDF91CF918D
:102080001F910F91FF90EF90DF90CF900994EF9206
:10209000FF920F931F93DC01ED91FC9111971A961B
:1020A0000D911C911B9718962D913C911997048CBA
:1020B000F58DE02D7B0140E050E060E070E0099597
:1020C0001F910F91FF90EF9008954F925F926F9242
:1020D0007F928F929F92AF92BF92CF92DF92EF92B8
:1020E000FF920F931F93CF93DF9300D0CDB7DEB74E
:1020F0006C015A0139014801DC01ED91FC91068027
:10210000F781E02D69837A8309956981462E7A816A
:10211000572E640C751CD601ED91FC9146145704A2
:102120006CF40484F585E02D87019401A501B201CA
:10213000C6010995BFEF4B1A5B0AEDCF0288F38900
:10214000E02DC6010F900F90DF91CF911F910F915D
:10215000FF90EF90DF90CF90BF90AF909F908F90C7
:102160007F906F905F904F900994AF92BF92CF9203
:10217000DF92EF92FF920F931F93CF93DF9300D0E4
:1021800000D0CDB7DEB75C016901DC01ED91FC91B7
:102190000680F781E02D4B835C8369837A83099500
:1021A000D501ED91FC9169817A819B012C0D3D1D3A
:1021B000215031090088F189E02D78014B815C8143
:1021C0008A01C5010995D501ED91FC910288F38939
:1021D000E02DC5010F900F900F900F90DF91CF91E0
:1021E0001F910F91FF90EF90DF90CF90BF90AF9035
:1021F0000994AF92BF92CF92DF92EF92FF920F932A
:102200001F93CF93DF9300D000D0CDB7DEB75C0132
:102210006901DC01ED91FC910680F781E02D4B8393
:102220005C8369837A830995D501ED91FC914B819B
:102230005C81C40ED51EB1E0CB1AD1080088F189AB
:10224000E02D7801860169817A819B01C50109959C
:10225000D501ED91FC910288F389E02DC5010F9025
:102260000F900F900F90DF91CF911F910F91FF90E2
:10227000EF90DF90CF90BF90AF9009940895EF92C8
:10228000FF920F931F93DC01ED91FC91048CF58D6F
:10229000E02D09951F910F91FF90EF9008950F93F6
:1022A0001F93DC01ED91FC91028CF38DE02D0995DB
:1022B0001F910F9108950F931F93DC01ED91FC91F5
:1022C000008CF18DE02D09951F910F910895DC018F
:1022D000ED91FC910480F581E02D099408952F92F1
:1022E0003F924F925F926F927F928F929F92AF92A6
:1022F000BF92CF92DF92EF92FF920F931F93CF93F3
:10230000DF9300D01F92CDB7DEB74C017B836A8389
:102310006A01590117019801241B350B37FF03C0CF
:10232000319521953109C5014A815B81841B950B4B
:1023300097FF03C091958195910951E059838217C8
:10234000930714F019820BC09A2D8B2D5801092F79
:10235000182F9A818B81DB82CA82C92ED82E8A815E
:102360009B81A816B9065CF49C2D8D2D6801092F60
:10237000182F9A818B81BB82AA82A92EB82E2501A3
:10238000AA81BB814A1A5B0A38016C187D0877FE66
:1023900003C0719461947108720157FE03C0BFEFCE
:1023A000EB1AFB0AF594E794C016D1061CF00FEF68
:1023B0001FEF1FC001E010E01CC0D401ED91FC91A3
:1023C000B9810084F185E02D9101BB23C1F04A81E0
:1023D0005B81B601C4010995E618F708F7FE04C051
:1023E000C00ED11EE40CF51CEA81FB813196FB8303
:1023F000EA834A815B81A416B506FCF604C0A601F7
:102400006A817B81E7CF0F900F900F90DF91CF9182
:102410001F910F91FF90EF90DF90CF90BF90AF9002
:102420009F908F907F906F905F904F903F902F90F4
:102430000895CF93DF93EB01FC0182894BE050E0DC
:10244000853139F0863141F08B3049F46FEA73E021
:1024500008C065EB73E005C06BEB73E002C061EC94
:1024600073E0CE010E94D62D1B86DF91CF91089597
:102470000F931F93CF93DF938C01EB0188E2DB0175
:102480001D928A95E9F7F801838194810E941912BF
:1024900081E090E0A0E0B0E08C879D87AE87BF87A9
:1024A000F80185819681A781B085888B998BAA8B4D
:1024B000BB8B8CE090E0A0E0B0E08C8B9D8BAE8B72
:1024C000BF8B0380F481E02D8289853149F086310C
:1024D00039F08B3029F480E492E4AFE0B0E004C03E
:1024E00080E894E8AEE1B0E08CA39DA3AEA3BFA3C7
:1024F00082898531C9F08631B9F08B3051F580E0A1
:1025000090E0A0EAB2E4888F998FAA8FBB8F80E019
:1025100090E0A0EAB1E48C8F9D8FAE8FBF8F80E0FA
:1025200090E0A0EAB0E410C080E090E0A8ECB2E453
:10253000888F998FAA8FBB8F1C8E1D8E1E8E1F8E2B
:102540008DEC9CECACECBDE388A399A3AAA3BBA340
:102550000CC0188E198E1A8E1B8E1C8E1D8E1E8E10
:102560001F8E18A219A21AA21BA2DF91CF911F9150
:102570000F9108950F931F93CF93DF938C01EB017D
:1025800088E2DB011D928A95E9F7F8018381948145
:102590000E94191281E090E0A0E0B0E08C879D8756
:1025A000AE87BF87F80185819681A781B085888B2A
:1025B000998BAA8BBB8B8DE090E0A0E0B0E08C8B78
:1025C0009D8BAE8BBF8B0380F481E02D828985319A
:1025D00049F0863139F08B3029F480E492E4AFE0A1
:1025E000B0E004C080E894E8AEE1B0E08CA39DA325
:1025F000AEA3BFA382898531A9F08631C1F08B30AB
:1026000079F580E090E0A8E4B2E4888F998FAA8FF2
:10261000BB8F1C8E1D8E1E8E1F8E80E090E0A0E072
:10262000B0E419C080E090E0A0EAB2E404C080E029
:1026300090E0AAEFB2E4888F998FAA8FBB8F80E0D9
:1026400090E0A0E2B2EC8C8F9D8FAE8FBF8F8DECAF
:102650009CECACECBDE388A399A3AAA3BBA30CC0DC
:10266000188E198E1A8E1B8E1C8E1D8E1E8E1F8E1E
:1026700018A219A21AA21BA2DF91CF911F910F914C
:1026800008950C9448280C9448283FB7F8948091FA
:10269000460490914704A0914804B091490426B59E
:1026A000A89B05C02F3F19F00196A11DB11D3FBF8A
:1026B000BA2FA92F982F8827820F911DA11DB11D18
:1026C000BC01CD0143E0660F771F881F991F4A9513
:1026D000D1F708952FB7F8946091420470914304A4
:1026E00080914404909145042FBF0895CF92DF92CA
:1026F000EF92FF920F931F93CF93DF938C01EB0127
:1027000084E2FB0111928A95E9F784E290E0A0E06F
:10271000B0E088839983AA83BB83F8018581968181
:10272000A781B0858C839D83AE83BF838CE090E0CE
:10273000A0E0B0E088879987AA87BB870E946A13C8
:10274000688B798B8A8B9B8BF80103811481C8017C
:102750000E94B21D8823A1F1F80186818B3041F1DE
:1027600078F18551823060F5F801608170E080E099
:1027700090E00E94D22A20E030E040E853E40E943A
:10278000332B6B017C01F8018181682F70E080E0C0
:1027900090E00E94D42A9B01AC01C701B6010E94BF
:1027A000782C2DEC3CEC4CEC5DE30E94332B0CC000
:1027B000F801608170E080E090E00E94D22A04C0BD
:1027C00060E070E080EC9FE76C8B7D8B8E8B9F8B45
:1027D00081E0DF91CF911F910F91FF90EF90DF90FB
:1027E000CF9008958F929F92AF92BF92FF920F93D6
:1027F0001F93CF93DF938C01EB0184E2FB011192D5
:102800008A95E9F784E290E0A0E0B0E088839983BC
:10281000AA83BB83F80185819681A781B0858C83CB
:102820009D83AE83BF838DE090E0A0E0B0E0888719
:102830009987AA87BB870E946A13688B798B8A8BDA
:102840009B8BF80103811481C8010E94B21D88236B
:10285000D1F1F80186818B3029F0A8F185518230C1
:1028600048F031C0F801628170E080E090E00E94A1
:10287000D22A2DC0F801F2806F2D6F7770E080E0D2
:1028800090E00E94D42A20E030E040E853E40E9427
:10289000332B4B015C01F8018381682F70E080E0ED
:1028A00090E00E94D42A9B01AC01C501B4010E94B2
:1028B000782C2DEC3CEC4CEC5DE30E94332BF7FEC6
:1028C00006C0905804C060E070E080EC9FE76C8B1D
:1028D0007D8B8E8B9F8B81E0DF91CF911F910F912C
:1028E000FF90BF90AF909F908F9008951F920F928E
:1028F0000FB60F9211242F933F938F939F93AF9313
:10290000BF938091420490914304A0914404B091FC
:1029100045043091410426E0230F2D3720F4029620
:10292000A11DB11D05C029E8230F0396A11DB11DEE
:10293000209341048093420490934304A093440461
:10294000B09345048091460490914704A0914804B7
:10295000B09149040196A11DB11D80934604909346
:102960004704A0934804B0934904BF91AF919F914D
:102970008F913F912F910F900FBE0F901F90189540
:102980001F920F920FB60F9211242F933F934F93E4
:102990005F936F937F938F939F93AF93BF93EF93C7
:1029A000FF93E0911E01F0911F010995FF91EF91B6
:1029B000BF91AF919F918F917F916F915F914F9157
:1029C0003F912F910F900FBE0F901F9018951F925F
:1029D0000F920FB60F9211242F933F934F935F9353
:1029E0006F937F938F939F93AF93BF93EF93FF93D7
:1029F000E0911C01F0911D010995FF91EF91BF91AC
:102A0000AF919F918F917F916F915F914F913F9186
:102A10002F910F900FBE0F901F9018958F929F923D
:102A2000AF92BF92CF92DF92EF92FF920F931F93DC
:102A3000CF93DC011796CC911797662311F08C2F5A
:102A400001C080E018962C91189730E0220F331FB8
:102A50002F543F4F40E050E0BA01F9010591149125
:102A6000F80190819C23981315C06A017B019FEFA8
:102A7000C91AD90AE90AF90A1D968D909D90AD9060
:102A8000BC905097481559056A057B0538F4B70185
:102A9000A601E3CF342F252FCB0104C030E020E086
:102AA00080E090E0632F722FCF911F910F91FF90E4
:102AB000EF90DF90CF90BF90AF909F908F90089550
:102AC000CF93CFB7F89480914004811127C0EDEEE9
:102AD000F6E08491E1E0F7E09491E82FF0E0EE0F6A
:102AE000FF1FE554FA4FA591B491EC91E92321F42D
:102AF00061E08AE00E94961C61E08AE00E943C1D31
:102B00008CB580618CBD8CB580648CBD61E08DE03E
:102B10000E943C1D61E08BE00E943C1D80914004BE
:102B20008F5F80934004CFBFCF910895089508959B
:102B3000CF92DF92EF92FF920F931F93CF93DF9389
:102B40006C017A018B01C0E0D0E0CE15DF0589F081
:102B5000D8016D918D01D601ED91FC910190F0812C
:102B6000E02DC6010995892B11F47E0102C0219642
:102B7000ECCFC701DF91CF911F910F91FF90EF90A4
:102B8000DF90CF900895FC01918D828D981761F0B0
:102B9000828DDF01A80FB11D5D968C91928D9F5F94
:102BA0009F73928F90E008958FEF9FEF0895FC013F
:102BB000918D828D981731F0828DE80FF11D858DF2
:102BC00090E008958FEF9FEF0895FC01918D228D85
:102BD000892F90E0805C9F4F821B91098F7399270A
:102BE000089585E195E00E94E51521E0892B09F41F
:102BF00020E0822F0895FC01848DDF01A80FB11D14
:102C0000A35ABF4F2C91848D90E001968F73992722
:102C1000848FA689B7892C93A089B1898C9180640F
:102C20008C93938D848D981306C00288F389E02DD0
:102C300080818F7D80830895EF92FF920F931F9381
:102C4000CF93DF93EC0181E0888F9B8D8C8D98135F
:102C500005C0E889F989808185FD24C0F62E0B8D99
:102C600010E00F5F1F4F0F731127E02E8C8DE812BD
:102C70000CC00FB607FCFACFE889F989808185FF7F
:102C8000F5CFCE010E94FB15F1CF8B8DFE01E80F31
:102C9000F11DE35AFF4FF0820B8FEA89FB89808197
:102CA000806207C0EE89FF896083E889F9898081A5
:102CB0008064808381E090E0DF91CF911F910F913C
:102CC000FF90EF900895CF93DF93EC01888D8823D8
:102CD000C9F0EA89FB89808185FD05C0A889B98989
:102CE0008C9186FD0FC00FB607FCF5CF808185FF64
:102CF000F2CFA889B9898C9185FFEDCFCE010E94D2
:102D0000FB15E7CFDF91CF91089580E090E0892B0C
:102D100029F00E94F11581110C9400000895909102
:102D2000CC059F3F21F49091CD059F3F59F128E0BC
:102D300030E040E8E091D305F091D40550819091C6
:102D4000D605909595239083E091D105F091D20519
:102D50009091D505542F582319F05081952B03C01D
:102D60005081909595239083E091D305F091D405FF
:102D700050819091D605952B90834695215031092D
:102D8000C9F608950C94B808009769F0FC01019009
:102D90000020E9F73197AF01481B590BBC0182EBCA
:102DA00095E00C94981580E090E008950E94D12D54
:102DB000ECEFF5E090911105918382836683258382
:102DC00047708481807E482B4483CF0108952F92E1
:102DD0003F924F925F926F927F928F929F92AF92AB
:102DE000BF92CF92DF92EF92FF920F931F93CF93F8
:102DF000DF93CDB7DEB7C354D1090FB6F894DEBF69
:102E00000FBECDBF90918C04E3E0E927F0E0E45BD6
:102E1000FB4F80839F5F90938C04903409F085C3AF
:102E200040908D0450908E0460908F0470909004B8
:102E30004AA25BA26CA27DA22091910430919204DF
:102E400040919304509194042EA33FA348A759A7FF
:102E50004091950450919604609197047091980464
:102E60004AA75BA76CA77DA76091990470919A040B
:102E700080919B0490919C046EA77FA788AB99AB2F
:102E800080919D0490919E04A0919F04B091A00414
:102E90008AAB9BABACABBDAB4090A1045090A204FD
:102EA0006090A3047090A4044EAA5FAA68AE79AEA5
:102EB0002091A5043091A6044091A7045091A80444
:102EC0002AAF3BAF4CAF5DAF4091A9045091AA042B
:102ED0006091AB047091AC0422964CAF5DAF6EAFC5
:102EE0007FAF2297F3EE2F2EF5E03F2E6EA57FA544
:102EF00088A999A96A8F7B8F8C8F9D8F8AA59BA5A6
:102F0000ACA5BDA58A8B9B8BAC8BBD8B4EA05FA067
:102F100068A479A44E8A5F8A688E798E0AA11BA163
:102F20002CA13DA14EA95FA968AD79AD4E8F5F8FF1
:102F300068A379A36AAD7BAD8CAD9DAD6E877F87AD
:102F4000888B998B22968CAD9DADAEADBFAD22978F
:102F500089839A83AB83BC834AA85BA86CA87DA8AD
:102F60004D825E826F8278864AEF5FEF24965FAF74
:102F70004EAF24971D86F10185909590A590B49051
:102F80004D815E816F81788585E1440F551F661FF5
:102F9000771F8A95D1F78D819E81AF81B885EBE04F
:102FA000B695A79597958795EA95D1F72C013D01A0
:102FB000442A552A662A772ACD80DE80EF80F8845D
:102FC000FAE1CC0CDD1CEE1CFF1CFA95D1F74D810B
:102FD0005E816F817885A6E07695679557954795D0
:102FE000AA95D1F74C295D296E297F2944255525BD
:102FF000662577258D819E81AF81B885E9E1B695FB
:10300000A79597958795EA95D1F7CD80DE80EF80DB
:10301000F884F7E0CC0CDD1CEE1CFF1CFA95D1F710
:103020008C299D29AE29BF29482759276A277B2744
:103030004E845F84688879888E8D9F8DA8A1B9A100
:10304000482659266A267B268D819E81AF81B885C8
:10305000482259226A227B228E859F85A889B989B8
:10306000482659266A267B26440D551D661D771D68
:10307000840E951EA61EB71EED85EF7094E0E99FA5
:10308000F0011124E45BFB4F408151816281738127
:10309000840E951EA61EB71E49805A806B807C80C8
:1030A000840C951CA61CB71CB901A801A3E1440F10
:1030B000551F661F771FAA95D1F7D901C801EDE00A
:1030C000B695A79597958795EA95D1F72C013D017F
:1030D000442A552A662A772AD901C801FEE1880FB9
:1030E000991FAA1FBB1FFA95D1F76801790142E029
:1030F000F694E794D794C7944A95D1F7C82AD92A69
:10310000EA2AFB2AB301A2014C255D256E257F2505
:10311000D901C801E6E1B695A79597958795EA95F7
:10312000D1F768017901FAE0CC0CDD1CEE1CFF1C24
:10313000FA95D1F7C82AD92AEA2AFB2AC426D52625
:10314000E626F7264A895B896C897D898E899F8965
:10315000A88DB98D482B592B6A2B7B2B40235123EB
:10316000622373238A899B89AC89BD894E885F88D5
:10317000688C798C84219521A621B721842B952BED
:10318000A62BB72B8C0D9D1DAE1DBF1D4A8D5B8DD3
:103190006C8D7D8D480D591D6A1D7B1D49875A8791
:1031A0006B877C872C013D01480C591C6A1C7B1CD9
:1031B00049825A826B827C824D854F5F4D874034B5
:1031C00009F415C15D85503108F4CBC0852F8F708F
:1031D00064E0869FC0011124DC01A45BBB4FBB8F60
:1031E000AA8F2496EEADFFAD2497EF70FF27EE0F68
:1031F000FF1FEE0FFF1FE45BFB4F4D915D916D9143
:103200007C9180819181A281B3814A015B01880E0A
:10321000991EAA1EBB1E2496EEADFFAD24973596CF
:10322000EF70FF27EE0FFF1FEE0FFF1FE45BFB4F5A
:1032300040815181628173816A017B01EDE0CC0C98
:10324000DD1CEE1CFF1CEA95D1F7DB01CA01F3E19E
:10325000B695A79597958795FA95D1F78C299D29CD
:10326000AE29BF292A013B01EFE0440C551C661C26
:10327000771CEA95D1F76A017B01F1E1F694E794B6
:10328000D794C794FA95D1F7C428D528E628F7280B
:10329000C826D926EA26FB26AAE076956795579593
:1032A0004795AA95D1F74C255D256E257F25480DBC
:1032B000591D6A1D7B1D2496EEADFFAD24973897EE
:1032C000EF70FF27EE0FFF1FEE0FFF1FE45BFB4FBA
:1032D00080819181A281B3814C015D01EEE0880C77
:1032E000991CAA1CBB1CEA95D1F76C017D01F2E187
:1032F000F694E794D794C794FA95D1F78C289D2833
:10330000AE28BF282C013D01E7E0769467945794DE
:103310004794EA95D1F76C017D01F9E1CC0CDD1CF5
:10332000EE1CFF1CFA95D1F7C428D528E628F7280B
:10333000C824D924EA24FB24E3E0B695A795979501
:103340008795EA95D1F7C826D926EA26FB26C40E2A
:10335000D51EE61EF71EEA8DFB8DC082D182E28269
:10336000F382F4E02F0E311C24964EAD5FAD24970E
:103370004F5F5F4F24965FAF4EAF24976A897B897A
:103380008C899D896A8F7B8F8C8F9D8F8E899F8979
:10339000A88DB98D8A8B9B8BAC8BBD8B0E8B1F8BB5
:1033A000288F398F09811A812B813C814E845F845B
:1033B0006888798849825A826B827C824E8D5F8DC3
:1033C00068A179A14E875F87688B798B6D817E813B
:1033D0008F8198856E8F7F8F88A399A389859A8521
:1033E000AB85BC858D839E83AF83B887C4CD5301E5
:1033F00042016AA17BA18CA19DA1860E971EA81EE9
:10340000B91E80928D0490928E04A0928F04B09287
:1034100090048EA19FA1A8A5B9A5080F191F2A1F66
:103420003B1F0093910410939204209393043093D4
:1034300094048E899F89A88DB98D4AA45BA46CA43D
:103440007DA4840D951DA61DB71D809395049093B2
:103450009604A0939704B09398048A899B89AC89B9
:10346000BD892EA53FA548A959A9820F931FA41F66
:10347000B51F8093990490939A04A0939B04B093F2
:103480009C0489859A85AB85BC854AA95BA96CA9F2
:103490007DA9840F951FA61FB71F80939D0490934D
:1034A0009E04A0939F04B093A0048D819E81AF8160
:1034B000B8854EA85FA868AC79AC840D951DA61D93
:1034C000B71D8093A1049093A204A093A304B0938A
:1034D000A4048E8D9F8DA8A1B9A12AAD3BAD4CADA2
:1034E0005DAD820F931FA41FB51F8093A504909319
:1034F000A604A093A704B093A8048E859F85A889ED
:10350000B98922964CAD5DAD6EAD7FAD2297840F2B
:10351000951FA61FB71F8093A9049093AA04A09398
:10352000AB04B093AC0410928C04CD5BDF4F0FB6AC
:10353000F894DEBF0FBECDBFDF91CF911F910F91E9
:10354000FF90EF90DF90CF90BF90AF909F908F90C3
:103550007F906F905F904F903F902F900895FC0167
:103560008091110581839481907F916094838091F3
:103570004B0480FF03C0CF010C94F32480E0089536
:10358000CF93DF93262F8F3F11F0EA0102C0C6ECE4
:10359000D3E040E0682F80E00E94D816BE010E9470
:1035A0008C23DF91CF910C94F324262F42E0682FD7
:1035B00080E00E94D8166EED73E00E948C230C947C
:1035C000F3240C94C4168F929F92AF92BF920F93E4
:1035D0001F93CF93DF93CDB7DEB7A1970FB6F894C3
:1035E000DEBF0FBECDBF19A2423008F44AE08E0103
:1035F0000F5D1F4F842E912CA12CB12CA50194019D
:103600000E94A22DE62FB901CA0101501109EA302A
:1036100014F4E05D01C0E95CD801EC93232B242B6A
:10362000252B61F7C8010E94C416A1960FB6F89425
:10363000DEBF0FBECDBFDF91CF911F910F91BF9025
:10364000AF909F908F9008954F925F926F927F926C
:103650008F929F92AF92BF92CF92DF92EF92FF92A2
:103660006B017C01B42E9B01AC010E94912D88233B
:1036700019F081ED93E027C026013701E89477F82F
:103680002FEF3FEF4FE75FE7C301B2010E94912D9B
:1036900081110DC02FEF3FEF4FE75FE7C301B2018C
:1036A0000E94CD2A18161CF485ED93E00CC02FEF74
:1036B0003FEF4FE75FE4C701B6010E948C2D18165B
:1036C00084F489ED93E0FF90EF90DF90CF90BF906E
:1036D000AF909F908F907F906F905F904F900C94E1
:1036E000C4162FEF3FEF4FE75FECC701B6010E9412
:1036F000CD2A87FDE6CF20E030E0A901C701B60161
:103700000E94CD2A87FF11C0E091B205F091B30568
:103710000190F081E02D6DE282EB95E009954C017E
:10372000F7FAF094F7F8F09402C0812C912CA12CB8
:1037300060E070E080E09FE3AB1441F020E030E017
:1037400040E251E40E94E42CA394F6CF9B01AC012B
:10375000C701B6010E94782C2B013C010E945D2D0F
:103760006B017C010E94D22A9B01AC01C301B20112
:103770000E94772C2B013C014AE0C701B6010E9450
:10378000E31A7C01E80CF91CBB2069F0E091B2055A
:10379000F091B3050190F081E02D6EE282EB95E0AF
:1037A0000995E80EF91EDB2CDD2021F120E030E048
:1037B00040E251E4C301B2010E94332B2B013C01D2
:1037C0000E945D2D4B01A12CB12C4AE0C501B40132
:1037D0000E94E31AE80EF91EC501B4010E94D22A24
:1037E0009B01AC01C301B2010E94772C2B013C016B
:1037F000DA94DACFC701FF90EF90DF90CF90BF90BF
:10380000AF909F908F907F906F905F904F900895B2
:10381000CF92DF92EF92FF92CF93DF93D82F0E9447
:103820006A136B017C0181E0D11180E08093220654
:10383000C0E00E946A13AB01BC014C195D096E091E
:103840007F09403D57406105710580F4C1110EC0EC
:10385000A8950E944209909121069770933049F7EC
:10386000C1E0809122068D13E3CFE3CF8C2FDF914F
:10387000CF91FF90EF90DF90CF9008951F920F921D
:103880000FB60F9211242F933F934F935F936F9333
:103890007F938F939F93AF93BF93EF93FF9385E1B4
:1038A00095E00E94FB15FF91EF91BF91AF919F9121
:1038B0008F917F916F915F914F913F912F910F90D9
:1038C0000FBE0F901F9018951F920F920FB60F9278
:1038D00011242F938F939F93EF93FF93E0912505EE
:1038E000F09126058081E0912B05F0912C0582FD59
:1038F00012C0908180912E058F5F8F7320912F05CC
:10390000821751F0E0912E05F0E0EB5EFA4F958FB3
:1039100080932E0501C08081FF91EF919F918F913F
:103920002F910F900FBE0F901F90189590E0FC0103
:10393000E153FA4F3491FC01E950F94F2491FC0115
:10394000ED51F94FE491EE2309F43BC0332339F1F3
:10395000333091F038F43130A9F0323001F584B5CC
:103960008F7D12C0373091F03830A1F03430B9F487
:10397000809180008F7D03C0809180008F7780933D
:1039800080000DC084B58F7784BD09C08091B000E0
:103990008F7703C08091B0008F7D8093B000F0E0FE
:1039A000EE0FFF1FEB53FA4FA591B4918FB7F89428
:1039B000EC91611103C020952E2301C02E2B2C9376
:1039C0008FBF0895CF93C82F60E08091CE050E94ED
:1039D000961C8091D00518161CF460E00E94961C7D
:1039E0008C2F0E948F168091D005181624F461E068
:1039F000CF910C94961CCF910895EF92FF920F9364
:103A00001F93CF9380E2E82E81E0F82EC0E08C2F48
:103A100080640E94E21C80E80E94E21C61E08091C8
:103A2000CE050E94961C8091D00518161CF460E00B
:103A30000E94961C00E010E0F701E00FF11F80816A
:103A40000E948F160F5F1F4F04351105A9F7809153
:103A5000D00518161CF461E00E94961CCF5F84E527
:103A6000E80EF11CC63099F680E4CF911F910F91BA
:103A7000FF90EF900C94E21CCF93DF9390E0FC0159
:103A8000E950F94F2491FC01ED51F94F84918823BD
:103A900061F190E0880F991FFC01E554FA4FC59140
:103AA000D491FC01EB53FA4FA591B491611109C077
:103AB0009FB7F8948881209582238883EC912E23E8
:103AC0000BC0623061F49FB7F8943881822F8095E3
:103AD00083238883EC912E2B2C939FBF06C08FB736
:103AE000F894E8812E2B28838FBFDF91CF91089522
:103AF0008F929F92AF92BF92CF92DF92EF92FF92FE
:103B00006B017C010E9445134B015C01C114D1047F
:103B1000E104F104F1F00E944513DC01CB018819A6
:103B20009909AA09BB09883E9340A105B10570F324
:103B300021E0C21AD108E108F10888EE880E83E07E
:103B4000981EA11CB11CC114D104E104F10419F7A1
:103B5000DDCFFF90EF90DF90CF90BF90AF909F9020
:103B60008F9008958F929F92AF92BF92CF92DF92E3
:103B7000EF92FF920F931F93CF93DF93CDB7DEB7F2
:103B8000C054D1400FB6F894DEBF0FBECDBF8C013C
:103B90000E946A13F801C184D284E384F4849B01F7
:103BA000AC012C193D094E095F0969017A0130ED1C
:103BB000C31637E0D306E104F10410F48189B4C0E0
:103BC000F801618772878387948714821382128237
:103BD0001182108261E085810E94961C6AEF70E07C
:103BE00080E090E00E94781D61E0F80185810E94EC
:103BF0003C1D60E0F80185810E94961C64E170E044
:103C000080E090E00E94781DF89461E0F8018581E1
:103C10000E94961C8CE490E00197F1F762E0F801B5
:103C200085810E943C1D80E190E00197F1F760E002
:103C3000C8010E940E15672B682B692B21F4F8012F
:103C4000118A789442C061E0C8010E940E15672B6A
:103C5000682B692BA1F39E012F5F3F4F79015E0115
:103C60003FEBA31A3EEFB30A670160E0C8010E9470
:103C70000E15F601608371838283938361E0C8012E
:103C80000E940E15F6016483758386839783F8E09E
:103C9000CF0ED11CCA14DB0441F7789420E030E049
:103CA000F701408151816281738184809580A68073
:103CB000B780411551056105710529F08114910402
:103CC000A104B10421F4F801118A80E02DC0F901AA
:103CD00083E0F595E7958A95E1F7E00FF11F808184
:103CE000880F481559056A057B0508F481608083B3
:103CF0002F5F3F4FF8E0EF0EF11C2832310581F6BF
:103D0000F801248130E04081818190E0840F911D91
:103D10004281840F911D4381840F911D992728179B
:103D2000390789F681E0818BC05CDE4F0FB6F894CD
:103D3000DEBF0FBECDBFDF91CF911F910F91FF90DE
:103D4000EF90DF90CF90BF90AF909F908F900895AD
:103D50000895CF92DF92EF92FF92CF93DF936B01A2
:103D60007C01EA0188EF91E0E0E2F1E0DF019C01F3
:103D70001D9221503040E1F71092BF051092BE0510
:103D800082E79EE09093CB058093CA058CE090E09B
:103D90009093C1058093C0056091510670915206C1
:103DA000809153069091540641E00E94241BA70184
:103DB0009601C701B6010E94912D882321F08DED57
:103DC00093E00E94E11A8FED93E00E94E11A1092B5
:103DD000BF051092BE058EE190E09093C1058093DF
:103DE000C0056091550670915606072E000C880B91
:103DF000990B41E00E94E31ABE01DD0F880B990B7D
:103E00000E94D42A9B01AC010E94912D882321F0AD
:103E10008DED93E00E94E11A83EE93E00E94E11A97
:103E200086E490E09093BF058093BE058EE190E01C
:103E30009093C1058093C00580915706882319F09F
:103E400086EE93E002C088EE93E00E94E11A1092A1
:103E5000CB051092CA051092BF051092BE0586E2EE
:103E600090E09093C1058093C0058AEE93E00E9494
:103E7000E11AC0901A03D0901B03E0901C03F0904D
:103E80001D0320E030E0A901C701B6010E94CD2A40
:103E9000811105C08DEE93E00E94E11A05C041E05A
:103EA000C701B6010E94241B82E390E09093BF05F6
:103EB0008093BE0586E290E09093C1058093C00593
:103EC00080EF93E00E94E11A4AE060E070E0CB01ED
:103ED0000E94E31A84EE93E00E94E11ADF91CF91F1
:103EE000FF90EF90DF90CF900C94FD1CCF93DF9369
:103EF000EC018E818330D1F48D818230B9F4CE0112
:103F00000E94C12391E0811101C090E09093570677
:103F10004091550650915606609151067091520697
:103F200080915306909154060E94A91E8E81843080
:103F300081F58D81883169F58C81829586958770B0
:103F4000873029F46F81788589859A850AC0811127
:103F500005C0CE0107960E94E02803C060E070E033
:103F6000CB0160931A0370931B0380931C039093FF
:103F70001D0340915506509156066091510670916F
:103F800052068091530690915406DF91CF910C9484
:103F9000A91EDF91CF9108952F923F924F925F9289
:103FA0006F927F928F929F92AF92BF92CF92DF9249
:103FB000EF92FF920F931F93CF93DF93CDB7DEB7AE
:103FC000C554D1090FB6F894DEBF0FBECDBF8091A6
:103FD000500691E0980F909350066AE00E94962D4B
:103FE00091117EC08091180320E4829FC0011124AA
:103FF00080937C0080917A00806480937A00809125
:104000007A0086FDFCCF609178008091790070E0A5
:10401000782B072E000C880B990B0E94D42A2AEAD1
:1040200030E444EA5BE30E94332B2B013C0120E0A7
:1040300030E04AE754E40E94332B0E945D2D4B018F
:104040005C0180914D0690914E068815990509F402
:1040500047C0CE0101960E94D22382E08F8386E280
:104060008E838D818F7180668D838C818770806156
:104070008C8399868886CE0101960E94AF1A20E033
:1040800043E06FEF80E00E94D8167C0123E333E326
:1040900043E550E4C301B2010E94772C2AE939E9D3
:1040A00049E95FE30E94E42C20E030E048EC52E470
:1040B0000E94332B0E94562DAB016536710514F01A
:1040C00044E650E0BA0157FF02C060E070E0C7016B
:1040D0000E9480230E94F32490924E0680924D0607
:1040E00010E037E9A32E33E0B32E8091EC058FA3C7
:1040F000BEA2ADA28091ED059091EE0599A788A78B
:104100008091EF059091F005A091F105B091F20535
:104110008AA79BA7ACA7BDA7BE016F5F7F4FCE014B
:1041200085960E94F213CD88DE88EF88F88CA7016F
:104130009601C701B6010E94912D882351F01F5F9F
:104140001430C1F168EC70E080E090E00E945823E8
:10415000CCCF209151063091520640915306509198
:104160005406C701B6010E94CD2A882319F1C092D6
:104170005106D0925206E0925306F0925406CE01B8
:1041800085960E94D22391E09BA71AA64D895E894D
:104190006F89788D88A58770886288A789A5806EC9
:1041A00089A74CA75DA76EA77FA798ABCE01859680
:1041B0000E94AF1A8091F5058FA389E893E09EA332
:1041C0008DA38091F6059091F70599A788A7809116
:1041D000F8059091F905A091FA05B091FB058AA721
:1041E0009BA7ACA7BDA7BE016F5F7F4FCE01859691
:1041F0000E947613CD88DE88EF88F88CA70196019F
:10420000C701B6010E94912D811126C0C701B601D8
:104210000E94562D6B017C018091550690915606A7
:104220008C159D05C9F0D0925606C0925506CE0158
:1042300085960E94D2231BA681E08AA789A58F714B
:10424000806489A788A58770806188A7DDA6CCA631
:10425000CE0185960E94AF1ACD88DE88EF88F88C53
:10426000C701B6010E94562DAB01C701B6010E94DD
:10427000A91E60911A0370911B0380911C039091F9
:104280001D039B01AC010E94912D882329F0809190
:104290004F06853008F4C8C08091480682FD1EC0D4
:1042A0000E946A136B017C0180E090E0DC012091A8
:1042B000480622FDC9C0803127E29207A105B10559
:1042C00008F0C2C0A8950E9442090E946A13DC014E
:1042D000CB018C199D09AE09BF09E9CF90E6C92E23
:1042E0009AEED92EE12CF12C20E243E06FEF80E032
:1042F0000E94D816FC0184818F71806A8483838137
:1043000087708062838384EF91E0A0E0B0E08783D0
:104310009087A187B287CF010E94F32464EF71E0F8
:1043200080E090E00E9458230E940B09260137018B
:104330008FE0480E511C611C711C22242394312CE7
:1043400008E1809119038F3F09F08FC020E14216E8
:1043500051046104710408F488C019E084E0810FFD
:10436000A10102C0440F551F8A95E2F74A01A12C12
:10437000B12C481459046A047B0408F453C085E145
:1043800095E00E94631680917A008F7780937A007F
:10439000909160001F3FA9F013FD02C088E001C0AA
:1043A00088E21770182B0FB6F894A8950093600058
:1043B0000FBE109360008091600080658093600064
:1043C0000BC00FB6F894A895809160008861809327
:1043D0006000109260000FBE83B7817F846083BF4E
:1043E000F89483B7816083BF85B7806685BF8F7D72
:1043F00085BF7894889583B78E7F83BFF894A895FE
:104400008091600088618093600090936000789450
:1044100080917A00806880937A00481859086A0869
:104420007B088FCF11509ACF68E184E00E94D51AA3
:1044300064EF71E080E090E00E94582380914F0685
:104440008F5F80934F0628CF80362AEE9207A10512
:10445000B10530F520E6C22E2AEED22EE12CF12C49
:10446000C81AD90AEA0AFB0A3FCF29986EE080E20F
:104470000E94FA0821E243E06FEF80E00E94D81624
:10448000FC0184818F71806A84838381877080625C
:104490008383C782D086E186F286CF010E94F3240F
:1044A000CB5BDF4F0FB6F894DEBF0FBECDBFDF9101
:1044B000CF911F910F91FF90EF90DF90CF90BF9021
:1044C000AF909F908F907F906F905F904F903F90B4
:1044D0002F9008952BE043E06FEF80E00E94D81604
:1044E00063EF73E00E948C230E94F3242CE043E0EE
:1044F0006FEF80E00E94D8166CEF73E00E948C236F
:104500000E94F32443EF53E067E080E00E94C01A6A
:1045100040E054E066E081E00E94C01A4CE054E0C4
:104520006EE182E00E94C01A4AE154E063E083E059
:104530000E94C01A49E254E067E184E00C94C01A7A
:1045400062E08091DC050E943C1D80E398EFAFEFB4
:10455000BFEF8093E0059093E105A093E205B0934F
:10456000E3050E9460158091CC058F3F29F490915E
:10457000CD059F3F09F48DC061E00E943C1D61E0C4
:104580008091CD050E943C1D8091CD05082E000C28
:10459000990BFC01ED51F94FE491F0E0EE0FFF1F94
:1045A000EB53FA4F259134913093D4052093D305E2
:1045B000FC01E950F94FE491E093D6058091CC05D8
:1045C000082E000C990BFC01ED51F94FE491F0E03D
:1045D000EE0FFF1FEB53FA4F259134913093D20524
:1045E0002093D105FC01E950F94FE491E093D50502
:1045F00061E08091CE050E943C1D8091CF05181688
:104600001CF461E00E943C1D8091D00518161CF43A
:1046100061E00E943C1D8091CF05181674F460E0A3
:104620000E94961C64EF71E080E090E00E94781D8B
:1046300061E08091CF050E94961C81E20E94E21CFD
:1046400084E10E94E21C88EA0E94E21C80E20E944F
:10465000E21C8CE00E94E21C0E94FD1C81E20E9490
:10466000E21C82EB0E94E21C80E20E94E21C0E949B
:10467000FD1C83E08093180362E00E94D51A68E174
:1046800084E00E94D51A64EF71E080E090E00C9421
:1046900058230E9460158CB58C7F8CBD8DB58E7FA4
:1046A0008DBD8CB5837F8CBD8CB58F7D8CBDA0CF2F
:1046B0008F929F92AF92BF92CF92DF92EF92FF9232
:1046C0006B017C010E946A134B015C010E946A131A
:1046D000DC01CB0188199909AA09BB098C159D0534
:1046E000AE05BF0520F4A8950E944209EFCFFF90C8
:1046F000EF90DF90CF90BF90AF909F908F900895F4
:10470000FC01838187708860838384818F718062DC
:1047100084836783CF0108950F931F93CF93DF9313
:10472000EC016115710561F0FB0101900020E9F7D2
:104730003197E61BF70BE931F10518F0E9E101C00B
:10474000E0E00E2F10E0C80123E0880F991F2A95A2
:10475000E1F79B819770892B8B838C818F718C8380
:10476000EE2329F0A801CE0107960E94D62DFE0166
:10477000E00FF11F1782CE01DF91CF911F910F91B2
:104780000895FC012481229526952770213011F48B
:1047900087810895211104C007960E94E428089596
:1047A00080E00895CF93DF93FC0110821182128282
:1047B000148215821682DC0117968AE1ED011992A6
:1047C0008A95E9F782E08383DF91CF91089587305E
:1047D000910528F4FC01EC5CFF4F0C94C42D80E0A3
:1047E00090E0089588E00E9436098F70282F38EFF6
:1047F0003203C00111244D97089586E00E943609C6
:10480000282F30E035952795209530952370332754
:104810004AEF4203C001439F900D1124089586E0A2
:104820000E943609282F30E0359527953595279534
:104830002370332789E1829F800D112490E0089531
:1048400080914B0690914C0624E0959587952A958A
:10485000E1F7089580E09FEF0895CF92DF92EF9205
:10486000FF921F93CF93DF93FC01828190914806C2
:1048700090FF04C08F3F09F04DC005C08F3F19F075
:10488000D091120501C0DFEF809111058083438133
:1048900042FD06C0469546954695C7E0C40F01C047
:1048A000C0E27F01109114051170299880E091E019
:1048B0000197F1F76EE080E20E94FA0884EC90E044
:1048C0000197F1F76D2F8AE20E94FA086D2F80E3BD
:1048D0000E94FA0881EE0E943C09DF3F21F011118D
:1048E00002C080EA01C080EB4C2FC13208F040E2E8
:1048F00020E0B7010E94BF08299AE12CF12C8FEF2C
:104900000E943C09C82F807339F481E0E81AF1084D
:10491000B1F702C010E05EC0299860E387E20E9410
:10492000FA08C4FF03C081EE0E943C090E942909D5
:10493000C5FD02C0117001C011E081E0DF3F09F048
:1049400080E0182B80911205D81344C0909149063D
:10495000111108C081E0890F8F70907F982B909380
:10496000490638C0907F9093490681E090E00E940C
:10497000E723EC0160914B0670914C06072E000C6A
:10498000880B990B0E94D42A23E333E343E75FE3C8
:104990000E94332B6B017C01CE0124E0880F991F0C
:1049A0002A95E1F7BC01990F880B990B0E94D42A34
:1049B0002DEC3CEC4CE45DE30E94332B9B01AC01FD
:1049C000C701B6010E94782C0E94562D70934C06A8
:1049D00060934B06812FDF91CF911F91FF90EF9055
:1049E000DF90CF9008952091480622FD0C942D244D
:1049F00080E00895CF932FE043E06FEF80E00E94C6
:104A0000D8166EED73E00E948C23ECEFF5E0838105
:104A100087708061838384818F71806C848381E05F
:104A200087831086CF010E94F3248FE00E94081C28
:104A30004EED53E061E18FEF0E94C01AC091120564
:104A400026E043E06FEF80E00E94D8166C2F0E94B2
:104A500080230E94F32486E00E94081CCF910C94CE
:104A60006A22CF9380914B0481FD1FC00E94FA24DB
:104A700080914B04816080934B04C4E02AE143E0C1
:104A80006FEF80E00E94D81662E00E9480230E94AF
:104A9000F3248BE10E94081C811102C0C15071F700
:104AA00080914B04826080934B04CF910895CF9303
:104AB0009FEF980F9E3FB0F4C82F8093110580930D
:104AC0001E0363E082E20E94FA0861E081E20E9434
:104AD000FA080E9429096C2F80E090E00E94142CB3
:104AE00081E004C08FEF8093110580E0CF9108959D
:104AF0000895E5E1F5E01382128288EE93E0A0E0EC
:104B0000B0E084839583A683B78381E593E09183A6
:104B1000808385EC90E09587848784EC90E097878C
:104B2000868780EC90E0918B808B81EC90E0938B7A
:104B3000828B82EC90E0958B848B86EC90E0978B57
:104B4000868B118E128E138E148E8DE196E00E944C
:104B5000D2238CEF95E00E94D223A7EDB5E087E049
:104B600015968C93159786E116968C931697EEEF13
:104B7000F6E0E4911796EC931797EAEEF6E0E491ED
:104B80001896EC93189740E45FE160E070E01D96A2
:104B90004D935D936D937C93509752968C9352975F
:104BA00087E993E054969C938E9353970A2E1B2E7D
:104BB00057961C920E92112456974FEF5FEFBA0151
:104BC00058964D935D936D937C935B9789E893E042
:104BD0005D969C938E935C970A2E1B2E90961C924A
:104BE0000E9211245F9791964D935D936D937C93F4
:104BF0009497E2EBF5E01382128224E530E03583EE
:104C0000248380E390E0978386833187208793878E
:104C10008287158A158614861786168681E0848B0E
:104C20002FEF3FEF338B228B318B208B868B178AB4
:104C3000118E108E81E693E09183808385E0828FD0
:104C400086E0838F84E0848F158E8FEF868F0895A2
:104C5000CF93DF93CDB7DEB7A1970FB6F894DEBF41
:104C60000FBECDBF789484B5826084BD84B5816069
:104C700084BD85B5826085BD85B5816085BD809127
:104C80006E00816080936E0010928100809181009F
:104C90008260809381008091810081608093810097
:104CA000809180008160809380008091B100846059
:104CB0008093B1008091B00081608093B0008091BA
:104CC0007A00846080937A0080917A008260809379
:104CD0007A0080917A008E7F80937A0080917A00AA
:104CE000806880937A001092C100A89580E090E0DF
:104CF000892B11F00E940000E0912505F091260516
:104D000082E08083E0912105F09122051082E091FC
:104D10002305F091240588E0808310922D05E09111
:104D20002905F0912A0586E08083E0912705F0911E
:104D30002805808180618083E0912705F091280516
:104D4000808188608083E0912705F091280580812B
:104D500080688083E0912705F091280580818F7D10
:104D6000808380914B048D7F80934B0480E090E0A2
:104D7000892B11F00E94000080E2EAE5F6E0DF01F5
:104D80001D928A95E9F740E250E069E77EE08DE800
:104D900094E00E9429291092AD041092AE04109262
:104DA000AF041092B00410928C0440E250E063E62D
:104DB00071E0CE0101960E94F42B60E270E0CE011A
:104DC00001960E94D00B40E150E06CE871E0CE010A
:104DD00001960E94F42B60E170E0CE0101960E94E2
:104DE000D00B49E050E063E871E0CE0101960E94EB
:104DF000F42B69E070E0CE0101960E94D00B80E8B0
:104E00000E94E71680918C04883311F080E0F8CF7F
:104E100080E00E94E71680E00E94E71680E00E9492
:104E2000E7168091AD049091AE04A091AF04B091CB
:104E3000B0042DE1B695A795979587952A95D1F75A
:104E40000E94E7168091AD049091AE04A091AF044A
:104E5000B091B00435E1B695A795979587953A95A9
:104E6000D1F70E94E7168091AD049091AE04A09115
:104E7000AF04B091B0044DE0B695A795979587958E
:104E80004A95D1F70E94E7168091AD049091AE0447
:104E9000A091AF04B091B00455E0B695A795979551
:104EA00087955A95D1F70E94E7168091AD04880F37
:104EB000880F880F0E94E716EDE8F4E060817181A9
:104EC000828193810E94CA2D619371938193919302
:104ED000B4E0ED3AFB0791F780E2EDE8F4E0AAE5F3
:104EE000B6E001900D928A95E1F741E050E06AE169
:104EF00071E0CE0181960E94F42B41E050E063E026
:104F000071E08AE494E00E94F42B6FEF81E090E07E
:104F10000E94142C809149068F7880934906109244
:104F20003F0610923E068FE193E00E94F80781E36E
:104F300095E290935906809358060E946A130E9446
:104F40006A130E944209A8958091480682FFF7CF14
:104F50000E94A022A895A8950E9442090E94CC1FF9
:104F60000E948516F8CFCF93DF938230910510F41D
:104F700082E090E0E0917C06F0917D0620E030E058
:104F8000C0E0D0E0309711F14081518148175907B6
:104F9000C0F04817590761F482819381209719F076
:104FA0009B838A832BC090937D0680937C0626C0CA
:104FB0002115310519F04217530718F49A01BE0163
:104FC000DF01EF010280F381E02DDCCF21153105F7
:104FD00009F1281B390B2430310590F412968D917C
:104FE0009C9113976115710521F0FB0193838283D6
:104FF00004C090937D0680937C06FD01329644C0E8
:10500000FD01E20FF31F81939193225031092D93FB
:105010003C933AC020917A0630917B06232B41F4D1
:10502000209125033091260330937B0620937A0646
:1050300020912303309124032115310541F42DB72C
:105040003EB74091270350912803241B350BE09174
:105050007A06F0917B06E217F307A0F42E1B3F0BB4
:105060002817390778F0AC014E5F5F4F24173507DA
:1050700048F04E0F5F1F50937B0640937A06819352
:10508000919302C0E0E0F0E0CF01DF91CF9108956D
:105090000F931F93CF93DF93009709F48CC0FC010B
:1050A00032971382128200917C0610917D060115C1
:1050B000110581F420813181820F931F20917A069E
:1050C00030917B062817390779F5F0937B06E0933A
:1050D0007A0671C0D80140E050E0AE17BF0750F427
:1050E00012962D913C911397AD012115310509F1CF
:1050F000D901F3CF9D01DA0133832283608171816D
:10510000860F971F8217930769F4EC012881398174
:10511000260F371F2E5F3F4F318320838A819B816B
:1051200093838283452B29F4F0937D06E0937C06DC
:1051300042C01396FC93EE931297ED014991599159
:105140009E01240F351FE217F30771F480819181CE
:10515000840F951F029611969C938E938281938162
:1051600013969C938E931297E0E0F0E0D80112968C
:105170008D919C911397009719F0F8018C01F6CF4F
:105180008D919C9198012E5F3F4F820F931F20912C
:105190007A0630917B062817390769F4309729F48D
:1051A00010927D0610927C0602C013821282109328
:1051B0007B0600937A06DF91CF911F910F9108959E
:1051C000662777270C944F29FC0188279927E894B4
:1051D00021912032E9F3293010F02E30C8F32B3220
:1051E00041F02D3239F4689404C00E944729820F9F
:1051F000911D219120532A30C0F31EF49095819582
:105200009F4F08951F93FC0199278827BC01E894BC
:1052100011911032E9F3193010F01E30C8F31B322F
:1052200051F01D3249F4689406C00E943229610F82
:10523000711D811D911D119110531A30B0F33EF470
:1052400090958095709561957F4F8F4F9F4F1F91DF
:105250000895FB01DC0102C005900D9241505040C1
:10526000D8F70895592F482F372F262F660F771F0D
:10527000881F991F660F771F881F991F620F731F62
:10528000841F951F660F771F881F991F08957AE066
:10529000979F902D879F802D910D11240895A0E058
:1052A000B0E0E5E5F9E20C94352CEC017B016115E9
:1052B000710519F0DB018D939C938E010F5F1F4FD9
:1052C0007880872D90E00E94AC2A892B11F0E801AC
:1052D000F4CFBDE27B1205C00F5F1F4F7980C1E0A4
:1052E00008C0EBE27E1204C08E010E5F1F4F798072
:1052F000C0E06801F1E0CF1AD10843E050E06EE76A
:1053000070E0C6010E94B52A892BF1F4680122E001
:10531000C20ED11C45E050E069E770E0C6010E9472
:10532000B52A892B21F4680187E0C80ED11CE1144D
:10533000F10419F0D701CD92DC92C111FFC060E0F9
:1053400070E080E89FE703C143E050E066E770E06B
:10535000C6010E94B52A892B51F4E114F10409F425
:10536000F2C00E5F1F4FF70111830083ECC068018C
:1053700060E070E0CB0100E010E0F601D0EDD70D69
:10538000DA3058F52C2F2260622E2C2F2870C2FFA5
:1053900005C0211128C00F5F1F4F25C0222311F027
:1053A00001501109A5E0B0E09B01AC010E94262C40
:1053B0004B015C01880C991CAA1CBB1CC501B401E3
:1053C0006D0F711D811D911D6839A9E97A078A0742
:1053D000A9E19A0740F0C66005C0DE3F51F4C3FD65
:1053E00044C0C8606C2EBFEFCB1ADB0A7080C62D9C
:1053F000C4CF2D2F2F7D2531C1F540814D3211F4C1
:10540000C06106C04B3221F0319621E030E006C089
:105410003296D60111964C9122E030E0A0EDA40F17
:10542000AA3018F0E21BF30B20C040E050E04038F7
:10543000BCE05B075CF49A01220F331F220F331F7D
:10544000420F531F440F551F4A0F511D3196DF0164
:1054500011972C91A0EDA20FAA3048F3C4FF03C00E
:10546000519541955109040F151FC1FF07C0E11463
:10547000F10421F03197D701ED93FC930E94D22AD9
:10548000C370C33019F06B017C0106C06B017C0155
:10549000F7FAF094F7F8F09420E030E0A901C701A2
:1054A000B6010E94CD2A882309F445C017FF06C023
:1054B000119501951109C5E9D0E002C0CDEAD0E00F
:1054C0005E01B8E1AB1AB1084601BE2DAF2D90E2E6
:1054D000E92EF12C0E151F0584F0FE012591359162
:1054E00045915491B4018B2F9A2F0E94332B4B017D
:1054F000B82FA92F0E191F09EDCF2497F594E79423
:10550000CA15DB0539F76401EB2EFA2E8E2D880FB4
:105510008F2D881F8F3F49F020E030E0A901C7019F
:10552000B6010E94CD2A811106C082E290E09093DC
:105530007F0680937E06C701B60109C060E070E077
:1055400080E89FEF04C060E070E080EC9FE7CDB79B
:10555000DEB7EEE00C94512C91110C94A02B80320C
:1055600019F089508550C8F70895FB01DC014150BE
:10557000504088F08D9181341CF08B350CF4805EA6
:10558000659161341CF06B350CF4605E861B611113
:1055900071F3990B0895881BFCCF0E940F2B08F420
:1055A00081E00895E89409C097FB3EF490958095BA
:1055B000709561957F4F8F4F9F4F9923A9F0F92FD9
:1055C00096E9BB279395F695879577956795B79557
:1055D000F111F8CFFAF4BB0F11F460FF1BC06F5F3D
:1055E0007F4F8F4F9F4F16C0882311F096E911C04F
:1055F000772321F09EE8872F762F05C0662371F070
:1056000096E8862F70E060E02AF09A95660F771F83
:10561000881FDAF7880F9695879597F90895990F5F
:105620000008550FAA0BE0E8FEEF16161706E8076C
:10563000F907C0F012161306E407F50798F0621B8D
:10564000730B840B950B39F40A2661F0232B242B62
:10565000252B21F408950A2609F4A140A6958FEF81
:10566000811D811D08950E94462B0C94BA2B0E9427
:10567000AC2B38F00E94B32B20F0952311F00C9442
:10568000A32B0C94A92B11240C94EE2B0E94CB2B52
:1056900070F3959FC1F3950F50E0551F629FF00185
:1056A000729FBB27F00DB11D639FAA27F00DB11D9E
:1056B000AA1F649F6627B00DA11D661F829F222727
:1056C000B00DA11D621F739FB00DA11D621F839FAE
:1056D000A00D611D221F749F3327A00D611D231F84
:1056E000849F600D211D822F762F6A2F11249F57D2
:1056F00050409AF0F1F088234AF0EE0FFF1FBB1FD5
:10570000661F771F881F91505040A9F79E3F510593
:1057100080F00C94A32B0C94EE2B5F3FE4F3983EA7
:10572000D4F3869577956795B795F795E7959F5F3D
:10573000C1F7FE2B880F911D9695879597F90895CF
:1057400099278827089597F99F6780E870E060E0BF
:1057500008959FEF80EC089500240A94161617060A
:1057600018060906089500240A9412161306140652
:1057700005060895092E0394000C11F4882352F0B5
:10578000BB0F40F4BF2B11F460FF04C06F5F7F4F6D
:105790008F4F9F4F089557FD9058440F551F59F054
:1057A0005F3F71F04795880F97FB991F61F09F3F0E
:1057B00079F087950895121613061406551FF2CF37
:1057C0004695F1DF08C0161617061806991FF1CF87
:1057D00086957105610508940895E894BB276627AE
:1057E0007727CB0197F90895DC01CB01FC01F999EA
:1057F000FECF06C0F2BDE1BDF89A319600B40D921D
:1058000041505040B8F70895DC01A40FB51F415036
:10581000504048F0CB01840F951F2E910E94152C0B
:1058200041505040D0F70895262FF999FECF92BDF0
:1058300081BDF89A019700B4021639F01FBA20BD55
:105840000FB6F894FA9AF99A0FBE08950E94682C40
:10585000A59F900DB49F900DA49F800D911D1124C4
:1058600008952F923F924F925F926F927F928F9204
:105870009F92AF92BF92CF92DF92EF92FF920F93DF
:105880001F93CF93DF93CDB7DEB7CA1BDB0B0FB6E9
:10589000F894DEBF0FBECDBF09942A8839884888A6
:1058A0005F846E847D848C849B84AA84B984C8843C
:1058B000DF80EE80FD800C811B81AA81B981CE0F33
:1058C000D11D0FB6F894DEBF0FBECDBFED01089518
:1058D000A29FB001B39FC001A39F700D811D112431
:1058E000911DB29F700D811D1124911D0895505876
:1058F000BB27AA270E948F2C0C94BA2B0E94AC2B9A
:1059000038F00E94B32B20F039F49F3F19F426F4AD
:105910000C94A92B0EF4E095E7FB0C94A32BE92F34
:105920000E94CB2B58F3BA176207730784079507B9
:1059300020F079F4A6F50C94ED2B0EF4E0950B2EE7
:10594000BA2FA02D0B01B90190010C01CA01A001D1
:105950001124FF27591B99F0593F50F4503E68F12C
:105960001A16F040A22F232F342F4427585FF3CF6D
:10597000469537952795A795F0405395C9F77EF43E
:105980001F16BA0B620B730B840BBAF09150A1F087
:10599000FF0FBB1F661F771F881FC2F70EC0BA0F0D
:1059A000621F731F841F48F4879577956795B79595
:1059B000F7959E3F08F0B0CF9395880F08F0992790
:1059C000EE0F9795879508950E94F82C0C94BA2BAA
:1059D0000E94B32B58F00E94AC2B40F029F45F3F9B
:1059E00029F00C94A32B51110C94EE2B0C94A92BA1
:1059F0000E94CB2B68F39923B1F3552391F3951BA8
:105A0000550BBB27AA2762177307840738F09F5FDF
:105A10005F4F220F331F441FAA1FA9F335D00E2E4C
:105A20003AF0E0E832D091505040E695001CCAF7B9
:105A30002BD0FE2F29D0660F771F881FBB1F26177C
:105A400037074807AB07B0E809F0BB0B802DBF0153
:105A5000FF2793585F4F3AF09E3F510578F00C9422
:105A6000A32B0C94EE2B5F3FE4F3983ED4F3869582
:105A700077956795B795F7959F5FC9F7880F911D43
:105A80009695879597F90895E1E0660F771F881F2F
:105A9000BB1F621773078407BA0720F0621B730BE2
:105AA000840BBA0BEE1F88F7E09508950E945D2DD8
:105AB0006894B1110C94EE2B08950E94D32B88F0BA
:105AC0009F5798F0B92F9927B751B0F0E1F0660FC2
:105AD000771F881F991F1AF0BA95C9F714C0B13003
