:100000000C94B8060C94FA1E0C94D31E0C94E006C3
:100010000C94E0060C94E0060C94AD0C0C94E006F5
:100020000C94E0060C94E0060C94E0060C94E006B8
:100030000C94E0060C94E0060C94E0060C94E006A8
:100040000C94891E0C94E0060C94E0060C94E006D7
:100050000C94E0060C94E0060C94E0060C94E00688
:100060000C94E0060C94E0064E414E494E4954591A
:10007000494E46CDCCCC3D0AD7233C17B7D1387773
:10008000CC2B329595E6241FB14F0A000020410089
:1000900000C84200401C4620BCBE4CCA1B0E5AAED3
:1000A000C59D740000000023002600290000000008
:1000B00000003E5B4F5B3E3E6B4F6B3E1C3E7C3E0A
:1000C0001C183C7E3C181C577D571C1C5E7F5E1C18
:1000D00000183C1800FFE7C3E7FF0018241800FFD2
:1000E000E7DBE7FF30483A060E2629792926407FCC
:1000F000050507407F05253F5A3CE73C5A7F3E1CDB
:100100001C08081C1C3E7F14227F22145F5F005FC6
:100110005F06097F017F006689956A6060606060A4
:1001200094A2FFA29408047E040810207E201008E8
:10013000082A1C08081C2A08081E101010100C1E83
:100140000C1E0C30383E3830060E3E0E0600000005
:10015000000000005F00000007000700147F147F0C
:1001600014242A7F2A122313086462364956205029
:100170000008070300001C2241000041221C002A45
:100180001C7F1C2A08083E08080080703000080800
:10019000080808000060600020100804023E514971
:1001A000453E00427F400072494949462141494D40
:1001B000331814127F1027454545393C4A494931C7
:1001C00041211109073649494936464949291E0046
:1001D00000140000004034000000081422411414F0
:1001E000141414004122140802015909063E415D0D
:1001F000594E7C1211127C7F494949363E4141419A
:10020000227F4141413E7F494949417F0909090116
:100210003E414151737F0808087F00417F41002023
:1002200040413F017F081422417F404040407F020F
:100230001C027F7F0408107F3E4141413E7F090937
:1002400009063E4151215E7F09192946264949493F
:100250003203017F01033F4040403F1F2040201FE9
:100260003F4038403F63140814630304780403617B
:1002700059494D43007F414141020408102000418B
:1002800041417F0402010204404040404000030716
:10029000080020545478407F28444438384444446B
:1002A00028384444287F385454541800087E0902E2
:1002B00018A4A49C787F0804047800447D400020A2
:1002C00040403D007F1028440000417F40007C04F6
:1002D0007804787C080404783844444438FC1824B2
:1002E000241818242418FC7C080404084854545486
:1002F0002404043F44243C4040207C1C2040201C1B
:100300003C4030403C44281028444C9090907C4421
:1003100064544C440008364100000077000000415E
:1003200036080002010204023C2623263C1EA1A13D
:1003300061123A4040207A38545455592155557924
:1003400041225454784221555478402054557940E4
:100350000C1E527212395555555939545454593945
:10036000555454580000457C410002457D4200012F
:10037000457C407D1211127DF0282528F07C5455D3
:1003800045002054547C547C0A097F49324949492C
:10039000323A4444443A324A4848303A4141217A58
:1003A0003A42402078009DA0A07D3D4242423D3D22
:1003B0004040403D3C24FF2424487E4943662B2F87
:1003C000FC2F2BFF0929F620C0887E0903205454F6
:1003D00079410000447D413048484A32384040224B
:1003E0007A007A0A0A727D0D19317D2629292F2873
:1003F000262929292630484D4020380808080808B1
:10040000080808382F10C8ACBA2F102834FA00009A
:100410007B000008142A142222142A1408550055BF
:100420000055AA55AA55AAFF55FF55FF000000FF29
:1004300000101010FF00141414FF001010FF00FF34
:100440001010F010F0141414FC001414F700FF0046
:1004500000FF00FF1414F404FC141417101F1010F4
:100460001F101F1414141F00101010F000000000C3
:100470001F101010101F10101010F010000000FFBF
:10048000101010101010101010FF10000000FF14BA
:100490000000FF00FF00001F10170000FC04F41410
:1004A000141710171414F404F40000FF00F71414C8
:1004B0001414141414F700F7141414171410101F44
:1004C000101F141414F4141010F010F000001F107A
:1004D0001F0000001F14000000FC140000F010F0CA
:1004E0001010FF10FF141414FF141010101F000040
:1004F0000000F010FFFFFFFFFFF0F0F0F0F0FFFF53
:10050000FF0000000000FFFF0F0F0F0F0F384444E3
:100510003844FC4A4A4A347E02020606027E027EC3
:100520000263554941633844443C04407E201E2008
:1005300006027E020299A5E7A5991C2A492A1C4CAD
:100540007201724C304A4D4D303048784830BC62B0
:100550005A463D3E494949007E0101017E2A2A2A28
:100560002A2A44445F444440514A444040444A514A
:10057000400000FF0103E080FF000008086B6B08EB
:100580003612362436060F090F0600001818000030
:10059000001010003040FF0101001F01011E001972
:1005A0001D1712003C3C3C3C000000000000000015
:1005B000000500010000030D0602F405000705090F
:1005C00001F40A000A0C0A00F51900090F0A01F3E8
:1005D0002A00100D1000F444000C0D0D01F4580019
:1005E00003050501F45A0006110601F4670006111F
:1005F0000600F4740005060701F4780007080B02F2
:10060000F97F0003050401FF810005020600FB835A
:100610000003020401FF8400050D0500F48D0009AC
:100620000D0A01F49C00050D0A02F4A500090D0A4B
:1006300001F4B400080D0A01F4C100080D0A02F427
:10064000CE00090D0A01F4DD00090D0A01F4EC00E9
:10065000090D0A00F4FB000A0D0A00F40C01090D53
:100660000A01F41B0103090401F81F01030C040132
:10067000F8240109090B01F82F0109060B01FA36CC
:100680000109090B01F84101090D0B01F45001109A
:100690000F1200F46E010C0D0D00F482010B0D0D14
:1006A00001F494010C0D0D01F4A8010C0D0D01F4E1
:1006B000BC01090D0C01F4CB01090D0B01F4DA01A9
:1006C0000B0D0E01F4EC010B0D0D01F4FE01030DF9
:1006D0000601F40302080D0A01F410020C0D0D01CD
:1006E000F42402080D0B01F431020E0D1001F44840
:1006F000020B0D0E01F45A020D0D0E01F470020BE7
:100700000D0C01F482020D0E0E01F499020C0D0D78
:1007100001F4AD020B0D0C01F4BF02090D0C02F443
:10072000CE020B0D0D01F4E0020C0D0C00F4F402EE
:10073000110D1100F410030C0D0C00F424030B0D2B
:100740000C01F43603090D0B01F4450304110601F5
:10075000F44E03050D0500F4570304110600F46080
:100760000308080B01F468030A010A00046A030382
:10077000020500F46B030A0A0A01F778030A0D0B5D
:1007800001F48903090A0A01F79503090D0B01F425
:10079000A403090A0A01F7B003050D0601F4B90321
:1007A000090E0B01F7C903090D0B01F4D803030D62
:1007B0000501F4DD0304110500F4E603090D0A0147
:1007C000F4F503030D0501F4FA030E0A1001F70C0A
:1007D00004090A0B01F718040A0A0B01F725040A99
:1007E0000E0B01F73704090E0B01F74704060A0741
:1007F00001F74F04090A0A01F75B04050C0601F52D
:100800006304090A0B01F76F040A0A0A00F77C0463
:100810000E0A0E00F78E040A0A0A00F79B040A0E5D
:100820000A00F7AD04080A0901F7B704041107012B
:10083000F4C00401110502F4C30404110702F4CC4E
:100840000408020900FCFFFFFE487EEFDFBF744092
:10085000198667FDFF330CC333FEFF998661901044
:100860001F1FDEFF3F83C0FC1F09FCFEF7F1E040C5
:1008700038107C30C620C640C6407C80399C013E82
:100880000363026304630C3E081C0E01F83B83B84B
:100890003F01E03E6776E3EE1CF3C7FE3F70FFF4D6
:1008A00018631C738E38E38E1870C3060861830EBC
:1008B0003871C71C71C638E31840213E452838708E
:1008C000E7FFE70E1CFC9CFFC0FC08C423108462F9
:1008D0001188003E3F9DDC7E3F1F8FC7E3F1DDCFD7
:1008E000E3E008FFF39CE739CE73803E3FB8FC702D
:1008F000381C1C1C1C1C1C0FF7F83C7FE7E7070C7E
:100900000E0707E7E77E3C0E1E1E2E2E4E4E8EFF74
:10091000FF0E0E0E7F3F90180DE7FB9E070381F13F
:10092000FFE7C03E3F9CFC0EE7FBDFC7E3F1DDEFD6
:10093000E3E0FFFFC0E0E0607030381C0C0E0703FE
:10094000803F1FEE3F87E3CFC7FBCFE1F87F3DFE3F
:100950003F003E3FBDDC7E3F1FDEFF3B81F9CFE322
:10096000C0FC0007E0FC0007E5E00083C7DF0C07E0
:1009700080F81F0180FFFFC0000FFFFC00703F03E5
:10098000E0387DF1E080003E3FB8FC70381C1C1C54
:100990001C0E000381C003F00FFC1E0E380270E92C
:1009A0006319C219C611C633C63263FE73DC3C003C
:1009B0001FF807F00700F00F80F81D819C19C38C09
:1009C0003FE7FE706607E070FF9FFB83F07E0FFF3E
:1009D0003FF706E0FC1F83FFEFF81F83FE78E70771
:1009E000E00E00E00E00E0070778F3FE1F80FF8FA7
:1009F000FCE0EE0EE07E07E07E07E07E0EE0EFFC1E
:100A0000FF80FFFFF81C0E07FBFDC0E070381FFFE2
:100A1000F8FFFFF81C0E07FBFDC0E070381C0E004D
:100A20000F87F9E3B83E01C038FF1FE06E0DE39F6A
:100A3000D0F2E0FC1F83F07E0FFFFFFF07E0FC1FFA
:100A400083F07E0EFFFFFFFFFE070707070707077C
:100A500007E7E7E77E3CE0EE1CE38E70EE0FC0FE9A
:100A60000F70E70E38E1CE0EE0E0E0E0E0E0E0E01D
:100A7000E0E0E0E0E0FFFFF87FE1FF87FE1FEC7FB2
:100A8000B37ECDFB37ECDF9E7E79F9E7E79CE0FE95
:100A90001FC3FC7FCFD9FBBF37E7FC7F87F0FE0E7B
:100AA0000F81FF1E3CE0EE03F01F80FC07E03B835C
:100AB0009E3C7FC0F800FF9FFB87F07E0FC3FFF7CF
:100AC000FCE01C0380700E000F81FF1E3CE0EE0373
:100AD000F01F80FC07E1BB8F9E3C7FE0FB8008FF9E
:100AE0008FFCE0EE0EE0EE0EFFCFFCE0EE0EE0EE4F
:100AF0000EE0F03F0FFBC7F07E01FC1FF03F00FC53
:100B00001DC7BFE1F8FFFFC70381C0E070381C0EAE
:100B1000070381C0E0FC1F83F07E0FC1F83F07E0B0
:100B2000FC1FC7BFE1F060670E70E30C30C39C1977
:100B300081981F80F00F00F0060061C3B8E19C703F
:100B4000CE3CE336719B30ED98367C1B3C0F1E0784
:100B50008F01C380E18070E78E39C1F81F80F007F4
:100B600000F01F819C39C70E70E0E0FC39C718C344
:100B7000B83607C0700E01C0380700E0FFFFC0E0C4
:100B8000E0F07070707838381FFFF8FFEEEEEEEE90
:100B9000EEEEEFF0861086108430843080FF777799
:100BA000777777777FF0181C3C3E366663C3FFC0CB
:100BB000CC3F1FEE380E3F9EEE3B9EFF9EE0E0389E
:100BC0000E03BCFFBCEE1F87E1F87F3BFEEF001F6A
:100BD0003FDC7C0E070380E37F8F000381C0E77753
:100BE000FBBF8FC7E3F1FDEFF3B83E3F9CDC3FFF57
:100BF000FF81C37F8F003BDDFFB9CE739CE7003BD5
:100C0000BFDDFC7E3F1F8FEF7F9DC0FC77F1F0E0E2
:100C100070381DEFFF9F8FC7E3F1F8FC7E38FC7F33
:100C2000FFFFFE770777777777777FE0E070381CF4
:100C30007E7773F1F8FE7739DC6E38FFFFFFFFFE39
:100C4000EF7BFFFE39F8E7E39F8E7E39F8E7E39FFD
:100C50008E70EF7FF8FC7E3F1F8FC7E3F1C01E1F31
:100C6000E73B87E1F87E1DCE7F8780EF3FEF3B8734
:100C7000E1F87E1FCEFFBBCE0380E038003BBFFD16
:100C8000FC7E3F1F8FEF7F9DC0E070381CEFFF3868
:100C9000E38E38E3803E3FB8FC0FC3FC3FC7FF1F25
:100CA0000073BFF739CE739E70E3F1F8FC7E3F1FEF
:100CB0008FC7FFBDC0E1986739CC330DC3E0781E04
:100CC0000700E31D9E667999E677B8D2C3CF0F3C43
:100CD0003CF07380739CE3F0781E0781E0FC739C0A
:100CE000E0E1D86739CE330EC3E0781E0300C07050
:100CF000380E00FEFE0E1C383870E0FFFF376666C7
:100D00006EE666666730FFFF80CE6666677666666B
:100D10006EC0718E4608AD05207E160000000024CE
:100D20000027002A0000000000250028002B0004F6
:100D30000404040404040402020202020203030382
:100D4000030303010204081020408001020408107C
:100D50002001020408102000000008000201000029
:100D6000030407000000000000000000B11FB01FD6
:100D700011241FBECFEFD8E0DEBFCDBF14E0A0E04E
:100D8000B1E0E6ECFCE402C005900D92A830B1079A
:100D9000D9F724E0A8E0B4E001C01D92A63CB20758
:100DA000E1F716E0C7EBD6E004C02197FE010E94F0
:100DB0003C26C63BD107C9F70E94211F0C9456263A
:100DC0000C940000809141048460809341048091E0
:100DD0004204807880934204E0910804F091090471
:100DE000309709F009940895E1E4F4E08081877F69
:100DF0008F7E808310923D0410923E0410923F0437
:100E00001092400444E050E060E070E083EB94E036
:100E10000C946C240F931F930E94511D0091390470
:100E200010913A0420913B0430913C04601B710BFB
:100E3000820B930B1F910F9108959C0180913704B1
:100E4000909138048217930751F0909141049F715B
:100E500090934104309338042093370405C0809167
:100E60004104805E80934104E0913704F09138049E
:100E7000309721F00190F081E02D09950E94511DDD
:100E80006093390470933A0480933B0490933C043C
:100E900008950F931F930E940A0720914204207720
:100EA000203729F000E117E220E030E004C000E63E
:100EB0001AEE20E030E0061717072807390730F44C
:100EC0008DE191E01F910F910C941D071F910F91DF
:100ED0000895809142048F70863020F087E191E080
:100EE0000C941D0708958091B3048F3F19F08FE093
:100EF00091E010C00E940A07613D7740810591058D
:100F000058F080914104803618F48BE091E002C0E3
:100F100087E091E00C941D0708950E940A07613D47
:100F200077408105910520F48091410481FF089567
:100F30008091B4048F3F41F0809141048E7F809373
:100F400041048BE091E009C080914104803618F49F
:100F500087E191E002C087E091E00C941D07809149
:100F600043048F3FA1F00E94511D60933D04709394
:100F70003E0480933F0490934004809143049091F9
:100F8000B50489138093B50483E191E013C00E94F6
:100F90000A07613D77408105910570F08091410419
:100FA000803618F48FE091E005C0877F809341047C
:100FB00087E191E00C941D070895FC0183818770FF
:100FC0008860838384818F71806284836783CF018B
:100FD00008950F931F93CF93DF93EC016115710573
:100FE00061F0FB0101900020E9F73197E61BF70B58
:100FF000E931F10518F0E9E101C0E0E00E2F10E061
:10100000C80123E0880F991F2A95E1F79B8197700B
:10101000892B8B838C818F718C83EE2329F0A8011F
:10102000CE0107960E944726FE01E00FF11F1782AE
:10103000CE01DF91CF911F910F910895FC01248182
:10104000229526952770213011F48781089521116A
:1010500004C007960E946521089580E00895CF930B
:10106000DF93FC0110821182128214821582168293
:10107000DC0117968AE1ED0119928A95E9F782E081
:101080008383DF91CF9108958EBD00000DB407FEDC
:10109000FDCF8EB50895CF92DF92EF92FF920F931E
:1010A0001F93CF93DF937B01142F022F90E59CBDFC
:1010B0001DBC2A98E0E1F0E03197F1F70E94440866
:1010C000E7011123A9F0002349F08FEF0E944408A3
:1010D000E114F10459F08883219608C06E018FEF66
:1010E000C81AD80A88810E944408E6011150E9CF45
:1010F0002A9AE0E1F0E03197F1F7DF91CF911F916B
:101100000F91FF90EF90DF90CF900895CF93DF93F2
:101110001F92CDB7DEB7698320E041E0BE016F5F6B
:101120007F4F0E944B080F90DF91CF91089529982F
:101130006CE080E20C94860880914204982F9077AE
:10114000903759F0982F92959F709F5F9770929566
:10115000907F8F78892B80934204809141048B7F0C
:101160008F7E809341040C9497086FE080E20E9488
:10117000860860911C016F3F19F08AE20E94860880
:10118000299A0895CF939FEF980F9E3FB0F4C82FF0
:101190008093B30480931C0163E082E20E9486087E
:1011A00061E081E20E9486080E94B5086C2F80E011
:1011B00090E00E948C2481E004C08FEF8093B30400
:1011C00080E0CF91089520E040E060E070E00C9472
:1011D0004B08EF92FF921F93CF93DF93FC01828124
:1011E0009091410490FF04C08F3F09F04DC005C0AD
:1011F0008F3F19F0D091B40401C0DFEF8091B304A8
:101200008083438142FD06C0469546954695C7E0DA
:10121000C40F01C0C0E27F011091B604117029987B
:1012200080E091E00197F1F76EE080E20E9486088D
:1012300084EC90E00197F1F76D2F8AE20E94860816
:101240006D2F80E30E94860881EE0E94E308DF3F55
:1012500021F0111102C080EA01C080EB4C2FC13295
:1012600008F040E220E0B7010E944B08299AE12CE7
:10127000F12C8FEF0E94E308C82F807339F481E0CE
:10128000E81AF108B1F702C010E027C0299860E31E
:1012900087E20E948608C4FF03C081EE0E94E30833
:1012A0000E94B508C5FD02C0117001C011E081E0C7
:1012B000DF3F09F080E0182B8091B404D8130DC0F3
:1012C00090914204111106C081E0890F8F70907FC8
:1012D000982B01C0907F90934204812FDF91CF9192
:1012E0001F91FF90EF9008952091410422FD0C94EE
:1012F000E90880E00895CF932FE043E06FEF80E0AE
:101300000E94CD1A61EE73E00E94E907E2E9F4E081
:10131000838187708061838384818F71806C8483F3
:1013200081E087831086CF010E9474098FE00E94BC
:101330005D1D41EE53E061E18FEF0E94ED1AC09117
:10134000B40426E043E06FEF80E00E94CD1A6C2FDA
:101350000E94DD070E94740986E00E945D1DCF9106
:101360000C948214CF938091910481FD1FC00E9440
:101370007B0980919104816080939104C4E02AE10B
:1013800043E06FEF80E00E94CD1A62E00E94DD072B
:101390000E9474098BE10E945D1D811102C0C15041
:1013A00071F780919104826080939104CF910895A8
:1013B0008FEF80934304E1E4F4E0808188608083D0
:1013C00028E143E06FEF80E00E94CD1A61E00E94C7
:1013D000DD070C94E9088091B3048F3FB1F40E94BB
:1013E000511D6F3F19F060931B0102C010921B0149
:1013F00023E043E060911B0180E00E94CD1A61EE82
:1014000073E00E94E9070C94E9080895E1E4F4E030
:101410008081897F81608083E3EBF4E08FEF8283BA
:10142000818327E043E06FEF0E94CD1A61EE73E005
:101430000E94E9070C94E9087F928F929F92AF92E5
:10144000BF92CF92DF92EF92FF920F931F93CF93B1
:10145000DF931F92CDB7DEB7E0913704F0913804E7
:10146000309721F00280F381E02D099580914104AD
:1014700084FBDD24D0F884FFB6C186E0782E00E03E
:101480001FEF90E0E92E90E0F92E21E2C22E21E03C
:1014900041E060E070E087E10E944B0880FDA3C15D
:1014A0007A94772009F49FC121E041E060E070E088
:1014B00080E60E944B08A82E80E28A1520F482EE76
:1014C0000E94E308A12C21E04A2D6AE474E081E641
:1014D0000E944B0860E487E20E94860890914D04C8
:1014E000292F2695269526952A3108F029E192FD87
:1014F00003C047E0420F01C040E270914E0490905B
:101500004F04B0904B0430914A0480914C04A412D3
:10151000BECF492F4370423009F0B9CF672F6770B3
:10152000409142044068409342044091B3048413C4
:1015300037C030E0A901E3E0440F551FEA95E1F719
:101540009770942B90934D04F901E65BFB4F178243
:1015500073FF19C0EAE4F4E0A2E9B4E09C2D019025
:101560000D929A95E1F790919604977F90619093F0
:10157000960480939304B092940482E994E0698382
:101580000E947409698120914E0424FD12C06330C9
:1015900081F490914F0481EF890F8330B8F577CFB4
:1015A0008F3F09F074CF633049F08091B404381351
:1015B0006ECF8AE494E00E948D1169CF809141043E
:1015C00082FF04C087E0981609F461CF88E098167E
:1015D00009F45DCF84E198125ACF8091B404381396
:1015E00056CF0E94511D7370882799270E94171D9E
:1015F000A090B40425E143E06FEF8B2D0E94CD1A3B
:101600006A2D0E94DD070E94E90841CF84E098120C
:1016100010C08091500490911B01891719F08F3FE1
:1016200009F035CF8AE494E00E941E080E94C208A7
:101630002ECF88E098121CC0A0904104A0FE27CFB6
:101640008AE494E00E941E088F3F09F420CF91E0C5
:10165000980F9F3F09F41BCF8091B504981708F0AD
:1016600016CFA1FC14CF9093B504B092B4040FCF61
:1016700088E1981208C029E143E06FEF8B2D0E94AA
:10168000CD1A61E0BECF89E198120EC0809141046D
:1016900083FFFDCE877F809341048AE494E00E941B
:1016A0001E0880934304F3CE80914B0481117EC0C9
:1016B0009D3059F498E088E10FB6F894A89580938E
:1016C00060000FBE90936000FFCF9B3179F48AE4F5
:1016D00094E00E941E0891E0811101C090E0809189
:1016E000910490FB80F980939104D1CE9630A9F4B7
:1016F00090915104992329F081E09D3419F080E004
:1017000001C08D2D8093900441E050E063E071E0D2
:1017100080E994E00E947C24BACE933119F40E94AF
:101720007B09B5CE9231D9F40E940A074B015C01C6
:1017300026E143E06FEF80E00E94CD1AFC01848136
:101740008F71806A848383818770806283838782BC
:101750009086A186B286CF010E94740998CE9130FE
:10176000F9F4E114F10409F492CE2295269527703C
:10177000253049F4609151047091520480915304D2
:10178000909154040AC0211105C081E594E00E94A3
:10179000832103C060E070E0CB010E94000077CE9F
:1017A0009A3009F474CE9C3121F471CE9A3109F447
:1017B0006ECE8EE1981609F46ACE8DE19812F9CEBC
:1017C0002FE143E06FEF80E00E94CD1AFC0184819D
:1017D0008F718064848383818770806183831087A5
:1017E0000783CF0110CF0F90DF91CF911F910F9101
:1017F000FF90EF90DF90CF90BF90AF909F908F9031
:101800007F9008958F929F92AF92BF92CF92DF9276
:10181000EF92FF926B017C010E94511D4B015C0114
:101820000E94511DDC01CB0188199909AA09BB0945
:101830008C159D05AE05BF0520F4A8950E941C0AD5
:10184000EFCFFF90EF90DF90CF90BF90AF909F9041
:101850008F900895219A229A29982A9A0E944B14CF
:101860006EE080E20E94860865E070E080E090E033
:101870000E94171D63E083E20E9486086FE584E200
:101880000E9486086CE485E20E94860865E286E292
:101890000E94860863E780E50E94860864E08DE385
:1018A0000E94860821E041E060E070E086E00E944E
:1018B0004B08853209F04AC021E041E060E070E069
:1018C00085E00E944B088C3409F040C062E082E25F
:1018D0000E94860860E081E20E94860863E08CE353
:1018E0000E9486088FEF8093020120E045E062E0CD
:1018F00071E08BE20E944B0820E045E062E071E07D
:101900008AE20E944B0820E045E062E071E080E35B
:101910000E944B0882EE0E94E30881EE0E94E308D9
:1019200060E787E20E94860880914104806180938D
:1019300041048091B6048E7F8093B6048091B304F5
:101940008F3F39F00E94C208811103C087E091E007
:1019500002C087E191E00C941D071F920F920FB611
:101960000F9211240F900FBE0F901F9018956F9239
:101970007F928F929F92AF92BF92CF92DF92EF921F
:10198000FF920F931F93CF93DF93EC014B015A010A
:1019900069013801E881F9810680F781E02D099518
:1019A000E881F9810684F785E02D87019601A5017C
:1019B000B401CE010995E881F981A501460D571DB5
:1019C000415051090684F785E02D9601B401CE01FE
:1019D0000995E881F9810484F585E02D9301A5013D
:1019E000B401CE010995E881F981C80CD91CB60172
:1019F000615071090484F585E02D9301A501CE01A4
:101A00000995E881F9810288F389E02DCE01DF9103
:101A1000CF911F910F91FF90EF90DF90CF90BF90EB
:101A2000AF909F908F907F906F900994CF92DF92AC
:101A3000EF92FF920F931F93CF93DF9300D000D0CC
:101A400000D0CDB7DEB76C01DC01ED91FC916217DF
:101A5000730789F4041715072CF4942F852FA80118
:101A6000092F182F041B150B98012F5F3F4F008C77
:101A7000F18DE02D12C04017510709F526173707E1
:101A80002CF4962F872FB901292F382F261B370BBF
:101A90002F5F3F4F028CF38DE02D8701C601099522
:101AA00026960FB6F894DEBF0FBECDBFDF91CF9163
:101AB0001F910F91FF90EF90DF90CF9008950680D7
:101AC000F781E02D2D833E834B835C8369837A838A
:101AD0000995D601ED91FC910088F189E02D2D81C9
:101AE0003E814B815C8169817A81C6010995D6016D
:101AF000ED91FC910288F389E02DC60126960FB680
:101B0000F894DEBF0FBECDBFDF91CF911F910F9133
:101B1000FF90EF90DF90CF900994EF92FF920F9398
:101B20001F93DC01ED91FC9111971A960D911C9178
:101B30001B9718962D913C911997048CF58DE02DEB
:101B40007B0140E050E060E070E009951F910F914B
:101B5000FF90EF9008954F925F926F927F928F92D5
:101B60009F92AF92BF92CF92DF92EF92FF920F932C
:101B70001F93CF93DF9300D0CDB7DEB76C015A012E
:101B800039014801DC01ED91FC910680F781E02DDF
:101B900069837A8309956981462E7A81572E640C70
:101BA000751CD601ED91FC91461457046CF4048425
:101BB000F585E02D87019401A501B201C6010995C3
:101BC000BFEF4B1A5B0AEDCF0288F389E02DC60107
:101BD0000F900F90DF91CF911F910F91FF90EF9099
:101BE000DF90CF90BF90AF909F908F907F906F903D
:101BF0005F904F900994AF92BF92CF92DF92EF9295
:101C0000FF920F931F93CF93DF9300D000D0CDB7F7
:101C1000DEB75C016901DC01ED91FC910680F78182
:101C2000E02D4B835C8369837A830995D501ED911F
:101C3000FC9169817A819B012C0D3D1D2150310958
:101C40000088F189E02D78014B815C818A01C50112
:101C50000995D501ED91FC910288F389E02DC5012C
:101C60000F900F900F900F90DF91CF911F910F91D8
:101C7000FF90EF90DF90CF90BF90AF900994AF921C
:101C8000BF92CF92DF92EF92FF920F931F93CF9369
:101C9000DF9300D000D0CDB7DEB75C016901DC0175
:101CA000ED91FC910680F781E02D4B835C83698385
:101CB0007A830995D501ED91FC914B815C81C40E2D
:101CC000D51EB1E0CB1AD1080088F189E02D78014A
:101CD000860169817A819B01C5010995D501ED9144
:101CE000FC910288F389E02DC5010F900F900F90B1
:101CF0000F90DF91CF911F910F91FF90EF90DF90A8
:101D0000CF90BF90AF9009940895EF92FF920F93F8
:101D10001F93DC01ED91FC91048CF58DE02D09956C
:101D20001F910F91FF90EF9008950F931F93DC0187
:101D3000ED91FC91028CF38DE02D09951F910F918F
:101D400008950F931F93DC01ED91FC91008CF18DB0
:101D5000E02D09951F910F910895DC01ED91FC9103
:101D60000480F581E02D099408952F923F924F92BF
:101D70005F926F927F928F929F92AF92BF92CF921B
:101D8000DF92EF92FF920F931F93CF93DF9300D0D8
:101D90001F92CDB7DEB74C017B836A836A0159017C
:101DA00017019801241B350B37FF03C0319521958E
:101DB0003109C5014A815B81841B950B97FF03C0E4
:101DC00091958195910951E059838217930714F0F9
:101DD00019820BC09A2D8B2D5801092F182F9A812B
:101DE0008B81DB82CA82C92ED82E8A819B81A8165C
:101DF000B9065CF49C2D8D2D6801092F182F9A814E
:101E00008B81BB82AA82A92EB82E2501AA81BB8113
:101E10004A1A5B0A38016C187D0877FE03C071947A
:101E200061947108720157FE03C0BFEFEB1AFB0A01
:101E3000F594E794C016D1061CF00FEF1FEF1FC0FA
:101E400001E010E01CC0D401ED91FC91B981008447
:101E5000F185E02D9101BB23C1F04A815B81B60180
:101E6000C4010995E618F708F7FE04C0C00ED11E9C
:101E7000E40CF51CEA81FB813196FB83EA834A81FD
:101E80005B81A416B506FCF604C0A6016A817B81BD
:101E9000E7CF0F900F900F90DF91CF911F910F918F
:101EA000FF90EF90DF90CF90BF90AF909F908F907A
:101EB0007F906F905F904F903F902F90089508957E
:101EC0000895CF92DF92EF92FF920F931F93CF93DB
:101ED000DF938C01EB0184E2FB0111928A95E9F713
:101EE00084E290E0A0E0B0E088839983AA83BB837A
:101EF000F80185819681A781B0858C839D83AE830F
:101F0000BF838CE090E0A0E0B0E088879987AA8743
:101F1000BB870E94511D688B798B8A8B9B8BF80144
:101F200003811481C8010E94931D8823A1F1F80147
:101F300086818B3041F178F18551823060F5F8016E
:101F4000608170E080E090E00E944A2320E030E071
:101F500040E853E40E94AB236B017C01F8018181CE
:101F6000682F70E080E090E00E944C239B01AC0160
:101F7000C701B6010E94F0242DEC3CEC4CEC5DE373
:101F80000E94AB230CC0F801608170E080E090E01B
:101F90000E944A2304C060E070E080EC9FE76C8BF5
:101FA0007D8B8E8B9F8B81E0DF91CF911F910F9165
:101FB000FF90EF90DF90CF9008958F929F92AF9215
:101FC000BF92FF920F931F93CF93DF938C01EB018E
:101FD00084E2FB0111928A95E9F784E290E0A0E0A7
:101FE000B0E088839983AA83BB83F80185819681B9
:101FF000A781B0858C839D83AE83BF838DE090E005
:10200000A0E0B0E088879987AA87BB870E94511D0E
:10201000688B798B8A8B9B8BF80103811481C801B3
:102020000E94931D8823D1F1F80186818B3029F01D
:10203000A8F18551823048F031C0F801628170E02A
:1020400080E090E00E944A232DC0F801F2806F2DBD
:102050006F7770E080E090E00E944C2320E030E059
:1020600040E853E40E94AB234B015C01F8018381FB
:10207000682F70E080E090E00E944C239B01AC014F
:10208000C501B4010E94F0242DEC3CEC4CEC5DE366
:102090000E94AB23F7FE06C0905804C060E070E0D9
:1020A00080EC9FE76C8B7D8B8E8B9F8B81E0DF912B
:1020B000CF911F910F91FF90BF90AF909F908F9005
:1020C0000895CF93DF93EB01FC0182894BE050E050
:1020D000853139F0863141F08B3049F46BE773E09C
:1020E00008C061E873E005C067E873E002C06DE80E
:1020F00073E0CE010E9447261B86DF91CF910895A1
:102100000F931F93CF93DF938C01EB0188E2DB01E8
:102110001D928A95E9F7F801838194810E946110EC
:1021200081E090E0A0E0B0E08C879D87AE87BF871C
:10213000F80185819681A781B085888B998BAA8BC0
:10214000BB8B8CE090E0A0E0B0E08C8B9D8BAE8BE5
:10215000BF8B0380F481E02D8289853149F086317F
:1021600039F08B3029F480E492E4AFE0B0E004C0B1
:1021700080E894E8AEE1B0E08CA39DA3AEA3BFA33A
:1021800082898531C9F08631B9F08B3051F580E014
:1021900090E0A0EAB2E4888F998FAA8FBB8F80E08D
:1021A00090E0A0EAB1E48C8F9D8FAE8FBF8F80E06E
:1021B00090E0A0EAB0E410C080E090E0A8ECB2E4C7
:1021C000888F998FAA8FBB8F1C8E1D8E1E8E1F8E9F
:1021D0008DEC9CECACECBDE388A399A3AAA3BBA3B4
:1021E0000CC0188E198E1A8E1B8E1C8E1D8E1E8E84
:1021F0001F8E18A219A21AA21BA2DF91CF911F91C4
:102200000F9108950F931F93CF93DF938C01EB01F0
:1022100088E2DB011D928A95E9F7F80183819481B8
:102220000E94611081E090E0A0E0B0E08C879D8783
:10223000AE87BF87F80185819681A781B085888B9D
:10224000998BAA8BBB8B8DE090E0A0E0B0E08C8BEB
:102250009D8BAE8BBF8B0380F481E02D828985310D
:1022600049F0863139F08B3029F480E492E4AFE014
:10227000B0E004C080E894E8AEE1B0E08CA39DA398
:10228000AEA3BFA382898531A9F08631C1F08B301E
:1022900079F580E090E0A8E4B2E4888F998FAA8F66
:1022A000BB8F1C8E1D8E1E8E1F8E80E090E0A0E0E6
:1022B000B0E419C080E090E0A0EAB2E404C080E09D
:1022C00090E0AAEFB2E4888F998FAA8FBB8F80E04D
:1022D00090E0A0E2B2EC8C8F9D8FAE8FBF8F8DEC23
:1022E0009CECACECBDE388A399A3AAA3BBA30CC050
:1022F000188E198E1A8E1B8E1C8E1D8E1E8E1F8E92
:1023000018A219A21AA21BA2DF91CF911F910F91BF
:1023100008950C94C9200C94C920CF93DF93EC014D
:102320008E818330D1F48D818230B9F4CE010E9448
:102330001E0891E0811101C090E09093100440913B
:102340000E0450910F0460910A0470910B04809167
:102350000C0490910D040E9470158E81843081F5DB
:102360008D81883169F58C8182958695877087305B
:1023700029F46F81788589859A850AC0811105C005
:10238000CE0107960E94612103C060E070E0CB019E
:102390006093210170932201809323019093240183
:1023A00040910E0450910F0460910A0470910B0447
:1023B00080910C0490910D04DF91CF910C947015D5
:1023C000DF91CF9108952F923F924F925F926F923B
:1023D0007F928F929F92AF92BF92CF92DF92EF92B5
:1023E000FF920F931F93CF93DF93CDB7DEB76C9718
:1023F0000FB6F894DEBF0FBECDBF9C8F8B8F5B01F5
:102400001A011F830E833701C982DC0158964D9152
:102410005C9159974115510509F0E5C018968D91C9
:102420009C911997681779070CF0CAC11A968D917B
:102430009C911B97281639060CF0C2C18C2C912C4C
:10244000FB0136E0C39EE00DF11D1124FB87EA87F6
:102450001E161F060CF0B4C1C40133E0880F991F8B
:102460003A95E1F79D878C87820D931D1816190602
:102470000CF0A6C157968C91811103C0203B08F047
:102480002F5FAB8DBC8DED91FC9111970680F7818C
:10249000E02DCD012A8F09952A8DB5E02B9F900163
:1024A0001124F5013596FF87EE87BB82AA822501AC
:1024B000A9014A195B09598B488BC10108969B8B6E
:1024C0008A8BE889F989E40DF51DE355FF4F949156
:1024D000988761013D822C82A885A0FF13C0AB8D37
:1024E000BC8DED91FC91B981B13031F40084F1855E
:1024F000E02D2E813F8116C00284F385E02DEE8011
:10250000FF801AC0EE81FF816E167F06F1F0AB8D61
:10251000BC8DED91FC91B981B13051F40084F1850D
:10252000E02D9301A601B2018B8D9C8D09950DC004
:102530000284F385E02D7301840194014C815D8157
:102540006A817B818B8D9C8D0995E885E695E8876E
:10255000FFEFCF1ADF0A2C813D81280D391D3D8305
:102560002C834A895B89C416D50609F0B5CF5FEF85
:10257000451A550A8A819B81880D991D9B838A8300
:10258000AE85BF854A165B0609F09BCFEE81FF81C1
:102590006E167F0609F4F2C0EB8DFC8DA081B1812F
:1025A000F981F13079F4B5016B5F7F4F1C96ED91A5
:1025B000FC911D97830128E030E0A1018B8D9C8D5B
:1025C0000995DCC06A857B85681979091A96ED91B1
:1025D000FC911B9773010C851D859401A1018B8DC6
:1025E0009C8D0995CBC0FA013496949132976591F0
:1025F0007491291BCB01B7E02B9F800D911D1124F5
:10260000FA01259134913B8B2A8BFC014591549121
:102610005B834A83FC013296C490319654915E8765
:10262000329614913196D4908981823058F0612E7F
:10263000012E000C7708AD2D0D2C000CBB0BB987BB
:10264000A88704C019861886612C712CAB8DBC8DAF
:10265000ED91FC9111970680F781E02DCD01099550
:10266000B9818B2E912C689CC001699C900D789C3F
:10267000900D1124FC01EA0DFB1DFD87EC871C82E7
:10268000712C612CE12F110FFF0B95012E0F3F1FB5
:102690003B872A87AC0CB11CA5014E0F5F1F5F8BD7
:1026A0004E8BC1018D0D911DD7FC9A95998F888F06
:1026B0004E85641608F062C0862D90E048855985E5
:1026C000480F591F489D9001499D300D589D300D70
:1026D0001124D901A20DB31DB98BA88BAA84BB8488
:1026E0004C845D84DC80BA85DB1AE88DF98DE80FB7
:1026F000F91FFD8BEC8B8D2D8A0D2E893F89A2163B
:10270000B306B9F1877061F48A819B810196EA89E9
:10271000FB89AA81BB81EA0FFB1F74909B838A838C
:1027200077FE20C0AB8DBC8DED91FC91B981B130AD
:1027300061F40084F185E02D2E813F814C895D8913
:10274000B5018B8D9C8D09950DC00284F385E02D1C
:10275000EE80FF808401940148895989B2018B8DF4
:102760009C8D0995770CEFEFAE1ABE0A480C591CE8
:10277000C2CF3C813C0D3C8363949ACFAB8DBC8D22
:10278000ED91FC9111970288F389E02DCD016C96B3
:102790000FB6F894DEBF0FBECDBFDF91CF911F9172
:1027A0000F91FF90EF90DF90CF90BF90AF909F90F0
:1027B0008F907F906F905F904F903F902F900994F3
:1027C0006C960FB6F894DEBF0FBECDBFDF91CF91F0
:1027D0001F910F91FF90EF90DF90CF90BF90AF903F
:1027E0009F908F907F906F905F904F903F902F9031
:1027F00008958F929F92AF92BF92CF92DF92EF9205
:10280000FF920F931F93CF93DC011796CC911797EC
:10281000662311F08C2F01C080E018962C91189738
:1028200030E0220F331F2D553F4F40E050E0BA01FA
:10283000F90105911491F80190819C23981315C01A
:102840006A017B019FEFC91AD90AE90AF90A1D96A4
:102850008D909D90AD90BC905097481559056A0594
:102860007B0538F4B701A601E3CF342F252FCB0128
:1028700004C030E020E080E090E0632F722FCF9121
:102880001F910F91FF90EF90DF90CF90BF90AF908E
:102890009F908F900895CF93CFB7F894809136048E
:1028A000811127C0E9E3FDE08491EDE4FDE094911E
:1028B000E82FF0E0EE0FFF1FE55EF24FA591B49117
:1028C000EC91E92321F461E08AE00E94351C61E08B
:1028D0008AE00E94DB1C8CB580618CBD8CB5806465
:1028E0008CBD61E08DE00E94DB1C61E08BE00E940A
:1028F000DB1C809136048F5F80933604CFBFCF916D
:10290000089508952BE043E06FEF80E00E94CD1A18
:1029100062E973E00E94E9070E9474092CE043E039
:102920006FEF80E00E94CD1A6BE973E00E94E90727
:102930000E94740942E953E067E080E00E94ED1ACA
:1029400041EA53E066E081E00E94ED1A4DEA53E06F
:102950006EE182E00E94ED1A4BEB53E063E083E00E
:102960000E94ED1A4AEC53E067E184E00C94ED1A02
:1029700062E0809116040E94DB1C80E398EFAFEFC9
:10298000BFEF80931A0490931B04A0931C04B09390
:102990001D040E944B14809185048F3F29F490916F
:1029A00086049F3F09F48DC061E00E94DB1C61E05A
:1029B000809186040E94DB1C80918604082E000C06
:1029C000990BFC01E15DF24FE491F0E0EE0FFF1F87
:1029D000EB5DF24F2591349130938D0420938C045C
:1029E000FC01ED5BF24FE491E0938F04809185044C
:1029F000082E000C990BFC01E15DF24FE491F0E030
:102A0000EE0FFF1FEB5DF24F2591349130938B0455
:102A100020938A04FC01ED5BF24FE491E0938E0475
:102A200061E0809187040E94DB1C80918804181665
:102A30001CF461E00E94DB1C8091890418161CF4D0
:102A400061E00E94DB1C80918804181674F460E039
:102A50000E94351C64EF71E080E090E00E94171D39
:102A600061E0809188040E94351C81E20E94811CF3
:102A700084E10E94811C88EA0E94811C80E20E94FD
:102A8000811C8CE00E94811C0E949C1C81E20E949F
:102A9000811C82EB0E94811C80E20E94811C0E94AA
:102AA0009C1C83E08093250162E00E94021B68E188
:102AB00084E00E94021B64EF71E080E090E00C94DF
:102AC000020C0E944B148CB58C7F8CBD8DB58E7F13
:102AD0008DBD8CB5837F8CBD8CB58F7D8CBDA0CF1B
:102AE000CF92DF92EF92FF92CF93DF936B017C0145
:102AF000EA0188EF91E0EBE2F1E0DF019C011D9239
:102B000021503040E1F7109278041092770484E16C
:102B10009DE090938404809383048CE090E09093F4
:102B20007A048093790460910A0470910B04809177
:102B30000C0490910D0441E00E94511BA7019601E5
:102B4000C701B6010E940926882321F080EE93E098
:102B50000E940E1B82EE93E00E940E1B10927804DE
:102B6000109277048EE190E090937A048093790438
:102B700060910E0470910F04072E000C880B990BC6
:102B800041E00E94101BBE01DD0F880B990B0E94D3
:102B90004C239B01AC010E940926882321F080EE82
:102BA00093E00E940E1B86EE93E00E940E1B86E4CB
:102BB00090E090937804809377048EE190E0909376
:102BC0007A048093790480911004882319F089EEA7
:102BD00093E002C08BEE93E00E940E1B10928404DF
:102BE00010928304109278041092770486E290E0A9
:102BF00090937A04809379048DEE93E00E940E1BEB
:102C0000C0902101D0902201E0902301F090240196
:102C100020E030E0A901C701B6010E9445238111DF
:102C200005C080EF93E00E940E1B05C041E0C70184
:102C3000B6010E94511B82E390E090937804809348
:102C4000770486E290E090937A048093790483EF8E
:102C500093E00E940E1B4AE060E070E0CB010E940E
:102C6000101B87EE93E00E940E1BDF91CF91FF9027
:102C7000EF90DF90CF900C949C1C4F925F926F92DC
:102C80007F928F929F92AF92BF92CF92DF92EF92FC
:102C9000FF921F93CF93DF93CDB7DEB7C554D10911
:102CA0000FB6F894DEBF0FBECDBF8091490491E00E
:102CB000980F909349046AE00E940E2691117EC0FD
:102CC0008091250120E4829FC001112480937C0023
:102CD00080917A00806480937A0080917A0086FDEA
:102CE000FCCF609178008091790070E0782B072EFE
:102CF000000C880B990B0E944C232AEA30E444EA2A
:102D00005BE30E94AB232B013C0120E030E04AE76B
:102D100054E40E94AB230E94D5254B015C018091B5
:102D20004604909147048815990509F447C0CE01DF
:102D300001960E942F0882E08F8386E28E838D8128
:102D40008F7180668D838C81877080618C8399867A
:102D50008886CE0101960E94DC1A20E043E06FEFE6
:102D600080E00E94CD1A7C0123E333E343E550E485
:102D7000C301B2010E94EF242AE939E949E95FE37E
:102D80000E945C2520E030E048EC52E40E94AB2336
:102D90000E94CE25AB016536710514F044E650E083
:102DA000BA0157FF02C060E070E0C7010E94DD0772
:102DB0000E947409909247048092460410E035E521
:102DC000A32E33E0B32E809126048FA3BEA2ADA222
:102DD000809127049091280499A788A780912904BD
:102DE00090912A04A0912B04B0912C048AA79BA750
:102DF000ACA7BDA7BE016F5F7F4FCE0185960E9435
:102E0000DD0FCD88DE88EF88F88CA7019601C70119
:102E1000B6010E940926882351F01F5F1430C1F1CA
:102E200068EC70E080E090E00E94020CCCCF209132
:102E30000A0430910B0440910C0450910D04C70119
:102E4000B6010E944523882319F1C0920A04D0924A
:102E50000B04E0920C04F0920D04CE0185960E94C2
:102E60002F0891E09BA71AA64D895E896F89788DFE
:102E700088A58770886288A789A5806E89A74CA7D6
:102E80005DA76EA77FA798ABCE0185960E94DC1A3E
:102E900080912F048FA381E793E09EA38DA380915F
:102EA00030049091310499A788A7809132049091C1
:102EB0003304A0913404B09135048AA79BA7ACA732
:102EC000BDA7BE016F5F7F4FCE0185960E94610F47
:102ED000CD88DE88EF88F88CA7019601C701B6017E
:102EE0000E940926811126C0C701B6010E94CE2585
:102EF0006B017C0180910E0490910F048C159D054F
:102F0000C9F0D0920F04C0920E04CE0185960E94A3
:102F10002F081BA681E08AA789A58F71806489A7E5
:102F200088A58770806188A7DDA6CCA6CE0185968E
:102F30000E94DC1ACD88DE88EF88F88CC701B601C4
:102F40000E94CE25AB01C701B6010E9470156091A9
:102F500021017091220180912301909124019B0114
:102F6000AC010E940926882329F08091480485300D
:102F700008F4C0C08091410482FD1EC00E94511D12
:102F80006B017C0180E090E0DC012091410422FD96
:102F9000C1C0803127E29207A105B10508F0BAC08F
:102FA000A8950E941C0A0E94511DDC01CB018C19BE
:102FB0009D09AE09BF09E9CF80E6C82E8AEED82E5A
:102FC000E12CF12C20E243E06FEF80E00E94CD1A6B
:102FD000FC0184818F71806A848383818770806221
:102FE000838384EF91E0A0E0B0E087839087A1879E
:102FF000B287CF010E94740964EF71E080E090E035
:103000000E94020C0E949708B701A601415F5F4F22
:103010006F4F7F4F21E030E098E1809126018F3F94
:1030200009F097C0403151056105710508F491C060
:1030300089E0E4E0E80F490102C0880C991CEA9598
:10304000E2F7A12CB12C481559056A057B0508F457
:103050004FC0E0917A00EF77E0937A00E091600052
:103060008F3FA9F083FD02C0F8E001C0F8E287704D
:103070008F2B0FB6F894A895909360000FBE8093A5
:103080006000809160008065809360000BC00FB687
:10309000F894A895809160008861809360001092F8
:1030A00060000FBE83B7817F846083BFF89483B7CD
:1030B000816083BF85B7806685BF8F7D85BF78942B
:1030C000889583B78E7F83BFF894A8958091600020
:1030D000886180936000E0936000789480917A002A
:1030E000806880937A00481959096A097B0995CF4D
:1030F00081509FCF68E184E00E94021B64EF71E081
:1031000080E090E00E94020C809148048F5F8093E1
:10311000480430CF80362AEE9207A105B105A0F50C
:1031200020E6C22E2AEED22EE12CF12CC81AD90AA2
:10313000EA0AFB0A84EFC81681E0D806E104F1042C
:1031400008F040CF60E67AEE80E090E00E94020C4A
:103150001BC029986EE080E20E94860821E243E0CD
:103160006FEF80E00E94CD1AFC0184818F71806A2C
:1031700084838381877080628383C782D086E1865F
:10318000F286CF010E947409CB5BDF4F0FB6F89433
:10319000DEBF0FBECDBFDF91CF911F91FF90EF90AB
:1031A000DF90CF90BF90AF909F908F907F906F9067
:1031B0005F904F900895CF92DF92EF92FF920F931E
:1031C0001F93CF93DF936C017A018B01C0E0D0E0B5
:1031D000CE15DF0589F0D8016D918D01D601ED91F5
:1031E000FC910190F081E02DC6010995892B11F425
:1031F0007E0102C02196ECCFC701DF91CF911F91D4
:103200000F91FF90EF90DF90CF9008953FB7F89423
:103210008091BC049091BD04A091BE04B091BF0404
:1032200026B5A89B05C02F3F19F00196A11DB11D21
:103230003FBFBA2FA92F982F8827820F911DA11D5C
:10324000B11DBC01CD0143E0660F771F881F991F98
:103250004A95D1F708950895FC0177FD68C08085EF
:103260009185681779070CF062C057FD60C08285B0
:103270009385481759070CF05AC08589823059F058
:103280008330B1F08130D1F48FE290E0861B970B50
:10329000BA01AC0113C083E590E0FC01E61BF70B1B
:1032A000BF018FE290E0FC01E41BF50BAF0106C00B
:1032B00083E590E0841B950BAB01BC01643571057F
:1032C000B0F54033510598F5CA01E3E0959587952F
:1032D000EA95E1F747705527232BA1F024E5289FB5
:1032E000F001299FF00D11246E0F7F1FFB01E55D9A
:1032F000FE4F81E090E001C0880F4A95EAF7908187
:10330000892B14C024E5289FF001299FF00D11247A
:103310006E0F7F1FFB01E55DFE4F81E090E001C075
:10332000880F4A95EAF780959081892380830895D4
:103330000895FC016370658B8481958126813781B6
:10334000613039F0633029F0918780873387228795
:103350000895318720879387828708959091850407
:103360009F3F21F4909186049F3F59F128E030E07F
:1033700040E8E0918C04F0918D04508190918F048D
:10338000909595239083E0918A04F0918B0490911D
:103390008E04542F582319F05081952B03C050816F
:1033A000909595239083E0918C04F0918D04508149
:1033B00090918F04952B9083469521503109C9F641
:1033C00008950C944408009769F0FC0101900020D6
:1033D000E9F73197AF01481B590BBC018BE694E02C
:1033E0000C94DB1880E090E008950E944226AF9292
:1033F000BF92CF92EF92FF920F931F93CF93DF93E1
:10340000EC01262F888D998D009709F040C06A3015
:1034100059F41D861C862C898E859F8538E0239F54
:10342000800D911D112441C06D3009F4AAC08E8910
:103430008823C1F03C898C859D8546E0349F800DB2
:10344000911D112448855985481759075CF41D863C
:103450001C868E859F8548E0349F800D911D112428
:103460009F878E87EA88FB88088919894E855F8542
:103470006C857D85CC88CE010E94E3112C898C85DA
:103480009D8536E0239F800D911D112442C06A3036
:1034900079F41D861C862C89FC013696E4918E8574
:1034A0009F852E9F800D911D11249F878E8769C057
:1034B0006D3009F466C0FC0134963491631708F44A
:1034C00060C03196E491E61708F45BC0FC013296C7
:1034D000A590B490462F50E0431B510937E0349F2C
:1034E000B001359F700D1124A60EB71EF50132965E
:1034F00034913196E491332311F0E1110DC0F501BF
:103500003496E4912C898C859D85E29F800D911DD8
:1035100011249D878C8735C0F501359644915E89CD
:10352000552311F16C89E32FF0E0E40FF11D47FD05
:10353000FA956E9FD0016F9FB00D11244C855D856B
:103540004A0F5B1FE885F985E417F5076CF41D86C3
:103550001C86FC013696E4918E859F856E9F800DBA
:10356000911D11249F878E87EA88FB880889198915
:103570004E855F856C857D85CC88CE010E94E311E8
:10358000BECF81E090E0DF91CF911F910F91FF902E
:10359000EF90CF90BF90AF900895E2E9F4E0909162
:1035A000B304918382836683258347708481807E00
:1035B000482B4483CF010895FC018091B30481839B
:1035C0009481907F916094838091910480FF03C0E7
:1035D000CF010C94740980E00895CF93DF93262FD8
:1035E0008F3F11F0EA0102C0C6EFD3E040E0682F40
:1035F00080E00E94CD1ABE010E94E907DF91CF91C1
:103600000C947409262F42E0682F80E00E94CD1AA6
:1036100061EE73E00E94E9070C9474090C94E319BD
:103620008F929F92AF92BF920F931F93CF93DF938E
:10363000CDB7DEB7A1970FB6F894DEBF0FBECDBFF2
:1036400019A2423008F44AE08E010F5D1F4F842E0C
:10365000912CA12CB12CA50194010E941A26E62FD1
:10366000B901CA0101501109EA3014F4E05D01C04A
:10367000E95CD801EC93232B242B252B61F7C8019F
:103680000E94E319A1960FB6F894DEBF0FBECDBF1E
:10369000DF91CF911F910F91BF90AF909F908F902E
:1036A00008954F925F926F927F928F929F92AF9206
:1036B000BF92CF92DF92EF92FF926B017C01B42E0A
:1036C0009B01AC010E940926882319F08CEF93E03E
:1036D00027C026013701E89477F82FEF3FEF4FE737
:1036E0005FE7C301B2010E94092681110DC02FEFCF
:1036F0003FEF4FE75FE7C301B2010E944523181671
:103700001CF480E094E00CC02FEF3FEF4FE75FE444
:10371000C701B6010E940426181684F484E094E0E0
:10372000FF90EF90DF90CF90BF90AF909F908F90E1
:103730007F906F905F904F900C94E3192FEF3FEFC5
:103740004FE75FECC701B6010E94452387FDE6CF36
:1037500020E030E0A901C701B6010E94452387FFA0
:1037600011C0E0916B04F0916C040190F081E02DA8
:103770006DE28BE694E009954C01F7FAF094F7F8C6
:10378000F09402C0812C912CA12C60E070E080E0CC
:103790009FE3AB1441F020E030E040E251E40E94AE
:1037A0005C25A394F6CF9B01AC01C701B6010E9432
:1037B000F0242B013C010E94D5256B017C010E9465
:1037C0004A239B01AC01C301B2010E94EF242B01EB
:1037D0003C014AE0C701B6010E94101B7C01E80CC5
:1037E000F91CBB2069F0E0916B04F0916C0401902E
:1037F000F081E02D6EE28BE694E00995E80EF91E6B
:10380000DB2CDD2021F120E030E040E251E4C30177
:10381000B2010E94AB232B013C010E94D5254B0134
:10382000A12CB12C4AE0C501B4010E94101BE80E86
:10383000F91EC501B4010E944A239B01AC01C301DA
:10384000B2010E94EF242B013C01DA94DACFC701C8
:10385000FF90EF90DF90CF90BF90AF909F908F90B0
:103860007F906F905F904F90089590E0FC01E95A2F
:10387000F24F3491FC01ED5BF24F2491FC01E15DCC
:10388000F24FE491EE2309F43BC0332339F1333096
:1038900091F038F43130A9F0323001F584B58F7DE4
:1038A00012C0373091F03830A1F03430B9F4809143
:1038B00080008F7D03C0809180008F77809380008F
:1038C0000DC084B58F7784BD09C08091B0008F771B
:1038D00003C08091B0008F7D8093B000F0E0EE0FC8
:1038E000FF1FEB5DF24FA591B4918FB7F894EC9167
:1038F000611103C020952E2301C02E2B2C938FBF66
:103900000895CF93C82F60E0809187040E94351CF2
:103910008091890418161CF460E00E94351C8C2FDD
:103920000E94AE1980918904181624F461E0CF91A9
:103930000C94351CCF910895EF92FF920F931F9333
:10394000CF938BE2E82E81E0F82EC0E08C2F8064CC
:103950000E94811C80E80E94811C61E080918704A4
:103960000E94351C8091890418161CF460E00E94A6
:10397000351C00E010E0F701E00FF11F80810E948C
:10398000AE190F5F1F4F04351105A9F78091890407
:1039900018161CF461E00E94351CCF5F84E5E80E28
:1039A000F11CC63099F680E4CF911F910F91FF90E2
:1039B000EF900C94811CCF93DF9390E0FC01ED5BC2
:1039C000F24F2491FC01E15DF24F8491882361F173
:1039D00090E0880F991FFC01E55EF24FC591D491EC
:1039E000FC01EB5DF24FA591B491611109C09FB745
:1039F000F8948881209582238883EC912E230BC034
:103A0000623061F49FB7F8943881822F80958323C8
:103A10008883EC912E2B2C939FBF06C08FB7F89410
:103A2000E8812E2B28838FBFDF91CF9108958F924D
:103A30009F92AF92BF92CF92DF92EF92FF926B0173
:103A40007C010E9406194B015C01C114D104E10400
:103A5000F104F1F00E940619DC01CB0188199909E3
:103A6000AA09BB09883E9340A105B10570F321E086
:103A7000C21AD108E108F10888EE880E83E0981E8A
:103A8000A11CB11CC114D104E104F10419F7DDCF6C
:103A9000FF90EF90DF90CF90BF90AF909F908F906E
:103AA00008952FB7F8946091B8047091B90480918B
:103AB000BA049091BB042FBF0895CF92DF92EF928A
:103AC000FF92CF93DF93D82F0E94511D6B017C0191
:103AD00081E0D11180E080934F04C0E00E94511D2D
:103AE000AB01BC014C195D096E097F09403D57408F
:103AF0006105710580F4C1110EC0A8950E941C0AD1
:103B000090914E049770933049F7C1E080914F0433
:103B10008D13E3CFE3CF8C2FDF91CF91FF90EF9008
:103B2000DF90CF9008958F929F92AF92BF92CF92E5
:103B3000DF92EF92FF920F931F93CF93DF93CDB756
:103B4000DEB7C054D1400FB6F894DEBF0FBECDBF74
:103B50008C010E94511DF801C184D284E384F48455
:103B60009B01AC012C193D094E095F0969017A01DD
:103B700030EDC31637E0D306E104F10410F4818977
:103B8000B4C0F80161877287838794871482138297
:103B900012821182108261E085810E94351C6AEFD9
:103BA00070E080E090E00E94171D61E0F8018581DF
:103BB0000E94DB1C60E0F80185810E94351C64E1F5
:103BC00070E080E090E00E94171DF89461E0F80139
:103BD00085810E94351C8CE490E00197F1F762E04A
:103BE000F80185810E94DB1C80E190E00197F1F7EC
:103BF00060E0C8010E94F913672B682B692B21F440
:103C0000F801118A789442C061E0C8010E94F9135A
:103C1000672B682B692BA1F39E012F5F3F4F790122
:103C20005E013FEBA31A3EEFB30A670160E0C801F3
:103C30000E94F913F601608371838283938361E0AC
:103C4000C8010E94F913F601648375838683978304
:103C5000F8E0CF0ED11CCA14DB0441F7789420E0C1
:103C600030E0F701408151816281738184809580C9
:103C7000A680B780411551056105710529F08114B1
:103C80009104A104B10421F4F801118A80E02DC04F
:103C9000F90183E0F595E7958A95E1F7E00FF11FCB
:103CA0008081880F481559056A057B0508F48160F5
:103CB00080832F5F3F4FF8E0EF0EF11C2832310573
:103CC00081F6F801248130E04081818190E0840F09
:103CD000911D4281840F911D4381840F911D99276D
:103CE0002817390789F681E0818BC05CDE4F0FB65B
:103CF000F894DEBF0FBECDBFDF91CF911F910F9122
:103D0000FF90EF90DF90CF90BF90AF909F908F90FB
:103D100008951F920F920FB60F9211242F933F9385
:103D20008F939F93AF93BF938091B8049091B90400
:103D3000A091BA04B091BB043091B70426E0230FE0
:103D40002D3720F40296A11DB11D05C029E8230FCF
:103D50000396A11DB11D2093B7048093B8049093DE
:103D6000B904A093BA04B093BB048091BC049091B1
:103D7000BD04A091BE04B091BF040196A11DB11D68
:103D80008093BC049093BD04A093BE04B093BF0481
:103D9000BF91AF919F918F913F912F910F900FBE47
:103DA0000F901F9018951F920F920FB60F9211242B
:103DB0002F933F934F935F936F937F938F939F9333
:103DC000AF93BF93EF93FF93E0912901F0912A0104
:103DD0000995FF91EF91BF91AF919F918F917F9145
:103DE0006F915F914F913F912F910F900FBE0F9068
:103DF0001F9018951F920F920FB60F9211242F93B8
:103E00003F934F935F936F937F938F939F93AF9362
:103E1000BF93EF93FF93E0912701F091280109955B
:103E2000FF91EF91BF91AF919F918F917F916F9192
:103E30005F914F913F912F910F900FBE0F901F9068
:103E40001895789484B5826084BD84B5816084BD02
:103E500085B5826085BD85B5816085BD80916E0028
:103E6000816080936E001092810080918100826059
:103E70008093810080918100816080938100809196
:103E800080008160809380008091B1008460809385
:103E9000B1008091B00081608093B00080917A0081
:103EA000846080937A0080917A00826080937A00A7
:103EB00080917A008E7F80937A0080917A0080686A
:103EC00080937A001092C100A89580E090E0892B41
:103ED00011F00E940000809191048D7F80939104E5
:103EE00080E090E0892B11F00E94000041E050E05A
:103EF00063E071E080E994E00E946C246FEF81E060
:103F000090E00E948C24809142048F788093420438
:103F100010923804109237048DE191E00E941D0741
:103F200082EB99E090930904809308040E94511D4C
:103F30000E94511D0E941C0AA8958091410482FF95
:103F4000F7CF0E94B814A895C0E0D0E0A8950E94D1
:103F50001C0A0E943D162097C9F30E940000F6CF6C
:103F600008958AE494E00E942F0882E994E00E9478
:103F70002F08A1E1B4E087E015968C93159786E1B0
:103F800016968C931697EAE4FDE0E4911796EC936D
:103F90001797E6E3FDE0E4911896EC93189740E458
:103FA0005FE160E070E01D964D935D936D937C93AF
:103FB000509752968C93529785E593E054969C9334
:103FC0008E9353970A2E1B2E57961C920E921124F5
:103FD00056974FEF5FEFBA0158964D935D936D93EF
:103FE0007C935B9781E793E05D969C938E935C97BF
:103FF0000A2E1B2E90961C920E9211245F9791967A
:104000004D935D936D937C939497EBE6F4E013826C
:10401000128224E530E03583248380E390E09783A7
:1040200086833187208793878287158A1586148631
:104030001786168681E0848B2FEF3FEF338B228B20
:10404000318B208B868B178A118E108E8DE293E038
:104050009183808385E0828F86E0838F84E0848FE4
:10406000158E8FEF868F0895CF93DF938230910561
:1040700010F482E090E0E091C204F091C30420E0EB
:1040800030E0C0E0D0E0309711F140815181481715
:104090005907C0F04817590761F48281938120972E
:1040A00019F09B838A832BC09093C3048093C2042E
:1040B00026C02115310519F04217530718F49A014B
:1040C000BE01DF01EF010280F381E02DDCCF21157D
:1040D000310509F1281B390B2430310590F4129673
:1040E0008D919C9113976115710521F0FB019383CC
:1040F000828304C09093C3048093C204FD0132966E
:1041000044C0FD01E20FF31F8193919322503109C6
:104110002D933C933AC02091C0043091C104232BCD
:1041200041F420912503309126033093C10420935C
:10413000C00420912303309124032115310541F45B
:104140002DB73EB74091270350912803241B350B10
:10415000E091C004F091C104E217F307A0F42E1B14
:104160003F0B2817390778F0AC014E5F5F4F2417DB
:10417000350748F04E0F5F1F5093C1044093C004B1
:104180008193919302C0E0E0F0E0CF01DF91CF9105
:1041900008950F931F93CF93DF93009709F48CC07A
:1041A000FC013297138212820091C2041091C30461
:1041B0000115110581F420813181820F931F209117
:1041C000C0043091C1042817390779F5F093C10470
:1041D000E093C00471C0D80140E050E0AE17BF07C3
:1041E00050F412962D913C911397AD012115310594
:1041F00009F1D901F3CF9D01DA0133832283608174
:104200007181860F971F8217930769F4EC0128814B
:104210003981260F371F2E5F3F4F318320838A81DC
:104220009B8193838283452B29F4F093C304E0930D
:10423000C20442C01396FC93EE931297ED0149918C
:1042400059919E01240F351FE217F30771F4808105
:104250009181840F951F029611969C938E93828173
:10426000938113969C938E931297E0E0F0E0D8012F
:1042700012968D919C911397009719F0F8018C017B
:10428000F6CF8D919C9198012E5F3F4F820F931F27
:104290002091C0043091C1042817390769F4309780
:1042A00029F41092C3041092C20402C01382128235
:1042B0001093C1040093C004DF91CF911F910F911F
:1042C0000895662777270C94C721FC018827992732
:1042D000E89421912032E9F3293010F02E30C8F310
:1042E0002B3241F02D3239F4689404C00E94BF2172
:1042F000820F911D219120532A30C0F31EF4909516
:1043000081959F4F08951F93FC0199278827BC0131
:10431000E89411911032E9F3193010F01E30C8F30F
:104320001B3251F01D3249F4689406C00E94AA2144
:10433000610F711D811D911D119110531A30B0F341
:104340003EF490958095709561957F4F8F4F9F4F6C
:104350001F910895592F482F372F262F660F771F4B
:10436000881F991F660F771F881F991F620F731F81
:10437000841F951F660F771F881F991F08957AE085
:10438000979F902D879F802D910D11240895A0E077
:10439000B0E0EDECF1E20C94AD24EC017B01611591
:1043A000710519F0DB018D939C938E010F5F1F4FF8
:1043B0007880872D90E00E942423892B11F0E8015A
:1043C000F4CFBDE27B1205C00F5F1F4F7980C1E0C3
:1043D00008C0EBE27E1204C08E010E5F1F4F798091
:1043E000C0E06801F1E0CF1AD10843E050E060E797
:1043F00070E0C6010E942D23892BF1F4680122E0B0
:10440000C20ED11C45E050E06BE670E0C6010E9490
:104410002D23892B21F4680187E0C80ED11CE114FB
:10442000F10419F0D701CD92DC92C111FFC060E018
:1044300070E080E89FE703C143E050E068E670E089
:10444000C6010E942D23892B51F4E114F10409F4D3
:10445000F2C00E5F1F4FF70111830083ECC06801AB
:1044600060E070E0CB0100E010E0F601D0EDD70D88
:10447000DA3058F52C2F2260622E2C2F2870C2FFC4
:1044800005C0211128C00F5F1F4F25C0222311F046
:1044900001501109A5E0B0E09B01AC010E949E24EF
:1044A0004B015C01880C991CAA1CBB1CC501B40102
:1044B0006D0F711D811D911D6839A9E97A078A0761
:1044C000A9E19A0740F0C66005C0DE3F51F4C3FD84
:1044D00044C0C8606C2EBFEFCB1ADB0A7080C62DBB
:1044E000C4CF2D2F2F7D2531C1F540814D3211F4E0
:1044F000C06106C04B3221F0319621E030E006C0A9
:104500003296D60111964C9122E030E0A0EDA40F36
:10451000AA3018F0E21BF30B20C040E050E0403816
:10452000BCE05B075CF49A01220F331F220F331F9C
:10453000420F531F440F551F4A0F511D3196DF0183
:1045400011972C91A0EDA20FAA3048F3C4FF03C02D
:10455000519541955109040F151FC1FF07C0E11482
:10456000F10421F03197D701ED93FC930E944A2387
:10457000C370C33019F06B017C0106C06B017C0174
:10458000F7FAF094F7F8F09420E030E0A901C701C1
:10459000B6010E944523882309F445C017FF06C0D1
:1045A000119501951109C7E8D0E002C0CFE9D0E02C
:1045B0005E01B8E1AB1AB1084601BE2DAF2D90E205
:1045C000E92EF12C0E151F0584F0FE012591359181
:1045D00045915491B4018B2F9A2F0E94AB234B012C
:1045E000B82FA92F0E191F09EDCF2497F594E79442
:1045F000CA15DB0539F76401EB2EFA2E8E2D880FD4
:104600008F2D881F8F3F49F020E030E0A901C701BE
:10461000B6010E944523811106C082E290E090938A
:10462000C5048093C404C701B60109C060E070E00E
:1046300080E89FEF04C060E070E080EC9FE7CDB7BA
:10464000DEB7EEE00C94C92491110C94182480324A
:1046500019F089508550C8F70895FB01DC014150DD
:10466000504088F08D9181341CF08B350CF4805EC5
:10467000659161341CF06B350CF4605E861B611132
:1046800071F3990B0895881BFCCF0E94872308F4CF
:1046900081E00895E89409C097FB3EF490958095D9
:1046A000709561957F4F8F4F9F4F9923A9F0F92FF8
:1046B00096E9BB279395F695879577956795B79576
:1046C000F111F8CFFAF4BB0F11F460FF1BC06F5F5C
:1046D0007F4F8F4F9F4F16C0882311F096E911C06E
:1046E000772321F09EE8872F762F05C0662371F08F
:1046F00096E8862F70E060E02AF09A95660F771FA3
:10470000881FDAF7880F9695879597F90895990F7E
:104710000008550FAA0BE0E8FEEF16161706E8078B
:10472000F907C0F012161306E407F50798F0621BAC
:10473000730B840B950B39F40A2661F0232B242B81
:10474000252B21F408950A2609F4A140A6958FEFA0
:10475000811D811D08950E94BE230C9432240E9465
:10476000242438F00E942B2420F0952311F00C947F
:104770001B240C94212411240C9466240E944324AD
:1047800070F3959FC1F3950F50E0551F629FF001A4
:10479000729FBB27F00DB11D639FAA27F00DB11DBD
:1047A000AA1F649F6627B00DA11D661F829F222746
:1047B000B00DA11D621F739FB00DA11D621F839FCD
:1047C000A00D611D221F749F3327A00D611D231FA3
:1047D000849F600D211D822F762F6A2F11249F57F1
:1047E00050409AF0F1F088234AF0EE0FFF1FBB1FF4
:1047F000661F771F881F91505040A9F79E3F5105B3
:1048000080F00C941B240C9466245F3FE4F3983EE4
:10481000D4F3869577956795B795F795E7959F5F5C
:10482000C1F7FE2B880F911D9695879597F90895EE
:1048300099278827089597F99F6780E870E060E0DE
:1048400008959FEF80EC089500240A941616170629
:1048500018060906089500240A9412161306140671
:1048600005060895092E0394000C11F4882352F0D4
:10487000BB0F40F4BF2B11F460FF04C06F5F7F4F8C
:104880008F4F9F4F089557FD9058440F551F59F073
:104890005F3F71F04795880F97FB991F61F09F3F2D
:1048A00079F087950895121613061406551FF2CF56
:1048B0004695F1DF08C0161617061806991FF1CFA6
:1048C00086957105610508940895E894BB276627CD
:1048D0007727CB0197F90895DC01CB01FC01F99909
:1048E000FECF06C0F2BDE1BDF89A319600B40D923C
:1048F00041505040B8F70895DC01A40FB51F415056
:10490000504048F0CB01840F951F2E910E948D24BA
:1049100041505040D0F70895262FF999FECF92BD0F
:1049200081BDF89A019700B4021639F01FBA20BD74
:104930000FB6F894FA9AF99A0FBE08950E94E024EF
:10494000A59F900DB49F900DA49F800D911D1124E3
:1049500008952F923F924F925F926F927F928F9223
:104960009F92AF92BF92CF92DF92EF92FF920F93FE
:104970001F93CF93DF93CDB7DEB7CA1BDB0B0FB608
:10498000F894DEBF0FBECDBF09942A8839884888C5
:104990005F846E847D848C849B84AA84B984C8845B
:1049A000DF80EE80FD800C811B81AA81B981CE0F52
:1049B000D11D0FB6F894DEBF0FBECDBFED01089537
:1049C000A29FB001B39FC001A39F700D811D112450
:1049D000911DB29F700D811D1124911D0895505895
:1049E000BB27AA270E9407250C9432240E94242466
:1049F00038F00E942B2420F039F49F3F19F426F45C
:104A00000C9421240EF4E095E7FB0C941B24E92F71
:104A10000E94432458F3BA17620773078407950767
:104A200020F079F4A6F50C9465240EF4E0950B2E95
:104A3000BA2FA02D0B01B90190010C01CA01A001F0
:104A40001124FF27591B99F0593F50F4503E68F14B
:104A50001A16F040A22F232F342F4427585FF3CF8C
:104A6000469537952795A795F0405395C9F77EF45D
:104A70001F16BA0B620B730B840BBAF09150A1F0A6
:104A8000FF0FBB1F661F771F881FC2F70EC0BA0F2C
:104A9000621F731F841F48F4879577956795B795B4
:104AA000F7959E3F08F0B0CF9395880F08F09927AF
:104AB000EE0F9795879508950E9470250C943224E7
:104AC0000E942B2458F00E94242440F029F45F3FD8
:104AD00029F00C941B2451110C9466240C9421246D
:104AE0000E94432468F39923B1F3552391F3951B56
:104AF000550BBB27AA2762177307840738F09F5FFF
:104B00005F4F220F331F441FAA1FA9F335D00E2E6B
:104B10003AF0E0E832D091505040E695001CCAF7D8
:104B20002BD0FE2F29D0660F771F881FBB1F26179B
:104B300037074807AB07B0E809F0BB0B802DBF0172
:104B4000FF2793585F4F3AF09E3F510578F00C9441
:104B50001B240C9466245F3FE4F3983ED4F38695BF
:104B600077956795B795F7959F5FC9F7880F911D62
:104B70009695879597F90895E1E0660F771F881F4E
:104B8000BB1F621773078407BA0720F0621B730B01
:104B9000840BBA0BEE1F88F7E09508950E94D52587
:104BA0006894B1110C94662408950E944B2488F0F7
:104BB0009F5798F0B92F9927B751B0F0E1F0660FE1
:104BC000771F881F991F1AF0BA95C9F714C0B13022
:104BD00091F00E946524B1E008950C946524672F3C
:104BE000782F8827B85F39F0B93FCCF38695779551
:104BF0006795B395D9F73EF490958095709561953A
:104C00007F4F8F4F9F4F08950E94872308F48FEFA7
:104C100008950E948723880B990B0895991B79E0CA
:104C200004C0991F961708F0961B881F7A95C9F73C
:104C300080950895A1E21A2EAA1BBB1BFD010DC091
:104C4000AA1FBB1FEE1FFF1FA217B307E407F5073C
:104C500020F0A21BB30BE40BF50B661F771F881F18
:104C6000991F1A9469F760957095809590959B01AE
:104C7000AC01BD01CF010895EE0FFF1F0590F49127
:104C8000E02D099481E090E0F8940C945626FB0105
:104C9000DC014150504048F001900D920020C9F7CE
:104CA00001C01D9241505040E0F7089516E0C7EB57
:104CB000D6E004C0FE010E943C262196C83BD107E5
:064CC000C9F7F894FFCFD4
:104CC600FFFF00FCE1A8A89C084907EB097307D879
:104CD60009AF07E2066907060A8D07FFFFF4062AF1
:104CE6000C0000C07F01FF2B192B190000000000EB
:104CF60000000000000000000000000000000000AE
:104D0600000000000000000000000000000000009D
:104D160000C0E0F0F8FCFCFEFFFCE0000000000034
:104D2600000000000000000000000000000000007D
:104D3600000000000000000000000000000000006D
:104D4600000000000000000000000000000000005D
:104D5600F8F8F8F8F8F8F8F8F8F8F8F8F0F0E0E00D
:104D6600C080C0FCFFFFFFFF7F3F7FFFFFFFFFFF0D
:104D7600000000000000000000000000000000002D
:104D8600000000000000000000000000000000001D
:104D9600000000000000000000000000000000000D
:104DA60000000000000F1F3F7FFFFFFFFFFFFFFF18
:104DB600FFE7C7C7878F9F9FFFFFFFC1C0E0FCFFCC
:104DC600FFFFFFFFFCFCFCFCFEFEFEFCFCF8F8F01F
:104DD600E0C0C0000000000000000000000000006D
:104DE60000000000000000000000000000000000BD
:104DF60000000000000000000000000080C0E0F19C
:104E0600FBFFFFFFFFFF7F1F0F0F87E7FFFFFF1F60
:104E16001F3FF9F8F8F8F8F8F8FDFFFFFFFFFFFF6E
:104E2600FFFFFF7F3F0F07010000000000000000AA
:104E3600000000000000000000000000000000006C
:104E46000000000000000000000000000000F0FE6E
:104E5600FFFFFFFFFFFFFFFFFFFFFE7E3F3F0F1F2E
:104E6600FFFFFFFCF0E0F1FFFFFFFFFFFCF0010199
:104E76000101010101010000000000000000000026
:104E8600000000000000000000000000000000001C
:104E9600000000000000000000000000000000000C
:104EA60000000303030303030303010101010000E0
:104EB6000000000000030F1F3F7F7FFFFFFFFF7F03
:104EC6007F1F03000000000000000000000000003B
:104ED60000000000000000000000000000000000CC
:104EE6000000000000C604800000000000F719DB87
:104EF600182C19B40EAD0E850EA10E950EB50E84A6
:104F06000E991998193F0EFB0DAB0D8D0D160DB7A9
:104F16000C00000000600F8B118114DD0F021100E0
:104F2600000000000000008114F519F519000000CA
:104F3600005F0F89118114610F801044485431318C
:104F460000444854323100444854323200444854F4
:104F56003F0048756D696469747900312E302E30D2
:104F66000054656D70657261747572650042617496
:104F7600742E20766F6C746167650048656174698C
:104F86006E67207374617475730053657420746161
:104F9600726765742074656D6572617475726500FB
:104FA6002100202A430020250023005F00543A00F8
:104FB6002D2D00423A00322E322E30006E616E00E8
:084FC600696E66006F7666005B
:00000001FF
